:100000000C9495090C94C2090C94C2090C94C20971
:100010000C94C2090C94C2090C94C2090C94C20934
:100020000C94C2090C94C2090C94C2090C94C20924
:100030000C9497410C94C2090C94C2090C94C20907
:100040000C94C2090C94AA290C94C2090C94C209FC
:100050000C94C2090C94C2090C94C2090C94C209F4
:100060000C94C2090C946E410C9444410C94C20946
:100070000C94C2090C94C2090C94C2090C94C209D4
:100080000C94C2090C94C2090C94C2090C94C209C4
:100090000C94C2090C94C2090C94C2090C94C209B4
:1000A0000C94C2090C94C2090C94C2090C94C209A4
:1000B0000C94C2090C94C2090C94C2090C94C20994
:1000C0000C94C2090C94C2090C94C2090C94C20984
:1000D0000C94C2090C94C2090C94C2090C94C20974
:1000E0000C94C2090C9438340C949D1B0C9420374A
:1000F0000C94F6300C941E270C94A43B0C94C8343A
:100100000C94983A0C948E3E0C94833E0C9470257B
:100110000C9412360C94F43F0C94073A0C94993ECC
:100120000C94DD2D0C94A42F0C94C43A0C94F22F53
:100130000C9405170C94B2250C94DD2B0C94B93A51
:100140000C94FC2B0C9427190C94B91B0C94F038CC
:100150000C9489150C9444190C94163F0C94F117C7
:100160000C94C0220C944C1A0C942A170C946822FC
:100170000C94D52F0C94731D0C94F9330C946517C3
:100180000C94811B0C94A6250C94491E0C943B37AF
:100190000C94E0180C94271C0C9426190C94B5258B
:1001A0000C94AD220C94611A0C9439220C94712495
:1001B0000C9438410C94C23B0C94353F0C9435168A
:1001C0000C947D370C94AE2C0C94F53A0C949B391E
:1001D0000C94AB1D0C940B340C94FE250C94E22E65
:1001E0000C9405150C94D0320C94B8300C944A3809
:1001F0000C94162E0C948F340C94EB2C0C946130D0
:100200000C94A02B0C948F1E0C94922E0C941A23F9
:100210000C94BE160C94F73E0C94753B0C949E36D1
:100220000C94752D0C948A270C94FA320C94143B80
:100230000C9407410C9482330C9406260C940635DA
:100240000C94282C0C94BB400C94793A0C94D23822
:100250000C94A0380C9446150C946E240C94312CFC
:100260000C94442B0C94F6240C948D230C94262F80
:100270000C940B350C94AB230C94A23B0C940A28E1
:100280000C9490300C94A2170C94DF320C94692FCC
:100290000C944E290C946C160C94D91F0C94703F3E
:1002A0000C94E8390C94E0270C94BB150C94F815C9
:1002B0000C94E6160C94C5330C9470180C943A1BED
:1002C0000C94F5230C94A31D040400000400000406
:1002D0000404040000000004040000000004000006
:1002E0000000000000040000000000040002000004
:1002F00004000400000407040400000404040000D7
:1003000002020000000204070004000404000004CC
:1003100000020204040404040000040004040404B1
:1003200004040400040002030400040400040004A4
:1003300000000400040000000000000000000100B4
:100340000201023303B52502000001000000A625CA
:1003500003000001000000B22504000001000000BD
:10036000682205000001000000AD22060001000126
:10037000E111C0220700000100000039220800013D
:1003800000013203F6300900000100000026190ABE
:1003900000020101DC114C1A0B000301032F03279B
:1003A000190C000201022D03611A0D000200023334
:1003B0000306350E00020002C8111A230F000300C5
:1003C000032F03F52310000200022D038D231100DB
:1003D0000500052803AB231200020002C81161309A
:1003E00013000100013203B83014000200022D0393
:1003F00090301500020002C811D52F160004000429
:100400002403123617000500051F030B35180001E1
:1004100000013203C5331900080008170338341AE5
:100420000003000314038F341B00020002C8118272
:10043000331C000200022D030B341D00040004C015
:1004400011C8341E000100013203F9331F000800F7
:10045000080C038F1E20000200022D03491E2100FC
:10046000040003CA11E0272200030002CD110A286C
:100470002300030002CD11D91F2400040004C4117D
:10048000AB1D25000100013203A31D26000300035C
:100490000903731D27000400030603062628000332
:1004A0000002CD111E272900040004C4118A272A46
:1004B000000100013203FE252B0003000303032883
:1004C0002C2C00030003CF11F6242D00060006FD9E
:1004D0000270252E00020002C811DD2D2F0005003C
:1004E00005F802A02B3000040004D611FC2B3100CB
:1004F000020002C811DD2B3200040003F502752D45
:100500003300050005F002162E340001000132030D
:10051000F0383500040003B1119B393600050005A1
:10052000EB02AE2C3700040004C411A038380003DD
:1005300000030903D2383900030002CD11E8393A2B
:1005400000030002CD11793A3B00060006E50207E0
:100550003A3C00030002CD11811B3D00030002CD97
:10056000119D1B3E00080008DD02B91B3F0006007C
:1005700006E502271C4000050005D8023A1B410091
:10058000060006D2023B37420003000314037D3706
:1005900043000100013203143B44000200022D031A
:1005A000753B4500020002C811F53A4600030002FF
:1005B000CD11F43F4700040004C011353F4800034B
:1005C00000031403C43A49000100013203703F4A9A
:1005D000000200022D0307414B00020002C8111661
:1005E0003F4C000100013203993E4D000200022DF4
:1005F00003BB404E00020002C811F73E4F0001004D
:10060000013203701850000200022D0365175100DB
:10061000010001320335165200060006CC026C16AA
:100620005300030003140305175400020002C8110D
:10063000E61655000100013203F8155600020002CB
:100640002D03A2175700040004C802F11758000137
:1006500000013203BB1559000200022D032A175A6C
:1006600000030003BA11BE165B0000010000003851
:10067000415C0000000500000028292A2B2C2D2EAB
:100680002F505152535455565778DA9D19698FDBC4
:10069000B8F5AFB00682768B99D4D6657B8A7C9804
:1006A0006BB3D964B2B371A659A028048D44DBC4DE
:1006B000E85A519AA38BFCF7BEC7C74BB293051AF1
:1006C0002018917CEF91EF3EFCC72C6BDBD9D9EC65
:1006D0007D29DA9677B393D9FD20CA227DE49D1453
:1006E0004D2DE16897E767EC6F6F2F2F7F60F1EB7F
:1006F000E8F59CDD8B7AE8452971F7E31DBBD0CB8B
:100700001F58F03A485E07F345325F043190CA9BA8
:10071000AACAEA0288FC31CBCAB2C9B39EA78D2807
:1007200024CB9BA1EEDFBCCA67672BBCB1EFE1AA6B
:1007300034CB1F189CC2B6771E251E40511880B6B8
:1007400091EA8FA8DFBC1A583B94653AB484E05113
:10075000FC7DE0DD8BA5090F7840E88ECB3EED45B2
:10076000FE2069D577592D2BD1A7E656266AE05F82
:10077000DFBF043E4A9E75A9DC0F7DD13CD5B3B3E3
:100780000059ABB762072F928B20989B2B642B529A
:10079000FD59647D96763C2B5E527AE4EC6C3DF715
:1007A000F09ECB308A0FF16667C9DA41D559D9EC92
:1007B00052515BAE35A5D0BD40B36A2068997AF23C
:1007C00073E4D426EFC6C446B28B130B5C889DE855
:1007D000B3326D867E82F0989503572CF26D369475
:1007E0007D6A37AAEC392D862EEBC172D43B174BAC
:1007F0004B8F831DF44D3BA2958F2E0FDCE5FB2222
:100800008A962B2BD64E6A19326E3E8AC87EC5F662
:100810002BB15F4BFBC5CBECC52A1BA4EB24B77FE8
:100820005E2E9ECD15BB4C80D4F6595DF352F10679
:100830007C1B1A322F1FAC12578E2511E4CC682D69
:100840007274CB225F248BC0500628ABDB553485F5
:100850004A9F44BF070DF7F787F00CB7E962C40D54
:100860001DAE9041F174CC78962B0B54B5C33A88E9
:10087000E7C79EB18C2D54CD9B563CF372A26365A5
:10088000BD52FC17D4BA1FC0E1FB1475EBF98CE420
:10089000B0052273928D1D6FED5375C46EF217F083
:1008A0002347435BCD7E98DA11EC1C1852E45E0CB2
:1008B000EC4E0963E8E8C5234FF762B7571C862B57
:1008C0001F1E1C6957F2234E6ACFD2FEA5E5249B5A
:1008D0006084699CFE18B23E4A2BB97BF3EAEF10A4
:1008E000E5C270848BAA4533CAA53593D0598FECE5
:1008F000976B17397279C4DA981485FD7CA9F37463
:100900006CCD2CAF8A746AE0F1DABB81634CB74FCF
:1009100087A5B6265688CE7C52AC53C00E6A2825D1
:10092000F788068EB17ECFBBAA8150D21E95A87FD4
:10093000EC849A38D7EEAB7CC83A6B1BDD737A1027
:1009400087586F37D1F27A5171626DE1A874280F20
:10095000275688AC05BF1FC09E1BC8666BB3022A12
:100960003B65CBA49F8505C3C0CC9AAEE01DDE07D6
:1009700079A5A378151880A74EF4FC00028D960087
:10098000E129BCE2DD8ED7F94B8A810D1E015B1493
:10099000E4D27D53F183B423B3AAF51D40AF6DD2E9
:1009A00019A72578BA0BACC4AE957127763BDE212A
:1009B00013B2A1E010C4EE7295F4E04D59CFAD80B2
:1009C0000270CEAD8074022E9D920C59DEE5141299
:1009D0004F663BF066F54E10B25E291870075A0E4E
:1009E0002D6A01FCF064A663732AE1BE142CD0A624
:1009F0001EFC2639278B0918AA8079895183813AF0
:100A0000302C9132B43D70E54B0CF7D292EB74B7B9
:100A100026400C3AF783F4431A2C55400266F12F16
:100A2000EA894B32DA68E1B064B3ED9FB28EFBE83D
:100A3000E068D6B98ACC7C1EA3944444491BC59473
:100A40008F08F92878DD8B2D141BDB2D5CA8BCD317
:100A5000E660788809F770367CC33EFA3D5CB86F73
:100A6000CA422DBEAF71C6BBAE1959C00A4CD704DD
:100A7000732574ABFBD83F19DAC2D9055551FBC1B8
:100A8000E325062B26039A943623EB84EBD6133802
:100A90006570838B74AB950318D53A1342C9146EF5
:100AA0004A28595A806939F47FBA56E55C4BE71AEF
:100AB000B782527007887B9E3F784554B8306F9854
:100AC000D450F6056D03D16B7ABF1795634360541C
:100AD000754C859A8CA00E446A894C4A8C2999F9E8
:100AE000044ED9DB2422AC2C4BE36A62426BB91C66
:100AF000834DDFB4B44F9ED41B533AD104EE8090A3
:100B000035BC8384FD8DC21D2312E467B1251D2DE4
:100B10002D434479222400B0267B2C877DE312CF1D
:100B20005646A6420BC89D10520BCF5212D2D1C0CE
:100B30008F15D0F68EC62F9C161665523759706BDE
:100B40009E106B22038C899AB9429177949B4CD862
:100B5000D9AB10067F05447F8800AA6483D4B8D03F
:100B60009F0A9F82FEF43E40000B42189F8749F582
:100B70000FEF0E0F801407AACEB33447451F202570
:100B80008454F367FD0428456C48151D65AB0501C9
:100B90001979FC49010952C1A7B85A0EFBB9AD73C6
:100BA0005217DD967382F3E2A3771A46E6749466D1
:100BB000704BA799AA29B8972400257128C7724CB1
:100BC000256463324BD54871ACC83B209A686EBE31
:100BD000CD47082643F5E3F7D270BC1A431DCFC2B8
:100BE000F112A154A59862AA879C20B0EEB67EB3FC
:100BF000583B005560A0F5524262363F79D90A3021
:100C0000E0625DE78D44ADF2A74DEF949C40231A5E
:100C10001B65883E7DC403C024560EAEF7EB47DE4D
:100C2000369D2E5EC87BD5DA1A097F6E05A8C42FC3
:100C300095D696D2840B1F088442A9F2981F7B3E5A
:100C4000107D3535290E39CEAF2ED39BF3DFB0D2D0
:100C5000C492F9E26E93DEBEFBB8C190363B9BDDD9
:100C60005E8427B71701FC5FCCBCC3FE491D5ECD77
:100C70004F6EAFF0E0F2C32F97EFD31F3F5DFF8AB7
:100C8000EE3257FF4E663797770095F515DF6541D1
:100C90009CCC01F0F6CB0DDD16607AF9747D79FD00
:100CA000EE5FD7E997771FAF7EF9826A0B70737397
:100CB000FD0936E915BC135989775DC35DD77817EF
:100CC0009CBE3BFF905E9CDF5D2119BA6AF3F9FC84
:100CD000F326DDDCDD6C7E8593CD359E245FB1C0CF
:100CE0001CA0E4554D991AE9E8FA0B3F150F7380E3
:100CF000019BC6F5EDF97C76F6EFF9C9EA3FF0CC39
:100D00000BFC5ED1F7257E4310508B2B5C4069AA0B
:100D100016D7B808035AFC888B48E3BF550B4DE043
:100D2000275CC49AC0CFB8586A9CF7EA1A8DF34181
:100D30002D10E7EB28344047A2A6518B300CE1C5BB
:100D400027B34CC6F36859A822AD2F793C5F04F74E
:100D5000C0B0C6D2EC29FD217B985A049A60079D49
:100D6000452A0AAD74A68C634BD5034D32CE4B3564
:100D7000FC61A6EA2E28605E6635AB9B9E81B1338E
:100D80000C180C621C0536A66C963DED057C93EDA7
:100D900049D682F7C04D14910DEE20B94A7EDD820E
:100DA0006D9B8E8119FCD3AC85C4D342EDAB2D492C
:100DB0006D13A0FEB5C784002DE50E1E04C566D6D2
:100DC0002374A69F490D3435121A5822289A3CB52F
:100DD0003BB4AB7287220D2FE535333DA6C507A383
:100DE000BBA4B11F6BB30E4C8E4A55D54998838E68
:100DF000430A93BD1AFEFD9801BF05EB1BA6220511
:100E0000CE549483D3E4EDA7DFB05AC2E1CC3FF4D3
:100E10007066246AB6388DA8D07F479998997198E2
:100E20009BEA5142A41ED140E9C1A4EA76DC1E80AF
:100E3000E19BB38A4336A5A6D71C56CD2337CF6690
:100E4000381741D777C7768A62E72614A30FCE7585
:100E5000F96DEF0F3D22206946F6896DA8D9C5715D
:100E60008709301895BC7D5D25E57BD16AC4683E55
:100E70000650DD86E349D238D5408CCA208F0A0E51
:100E80004F6EB26794F2CA0894668E37D01165200F
:100E900076E87A216919CD02C91B21D1EC2414CE40
:100EA000C55062D70DC898E3990E9F4A6DFC91A377
:100EB0002630BD7F1B619F7585F20A030DF1FA068E
:100EC000C5AFCA1E065FDDB66C9EA86EFA08EE902E
:100ED000316207FD50859F6872000E4207D809F9FC
:100EE00007A26EA9BAA00A421DD5F852B71DA930B3
:100EF0006BDDA4ED9A1D08B382A767C8DB16D23359
:100F0000BC1284CDD1C3319B7DE29A29B46A74416D
:100F1000B806450D6A4093C741E1C6021C48873DAB
:100F200089B284AC9503BDD1188CF2B0C3B412FA67
:100F30000E0626CD0DB82BE9503D002144355466F0
:100F4000CF3807A86463465D6ADC0DC49483AB6048
:100F5000E54FBE37DAE3FBA661DB4C71479CE18CC1
:100F6000E1B36F5228320054C33D1A7D7D56F240E2
:100F70004C48D892AB99C95D2D8716933627EF5709
:100F80002117A7D65FB23EDF17CD8EA4F817EA4D22
:100F9000D5CF08D09F0DF50310C6D04153666F5FC3
:100FA000BA03B04CF211882D1242227A3094039287
:100FB000E592F41BBA691945B6A62E21183E0281A6
:100FC000ECBE3431CEB24F7308A6AB14FAAD41FD7E
:100FD0009E61C3A8FE95A3A06193C4A100062D3213
:100FE000841C8EF108EB4C88FD6A80FCF1FCF23D1C
:100FF000D5916632A6CA3494519975984D70AA78E5
:10100000A41641C59019E39C5107607212ACC02030
:10101000591DCCE2305B41C1102E5671AC929F5EDF
:10102000242AFBD1228995966191244BF80EBF02A8
:10103000A552E42040C09FE10F3E6F6F3F3C8633D6
:10104000D547B4101A38FDBE639AF3519FA95C3A94
:101050003DD6C89CA2B998DF69462899D77A3375DE
:101060004285EA29C60D6A585C5D781ADAA120A487
:10107000333DB652A5A39A6EE19E519FAAC7217C2B
:10108000A4B6434274F59B8CEAE9BFF7708DA23F8A
:1010900052EF7EAC75CD4C5182A1DB11E1297A9FD4
:1010A00099C98D4843370E01EFF0127FE487F88924
:1010B0001B8FA546D65E7BADD64634811B4179B0E9
:1010C000761645E5FE6B84C56195130A9B5634245C
:1010D0009775E8465607C3038F013398F205127BD4
:1010E000E3262D13D3490D79AE666AC81E86337880
:1010F000A63F9F3DC5584FAE0A951774487EC7223C
:1011000031FBD6399F0CAC4EA90D7538A3B982EBD3
:10111000A175E76FFA02EA3F7D92F7830AE6054D73
:1011200073A0F801FF4F4DB691DA5C30E94B1727F9
:10113000CDF8E9B80CA3634DE98126FDC183AFD298
:101140004532EE02FFD40442559E76BDAA17B1F88F
:10115000C7674967BA72A8F41FF93BFD1E19BBC6E1
:101160006ED2F5D1645020D9E524908C557AD4BF45
:10117000078AF95ACF4BD70C1EB2806D203D7FEE07
:101180003778CED6F2CC769BC727A19EE961F14A8B
:10119000936A46BF040DA3488145BDFE5D1B22D95D
:1011A0003A0A926815CFBEFE0FB66C620D240B0092
:1011B0000004020704000002000204040004000707
:1011C00004000004040000000404040407040704ED
:1011D00000020404040004040004040107040004E1
:1011E000020000000000000006000202730040033D
:1011F000B11172001D06B41171000F03BA11700015
:101200004003BD116F001404C0116E001704C41117
:101210006D000A02C8116C004002CD116B00400342
:10122000CA116A004002CD1169004002CD11680068
:101230001003CF1167001104D21166001104D611FA
:1012400065000D02DA1164000B01E1116300400139
:10125000DC1162001204DD1161000B01E11160007C
:101260001002E2115F001503E41100004002E711D3
:101270005E000E02E9115D000901EB115C00060041
:10128000000020002300260029002C002F0032003F
:10129000000100000301060109010F470044004559
:1012A0000080013548004400450020010D88008081
:1012B00000810080000E8A008000810020000F8CD9
:1012C000008000810008000CB300B000B100800372
:1012D0003EB400B000B100200323980090009100BC
:1012E0008000249A00900091002000259C0090002E
:1012F000910008003BA800A000A10080003CAA00CB
:10130000A000A10020003DAC00A000A10008005BEF
:1013100028012001210180005C2A012001210120F7
:10132000005D2C0120012101080011241FBECFEF18
:10133000D1E2DEBFCDBF00E00CBF14BE0FB6F89403
:10134000A895809160008861809360001092600091
:101350000FBE12E0A0E0B2E0ECEEF4E800E00BBF5C
:1013600002C007900D92AA32B107D9F723E0AAE292
:10137000B2E001C01D92AB39B207E1F70E94DB2A4F
:101380000C9474420C940000CF93DF93CDB7DEB77A
:101390006D970FB6F894DEBF0FBECDBF0E94C82A6E
:1013A0006B017C0180912602882311F40C94C011FA
:1013B0000E94C82AC61AD70AE80AF90AF894809146
:1013C0002602882351F08FEF809326027894000044
:1013D000F894809126028111F9CF78940E94C82A4E
:1013E000A7019601260F371F481F591F288F398FD5
:1013F0004A8F5B8F81E08093260280915702882379
:1014000009F442C0109257028FEF8983AE014F5FFB
:101410005F4F7A0104E312E169EF73E3C7010E94B1
:1014200012316C01892B81F1D60156968C9182FF85
:10143000F3CF0E94C82AF894F60137892689422FF3
:101440004B7F468B78949F938F937F936F931F92DC
:101450003F9321701F922F9389811F928F931F9327
:101460000F930E943F202DB73EB7245F3F4F0FB62A
:10147000F8943EBF0FBE2DBF69EF73E3C7010E9412
:1014800012316C01892B81F680915802882331F149
:10149000109258028FEF8983AE014F5F5F4F7A0140
:1014A0000EE212E169E47EE1C7010E941231FC0103
:1014B000892BA1F0958D868D9813F4CFF894858DA6
:1014C000968D891711F40C94CE12789469E47EE11C
:1014D000C7010E941231FC01892B61F780915202F1
:1014E000882311F1109252028FEF8983CE01019669
:1014F0007C010CE112E16DED7BE2C7010E9412312B
:10150000009791F0DC0158962C912F3FA1F7F894A9
:10151000FC0126852111FEC678946DED7BE2C701A2
:101520000E941231009771F780915302882309F4C9
:101530003FC0109253028FEF8983AE014F5F5F4F20
:101540007A0106E112E166E17EE2C7010E941231F2
:10155000009771F1DC011E962C911E9723FFF3CFAB
:10156000F894FC012685277F268778949C01265EC7
:101570003F4F3F932F9350968C91869586958695F5
:101580001F928F9389811F928F931F930F930E94B5
:101590003F20EDB7FEB738960FB6F894FEBF0FBEEA
:1015A000EDBF66E17EE2C7010E941231009791F61D
:1015B00080915A02882309F44AC010925A028FEF90
:1015C00089839E012F5F3F4F79010AE012E162EDAE
:1015D00078E3C7010E941231FC01892BC1F1848D8F
:1015E00080FFF5CFF8949481258136814781548915
:1015F00065897689A789B08DD18CC28CB38C848D96
:101600008E7F848F7894BF92CF92DF92BF93AF93F7
:101610007F936F935F934F933F932F939F93898112
:101620001F928F931F930F930E943F204DB75EB779
:10163000405F5F4F0FB6F8945EBF0FBE4DBF62EDC7
:1016400078E3C7010E941231FC01892B41F6809199
:101650005902882309F456C0109259028FEF8B87E4
:10166000BE01655F7F4F1B01BCE09B2E17E0812E02
:101670006DE777E3C1010E9412315C01892B09F407
:1016800041C0D50159968C91599780FFF1CFF894BC
:10169000F5014480558066807780818D8E7F818FB3
:1016A000789458968C91813009F4E5C308F4C3C34B
:1016B000823009F480C38330D9F6CB8419821A8230
:1016C0009E012F5F3F4F42E061E0F50184899589DB
:1016D0000E94DF1E09811A81102701271027F02F91
:1016E000F670EF2E20E030E0B301A201C5010E94A8
:1016F000A6376DE777E3C1010E9412315C01892BA7
:1017000009F0BFCF80915B02882301F110925B0248
:101710008FEF8B879E01255F3F4F1901E9E0BE2EB9
:101720008E010F5F1F4FF2EFCF2EDD24DA9406C03B
:10173000D7011E968C911E9780FDCCC365EF7AE38E
:10174000C1010E9412317C01892B91F780915C02CA
:10175000882309F46BC010925C028FEF8B87FE0127
:101760003B961F01DD24DA949E012F5F3F4F398B9A
:10177000288BAE01475F5F4F5B8B4A8B64EC7AE34B
:10178000C1010E9412317C01892B09F44FC0D7019D
:101790001E968C9182FFF2CFF894F7018480958099
:1017A000A680B780C1881686118A78948085918535
:1017B000A285B385881A990AAA0ABB0A87010E5E18
:1017C0001F4FD701CC2091F056968C91F701E80F6E
:1017D000F11DD78A108E118E8D5FF701868B8133B4
:1017E00008F0FBC0CA94D701C110EECF1F968C91B0
:1017F000882309F47FC2813009F456C5823009F488
:1018000078C6D70156968C9190E0C1970CF4B6CF6C
:101810006B85C70142960E94241864EC7AE3C101EB
:101820000E9412317C01892B09F0B1CF80917502A1
:101830008823D1F0109275028FEF8F87FE013F96BB
:101840007F01E2E79E2EF4E7BF2E06C0D601529636
:101850008C91529780FD33C466E17FE3C7010E94FB
:1018600012316C01892B91F780917602882309F15E
:10187000109276028FEF8F879E01215F3F4F790193
:1018800047E0442EAE014F5F5F4F4A015FEA552E9D
:1018900068EA662E06C0D8011E968C911E9780FDC0
:1018A00070C467EF7EE3C7010E9412318C01892B5F
:1018B00091F780913702882309F495C0109237027E
:1018C0008FEF8983FE0131967F0166EE76E1C701D5
:1018D0000E9412316C01892B09F485C0D6011E9635
:1018E0008C9180FFF2CF7980C6010E944A18F8944B
:1018F000F60196859E7F9687789483FFE6CF83884E
:10190000912C5401B4E1AB0EB11CAC0CBD1C048491
:10191000F585E02D1D86850122E0AE01435F5F4F16
:1019200061E080810E945028D6011C96ED91FC91C7
:101930001D9781E08E870E5F1F4F22E0AE01425F50
:101940005F4F61E080810E945028F60183898C5F9F
:10195000838B8601045B1F4FD8016C9062FE33C0FD
:10196000F5012181828190E0A0E0B0E0BA2FA92F9B
:10197000982F8827A22B2381822BF601E80DF91DD1
:1019800024894C015D01B22A81149104A104F0E183
:10199000BF0608F04EC50E94C82A61FC66C6F60163
:1019A000E15BFF4F20813181428153812815390548
:1019B0004A055B0508F468C6862D8D7FF801808393
:1019C000D60153968C9190E0C0970CF47ECF672D92
:1019D000C6010F960E94241878CF6B85C8010E941B
:1019E0002418CA9400CF809138028823B9F010924D
:1019F00038028FEF8983FE0131967F0101E010E00C
:101A000006C0DC0119962C9119972111DAC261EFF9
:101A100077E1C7010E941231009799F7809139024E
:101A20008823B9F0109239028FEF8B879E01255FD2
:101A30003F4F190106C0D80151968C9151978111E1
:101A4000FEC36EEB76E1C1010E9412318C01892B3D
:101A500091F7A89580917702882329F080E48093FC
:101A600060001092770210913803112309F46EC0C0
:101A700000912A0200FD12C0153008F467C0D09012
:101A80007802BD2C8BEF8D0D8C3308F4A0C4EEE7EB
:101A9000BE1609F482C6016000932A02412F50E06D
:101AA0006EE770E088E792E00E944542009739F0C7
:101AB0000E7F00932A028857924011E0180F01FD13
:101AC0000CC0902F926090932A0283E796E09F9338
:101AD0008F930E943F200F900F90D12ECC24CA9458
:101AE00020E0ED2CF12C19C0822F90E0402F50E027
:101AF000481B590BB701680F791F68587D4F8858EC
:101B00009D4F0E945B4210922602202F8FB7F894BF
:101B100090913803191761F08FBF10913803012F8E
:101B20000D1911F78FB7F894909138031913F4CF6A
:101B3000009338038FBFF1E0CF1208C083E796E02F
:101B40009F938F930E943F200F900F900E94C82A6E
:101B50006B017C01288D398D4A8D5B8D621B730B67
:101B6000840B950B8090330290903402A090350244
:101B7000B09036023FEF831A930AA30AB30A809209
:101B8000330290923402A0923502B0923602409015
:101B90002F02509030026090310270903202460E57
:101BA000571E681E791E40922F025092300260929A
:101BB0003102709232026115710541E0840791058E
:101BC00008F0E3C39B01AC010E94A241DC01CB0100
:101BD00081509F4FAF4FBF4F892F9A2FAB2FBB27FD
:101BE00040912B0250912C0260912D0270912E0297
:101BF000840F951FA61FB71F84179507A607B70761
:101C000018F48FEF9FEFDC0180932B0290932C024E
:101C1000A0932D02B0932E0240914A0250914B02A4
:101C200060914C0270914D025C546B437B4F2F2DA1
:101C3000C416D506E606270B27FDB4CBBF93AF939A
:101C40009F938F937F926F925F924F92BF92AF92CA
:101C50009F928F9284E692E19F938F930E943F2000
:101C60006DB77EB7625F7F4F0FB6F8947EBF0FBE31
:101C70006DBF80914A0290914B02A0914C02B091AD
:101C80004D02C816D906EA06FB0698F48091460272
:101C900090914702A0914802B09149020196A11D7E
:101CA000B11D8093460290934702A0934802B093DF
:101CB0004902C0924A02D0924B02E0924C02F0924A
:101CC0004D0210922B0210922C0210922D021092B3
:101CD0002E0210922F0210923002109231021092B6
:101CE0003202109233021092340210923502109296
:101CF000360258CB82E389831A820E94C82A2B01BC
:101D00003C019E012F5F3F4F42E061E0F701848577
:101D100095850E94DF1E0E94C82ADC01CB01841930
:101D20009509A609B70981329340A105B10508F0CC
:101D3000E3C2998197FD1BC3481859086A087B08BC
:101D4000D70150968C918823C1F02FEF280F41E0E6
:101D500050E002C0440F551F2A95E2F7052E000CF3
:101D6000660B770B440E551E661E771E04C07694D4
:101D70006794579447948A95D2F7BFEF4B16510456
:101D80006104710408F063C32A8130E0220F331F1D
:101D9000892F90E0982F8827990F822B932BF7019A
:101DA0002689E20FF11D478A808F918F2D5FD70121
:101DB00056962C9326CDCB8481E089831A821B8290
:101DC0001C829E012F5F3F4F43E061E0848995892B
:101DD0000E94DF1E69817A818B819C810E94D4419F
:101DE000BB27A92F982F872F9C01AD01442755278A
:101DF0002C8B3D8B4E8B5F8B89821A829E012F5FCD
:101E00003F4F42E061E0D50154968D919C915597EA
:101E10000E94DF1E8A81982F9C7F8C898170E92E19
:101E2000E82A0C891D892E893F89B301A201C501C9
:101E30000E94A6371DCCCB8419821A821B821C8279
:101E40009E012F5F3F4F44E061E0F5018489958951
:101E50000E94DF1E69817A818B819C810E94D4411E
:101E6000F62FF770EF2E8B019C01B301A201C50183
:101E70000E94A637FDCB2B852C8B99821A821B8260
:101E80001C829E012F5F3F4F44E061E08489958969
:101E90000E94DF1E69817A818B819C810E94D441DE
:101EA0006B017C01BFE0B9831A829E012F5F3F4F17
:101EB00042E061E0F501848995890E94DF1E970167
:101EC00086013327CC88EA80B301A201C5010E94B4
:101ED000A637CECBAB84F8012B2D11922A95E9F7CA
:101EE000C982980149E061E01C968D919C911D97F3
:101EF0000E94DF1ED70153968C9190E0FC017496EE
:101F0000EE0DFF1D3B81232F207FE1F0203FD1F01C
:101F1000D482D382D282D182F701E80FF91FD48A0A
:101F2000F70183898B5F838B8F3208F0CCC2D70196
:101F30001E968C911E978E7F1E968C93C7010E94D1
:101F40009C40FCCB2D81422F407F09F06EC25F8107
:101F5000452F407F11F0403FD9F648854039C1F602
:101F600049854F77942EB0E2B41790F2D701A80FAD
:101F7000B91F4A8154964C938C8181838E818283D0
:101F8000852F90E03F71AC01440F551F429552954B
:101F9000507F5427407F5427342B3383880F991F59
:101FA000880F991F80762F71822B8483D7015396D7
:101FB0008C9153978B5F53968C938F3208F489C220
:101FC00083C2898018969C901897E92DF0E052966C
:101FD000CD90DC9053975496AC90549755962D9095
:101FE0003C90569757963C91779640E050E0BA0166
:101FF000F894D1013C93000000003C93D6012C9151
:102000007894440F551F661F771F2A21412C512CAD
:1020100032014394211103C0412C512C3201442937
:10202000552966297729319718F7F894FC012185FD
:10203000118678945A016B01092C04C0D694C79478
:10204000B794A7940A94D2F7C7FE02C0DD24DA94AD
:10205000280101C0440C9A94EAF74A94512C612C4F
:10206000712C4421552166217721441655066606B8
:10207000770609F4C0C220E030E040E050E8DC011F
:102080001E962D933D934D935C93519760E850E0DD
:1020900040E030E0DC015C962C91FC01E20FF11D88
:1020A000358F468F578F60A32C5FFC01248F203320
:1020B00008F4ADCC682D48960E942418A8CCAF84B3
:1020C00050968D919C915197C09758F1B982D60145
:1020D0001C96ED91FC911D978601085E1F4F20E331
:1020E000AE014F5F5F4F61E080810E94502880E326
:1020F000F601878B80899189C097918B808B6A2D9F
:10210000C60143960E942418D60150968D919C9149
:102110005197C09770F11092260281E0809375026A
:102120009BCBD6011C96ED91FC911D979B868E0151
:102130000F5F1F4F22E0AE01455F5F4F61E080817E
:102140000E94502889818F7190E0982F88272A81DA
:10215000822BF601268537852817390710F49787D3
:102160008687D60151969C938E935097C0970CF01A
:10217000ADCFF60182898E7F828BC6010E94E84036
:102180006BCB2F84F401242D11922A95E9F75B86FD
:102190001C8669825396AC905397B12C650134E14B
:1021A000C30ED11CC00ED11E940147E061E01C9605
:1021B0008D919C911D970E94DF1E9E01255F3F4FD0
:1021C00042E061E0D8011C968D919C911D970E9480
:1021D000DF1E8C85B82FBF733B2E8074782EF801DC
:1021E000EA0DFB1D8A81848B8B81F60181838C81B2
:1021F00082838D8183838E8184838F818583D801BF
:1022000053968C9153978A5F53968C938E3208F035
:10221000ECC1772031F0F801818992890196928B87
:10222000818B332009F4DBC1D8011E968C911E9757
:102230008E7F1E968C93C8010E949C4032CBFB84FB
:1022400019821A821B829E012F5F3F4F43E061E09B
:102250001F968D919C9150970E94DF1EF801118A64
:1022600029818A8190E0A0E0B0E0BA2FA92F982FB1
:102270008827A22B2B81822BA7FDBF6FF80127890E
:10228000E20FF11D808F918FA28FB38F84E0820FB8
:10229000D80157968C93803308F4D3CB6F2DC801A7
:1022A00043960E942418CDCB8FE789838EEF8A83D3
:1022B0000E94C82A6C8B7D8B8E8B9F8B9E012F5F1B
:1022C0003F4F42E060E0F701848595850E94DF1E64
:1022D0000E94C82A2B013C01DC01CB012C893D89DD
:1022E0004E895F89821B930BA40BB50B81329340FF
:1022F000A105B10508F4B8C0D70156968C91F70135
:10230000E80FF11DD78A92E0908F118E8D5FF70153
:10231000868B77CA318D308F7894AC01415F5F4FE7
:102320005F934F931F922F93FC0187891F928F9386
:1023300089811F928F931F930F930E943F202DB787
:102340003EB7265F3F4F0FB6F8943EBF0FBE2DBF7E
:10235000D2C82A893B89E217F30709F00FC180959B
:1023600090E02A8530E08217930709F456C1D7011F
:1023700056968C91F701E80FF11DD78A93E0C4CFF0
:10238000C88ED98EEA8EFB8E35C86115710550E175
:102390008507910508F035CC8B019C0101501F4F3A
:1023A0002F4F3F4F5527432F322F212F0E94A241FD
:1023B000DC01CB0140912B0250912C0260912D0247
:1023C00070912E02840F951FA61FB71F15CCC090C9
:1023D00079028C2D807F803109F059CB1D1508F4CE
:1023E000B5CB8D2D90E0FC01E958FD4F20812E37B3
:1023F00009F04DCBFC01EB58FD4F1F01FC01EA58E1
:10240000FD4F9081D1018C91292F30E07901F82A7C
:102410006DEF6D0D88E792E00E94DE2AE816F9065E
:1024200009F4BDC1B090780232CB403F09F070CDC5
:102430008ECDD8011C92F601E25BFF4F608134978C
:10244000808191810E94FA34F6018389BCCAF70128
:102450008689E80FF11DD78A91E0908F118E8D5FEC
:10246000D70156968C93CDC980EC89831A829E0140
:102470002F5F3F4F42E061E0D7011C968D919C9108
:102480001D970E94DF1E49812A81942F9227892F50
:1024900082958F709827892F869586958927982F02
:1024A0009695892780FDDAC046FF07C1F701868926
:1024B000E80FF11DD78A25E0208F118E8D5FD7019F
:1024C00056968C939EC9912C6A2DC7010F960E9437
:1024D0002418BEE1B91508F08EC2F70181899289EE
:1024E0000196928B818B1092260281E080935B0291
:1024F00025C9D7011C96ED91FC911D971481C280CE
:10250000038140E06C2D702F812F0E9429290E94A9
:10251000C82A2B013C01B0E14B0E511C611C711CFF
:102520000E94C82A272D461657066806290B27FF42
:10253000F7CFF89441E06C2D702F812F0E9429294C
:102540000E94C82A2B013C017894E889F9892AE085
:1025500011922A95E9F734E8398343E24A839E01D0
:102560002F5F3F4F4AE061E0D7011C968D919C910F
:102570001D970E94DF1EFE01339685E09191892709
:1025800028E030E005C0880F2150310909F4E1CE80
:1025900087FFF9CF880FBDE18B27F6CF5489658976
:1025A00090892189328943898F5F858F78946F93D1
:1025B0005F934F933F932F939F9389811F928F93A4
:1025C0001F930F930E943F206DB77EB7665F7F4FCA
:1025D0000FB6F8947EBF0FBE6DBF0C94520A1092D6
:1025E000260281E0809376025CC9622DC8010F96B5
:1025F0000E9424180ECE21FD24C0FC01468457847D
:1026000060887188411451046104710409F0F8C1B3
:102610003A2D4B2D5C2D6D2D3DCD898584FF44C019
:102620008B8187FD8CC0D70156968C91F701E80FFE
:10263000F11DD78AB4E0B08F118E8D5FF701868BC4
:10264000E0C820E030E040E050E4DC011E962D932D
:102650003D934D935C93519760E419CDF7018689C2
:10266000E80FF11DD78A93E0F8CEF601ED5AFF4F3F
:102670002080318042805380292F621573058405A4
:10268000250927FF8CC99CC9F601ED5AFF4F6083CD
:1026900071838283938336976081339780819181A0
:1026A0000E94FA3480E08AC9D70156968C91F701CE
:1026B000E80FF11DD78AB5E0BECF481859086A085F
:1026C0007B08F70130893323C9F08FEF830F61E076
:1026D00070E002C0660F771F8A95E2F7CB01092EE2
:1026E000000CAA0BBB0B480E591E6A1E7B1E04C0B1
:1026F00076946794579447943A95D2F77FEF4716AC
:1027000051046104710408F03FC0842F90E0AC01D3
:10271000542F4427550F550FF4E02F9FC00111246B
:10272000842B952BD70156962C91F701E20FF11DC2
:10273000478A808F918F2D5FF701268B62C84818DA
:1027400059086A087B08F1E54F16F5E55F06610454
:102750007104D0F42C8130E0220F331F90E0982FC9
:102760008827990F822B932BD70156963C91F7011E
:10277000E30FF11D2F8126952F73278B808F918F6B
:102780003D5FF701368B3DC8D70156968C91F70116
:10279000E80FF11DD78A91E0B7CD11E09EC9802FD7
:1027A0008D7F80932A0280910102C8121FC181E0AF
:1027B0008C0D8F70806180930102BAE72B16B2E016
:1027C0003B0609F008F4FDC00AE712E081E7E82EB5
:1027D00086E0F82E99E0C92E8DB69EB6D8012C91D0
:1027E00027FDB7C00F5F1F4F30E02115310509F4F9
:1027F000FFC0F701859194912817390708F0F8C0B8
:10280000A901440F551F440F551F440F551F420F78
:10281000531FFA01E95CFC4FE4916DB77EB784E089
:10282000E89F6019710911240FB6F8947EBF0FBE9E
:102830006DBF8DB79EB70196FA01E75CFC4F6491BE
:10284000FA01E65CFC4F45915491FA01DA01A60FBA
:10285000B11DBD01AC019D8A8C8A9D8F8C8FE617BE
:10286000F70709F488C02016310608F46FC0A49158
:10287000A53028F1A73009F069C02801BFEF4B1A35
:102880005B0AD8016C908201060D111D20163106DD
:1028900008F45CC0712C812C912CDA016D927D9230
:1028A0008D929C921397612C712C14964D925D928F
:1028B0006D927C921797485F5F4F3196D0CF5A0147
:1028C000B4E0AB0EB11C48018FEF881A980AD8010A
:1028D0001C91912F9F77492E512C612C712C012F27
:1028E0000076003609F440C017FF6EC084010F5F08
:1028F0001F4FD80111978C91440C551C661C771CF6
:10290000440C551C661C771C440C551C661C771C1B
:10291000440C551C661C771C440C551C661C771C0B
:10292000440C551C661C771C440C551C661C771CFB
:10293000982F9F77492A87FDDACFDA014D925D9271
:102940006D927C921397A501319689CF87E00E9402
:102950007C3E2F77B0E82B9F90011124F8018181F4
:10296000282B0E5F1F4F41CFB0EE4B2A55245A94AF
:10297000652C762CB9CF8C889D888C8D9D8D40914F
:102980002702442351F0C29EF001C39EF00D112492
:10299000E85CFC4FE491E0FF19C0C29EF001C39EC9
:1029A000F00D1124E45CFC4F25913491F901199547
:1029B0000FB6F8949EBE0FBE8DBE0215130508F427
:1029C0000BCFCC24C3948CC88401B7CF809128024C
:1029D0001F928F93E6E7F2E1FF93EF930E943F206F
:1029E0000FB6F8949EBE0FBE8DBEE7CF1D2D6DC8ED
:1029F00085E00E947C3EF1E0F91508F474CD97CA99
:102A0000342D452D562D672D45CBCF93DF93FC01FB
:102A100080859185A285B38521892223F1F02589BE
:102A200036892F5F3F4F368B258B880F991FAA1F42
:102A3000BB1F880F991FAA1FBB1F44815581668148
:102A40007781840F951FA61FB71F84839583A68364
:102A5000B78381E0DF91CF910895C485D585388112
:102A60002685232351F721E0218B10922602209303
:102A70003902880F991FAA1FBB1F880F991FAA1F11
:102A8000BB1F880F991FAA1FBB1FD7CFCF93DF9300
:102A9000FC0182859385A485B585218520FF20C012
:102AA000228D338D2F5F3F4F338F228F23E021877D
:102AB000880F991FAA1FBB1F880F991FAA1FBB1F32
:102AC0004481558166817781840F951FA61FB71FAA
:102AD00084839583A683B78381E0DF91CF910895A6
:102AE000C289D38938812489232351F721E02187A2
:102AF0001092260220933802880F991FAA1FBB1F2D
:102B0000880F991FAA1FBB1F880F991FAA1FBB1FE1
:102B1000D7CFFC01868580FF06C0218932892F5FCF
:102B20003F4F328B218B81FF0DC0DF01A95BBF4F6F
:102B30000D90BC91A02D2C91DF01A75BBF4F9C9104
:102B4000922339F4816086871092260281E0809377
:102B50003702448155816681778180859185A28580
:102B6000B385840F951FA61FB71F84839583A68303
:102B7000B78381E008959F92AF92BF92CF92DF9288
:102B8000EF92FF920F931F93CF93DF93FC019080FE
:102B90006EEB76E1892D0E945C31EC01F8940E9485
:102BA000C82A9B01AC01EC85FD8590818E85892327
:102BB00078948823B9F0A12CB12C6501E12CF12C7B
:102BC0008701692DCE0143960E94FD2ADF91CF91A6
:102BD0001F910F91FF90EF90DF90CF90BF90AF903B
:102BE0009F90089584E0A82EB12CC12CD12CE6CF63
:102BF0009F92AF92BF92CF92DF92EF92FF920F938C
:102C00001F93CF93DF93FC01908061EF77E1892DD3
:102C10000E945C31EC01F8940E94C82A9B01AC012F
:102C2000EA89FB8990818C89892378948823B9F07B
:102C3000A12CB12C6501E12CF12C8701692DCE016D
:102C400048960E94FD2ADF91CF911F910F91FF902E
:102C5000EF90DF90CF90BF90AF909F90089584E069
:102C6000A82EB12CC12CD12CE6CF0F931F93CF935C
:102C7000DF93FC01C081D1811281038166EE76E190
:102C80008C2F0E945C31FC01ED5AFF4F23812F9362
:102C900022812F9321812F9320812F933797808139
:102CA00082FB882780F91F928F930F931F93DF93E6
:102CB000CF9388EF91E19F938F930E943F208DB730
:102CC0009EB70C960FB6F8949EBF0FBE8DBFDF91D6
:102CD000CF911F910F9108950F931F93CF93DF937F
:102CE0008C0166EE76E1DC018C910E945C31EC0196
:102CF000F80180859185A285B385FE01E15BFF4FD8
:102D000080839183A283B383892B8A2B8B2B59F4E5
:102D1000359711821082C45BDF4F1882DF91CF910B
:102D20001F910F910895F80184819581A681B78143
:102D3000FE01ED5AFF4F80839183A283B38369EF35
:102D400073E3D8011C968C910E945C31FE01E65B16
:102D5000FF4F918380833396D80150968C91509782
:102D60008083319654968C918083C45BDF4F86E0DC
:102D70008883DF91CF911F910F9108950F931F9337
:102D8000CF93DF938C014BE450E06EEB76E1FC01D6
:102D900080810E943631EC0185E095E19B838A8336
:102DA000198A63E77DE1F80184810E945C31988B88
:102DB0008F8760E0F80180850E94F0286C877D870E
:102DC0008E87DF91CF911F910F9108950F931F93DD
:102DD000CF93DF938C0147E550E066EE76E1FC018E
:102DE00080810E943631EC0189E895E19B838A83DA
:102DF0006EEF75E2F80184810E945C319D878C87BB
:102E0000DF91CF911F910F910895EF92FF920F9351
:102E10001F93CF93DF93EC010E94E61666EE76E1F6
:102E200088810E945C318C017C0187E4E80EF11CF2
:102E300061E088850E94F028F701608371838283B6
:102E400082E0F8018687DF91CF911F910F91FF906B
:102E5000EF9008950F931F93CF93DF938C016EEB48
:102E600076E1FC0180810E945C31EC010E94C53B4F
:102E7000198AF80184819581A681B781888799870D
:102E8000AA87BB87892B8A2B8B2BD1F01C8A1B8AA4
:102E90001E8A1D8A1F8AF8940E94C82A08851985EF
:102EA0002A853B85DC01CB01800F911FA21FB31F38
:102EB0008C839D83AE83BF83CE010E94173C7894A0
:102EC000DF91CF911F910F9108950F931F93CF938F
:102ED000DF938C0166EE76E1FC0180810E945C311B
:102EE000EC010E94C53B8E858E7F8E87F801848120
:102EF0009581A681B7810097A105B105F1F088877A
:102F00009987AA87BB87188A1F861A8A198A1B8AFB
:102F1000F8940E94C82A088519852A853B85DC011A
:102F2000CB01800F911FA21FB31F8C839D83AE83A3
:102F3000BF83CE010E94173C7894DF91CF911F91FF
:102F40000F9108950F931F93CF93DF938C0161EF3F
:102F500077E1FC0180810E945C31EC010E94C53B5D
:102F600019861E861F86188A198AF8018481958120
:102F7000A681B7818A879B87AC87BD87892B8A2BDF
:102F80008B2B29F16D897E898F8940E00E94292948
:102F9000198E188E1B8E1A8E1C8EF8940E94C82AC9
:102FA0000A851B852C853D85DC01CB01800F911F97
:102FB000A21FB31F8C839D83AE83BF83CE010E946B
:102FC000173C7894DF91CF911F910F9108956D89EF
:102FD0007E898F8941E0DF91CF911F910F910C94F1
:102FE00029290F931F93CF93DF93EC0140E550E025
:102FF00061EF77E188810E9436318C0186E495E1AA
:10300000F801938382838C819FEF980F9430C8F4EA
:10301000F801808761E088850E94F028F801628BC2
:10302000738B848B60E08C850E947629F801658B18
:10303000768B878B41E0DF91CF911F910F910C949C
:10304000292989E20E947C3ECF93DF93EC0105960B
:103050009F938F938C811F928F9389818F93888107
:103060008F931F926F938CEE91E19F938F930E94A9
:103070003F201C82888199810196998388838DB72E
:103080009EB70A960FB6F8949EBF0FBE8DBFDF9114
:10309000CF9108950F931F93CF93DF9300D0CDB7B7
:1030A000DEB7DC011C96ED91FC911D9788E18B83C6
:1030B0008E010F5F1F4F22E0AE014D5F5F4F61E059
:1030C00080810E94502889819A8198278927982792
:1030D0000F900F900F90DF91CF911F910F91089556
:1030E0004F925F926F927F928F929F92AF92BF9218
:1030F000CF92DF92EF92FF920F931F93CF93DF93C4
:103100004C0166EE76E1FC0180810E945C31EC01AD
:103110008E8581FF31C0F8940E94C82A9B01AC01C2
:10312000FE01E95BFF4F0190F081E02D9081FE01EF
:10313000E75BFF4F8081892378948823D9F1A12C04
:10314000B12C6501E12CF12C8701F4016081CE01E5
:103150000F960E94FD2ADF91CF911F910F91FF9052
:10316000EF90DF90CF90BF90AF909F908F907F9027
:103170006F905F904F9008950E94C82A2B013C01E8
:10318000CE010E944A18182F0E94C82A13FD0CC0B5
:10319000A12CB12C65017B018C01E418F50806090E
:1031A0001709A3019201D1CF24E0A22EB12CC12C8A
:1031B000D12CF1CF64E0A62EB12CC12CD12CC2CFE2
:1031C0000F931F93FC01A489B58986898C9393A1E1
:1031D00081E0892783A3448155816681778180FFBF
:1031E00012C00085118522853385400F511F621F53
:1031F000731F82FD12C0448355836683778381E009
:103200001F910F9108950485158526853785400FF8
:10321000511F621F731F82FFEECF0089118922891F
:103220003389872F401751076207830B87FDE3CF50
:1032300084E499E193838283B901A801448355838F
:103240006683778381E01F910F9108950895FC01B3
:103250008081A481B58140855185628573859FB742
:10326000F894813061F0823019F04C939FBF08953B
:103270004D935D936D937C9313979FBF0895119623
:103280005C934E939FBF08958F929F92AF92BF928F
:10329000CF92DF92EF92FF921F93CF93DF93EC01D7
:1032A000EF8CF8A0E114F10409F4F0C0F70180817B
:1032B000918198A38F8F86809780A084B18411E03C
:1032C00081149104A104B10409F4A1C06C897D8921
:1032D0008E89412F0E94292980914E0290914F02A0
:1032E000F70191838083F0924F02E0924E028114A5
:1032F0009104A104B104E9F08B8D9C8DAD8DBE8D40
:1033000088169906AA06BB06A0F44F89588D698DC8
:103310007A8D411551056105710509F45BC08C81F9
:103320009D81AE81BF81480F591F6A1F7B1F1660A8
:1033300022C08BA131E081149104A104B10409F0F1
:1033400068C084FB992790F921E09227391709F486
:1033500043C04F89588D698D7A8D4115510561059E
:103360007105D1F18C819D81AE81BF81480F591FBC
:103370006A1F7B1F1460EF8DF8A1309709F077C0AA
:103380002BA1488B598B6A8B7B8B2071212B2BA314
:1033900011FF5FC0880D991DAA1DBB1D12FD52C0F3
:1033A00020EE38E13B832A838C839D83AE83BF83E9
:1033B00088869986AA86BB868B8D9C8DAD8DBE8DA9
:1033C00088199909AA09BB098C879D87AE87BF8791
:1033D00081E011C012608BA1EF8DF8A13097D9F474
:1033E000188A198A1A8A1B8A8071812B8BA3812FD4
:1033F000827011FD34C0DF91CF911F91FF90EF904B
:10340000DF90CF90BF90AF909F908F90089510E085
:103410005DCF30E096CF4281538164817581488BC6
:10342000598B6A8B7B8B8071912F9460892B8BA336
:1034300011FF0FC08C819D81AE81BF81880D991DC8
:10344000AA1DBB1D2B2F84179507A607270B27FD49
:10345000A7CF4C835D836E837F8381E0CCCF40E038
:1034600050E0BA018C819D81AE81BF8193CFC28033
:10347000D380E480F580872F4C155D056E058F099C
:1034800087FD07C08BA1B701A601C9CF85E10E94C6
:103490007C3E83E10E947C3EFC0185818F93848188
:1034A0008F9380811F928F938CE492E19F938F93EF
:1034B0000E943F200F900F900F900F900F900F9051
:1034C0000895DC012C911496ED91FC9115973FB76E
:1034D000F8942130E9F02230B1F0808190E0A0E052
:1034E000B0E03FBFBF93AF939F938F9386E492E189
:1034F0009F938F930E943F200F900F900F900F90FB
:103500000F900F90089580819181A281B381E9CFBE
:1035100080819181A0E0B0E0E4CFAF92BF92DF92D2
:10352000EF92FF920F931F93CF93DF93FC01A4853B
:10353000B585968547855089E18822893389F48845
:10354000A588B6887789008D118DD28C80858627D5
:103550009C9384FD20C085FD22C086FD24C087FD8C
:1035600026C09C93862F8295807F808768279C93B6
:1035700064FD2AC065FD25C066FD1CC067FD1EC038
:103580009C93DF91CF911F910F91FF90EF90DF906F
:10359000BF90AF900895EA01E88285FFDECFE90190
:1035A000F88286FFDCCFE501788387FFDACFE80178
:1035B000D882D7CFF501708367FFE2CFE801D882C8
:1035C000DFCFE901F882D8CFFA01E082D3CF5F9252
:1035D0006F927F928F929F92AF92BF92CF92DF9223
:1035E000EF92FF920F931F93CF93DF938C01FC0117
:1035F000C080D180E280F38084809580A680B780EF
:1036000066246A94660E662301F1EA01712CFFEFCD
:103610006F1A7F0A640E751E59900E94C82ADC0139
:10362000CB018C199D09AE09BF0988159905AA051A
:10363000BB0598F3652DC8010E948D1A0E94C82A07
:103640006B017C01C615D70539F7F801C082D1821C
:10365000E282F382DF91CF911F910F91FF90EF9063
:10366000DF90CF90BF90AF909F908F907F906F90A2
:103670005F900895EF92FF920F931F93CF93DF9384
:103680008C016EEF75E2FC0180810E945C317C014F
:103690008FE090E00E941C20EC0188E893E19E8777
:1036A0008D87F8018089880F8C8761E084810E9472
:1036B000F0286E837F83888761E0F80184810E940F
:1036C0007629688379838A8361E0F80180850E9486
:1036D000F02869877A878B8761E0F80180850E94EE
:1036E00076296B837C838D83F701D283C1838381A9
:1036F00081608383DF91CF911F910F91FF90EF90B5
:1037000008950F931F93CF93DF93EC0169EB7BE157
:1037100088810E945C318C01FC0161857285838502
:1037200041E00E942929488559856C81C801DF91B3
:10373000CF911F910F910C94E71A0F931F93CF9382
:10374000DF93EC0169EB7BE188810E945C318C01A5
:10375000FC0161857285838540E00E9429294885A6
:1037600059856C81C801DF91CF911F910F910C9405
:10377000E71ACF92DF92EF92FF920F931F93CF93AE
:10378000DF93EC014BE150E069EB7BE188810E9423
:1037900036318C0160E08C810E947629F8016187C6
:1037A0007287838760E088850E947629F8016487A4
:1037B0007587868760E08C850E947629F801678787
:1037C000708B818B60E088890E947629F801628B7A
:1037D000738B848B60E08C890E947629F801658B5D
:1037E000768B878B60E0888D0E947629F801608F48
:1037F000718F828FF8940E94C82A6B017C0160E06F
:10380000C8010E948D1A0E94C82A7894DC01CB015D
:103810008C199D09AE09BF09CC8CDD8CEE8CFF8C18
:103820008C159D05AE05BF0548F4C81AD90AEA0AE9
:10383000FB0AF801C482D582E682F782DF91CF913C
:103840001F910F91FF90EF90DF90CF900895DF923E
:10385000EF92FF920F931F93CF93DF93EC01D888E1
:1038600083E08D15B0F163E77DE188810E945C31D2
:103870007C018AE090E00E941C208C0161E08C8138
:103880000E94F028F80160837183828360E088855C
:103890000E947629F80163837483858360E08C85B8
:1038A0000E947629F801668377838087D186F701A5
:1038B0008581982F967081F4F701118300838260CF
:1038C0008583DF91CF911F910F91FF90EF90DF9053
:1038D00008958BE10E947C3E0E941A28CF92DF92CD
:1038E000EF92FF92CF93DF93EC010E94C82A6B0105
:1038F0007C019E01A0E8BEE30E94DB4120E432E4AB
:103900004FE050E00E94B241C20ED31EE12CF12CD8
:103910000E94C82A6C157D058E059F05C8F3DF91AE
:10392000CF91FF90EF90DF90CF9008950F931F936A
:10393000CF93DF93EC01062F18E01DC06B817C81D3
:103940008D8140E00E943829000F8D859E850E9460
:103950006E1C6E817F81888541E00E94DA288D850A
:103960009E850E946E1C688179818A8140E00E9458
:103970003829115049F007FFE1CF69857A858B8599
:1039800041E00E94DA28E0CF69857A858B8541E0A5
:103990000E94DA288D859E850E946E1C6E817F8133
:1039A000888541E00E94DA28E985FA8510818B85B7
:1039B00018238D859E850E946E1C688179818A817D
:1039C00040E00E94382969857A858B8541E00E9414
:1039D000DA28111105C0DF91CF911F910F91089541
:1039E00084E20E947C3E4F925F926F927F928F9210
:1039F0009F92AF92BF92CF92DF92EF92FF920F937E
:103A00001F93CF93DF938C01562E3A01FC018080E7
:103A10009180A280B380C480D580E680F780EA01DF
:103A20002196FA014080642D607F0E94C5390E9472
:103A3000C82ADC01CB0188199909AA09BB098C1590
:103A40009D05AE05BF0598F3642D6295607FC801A2
:103A50000E94C5390E94C82A6B017C01F80180844C
:103A60009184A284B384F1E05F1639F15A945A9498
:103A7000852D90E00296680E791E5990652D607F25
:103A8000C8010E94C5390E94C82ADC01CB018C19EB
:103A90009D09AE09BF0988159905AA05BB0598F3CC
:103AA000652D6295607FC8010E94C5390E94C82AB1
:103AB0006B017C01C615D70501F7F801C082D182E0
:103AC000E282F382DF91CF911F910F91FF90EF90EF
:103AD000DF90CF90BF90AF909F908F907F906F902E
:103AE0005F904F900895FF920F931F93CF93DF93B2
:103AF0008C0146E050E063E77DE1FC0180810E949B
:103B00003631EC01F801F08461E0F11060E0F80179
:103B100084810E9476296A837B838C838D81F11056
:103B200009C091E0892B8D83DF91CF911F910F9177
:103B3000FF90089599E0892B8D83DF91CF911F919C
:103B40000F91FF90089546E050E063E77DE1FC01AE
:103B500080810C9436318F929F92AF92BF92FF92E8
:103B60000F931F93CF93DF93EC0163E77DE188818F
:103B70000E945C318C01F88483E08F1508F484C0C6
:103B8000F8018581867009F07FC08C849D84AE84A5
:103B9000BF848C819D81AE81BF81892B8A2B8B2B29
:103BA00009F074C0E4E8F2E1A591B49111968C910A
:103BB00080FD04C060E088E00E94762960E089E032
:103BC0000E94762960E08AE00E94762960E08BE01E
:103BD0000E94F02880E58CBD1DBC8114F2E19F0697
:103BE000FAE7AF06B10408F041C0811489E09806F5
:103BF0008DE3A806B10418F5E0E88E16E4E89E0609
:103C0000EEE1AE06B104C0F5F0E48F16F2E49F06D3
:103C1000FFE0AF06B10468F580E2881681EA9806F5
:103C200087E0A806B10458F590E0E0E98E16E0EDD3
:103C30009E06E3E0AE06B10428F583E002C090E002
:103C400080E0CF2DCC0FCC0FC065C82BF801C0830E
:103C50009183858184608583DF91CF911F910F913E
:103C6000FF90BF90AF909F908F90089591E080E07B
:103C7000E8CF90E081E0E5CF91E081E0E2CF91E014
:103C800082E0DFCF82E0DDCF0E941A288EE20E9420
:103C90007C3ECF93DC0114969C91149720E030E099
:103CA000C22FF901E758F94FE4919E1741F02F5FB9
:103CB0003F4F20313105A1F78DE20E947C3E87E91C
:103CC00080937A002830E8F420917E0081E090E033
:103CD0000C2E01C0880F0A94EAF7822B80937E0095
:103CE0004FE150E069E47EE18C910E943631FC01A5
:103CF0008AEF92E393838283C28F81E0858FCF9195
:103D0000089520917D003C2F377081E090E001C044
:103D1000880F3A95EAF7822B80937D00E1CF0F93CD
:103D20001F93CF93DF938C0169E47EE1FC018081D6
:103D30000E945C31EC010E94C53B909100028A8D8B
:103D4000981303C08FEF80930002F801848195815E
:103D5000A681B781888B998BAA8BBB8B8C839D8323
:103D6000AE83BF8380859185A285B3858C879D872F
:103D7000AE87BF8784858E8F91E0980F9D8F408995
:103D8000518962897389488759876A877B87248923
:103D900035893F8B2E8B208D318D398F288F948DD7
:103DA0009C8F811105C0DF91CF911F910F910895D4
:103DB000CE01DF91CF911F910F910C94173C6F9220
:103DC0007F928F929F92AF92BF92CF92DF92EF92AB
:103DD000FF920F931F93CF93DF934C01E62E142F86
:103DE0006901DC0115967C901597872D867009F482
:103DF00051C071FC39C0F401908181819CBD8DBDA1
:103E0000F72DF1706F2E70FCC8C0EE2009F49CC035
:103E10008FEF810F112351F0F60190819EBD0DB4FB
:103E200007FEFDCF9EB591938150B8F7662091F1C2
:103E3000072D069506950695402F40954170D401B3
:103E400012966D917D918C91DF91CF911F910F9181
:103E5000FF90EF90DF90CF90BF90AF909F908F90AA
:103E60007F906F900C942929ED91FC9141854270CF
:103E70006681778180850E942929B72DB1706B2ECC
:103E800070FC17C0D401CD91DC91AA24AA94A10E94
:103E9000111126C0DF91CF911F910F91FF90EF90EC
:103EA000DF90CF90BF90AF909F908F907F906F905A
:103EB0000895072D069506950695402F4170F4014B
:103EC0006281738184810E942929D401CD91DC9182
:103ED000AA24AA94A10E112309F4AECF66246394F8
:103EE000B12C8FEFA81AB80AAC0CBD1CD601FC90FF
:103EF00008E010E0898580FF35C0EE81FF8188856C
:103F000080834F2D40786B817C818D810E9429298F
:103F1000FF0CEE81FF8188858083110FE881F98194
:103F200090818A81892391E009F490E0192B015056
:103F300009F7EE2011F0F6011083FFEFCF1ADF0A28
:103F4000AC14BD0499F672CFF6019601210F311D14
:103F50002E173F0709F46ACF81918EBD0DB407FE7D
:103F6000FDCFF6CF4F2D40786B817C818D810E94F3
:103F70002929FF0CEE81FF8188858083110FE8815C
:103F8000F98190818A81892391E009F490E0192BCD
:103F9000EE81FF8188858083CACF73FA442740F978
:103FA000F4016281738184810E94292966246394CB
:103FB0002CCFFF920F931F93CF93DF93EC011881C7
:103FC00063E77DE1812F0E945C310C81F884C98513
:103FD0002F2D3C2F402F61E00E94DF1ECF93FF92D8
:103FE0001F920F931F921F9388E292E19F938F93EA
:103FF0000E943F208DB79EB708960FB6F8949EBFDB
:104000000FBE8DBFDF91CF911F910F91FF9008954B
:104010002FB7F89480914E0290914F02009749F08B
:10402000FC014081518150934F0240934E022FBFBB
:1040300008958FE00E947C3ECF93DF93C0913B02B6
:10404000D0913C02AE01480F591F2DB73EB7215009
:104050003F4F22273A952417350770F050933C02C2
:1040600040933B02AC0160E070E0CE010E946D42E3
:10407000CE01DF91CF91089581E10E947C3E2F9285
:104080003F925F926F927F928F929F92AF92BF9278
:10409000CF92DF92EF92FF920F931F93CF93DF9314
:1040A000CDB7DEB728970FB6F894DEBF0FBECDBFF1
:1040B00080913A028823C1F028960FB6F894DEBFAB
:1040C0000FBECDBFDF91CF911F910F91FF90EF9069
:1040D000DF90CF90BF90AF909F908F907F906F9028
:1040E0005F903F902F90089581E080933A028E0177
:1040F000015E1F4F20919A03509099032515C0F43B
:10410000452D50E0CD8CDE8C32E0C30ED11CF60183
:1041100084913A01680E711CC3018136910554F1F6
:10412000821B91098136910560F010923A02C4CF4A
:104130001092990310929A0340E050E0512C20E035
:10414000E1CF1092990360919A03561AE52CF12C55
:1041500070E0675C7C4FA70189E393E00E945B42BB
:1041600010929A03509299038091C10080628093CB
:10417000C100A7019A01275C3C4F7901F601A49187
:10418000A63008F440C1C9010296CA2ED12CF5E030
:10419000CF1AD108C80ED91EED8DFE8D33964491ED
:1041A000ED8DFE8D3496859094905401ED8DFE8DAD
:1041B000259134912038310508F00AC1BC016F5FA8
:1041C0007F4F7E836D832F77DC012C933401640E47
:1041D000711C78866F826F807884A614B70409F406
:1041E00041C18D809E80C814D90448F0F5018491A6
:1041F000853009F4BFC008F441C0883018F086E06B
:104200000E947C3EF80120813181F6016D807E8024
:10421000E619F709AF01FF0F660B770B49835A8345
:104220006B837C83A901330F660B770B69807A80DF
:104230008B809C80641675068606970608F4D4C0A9
:104240006D807E802FEF621A720AAD81BE814C9321
:104250001801B4E02B0E311CF801228133818A0150
:10426000B901863009F4C3C0C3010E945242430120
:10427000800E911E9E828D828101A6C0823008F43C
:10428000BAC0833009F4E4C0F801408151813A0199
:10429000812C912C0E5F1F4FD401C3018096A11D6C
:1042A000B11D80389105A105B10508F4CEC0A40167
:1042B0009301305F4F4F5F4F211530444105510549
:1042C00008F43FC0D401C30118960097A042B1057D
:1042D00040F1A40193015C5F211531054105504176
:1042E00080F0D401C3015CE1B695A79597958795B9
:1042F0005A95D1F78068AD81BE818C931196BE83AB
:10430000AD83D401C30145E1B695A79597958795EF
:104310004A95D1F78068AD81BE818C931196BE839A
:10432000AD83D401C3013EE0B695A79597958795D7
:104330003A95D1F78068AD81BE818C931196BE838A
:10434000AD83ED81FE813196D401C30127E0B6959E
:10435000A795979587952A95D1F78068AD81BE81FD
:104360008C939F012F5F3F4F3E832D83462D4F77C8
:1043700040832AC098012E5F3F4FF801A081B18190
:104380008D819E8101966C91662399F08C159D0517
:1043900080F4FD01319604C0C816D90609F453C053
:1043A0000196AC0141505109DA016C9361916111A0
:1043B000F3CFAC016D807E80461957094150D3017F
:1043C0004C939E838D8389012FEFA21AB20A03CFEB
:1043D0000196B901660F672F661F770B71956068AC
:1043E000D70112966C93EACEB401A30129CFC30181
:1043F0000E943C423CCFD8016D907D908D909C9066
:104400000C5F1F4F49CF1A2FD7011C9380910102D7
:1044100011968C936DEF610FC7010E94DE2AE10EA9
:10442000F11CF701339790833196808331968EE7A4
:104430008083A52DA10FA09399038091C100806274
:104440008093C10072CEC601B4CFED81FE8189CFC9
:10445000D8014D915C913A01550F880899080E5F7B
:104460001F4F1ACF0D811E810E191F0913E0100F67
:10447000CBCF80914002909141029F938F9321E096
:1044800030912702311101C020E01F922F9320911B
:1044900045022F93209144022F93209143022F93A2
:1044A000209142022F9321E0892B09F420E01F92F2
:1044B0002F9382E592E19F938F930E943F208DB7C7
:1044C0009EB70C960FB6F8949EBF0FBE8DBF089591
:1044D000CF92DF92EF92FF920F931F930E94C82A10
:1044E0009F938F937F936F9301E010E020E030E083
:1044F000C0904A02D0904B02E0904C02F0904D02E6
:104500006C157D058E059F0518F000E010E0980100
:104510008091460290914702A0914802B0914902D1
:10452000800F911FA21FB31FBF93AF939F938F93D1
:104530008EE592E19F938F930E943F208DB79EB7A7
:104540000A960FB6F8949EBF0FBE8DBF1F910F91B4
:10455000FF90EF90DF90CF9008950E94C82A9F931C
:104560008F937F936F9388E592E19F938F930E943F
:104570003F200F900F900F900F900F900F90089585
:104580000F931F93CF93DF938C0180914002909102
:104590004102892B09F04BC060913F0270E062300C
:1045A00071052CF482E080933F0262E070E0E091BC
:1045B0003B02F0913C024DB75EB741505F4F44273C
:1045C0005A959F01C0E0D0E0C901860F971F481798
:1045D000590730F121969C01C115A4E0DA07A1F733
:1045E0008E1B9F0B0E941C20D0934102C09340025F
:1045F00090933E0280933D020E947431F8018081C5
:104600009181A281B3818093420290934302A0934F
:104610004402B0934502DF91CF911F910F9108950D
:10462000209711F0C901DCCF80E10E947C3E8DE033
:104630000E947C3E8F929F92AF92BF92FF920F9307
:104640001F93CF93DF938C016BEA73E2FC018081AF
:104650000E945C31EC010E94C53B8F8D98A1892B93
:1046600009F058C0F80104811BA1FF24F394002332
:1046700039F16C897D898E894F2D0E94292921E08D
:1046800001111CC014FB882780F991E089272817A5
:1046900041F08F89988DA98DBA8D892B8A2B8B2B10
:1046A00089F410711F291BA3DF91CF911F910F91E6
:1046B000FF90BF90AF909F908F90089520E0E2CF41
:1046C000F12CD7CF0E94C82A8F88988CA98CBA8CDD
:1046D000DC01CB01880D991DAA1DBB1D888B998B10
:1046E000AA8BBB8B8C839D83AE83BF8384E499E1CB
:1046F0009B838A83107114601F291BA3CE01DF9155
:10470000CF911F910F91FF90BF90AF909F908F908E
:104710000C94173C82E10E947C3ECF93DF93EC0126
:104720006BEA73E288810E945C31F894FC01278D6A
:1047300030A1232B69F44C815D816E817F81FC0166
:10474000438F548F658F768F7894DF91CF91089542
:1047500084E10E947C3ECF92DF92EF92CF93DF9371
:10476000EC0161E088859985AA85BB85892B8A2B18
:104770008B2B09F460E08C810E9476296B01E82E76
:1047800044E250E06BEA73E288810E943631FC011A
:10479000C48AD58AE68A21E0488559856A857B8561
:1047A000452B462B472B09F420E04C855D856E8513
:1047B0007F85452B462B472BB1F430E0232BFC01A2
:1047C00023A3488959896A897B89478B508F618FD8
:1047D000728F6AE070E04F96DF91CF91EF90DF909B
:1047E000CF900C94BE3130E1E9CFCF92DF92EF92BF
:1047F000FF920F931F93CF93DF938C016BEA73E2C9
:10480000DC018C910E945C31EC010E940820FC01CB
:10481000D8011496CD90DD90ED90FC901797C28250
:10482000D382E482F58218964D915D916D917C91D1
:104830001B974683578360877187F8941182108293
:104840008F8D98A1892B81F0A9A1BAA1ED93FC933A
:10485000FAA3E9A37894DF91CF911F910F91FF9074
:10486000EF90DF90CF900895FAA3E9A3F8A3EF8F1C
:104870008BA182FD25C0C88AD98AEA8AFB8A982F33
:1048800094609BA381FD10C0CE010E94C53BCC82E9
:10489000DD82EE82FF8284E499E19B838A83CE01EC
:1048A0000E94173C7894D7CF4C815D816E817F81C7
:1048B000872F4C155D056E058F0987FFE5CFF2CF79
:1048C000488959896A897B89972F4C155D056E0542
:1048D0009F0997FFD0CF83E10E947C3E8DE10E942B
:1048E0007C3E0F931F93CF93DF93FC01A189B28984
:1048F0008D919C911197928B818B16968D919C91A5
:104900001797C085D185228521113FC02FB7F89414
:10491000AC015527598348832FBF20914E02309117
:104920004F0211963C932E93B0934F02A0934E02E8
:10493000A189B289109759F5278530898217930785
:1049400041F083859485A585B6850097A105B105BD
:1049500031F480E0DF91CF911F910F910895448150
:10496000558166817781840F951FA61FB71F8483A9
:104970009583A683B7838EE694E29383828381E056
:10498000DF91CF911F910F9108958883C6CF129622
:104990004D915D916D917C91159727853089821796
:1049A000930741F083859485A585B6850097A10579
:1049B000B10551F4448355836683778381E0DF91A9
:1049C000CF911F910F910895048115812681378120
:1049D000800F911FA21FB31F2B2F84179507A607C7
:1049E000270B27FFE7CF8CE10E947C3EEF92FF92DE
:1049F0000F931F93CF93DF937C0160E775E2DC0197
:104A00008C910E945C318C010E940820EC01F7011E
:104A100084819581A681B7818A839B83AC83BD8382
:104A2000808591859F838E83F89419821882D8019E
:104A300051968D919C915297892BB9F15396ED9196
:104A4000FC915497D183C0835496DC93CE935397B3
:104A500080E090E07894892B39F4DF91CF911F9119
:104A60000F91FF90EF900895C8010E94C53BD801B7
:104A700012968D919C9113978E569442F1F08A81F3
:104A80009B81AC81BD8121E734E2F801338322832D
:104A900084839583A683B783C801DF91CF911F914B
:104AA0000F91FF90EF900C94173CF801D48BC38BBF
:104AB000D28BC18B81E090E0CDCF8A819B81AC818C
:104AC000BD81F8014481558166817781272F481780
:104AD00059076A072B0B27FFD6CF8CE10E947C3E3B
:104AE000CF92DF92EF92CF93DF93EC014885598507
:104AF0006A857B852C858C810E94D8316B01E82EDC
:104B000045E150E060E775E288810E943631FC01A2
:104B1000C086D186E28688899989908B87878C891F
:104B20009D89AE89BF8983879487A587B68781E7EA
:104B300094E29383828368E070E0CF014196DF9135
:104B4000CF91EF90DF90CF900C94BE3180912702EF
:104B5000882329F0823011F010922702089582E014
:104B60000E947C3E88E00E947C3ECF92DF92EF92D2
:104B7000FF92FC0140815181628173812481EDEAC1
:104B8000F1E185919591A591B491481759076A076C
:104B90007B0770F56A017B01C20ED11CE11CF11C80
:104BA0008C159D05AE05BF0500F5841B90E09A01AC
:104BB0002757394F3F932F939F938F937F936F93F3
:104BC0005F934F938AE692E19F938F930E943F20D9
:104BD0008DB79EB70A960FB6F8949EBF0FBE8DBFD5
:104BE000FF90EF90DF90CF900895822F90E0DFCF7D
:104BF00080E090E0DCCF8EE00E947C3E44E050E01C
:104C00006EEF75E2FC0180810C9436314F925F9219
:104C10006F927F928F929F92AF92BF92CF92DF92CC
:104C2000EF92FF920F931F93CF93DF93CDB7DEB731
:104C30008C018DB69EB6DC016C906EEF75E2862D10
:104C40000E945C31F801B480E084F18474842DB753
:104C50003EB7271931090FB6F8943EBF0FBE2DBFDE
:104C6000ADB7BEB711966D01FC01238120FD33C0A5
:104C70008D01272DA7016B2DFC0180810E945028FA
:104C8000DF92CF921F927F921F926F9282E292E107
:104C90009F938F930E943F202DB73EB7285F3F4FD1
:104CA0000FB6F8943EBF0FBE2DBF0FB6F8949EBE50
:104CB0000FBE8DBEDF91CF911F910F91FF90EF90AE
:104CC000DF90CF90BF90AF909F908F907F906F902C
:104CD0005F904F90089501811281D8011C966C91CC
:104CE000B62FB160AB2EB1109CC06A2DC8010E94D6
:104CF0001A388FEF870D772009F48FC05601A80E60
:104D0000B11C7601D80119966D917D918C9141E08D
:104D10000E94DA2888E0482E512CF8018585968576
:104D20000E946E1CD80116966D917D918C9141E088
:104D30000E94DA28F801858596850E946E1C550C24
:104D4000D8011996ED91FC911A9790811B968C9140
:104D5000892391E009F490E0592AF801608171817A
:104D6000828140E00E9438294A944110D6CFD80170
:104D700019966D917D918C9141E00E94DA28F8019D
:104D8000EA14FB0431F163817481858140E00E9463
:104D90003829D8011D968D919C911E970E946E1CFA
:104DA000F80166817781808541E00E94DA28D80188
:104DB0001D968D919C911E970E946E1CF80160813A
:104DC0007181828140E00E943829D7015D927D0186
:104DD00099CF61857285838541E00E94DA28D801E8
:104DE0001D968D919C911E970E946E1CF801668104
:104DF0007781808541E00E94DA28D8011D968D9147
:104E00009C911E970E946E1CF801608171818281C5
:104E100040E00E943829D7015C92C8010E94FB370C
:104E20002FCFC8010E941A38F70161917F01C80194
:104E30000E94961CBA94B110F7CF57CFBF92CF9271
:104E4000DF92EF92FF920F931F93CF93DF93EC01CA
:104E50006EEF75E288810E945C31BC8008851985FF
:104E6000FC01238120FD38C0FC01D0810E94C82AAA
:104E70006B017C01F0E8CF0EF8E3DF1EF1E0EF1EDE
:104E8000F11CC701B6010E943928D093BB0084E809
:104E90008093BC00C701B6010E941D28BB2079F099
:104EA000CB2DD4E8F80181918F018093BB00D09382
:104EB000BC00C701B6010E941D28C15099F784E9C2
:104EC0008093BC00DF91CF911F910F91FF90EF90E5
:104ED000DF90CF90BF900895E180F280F701648564
:104EE000C7010E941A38BB2049F0CB2DF80161910F
:104EF0008F01C7010E94961CC150C1F7C701DF9105
:104F0000CF911F910F91FF90EF90DF90CF90BF90C6
:104F10000C94FB378F929F92AF92BF92FF920F93A8
:104F20001F93CF93DF938C01FC0184858F77F82E3C
:104F30006EEF75E280810E945C31EC01F8018481A2
:104F40009581A681B781892B8A2B8B2BB1F5809116
:104F5000BC0082FF10C08F2D880F88838B818260F8
:104F60008B83DF91CF911F910F91FF90BF90AF90F6
:104F70009F908F900895F80180849184A284B384D7
:104F800061E089E10E94762961E088E10E9476294A
:104F90001092B900F0E88F16FAE19F06F6E0AF062E
:104FA000B10438F488E48093B80084E08093BC00B6
:104FB000D2CF8CE08093B800F8CF81E30E947C3E92
:104FC000CF92DF92FF920F931F93CF93DF93EC0169
:104FD00063E77DE18C810E945C316C01F8840F2DC8
:104FE00010E0A8014D5F5F4F60EE77E288810E947C
:104FF0003631FC01D182C082F2826C857D85A801A8
:105000000396DF91CF911F910F91FF90DF90CF908A
:105010000C945242CF93DF93EC0163E77DE18881EA
:105020000E945C31288539854C8160E0DF91CF9109
:105030000C94DF1E8BE10E947C3ECF92DF92EF92B8
:10504000FF926B017C0109C00E94C82A292F6C15B0
:105050007D058E052F0927FF09C08091BC0087FFC1
:10506000F3CFFF90EF90DF90CF90089580E30E9400
:105070007C3E24EA2093BC000E941D288091B90048
:1050800090E0A0E0B0E080319105A105B10521F0EC
:105090000897A105B10509F408958FE20E947C3EAE
:1050A0007F928F929F92AF92BF92CF92DF92EF92B8
:1050B000FF920F931F93CF93DF93782EC62F942EDA
:1050C000B52E822E0E94C82A6B017C0120E8C20EF8
:1050D00028E3D21E21E0E21EF11CC701B6010E94A6
:1050E00039287092BB0084E88093BC00C701B601E8
:1050F0000E941D28AA24AA94AC0ECC23B1F0C92D7D
:10510000DB2DB12C8FEFA81AB80AAC0EBD1E94E8A7
:10511000992E89918093BB009092BC00C701B60183
:105120000E941D28AC16BD06A1F7C701B6010E945A
:105130003928872D81608093BB0084E88093BC0070
:10514000C701B6010E941D28DFEFD80D882009F1A4
:105150005801CD2F84EC982ECC2369F09092BC009E
:10516000C701B6010E941D288091BB00F501819303
:105170005F01C15099F7F801ED0FF11DEF0184E8CF
:105180008093BC00C701B6010E941D288091BB001E
:10519000888384E98093BC00DF91CF911F910F91A8
:1051A000FF90EF90DF90CF90BF90AF909F908F9047
:1051B0007F900895FB012FB7F8949281141644F460
:1051C000982B809592839181892381832FBF0895A5
:1051D0008095982392839181892381832FBF08959D
:1051E0008036A0F567FD32C0E82FE695E695E69596
:1051F000F0E0EE0FFF1FEE57FD4EA591B491109712
:1052000029F1877021E030E0A90102C0440F551F49
:105210008A95E2F7CA014FB7F89412963C9112971B
:10522000662381F0382B282F209512963C931297F5
:1052300011963C911197232311962C9311974FBFF0
:10524000BD010895282F20953223EFCF8BE20E94D5
:105250007C3EFB012FB7F8949281411105C08095E7
:10526000892382832FBF0895892B82832FBF0895BE
:10527000FB012FB7F8949281411109C0382F309566
:10528000932392839181892B81832FBF0895982B3B
:1052900092839181892B81832FBF0895B0990FC08C
:1052A0008091500290915102019610920702109243
:1052B0000602909309028093080281E0089581E03C
:1052C00086BB8091500290915102019690935102B9
:1052D0008093500220E030E83093070220930602CA
:1052E000909309028093080281E00895803678F552
:1052F000E82FE695E695E695F0E0EE0FFF1FEE57F6
:10530000FD4EA591B491109711F1877021E030E026
:10531000A90102C0440F551F8A95E2F7CA013FB7A1
:10532000F89412962C91129761110FC04095242386
:1053300012962C93129711962C911197282B119657
:105340002C9311973FBFBD010895242BF1CF8CE220
:105350000E947C3E1F920F920FB60F9211240BB643
:105360000F92EF92FF920F931F932F933F934F93C0
:105370005F936F937F938F939F93AF93BF93CF93DD
:10538000DF93EF93FF930DC07A0180918400909199
:1053900085008E199F0997FD7CC07894B2999AC0B8
:1053A000F894C0912202D0912302EA81FB813097C8
:1053B00009F0ADC0EA8DFB8D2C8D20838E859F85F5
:1053C000019709F4C1C09F878E8788859985AA8532
:1053D000BB854C815D816E817F81480F591F6A1F9B
:1053E0007B1F4C835D836E837F8320832CA525FFE9
:1053F0000EC00C851D85012E000C220B330B800F77
:10540000911FA21FB31F88879987AA87BB87E8814E
:10541000F9810481158126813781872F4017510733
:105420006207830B87FDB0CF7801F0932302E093EE
:105430002202A0912402B091250214960D911D9193
:105440002D913C911797872F401751076207830BC7
:1054500087FFFD01DF010190F081E02D04811581BE
:1054600026813781872F401751076207830B87FFFB
:10547000F1CFF983E883CD93DC93D0932502C093D9
:10548000240280918400909185008E199F0997FFD6
:1054900084CF863A9F4F0CF06AC0F0928900E09268
:1054A0008800FF91EF91DF91CF91BF91AF919F91D4
:1054B0008F917F916F915F914F913F912F911F91AC
:1054C0000F91FF90EF900F900BBE0F900FBE0F90BB
:1054D0001F901895F8948091840090918500970111
:1054E000281B390B2038314CDCF12091260227FF94
:1054F00043C09C01205C304E30938B0020938A0087
:1055000024E026BB90938900809388003ECFCE0193
:1055100019954C815D816E817F81811178CFE88101
:10552000F981E480F580F0932302E09322028091D8
:10553000240290912502C817D90709F026CFF093CD
:105540002502E093240221CFCE010E946135EA8D2D
:10555000FB8D9C8D90834C815D816E817F81DDCF41
:10556000209127022111C1CF8AE20E947C3E7894CB
:10557000B299B0CFF89409CF9C012854344F30939E
:105580008B0020938A0024E026BB7C01F39485CF16
:105590002FB7F8946091840070918500809150023B
:1055A00090915102B09902C02FBF08952FBF7F3F45
:1055B000E1F30196089578940E94953C2FEF260F11
:1055C0006623C1F0FC018FEF9FEF31918327082EF6
:1055D0008295807F8025092E982F82958F700826CE
:1055E000869598278927880F880F880F8025215056
:1055F00060F708958FEF9FEF08956F927F928F92DB
:105600009F92AF92BF92CF92DF92EF92FF920F9351
:105610001F93FC0183818F9382818F938481350155
:105620004601680E711C811C911CD401C301BF93FB
:10563000AF939F936F9281818F9380818F931F93FC
:105640000F93FF92EF925F934F933F932F931F928D
:105650006F9382EF91E19F938F930E943F208DB7CC
:105660009EB744960FB6F8949EBF0FBE8DBF1F9194
:105670000F91FF90EF90DF90CF90BF90AF909F90F1
:105680008F907F906F900895CF93DF93EC016A8D98
:10569000662309F453C0FC0150E031E020E0A38D03
:1056A000B48D4C91958D942309F0532B2F5F330FBC
:1056B00033962613F4CF2C85922F952729F08D85CC
:1056C000852780959823D9F4888D5D8787FD03C051
:1056D000815070F1888F4C815D816E817F818885DA
:1056E0009985AA85BB85840F951FA61FB71F8C833C
:1056F0009D83AE83BF8381E0DF91CF910895982F82
:10570000909529238523822B8C879E859830E0F6FF
:1057100021E0290F2E87FE01E90FF11D87871092E6
:10572000260281E0809352028FEF888F5D87D3CF6E
:105730001092260291E090935202CCCF50E0BBCF62
:105740000F931F93CF93DF938C016DED7BE2FC01F0
:1057500080810E945C31EC010E94C53BF80184818C
:105760009581A681B7818C839D83AE83BF8340855D
:10577000518562857385488759876A877B878089C9
:105780008D878C871E861F8A8EEF888F8485898FF0
:1057900087FD10C0452B462B472B29F4DF91CF9175
:1057A0001F910F910895CE01DF91CF911F910F911D
:1057B0000C94173C8EE10E947C3ECF93FC01C48187
:1057C000C930B8F44C2F50E09A01220F331F420F1A
:1057D000531F455E5F4F6DED7BE2FC0180810E94AF
:1057E0003631FC01C28F24E43BE233832283CF9124
:1057F000089580E20E947C3E0F931F93CF93DF9326
:105800008C016DED7BE2DC018C910E945C31FC012E
:10581000D80114969C91828D9817B8F4292F30E006
:10582000E901CC0FDD1F2C0F3D1FEF01C20FD31F6D
:10583000F801648580850E94F0286B8F7C8F8D8FA6
:10584000DF91CF911F910F9108958FE10E947C3ECF
:10585000FC014481558166817781208580810C948B
:10586000D831CF92DF92EF92FF92CF93DF93FC017A
:10587000A085B18582858C93968581E0892786876E
:10588000C82FC170C688D788E08CF18C97859F5F40
:10589000D1899D1708F05FC0892F869586958695DA
:1058A000DF01A80FB11D5A962C9130E0892F877027
:1058B00002C0359527958A95E2F72170B701A601B8
:1058C000C217A9F033C0892F869586958695DF018A
:1058D000A80FB11D5A962C9130E0892F877002C015
:1058E000359527958A95E2F72170C2131FC04C0D9C
:1058F0005D1D6E1D7F1D9F5F9D1728F386E29FE251
:105900009383828384819581A681B781480F591F33
:105910006A1F7B1F448355836683778381E0DF9111
:10592000CF91FF90EF90DF90CF900895978784817B
:105930009581A681B781480F591F6A1F7B1F448339
:1059400055836683778381E0DF91CF91FF90EF905D
:10595000DF90CF900895B701A601D0CF6F927F92CC
:105960008F92CF92DF92EF92FF92CF93DF93EC0171
:1059700060E08C810E9476293B01882EC884D984FE
:10598000EA84FB84D7FC24C0A601415F5F4F6EEA26
:105990007CE288810E943631FC01608271828282C1
:1059A000D686C5868C859D859483838388899989CD
:1059B000AA89BB8981879287A387B487DF91CF911A
:1059C000FF90EF90DF90CF908F907F906F90089531
:1059D00083E20E947C3ECF92DF92EF92FF920F9380
:1059E0001F93CF93DF93EC01E885F9858A85808347
:1059F0000E94C82A3E8521E023272E872F852F5F0E
:105A00002F87213009F45CC02530E0F40C811D8122
:105A10002E813F814A895B896C897D89DB01CA01BE
:105A2000800F911FA21FB31F8C839D83AE83BF8302
:105A300081E0DF91CF911F910F91FF90EF90DF9068
:105A4000CF900895CC80DD80EE80FF80AB01BC015B
:105A50004C195D096E097F098E899F89A88DB98DC2
:105A6000481B590B6A0B7B0BDB01CA010296A11D77
:105A7000B11DB7FD34C0B595A79597958795B59598
:105A8000A795979587950A891B892C893D89800F51
:105A9000911FA21FB31F8E8B9F8BA88FB98F21E3FD
:105AA0003CE23B832A834C0D5D1D6E1D7F1D840FE0
:105AB000951FA61FB71F8C839D83AE83BF83B8CF6E
:105AC0000C811D812E813F81AB01BC01401B510B1C
:105AD000620B730B4E8B5F8B688F798F9BCFDB01D3
