:100000000C94B20B0C94DF0B0C94DF0B0C94DF0BF5
:100010000C94DF0B0C94DF0B0C94DF0B0C94DF0BB8
:100020000C94DF0B0C94DF0B0C94DF0B0C94DF0BA8
:100030000C9434490C94DF0B0C94DF0B0C94DF0B05
:100040000C94DF0B0C940C4B0C94DF0B0C94DF0B1B
:100050000C94DF0B0C94DF0B0C94DF0B0C94DF0B78
:100060000C94DF0B0C940B490C94E1480C94DF0BBF
:100070000C94DF0B0C94DF0B0C94DF0B0C94DF0B58
:100080000C94DF0B0C94DF0B0C94DF0B0C94DF0B48
:100090000C94DF0B0C94DF0B0C94DF0B0C94DF0B38
:1000A0000C94DF0B0C94DF0B0C94DF0B0C94DF0B28
:1000B0000C94DF0B0C94DF0B0C94DF0B0C94DF0B18
:1000C0000C94DF0B0C94DF0B0C94DF0B0C94DF0B08
:1000D0000C94DF0B0C94DF0B0C94DF0B0C94DF0BF8
:1000E0000C94DF0B0C94F43D0C94183F0C94A33942
:1000F0000C94A6300C94FE360C94E83C0C946F0FD4
:100100000C9453150C9450460C94E2340C941C44FB
:100110000C94E21C0C94621A0C943E310C94B01CAA
:100120000C947A3E0C94A6470C9400470C94813DA5
:100130000C94D6130C947A300C94493E0C949B305A
:100140000C94E4350C945D140C9410190C94BF3A83
:100150000C94123D0C94361B0C9415340C94C6353B
:100160000C94911A0C94FA140C9490300C94A935B8
:100170000C94C6150C94203B0C94CA390C94771639
:100180000C9494310C94F90C0C945A4A0C945048E9
:100190000C94D90C0C9463350C94F3130C94241523
:1001A0000C9494330C94B5140C947F4C0C94783DBF
:1001B0000C946E3A0C94CA3E0C948B480C94AC157B
:1001C0000C9497190C9421470C9464130C942939BE
:1001D0000C9402390C9474110C945F4D0C94831C94
:1001E0000C947F4A0C94381D0C9462520C941E4659
:1001F0000C94BC380C9466390C94F52F0C94C21DE9
:100200000C941F360C94C3340C94C9450C94FD45D2
:100210000C9470470C948C120C94EA460C9429426E
:100220000C948F460C94C0470C9488370C94081A91
:100230000C94C5120C941A370C946F300C94FC0B70
:100240000C94AE130C94224D0C9451530C949A15AB
:100250000C94E1180C94CE460C94B5120C94F0104A
:100260000C946C340C9499430C949D3C0C94FA3788
:100270000C944F380C94B8460C94B2480C948530CA
:100280000C941B400C9426320C94DC1A0C948B4773
:100290000C94DB0C0C94420C0C94D3470C94E8396E
:1002A0000C9461360C94C2190C94760F0C9498122D
:1002B0000C94653F0C9449470C94F2470C94D54537
:1002C0000C94C5440C944B150C9444190C94E236D0
:1002D0000C947F130C943D350C94A8340C9431305D
:1002E0000C9482190C944F1A0C94351E0C946A408D
:1002F0000C9482350C94AC400C9493360C9451348D
:100300000C9416430C9475450C942B1C0C94FE0C09
:100310000C94EB390C9401350C948A350C94430CF5
:100320000C9481380C94B00F0C94E10B040101047F
:10033000040104040404000000040401010101019B
:100340000404010104010104040404000004040481
:100350000404000000000404000000000400000089
:10036000000000000400000000000400020000047F
:100370000004000004070404000004040400000258
:10038000020004000200000204070004000404004C
:100390000004000402020404040404000004000435
:1003A0000404040404040004000203040004040020
:1003B000040004000004000400000000000000002D
:1003C000000100020102B603C21902000001000090
:1003D000008C1203000001000000981204000001CC
:1003E000000000081A050000010000004F1A060076
:1003F00001000101165D1407000001000000621AEF
:100400000800010001B503B5140900000100000057
:10041000420C0A00020101FC1582190B00030103C2
:10042000B203430C0C00020102B00397190D000245
:100430000002B603F90C0E00020002E815C21D0FFF
:1004400000030003B203351E1000020002B003F3E4
:10045000131100050005AB0377161200020002E835
:10046000157F131300010001B503441914000200A5
:1004700002B003AE131500020002E815D6131600F1
:10048000040004A703381D1700050005A203C615C4
:100490001800010001B503101919000800089A039B
:1004A000E21C1A000300039703AC151B00020002B4
:1004B000E815DC1A1C00020002B003831C1D0004B6
:1004C0000004E015B01C1E00010001B5039A151FC1
:1004D00000020002E815641320000900098E032BB6
:1004E0001C2100020002B00353152200040003EA9D
:1004F00015FA142300030002ED15B51224000300C1
:1005000002ED15E1182500040004E415C5122600CB
:10051000010001B5034B1527000300038B032415CD
:100520002800040003880329422900040004E4157C
:100530006E3A2A00010001B50382352B0003000347
:100540008503783D2C000300038203813D2D0006C6
:1005500000067C03F43D2E00020002E81501352F51
:1005600000050005770366393000040004F615A382
:10057000393100020002E815CA3932000400037460
:1005800003123D33000500056F03FA373400010004
:1005900001B503203B3500040003D715E83C3600C5
:1005A0000500056A0329393700040004E4156136A3
:1005B00038000300038B03C6353900030002ED1534
:1005C000C3343A00030002ED15E2343B0006000696
:1005D000640388373C00030002ED15E2363D00035A
:1005E0000002ED15FE363E000800085C031A373F96
:1005F0000006000664037545400005000557039D8D
:100600003C410006000651031F36420003000397D9
:100610000302394300010001B503BF3A4400020060
:1006200002B003653F4500020002E815A935460007
:10063000010001B503C5444700020002B003183FA2
:1006400048000400044D03BC384900010001B50313
:100650001C444A00020002B003CA3E4B00030003E0
:10066000970381384C00010001B50399434D000206
:100670000002B0037A3E4E00020002E8158A354FB0
:1006800000010001B50316435000020002B0034907
:100690003E5100020002E81563355200010001B529
:1006A000036C345300020002B0039336540002007E
:1006B00002E815A834550004000449034F385600D9
:1006C000010001B50315345700020002B003E43500
:1006D0005800020002E81551345900030003D415F4
:1006E0003D355A00010001B50362525B0002000271
:1006F000B0035F4D5C00020002E8158B475D00050A
:100700000005A2037F4A5E00010001B50351535F5B
:1007100000020002B003224D6000020002E81570E2
:1007200047610003000397035A4A6200020002E88F
:1007300015D3476300030002ED157F4C64000400ED
:1007400004E015504865000300039703B2486600B3
:100750000300039703EA46670005000544030047CA
:1007600068000400044003214769000700073903BB
:1007700049476A00020002E815C0476B000100010A
:10078000B5038F466C000700073203F2476D000384
:1007900000032F03B8466E000300032C03CE466F00
:1007A00000020002E815A64770000001000000C921
:1007B0004571000000050000000078DA9D5A796F4D
:1007C000DB3816FF2A5A03833DD0742DF9EEA27F41
:1007D000A48EDB669B6BE2A41DEC014291685B88F2
:1007E0000E8F2835C90EFADDF71DBC24BB33400738
:1007F000E85824DF7B241FDFF1E3637E1BC4FBFD8D
:10080000E0CDE0539EEDF7B21EBC1A3CB4599E8A6F
:10081000AFB25659552A18DA26C99BE02F1F96CB3E
:10082000BF06B3D7A3D7C3E0212BDB26CB15F65EDB
:10083000DD07EF74F3AF41F43A9ABE8E86E1741887
:1008400046131095544511972908F96D10A72A8C65
:10085000A2A1889B264E76A2A9B3ED56D6222EE3FE
:10086000BCDA065596BEFD2909BABD827B076FE644
:10087000F357C43F0A8BE1F30F4958442021CFAB13
:10088000246E2476AA20A9DAB261E930C4D459F9D9
:1008900043C247216AAD69405D224E1E0DB59B6182
:1008A0003CF508D2D410EC2B453F59F9F6A736D8C1
:1008B000B7792EDA3D33CC1DC3AFADAC5FAC4CD8AD
:1008C000C22352D75235A2C99247C5ADA68E4B5509
:1008D000648D30B306590967A8E79FC159E432AE69
:1008E00085DAB54D5A3D958337111E4FB9C9B642C9
:1008F0009F8C9942ED33BDB3208D9B58D4324E5F0F
:10090000042F1294B5E8F0D1891CE14C767159CAD4
:100910001C3FCBB610BAA9BE237431F2843EE7A3C4
:10092000F1E450E4E0CDD49BDA9C9755A59634725F
:10093000921E8A0C0CD1103CB44A743F45F3B29716
:10094000247836714CAC74C7854DE19DA45B03756A
:10095000CABABB82CE294EA69638CDB65913E7A2A5
:100960006A9B1EC3D7386F25E9456EE2366F84ED6A
:1009700028E26791B675DC801FD2E6C2999527C13F
:10098000AB9A6ADF919574268FDCE4BB743C9ECDF4
:10099000AD2A6AA5151F48F3918EEDD7C47E4DEDA3
:1009A000D7CC7EC93C7EB1660747E2AC68F73C0B0A
:1009B000AD256C637025CF0652D8B791A192FCD1BA
:1009C0009993537D16258139EAB1939B2545345C73
:1009D0008CE7463490B9B8105AB23C4DC269181D24
:1009E000A33A190DFB64E2296B76603ECDC3214327
:1009F00080DDBC4062F6E6C854943EFDB14505403A
:100A000008BBCFF69E89B90D15FB76114D86C756EA
:100A10003A9B5BAA5256FBEC59E63D6B21E751D954
:100A2000FF40EAAE8540DC08B4122F0E28095DA015
:100A30007C774693B115BA7F2A8E5860F202B1C115
:100A4000C9D0F6B76BFB16093D07263976E7A72A0A
:100A5000253659EEB904522B9920B16265464E0DE8
:100A6000E0D9FD7560F46CB2AF52ECB2ED8E23EBC1
:100A7000C2A707B7DFE6F248B4B1634EE127D1ACB5
:100A8000C36A02DF316E3D240AB57DFBD3DF205BF4
:100A90008DC61D5E341634E04459031DB99352CD02
:100AA0006CE1A267A28ED879A0C038CCE74B9988B8
:100AB000AE1F0549918ABE6B4DBCAD371273B35D55
:100AC0003A34B57D0669569B4F8EF744ECA8DA5C44
:100AD000494F68E4C263B39375514110DB1F55A9B8
:100AE0003FECB43A7541A5299236AEAD2DD5CFE293
:100AF0002002068DED444B6DB242F2D69C4B1DCFC9
:100B0000B3CE949C137BC1AFA95189EE2CC0BD53C9
:100B1000F9D082D354006516A605536FC961F85009
:100B2000434B86C927A8EA54D6381924E49AC36BE4
:100B300064089EEAAC910714E8194C08EB9785AC61
:100B4000B7B24C5E04C661580474714C16BBAA90CF
:100B500007F95AC5C5DEF732DDB6D9BA9BCF61E9D0
:100B60002E0FF076450F83C02654C5312A9AB8C996
:100B7000092DC09AE2465A054560CE9B0C340C7193
:100B800043B00E83A44E3882BF1A6C2164D03AE180
:100B900064748B68201E71B3DDE3D181B3BF1AE8A2
:100BA00054026E5DA602CCD6664AFC663D4FC31E5B
:100BB000191E41E0210A4D06C74139E3C71021AC97
:100BC000052327863B88BE7E3085268542D000FEE1
:100BD000E2E149C5E63F0E1D977AF219C159AD838E
:100BE000A6B167CA9EFB74444DF50208776D9C73ED
:100BF00092E9E00E03B432914B1D2761B7592ACB1D
:100C000026DB0096DB6C6005E4F81658C0CA4C6E13
:100C1000FA117D9C8CC0784DCE20B5DBD39FF82394
:100C2000ED3E7596C10074D77AA732013B6613EA90
:100C3000A1C28E7D82FE673D3A32B9D605C8F9D48D
:100C400027E8C0C49EA8457840D917B6183A920E36
:100C50003CEC899ACE7B747D4153B7EC3E82FC41DB
:100C60004F7D786924847C72C87D45783B289CF749
:100C7000EA9CE95A602E5B10B693C9A3072BF1F4E6
:100C8000785D5DD4DADBDF6CDC25EB6F6F664FAF30
:100C9000074EEDE6F61504E7FED6BCA43331023A62
:100CA00070AE7FF8A30ED5C1D1DBCDF4B15B5FCEC2
:100CB000B04F78B0A185A1E8E1BBBE0DD975773101
:100CC0005A5F7F6197EC603ABBA01E48EBCB99F569
:100CD000E80E0459EB3F802DDFB9C1618405909285
:100CE0006D1A0D5FAC29B3E89E0260CBD6168E65F7
:100CF000F2EFCCE25966C730B90108027244EAD972
:100D0000E594F5DACA6317183B47E5C3CDD0B2F4D2
:100D1000D0A625B7CE0061716C8811AE040E80CBD1
:100D20009A93AD89903B8ABEF09B413A03FB22A087
:100D30008BA860AABF4900A7B1FE84C001E78A342E
:100D4000FE267AD72F58F8E88088B640F0D8CAEC4B
:100D50006065609A3253299FF5120091D96497D546
:100D60009C7F4326320AF903DC0D6AC1A5380C8446
:100D7000BC8C8C8DE4D2C7D5A023B9D9884D1D4336
:100D8000F2CB1A03B5A7073238EF0895C46E432695
:100D900017650175DB8F8EB8206E9B4A1852923E04
:100DA0003990AE5764332A3745963E6B483724E175
:100DB000950AF56FA47F47FA770CBF28FA70F33EC7
:100DC0009C39108C632C1ABF422D040CCBBB15F43C
:100DD00092B4CB7727D18209BD94E90D8F2666B4F2
:100DE0000333B04BC38CA24AA507378065E658BAD7
:100DF00018A3C85465904551A9ECD845C188EB03A8
:100E0000F7E988A57E7F27233C6FBA8AFC1E389BB2
:100E1000CCBB54C7B1D904F7C0970E810010704203
:100E2000E69D2D98FDC21110ECC410C0C8C4011578
:100E30000FB502074CACAF0C1D5D77F1120316F035
:100E4000D61ECCF121F51FC0E140D675E5B76DDCAB
:100E500029AA326B60C84543DD01B18F947C121D15
:100E6000CE7C0C4F9FA043F7E8F0B8EBF849507EDA
:100E7000B769033A0A3CD88C3F711EB44E52C62162
:100E8000FF81063B14A6B860BA75BC20790B944765
:100E90006A2139904B8E045E08447347D7F8973720
:100EA000822EC24B1AD4B68A92CFFBAC969D2B876A
:100EB0009BB1B76A9F08CC8801E7B1F4E145DEF148
:100EC0003773B7C34AF1E9D9525C9EFE8237368C3C
:100ED00005EFEED7E2E6FC6A8DA974F06670F36E5A
:100EE000F4EAE65D04FFC28137D83CD1E0D9F0D501
:100EF000CD190E2C2FAE979FC4FBDBD5CF18A4873E
:100F0000F4DFABC1E5F21EA8E2A690DB389A4C876D
:100F10004078F3E592678B10FCDCAE96ABF3CF2BF9
:100F2000F1E5FCEAECFA0B1A7A849DEBD52D74F20C
:100F30002A649DC539CEB582B95638178C9E9F5EFE
:100F40008877A7F7672886A75ADF9DDEADC5FAFE2A
:100F500072FD338CAC573832C5EED5CDCDEA565C38
:100F6000DFDC9D5F9EFF6B7526EEAFB08FAF08662E
:100F7000147FC5BBEBBB8F6275F60158C36F78C396
:100F80006BE1CE49A5175B5067B44C16FF06FBD644
:100F9000ABABF5F5AD58DDDEC2FF97B74BBA577472
:100FA0003A712F77B0966F586076552B6486EB0CAC
:100FB000D1939E87DFF87E03443846EAF5FA342A57
:100FC000C1213C02D8CBEAFAFE8EAACA57A7CB4F62
:100FD0003CEFDDE9ED9DE0E6C8346F57A767BA0F37
:100FE00042F4FA7EB95CADD72CDADC7FDC76CEA396
:100FF000A5383BBD3BE5B59374EC42D5C2A4BA130A
:10100000663ABFFA7C7A717EC6C2918127E47DDFA1
:10101000AE6EAE6FEF2C39CDE4D7E770A28BF375CF
:101020007406C70D47009FA3B38FAC7208CA387A05
:10103000733A1CBCF9F7F0D5FCBF602EEFF07BCE05
:10104000DF4BFC0608408D336C40DEA1C60A1B80D6
:10105000EAA9F11E1B63CDFF811A5AC0476C4CB43C
:10106000807F6263A6793ED1349AE7821AC8F3ADD5
:1010700093D6F4EAE370341AD1E26335198E672906
:1010800029A568A6F3704A9AC0CF68AA48E54D2EF4
:1010900027C3307A601BD0990CA5D863C7A3CD3085
:1010A00042D4590937A454FB6440BEBBE11B0C3B3E
:1010B000F7694E75FCC01417524651CBB80CCAAA3A
:1010C000814C0DFFAA0D009EA782D14E40212578AC
:1010D000DA65F0CDA141057B48073013C334C3DB8B
:1010E0002A4998B80E834D5507E0A5FF30ED4CE135
:1010F000684AFDD4A58B0EC0FAE7066162A0B22D46
:101100002C2868767183D4B15E266328AE97686216
:1011100085A41891B8AAC3BD04284934AC5496815B
:10112000A9BF597EB0C3253F6D05FBB88688C0496D
:10113000870A2666A096903A5443CF4BEF63D86F48
:101140001A345540A90F2BDD147F39D3BEE7A2A96D
:10115000C14F5999CAE7208F6B0CAAB085B253478B
:10116000E5EAD9C75FF0768655F6BFEB2A7BE774D0
:1011700082F064CCAF3EE02E81F640769E80DCD0DB
:10118000F4857E1F7A8F1918F2C01D67128EF7E75B
:101190007C3D08DC85DE3CEB041CBC7561989FAF90
:1011A0002CB5BD68F7AFCAFC4661E8CCCB8B7BCAD7
:1011B00062ECCF20CC50E91745AA54B93E20C38336
:1011C000880B098AE42AA7192C2A40CDFA2C022C74
:1011D0009C63BA71C3B6CC6E0BEB1C880FC675E16D
:1011E000C4CE3FF21402E613B02F6209D1F462813B
:1011F000DB24B568DEE9D737420C419A7132EC1234
:101200008001B67BB727C58F4986A273E3F3A4E0BC
:10121000B3C965FC8C7630370A65447A29958AC152
:1012200030649900C234E60A222F3385BEA4929D11
:101230004CDB1C2BA6C08CB79940A76C322CF955FF
:10124000E24920EEF93EC32EAE5372754D8D55F432
:101250004B543FDDF002F8AA3779F5C457C42BF0A0
:10126000F138E0ED6070A1503BE90D80D7F300BE8E
:1012700033F90359B9E77B1457AC68A8C495BAEEA3
:1012800031A576EBFBFBBADA82320B587A8C7BDB2A
:101290000088865582B225862DAC46DE4ABD29746B
:1012A000558C2B300DAA1A8E01FD18EB686B4B7014
:1012B000A09DE029CB73404A09C8EBBC93305A7615
:1012C0009C5643BFC381CF986B88417C86B400A4F1
:1012D000C88AB6307DC639105398B70D7AE30561D8
:1012E00014B52802FBCFBD6B1DC69AAA0A3631ED94
:1012F0008E778697A53BDFA450654048AF3F5C35AD
:10130000BD237D202780442529ABDC97AADDA323BC
:101310004B0E699447F0D9E24BDC24BBB4DAB21629
:10132000FFC4B7177A7D87ACDB968F2018E3213F87
:10133000687AFDCA0D4CF14D1E7D0402A682388FDD
:101340001E0C1014228DE2F3C58758C42168F834AE
:101350007BEB56C3CF526E94BD86AB0DB617DDB393
:10136000CBE3DE36380154650E39E32B2C297EC8D9
:101370004D2AB00A5D10160A1A1321F16685B7B717
:101380003CE84D0A7BA73F38B05948FF1942CA4F85
:10139000120A8BC218C0D9E4E0EE4D1A18DBEB122A
:1013A0008526523DE5047E7B3A02ABF1BCD93BF089
:1013B000BD4A272BF63DBC7E41623F78D3C1CC0E9F
:1013C000D87714CE2713C20FBA312500C18DE98416
:1013D0008C071AD3E90CBE47DF0EEE2E0EB05D5E11
:1013E0005F9DDF69A476FD7975FBFE824034F8D6F7
:1013F000E917717B7A8558766891D9FA66B53C7F92
:101400007FBE3C2AD4829B072570D7F87A035E0BF7
:10141000F9237E14DB86A6C09FF01BF03E9A403B6A
:10142000585E5FBD3FFF20605E71B1FABCBA20A07C
:101430007D7DB57EFBF29F7280C82F018302710310
:10144000FCCB950F37175F4703AA20ED21544AC6FE
:10145000D5F66F413A6507AAF0746B58FA4E7D32A3
:10146000727FACD16189BD1A2F5727F44B14A603A4
:101470002E55B9BBD949685FA90384A7F445D7376E
:101480007AA9C13E637C544C80702A6C710CD8E9F7
:10149000B9908ABEBFB76ECDA13F849B3E442C60FD
:1014A0009EC714F8BD7DED3A99B9D7A58E64B8945E
:1014B00043F83F9CC37FBC02F6095F1A8C8E7B4FBA
:1014C00035FA22A18BAC44A1B51ABA17138FD93EB5
:1014D0009D70B5E23592E2DB8AD34ED0C7AF5A4158
:1014E00098F6ED3B88DEA3A9E7B449420F3B5406CA
:1014F00004713099FF747832273F8540044BCE1F2A
:101500003B551385D8A24C64EF2125A4D291C7D3B3
:10151000A910BBA2842EE19A9B36D7117D910F2D85
:10152000A5AA94ABF78057211609934B15EF2DC44C
:1015300054AB5C16302F19DF51C4E8586DECE080D5
:10154000FC12B2772EE1A8578A3A60EC9D634437CB
:101550008ABA21887F82B91FD7A59C29AAB6D03F15
:10156000EA57ED0A912B2FF56A4FFC6685458F6986
:101570002FA0758FF488BBE207A5347DCE91AB48D0
:101580001D6E016B51ECAB8BC35ACD712FE0AF8E4A
:101590004F4DFD7A8BE349625B2E3B5EC3F2C2C2C4
:1015A00018833DDD45F8AF22DA4ECCC05BAAFE536E
:1015B0003D8869F3245A24C378F0EDFF3684526FD6
:1015C000060E000028292A2B2C2D2E2F5051525365
:1015D0005455565704040004020704000002000298
:1015E00004000004040000000404040407040704C9
:1015F00000070404040004040004040107040004B8
:101600000200000000000000060002028800100A2C
:1016100003D4158700400A03D71586001E0D06DA8D
:10162000158500400A03EF158400150B04E01583AF
:1016300000180B04E41582000B0902E81581004034
:101640000902ED158000400A03EA157F00400903F6
:10165000EA157E00400802ED157D00400903EF15F4
:101660007C00110A04F2157B00110A04F6157A00B9
:101670000D0802FA1579000B0701011678004007E2
:1016800001FC157700120A04FD1576000B07010115
:1016900016750010080202167400150903041600DE
:1016A00000400802071673000E08020916720009AE
:1016B00007010B167100060600000020002300261B
:1016C0000029002C002F0032000001000003010659
:1016D0000109010F470044004500800135480044DE
:1016E00000450020010D88008000810080000E8AE6
:1016F000008000810020000F8C0080008100080025
:101700000CB300B000B10080033EB400B000B100E3
:101710002003239800900091008000249A009000FC
:1017200091002000259C009000910008003BA8003B
:10173000A000A10080003CAA00A000A10020003D64
:10174000AC00A000A10008005B280120012101805D
:10175000005C2A012001210120005D2C01200121D3
:101760000108000011241FBECFEFD1E2DEBFCDBFC4
:1017700000E00CBF14BE0FB6F894A89580916000ED
:10178000886180936000109260000FBE12E0A0E0BC
:10179000B2E0EEE5FAEA00E00BBF02C007900D925E
:1017A000A033B107D9F723E0A0E3B2E001C01D9256
:1017B000A43AB207E1F70E949B4D0C942D550C946E
:1017C0000000FC0186898460868B1092260281E0ED
:1017D00080936C0284819581A681B781408951896B
:1017E00062897389840F951FA61FB71F8483958311
:1017F000A683B78381E008950F931F93FC01A4890A
:10180000B58986898C9393A181E0892783A344813C
:1018100055816681778190FD12C0008511852285F2
:101820003385400F511F621F731F82FD12C0448316
:1018300055836683778381E01F910F910895048516
:10184000158526853785400F511F621F731F82FF44
:10185000EECF0089118922893389872F40175107DC
:101860006207830B87FDE3CF84E791E19383828353
:10187000B901A801448355836683778381E01F9172
:101880000F9108950895FC018081A481B581408560
:101890005185628573859FB7F894813061F08230FD
:1018A00019F04C939FBF08954D935D936D937C9376
:1018B00013979FBF089511965C934E939FBF089511
:1018C0000F931F93CF93DF938C01DB01FC01908179
:1018D000709156029F5F492F50E0440F551F440FEF
:1018E000551F2091570230915802240F351F0BC00D
:1018F000E9012C5F3F4FF9013497408151814A172C
:101900005B0751F09F5F971798F390E080E0DF91BD
:10191000CF911F910F910895F80190838A819B8147
:10192000DF91CF911F910F910895CF92DF92EF92A7
:10193000FF92CF93DF9360915E0270915F02611519
:10194000710581F1615071096B01F12CE12CC0919D
:101950005B02D0915C0240915D0250E0611571051F
:1019600091F0FE0180E090E0DC010196A11DB11D27
:101970009A012E0F3F1F31832083F9018C159D059D
:10198000AE05BF0590F3469FF001479FF00D569FAF
:10199000F00D1124EC0FFD1F11821082D0936F0205
:1019A000C0936E02DF91CF91FF90EF90DF90CF90C8
:1019B000089580E0089510922602E2E1F2E0848129
:1019C0009581A681B781AC01BD015659674E7F4F05
:1019D00044835583668377839659A74EBF47809388
:1019E0000E0290930F02A0931002B093110281E0B7
:1019F0000895FC01648180810C94D44AFC0180919B
:101A00007A0086FD08C0828D90910902981789F0AE
:101A10009F3F09F463C084819581A681B781885373
:101A2000984FAF4FBF4F84839583A683B78381E0E0
:101A300008958FEF8093090220917800309179000A
:101A4000858D968D891790F544895589240F351F0A
:101A50008F5F358B248B858F891770F186899789E5
:101A60002817390708F448C0808D918D8217930795
:101A700008F442C0138E1092260281E080936D021A
:101A800080899189A289B389408551856285738552
:101A9000840F951FA61FB71F808B918BA28BB38BD2
:101AA00084839583A683B78381E0089581E0358B95
:101AB000248B858F891790F684819581A681B781C3
:101AC0004485558566857785840F951FA61FB71FAA
:101AD00084839583A683B78381E008958093090268
:101AE000982F987090937B008770806480937C001F
:101AF00087ED80937A008FCF838D8F5F838F948D56
:101B0000891708F4B8CF809128028111B3CF8BE1F7
:101B10000E94E00F2F923F924F925F926F927F92BE
:101B20008F929F92AF92BF92CF92DF92EF92FF92ED
:101B30000F931F93CF93DF9300D000D0CDB7DEB7C4
:101B4000DC011596BC91B9835B2F567081F1032F90
:101B5000D22E142FC62E9B838A83B170BC83E98159
:101B6000E1FD3EC0AA81BB819C9111968C919CBDE8
:101B70008DBDBC81B11172C1CC2009F43EC11123CD
:101B800009F4D4C0ED2DF02F1150AF014F5F5F4F1E
:101B9000410F511D80818EBD0DB407FEFDCF8EB566
:101BA0008193E417F507B1F7EC81E111C3C02696E4
:101BB0000FB6F894DEBF0FBECDBFDF91CF911F915E
:101BC0000F91FF90EF90DF90CF90BF90AF909F90DC
:101BD0008F907F906F905F904F903F902F900895DF
:101BE000DC010D90BC91A02DBE83AD831D964C9160
:101BF0001D97427016966D917D918C910E94B24A0C
:101C00000E94394CED81FE8181849284A384B48446
:101C1000680D791D8A1D9B1D0E94E73FFC81FF23F3
:101C200009F4FAC0F980F694F694F6944F2D4170B9
:101C3000AA81BB8112966D917D918C910E94B24ACE
:101C4000EA81FB810190F081E02DFE83ED838184A8
:101C50009284A384B48424013501769467945794C4
:101C6000479484189508A608B7080E94394C640D5B
:101C7000751D861D971D2FEF210F112309F45EC0DE
:101C8000ED2CF02EA7014F5F5F4F1A01220E311C81
:101C9000D701DD907D01ED81FE81258508E010E012
:101CA00020FF6EC00E94E73FAD81BE811696ED9188
:101CB000FC91179718968C91189780834D2D40783A
:101CC00013966D917D918C910E94B24A0E94394C7D
:101CD000DD0C110F680D791D8A1D9B1D0E94E73FC9
:101CE000AD81BE811696ED91FC91179718968C9157
:101CF00018978083ED91FC911197808112969C91A9
:101D0000892391E009F490E0192B0E94394C640D6D
:101D1000751D861D971D015029F6CC2019F0F7017D
:101D2000319710832E143F0409F0B2CFEC81EE23DB
:101D300009F43DCFF980F694F694F6944F2D409532
:101D40004170EA81FB8162817381848126960FB69E
:101D5000F894DEBF0FBECDBFDF91CF911F910F91E1
:101D6000FF90EF90DF90CF90BF90AF909F908F90BB
:101D70007F906F905F904F903F902F900C94B24A5D
:101D80000E94E73F4D2D4078ED81FE816381748193
:101D900085810E94B24AAD81BE811696ED91FC917B
:101DA000179718968C9180830E94394CDD0C110F87
:101DB000680D791D8A1D9B1D0E94E73FAD81BE8184
:101DC000ED91FC911197808112969C91892391E06D
:101DD00009F490E0192BAD81BE811696ED91FC912E
:101DE000179718968C9180830E94394C640D751D4D
:101DF000861D971D015021F690CFED2DF02FAF01DC
:101E0000410F511D4E175F0709F490CF81918EBD90
:101E10000DB407FEFDCFF6CFAA81BB810D90BC911A
:101E2000A02DBE83AD8319968D909D90AD90BC90F2
:101E30001C9724013501769467945794479484182D
:101E40009508A608B7080E94394C640D751D861DBB
:101E5000971D2FEF210F111113CFA9CEB981B3FB1D
:101E6000442740F9EA81FB816281738184810E9469
:101E7000B24A82CE0F931F93CF93DF93EC010FB73B
:101E8000F8949E8990FF25C0162F6F8B9A7F9460DF
:101E90009E8BAC89BD891097B9F01296ED91FC919B
:101EA00013978D919C9111979D8B8C8B11961C9201
:101EB0001E9213961C921E921297612FCD011995B6
:101EC000AC89BD89109749F71092260281E0809372
:101ED0006C020FBFDF91CF911F910F91089508976A
:101EE000FC01608D0E943A0F80E00895FC01A085FE
:101EF000B1859C91818D22859223C9F08095817056
:101F0000C1F4838D815029F1838F84819581A681CD
:101F1000B7814785508961897289840F951FA61FF3
:101F2000B71F84839583A683B78381E0089581706A
:101F300041F380EB9FE09383828383899489A58911
:101F4000B68984839583A683B783828D838F81E04E
:101F50000895648D8789908D0E943A0F80E00895DE
:101F60000F931F93FC01A085B1859C9144815581FD
:101F7000668177810385148525853685400F511F3D
:101F8000621F731F818D2285922359F08095817085
:101F900051F0448355836683778381E01F910F91CD
:101FA00008958170B1F7438B548B658B768B86E7F0
:101FB0009FE093838283CF011F910F910C94760F42
:101FC000F894682F70E08DE392E00E94D0544F9215
:101FD0005F926F927F928F929F92AF92BF92CF92B9
:101FE000DF92EF92FF920F931F93CF93FC01A4A176
:101FF000B5A11097B1F416861786108A118AC0E031
:102000008C2FCF911F910F91FF90EF90DF90CF9089
:10201000BF90AF909F908F907F906F905F904F9008
:1020200008958D919C91119795A384A312964D913B
:102030005D916D917C91159718960D911C91199752
:1020400016968D919C9117971A962C911A97E0905D
:102050006E02F0906F021196FC92EE92B0936F02B6
:10206000A0936E02C0A0D1A0E2A0F3A0C22FC170C5
:1020700020FF08C0F094E094D094C094C11CD11CFF
:10208000E11CF11C30E020E0C00ED11EE21EF31E68
:10209000C0A2D1A2E2A2F3A2958784876C01092E87
:1020A000000CEE08FF08C40ED51EE61EF71EC08603
:1020B000D186E286F386A4A5C480D580E680F78029
:1020C000A5FD28C086849784A088B188428853885B
:1020D00064887588440D551D661D771D428B538B92
:1020E000648B758B44835583668377839A2F9071B5
:1020F000A4FD04C0000F111F221F331F068717877E
:10210000208B318B89288A288B28F1F4C11114C0C7
:10211000C1E076CF4C0D5D1D6E1D7F1D4483558340
:102120006683778306871787208B318B892B49F04D
:10213000A064A4A7CC2361F3A58DB68D878D8C9365
:102140005FCFAF7BA4A7F6CF8F01872F4C155D051E
:102150006E058F0987FD33C0CC23D1F2911125C0C4
:10216000D8015D96ED91FC915E975F968C9180838E
:102170000E94394CF801C688D788E08CF18CDC01CC
:10218000CB018C0D9D1DAE1DBF1DC480D580E6808A
:10219000F7802F2DC816D906EA062B0B27FFB8CFDC
:1021A00084839583A683B7832BCF0E94394C292F34
:1021B0006C157D058E052F0927FDF7CFD1CF4C1962
:1021C0005D096E097F094038514C6F4F7F4F2CF0ED
:1021D000C482D582E682F782BFCF88E10E94E00FF9
:1021E0008F929F92AF92BF92CF92DF92EF92FF9227
:1021F0000F931F93CF93DF93EC01EA8DFB8D8C8DB2
:1022000080830E94394C0E891F89288D398DAB013E
:10221000BC01400F511F621F731F8E859F85A889C7
:10222000B9890197A109B10980FF19C02CA524FD26
:102230001AC08E879F87A88BB98B4C835D836E8372
:102240007F8381E0DF91CF911F910F91FF90EF90FD
:10225000DF90CF90BF90AF909F908F9008950097A0
:10226000A105B10571F188849984AA84BB840A8987
:102270001B892C893D89080D191D2A1D3B1D0A8BC0
:102280001B8B2C8B3D8BCC84DD840D2C000CEE083D
:10229000FF08C80CD91CEA1CFB1CC886D986EA8634
:1022A000FB86E32F041715072607E70BE7FDC1CFD1
:1022B0008E879F87A88BB98B0C831D832E833F83CA
:1022C000C0CF4C835D836E837F83CE01DF91CF913E
:1022D0001F910F91FF90EF90DF90CF90BF90AF9044
:1022E0009F908F900C94E70F8F929F92AF92BF9226
:1022F000CF92DF92EF92FF921F93CF93DF93EC0187
:10230000EF8CF8A0E114F10409F400C1F701808119
:10231000918198A38F8F86809780A084B18411E0EB
:1023200081149104A104B10409F4B6C06C897D89BB
:102330008E89412F0E94B24A80916E0290916F0265
:10234000F70191838083F0926F02E0926E02811414
:102350009104A104B10489F18B8D9C8DAD8DBE8D4E
:1023600088169906AA06BB0640F54F89588D698DD7
:102370007A8D411551056105710509F4BBC08C8149
:102380009D81AE81BF81480F591F6A1F7B1F166058
:10239000EF8DF8A13097B9F1C280D380E480F58049
:1023A000872F4C155D056E058F0987FDB2C08BA187
:1023B000912F9270B701A6017EC08BA121E08114FC
:1023C0009104A104B10409F069C084FB992790F934
:1023D00031E09327291709F442C04F89588D698D40
:1023E0007A8D4115510561057105C9F18C819D8179
:1023F000AE81BF81480F591F6A1F7B1F1460EF8D8C
:10240000F8A1309749F62BA1488B598B6A8B7B8BAF
:102410002071212B2BA3212F247011FF65C0880D63
:10242000991DAA1DBB1D211158C02CEF3BE03B8319
:102430002A838C839D83AE83BF8388869986AA86F0
:10244000BB868B8D9C8DAD8DBE8D88199909AA098F
:10245000BB098C879D87AE87BF8781E011C090E064
:10246000EF8DF8A1309719F5188A198A1A8A1B8AF4
:102470008071812B8BA3212F247080E091113EC0AD
:10248000DF91CF911F91FF90EF90DF90CF90BF90A1
:10249000AF909F908F90089510E048CF20E084FB8C
:1024A000992790F931E09327291397CFD8CF42810C
:1024B000538164817581488B598B6A8B7B8B8071CA
:1024C0001460182B1BA3992379F08C819D81AE8118
:1024D000BF81880D991DAA1DBB1D2B2F8417950741
:1024E000A607270B27FDA1CF4C835D836E837F83D7
:1024F00081E0C6CF12608BA192E0B2CF40E050E005
:10250000BA018C819D81AE81BF8189CF85E10E9416
:10251000E00F83E10E94E00F80912802882329F0D8
:10252000823011F010922802089582E00E94E00F9C
:1025300088E00E94E00F90915602891798F490E08D
:10254000880F991F880F991FE0915702F091580248
:10255000E80FF91F808191818617970719F482810E
:10256000938108958CE00E94E00FCF93DF93EC01FC
:1025700064E275E188810E949B12288539854C812F
:1025800060E0DF91CF910C948A0D8F929F92AF9271
:10259000BF92EF92FF920F931F93CF93DF937C0133
:1025A00064E275E1FC0180810E949B128C01F701BD
:1025B000C085C43008F07FC0FC01D581D67009F019
:1025C0007AC0F70184849584A684B7848481958138
:1025D000A681B781892B8A2B8B2B09F06EC0EDEB7E
:1025E000F6E1A591B49111968C9180FD04C060E054
:1025F00088E00E94D44A60E089E00E94D44A60E00A
:102600008AE00E94D44A60E08BE00E94234A80E581
:102610008CBD1DBC81E08114F2E19F06FAE7AF0694
:10262000B10470F5811489E098068DE3A806B10421
:10263000E0F581E0D1E0E0E88E16E4E89E06EEE108
:10264000AE06B104E8F480E0D1E0F0E48F16F2E4E5
:102650009F06FFE0AF06B10498F480E2881681EA95
:10266000980687E0A806B10418F580E0D3E0E0E919
:102670008E16E0ED9E06E3E0AE06B10408F0D2E06F
:10268000CC0FCC0FC065CD2BF801C0838183858131
:1026900084608583DF91CF911F910F91FF90EF9020
:1026A000BF90AF909F908F90089580E0D0E0E8CFEA
:1026B00081E0D2E0E5CF0E94724588E30E94E00FFE
:1026C00064E275E10C949B120F931F93CF93DF93F9
:1026D0008C0163E575E1FC0180810E949B12EC0195
:1026E00066EA77E4F80184810E949B12CF5ADF4F9B
:1026F00099838883DF91CF911F910F9108950F9354
:102700001F93CF93DF938C0166EC75E1FC01808110
:102710000E949B12EC016AE975E1F80184810E9434
:102720009B12BE01685D7F4F4FB7F8942AA53BA569
:10273000232B89F426E33BE13BA72AA7FC0124894C
:10274000358939A728A7758B648B4FBFDF91CF914F
:102750001F910F91089589E10E94E00FCF93DF93BD
:10276000EC0166EC75E188810E949B12FC018C8172
:102770009D81AE81BF81F8944685578560897189B6
:10278000452B462B472B79F484839583A683B78307
:10279000828B938BA48BB58B84A5877F84A7789439
:1027A000DF91CF91089586E10E94E00FCF93DF93F0
:1027B000EC0166EC75E188810E949B12FC018C8122
:1027C0009D81AE81BF81892B8A2B8B2B51F480E0B8
:1027D000F89494A59D7F982B94A77894DF91CF913E
:1027E000089582E0F5CFCF93DF93EC0167E776E1C0
:1027F00088810E949B12F894FC01278D30A1232B25
:1028000061F44C815D816E817F81438F548F658F30
:10281000768F7894DF91CF91089584E10E94E00F44
:10282000FC01138212821182108280915E029091CB
:102830005F02892B41F480915D028617170614F41C
:1028400060935D0208958EE00E94E00F2FB7F89428
:1028500080916E0290916F02009749F0FC014081D7
:10286000518150936F0240936E022FBF08958FE005
:102870000E94E00FCF93DF93C0915902D0915A028A
:10288000AE01480F591F2DB73EB721503F4F2227A9
:102890003A952417350770F050935A024093590225
:1028A000AC0170E060E0CE010E942655CE01DF91C0
:1028B000CF91089581E10E94E00F0F931F93CF9372
:1028C000DF938C0180915E0290915F02892B09F069
:1028D00049C060915D0270E0623028F482E080932C
:1028E0005D0262E070E0E0915902F0915A024DB74A
:1028F0005EB741505F4F44275A959F01D0E0C0E03A
:10290000C901860F971F4817590730F121969C017E
:10291000C115A4E0DA07A1F78E1B9F0B0E943A14A1
:10292000D0935F02C0935E0290935C0280935B023F
:102930000E94950CF80180819181A281B3818093DE
:10294000600290936102A0936202B0936302DF91F0
:10295000CF911F910F910895C9012097E9F680E169
:102960000E94E00F8DE00E94E00FCF93209157026C
:1029700030915802232B91F4FC01C0818C2F90E000
:10298000880F991F880F991F0E943A14909358023C
:1029900080935702C0935602CF9108958AE00E9417
:1029A000E00FCF93DF9390915602891700F5282FFF
:1029B00030E0220F331F220F331FC0915702D091F6
:1029C0005802C20FD31F88819981892B81F480918D
:1029D0005E0290915F02892B51F479836883CA016A
:1029E0000E943A149B838A83DF91CF9108958BE0F4
:1029F0000E94E00FCF92DF92FF920F931F93CF932D
:102A0000DF93EC0164E275E18C810E949B126C0102
:102A1000F8840F2D10E0A8014D5F5F4F6AEF74E15D
:102A200088810E94D114FC01D182C082F2826C851F
:102A30007D85A8010396DF91CF911F910F91FF90A3
:102A4000DF90CF900C940B55FF920F931F93CF9371
:102A5000DF938C0146E050E064E275E1FC01808187
:102A60000E94D114EC01F801F08461E0F11060E003
:102A7000F80184810E94D44A6A837B838C838D8190
:102A800091E0F11099E0892B8D83DF91CF911F9117
:102A90000F91FF90089546E050E064E275E1FC017B
:102AA00080810C94D114CF93DC0114969C911497DF
:102AB00030E020E005C02F5F3F4F20313105B9F1F4
:102AC000C22FF901EC53FA4EE4919E13F4CF87E93B
:102AD00080937A002830E8F480917E0021E030E095
:102AE0000C2E01C0220F0A94EAF7822B80937E00FD
:102AF00043E550E063E575E18C910E94D114FC013F
:102B00008EEF9CE093838283C28F81E0858FCF918B
:102B1000089580917D00922F977021E030E001C0F0
:102B2000220F9A95EAF7822B80937D00E1CF87E30D
:102B30000E94E00F49E150E06AE975E1FC01808103
:102B40000E94D11421EE3BE0FC01338322832FE667
:102B50003FE03387228708950F931F93CF93DF932E
:102B6000EC014DE150E06CEA75E188810E94D114DE
:102B70008C0168858C810E94234AF80160877187E7
:102B80008287DF91CF911F910F910895EF92FF926D
:102B90000F931F93CF93DF938C014DE250E066ECCF
:102BA00075E1FC0180810E94D114EC01F80184855B
:102BB00018160CF045C084E08CA764E084810E9464
:102BC000D44A6A8F7B8F8C8F60E0F80180850E94E9
:102BD000D44A6D8F7E8F8F8F80E090E0A0E0B0ECC4
:102BE00088A399A3AAA3BBA3F80180899189A2898C
:102BF000B3898E8B9F8BA88FB98F6BE070E0CE016D
:102C000084960E9410148E899F89A88DB98D89970A
:102C1000A105B10558F080EF90E19B838A83DF9195
:102C2000CF911F910F91FF90EF9008958CA5806335
:102C30008CA7DF91CF911F910F91FF90EF90089596
:102C40007E01F4E2EF0EF11C811128C06CA56470C6
:102C5000F80184810E94D44A6A8F7B8F8C8F60E058
:102C6000F80180850E94D44A6D8F7E8F8F8F80E01F
:102C700090E0A0E0B0EC88A399A3AAA3BBA3F801BD
:102C800080899189A289B3898E8B9F8BA88FB98FF8
:102C90006BE070E0C7010E941014B5CF80E18CA7F3
:102CA00060E0F80184810E94D44A6A8F7B8F8C8F08
:102CB00060E0F80180850E94D44A6D8F7E8F8F8FEF
:102CC00080E090E0A0E0B0EC88A399A3AAA3BBA306
:102CD000F80180899189A289B3898E8B9F8BA88FF7
:102CE000B98F6BE070E0C7010E94101494CFCF92AF
:102CF000DF92EF92CF93DF93EC0161E088859985B5
:102D0000AA85BB85892B8A2B8B2B09F460E08C81EB
:102D10000E94D44A6B01E82E44E250E067E776E176
:102D200088810E94D114FC01C48AD58AE68A21E0F8
:102D3000488559856A857B85452B462B472B09F4A9
:102D400020E04C855D856E857F85452B462B472B86
:102D500009F02061FC0123A3488959896A897B898C
:102D6000478B508F618F728F6AE070E04F96DF91D2
:102D7000CF91EF90DF90CF900C9410142F923F9250
:102D80004F925F926F927F928F929F92AF92BF927B
:102D9000CF92DF92EF92FF920F931F93CF93DF9327
:102DA00000D000D01F92CDB7DEB7809155028823A6
:102DB000C9F027960FB6F894DEBF0FBECDBFDF91E6
:102DC000CF911F910F91FF90EF90DF90CF90BF9028
:102DD000AF909F908F907F906F905F904F903F90BB
:102DE0002F90089581E0809355027E012FE1E20E3D
:102DF000F11C2091A3033091A2033B83432F50E0A9
:102E00002317D0F40D8D1E8D0E5F1F4FF801849196
:102E1000840F952F911D813691059CF1ED8DFE8DCE
:102E20003396E491421B51094E0F511D4136510515
:102E300060F010925502BDCF1092A2031092A3032E
:102E400050E040E01B8220E0DDCF1092A2036091B1
:102E5000A303FB81F61BFB83CF2ED12C70E06E5BAE
:102E60007C4FA60182E493E00E9414551092A303C4
:102E70002B812093A2038091C10080628093C100C6
:102E8000A601CA018E5B9C4F9D838C83F80104913F
:102E9000102F063008F480C09C012E5F3F4FB0E633
:102EA0002B2EFB812F1A021508F46DC1822D85503F
:102EB000990B1C01220E331EED8DFE8D349664910C
:102EC000ED8DFE8D3596459054908201ED8DFE8DF1
:102ED000859194918038910508F057C1D9011196D8
:102EE0008F77F9018083460E511C3101FFEF6F1A75
:102EF0007F0A0415150509F445C09D012E5F3F4F5B
:102F00002216330608F495CFF80184910F5F1F4F06
:102F1000853009F469C008F490C0883008F04EC1CB
:102F2000F701C080D18046010D2C000CAA08BB0817
:102F3000A1014A1B5B0B052E000C660B770B841658
:102F40009506A606B70608F074CF9D012F5F3F4F88
:102F50003A8329838C92470134E0830E911C62816D
:102F60007381A601863009F4F8C089819A810E9494
:102F70000B55A981BA81AC0DBD1D74010415150551
:102F800009F0BBCF2A163B0608F453CF8C819D81F4
:102F9000A81BB90B13E01A0F112309F44ACFAC8117
:102FA000BD811C938091080211968C9311976DEF4F
:102FB000610FCD010E949E4D2C813D81210F311D5D
:102FC000F9013397908331968083215031098EE740
:102FD000F9018083AB81A10FA093A2038091C1006E
:102FE00080628093C10025CFB7016E5F7F4FF701EC
:102FF00020813181AD014F5F5F4FF90180818823CE
:10300000A1F02416350688F02F5F3F4FFA0104C067
:10301000FA014615570549F0AF014F5F5F4F8083B6
:10302000F90181919F018111F3CFCA018A1B9B0B8A
:1030300081508C937B01DA015CCFF701823008F478
:1030400084C0819091907F01B12CA12C833021F418
:10305000092C000CAA08BB08FD013196FA83E9830C
:10306000B501A401405E5F4F6F4F7F4F403851055F
:103070006105710508F45DC03F832E83B501A4018D
:10308000505F6F4F7F4F411550446105710508F443
:1030900069C06D0183E0C80ED11CB501A401685F51
:1030A0007F4F411551056042710508F47EC09D01B6
:1030B0002C5F3F4FB501A4017C5F411551056105AF
:1030C0007041C8F0B501A401FCE17695679557956C
:1030D0004795FA95D1F7642F60686C93BD016B5FDB
:1030E0007F4FA981BA818E819F819A838983DF82F4
:1030F000CE8269019B01B501A401E5E17695679552
:1031000057954795EA95D1F7642F60686C93D9017C
:1031100029813A81DA82C982B501A4019EE07695BF
:103120006795579547959A95D1F74068F90140837F
:103130001CC099818A81BA83A983A92FB82F882DB1
:103140008F77E981FA818083D4CE80809180A280BC
:10315000B380C70104967C017FCF89819A810E9448
:10316000F55407CFBF83AE83D901B501A40187E031
:1031700076956795579547958A95D1F74068EE8182
:10318000FF814083DCCF202E91CE2C813D812D5FAD
:103190003F4FFC01EE0FEF2FEE1FFF0BF195E068A4
:1031A000AC81BD811296EC9399CEE981FA81FF83BF
:1031B000EE833A8329839D01D601AECF86E00E943B
:1031C000E00FFF920F931F93CF93DF93EC011881D1
:1031D00064E275E1812F0E949B120C81F884C985FD
:1031E0002F2D3C2F402F61E00E948A0DCF93FF923C
:1031F0001F920F931F921F9382E596E19F938F93E7
:103200000E94BE168DB79EB708960FB6F8949EBF63
:103210000FBE8DBFDF91CF911F910F91FF90089549
:10322000CF93FC01C0816CEA75E18C2F0E949B1248
:10323000FC01F894818D3389448955896689789495
:10324000A085B1859C912285922321E009F420E09C
:103250001F922F936F935F934F933F938695817047
:103260001F928F931F92CF9387E696E19F938F9340
:103270000E94BE168DB79EB70C960FB6F8949EBFEF
:103280000FBE8DBFCF910895CF93FC01C08166EC36
:1032900075E18C2F0E949B12FC01F89480A191A1F2
:1032A000A2A1B3A124A5468557856089718924FD13
:1032B00004C07695679557954795841B950BA60B8B
:1032C000B70BB7FF07C0B095A095909581959F4F1C
:1032D000AF4FBF4F7894B054BF93AF939F938F93EA
:1032E0001F92CF938EE696E19F938F930E94BE1616
:1032F0008DB79EB708960FB6F8949EBF0FBE8DBFD0
:10330000CF910895FC0185818F9384818F93808173
:103310001F928F938CE796E19F938F930E94BE1626
:103320000F900F900F900F900F900F900895DC0169
:103330002C911496ED91FC913FB7F8942130E9F06F
:103340002230B1F0808190E0B0E0A0E03FBFBF93B9
:10335000AF939F938F9385E796E19F938F930E94FE
:10336000BE160F900F900F900F900F900F90089532
:1033700080819181A281B381E9CF80819181B0E088
:10338000A0E0E4CFCF92DF92EF92FF92FC01408168
:103390005181628173812481E0ECF5E18591959101
:1033A000A591B491481759076A077B0770F56A0120
:1033B0007B01C20ED11CE11CF11C8C159D05AE05D4
:1033C000BF0500F5841B90E09A012654384F3F93C7
:1033D0002F939F938F937F936F935F934F938FE977
:1033E00096E19F938F930E94BE168DB79EB70A9663
:1033F0000FB6F8949EBF0FBE8DBFFF90EF90DF9089
:10340000CF900895822F90E0DFCF90E080E0DCCF76
:10341000CF92DF92EF92FF920F931F930E94394C4D
:103420009F938F937F936F93C12CD12C7601C3947C
:10343000009168021091690220916A0230916B023A
:10344000601771078207930718F0C12CD12C760101
:10345000409164025091650260916602709167022A
:10346000D701C601840F951FA61FB71FBF93AF9347
:103470009F938F9381E996E19F938F930E94BE164D
:103480008DB79EB70A960FB6F8949EBF0FBE8DBF3C
:103490001F910F91FF90EF90DF90CF9008950E94C1
:1034A000394C9F938F937F936F938AE896E19F9314
:1034B0008F930E94BE160F900F900F900F900F9059
:1034C0000F90089580915E0290915F029F938F9379
:1034D00021E030912802311101C020E01F922F938A
:1034E000209163022F93209162022F932091610219
:1034F0002F93209160022F9321E0892B09F420E083
:103500001F922F9383E896E19F938F930E94BE169C
:103510008DB79EB70C960FB6F8949EBF0FBE8DBFA9
:10352000089584E00E94E00F0F931F934FB7F89423
:10353000E0912202F0912302E817F90729F420C054
:1035400028173907B9F0F90120813181211531059A
:10355000B9F720912402309125022817390731F458
:1035600082E192E090932502809324024FBF1F9145
:103570000F910895DC012D913C9131832083E9CF97
:10358000DC0114960D911D912D913C91179700939C
:1035900004021093050220930602309307022D9136
:1035A0003C91309301022093000220E032E03093FE
:1035B000230220932202CDCFEF92FF921F93CF934D
:1035C000DF937C01FC0110816AE975E1812F0E9483
:1035D0009B12EC01F894F70164810E943A0FCE012E
:1035E0000E94941ACE0108960E94941A1E8A8F890E
:1035F00078941F921F921F921F921F928F931F9277
:103600001F921F921F9380E696E19F938F930E94D3
:10361000BE168DB79EB70C960FB6F8949EBF0FBE20
:103620008DBFDF91CF911F91FF90EF900895CF93C1
:10363000DF93EC010E94941ACE0108960E94941A1E
:10364000EC89FD89309751F090818181138212823B
:1036500011821082E92FF82F3097B1F71D8A1C8A4A
:10366000188E1F8A1E8ADF91CF910895CF92DF9224
:10367000EF92FF920F931F93CF93DF938C01EC0196
:10368000A897CE010E94941A1C821D821E821F825E
:103690001A8A1B8A1C8A1D8A48A159A16AA17BA18A
:1036A0008CA5CE84DF84E888F98884FD04C0F69474
:1036B000E794D794C7944C195D096E097F09CC240F
:1036C000DD247601C41AD50AE60AF70A77FD02C09E
:1036D000B701A60148A359A36AA37BA31E861F8630
:1036E000188A198A847388608CA76D8D7E8D8F8D62
:1036F00040E00E94B24A4CA544FF27C045FD25C0CA
:10370000D8011497ED91FC9111973097A9F0409151
:103710006E0290916F0201C0F901208131814083D6
:103720009183F0936F02E0936E024E2F9F2F21152D
:10373000310591F71D921C92DF91CF911F910F914E
:10374000FF90EF90DF90CF90089544706A8D7B8D4D
:103750008C8D0E94B24AD4CFAF92BF92CF92DF92AB
:10376000EF92FF921F93CF93DF93DC011496CD90DD
:10377000DD90ED90FC9017971FB7F894C09122024E
:10378000D09123022F2D4C815D816E817F818F2D01
:10379000C416D506E606870B87FD1FC0FE010990FB
:1037A000D881C02D4C815D816E817F81922FC4169E
:1037B000D506E606970B97FFF1CF1196DC93CE93D3
:1037C000B183A0831FBFDF91CF911F91FF90EF9036
:1037D000DF90CF90BF90AF9008955D010E94394C6B
:1037E0002F2DC616D706E806290B27FD25C082E037
:1037F000C030D80741F1F501D183C083C0920402E3
:10380000D0920502E0920602F0920702B092010205
:10381000A092000280E092E0909323028093220223
:103820008091840090918500C29690938900809346
:10383000880082E086BBC6CF809128028111D7CF55
:1038400083E00E94E00F8091000290910102F50157
:1038500091838083D3CF0F931F93CF93DF938C01FA
:1038600063E575E1FC0180810E949B12EC010E94DE
:10387000941A909109028A8D981303C08FEF809358
:103880000902F80184819581A681B781888B998B83
:10389000AA8BBB8B8C839D83AE83BF8380859185F0
:1038A000A285B3858C879D87AE87BF8784858E8FE1
:1038B00091E0980F9D8F408951896289738948876B
:1038C00059876A877B8794899F8F18A2208D318DB5
:1038D0003F8B2E8B248D358D398F288F20A12C8FF7
:1038E000882349F0913360F4CE01DF91CF911F918D
:1038F0000F910C94AC1BDF91CF911F910F91089504
:103900008AE10E94E00FEF92FF920F931F93CF93F3
:10391000DF938C016AE975E1FC0180810E949B12B2
:10392000EC01F8948E8980FF13C07E01F8E0EF0E61
:10393000F11CC7010E94941AF80184819581A68127
:10394000B7818C879D87AE87BF87C7010E94AC1B5C
:103950007894DF91CF911F910F91FF90EF90089590
:103960000F931F93CF93DF938C016AE975E1FC01FC
:1039700080810E949B12EC01F8940E94171B81E049
:103980008E8BF80184819581A681B7818C839D837C
:10399000AE83BF8380859185A285B385888B998B03
:1039A000AA8BBB8B892B8A2B8B2B19F0CE010E9403
:1039B000AC1BF8018485888F7894DF91CF911F919B
:1039C0000F9108950F931F93CF93DF938C016CEAAF
:1039D00075E1FC0180810E949B12EC010E94941A07
:1039E000F80184819581A681B7818C839D83AE8304
:1039F000BF8380859185A285B3858F87988BA98B9E
:103A0000BA8B84858A8F882359F1408951896289CC
:103A100073894B875C876D877E8720EB3FE03B8314
:103A20002A838B8F84899589A689B789892B8A2BCC
:103A30008B2BA1F482E0898F6AE975E1F801808D12
:103A40000E949B12988F8F8BF801848D8C8FCE01F2
:103A5000DF91CF911F910F910C94AC1B83E0EBCFC2
:103A6000188E1F8A198EDF91CF911F910F910895A3
:103A70000F931F93CF93DF938C0166EC75E1DC010C
:103A80008C910E949B12EC010E942614FC01D8012B
:103A900014964D915D916D917C911797428353835C
:103AA0006483758318968D919C911997918780876F
:103AB000892B09F464C01C968D919C919783868311
:103AC0001286F8948CA5282F217081FB992790F9F4
:103AD000291729F091E089279285916092874E8578
:103AE0005F8568897989452B462B472B59F583FDDE
:103AF00019C08CA7118210828CA19DA1892BD1F1B4
:103B0000AEA1BFA1ED93FC93FFA3EEA3CE010E9453
:103B1000E70FCE010E94AC1B7894DF91CF911F91EB
:103B20000F91089580916E0290916F02918380832E
:103B3000F0936F02E0936E027894DF91CF911F9122
:103B40000F9108958CA7118210828CA19DA1892BC1
:103B500061F0AEA1BFA1ED93FC93FFA3EEA3789417
:103B6000DF91CF911F910F910895FFA3EEA3FDA3C5
:103B7000ECA3D2CFFFA3EEA3FDA3ECA3C7CF87E1B5
:103B80000E94E00F8F929F92AF92BF92EF92FF92AE
:103B90000F931F93CF93DF938C0167E776E1FC01CE
:103BA00080810E949B12EC010E94941A8F8D98A133
:103BB000892B09F057C0F801E4801BA101E0EE2039
:103BC00049F16C897D898E89402F0E94B24AF12F7C
:103BD000F071FF2E81E0E1101BC01295117091E091
:103BE0001927811741F08F89988DA98DBA8D892B5E
:103BF0008A2B8B2B89F40F290BA3DF91CF911F9177
:103C00000F91FF90EF90BF90AF909F908F9008958D
:103C100080E0E3CF00E0D5CF0E94394C8F88988CAC
:103C2000A98CBA8C860E971EA81EB91E888A998AFE
:103C3000AA8ABB8A8C829D82AE82BF8284E791E190
:103C40009B838A830460F02AFBA2CE01DF91CF918F
:103C50001F910F91FF90EF90BF90AF909F908F902A
:103C60000C94AC1B82E10E94E00FCF92DF92EF92A6
:103C7000FF920F931F93CF93DF938C0167E776E159
:103C8000DC018C910E949B12EC010E942614FC0125
:103C9000D8011496CD90DD90ED90FC901797C282DC
:103CA000D382E482F58218964D915D916D917C915D
:103CB0001B974683578360877187F894118210821F
:103CC0008F8D98A1892B81F0A9A1BAA1ED93FC93C6
:103CD000FAA3E9A37894DF91CF911F910F91FF9000
:103CE000EF90DF90CF900895FAA3E9A3F8A3EF8FA8
:103CF0008BA182FD25C0C88AD98AEA8AFB8A982FBF
:103D000094609BA381FD10C0CE010E94941ACC82C6
:103D1000DD82EE82FF8284E791E19B838A83CE017C
:103D20000E94AC1B7894D7CF4C815D816E817F81DE
:103D3000872F4C155D056E058F0987FDF3CFE4CF06
:103D4000488959896A897B89972F4C155D056E05CD
:103D50009F0997FFD0CF83E10E94E00FCF93DF93BD
:103D6000CDB7DEB7C754D1090FB6F894DEBF0FBE8A
:103D7000CDBF0E94394C24966CAF7DAF8EAF9FAF04
:103D80002497809126028111DAC481E08093260273
:103D900080916C02882309F443C010926C028FEF6B
:103DA00089838E010F5F1F4F30E6E32E36E1F32E3D
:103DB0006AE975E1C8010E94600C6C01892B81F1F0
:103DC000D60156968C9182FFF3CF0E94394CF8941D
:103DD000F60137892689422F4B7F468B78949F9333
:103DE0008F937F936F931F923F9321701F922F9316
:103DF00089811F928F93FF92EF920E94BE162DB77A
:103E00003EB7245F3F4F0FB6F8943EBF0FBE2DBFA5
:103E10006AE975E1C8010E94600C6C01892B81F68A
:103E200080916D02882361F110926D028FEF89837A
:103E30008E010F5F1F4F29E5A22E26E1B22E63E50A
:103E400075E1C8010E94600C7C01892BC9F0D70183
:103E50005D969C915D975E968C915E979813EFCFDF
:103E6000F894F701858D968D891709F4D4C4789458
:103E700063E575E1C8010E94600C7C01892B39F76C
:103E800080917002882329F1109270028FEF89834C
:103E90008E010F5F1F4F94E4E92E96E1F92E6AEC34
:103EA00079E3C8010E94600C009799F0DC015896F4
:103EB0002C9158972F3F99F7F894FC0126852111F2
:103EC0005FC478946AEC79E3C8010E94600C0097A3
:103ED00069F780917102882309F43DC01092710244
:103EE0008FEF89838E010F5F1F4F8DE3E82E86E1F0
:103EF000F82E6AEF77E3C8010E94600CFC01892B61
:103F000051F1868583FFF5CFF8948685877F868774
:103F10007894CF014A969F938F9380898695869552
:103F200086951F928F9389811F928F93FF92EF92B4
:103F30000E94BE164DB75EB7485F5F4F0FB6F8944C
:103F40005EBF0FBE4DBF6AEF77E3C8010E94600CF1
:103F5000FC01892BB1F680917202882309F44BC0D1
:103F6000109272028FEF89838E010F5F1F4FBFE2A5
:103F7000EB2EB6E1FB2E66EC75E3C8010E94600CE7
:103F8000FC01892BC1F1848D80FFF5CFF8949481D9
:103F9000258136814781548965897689A789B08DC5
:103FA000D18CC28CB38C848D8E7F848F7894BF9299
:103FB000CF92DF92BF93AF937F936F935F934F93B3
:103FC0003F932F939F9389811F928F93FF92EF923C
:103FD0000E94BE166DB77EB7605F7F4F0FB6F89434
:103FE0007EBF0FBE6DBF66EC75E3C8010E94600C1A
:103FF000FC01892B41F680917302882309F453C098
:10400000109273028FEF8AABCE01C2961C01AFE013
:104010008A2E62E079E3C1010E94600C5C01892B69
:1040200009F441C0D50159968C91599780FFF1CF81
:10403000F894F5014480558066807780818D8E7F6D
:10404000818F789458968C915897813009F438C7AD
:1040500008F417C7823009F462C78330D1F6CAA8C2
:1040600019821A829E012F5F3F4F42E061E08489EE
:1040700095890E948A0D09811A811027012710272E
:10408000F02FF670EF2E30E020E0B301A201C50161
:104090000E94923F62E079E3C1010E94600C5C01E2
:1040A000892B09F0BFCF809174028823F9F0109218
:1040B00074028FEF8AAB8E010E5C1F4F180179E0FE
:1040C000A72E01531109E2EFBE2EDD24DA9406C0BB
:1040D000D7011E968C911E9780FD27C469EA75E36F
:1040E000C1010E94600C7C01892B91F780917502BF
:1040F000882341F1109275028FEF8DABFE01F5968A
:104100007F01B0E37B2E8824839418E2512E8E0128
:104110000F5F1F4F580108EA902E81E3482E98EE5A
:10412000392E2FE2222E06C0D6011F968C911F97A2
:1041300080FD3BC46CEB78E3C7010E94600C6C010E
:10414000892B91F780917602882341F110927602B3
:104150008FEF8DABFE01F5967F0150E3752E88241D
:10416000839464E2962E8E010F5F1F4F580171E316
:10417000572EE4EA4E2EF2E23F2EA2EA2A2E06C085
:10418000D6011F968C911F9780FD34C561E878E3B6
:10419000C7010E94600C6C01892B91F78091770216
:1041A0008823D1F0109277028FEF8DABFE01F59648
:1041B0007F0134E7A32E42E7B42E06C0D601529603
:1041C0008C91529780FD3EC56AE875E3C7010E9455
:1041D000600C6C01892B91F7809178028823D9F0CB
:1041E000109278028FEF8DAB8E010B5C1F4F780120
:1041F00012E7A12E00E7B02E06C0D60152968C9190
:10420000529780FD52C563E675E3C7010E94600CBA
:104210006C01892B91F7809179028823C9F0109263
:1042200079028FEF89838E010F5F1F4F2224239421
:10423000312C06C0D70119968C911997811168C548
:104240006FE478E3C8010E94600C7C01892B91F730
:1042500080917A028823B9F010927A028FEF8AABAC
:104260008E010E5C1F4F180106C0D80151968C912B
:1042700051978111D7C36DE375E3C1010E94600CB2
:104280008C01892B91F780917B02882309F1109290
:104290007B028FEF8AAB8E010E5C1F4F180152E13B
:1042A000C52E9E012F5F3F4F790139013FEF631A01
:1042B000730A06C0D80151968C9151978111F1C3B0
:1042C0006FE77AE4C1010E94600C8C01892B91F7A1
:1042D00080917C02882309F498C010927C028FEFB1
:1042E0008AABFE01F2961F0177247A9463ED77E49E
:1042F000C1010E94600C7C01892B09F486C0D701A2
:104300001E968C9180FFF2CF6AA8BE016F5F7F4F2F
:10431000C7010E9426539C01F894F70196859E7F61
:1043200096877894232B09F064C3898183FFDECFBD
:10433000A388B12C6501F4E1CF0ED11CCE0CDF1C9B
:10434000D7011C968D919C911BAA860122E0AE019B
:104350004D5C5F4F61E00E94EC404C01F7018485A9
:10436000958521E02CAB0E5F1F4F22E0AE014C5C27
:104370005F4F61E00E94EC4088299929892B11F058
:104380000C94CE2AF701EA0DFB1D4489F601118138
:10439000F701E65BFF4F808191814F3F11F40C9450
:1043A000E92A50E070E060E0742F66275527442723
:1043B000F6012381422B612B2281522B8A019B0122
:1043C000002711272227307E012B022B032B11F40B
:1043D0000C94C92A60E00E940D52D70153968C912B
:1043E00053978C5F53968C93803308F47FCF662D60
:1043F000C7010F960E949E5263ED77E4C1010E94AF
:10440000600C7C01892B09F07ACF80917D02882392
:1044100009F47DC010927D028FEF8AABFE01F29607
:104420001F018E010A5F1F4F1FAB0EAB9E012D5F58
:104430003F4F39AF28AFAE01475F5F4F5BAF4AAF29
:1044400062EB78E4C1010E94600C2C01892B09F415
:104450005EC0D2011E968C9182FFF2CFF894F201D9
:1044600084809580A680B780F1881686118A78941A
:1044700080859185A285B385881A990AAA0ABB0A04
:1044800082010E5E1F4F68011F2D1150A8F0D2014E
:1044900056968C91F201E80FF11DBFEFB78B108E8D
:1044A000118E8D5FF201868B813378F36AA9C60184
:1044B0000E949E52115058F7F12ED2011F96DC90A7
:1044C000DD2009F4FEC1B1E0DB1609F4A3C4F2E07B
:1044D000DF1609F408C7F3E0DF1609F4BDC7B4E03E
:1044E000DB1611F40C94742AF2017689713308F406
:1044F000A7CF6AA9C20142960E949E5262EB78E45D
:10450000C1010E94600C2C01892B09F0A2CFA89553
:1045100080918002882329F080E4809360001092CB
:104520008002F0904103FF2009F474C080913002B2
:10453000182F80FD16C034E03F1508F06BC0309096
:1045400081029BEF930D9C3308F0AAC6E090820293
:104550009E2D907F903109F47FC6182F1160109323
:1045600030024F2D50E06EE770E081E892E00E944B
:10457000FE54009741F01E7F109330028158924004
:10458000FF24F394F80E11FD9CC6126010933002C4
:1045900083EB97E09F938F930E94BE160F900F902E
:1045A0003F2C1FEF80E0C32CD12C00914103F02E53
:1045B000F31861F42FB7F894909141030917E9F0CB
:1045C0002FBF00914103F02EF318A1F390E04F2D7F
:1045D00050E0481B590BB601680F791F6F577D4F8C
:1045E0008F579D4F0E941455109226028F2D2FB782
:1045F000F894909141030913E3CFF09241032FBF48
:10460000113041F483EB97E09F938F930E94BE1685
:104610000F900F900E94394C4B015C0124960CAD19
:104620001DAD2EAD3FAD2497601B710B820B930B1C
:10463000C0903902D0903A02E0903B02F0903C02E8
:104640001FEFC11AD10AE10AF10AC0923902D092D1
:104650003A02E0923B02F0923C02409035025090C8
:1046600036026090370270903802460E571E681E60
:10467000791E409235025092360260923702709253
:1046800038026115710521E08207910508F099C093
:1046900000913102109132022091330230913402A4
:1046A0000CAF1DAF2EAF3FAF9B01AC010E94FB537F
:1046B000DC01CB0181509F4FAF4FBF4F892F9A2F05
:1046C000AB2FBB270CAD1DAD2EAD3FAD800F911FA5
:1046D000A21FB31F0CAD1DAD2EAD3FAD80179107CE
:1046E000A207B30718F48FEF9FEFDC01809331022C
:1046F00090933202A0933302B09334024091680247
:104700005091690260916A0270916B029501840177
:10471000041B150B260B370BB901A8014115544B8F
:10472000644C744008F03BC424968CAE9DAEAEAE93
:10473000BFAE249780912602882309F426CB0E94DD
:10474000394C2496CCACDDACEEACFFAC2497C61A49
:10475000D70AE80AF90AF8948091260281116FC6F7
:1047600078940E94394C36014701660E771E881EE8
:10477000991E24966CAE7DAE8EAE9FAE249705CB6F
:1047800059963C91599758963C937894AC01415F67
:104790005F4F5F934F931F922F9387891F928F9341
:1047A00089811F928F93FF92EF920E94BE162DB7C0
:1047B0003EB7265F3F4F0FB6F8943EBF0FBE2DBFEA
:1047C0006ECB6115710510E18107910508F08BCF63
:1047D0000091310210913202209133023091340263
:1047E0000CAF1DAF2EAF3FAF9B01AC0121503F4F2F
:1047F0004F4F5F4F232F342F452F55270E94FB53D8
:104800000CAD1DAD2EAD3FAD060F171F281F391F74
:10481000D901C8015FCF5496CD90DC905597509642
:104820009C90509751968C90519752967C905297AD
:1048300053966C9053978F5F5D968C937894A601F6
:1048400070E060E0EF5AFF4F808191810E94C34D7C
:10485000D7019096EC919097EE0DFF2DF11DC1A21E
:10486000D2A290968C9190978E5F90968C93909711
:10487000282F30E02F5F3F4F5F969C9192171306D1
:1048800011F00CF0DCCA97012F5D3F4F3F932F933F
:104890001F928F936F927F928F929F9289811F9226
:1048A0008F93BF92AF920E94BE16F70110A22DB750
:1048B0003EB7245F3F4F0FB6F8943EBF0FBE2DBFEB
:1048C000BECA82E389831A820E94394C6CAF7DAFE5
:1048D0008EAF9FAF9E012F5F3F4F42E061E0F2013C
:1048E000848595850E948A0D0E94394C0CAD1DADC2
:1048F0002EAD3FAD601B710B820B930B6132734089
:104900008105910508F0B4C2298127FF80C5D20135
:1049100056967C91F201E70FF11DF78A83E0808FB4
:10492000118E7D5FF201768BE1CDCAA8F8016A2C69
:1049300011926A94E9F7B982980149E061E01C9606
:104940008D919C910E948A0DD70153968C9190E095
:10495000FC017496EE0DFF1D4B81242F207F09F47E
:104960007AC3203F09F477C3D482D382D282D18222
:104970008E0D9F1DFC01D48AD70153968C915397BD
:104980008B5F53968C938F3228F06C2DC7010F9656
:104990000E949E52D7011E968C911E978E7F1E9666
:1049A0008C93C7010E94463F99CB6DA81E968C91AF
:1049B0001E9751969C915197903308F4D0C3882349
:1049C00009F449C6813009F44EC7D60156967C9247
:1049D000662DC60142960E949E52F601818980533F
:1049E000818B803308F4D2C3109226028092750224
:1049F000A1CB61E0E65BFF4F808191810E940D5267
:104A0000D70153968C9190E0FC017496EE0DFF1D3A
:104A10008E0D9F1DDC0154967C927182128281E082
:104A20008383DBCCBAA819821A821B829E012F5F76
:104A30003F4F43E061E01F968D919C910E948A0D4B
:104A4000F801118A8981CA80D12CF12CE12CFE2C2D
:104A5000ED2CDC2CCC24E82A8B81C82AE7FE02C08E
:104A6000FF24FA94B701A601F801E55BFF4F8081AE
:104A700091810E94C34DD80157968C91F801E80F9F
:104A8000F11DC08ED18EE28EF38E8C5FF801878B84
:104A9000803308F4F0CB6B2DC80143960E949E52E0
:104AA000EACBDAA855966C915597B62EBB0CB60E8C
:104AB000F7018C2C11928A94E9F746E04B0D97018F
:104AC00061E01F968D919C910E948A0DD8015196AC
:104AD0001C92A3E0AB0D62E06B0D8FEF9FEFAA235A
:104AE00021F1F701660D772D711D8FEF9FEF219159
:104AF0002927322F32953F702327422F50E0382F3D
:104B0000CA01982F88279295907F28273927CA01B4
:104B1000880F991F82959295907F9827807F98277C
:104B2000822793276E177F0711F72A2F30E0F701AE
:104B3000E20FF31F4081E2E0F0E0EC0FFD1F2E0FCB
:104B40003F1FD9012C91342F8217930709F046C4D7
:104B5000898182FDACC3D80153968C918111AAC37F
:104B6000F80184898F5F982F990F890F90E0F701E2
:104B7000E80FF91F8080912CB12CA12C54019924AD
:104B80008824E3E0F0E0EC0FFD1FE80FF91F20811F
:104B9000822A22E030E02C0F3D1F820F931FDC01A0
:104BA0008C91982AA7FE02C0BB24BA94B501A40137
:104BB000F801E25BFF4F808191810E94C34DF801B3
:104BC000828DE80FF11D838E948EA58E8B2CBB24D5
:104BD00087FCB0949B2CAB2C868E8C5FD8015A96A8
:104BE0008C93803308F46CCB6D2DC80146960E94DF
:104BF0009E5266CB6DA81E969C911E9750962D9145
:104C00003C9151972033310508F4EFC3992309F4FF
:104C100040C5913009F4C1C5D60156967C92662DE7
:104C2000C60142960E949E52F60180899189C097E2
:104C3000918B808BC09708F4E6C410922602809274
:104C40007602A4CA9DA81C968D919C911D975096A2
:104C50002D913C912033310508F4A4C2A98286012C
:104C6000085E1F4F20E3AE014F5F5F4F61E00E947F
:104C7000EC400E94FE4280E3F601878B8089918997
:104C8000C097918B808B692DC60143960E949E52DE
:104C9000D60150968D919C91C09708F4A8C21092AD
:104CA000260281E0809377028FCA9DA81C968D9181
:104CB0009C911D9750962D913C912033310508F41D
:104CC00021C2A9828601085E1F4F20E3AE014F5F1B
:104CD0005F4F61E00E94EC400E94FE4280E3F601DB
:104CE000878B80899189C097918B808B692DC601B4
:104CF00043960E949E52D60150968D919C91C097EA
:104D000008F425C21092260281E0809378027BCAC3
:104D100079801896CC9018972C2D30E052964D91B2
:104D20005C9153975496DC9054975596ED91FC9175
:104D3000569757967C91295E3F4F80E090E0DC01CA
:104D40002F01F894F2017083000000007083FA01D3
:104D500060817894880F991FAA1FBB1F6D21812C39
:104D6000912C54018394611103C0812C912C540126
:104D700088299929AA29BB292150310910F7F894CB
:104D8000F7012185118678944C015D010C2C04C03B
:104D9000B694A794979487940A94D2F7A7FE02C07A
:104DA000BB24BA94A10101C0440FCA94EAF7415050
:104DB00050E070E060E084239523A623B7234817D2
:104DC00059076A077B0709F47FC220E030E040E022
:104DD00050E8D7011E962D933D934D935C935197C8
:104DE00090E840E030E020E0D7015C968C91F7013C
:104DF000E80FF11D258F368F478F90A38C5FF70149
:104E0000848F803308F41CCA672DC70148960E941E
:104E10009E5216CA8FE789838EEF8A830E94394C8F
:104E200028966CAF7DAF8EAF9FAF28979E012F5F06
:104E30003F4F42E060E0F201848595850E948A0D33
:104E40000E94394C6CAF7DAF8EAF9FAFDC01CB01C0
:104E500028960CAD1DAD2EAD3FAD2897801B910B54
:104E6000A20BB30B81329340A105B10508F4C8C170
:104E7000D20156967C91F201E70FF11DF78A82E08C
:104E80004ECDCAA819821A821B821C829E012F5FF6
:104E90003F4F44E061E0848995890E948A0D6981D1
:104EA0007A818B819C810E940B54F62FF770EF2E34
:104EB0008B019C01B301A201C5010E94923FA9C8C8
:104EC0009AA80CE009831A821B821C829E012F5F24
:104ED0003F4F44E061E054968D919C910E948A0D71
:104EE00069817A818B819C810E940B546B017C01CA
:104EF00089821A829E012F5F3F4F42E061E0F501F7
:104F0000848995890E948A0D970186013327C92CCF
:104F1000EA80B301A201C5010E94923F7AC8CAA8E3
:104F200081E089831A821B821C829E012F5F3F4F82
:104F300043E061E054968D919C910E948A0D6981B5
:104F40007A818B819C810E940B54672F782F892F47
:104F500099278B019C01222733270CAF1DAF2EAF61
:104F60003FAF17E019831A829E012F5F3F4F42E047
:104F700061E0D50154968D919C910E948A0D8A81A1
:104F80008C7F9CAD9170E82EE92A0CAD1DAD2EAD45
:104F90003FADB301A201C5010E94923F3AC8BF9341
:104FA000AF939F938F937F926F925F924F92FF92F6
:104FB000EF92DF92CF9288E996E19F938F930E94C0
:104FC000BE162DB73EB7225F3F4F0FB6F8943EBFD7
:104FD0000FBE2DBF8091680290916902A0916A0274
:104FE000B0916B0288169906AA06BB0698F48091C8
:104FF000640290916502A0916602B09167020196E9
:10500000A11DB11D8093640290936502A093660276
:10501000B09367028092680290926902A0926A023D
:10502000B0926B021092310210923202109233024F
:10503000109234021092350210923602109237020A
:10504000109238021092390210923A0210923B02EA
:1050500010923C0269CB5D81252F207F19F0203F03
:1050600009F082CC2F81322F307F19F0303F09F0C8
:105070007BCC3885303909F077CC3985932EE8948C
:1050800097F8B0E2B91508F46FCC30E08E0D9F1D93
:105090006A81DC0154966C938C8181838E8182833A
:1050A000842F8F71B901660F771F62957295707F9B
:1050B0007627607F7627862B8383220F331F220F6C
:1050C000331F2076852F8F71822B8483F70183898C
:1050D0008B5F838B8F3208F0F1C3FEE1F91508F086
:1050E00093C5D70151968D919C91529701965296F6
:1050F0009C938E9351971092260281E080937402C4
:105100000C946E20BAAA8E010F5F1F4F22E0AE01F1
:105110004E5C5F4F61E00E94EC400E94FE4289813C
:1051200090E0982F882788279F712A81822BF6018B
:10513000268537852817390710F497878687D60183
:1051400051969C938E935097C0970CF054C5F601DE
:1051500082898E7F828BC6010E942A3E54C81AAA79
:10516000882309F4D1C2813009F454C3F60180893F
:10517000813009F436C380E08F73982F990F890F1F
:10518000880FF601818B803308F036C3D6011F9655
:105190008C911F978E7F1F968C93C6010E94F93EBB
:1051A0000C949A20BAAA8E010F5F1F4F22E0AE0125
:1051B0004E5C5F4F61E00E94EC400E94FE4289819C
:1051C00090E0982F882788279F712A81822BF601EB
:1051D000268537852817390710F497878687D601E3
:1051E00051969C938E935097C0970CF000C5F60192
:1051F00082898E7F828BC6010E942A3E0C94E42015
:1052000080EC89831A829E012F5F3F4F42E061E06C
:10521000D2011C968D919C910E948A0D99812A81C0
:10522000892F8227382F32953F708327382F369564
:1052300036958327382F3695832780FF54C2F20195
:105240007689E70FF11DF78A83E0808F118E7D5FED
:10525000D20156967C934AC9F31408F4DBC9232D76
:1052600030E0F901E058FD4F90819E3709F075C993
:10527000890102581D4F580121583D4FD9018C9189
:10528000F8010081102F082F6DEF630D81E892E087
:105290000E949E4D0817190709F455C330908102EA
:1052A0004EE7341609F4ABC48091300256C981E050
:1052B000F801838B42E06D2DC8010E94D2530C94FB
:1052C00060213F2C1FEF6EC921FF9FC120E030E01D
:1052D00040E050E4D7011E962D933D934D935C938F
:1052E000519790E47ECDD2011C96ED91FC91048102
:1052F0006280738040E0B301802F0E94B24A0E9416
:10530000394C6B017C01B0E1CB0ED11CE11CF11CCE
:105310001F2D0E94394C212FC616D706E806290BEF
:1053200027FFF7CFF89441E0B301802F0E94B24AE3
:105330000E94394C6B017C01789488E0E8ADF9ADAE
:1053400011928A95E9F784E8898383E28A839E0132
:105350002F5F3F4F4AE061E0D2011C968D919C91F6
:105360000E948A0DFE01339665E08191682788E0EE
:1053700090E003C0660F019739F067FFFBCF660F1F
:10538000BDE16B270197C9F76AAC7BACE615F70561
:1053900061F7D20156967C91872F90E0AC014F5F68
:1053A0005F4F9C012E5F3F4F7D5F6095EA856E17D2
:1053B00009F441C1840D951D66246A94FC01678A35
:1053C000440D551D83E0DA0157968C93240D351D4D
:1053D000F901178AD20156967C9388C841E06D2D59
:1053E000C8010E94D2530C946021992309F4AEC1E4
:1053F000913009F44CC2F601118A108A8E7FD601D1
:105400001F968C93C6010E94AB3E0C94C6208A81E5
:1054100090E0880F991F30E0322F2227330F7C0154
:10542000E22AF32A0CAD1DAD2EAD3FADB501A401AE
:10543000C2010E94C452D20156967C9157C88FEF88
:10544000809327028093260278940000F89480913C
:1054500026028111F9CF84C983E889831A821B82CD
:105460000E94394C6CAF7DAF8EAF9FAF9E012F5F16
:105470003F4F43E061E0D2011C968D919C910E94C8
:105480008A0D0E94394CAB01BC01DC01CA010CAD94
:105490001DAD2EAD3FAD801B910BA20BB30B813226
:1054A0009340A105B10508F0E3CCEA809B818E2DE5
:1054B0008927282F22952F708227282F2695269519
:1054C0008227282F2695822780FFFCC0D20156967E
:1054D0007C91F201E70FF11DF78AD08E118E7D5F6E
:1054E000F201768B0C94762286E0EAE2F2E0DE01AD
:1054F000119601900D928A95E1F70E94394C6CAF9C
:105500007DAF8EAF9FAF9E012F5F3F4F46E061E0C2
:10551000D2011C968D919C910E948A0D0E94394C5B
:10552000AB01BC01DC01CA010CAD1DAD2EAD3FAD20
:10553000801B910BA20BB30B81329340A105B105E7
:1055400008F096CCFE01339680E09191892728E0FF
:1055500030E004C0880F2150310949F087FFFACFAD
:10556000880F07E0602E862521503109B9F76EA813
:105570007FA86E167F0649F79E81981709F43EC1F1
:10558000D20156967C91F201E70FF11DBFEFB78B68
:10559000C5C97F700E94C34D0C94ED2162E0F701F4
:1055A000E65BFF4F808191810E940D52D701539697
:1055B0008C9190E0FC017496EE0DFF1D8E0D9F1DE9
:1055C000DC0154967C927182128282E083830C9477
:1055D000ED211F3F11F00C94D12163E00E940D5288
:1055E000D70153968C9190E0FC017496EE0DFF1D4F
:1055F0008E0D9F1DDC0154961C931183128283E053
:1056000083830C94ED218785F9CEF70186859785F4
:10561000A089B1890097A105B10509F0E4C2B501DF
:10562000A401E05BFF4F808191810E94C34D9401F2
:105630004A2D9B2DD9CB698564FFBEC0EB81E7FD68
:105640004DC1840D951DEFEFDC015796EC93440D91
:10565000551D84E0B8CED501E42D1D92EA95E9F7F9
:105660009982D60150968C91813009F43982950146
:1056700041E361E0F601848595850E948A0D80E30F
:10568000FE013296D601579601900D928A95E1F768
:105690009CC9D501E52D1D92EA95E9F7498295014E
:1056A00041E361E0D6011C968D919C910E948A0D88
:1056B00080E3FE013296D601579601900D928A95AD
:1056C000E1F7AACA91FFF4C0D20156967C91F2018B
:1056D000E70FF11DF78AB5E0B08F118E7D5FF20103
:1056E000768B0C94762296FFA5C0F2017689E70F9F
:1056F000F11DF78A15E0612E608E118E7D5FD2015B
:1057000056967C930C947622BFEAB9831A8295014F
:1057100042E061E0F601848595850E948A0D8A81C8
:105720008AAB86FF07C0F601248935892F5F3F4F7A
:10573000358B248BD60150969C915097913009F06F
:105740001BCD85FF4FC051961C9220CD29821A8215
:105750001B82950143E061E01C968D919C910E9413
:105760008A0D8A819B818130B4E09B0760F0F6014D
:10577000248935892F5F3F4F358B248B918B808B0C
:10578000F601968543CAD60151969C938E93509705
:10579000C097B0F71F968C9131CE99828601095E31
:1057A0001F4F20E3A50161E0F601848595850E94E5
:1057B000EC400E94FE4230CA840D951D66246A9416
:1057C000FC01678A440D551DE5E0DA015796EC931C
:1057D000240D351DD90157961C92F201768B0C943D
:1057E000762280E08F71982F990F890F880FF6012C
:1057F000818B803308F4CACC8685E1C88D8181FF16
:1058000065C0D20156967C91F201E70FF11DBFEF02
:10581000B78B70CF29828E010E5C1F4F21E0A5014E
:1058200061E01C968D919C910E94EC400E94FE428A
:105830008AA977CF892F90E0982F8827990F990F01
:1058400030E0220F331F220F331F7C01E22AF32A9C
:105850000CAD1DAD2EAD3FADB501A401C2010E943E
:10586000C4520C9474225982D60150968C91813086
:1058700059F18601095E1F4F20E3A50161E0F601A1
:10588000848595850E94EC400E94FE429EC83AAAFB
:10589000850122E0AE014E5C5F4F61E01C968D9168
:1058A0009C910E94EC400E94FE4289819A815BCFCC
:1058B0009C7FFE2CE92E8A019B01B8CD6C2DC7017F
:1058C0000F960E949E5209CC9982D3CFEB80FC8028
:1058D000FE24EF24FE248A019B01BECFC818D908FC
:1058E000EA08FB08B1E5CB16B5E5DB06E104F104F7
:1058F00000F5AC81B0E0AA0FBB1FF0E0FE2FEE2751
:10590000FF0FEA2BFB2B840D951D6F8166956F733E
:10591000DC0157966C93440D551DDA015796EC93B4
:10592000240D351DD9015796FC93F201768B0C940A
:105930007622840D951D66246A94FC01678A440DC5
:10594000551D81E040CD809130028D7F80933002E3
:1059500080910802E81244C181E08E0D8F70806151
:105960008093080203E812E0F3E8AF16F2E0BF0606
:1059700009F008F495C06DB67EB67DAE6CAED80168
:105980002C91822F90E027FDFBC00F5F1F4F0097E7
:1059900009F405C1E1EBF7E02591349182179307F3
:1059A00008F0FDC0FC01EE0FFF1FEE0FFF1FEE0F12
:1059B000FF1F3F01680E791E79AE68AEF301E65411
:1059C000FC4FE4918DB69EB624E0E29F80189108CA
:1059D00011240FB6F8949EBE0FBE8DBE4DB75EB7B4
:1059E0004F5F5F4F2A01F301E454FC4F4491F301F0
:1059F000E354FC4F25913491F901420F532F511D6F
:105A00009201BF014617570779F1A016B10608F4B5
:105A1000E4C0FB0184916F5F7F4F853008F443C081
:105A2000873009F0DAC0C8010196F801C0808C0106
:105A30000C0D111DA016B10608F4CFC0D12CF12C0D
:105A4000E12CD901CD92DD92ED92FC9213976C017D
:105A5000F12CE12CF901C482D582E682F782285F1D
:105A60003F4F4617570789F6A016B10608F4B5C090
:105A700020912802211196C0E8ADF9ADE154FC4F08
:105A800025913491C201F90119956CAC7DAC0FB62A
:105A9000F8947EBE0FBE6DBE0A151B0508F46BCFD1
:105AA00011E00C94D2226901F4E0CF0ED11C7801F0
:105AB0008FEFE81AF80AD8011C91812F8F77682E92
:105AC000712C912C812C28966CAE7DAE8EAE9FAE43
:105AD0002897012F0076003661F4D401C301806E4F
