:100000000C94C9080C94F6080C94F6080C94F608A5
:100010000C94F6080C94F6080C94F6080C94F60868
:100020000C94F6080C94F6080C94F6080C94F60858
:100030000C94D23B0C94F6080C94F6080C94F60839
:100040000C94F6080C94761E0C94F6080C94F608A2
:100050000C94F6080C94F6080C94F6080C94F60828
:100060000C94F6080C94A93B0C947F3B0C94F60876
:100070000C94F6080C94F6080C94F6080C94F60808
:100080000C94F6080C94F6080C94F6080C94F608F8
:100090000C94F6080C94F6080C94F6080C94F608E8
:1000A0000C94F6080C94F6080C94F6080C94F608D8
:1000B0000C94F6080C94F6080C94F6080C94F608C8
:1000C0000C94F6080C94F6080C94F6080C94F608B8
:1000D0000C94F6080C94F6080C94F6080C94F608A8
:1000E0000C94F6080C946E2A0C9473170C94C82088
:1000F0000C9497370C9479300C94C72D0C941E37C0
:100100000C94B7350C94F4200C94721B0C941D2B9A
:100110000C94733B0C948A350C94C62A0C94E21C04
:100120000C9408310C945C300C94D7350C944E260A
:100130000C941D140C942D190C9494290C94ED130B
:100140000C945B300C94E1170C94B7210C94F223BF
:100150000C94B9350C9408160C948E300C94CE3453
:100160000C9415300C94AD120C94DA1B0C94871976
:100170000C9412120C94A52C0C94E41D0C94922453
:100180000C943D370C940A350C945E230C946C2D22
:100190000C941B380C941D2E0C94F62F0C940839DB
:1001A0000C94C3130C946C200C9410200C94BB2B57
:1001B0000C94D4270C94182F0C94D9340C94AC2A9A
:1001C0000C9418160C947B310C94B42D0C942F12B3
:1001D0000C94AD2C0C9470140C94D62B0C94FD2024
:1001E0000C9457170C9494260C943B170C944122B2
:1001F0000C94092A0C94A9200C94AF290C94B536C0
:100200000C94AD340C943C260C9485120C946D2EF9
:100210000C9472270C946F2D0C941A1E0C94C036FB
:100220000C94AE230C94842F0C941C270C94A319CB
:100230000C947A210C94A9220C9435240C940A2D48
:100240000C944F2E0C945C370C9429350C94BC1BE9
:100250000C94E2220C9454390C94652F0C94AA3619
:100260000C9439130C946A1D0C94F4160C94BE294A
:100270000C94BA300C94BB130C9403310C94E51C11
:100280000C9450240C94602D0C948C2B0C943A2AD2
:10029000040000000004040000000004000000004E
:1002A0000000000400000000000400020000040040
:1002B0000400000407040400000404040000020217
:1002C0000000000204070004070704000404000003
:1002D00004000202040404040400000400040404F2
:1002E00004040404000400020304000404000400E5
:1002F00004000004000400000000000000000102EF
:100300000102F402BA30020001000000602D030077
:10031000010000006C2D0400010000006F2D05009D
:1003200001000000B42D06010001B1052D190700E0
:1003300001000000A31908010001F3028719090058
:10034000010000005B300A020101AC0579300B03AB
:100350000103F0025C300C020102EE028E300D024D
:100360000002F40203310E020002980508310F0367
:100370000003F0027B3110020002EE02BC1B1105EB
:100380000005E902721B1202000298058C2B130172
:100390000001F3026E2A14020002EE028512150219
:1003A00000029805121216040004E502AD121705AA
:1003B0000005E0022F1218010001F3023A2A190881
:1003C0000008D802C62A1A030003D502AC2A1B0271
:1003D0000002980572271C020002EE021C271D0471
:1003E00000049005D4271E010001F3023C261F08DB
:1003F0000008CD021D1420020002EE024E26210448
:1004000000039A05C313220300029D050816230367
:1004100000029D051816240400049405701425019B
:100420000001F302BB1326030003CA02ED132705E4
:100430000003C702D62B28040003C402AD2C2903F5
:1004400000029D05BB2B2A04000494050A2D2B01F4
:100450000001F302A52C2C030003C102F4202D039C
:1004600000039F056A1D2E060006BB02E41D2F0235
:1004700000029805A92230050005B6026C2031045F
:100480000004A605C820320200029805A920330402
:100490000003B302412234050005AE02E222350119
:1004A0000001F3026D2E360400038405182F370572
:1004B0000005A9027A213804000494051D2E390391
:1004C0000003CA024F2E3A0300029D05652F3B032D
:1004D00000029D05F62F3C060006A302842F3D0373
:1004E00000029D053B173E0300029D0557173F087C
:1004F00000089B02731740060006A302E11741059E
:1005000000059602F41642060006900250244303AA
:100510000003D502922444010001F302293545026B
:100520000002EE028A354602000298050A354703AA
:1005300000029D051B384804000490055C37490300
:100540000003D502D9344A010001F30297374B0268
:100550000002EE0254394C02000298053D374D016D
:100560000001F302C0364E020002EE0208394F02CB
:10057000000298051E37500001000000733B510037
:100580000500000004020704000002000204000746
:100590000400000404000000040404040704070429
:1005A000000204040400040400040401070400041D
:1005B0000200000000000000060002026740038401
:1005C00005661D0687056540038D056414049005C6
:1005D0006317049405620A0298056140029D056054
:1005E00040039A055F40029D055E40029D055D1037
:1005F000039F055C1104A2055B1104A6055A0D02B8
:10060000AA05590B01B105584001AC05571204ADBC
:1006100005560B01B105551002B205541503B4057A
:10062000004002B705530E02B905520901BB05513E
:100630000600000028292A2B2C2D2E2F5051525312
:100640005455565720002300260029002C002F0067
:100650003200000100000301060109010F470044B8
:1006600000450080013548004400450020010D8808
:10067000008000810080000E8A0080008100200040
:100680000F8C008000810008000CB300B000B100A6
:1006900080033EB400B000B1002003239800900016
:1006A00091008000249A00900091002000259C0079
:1006B0009000910008003BA800A000A10080003C31
:1006C000AA00A000A10020003DAC00A000A10008ED
:1006D000005B28012001210180005C2A012001210A
:1006E0000120005D2C0120012101080078DA9D190C
:1006F0006B6FDBC8F1AFEC0908DA2BE480A4443D52
:100700005CE4835FB9BA89135F1437058A82A0C994
:1007100095B4305FC725FDB883FF7B6776F6454A01
:10072000C9010D1088BB3B333B3BEF19FF31B9EFDB
:100730004591278FBC95A2AEE4E474B2CBB253F6D8
:10074000D75F2E2E7E66F1DBF9DB80DD8BAAEF44CE
:100750002171F7D31D3BD7CB9F59F4365ABC8D82FC
:10076000701184513C994EB2BA2CD32A07227F4C87
:10077000D2A2A8B3B4E3492D72C9B2BAAFBA776FA7
:10078000B2C9E96A0A37761D5C95A4D9038353D8A8
:10079000F6CEE74B0F20CF0D40534BF523AA776FD2
:1007A0007AD6F44591F40D21AC1DC26F3D6F5F2CDC
:1007B0004D60E001A15B2EBBA413D983A455D7A63D
:1007C000952C4597985B99A8E0FDFA7E60302B78D0
:1007D000DA2672DF7779FD544D4E237C5AB5153BEE
:1007E000E0E8B998CD6373856C44429F93D365E08C
:1007F000A0AAB4A87789A82CF78AEDC9E9CC51D270
:100800002C1B085A264E0EB123A736793B2436906E
:1008100041BCB4C0B9D8892E2D92BAEF46088F6971
:10082000D1735CE77C9BF64597D88D327D4EF2BE46
:100830004D3BB000C567E8E871D0675737035AD918
:10084000E0F2686181F7F97CBE5C0506B89589BE67
:100850009B9B8F7C6EBF62FBB5B05F4BFBC58BF47F
:10086000C52A6D72BA98D94B44943123F4B9DB2E62
:10087000848CF2A7A39A595BA0B2E9D7516C1904F2
:10088000520ECA3DA3E275239E793112609E7669AD
:1008900022C5EF20B37D0F5ED1252838CFB0248745
:1008A0002D51796CC7B125DA3C95479492BD80B142
:1008B000391A5A25FB7EAC24D839D0D2DC710CCF42
:1008C0001D1346FFEAC4234FF662B7572F9CAD7C39
:1008D00078B0D25DC10FE5C5EC59D2BD349C64330C
:1008E0001B601ACF3886AC8F9252EEDEBDF91B84A6
:1008F00082D910F749747B10439249ABC499B3363F
:10090000D92DD791554F66ED4766C583FD16B9FDC4
:100910007CA9B264682A2C2BF3E4C07A02EF06DECD
:1009200034CE99709968A3CE456B3E292028600784
:10093000D517927B4423F7B06ECFDBB2063F6D8EA6
:100940004AD43F76425DB8677765D6A7ADB58DF6D8
:1009500039397072D6D94DB4BC4E949C2CCC859448
:10096000AE457938B1C2A3737EDF833DD7CDE47441
:100970006D564065A76C99F4135AB096A7106FDBBB
:100980009CB7781F04DF96824164009E5AD1F10320
:1009900008345A020CA7135EF276C7ABEC25C1A847
:1009A000014CC0164590645F97FC2036CBB46C7C3C
:1009B00007D06B1B9987B11B5877518B9E6B65DCF9
:1009C0008ADD8EB7F80889FE8181297697ABCC0045
:1009D0003CA51DB7028AE6D3C95640AC06974E48DF
:1009E000862C6B33B298E96407DEACF80421EB95F2
:1009F000820177A065DFA016C00FA7131DF81209AA
:100A0000F725608136AEE337C979118DC0500506F0
:100A1000CCA9630142C4B054D6B9D8BE24A06B4B54
:100A2000ABE5CAA5984E4FC0019E6A2F5B131AE929
:100A300070088F7B49C175D0080850A1F7D28F8408
:100A4000B054710C6484BFA85E2EC9D6E791C392DE
:100A5000F5B67B4A5BEEA3837F5A9FCC53F3798C28
:100A6000D222264ADA96C6CF9FE3F3735E75F078FA
:100A7000566FB770A1726A9B17E1DC84672546AB9D
:100A8000CD78E69DF44DEE344DC5C3BEF7AE894139
:100A9000676412A38C3EB037E0763D825326D4BB08
:100AA000D8B558598071D2FF3F6DBC7436AE83BE45
:100AB0005B41E1B203C43DCF1EBC5261161A1E4613
:100AC0009582E5A0A9218C8CEFF7B2D4C21018262C
:100AD000D1913096AB21D85816CBA5391FA5D93165
:100AE0009D78047740C86AE7204F7DA7A8434784D4
:100AF000B424B624916564081C8BCCDFA1E1097E87
:100B000020775A40468040917B625F90D47A7EACD9
:100B1000E6B277D47E3910C60665540D5870AB6BBB
:100B200070050B8CE9C73A2A2A9822AEF18ABDF2E9
:100B300030F81510D3E0E5AA10814A3BD09F0A9FF8
:100B400042D9F83E40002884F1DF302A1881EFD9DD
:100B500001907A81AA5E2CCD412903480B42AAF864
:100B6000B3660112ACF578D1520C0E09C8C8E34F38
:100B7000CA22900AD88657A16029BF7516EF3C7C1F
:100B800019129C1723BCD3D9DC9C0EA2206EE92835
:100B900008F1977B310C50160EE558082C85AC4DAA
:100BA000E02B6B298E952E0744179A8FEFBF6306B3
:100BB000564055D18F924BBC1E421DCF2DF10AA13C
:100BC00054FD93600283B828B09AB48E17AE1D808E
:100BD0004A9B68BD945899CDB35ED6050C20A9AB4D
:100BE0009781A85578B7D9870234684463A30CD19C
:100BF000658F780098C4CAC1757E55C49BBAD52943
:100C000099BC57ADAD91F0E746804AFC02606D2972
:100C10008D5EE10341D4A27471CC8F3D1F98BF9AC1
:100C20004A0BFBDBB3CB8BE4E6ECDF583F6121786A
:100C30007EB7496EAF3F6D3062410F7D7B3E9BDEDC
:100C40009E47F03F9C7887DD933ABC0CA6B7977817
:100C500070F1F1F3C587E4FD97AB5FD15D02F56FED
:100C60003AB9B9B803A8B42BF92E8DE2450080B784
:100C7000DF6EE8B6083B8A2F571757D7FFBA4ABE30
:100C80005D7FBAFCFC0DD516E1E6E6EA0B6C1217A7
:100C9000BC156981775DC15D5778179C5E9F7D4C5F
:100CA000CECFEE2E910C5DB5F97AF675936CEE6EA3
:100CB00036BFC2C9E60A4F16AF5836F550C8A95616
:100CC0004375F3BA3CC04FF5860060C0A6717D7BCA
:100CD000164C4EFF134C57FF0536CFF17B45DF17FF
:100CE000F80D41402D2E710105975A5CE1027A61A1
:100CF000B5788F8BB9C6FF452D34817FE022D604AD
:100D0000FE898BA5C6F9A0AED1381FD502715E074A
:100D1000A101EA6C35880867B319703C9DA4320EB6
:100D2000E6CB5CD5105DC1E3208CEEE1C11A4B3FF0
:100D30004FE90F9F873949A009B6502F2722D74A7C
:100D400067CA38B6948AA9F93D2BD0C65F98A92501
:100D5000730A981769C5AABA6360EC0C0306831876
:100D600047818D299B654F7B01DF647B9235E03D98
:100D70007013456483DB4BAE725B1BB26DDD3230AA
:100D800083BF9BB590789AAB7DB525C9C500F52F7B
:100D90001D2604689476C010741F6987D0A96693D5
:100DA000DA422A8F35B0445034792AE26957E50E89
:100DB000451A38E515339D93C507A3BBA0890F6B72
:100DC000D2164C8EF1B6AD5B551F9B8396430A93AA
:100DD0009D9AFBBC4FE1BD39EB6AA62205F6F1CA2C
:100DE000C169E8734D099699C1889BD3509EA33A77
:100DF000C740E951932ACDDD1E80212B69C92149C5
:100E00005287660ECBFA911B6E1836F1E8D1EED8F8
:100E1000B6FCB6C9A7887F70AE2B4B7BFFCC6300B6
:100E200004C8C8ECB06732BBD89B9BB8112D07FB38
:100E3000BAB6C9F6A2D188F37008002AE81BF726D3
:100E4000495DBF811854371E15EC066ED267B4D3C6
:100E500095112875E2375087A73BCEA045835C6487
:100E60001406246F84446B92505CE67D812D222011
:100E700063EA663A2A2AC3E78F1C358159FBFB08CF
:100E8000FBB4CD95B16B686C446F50FCAA9A61F0CD
:100E9000D56E8BFA89CAA14F60E529A3E7A07BA98B
:100EA000A8321F1D80DDD30176BBFE81A81A2A1A45
:100EB0006814A48E2AE4D46DCF55F4B4D6DFB4F50B
:100EC0000E845902EB29BE6D0B5917B80461737477
:100ED0005C1CBB7DE1FA5168ACE859700D8A1AD4EC
:100EE00080968CBDD0C6021C48873D89A280649440
:100EF00001BDC1CC86D2ABC3B412FA010666B00DF7
:100F00007821E950318010A2EC4BB3679C03B932D1
:100F10007319D5210231E5B72A06F9B3CC8D76E4F1
:100F2000AEAED93655AFA3976143FCD53729141916
:100F300000AA4914CD8FBE2A792026E461C95583C1
:100F40007F57C9BEC15CCCC9A95524C5B1ECB7B4A3
:100F5000CBF679BD2329FE443D9A1A0C430FD35793
:100F60000F40182302CD1BBD7DE90EC032C94720BA
:100F700064488874E8C190E5A109965ABF6EB443ED
:100F800001ABAE0A88718F4020BD2F4CE8B2CFA7CD
:100F90003699E9E283C6BDA376FB947D86E0090914
:100FA000F01EEB852D8E5BE44F5496A859B68DA3A9
:100FB0007AC29DD30C4562D35A41842093C9E0186C
:100FC0008FB0C083E0AFA6969FCE2E3ED0B8CB0C9C
:100FD0007C549D86D22CD216D309D6A5478A1154AB
:100FE00021193C8ECF74042677C2120CB2D5C18869
:100FF00009D315540CB37015C72AFBE9C542A53FA8
:101000005A2C62650FB0582C96F03D7B7D552D43D0
:1010100003E182D314DF34B583D18972F3E458CF6E
:10102000B29EB961FC0023F53A56A64EA8243D5164
:101030002371D59AB80A7065079B90B7F4D445D54B
:10104000886A38837B46A1AAF0868092D85608B079
:10105000D55C4D35C23FE25A63E88FC4DD7E12ADE8
:10106000DD444C82E5DB01D76AED064A03CAFB1A70
:101070009AC7DDE11DFEBC0A8413BA194D62C4ECA7
:10108000F5C86A4D6259C76E0CE281DA7908D5F469
:101090006F1114E7394E206C5CB6689944DE7044D9
:1010A000BFCAF43C7D96A9E14C86DA006A70973F8E
:1010B0001F5CAD946D83F3418904AD8CDF5A48CC3D
:1010C000A755C647D395132C2D7C9C417FEF9A5D85
:1010D000DDA29B029E1A459FE47DAFC2734E330C86
:1010E000A852C0A313933F243DED044B30E9229F47
:1010F00019BA1C97C3EC58F778A00C7F42E069E559
:1011000004D3B7DFAEFD9916E7AA8C6C3B55D7AD7B
:10111000422A2AA5333DD997FA47FE461636770D5F
:10112000D8A83BA3291614A7EB60E4EE437D1EF577
:10113000CD9E62382939F27AB6C30760B7469E1948
:10114000FA7D9833F62CB54DE1D1C1ABE7C8D897FD
:10115000D09494D15F217ADFCB638836FAEF8ED0BA
:10116000A9CCB741B08DC2935CB4DDCB491444F334
:10117000200A17491086AB283AD93E9EA4BF87F1B2
:101180002C3A5905ABC9EBFF0088E6A002A10A0082
:10119000000011241FBECFEFD1E2DEBFCDBF00E0C3
:1011A0000CBF14BE0FB6F894A895809160008861BA
:1011B00080936000109260000FBE12E0A0E0B2E0E9
:1011C000E2E6F9E700E00BBF02C007900D92AA32F9
:1011D000B107D9F723E0AAE2B2E001C01D92A83915
:1011E000B207E1F70E94A71F0C94AF3C0C940000DB
:1011F000CF93DF93CDB7DEB76A970FB6F894DEBF13
:101200000FBECDBF0E94941F6B017C019E012F5F1A
:101210003F4F1901AE01475F5F4F5F874E87809157
:101220002602882309F42DC60E94941FC61AD70AE5
:10123000E80AF90AF89480912602882351F08FEF8A
:101240008093260278940000F89480912602811100
:10125000F9CF78940E94941FA7019601260F371F9B
:10126000481F591F2C8B3D8B4E8B5F8B81E08093E9
:10127000260280914C02882309F43EC010924C0251
:101280008FEF89836CE376E2C1010E94D2198C0151
:10129000892B91F1D80156968C9182FFF3CF0E9451
:1012A000941FF894F80137892689422F4B7F468B8B
:1012B00078949F938F937F936F931F923F932170A6
:1012C0001F922F9389811F928F9323EF35E03F93D5
:1012D0002F930E94C8326DB77EB7645F7F4F0FB601
:1012E000F8947EBF0FBE6DBF6CE376E2C1010E9431
:1012F000D2198C01892B71F680914D028823F9F067
:1013000010924D028FEF89836EE476E2C1010E9454
:10131000D219FC01892B99F0958D868D9813F4CF05
:10132000F894858D968D891709F4A8C678946EE493
:1013300076E2C1010E94D219FC01892B69F78091E4
:1013400049028823F9F0109249028FEF89830FED4B
:1013500015E069EA70E2C1010E94D219009791F08C
:10136000DC0158962C912F3FA1F7F894FC012685BB
:10137000211151C5789469EA70E2C1010E94D21925
:10138000009771F780914A028823D9F110924A029E
:101390008FEF89830AED15E062EE72E2C1010E94CF
:1013A000D219009771F1DC011E962C911E9723FF34
:1013B000F3CFF894FC012685277F268778949C013B
:1013C000265E3F4F3F932F9350968C91869586953E
:1013D00086951F928F9389811F928F931F930F93EE
:1013E0000E94C832EDB7FEB738960FB6F894FEBF2C
:1013F0000FBEEDBF62EE72E2C1010E94D2190097EA
:1014000091F680915602882309F446C01092560244
:101410008FEF898300ED15E06FE47EE2C1010E9449
:10142000D219FC01892BC1F1848D80FFF5CFF8948E
:101430009481258136814781548965897689A78978
:10144000B08DF18CE28CD38C848D8E7F848F7894D8
:10145000DF92EF92FF92BF93AF937F936F935F936F
:101460004F933F932F939F9389811F928F931F9345
:101470000F930E94C8322DB73EB7205F3F4F0FB683
:10148000F8943EBF0FBE2DBF6FE47EE2C1010E9403
:10149000D219FC01892B41F680914B02882309F473
:1014A00050C010924B028FEF8B87AE01455F5F4FAC
:1014B0002A0162E974E2C2010E94D2195C01892BFF
:1014C00009F43FC0D50159968C91599780FFF1CF0F
:1014D000F894F5016480758086809780818D8E7F79
:1014E000818F789458968C91813009F401C308F467
:1014F000E1C2823009F4A1C28330D9F6CB841982CB
:101500001A82910142E061E0F501848995890E9487
:101510000E1509811A81102701271027F02FF67068
:10152000EF2E20E030E0B401A301C5010E940A259E
:1015300062E974E2C2010E94D2195C01892B09F0B0
:10154000C1CF809158028823E9F0109258028FEFA2
:101550008B879E01255F3F4F290119E0D12E02EFB5
:10156000E02EFF24FA9406C0D8011E968C911E9797
:1015700080FDEAC26AE075E3C2010E94D2198C01C3
:10158000892B91F780915902882309F462C0109247
:1015900059028FEF8B87FE013B962F0177247A94B7
:1015A00069ED74E3C2010E94D2198C01892B09F400
:1015B00050C0D8011E968C9182FFF2CFF894F801AA
:1015C00084809580A680B780D1881686118A789409
:1015D00080859185A285B385881A990AAA0ABB0AD3
:1015E0007801F2E1EF0EF11CD801DD2091F0569662
:1015F0008C91F801E80FF11D778A108E118E8D5FA6
:10160000F801868B823308F0AEC0DA94D801D1108D
:10161000EECF1F968C91882309F4B0C1813009F474
:10162000C6C3823009F4D6C4D80156968C9190E096
:10163000C2970CF4B5CF6B85C80142960E94C3389F
:1016400069ED74E3C2010E94D2198C01892B09F063
:10165000B0CF80915A028823D1F010925A028FEFB6
:101660008D87FE013D966F0132E7932E44E7B42E3D
:1016700006C0D70152968C91529780FDDCC26DE373
:1016800077E3C6010E94D2197C01892B91F78091E2
:101690005B028823E9F010925B028FEF8D879E0139
:1016A000235F3F4F690117E0612E0FEA702E88EA31
:1016B000882E06C0D8011E968C911E9780FD19C3F6
:1016C0006EE177E3C6010E94D2198C01892B91F754
:1016D000A89580917402882329F080E480936000AB
:1016E0001092740210913503112309F473C0009114
:1016F0002A0200FD12C0153008F46CC0B0907502CB
:10170000CB2C8BEF8B0D8C3308F4E2C3EEE7CE16B7
:1017100009F475C5016000932A02412F50E06EE77D
:1017200070E085E792E00E94803C009739F00E7FE0
:1017300000932A028557924011E0180F01FD0CC05A
:10174000902F926090932A028FE795E09F938F935A
:101750000E94C8320F900F90B12EDD24DA9480E001
:10176000EB2CF12C1EC06B85C7010E94C338DA94A4
:101770004DCF90E0402F50E0481B590BB701680F48
:10178000791F6B587D4F8B589D4F0E94963C10924D
:101790002602802F9FB7F89420913503121761F02D
:1017A0009FBF10913503012F0B1919F79FB7F894BC
:1017B000209135031213F4CF009335039FBFF1E05E
:1017C000DF1208C08FE795E09F938F930E94C83285
:1017D0000F900F900E94941F6B017C012C893D8912
:1017E0004E895F89621B730B840B950B80903302CB
:1017F00090903402A0903502B09036023FEF831AE9
:10180000930AA30AB30A8092330290923402A09200
:101810003502B092360240902F0250903002609014
:10182000310270903202460E571E681E791E409299
:101830002F02509230026092310270923202611592
:10184000710541E08407910508F020C39B01AC01BC
:101850000E94DD3BDC01CB0181509F4FAF4FBF4F5A
:10186000892F9A2FAB2FBB2740912B0250912C022E
:1018700060912D0270912E02840F951FA61FB71F35
:1018800084179507A607B70718F48FEF9FEFDC01C1
:1018900080932B0290932C02A0932D02B0932E02E2
:1018A000409152025091530260915402709155023E
:1018B0005C546B437B4F2F2DC416D506E606270BD1
:1018C00027FDADCCBF93AF939F938F937F926F9281
:1018D0005F924F92BF92AF929F928F928BE196E070
:1018E0009F938F930E94C8326DB77EB7625F7F4F20
:1018F0000FB6F8947EBF0FBE6DBF809152029091DB
:101900005302A0915402B0915502C816D906EA06B6
:10191000FB0698F480914E0290914F02A0915002E4
:10192000B09151020196A11DB11D80934E0290937A
:101930004F02A0935002B0935102C0925202D09233
:101940005302E0925402F092550210922B02109230
:101950002C0210922D0210922E0210922F02109241
:101960003002109231021092320210923302109221
:101970003402109235021092360251CC82E38983F0
:101980001A820E94941F6B017C01910142E061E088
:10199000F801848595850E940E150E94941FDC0134
:1019A000CB018C199D09AE09BF0981329340A10575
:1019B000B10508F022C2998197FD5AC2C818D9080A
:1019C000EA08FB08D80150968C918823C1F02FEFCC
:1019D000280F41E050E002C0440F551F2A95E2F75E
:1019E000052E000C660B770BC40ED51EE61EF71EE7
:1019F00004C0F694E794D794C7948A95D2F7BFEFC2
:101A0000CB16D104E104F10408F094C22A8130E03D
:101A1000220F331F892F90E0982F8827990F822B50
:101A2000932BF8012689E20FF11DC78A808F918FD1
:101A30002D5FD80156962C93F7CDCB8481E0898316
:101A40001A821B821C82910143E061E0848995899E
:101A50000E940E1569817A818B819C810E940F3CC6
:101A6000BB27A92F982F872F9C01AD01442755270D
:101A7000288B398B4A8B5B8B37E039831A82910133
:101A800042E061E0D50154968D919C9155970E945A
:101A90000E158A81982F9C7F88898170E92EE82A0B
:101AA000088919892A893B89B401A301C5010E94CB
:101AB0000A25FFCCCB8419821A821B821C829101D9
:101AC00044E061E0F501848995890E940E156981E1
:101AD0007A818B819C810E940F3CF62FF770EF2E4C
:101AE0008B019C01B401A301C5010E940A25E1CC30
:101AF0002B85288B3CE039831A821B821C82910142
:101B000044E061E0848995890E940E1569817A819B
:101B10008B819C810E940F3C6B017C01BFE0B983EB
:101B20001A82910142E061E0F501848995890E9461
:101B30000E15970186013327C888EA80B401A301F6
:101B4000C5010E940A25B5CCCB84F1012D2D11923F
:101B50002A95E9F7E982910149E061E01C968D91AF
:101B60009C911D970E940E15D80153968C9190E080
:101B7000FC017496E00FF11F3B81232F207FE1F0E1
:101B8000203FD1F0F482F382F282F182F801E80F73
:101B9000F91FF48AF80183898B5F838B803308F007
:101BA00003C2D8011E968C911E978E7F1E968C9331
:101BB000C8010E94E938DECC2D81422F407F09F018
:101BC000B5C15F81452F407F11F0403FD9F6488570
:101BD0004039C1F649854F77B42EB0E2B41790F280
:101BE000D801A80FB91F4A8154964C938C818183E8
:101BF0008E818283852F90E03F71AC01440F551F89
:101C000042955295507F5427407F5427342B33837D
:101C1000880F991F880F991F80762F71822B8483DC
:101C2000D80153968C9153978B5F53968C93803346
:101C300008F4C0C1BAC1AD8450968D919C91519762
:101C4000C09748F1B982D7011C96ED91FC911D9780
:101C50008701085E1F4F20E3A10161E080810E949F
:101C6000291A80E3F701878B80899189C097918B2E
:101C7000808B6A2DC70143960E94C338D7015096C6
:101C80008D919C915197C09760F11092260281E04E
:101C900080935A02F4CCD7011C96ED91FC911D97CC
:101CA0009B86810122E0AE01455F5F4F61E080814C
:101CB0000E94291A89818F7190E0982F88272A81A4
:101CC000822BF701268537852817390710F4978767
:101CD0008687D70151969C938E935097C0970CF0AE
:101CE000B1CFF70182898E7F828BC7010E9435397F
:101CF000C6CC4D84F101262D11922A95E9F77B86F9
:101D00001C8689825396AC905397B12C750134E1AF
:101D1000E30EF11CE00EF11E910147E061E01C961C
:101D20008D919C911D970E940E159E01255F3F4F3E
:101D300042E061E0D8011C968D919C911D970E9414
:101D40000E158C85B82FBF735B2E8074982EF8010A
:101D5000EA0DFB1D8A81848B8B81F70181838C8145
:101D600082838D8183838E8184838F818583D80153
:101D700053968C9153978A5F53968C938F3208F0C9
:101D8000A4C1992031F0F801818992890196928B42
:101D9000818B552009F493C1D8011E968C911E9712
:101DA0008E7F1E968C93C8010E94E93889CC8FE7FC
:101DB00089838EEF8A830E94941F688B798B8A8B2C
:101DC0009B8B910142E060E0F801848595850E943B
:101DD0000E150E94941F6B017C01DC01CB01288948
:101DE00039894A895B89821B930BA40BB50B81321D
:101DF0009340A105B10508F4AAC0D80156968C916C
:101E0000F801E80FF11D778A92E0908F118E8D5FB7
:101E1000F801868B09CC318D308F7894AC01415F0D
:101E20005F4F5F934F931F922F93FC0187891F92FF
:101E30008F9389811F928F931F930F930E94C832B3
:101E40002DB73EB7265F3F4F0FB6F8943EBF0FBE8B
:101E50002DBF7FCA2E853F85E217F30709F0FEC02C
:101E6000809590E02A8530E08217930709F433C10A
:101E7000D80156968C91F801E80FF11D778A93E00E
:101E8000C4CFCC8ADD8AEE8AFF8AF0C9611571055C
:101E900050E18507910508F0F8CC8B019C010150B9
:101EA0001F4F2F4F3F4F5527432F322F212F0E9477
:101EB000DD3BDC01CB0140912B0250912C02609163
:101EC0002D0270912E02840F951FA61FB71FD8CC2C
:101ED000D09076028D2D807F803109F017CC1B15B4
:101EE00008F478CC8B2D90E0FC01EC58FD4F20815C
:101EF0002E3709F00BCCFC01EE58FD4F4F01FC01D1
:101F0000ED58FD4F9081D4018C91292F30E079015B
:101F1000F82A6DEF6B0D85E792E00E94AA1FE81684
:101F2000F90609F46EC1C0907502F0CB403F09F08C
:101F300029CE47CEF8018689E80FF11D778A91E016
:101F4000908F118E8D5FD80156968C936DCB80EC5F
:101F500089831A82910142E061E0D8011C968D913B
:101F60009C911D970E940E1549812A81942F9227DA
:101F7000892F82958F709827892F86958695892736
:101F8000982F9695892780FDBAC046FFC8C0F801F2
:101F90008689E80FF11D778A25E0208F118E8D5FED
:101FA000D80156968C9340CBB12C6C2DC8010F965E
:101FB0000E94C338BEE1BB1508F02FC2F801818929
:101FC00092890196928B818B1092260281E08093F8
:101FD0005802D0CAD8011C96ED91FC911D976480DF
:101FE000B281B88B2381288F40E06B2F722F862D12
:101FF0000E944D1B0E94941F6B017C0130E1C30EB7
:10200000D11CE11CF11C0E94941F2F2DC616D7066F
:10201000E806290B27FFF7CFF89441E06889788D0F
:10202000862D0E944D1B0E94941F6B017C017894A9
:10203000D101EAE01D92EA95E9F7F4E8F98323E299
:102040002A8391014AE061E0D8011C968D919C9110
:102050001D970E940E15FE01339685E09191892708
:1020600028E030E005C0880F2150310909F4F2CE94
:1020700087FFF9CF880FBDE18B27F6CF548965899B
:1020800090892189328943898F5F858F78946F93F6
:102090005F934F933F932F939F9389811F928F93C9
:1020A0008EEE95E09F938F930E94C832EDB7FEB7F6
:1020B0003A960FB6F894FEBF0FBEEDBF25C9109239
:1020C000260281E080935B02FBCA642DC8010F9653
:1020D0000E94C33856CE898584FF18C08B8187FD46
:1020E00060C0D80156968C91F801E80FF11D778AEF
:1020F000B4E0B08F118E8D5FF801868B95CAF80120
:102100008689E80FF11D778A93E01ACFD801569699
:102110008C91F801E80FF11D778AB5E0EACFC81875
:10212000D908EA08FB08F80130893323C9F08FEF9A
:10213000830F61E070E002C0660F771F8A95E2F7B7
:10214000CB01092E000CAA0BBB0BC80ED91EEA1E30
:10215000FB1E04C0F694E794D794C7943A95D2F73F
:102160007FEFC716D104E104F10408F03FC0842FCB
:1021700090E0AC01542F4427550F550FF4E02F9FEA
:10218000C0011124842B952BD80156962C91F8016F
:10219000E20FF11DC78A808F918F2D5FF801268B8A
:1021A00043CAC818D908EA08FB08F1E5CF16F5E5D7
:1021B000DF06E104F104D0F42C8130E0220F331F5C
:1021C00090E0982F8827990F822B932BD801569651
:1021D0003C91F801E30FF11D2F8126952F73278B7A
:1021E000808F918F3D5FF801368B1ECAD8015696BD
:1021F0008C91F801E80FF11D778A91E006CE11E08D
:10220000ABCA802F8D7F80932A0280910902D81259
:1022100002C181E08D0D8F70806180930902B7E764
:102220008B16B2E09B0609F008F4BEC0E7E7F2E0C7
:10223000BA8ECDB6DEB68F010F5F1F4F20812223ED
:1022400009F4E6C0EEE7F5E08491281708F0E0C055
:1022500030E0220F331F220F331F220F331FF901EB
:10226000E950FD4FE4914DB75EB764E0E69F401939
:10227000510911240FB6F8945EBF0FBE4DBF8DB744
:102280009EB70196F901E750FD4F4491F901E650E0
:10229000FD4F65917491FB01640F711DAC01D98AEA
:1022A000C88A998F888FE617F70709F482C08016CD
:1022B000910608F46EC0A491A53028F1A73009F06A
:1022C00068C02801BFEF4B1A5B0AD801AC908201AD
:1022D0000A0D111D8016910608F45BC0B12CC12CAB
:1022E000D12CDA01AD92BD92CD92DC921397612C84
:1022F000712C14964D925D926D927C921797485F67
:102300005F4F3196D0CF7A0184E0E80EF11C68016E
:102310009FEFC91AD90AD8011C91912F9F77492E96
:10232000512C612C712C012F00760036A9F117FF7A
:102330003EC086010F5F1F4FD80111978C91440C4E
:10234000551C661C771C440C551C661C771C440CE1
:10235000551C661C771C440C551C661C771C440CD1
:10236000551C661C771C440C551C661C771C440CC1
:10237000551C661C771C982F9F77492A87FDDACF5A
:10238000DA014D925D926D927C921397A70131967E
:102390008ACF87E00E946C3BB0EE4B2A55245A94BA
:1023A000652C762CC4CFBA8CDD24D394D8C9860191
:1023B000E7CFC888D988888D998D4091270244231A
:1023C00031F0F901E850FD4FE491E0FF11C02450D5
:1023D0003D4FF90125913491F90119950FB6F89403
:1023E000DEBE0FBECDBE08151905E8F6F80121CFF7
:1023F000809128021F928F93EAE2F6E0FF93EF9319
:102400000E94C8320FB6F894DEBE0FBECDBEEBCF31
:1024100085E00E946C3B1B2D97C9F1E0FB1508F489
:10242000D3CDBFCBCF93DF93EC016FE272E1888114
:102430000E943528FC018C819D81AE81BF81892B52
:102440008A2B8B2B51F420E0F89494A59D7F922B3E
:1024500094A77894DF91CF91089522E0F5CF0F9360
:102460001F93CF93DF938C014DE250E06FE272E156
:10247000FC0180810E940628EC01F8018485181671
:102480000CF041C064E06CA7F80184810E94421EF8
:102490006A8F7B8F8C8F60E0F80180850E94421EDE
:1024A0006D8F7E8F8F8F80E090E0A0E0B0EC88A3EE
:1024B00099A3AAA3BBA3F80180899189A289B389B2
:1024C0008E8B9F8BA88FB98F6BE070E0CE018496C6
:1024D0000E9497288E899F89A88DB98D8997A1051B
:1024E000B10548F089E393E19B838A83DF91CF9123
:1024F0001F910F9108958CA580618CA7DF91CF91DA
:102500001F910F91089560E0BECFCF93DF93EC0150
:102510006FE272E188810E943528FC018C819D81E7
:10252000AE81BF81F8944685578560897189452BB6
:10253000462B472B79F484839583A683B783828BBC
:10254000938BA48BB58B84A5877F84A77894DF9128
:10255000CF91089586E10E946C3B0F931F93CF9318
:10256000DF938C016FE272E1DC018C910E943528CF
:10257000EC010E94B128FC01D80114964D915D91A7
:102580006D917C911797428353836483758318966A
:102590008D919C91199791878087892B09F466C04A
:1025A000D8011C968D919C911D97978386831286E6
:1025B000F8948CA5282F217081FB992790F9291771
:1025C00029F091E089279285916092874E855F85F9
:1025D00068897989452B462B472B59F583FD19C00E
:1025E0008CA7118210828CA19DA1892BA9F1AEA18B
:1025F000BFA1ED93FC93FFA3EEA3CE010E94F431A3
:10260000CE010E942C367894DF91CF911F910F91CB
:102610000895809145029091460291838083F093C2
:102620004602E09345027894DF91CF911F910F917C
:1026300008958CA7118210828CA19DA1892B89F00D
:10264000AEA1BFA1ED93FC93FFA3EEA37894DF911D
:10265000CF911F910F910895FFA3EEA3FDA3ECA3CB
:10266000CCCFFFA3EEA3FDA3ECA3CDCF87E10E94C7
:102670006C3BCF92DF92EF92FF920F931F93CF9319
:10268000DF93EC01EA8DFB8D8C8D80830E94941F7B
:102690000E891F89288D398D6B017C01C00ED11EDA
:1026A000E21EF31E8E859F85A889B9890197A1092D
:1026B000B1098E879F87A88BB98B80FF0EC0CC8213
:1026C000DD82EE82FF8281E0DF91CF911F910F9139
:1026D000FF90EF90DF90CF900895892B8A2B8B2B62
:1026E00059F1488559856A857B858A899B89AC899A
:1026F000BD89840F951FA61FB71F8A8B9B8BAC8B40
:10270000BD8B0C851D85012E000C220B330B400F59
:10271000511F621F731F488759876A877B872B2F3A
:102720008C159D05AE052F0927FDC9CF8C839D8390
:10273000AE83BF8381E0C8CFCE010E94F431811106
:1027400002C080E0C1CF4C815D816E817F81972F77
:102750004C155D056E059F0997FFB6CF4C195D09B5
:102760006E097F094038514C6F4F7F4F0CF0A7CF57
:1027700088E10E946C3B46E050E06DEE73E1FC01A5
:1027800080810C940628CF92DF92FF920F931F93C3
:10279000CF93DF93EC016DEE73E18C810E943528BD
:1027A0006C01F8840F2D10E0A8014D5F5F4F63ECC2
:1027B00073E188810E940628FC01D182C082F282E6
:1027C0006C857D85A8010396DF91CF911F910F91B4
:1027D000FF90DF90CF900C948D3CFF920F931F934E
:1027E000CF93DF938C0146E050E06DEE73E1FC0186
:1027F00080810E940628EC01F801F08461E0F1106C
:1028000060E0F80184810E94421E6A837B838C838E
:102810008D81F11009C091E0892B8D83DF91CF91DB
:102820001F910F91FF90089599E0892B8D83DF917F
:10283000CF911F910F91FF9008950F931F93CF9306
:10284000DF938C016EE476E2FC0180810E943528E2
:10285000EC010E94DA35909100028A8D981303C032
:102860008FEF80930002F80184819581A681B78162
:10287000888B998BAA8BBB8B8C839D83AE83BF8304
:1028800080859185A285B3858C879D87AE87BF871C
:1028900084858E8F91E0980F9D8F40895189628940
:1028A0007389488759876A877B87248935893F8B55
:1028B0002E8B208D318D398F288F948D9C8F811197
:1028C00005C0DF91CF911F910F910895CE01DF9147
:1028D000CF911F910F910C942C368BE10E946C3B91
:1028E0008F929F92AF92BF92FF920F931F93CF93BD
:1028F000DF93EC016DEE73E188810E9435288C0135
:10290000F88483E08F1508F484C0F801858186700F
:1029100009F07FC08C849D84AE84BF848C819D81AE
:10292000AE81BF81892B8A2B8B2B09F074C0E6E422
:10293000F6E0A591B49111968C9180FD04C060E001
:1029400088E00E94421E60E089E00E94421E60E032
:102950008AE00E94421E60E08BE00E94141B80E52A
:102960008CBD1DBC8114F2E19F06FAE7AF06B104ED
:1029700008F041C0811489E098068DE3A806B104EF
:1029800018F5E0E88E16E4E89E06EEE1AE06B10426
:10299000C0F5F0E48F16F2E49F06FFE0AF06B10445
:1029A00068F580E2881681EA980687E0A806B104F7
:1029B00058F590E0E0E98E16E0ED9E06E3E0AE0605
:1029C000B10428F583E002C090E080E0CF2DCC0F69
:1029D000CC0FC065C82BF801C083918385818460CA
:1029E0008583DF91CF911F910F91FF90BF90AF90A2
:1029F0009F908F90089591E080E0E8CF90E081E093
:102A0000E5CF91E081E0E2CF91E082E0DFCF82E0AC
:102A1000DDCF0E946D148EE20E946C3B6F927F921C
:102A20008F929F92AF92BF92CF92DF92EF92FF92DE
:102A30000F931F93CF93DF934C01E62E142F690160
:102A4000DC0115967C901597872D867009F451C08E
:102A500071FC39C0F401908181819CBD8DBDF72D41
:102A6000F1706F2E70FCC8C0EE2009F49CC08FEF8F
:102A7000810F112351F0F60190819EBD0DB407FE28
:102A8000FDCF9EB591938150B8F7662091F1072D47
:102A9000069506950695402F40954170D4011296F3
:102AA0006D917D918C91DF91CF911F910F91FF904E
:102AB000EF90DF90CF90BF90AF909F908F907F90DE
:102AC0006F900C944D1BED91FC9141854270668195
:102AD000778180850E944D1BB72DB1706B2E70FCE5
:102AE00017C0D401CD91DC91AA24AA94A10E111192
:102AF00026C0DF91CF911F910F91FF90EF90DF9053
:102B0000CF90BF90AF909F908F907F906F900895DF
:102B1000072D069506950695402F4170F4016281B8
:102B2000738184810E944D1BD401CD91DC91AA2434
:102B3000AA94A10E112309F4AECF66246394B12C9C
:102B40008FEFA81AB80AAC0CBD1CD601FC9008E0A7
:102B500010E0898580FF35C0EE81FF818885808304
:102B60004F2D40786B817C818D810E944D1BFF0C25
:102B7000EE81FF8188858083110FE881F981908142
:102B80008A81892391E009F490E0192B015009F71B
:102B9000EE2011F0F6011083FFEFCF1ADF0AAC141C
:102BA000BD0499F672CFF6019601210F311D2E1743
:102BB0003F0709F46ACF81918EBD0DB407FEFDCFAA
:102BC000F6CF4F2D40786B817C818D810E944D1B0B
:102BD000FF0CEE81FF8188858083110FE881F981E8
:102BE00090818A81892391E009F490E0192BEE818C
:102BF000FF8188858083CACF73FA442740F9F401A6
:102C00006281738184810E944D1B662463942CCF62
:102C1000CF93DF93EC016DEE73E188810E9435283C
:102C2000288539854C8160E0DF91CF910C940E1599
:102C3000FF920F931F93CF93DF93EC0118816DEEFA
:102C400073E1812F0E9435280C81F884C9852F2DCE
:102C50003C2F402F61E00E940E15CF93FF921F92F0
:102C60000F931F921F9389EE95E09F938F930E947D
:102C7000C8328DB79EB708960FB6F8949EBF0FBEA8
:102C80008DBFDF91CF911F910F91FF900895AF926B
:102C9000BF92DF92EF92FF920F931F93CF93DF9338
:102CA000FC01A485B585968547855089E1882289F0
:102CB0003389F488A588B6887789008D118DD28CE8
:102CC000808586279C9384FD20C085FD22C086FDDB
:102CD00024C087FD26C09C93862F8295807F8087A5
:102CE00068279C9364FD2AC065FD25C066FD1CC055
:102CF00067FD1EC09C93DF91CF911F910F91FF90B4
:102D0000EF90DF90BF90AF900895EA01E88285FFD1
:102D1000DECFE901F88286FFDCCFE501788387FF0B
:102D2000DACFE801D882D7CFF501708367FFE2CF11
:102D3000E801D882DFCFE901F882D8CFFA01E0823A
:102D4000D3CF5F926F927F928F929F92AF92BF92FA
:102D5000CF92DF92EF92FF920F931F93CF93DF9367
:102D60008C01FC01C080D180E280F380848095805A
:102D7000A680B78066246A94660E662301F1EA0194
:102D8000712CFFEF6F1A7F0A640E751E59900E9416
:102D9000941FDC01CB018C199D09AE09BF09881570
:102DA0009905AA05BB0598F3652DC8010E94471631
:102DB0000E94941F6B017C01C615D70539F7F801F5
:102DC000C082D182E282F382DF91CF911F910F9175
:102DD000FF90EF90DF90CF90BF90AF909F908F903B
:102DE0007F906F905F900895EF92FF920F931F93E3
:102DF000CF93DF938C0165EA7CE2FC0180810E9425
:102E000035287C018FE090E00E94A532EC0188E833
:102E100093E19E878D87F8018089880F8C8761E018
:102E200084810E94141B6E837F83888761E0F80190
:102E300084810E94421E688379838A8361E0F8015D
:102E400080850E94141B69877A878B8761E0F8016F
:102E500080850E94421E6B837C838D83F701D28321
:102E6000C183838181608383DF91CF911F910F9113
:102E7000FF90EF9008950F931F93CF93DF93EC0192
:102E800063E777E188810E9435288C01FC01618528
:102E90007285838541E00E944D1B488559856C8170
:102EA000C801DF91CF911F910F910C94A1160F9340
:102EB0001F93CF93DF93EC0163E777E188810E9452
:102EC00035288C01FC0161857285838540E00E9474
:102ED0004D1B488559856C81C801DF91CF911F91A9
:102EE0000F910C94A116CF92DF92EF92FF920F9365
:102EF0001F93CF93DF93EC014BE150E063E777E161
:102F000088810E9406288C0160E08C810E94421E0C
:102F1000F80161877287838760E088850E94421E7E
:102F2000F80164877587868760E08C850E94421E61
:102F3000F8016787708B818B60E088890E94421E50
:102F4000F801628B738B848B60E08C890E94421E37
:102F5000F801658B768B878B60E0888D0E94421E1E
:102F6000F801608F718F828FF8940E94941F6B011B
:102F70007C0160E0C8010E9447160E94941F78946B
:102F8000DC01CB018C199D09AE09BF09CC8CDD8C0D
:102F9000EE8CFF8C8C159D05AE05BF0548F4C81A54
:102FA000D90AEA0AFB0AF801C482D582E682F782CE
:102FB000DF91CF911F910F91FF90EF90DF90CF9015
:102FC0000895DF92EF92FF920F931F93CF93DF93B9
:102FD000EC01D88883E08D15B0F16DEE73E1888146
:102FE0000E9435287C018AE090E00E94A5328C0185
:102FF00061E08C810E94141BF801608371838283DD
:1030000060E088850E94421EF80163837483858393
:1030100060E08C850E94421EF8016683778380877A
:10302000D186F7018581982F967081F4F70111837D
:10303000008382608583DF91CF911F910F91FF9074
:10304000EF90DF9008958BE10E946C3B0E946D141D
:10305000CF92DF92EF92FF92CF93DF93EC010E9429
:10306000941F6B017C019E01A0E8BEE30E94163C08
:1030700020E432E44FE050E00E94ED3BC20ED31E4C
:10308000E12CF12C0E94941F6C157D058E059F0587
:10309000C8F3DF91CF91FF90EF90DF90CF9008952C
:1030A0000F931F93CF93DF93EC01062F18E01DC001
:1030B0006B817C818D8140E00E945C1B000F8D85BF
:1030C0009E850E9428186E817F81888541E00E943C
:1030D000FE1A8D859E850E942818688179818A81D3
:1030E00040E00E945C1B115049F007FFE1CF698569
:1030F0007A858B8541E00E94FE1AE0CF69857A854A
:103100008B8541E00E94FE1A8D859E850E942818BD
:103110006E817F81888541E00E94FE1AE985FA85EB
:1031200010818B8518238D859E850E9428186881C3
:1031300079818A8140E00E945C1B69857A858B8554
:1031400041E00E94FE1A111105C0DF91CF911F913D
:103150000F91089585E20E946C3B4F925F926F92AF
:103160007F928F929F92AF92BF92CF92DF92EF9217
:10317000FF920F931F93CF93DF938C01562E3A014A
:10318000FC0180809180A280B380C480D580E680DD
:10319000F780EA012196FA014080642D607F0E9449
:1031A000422F0E94941FDC01CB0188199909AA09BA
:1031B000BB098C159D05AE05BF0598F3642D62957E
:1031C000607FC8010E94422F0E94941F6B017C0106
:1031D000F80180849184A284B384F1E05F1639F110
:1031E0005A945A94852D90E00296680E791E599053
:1031F000652D607FC8010E94422F0E94941FDC0150
:10320000CB018C199D09AE09BF0988159905AA053E
:10321000BB0598F3652D6295607FC8010E94422F1F
:103220000E94941F6B017C01C615D70501F7F801B8
:10323000C082D182E282F382DF91CF911F910F9100
:10324000FF90EF90DF90CF90BF90AF909F908F90C6
:103250007F906F905F904F9008950F931F93CF933F
:10326000DF938C0180913F0290914002892B09F0FD
:103270004BC060913E0270E0623071052CF482E038
:1032800080933E0262E070E0E0913A02F0913B02EE
:103290004DB75EB741505F4F44275A959F01C0E03C
:1032A000D0E0C901860F971F4817590730F12196C2
:1032B0009C01C115A4E0DA07A1F78E1B9F0B0E94A9
:1032C000A532D0934002C0933F0290933D02809379
:1032D0003C020E944D28F80180819181A281B38136
:1032E0008093410290934202A0934302B093440220
:1032F000DF91CF911F910F910895209711F0C9018F
:10330000DCCF80E10E946C3B8DE00E946C3BCF9350
:103310002091380230913902232B91F4FC01C081B5
:103320008C2F90E0880F991F880F991F0E94A5325B
:103330009093390280933802C0933702CF91089559
:103340008AE00E946C3B80913F02909140029F93E3
:103350008F9321E030912702311101C020E01F92AC
:103360002F93209144022F93209143022F93209179
:1033700042022F93209141022F9321E0892B09F4DF
:1033800020E01F922F938CE096E09F938F930E94F2
:10339000C8328DB79EB70C960FB6F8949EBF0FBE7D
:1033A0008DBF0895CF93DF93EC0198814091370250
:1033B000A0913802B09139020BC0FD0184E0989FC2
:1033C000E00DF11D1124208131812617370741F0CE
:1033D0009F5F941790F380E090E0DF91CF91089584
:1033E000988382819381DF91CF910895CF92DF926C
:1033F000EF92FF926B017C0109C00E94941F292F5C
:103400006C157D058E052F0927FF09C08091BC0032
:1034100087FFF3CFFF90EF90DF90CF90089580E388
:103420000E946C3B24EA2093BC000E94F619809114
:10343000B90090E0A0E0B0E080319105A105B105B0
:1034400021F00897A105B10509F408958FE20E94C3
:103450006C3B7F928F929F92AF92BF92CF92DF92FE
:10346000EF92FF920F931F93CF93DF93782EC62F87
:10347000942EB52E822E0E94941F6B017C0120E8B1
:10348000C20E28E3D21E21E0E21EF11CC701B601E4
:103490000E94121A7092BB0084E88093BC00C7019E
:1034A000B6010E94F619AA24AA94AC0ECC23B1F05E
:1034B000C92DDB2DB12C8FEFA81AB80AAC0EBD1E9A
:1034C00094E8992E89918093BB009092BC00C7012B
:1034D000B6010E94F619AC16BD06A1F7C701B601E8
:1034E0000E94121A872D81608093BB0084E880932C
:1034F000BC00C701B6010E94F619DFEFD80D882085
:1035000009F15801CD2F84EC982ECC2369F09092CC
:10351000BC00C701B6010E94F6198091BB00F501FD
:1035200081935F01C15099F7F801ED0FF11DEF0193
:1035300084E88093BC00C701B6010E94F61980910F
:10354000BB00888384E98093BC00DF91CF911F91F9
:103550000F91FF90EF90DF90CF90BF90AF909F9032
:103560008F907F900895BF92CF92DF92EF92FF925B
:103570000F931F93CF93DF93D82FC62FB42E152F01
:103580000E94941F6B017C0120E8C20E28E3D21E2A
:1035900021E0E21EF11CC701B6010E94121AD0936D
:1035A000BB0084E88093BC00C701B6010E94F619F5
:1035B0000FEF0C0FCC23A9F0CB2DD12F10E00F5F14
:1035C0001F4F0C0F1D1F84E8B82E89918093BB00FC
:1035D000B092BC00C701B6010E94F619C017D1070E
:1035E000A1F784E98093BC00DF91CF911F910F91E7
:1035F000FF90EF90DF90CF90BF900895FB012FB721
:10360000F8949281141644F4982B809592839181BA
:10361000892381832FBF0895809598239283918178
:10362000892381832FBF08958036A0F567FD32C0BE
:10363000E82FE695E695E695F0E0EE0FFF1FEC5BD0
:10364000F94FA591B491109729F1877021E030E0EE
:10365000A90102C0440F551F8A95E2F7CA014FB76E
:10366000F89412963C911297662381F0382B282FFC
:10367000209512963C93129711963C911197232313
:1036800011962C9311974FBFBD010895282F2095B7
:103690003223EFCF8BE20E946C3BFB012FB7F894F3
:1036A0009281411105C08095892382832FBF08959F
:1036B000892B82832FBF0895FB012FB7F894928145
:1036C000411109C0382F3095932392839181892B22
:1036D00081832FBF0895982B92839181892B8183B9
:1036E0002FBF0895CF92DF92EF92CF93DF93EC013B
:1036F00061E088859985AA85BB85892B8A2B8B2BD0
:1037000009F460E08C810E94421E6B01E82E44E2C5
:1037100050E062E77BE188810E940628FC01C48AB0
:10372000D58AE68A21E0488559856A857B85452BBF
:10373000462B472B09F420E04C855D856E857F85FF
:10374000452B462B472BB1F430E0232BFC0123A360
:10375000488959896A897B89478B508F618F728F1D
:103760006AE070E04F96DF91CF91EF90DF90CF90BD
:103770000C94972830E1E9CFCF93DF93EC0162E717
:103780007BE188810E943528F894FC01278D30A1C7
:10379000232B69F44C815D816E817F81FC01438F15
:1037A000548F658F768F7894DF91CF91089584E15F
:1037B0000E946C3B8F929F92AF92BF92CF92DF920A
:1037C000EF92FF921F93CF93DF93EC01EF8CF8A061
:1037D000E114F10409F4F0C0F7018081918198A30C
:1037E0008F8F86809780A084B18411E0811491042A
:1037F000A104B10409F4A1C06C897D898E89412F8F
:103800000E944D1B8091450290914602F7019183E1
:103810008083F0924602E092450281149104A10453
:10382000B104E9F08B8D9C8DAD8DBE8D8816990607
:10383000AA06BB06A0F44F89588D698D7A8D411573
:1038400051056105710509F45BC08C819D81AE81D4
:10385000BF81480F591F6A1F7B1F166022C08BA1B2
:1038600031E081149104A104B10409F068C084FB23
:10387000992790F921E09227391709F443C04F891D
:10388000588D698D7A8D4115510561057105D1F10C
:103890008C819D81AE81BF81480F591F6A1F7B1F9C
:1038A0001460EF8DF8A1309709F077C02BA1488BF9
:1038B000598B6A8B7B8B2071212B2BA311FF5FC04F
:1038C000880D991DAA1DBB1D12FD52C025E130E3D4
:1038D0003B832A838C839D83AE83BF8388869986AE
:1038E000AA86BB868B8D9C8DAD8DBE8D881999095E
:1038F000AA09BB098C879D87AE87BF8781E011C06D
:1039000012608BA1EF8DF8A13097D9F4188A198A2B
:103910001A8A1B8A8071812B8BA3812F827011FDE3
:1039200034C0DF91CF911F91FF90EF90DF90CF9047
:10393000BF90AF909F908F90089510E05DCF30E0E2
:1039400096CF4281538164817581488B598B6A8BF4
:103950007B8B8071912F9460892B8BA311FF0FC0FB
:103960008C819D81AE81BF81880D991DAA1DBB1DD3
:103970002B2F84179507A607270B27FDA7CF4C836E
:103980005D836E837F8381E0CCCF40E050E0BA015D
:103990008C819D81AE81BF8193CFC280D380E48032
:1039A000F580872F4C155D056E058F0987FD07C0D3
:1039B0008BA1B701A601C9CF85E10E946C3B83E1D1
:1039C0000E946C3B8EE10E946C3B0F931F93CF9340
:1039D000DF93FC01A189B2898D919C911197928B03
:1039E000818B16968D919C911797C085D1852285E4
:1039F00021113FC02FB7F894AC0155275983488354
:103A00002FBF209145023091460211963C932E9390
:103A1000B0934602A0934502A189B289109759F547
:103A2000278530898217930741F083859485A58582
:103A3000B6850097A105B10531F480E0DF91CF9103
:103A40001F910F9108954481558166817781840F7C
:103A5000951FA61FB71F84839583A683B78382EE25
:103A60009CE19383828381E0DF91CF911F910F913D
:103A700008958883C6CF12964D915D916D917C918A
:103A80001597278530898217930741F083859485A0
:103A9000A585B6850097A105B10551F444835583EA
:103AA0006683778381E0DF91CF911F910F91089515
:103AB0000481158126813781800F911FA21FB31FBA
:103AC0002B2F84179507A607270B27FFE7CF8DE13C
:103AD0000E946C3BEF92FF920F931F93CF93DF9363
:103AE0007C0164EE7DE1DC018C910E9435288C0123
:103AF0000E94B128EC01F70184819581A681B781EC
:103B00008A839B83AC83BD83808591859F838E83CD
:103B1000F89419821882D80151968D919C915297F0
:103B2000892BB9F15396ED91FC915497D183C083C1
:103B30005496DC93CE93539780E090E07894892B51
:103B400039F4DF91CF911F910F91FF90EF9008957D
:103B5000C8010E94DA35D80112968D919C91139775
:103B6000825E9C41F1F08A819B81AC81BD8125EE12
:103B70003CE1F8013383228384839583A683B78352
:103B8000C801DF91CF911F910F91FF90EF900C949E
:103B90002C36F801D48BC38BD28BC18B81E090E0A3
:103BA000CDCF8A819B81AC81BD81F8014481558153
:103BB00066817781272F481759076A072B0B27FF44
:103BC000D6CF8DE10E946C3BCF92DF92EF92CF93E4
:103BD000DF93EC01488559856A857B852C858C812E
:103BE0000E94C5286B01E82E45E150E064EE7DE1BE
:103BF00088810E940628FC01C086D186E2868889D9
:103C00009989908B87878C899D89AE89BF898387A5
:103C10009487A587B68785EE9CE19383828368E0CD
:103C200070E0CF014196DF91CF91EF90DF90CF9080
:103C30000C949728B0990FC0809147029091480248
:103C4000019610920602109205029093080280934A
:103C5000070281E0089581E086BB80914702909140
:103C600048020196909348028093470220E030E892
:103C70003093060220930502909308028093070276
:103C800081E00895803678F5E82FE695E695E6958B
:103C9000F0E0EE0FFF1FEC5BF94FA591B491109788
:103CA00011F1877021E030E0A90102C0440F551FD7
:103CB0008A95E2F7CA013FB7F89412962C911297B1
:103CC00061110FC04095242312962C9312971196E0
:103CD0002C911197282B11962C9311973FBFBD0162
:103CE0000895242BF1CF8CE20E946C3B1F920F921F
:103CF0000FB60F9211240BB60F92EF92FF920F9313
:103D00001F932F933F934F935F936F937F938F9363
:103D10009F93AF93BF93CF93DF93EF93FF930DC028
:103D20007A0180918400909185008E199F0997FDFA
:103D30007CC07894B2999AC0F894C0912202D09134
:103D40002302EA81FB81309709F0ADC0EA8DFB8D3B
:103D50002C8D20838E859F85019709F4C1C09F8794
:103D60008E8788859985AA85BB854C815D816E810A
:103D70007F81480F591F6A1F7B1F4C835D836E83B1
:103D80007F8320832CA525FF0EC00C851D85012E69
:103D9000000C220B330B800F911FA21FB31F8887CB
:103DA0009987AA87BB87E881F981048115812681DB
:103DB0003781872F401751076207830B87FDB0CFEC
:103DC0007801F0932302E0932202A0912402B091A3
:103DD000250214960D911D912D913C911797872FD7
:103DE000401751076207830B87FFFD01DF01019038
:103DF000F081E02D0481158126813781872F4017BE
:103E000051076207830B87FFF1CFF983E883CD93D6
:103E1000DC93D0932502C09324028091840090917A
:103E200085008E199F0997FF84CF863A9F4F0CF02B
:103E30006AC0F0928900E0928800FF91EF91DF91D3
:103E4000CF91BF91AF919F918F917F916F915F9132
:103E50004F913F912F911F910F91FF90EF900F90F5
:103E60000BBE0F900FBE0F901F901895F894809185
:103E70008400909185009701281B390B2038314C24
:103E8000DCF12091260227FF43C09C01205C304ECC
:103E900030938B0020938A0024E026BB9093890006
:103EA000809388003ECFCE0119954C815D816E8153
:103EB0007F81811178CFE881F981E480F580F093EA
:103EC0002302E09322028091240290912502C817D8
:103ED000D90709F026CFF0932502E093240221CFE1
:103EE000CE010E94F431EA8DFB8D9C8D90834C8134
:103EF0005D816E817F81DDCF209127022111C1CFAD
:103F00008AE20E946C3B7894B299B0CFF89409CFC2
:103F10009C012854344F30938B0020938A0024E076
:103F200026BB7C01F39485CF2FB7F8946091840071
:103F3000709185008091470290914802B09902C02B
:103F40002FBF08952FBF7F3FE1F301960895789426
:103F50000E9485392FEF260F6623C1F0FC018FEFF9
:103F60009FEF31918327082E8295807F8025092E2F
:103F7000982F82958F700826869598278927880F15
:103F8000880F880F8025215060F708958FEF9FEFED
:103F900008956F927F928F929F92AF92BF92CF922D
:103FA000DF92EF92FF920F931F93FC0183818F9317
:103FB00082818F93848135014601680E711C811CBA
:103FC000911CD401C301BF93AF939F936F928181E2
:103FD0008F9380818F931F930F93FF92EF925F9344
:103FE0004F933F932F931F926F9381EC95E09F9394
:103FF0008F930E94C8328DB79EB744960FB6F8943F
:104000009EBF0FBE8DBF1F910F91FF90EF90DF906D
:10401000CF90BF90AF909F908F907F906F900895BA
:10402000CF93DF93EC016A8D662309F453C0FC0142
:1040300050E031E020E0A38DB48D4C91958D942318
:1040400009F0532B2F5F330F33962613F4CF2C85B3
:10405000922F952729F08D85852780959823D9F46F
:10406000888D5D8787FD03C0815070F1888F4C81FA
:104070005D816E817F8188859985AA85BB85840F46
:10408000951FA61FB71F8C839D83AE83BF8381E0DE
:10409000DF91CF910895982F909529238523822B26
:1040A0008C879E859830E0F621E0290F2E87FE014F
:1040B000E90FF11D87871092260281E08093490263
:1040C0008FEF888F5D87D3CF1092260291E0909377
:1040D0004902CCCF50E0BBCF0F931F93CF93DF9318
:1040E0008C0169EA70E2FC0180810E943528EC01B4
:1040F0000E94DA35F80184819581A681B7818C838D
:104100009D83AE83BF8340855185628573854887D3
:1041100059876A877B8780898D878C871E861F8A4F
:104120008EEF888F8485898F87FD10C0452B462BA5
:10413000472B29F4DF91CF911F910F910895CE0164
:10414000DF91CF911F910F910C942C368FE10E943B
:104150006C3BCF93FC01C481C930B8F44C2F50E0C4
:104160009A01220F331F420F531F455E5F4F69EACA
:1041700070E2FC0180810E940628FC01C28F20E1D0
:1041800030E233832283CF91089581E20E946C3B19
:104190000F931F93CF93DF938C0169EA70E2DC01E8
:1041A0008C910E943528FC01D80114969C91828D37
:1041B0009817B8F4292F30E0E901CC0FDD1F2C0F40
:1041C0003D1FEF01C20FD31FF801648580850E9457
:1041D000141B6B8F7C8F8D8FDF91CF911F910F916F
:1041E000089580E20E946C3BFC0144815581668108
:1041F0007781208580810C94C528CF92DF92EF9241
:10420000FF92CF93DF93FC01A085B18582858C93CB
:10421000968581E089278687C82FC170C688D78890
:10422000E08CF18C97859F5FD1899D1708F05FC066
:10423000892F869586958695DF01A80FB11D5A9620
:104240002C9130E0892F877002C0359527958A958B
:10425000E2F72170B701A601C217A9F033C0892F78
:10426000869586958695DF01A80FB11D5A962C91EB
:1042700030E0892F877002C0359527958A95E2F73F
:104280002170C2131FC04C0D5D1D6E1D7F1D9F5FF1
:104290009D1728F382EF93E2938382838481958133
:1042A000A681B781480F591F6A1F7B1F448355831E
:1042B0006683778381E0DF91CF91FF90EF90DF906D
:1042C000CF900895978784819581A681B781480F03
:1042D000591F6A1F7B1F448355836683778381E060
:1042E000DF91CF91FF90EF90DF90CF900895B701CD
:1042F000A601D0CF6F927F928F92CF92DF92EF92F2
:10430000FF92CF93DF93EC0160E08C810E94421E0C
:104310003B01882EC884D984EA84FB84D7FC24C05E
:10432000A601415F5F4F6AE771E288810E9406281B
:10433000FC01608271828282D686C5868C859D85CD
:104340009483838388899989AA89BB898187928785
:10435000A387B487DF91CF91FF90EF90DF90CF904C
:104360008F907F906F90089584E20E946C3BCF9273
:10437000DF92EF92FF920F931F93CF93DF93EC01A5
:10438000E885F9858A8580830E94941F3E8521E017
:1043900023272E872F852F5F2F87213009F45CC0BC
:1043A0002530E0F40C811D812E813F814A895B8993
:1043B0006C897D89DB01CA01800F911FA21FB31F89
:1043C0008C839D83AE83BF8381E0DF91CF911F916A
:1043D0000F91FF90EF90DF90CF900895CC80DD801B
:1043E000EE80FF80AB01BC014C195D096E097F09AD
:1043F0008E899F89A88DB98D481B590B6A0B7B0B41
:10440000DB01CA010296A11DB11DB7FD34C0B595EF
:10441000A79597958795B595A795979587950A89B7
:104420001B892C893D89800F911FA21FB31F8E8B82
:104430009F8BA88FB98F2DEF30E23B832A834C0DE1
:104440005D1D6E1D7F1D840F951FA61FB71F8C83DA
:104450009D83AE83BF83B8CF0C811D812E813F81A8
:10446000AB01BC01401B510B620B730B4E8B5F8B7E
:10447000688F798F9BCFDB01CA010596A11DB11D05
:10448000C6CFEF92FF920F931F93CF93DF937C01E0
:1044900062EE72E2FC0180810E943528EC011E85EB
:1044A00011FF07C0DF91CF911F910F91FF90EF9007
:1044B0000895F701048160857185F4840B3008F05C
:1044C00045C0FAE0FF1508F441C0402F50E04A967D
:1044D0000E948D3C1F86117312601E87802F880FEB
:1044E000880F880F898BFF0CFF0CFF0CF88A0023C4
:1044F00049F08A8D8F738A3229F487EB91E29B838E
:104500008A830CC08A899B89AC89BD898E8B9F8BDD
:10451000A88FB98F8DEF90E29B838A83F8940E94D5
:10452000941FDC01CB018058934FAF4FBF4F8C835A
:104530009D83AE83BF83CE010E942C367894DF9199
:10454000CF911F910F91FF90EF90089582E20E940A
:104550006C3B0F931F93CF93DF938C0169EA70E25A
:10456000DC018C910E943528EC01D8011496EC9165
:104570008F898E0F8F8BF8948E85E817D0F48E1B61
:10458000F0E03F96EC0FFD1FDE011F962FEF280F86
:1045900030E0205F3F4F2C0F3D1F91919D93A2175C
:1045A000B307D9F78E877894DF91CF911F910F9140
:1045B00008951E868EEF888F7894DF91CF911F919A
:1045C0000F9108957F928F929F92AF92BF92CF9258
:1045D000DF92EF92FF920F931F93CF93DF93EC0143
:1045E00044E250E062EE72E288810E9406288C016B
:1045F00078848C809D80AE80BF80CC84DD84EE8406
:10460000FF8461E0711001C060E0882D0E94141BDE
:10461000F80163877487858761E08C2D0E94421EB4
:10462000F80160877187828788899989AA89BB89FF
:10463000828B938BA48BB58B711018C091E08C1476
:104640009D04AE04BF04C1F080E0892BF801868789
:10465000DF91CF911F910F91FF90EF90DF90CF905E
:10466000BF90AF909F908F907F90089591E18C14B0
:104670009D04AE04BF0441F780E2E7CFCF93DF9300
:10468000EC018E8585FD0DC0688579858A8541E0C0
:104690000E944D1B8E85807381608E87DF91CF9144
:1046A0000895688579858A8541E00E945C1B8E8526
:1046B000807381608E87DF91CF910895CF93DF93D0
:1046C000FC01A385B4855C918785982F977021E0C4
:1046D00030E001C0220F9A95EAF7982F96959695AB
:1046E0009695DF01A90FB11D5A969C915A97458561
:1046F0004523E1F0292B5A962C938F5F90898917D7
:10470000E8F4878744815581668177818689978916
:10471000A08DB18D840F951FA61FB71F848395832D
:10472000A683B78381E0DF91CF9108952095292357
:104730005A962C938F5F9089891718F3EF01CF0158
:104740000E943E238E8588608E871092260281E02B
:1047500080934A0280E0DF91CF910895CF93DF9359
:10476000FC01A385B4859C9185858923E9F0868524
:1047700084608687878591E0980F9787803408F555
:10478000448155816681778186899789A08DB18D15
:10479000840F951FA61FB71F84839583A683B783B5
:1047A00081E0DF91CF910895868582FFE3CF178660
:1047B0008EE593E293838283CF01DF91CF910C94B6
:1047C0005E23EF01108ACF010E943E238E85886010
:1047D0008E871092260281E080934A0280E0DF916A
:1047E000CF9108951F93CF93DF93EC011889112384
:1047F00069F14E8545FD23C01F868EEA93E29B83B7
:104800008A838E899F89A88DB98D880F991FAA1FC9
:10481000BB1F880F991FAA1FBB1F4C815D816E8132
:104820007F81840F951FA61FB71F8C839D83AE8346
:10483000BF8311E0812FDF91CF911F9108954071C7
:104840006B857C858D850E94FE1AD6CF0E943E2303
:104850008E8588608E871092260281E080934A02BE
:10486000812FDF91CF911F910895FC0110922602B4
:1048700081E080934B02818D8160818F44815581DD
:104880006681778180859185A285B385840F951F88
:10489000A61FB71F84839583A683B78381E00895FD
:1048A0000F931F93CF93DF938C0162E974E2FC01B5
:1048B00080810E943528EC010E94DA35F80184815C
:1048C0009581A681B7818C839D83AE83BF838085CC
:1048D0009185A285B38588879987AA87BB87892B0D
:1048E0008A2B8B2B29F4DF91CF911F910F91089583
:1048F00084859585A685B7858C879D87AE87BF877C
:1049000080899189A289B389888B998BAA8BBB8B6B
:1049100084898E8B1F8ACE01DF91CF911F910F91D9
:104920000C942C36FF920F931F93CF93DF93EC01DF
:10493000F88483E08F15E0F04AE150E062E974E228
:1049400088810E9406288C0185E394E2F801938314
:1049500082836DEE73E18C810E943528F801958B7E
:10496000848BF08EDF91CF911F910F91FF9008956E
:1049700087E20E946C3BCF93DF93EC016B817C81DB
:104980008D8140E00E945C1B8D859E850E942818C9
:104990006E817F81888541E00E94FE1A8D859E850B
:1049A0000E94281869857A858B8541E0DF91CF9137
:1049B0000C94FE1A1F93CF93DF93EC01162F8D8575
:1049C0009E850E94281869857A858B8541E00E9422
:1049D000FE1A6E817F81888541E00E94FE1A8D85D6
:1049E0009E850E9428186B817C818D8140E00E9409
:1049F0005C1B8D859E850E942818688179818A813B
:104A000040E00E945C1B612FCE01DF91CF911F918E
:104A10000C9450188F929F92AF92BF92CF92EF92C8
:104A20000F931F93CF93DF93EC01480159011F921D
:104A3000EF92BF92AF929F920F937F936F935F938A
:104A40004F931F92CF928BEC95E09F938F930E9490
:104A5000C8328DB79EB70E960FB6F8949EBF0FBEA4
:104A60008DBFE11009C08C859D85AE85BF858816F8
:104A70009906AA06BB0688F48F898F5F8F8B9E8963
:104A80008917B0F4DF91CF911F910F91EF90CF90E4
:104A9000BF90AF909F908F90089588899989AA8937
:104AA000BB8988159905AA05BB0530F31F8AEACF93
:104AB000809127028111FACF86E20E946C3B9F927F
:104AC000AF92BF92CF92DF92EF92FF920F931F931C
:104AD000CF93DF93EC01C62E942ED52EB22E780103
:104AE0006C85862F8160A82EC11085C06A2DCE01ED
:104AF0000E94DA248FEF8B0DBB2009F46EC0670192
:104B0000C80ED11C69857A858B8541E00E94FE1A0A
:104B100008E010E08D859E850E9428186E817F81B7
:104B2000888541E00E94FE1A8D859E850E94281886
:104B3000110FE985FA8590818B85892391E009F42D
:104B400090E0192B688179818A8140E00E945C1B8A
:104B5000015001F769857A858B8541E00E94FE1A34
:104B6000CE14DF04F1F06B817C818D8140E00E94E6
:104B70005C1B8D859E850E9428186E817F818885AB
:104B800041E00E94FE1A8D859E850E94281868814A
:104B900079818A8140E00E945C1BF70111937F01BB
:104BA000B1CF69857A858B8541E00E94FE1A8D859B
:104BB0009E850E9428186E817F81888541E00E9431
:104BC000FE1A8D859E850E942818688179818A81C8
:104BD00040E00E945C1BF6011083CE01DF91CF9173
:104BE0001F910F91FF90EF90DF90CF90BF90AF900B
:104BF0009F900C94BB24CE010E94DA24092D1D2D18
:104C0000CA94D12CEFEFCE1ADE0AC00ED11EF801E5
:104C100061918F01CE010E945018C016D106B9F7DC
:104C200065CFDF92EF92FF920F931F93CF93DF93A5
:104C30007C01C62FD42E152FFC0164850E94DA2436
:104C40000FEF0C0FCC2371F0CD2DD12F10E00F5FA3
:104C50001F4F0C0F1D1F6991C7010E945018C017EC
:104C6000D107C9F7C701DF91CF911F910F91FF9035
:104C7000EF90DF900C94BB2449E150E06CE376E2C6
:104C8000FC0180810E94062824E939E2FC0133837B
:104C900022832FEA39E2338722870895CF93DC01FC
:104CA00014969C91149720E030E0C22FF901EC5C3F
:104CB000F94FE4919E1741F02F5F3F4F20313105AE
:104CC000A1F78DE20E946C3B87E980937A0028303F
:104CD000E8F420917E0081E090E00C2E01C0880F66
:104CE0000A94EAF7822B80937E004FE150E06EE455
:104CF00076E28C910E940628FC0184E996E2938377
:104D00008283C28F81E0858FCF91089520917D00AD
:104D10003C2F377081E090E001C0880F3A95EAF7A8
:104D2000822B80937D00E1CFFC0180917A0086FF89
:104D30000EC084819581A681B7818853984FAF4F6B
:104D4000BF4F84839583A683B78381E00895828DC6
:104D500090910002981781F09F3F59F780930002CD
:104D6000982F987090937B008770806480937C006C
:104D700087ED80937A00DDCF8FEF80930002209142
:104D8000780030917900858D968D891780F544895A
:104D90005589240F351F8F5F358B248B858F89179D
:104DA00060F18689978928173907C8F1808D918D20
:104DB00082179307A0F1138E1092260281E0809350
:104DC0004D02408951896289738980859185A285C8
:104DD000B385840F951FA61FB71F808B918BA28B65
:104DE000B38B84839583A683B78381E0089581E0A4
:104DF000358B248B858F8917A0F644815581668178
:104E0000778184859585A685B785840F951FA61F14
:104E1000B71F84839583A683B78381E00895838D2C
:104E20008F5F838F948D891738F2809127028111CB
:104E3000C2CF8AE10E946C3BEF92FF920F931F93C7
:104E4000CF93DF938C016CE376E2FC0180810E94BA
:104E50003528EC01F8948E8980FF13C07E01F8E0BC
:104E6000EF0EF11CC7010E94DA35F80184819581AB
:104E7000A681B7818C879D87AE87BF87C7010E94B7
:104E80002C367894DF91CF911F910F91FF90EF9086
:104E900008951F93CF93DF93EC01162FAC89BD8942
:104EA0001097B9F01296ED91FC9113978D919C910A
:104EB00011979D8B8C8B11961C921E9213961C92AF
:104EC0001E921297612FCD011995AC89BD8910975B
:104ED00049F71092260281E080934C02DF91CF9136
:104EE0001F910895EF92FF921F93CF93DF937C0160
:104EF000FC0110816CE376E2812F0E943528EC01E1
:104F0000F8948E8980FF09C0F70164816F8B8A7FD6
:104F100084608E8BCE010E944927CE010E94DA3533
:104F2000CE0108960E94DA351E8A8F8978941F92E6
:104F30001F921F921F921F928F931F921F921F9278
:104F40001F9383EF95E09F938F930E94C8328DB794
:104F50009EB70C960FB6F8949EBF0FBE8DBFDF9123
:104F6000CF911F91FF90EF900895CF93DF93EC01C5
:104F70000E94DA35CE0108960E94DA35EC89FD8967
:104F8000309751F0908181811382128211821082B8
:104F9000E92FF82F3097B1F71D8A1C8A188E1F8AC7
:104FA0001E8ADF91CF9108950F931F93CF93DF93C4
:104FB0008C016CE376E2FC0180810E943528EC01D3
:104FC000F8940E94B52781E08E8BF8018481958149
:104FD000A681B7818C839D83AE83BF8380859185B5
:104FE000A285B385888B998BAA8BBB8B892B8A2B47
:104FF0008B2B19F0CE010E942C36F8018485888F06
:105000007894DF91CF911F910F910895CF93DF9303
:1050100090913702891730F5C82FD0E0CC0FDD1FF3
:10502000CC0FDD1FE0913802F0913902EC0FFD1F2B
:1050300080819181892BB1F480913F02909140024F
:10504000892B81F471836083CA010E94A53220916B
:10505000380230913902C20FD31F9B838A83DF91BC
:10506000CF9108958BE00E946C3B90913702891795
:1050700088F4E0913802F091390294E0899FE00DC4
:10508000F11D1124808191818617970719F482817F
:10509000938108958CE00E946C3BCF92DF92EF9257
:1050A000FF92CF93DF93C0913F02D09140022097AF
:1050B000B9F121976E01E12CF12CA0913E02B0E0F4
:1050C0002097D9F020E030E040E050E0BA01809134
:1050D0003C0290913D02FC01E20FF31F4F5F5F4FD6
:1050E0006F4F7F4F2A0F3B1F820F931F9183808347
:1050F0004C155D056E057F0550F380913C02909143
:105100003D02CA9FF001CB9FF00DDA9FF00D1124F4
:10511000E80FF91F11821082909346028093450296
:10512000DF91CF91FF90EF90DF90CF900895FC0139
:1051300013821282118210826F3F710509F07CF494
:1051400080913F0290914002892B49F480913E0268
:1051500090E08617970714F460933E0208950E942A
:1051600000312FB7F8948091450290914602009744
:1051700049F0FC0140815181509346024093450221
:105180002FBF08958FE00E946C3BCF92DF92EF9289
:10519000FF921F93CF93DF936A017B016CE576E06A
:1051A000FB019491981749F0675F7F4FF6E06C3EE2
:1051B0007F07B1F784E30E946C3BFB013896949122
:1051C00091FF1AC030EAC3163FE5D306E104F104AB
:1051D00008F483C0C0E8CC16CEE7DC06C1E0EC06DC
:1051E000F10408F090C0D0E4CD16DFEBDD06E10459
:1051F000F104C8F414E022C0F8EBCF16F7E4DF06A0
:10520000E104F10490F0A0ECCA16AEE3DA06A1E0E6
:10521000EA06F10408F475C0C114BBEFDB06B4E084
:10522000EB06F10438F315E009C037EFC31638E098
:10523000D306E104F10408F05FC011E0FB013396EE
:10524000A591B491FB013596C591D491FB01379698
:105250003491E82FE695E695E695F0E0EE0FFF1F16
:10526000EC5BF94F459154918770E1E0F0E07F01EC
:1052700001C0EE0C8A95EAF7FB013196C590D490F7
:10528000892F8170A038B10509F44BC0EFB7F894AD
:105290009881977011F0191341C0188381112EC0A5
:1052A0009FB7F894622F70E0E601798368839FBF0F
:1052B0009C913160392B3C93DA0111969C911197A6
:1052C000E92A1196EC92EFBFB601DF91CF911F91C1
:1052D000FF90EF90DF90CF900895A8EDCA16A7E257
:1052E000DA06E104F10468F4B7EFCB16B8E0DB06A8
:1052F000E104F10408F4A1CF12E0A0CFE601288375
:10530000D7CF13E09BCFC114EBEFDE06E4E0EE064F
:10531000F10410F416E092CF17E090CF82E30E94E0
:105320006C3B83E30E946C3BFC0186898460868B26
:105330001092260281E080934C024481558166815F
:10534000778180899189A289B389840F951FA61FCF
:10535000B71F84839583A683B78381E00895FC01FA
:105360003897968990FF08C0608D678B9A7F94600C
:10537000968BCF010E94492780E00895FC01A0850B
:10538000B1859C9182858923D1F0818D8095817032
:10539000C9F4838D815031F1838F448155816681B9
:1053A000778187859089A189B289840F951FA61F6F
:1053B000B71F84839583A683B78381E00895818D89
:1053C000817039F389E09AE2938382838389948997
:1053D000A589B68984839583A683B783828D838FBD
:1053E00081E00895A789B08D56969C915697892F94
:1053F000817090FFE3CF648D57966C9357979A7F97
:10540000946056969C935697CD010E94492780E060
:1054100008950F931F93FC01A085B1859C91048191
:105420001581268137814385548565857685400FB2
:10543000511F621F731F8285892361F0818D8095C2
:10544000817059F0448355836683778381E01F918F
:105450000F910895818D8170A9F7438B548B658BD3
:10546000768B8EEB99E293838283CF011F910F910C
:105470000C94BE29CF93FC01C0816CEA7AE28C2F98
:105480000E943528FC01F894818D3389448955891F
:1054900066897894A085B1852C919285922321E02C
:1054A00009F420E01F922F936F935F934F933F93E4
:1054B000869581701F928F931F92CF9388EF95E00E
:1054C0009F938F930E94C8328DB79EB70C960FB6EC
:1054D000F8949EBF0FBE8DBFCF910895CF93FC016E
:1054E000C0816FE272E18C2F0E943528FC01F89494
:1054F00080A191A1A2A1B3A124A546855785608969
:10550000718924FD04C07695679557954795841B4E
:10551000950BA60BB70BB7FF07C0B095A09590955C
:1055200081959F4FAF4FBF4F7894B054BF93AF93C7
:105530009F938F931F92CF938DEF95E09F938F93BF
:105540000E94C8328DB79EB708960FB6F8949EBFDA
:105550000FBE8DBFCF9108950F931F93CF93DF930D
:10556000EC014DE150E06CEA7AE288810E94062865
:105570008C0168858C810E94141BF80160877187FB
:105580008287DF91CF911F910F9108950F931F9301
:10559000CF93DF938C016CEA7AE2FC0180810E9458
:1055A0003528EC010E94DA35F80184819581A681C5
:1055B000B7818C839D83AE83BF8380859185A285CF
:1055C000B3858F87988BA98BBA8B84858A8F882324
:1055D00061F1F80140895189628973894B875C8741
:1055E0006D877E8729E03AE23B832A838B8F84890B
:1055F0009589A689B789892B8A2B8B2BA1F482E008
:10560000898F6CE376E2F801808D0E943528988FAF
:105610008F8BF801848D8C8FCE01DF91CF911F91FC
:105620000F910C942C3683E0EBCF188E1F8A198EC5
:10563000DF91CF911F910F9108950F931F93CF93F7
:10564000DF938C01EC01A897CE010E94DA351C8211
:105650001D821E821F821A8A1B8A1C8A1D8A88A1AB
:1056600099A1AAA1BBA12CA54E855F8568897989DE
:1056700024FD04C07695679557954795841B950B37
:10568000A60BB70BB7FD40C0B095A095909581953E
:105690009F4FAF4FBF4F88A399A3AAA3BBA31E865A
:1056A0001F86188A198A247128602CA76D8D7E8D1B
:1056B0008F8D40E00E944D1B4CA544706A8D7B8D00
:1056C0008C8D0E944D1BD8011497ED91FC91119780
:1056D0003097A9F0409145029091460201C0F9012E
:1056E0002081318140839183F0934602E09345020B
:1056F0004E2F9F2F2115310591F71D921C92DF919E
:10570000CF911F910F910895B095A0959095819597
:105710009F4FAF4FBF4FB8CF0F931F93CF93DF93E0
:105720008C016FE272E1FC0180810E943528EC015E
:105730006CE376E2F80184810E943528BE01685D41
:105740007F4F4FB7F8942AA53BA5232B89F42DE171
:105750003BE23BA72AA7FC012489358939A728A762
:10576000758B648B4FBFDF91CF911F910F9108957F
:1057700089E10E946C3BCF93DF93EC0165EA7CE208
:1057800088810E9435286C8148855985FC012381D8
:1057900020FD06C0FC018081DF91CF910C94B31AEB
:1057A00081819281DF91CF910C9411262F923F92AB
:1057B0004F925F926F927F928F929F92AF92BF9221
:1057C000CF92DF92EF92FF920F931F93CF93DF93CD
:1057D00000D000D0CDB7DEB78C012DB73EB73D83EA
:1057E0002C8365EA7CE2DC018C910E9435289A8347
:1057F0008983F801F481FB83D80118968D909C90E1
:1058000019971C964D905D906D907C901F9740FC71
:1058100099C07694679457944794F801E088F1888A
:10582000C42CD12CFB810F2F10E0C8018C0D9D1DC5
:105830002DB73EB7281B390B0FB6F8943EBF0FBEED
:105840002DBF8DB79EB701965C01A981BA811396D1
:105850003C90A801B4010E948D3CB32DB170BE8371
:1058600030FE53C01501200E311E8101242DA401EC
:105870006B81E981FA81818192810E945F25C11447
:10588000D10409F453C0A6014E0D5F1DF10120E0C3
:1058900030E0D7018D917D018095908189238083AF
:1058A000DA019D91AD01892B81932F5F3F4F2C151C
:1058B0003D057CF3BE81B11139C06B81640DA5013A
:1058C000E981FA8180810E94B31A2C813D810FB653
:1058D000F8943EBF0FBE2DBF26960FB6F894DEBFDC
:1058E0000FBECDBFDF91CF911F910F91FF90EF9031
:1058F000DF90CF90BF90AF909F908F907F906F90F0
:105900005F904F903F902F9008951501200E311E0B
:105910008101242DA4016B81E981FA8180810E949B
:10592000291AC114D10409F0AECFC7CF6B81640D21
:10593000A501A981BA8111968D919C9112970E941F
:105940001126C3CF8CE10E946C3B44E050E065EA35
:105950007CE2FC0180810C940628AF92BF92CF922A
:10596000DF92EF92FF920F931F93CF93DF93CDB708
:10597000DEB77C01ADB6BEB6FC01C08065EA7CE254
:105980008C2D0E943528F701648140855185D4848F
:105990002DB73EB72D1931090FB6F8943EBF0FBE93
:1059A0002DBFEDB7FEB731967F01FC012381870142
:1059B00020FD2AC02D2DFC0180810E94291AFF9212
:1059C000EF921F92DF921F92CF9284EE95E09F9309
:1059D0008F930E94C8322DB73EB7285F3F4F0FB656
:1059E000F8943EBF0FBE2DBF0FB6F894BEBE0FBEDB
:1059F000ADBEDF91CF911F910F91FF90EF90DF909F
:105A0000CF90BF90AF9008952D2D818192810E94FB
:105A10005F25D5CF8F929F92AF92BF92FF920F9347
:105A20001F93CF93DF938C01FC0184858F77F82E31
:105A300065EA7CE280810E943528EC01F8018481CE
:105A40009581A681B781892B8A2B8B2BB1F580910B
:105A5000BC0082FF10C08F2D880F88838B818260ED
:105A60008B83DF91CF911F910F91FF90BF90AF90EB
:105A70009F908F900895F80180849184A284B384CC
:105A800061E089E10E94421E61E088E10E94421EBD
:105A90001092B900F0E88F16FAE19F06F6E0AF0623
:105AA000B10438F488E48093B80084E08093BC00AB
:105AB000D2CF8CE08093B800F8CF81E30E946C3B9A
:105AC00080912702882329F0823011F0109227025A
:105AD000089582E00E946C3B88E00E946C3BCF926C
