:100000000C94D5080C9402090C9402090C94020972
:100010000C9402090C9402090C9402090C94020934
:100020000C9402090C9402090C9402090C94020924
:100030000C94DE3B0C9402090C9402090C94020906
:100040000C9402090C94821E0C9402090C9402096F
:100050000C9402090C9402090C9402090C940209F4
:100060000C9402090C94B53B0C948B3B0C94020944
:100070000C9402090C9402090C9402090C940209D4
:100080000C9402090C9402090C9402090C940209C4
:100090000C9402090C9402090C9402090C940209B4
:1000A0000C9402090C9402090C9402090C940209A4
:1000B0000C9402090C9402090C9402090C94020994
:1000C0000C9402090C9402090C9402090C94020984
:1000D0000C9402090C9402090C9402090C94020974
:1000E0000C9402090C947A2A0C947F170C94D42057
:1000F0000C94A3370C9485300C94D32D0C942A3790
:100100000C94C3350C9400210C947E1B0C94292B69
:100110000C947F3B0C9496350C94D22A0C94EE1CD4
:100120000C9414310C9468300C94E3350C945A26DA
:100130000C9429140C9439190C94A0290C94F913DB
:100140000C9467300C94ED170C94C3210C94FE238F
:100150000C94C5350C9414160C949A300C94DA3423
:100160000C9421300C94B9120C94E61B0C94931946
:100170000C941E120C94B12C0C94F01D0C949E2423
:100180000C9449370C9416350C946A230C94782DF2
:100190000C9427380C94292E0C9402300C941439AA
:1001A0000C94CF130C9478200C941C200C94C72B27
:1001B0000C94E0270C94242F0C94E5340C94B82A6A
:1001C0000C9424160C9487310C94C02D0C943B1283
:1001D0000C94B92C0C947C140C94E22B0C940921F3
:1001E0000C9463170C94A0260C9447170C944D2282
:1001F0000C94152A0C94B5200C94BB290C94C13690
:100200000C94B9340C9448260C9491120C94792EC9
:100210000C947E270C947B2D0C94261E0C94CC36CB
:100220000C94BA230C94902F0C9428270C94AF199B
:100230000C9486210C94B5220C9441240C94162D18
:100240000C945B2E0C9468370C9435350C94C81BB9
:100250000C94EE220C9460390C94712F0C94B636E9
:100260000C9445130C94761D0C9400170C94CA2919
:100270000C94C6300C94C7130C940F310C94F11CE1
:100280000C945C240C946C2D0C94982B0C94462AA2
:10029000040000000004040000000004000000004E
:1002A0000000000400000000000400020000040040
:1002B0000400000407040400000404040000020217
:1002C0000000000204070004070704000404000003
:1002D00004000202040404040400000400040404F2
:1002E00004040404000400020304000404000400E5
:1002F00004000004000400000000000000000102EF
:100300000102F402C6300200010000006C2D03005F
:1003100001000000782D0400010000007B2D050085
:1003200001000000C02D06010001B10539190700C8
:1003300001000000AF1908010001F3029319090040
:100340000100000067300A020101AC0585300B0393
:100350000103F00268300C020102EE029A300D0235
:100360000002F4020F310E020002980514310F034F
:100370000003F002873110020002EE02C81B1105D3
:100380000005E9027E1B120200029805982B13015A
:100390000001F3027A2A14020002EE029112150201
:1003A000000298051E1216040004E502B912170592
:1003B0000005E0023B1218010001F302462A190869
:1003C0000008D802D22A1A030003D502B82A1B0259
:1003D000000298057E271C020002EE0228271D0459
:1003E00000049005E0271E010001F30248261F08C3
:1003F0000008CD02291420020002EE025A26210430
:1004000000039A05CF13220300029D05141623034F
:1004100000029D0524162404000494057C14250183
:100420000001F302C71326030003CA02F9132705CC
:100430000003C702E22B28040003C402B92C2903DD
:1004400000029D05C72B2A0400049405162D2B01DC
:100450000001F302B12C2C030003C10200212D0383
:1004600000039F05761D2E060006BB02F01D2F021D
:1004700000029805B52230050005B6027820310447
:100480000004A605D420320200029805B5203304EA
:100490000003B3024D2234050005AE02EE22350101
:1004A0000001F302792E360400038405242F37055A
:1004B0000005A9028621380400049405292E390379
:1004C0000003CA025B2E3A0300029D05712F3B0315
:1004D00000029D0502303C060006A302902F3D035A
:1004E00000029D0547173E0300029D0563173F0864
:1004F00000089B027F1740060006A302ED17410586
:100500000005960200174206000690025C24430391
:100510000003D5029E2444010001F3023535450253
:100520000002EE0296354602000298051635470392
:1005300000029D05273848040004900568374903E8
:100540000003D502E5344A010001F302A3374B0250
:100550000002EE0260394C020002980549374D0155
:100560000001F302CC364E020002EE0214394F02B3
:10057000000298052A375000010000007F3B51001F
:100580000500000004020704000002000204000746
:100590000400000404000000040404040704070429
:1005A000000204040400040400040401070400041D
:1005B0000200000000000000060002026740038401
:1005C00005661D0687056540038D056414049005C6
:1005D0006317049405620A0298056140029D056054
:1005E00040039A055F40029D055E40029D055D1037
:1005F000039F055C1104A2055B1104A6055A0D02B8
:10060000AA05590B01B105584001AC05571204ADBC
:1006100005560B01B105551002B205541503B4057A
:10062000004002B705530E02B905520901BB05513E
:100630000600000028292A2B2C2D2E2F5051525312
:100640005455565720002300260029002C002F0067
:100650003200000100000301060109010F470044B8
:1006600000450080013548004400450020010D8808
:10067000008000810080000E8A0080008100200040
:100680000F8C008000810008000CB300B000B100A6
:1006900080033EB400B000B1002003239800900016
:1006A00091008000249A00900091002000259C0079
:1006B0009000910008003BA800A000A10080003C31
:1006C000AA00A000A10020003DAC00A000A10008ED
:1006D000005B28012001210180005C2A012001210A
:1006E0000120005D2C0120012101080078DA9D59CC
:1006F000E98EDCB8117E15AE0023D960C66849AD1D
:100700003E26F08FB9BC71ECB167DD9E3840100811
:100710001A89DD4D8CAE15A53976E1774F158B978B
:10072000D46D2F1003468B64B148D6F1D5317F04C8
:1007300059DB0667C1FB52B42DEF8293E07E106552
:10074000913EF24E8AA696B0B4CBF333F6D75F2E25
:100750002F7F66C9EBF9EB19BB17F5D08B52E2EC92
:10076000C73B76A1873FB3E875B4781DCDC2C52CD1
:100770008C126095375595D50530F923C8CAB2C992
:10078000B39EA78D2824CB9BA1EEDFBCCA83B315F3
:100790009ED8F770549AE50F0C5661DA5B9F2F3D97
:1007A00082A230046D23D58FA8DFBC1A583B946514
:1007B0003AB4B461ED36FC36F0EEC5F2840B3C2061
:1007C00075C7659FF6227F9034EABBAC9695E853D7
:1007D000732A1335BC5F9F0F17CC4B9E75A9DC0F96
:1007E0007DD13CD5C159844FABB76207377A2EE330
:1007F00079628E90AD48E933385BCE1C559D95CD1E
:100800002E15B5BDBDBA7670163B4EFACA868286E5
:10081000A99343E2D8A949DE8D998D64902C2D715E
:100820002176A2CFCAB419FAC986C7AC1C388E0B80
:10083000BECD86B24FED44953DA7C5D0653D5880ED
:10084000BA67E8F871D067DFB4235EF9E8F0686151
:1008500089F7C57CBE5CCD0C7127537D36371FC52B
:10086000DC7E25F66B61BF96F68B97D98B555A7057
:10087000B688ED2122CA9911FADC4D974246C5D3BC
:1008800051CDAC2D51D50EEB28B11704568ECA3D73
:10089000A3E64D2B9E7939116091F5592AC5EF20B9
:1008A000B3FD005ED1A72838CFB0248729517BD76C
:1008B0004E12CBB47DAA8E28257F0163733CB44AC7
:1008C000F6C354493073A0A5B9BB313C77CA18FDB3
:1008D000AB178F3CDD8BDD5EBD305EF9F460A5BBF0
:1008E000921FCA8BD9B5B47F6939C9261EED349ED3
:1008F000716CB35E4A2BB97BF3EA6F0005F178EFB8
:1009000093E8F7208634975689B1B336D92FD7911B
:10091000554F6EED47E6E583FD1685FD7CA9F37422
:100920006C2A2CAF8AF4C07A66DE091C81CF5E1D6A
:1009300086A936EA4274E6930041113BAAA194DCF1
:10094000631AB987F57BDE550DF8697B54A2FEB2B8
:1009500013EAC23DBBAFF221EBAC6D74CFE98193DA
:10096000B3DE4EA2E5F5A2E264610E52FA0EE5E1B5
:10097000C40A8F2EF8FD00F6DC00E4AFCD08B8EC19
:10098000942D937E424BD6F10CF0B62B7887E7017D
:10099000F8760406912178EA44CF0F28D068893090
:1009A0003C0978C5BB1DAFF3971451032E01538446
:1009B00020E9BEA9F80136CBAC6A7D07D0638BCCA9
:1009C00063EC86AB3BD4A2E75A197762B7E31D3ECE
:1009D00042A27F203025EE701519E04E59CFAD8030
:1009E000A2F949B01580D5E0D229C990E55D4E162F
:1009F0007312ECC09BD53D41C87AA468C01D68380D
:100A0000B4A805F0C39340035F2AE1BC142CD0E2E4
:100A10003A7E939C17D1840C5560C89C3A162044AA
:100A200084A5AA29C4F625055D5B5E1D572EC574F5
:100A300078821BE0AAF6B2356D231D8EE9712E2D4A
:100A4000B9068D1911AAED83F49110860AC74046A4
:100A5000F88BEAE5926C7D1EB95DB2D9F64F59C7A5
:100A6000FDEDE09FD6278BCC7C1EE3B4488893B67F
:100A7000A5E9F3E7F8FC82D73D3C9E35DB2D1CA8A9
:100A80009CDAC6455837F0ACC468B599C4DECAD004
:100A9000164ED3943CEC07EF98047446263189E84F
:100AA000237B83DBAE2774CA8406875D8B952598EC
:100AB00006FDFFD3C62B67E31AF4DD0812971D6C01
:100AC000DCF3FCC14B15E2D0DC619229D81BB40DDC
:100AD000C0C8F47C2F4A2D0C8371109D0863B91A8D
:100AE000934D65B15C9AF549989DF2492674078C3F
:100AF000AC760EE2D477923A7444084B624B1259AA
:100B00004686C13164FE0E0F4FF023B9D300220296
:100B10000045E1897D41521BF8B19CCB9ED1F8E99B
:100B20004098982D936CC0925B5D832B58620C3F6C
:100B3000D65151C184B8C62BF6CAC3E05700A6C12E
:100B4000CB55220299F64C7FAAFD0465D3F36003CE
:100B500050218DFF8649C208F78E0F88D40B54F6BA
:100B600062798E5219D8B4A04D357FD65780006B6C
:100B70003D5E7484C121111979FC495A045201DB8C
:100B8000F032144CE5B7CEE29D872F43A2F330C27A
:100B90005B8DE76675848238A55110F0977B180647
:100BA0005B166ECB3108AC846C0CF0558D14C752BB
:100BB0009703A60B7D8FEFBF23062BA0ACE847C1A0
:100BC00025598FA98EC7966485542AFF4931800123
:100BD0002E0ACC26ADE3856B47A0C2265A2F0556B8
:100BE00066E3AC17756107B0D4D9CB48D40ADE6D83
:100BF000F42180068DE8DD284374D9231E0026B138
:100C00007274BD9F15F1B6E9744826EF55636B24E5
:100C1000FCB915A0123F01585B4E9357F844805A17
:100C2000142E8EF9B1E703F36F26D3C2FAF6FCEA6D
:100C300032BD39FF37E64F98085EDC6DD2DB771F97
:100C40003788585043DF5EC427B71711FC0F036F76
:100C5000B17F528B57B393DB2B5CB8FCF0E9F27D8C
:100C6000FAF6F3F5AFE82E33F5EF24B8B9BC03AAD2
:100C7000ACAFF82E8B92C50C086FBFDED069115651
:100C8000149FAF2FAFDFFDEB3AFDFAEEE3D5A7AF30
:100C9000A8B6082737D79F61926EC13B919578D649
:100CA000359C758D67C1EABBF30FE9C5F9DD15B257
:100CB000A1A3365FCEBF6CD2CDDDCDE65758D95C4F
:100CC000E3CAE21BA64D032472AAD450D5BC4E0F32
:100CD000F053BD61063460D338BE3D9F0567FF9970
:100CE0009DACFE0BD7BCC0EF157D5FE23780801A4C
:100CF0005CE100122E35B8C601D4C26AF016077343
:100D0000BDFF1735D00CFE81834433F8270E967A49
:100D1000CF7B758CDEF3410D70CFB71134409EADA3
:100D20001A11611CC770E3932093C96CBE2C540E3A
:100D3000D1973C9985D13D3C58EFD2CF53FAC3E7C8
:100D4000614C1268821DE4CBA928B4D299328E2D51
:100D500085622A7ECF4BB4F1176672C98200F332E6
:100D6000AB59DDF40C8C9D216030C0380236A66C86
:100D7000963DED057C93ED49D682F7C04984C8665F
:100D8000EF20B98A6D5DC8B64DC7C00CFE6EC64275
:100D9000E26AA1E6D594241783AD7FE9312040A112
:100DA000B4830B41F591F5489DE96B525948E9B17F
:100DB0002696488A264F493CCDAAD8A158C34D79DA
:100DC000CD4CE564F783D15D52C787B5590726C777
:100DD00078D7359DCA8FCD42C72184C95EF57DDEA7
:100DE00066F0DE82F50D53488175BC72706AFABCFC
:100DF000A300CB4C63C4F56928CE519E63A874ABA5
:100E000049A5E66E0EC8F02A59C5214852856616D6
:100E1000ABE6919BDB302CE2D1A3DDB22DF96D91D5
:100E20004F887FB0AE334B7B7EEC5D0004C8C8ECCE
:100E3000B06632B3589B1BDC8896A3799DDBE47BBC
:100E4000D1EA8DF3704C002A185AF7264955BFA1F4
:100E50001865371E17AC066EB267B4D395112855C6
:100E6000E2379087673BCEA04483586414062C6F0A
:100E700084446B92905C16438925226CC6D0CD3495
:100E80002A2AC3E78F1C358151FBFB1BF6595728D3
:100E900063D7D45888DEA0F85536C3E0ABDB96CDD7
:100EA00013A5431FC1CA3346CF41F752A8329F2C26
:100EB00080DDD30256BBFE82A85B4A1AA815A49611
:100EC0006ABCA99B9E2BF4B4D6DF76CD0E8459C1A3
:100ED000D5337CDB16A22EDC1284CDD171B1EDF6B8
:100EE00099EB47A1B1A267C131286A50035A32D6A3
:100EF000421B4B70201DF624CA1282510EFC463D47
:100F00001B0AAF6EA795D00F766004DB8017920E98
:100F1000D5059042544365E68C73E0AD4C5F465571
:100F200088C04CF9ADC220BF97B9D18EDC370DDB3C
:100F300066EA75F4322C88BFF82685220342D589EB
:100F4000A2FED117250FDC0971587255E0DFD5726A
:100F500068311673726A85A4D896FD9AF5F9BE6851
:100F60007624C59FA846538D61A86186FA0118238F
:100F70002250BFD19B976E012C937C04204302D258
:100F8000A10743948722586AFDBAD60E015653979B
:100F900080718FC020BB2F0D74D9E75399CC74F2A8
:100FA00041EDDE49B97DC63E01784200BCC77C6197
:100FB0008BED16F913A525AA976D715477B80BEA36
:100FC000A1482C5A6B400832991C967109133C00B9
:100FD0007FD5B5FC787EF99EDA5DA6E1A3F2349464
:100FE000669975184E302F3D928CA00AC9E0B17DEC
:100FF000A61198DC0953308856072D260C579031DE
:10100000C4E12A4954F4D383850A7F345824CA1E84
:1010100060B0582CE13BFE069C4A9183A8617F801A
:10102000CDFE5F6E3F3CC6812A245A00114EBD7D25
:1010300053EA8E1A2ACAF9D36395CC3A762DFAD19F
:101040008ECCAB63995AA144F55435CA55C1E2F22E
:10105000C2956D774234D3BD189539AA960DCE1935
:1010600035AB741C6026B50512EC56DD36551EFFF7
:10107000E8D67A87FE48DDE9A7D1DAF5C924F883F6
:101080006D7BADD6AECD34E2BC6FA0A4DC1D9EE17D
:1010900077B14038A1EBDCA446CC5EE5ACC6249623
:1010A00075E29A231EA9ED9250A6FF1A49B1CBE32F
:1010B00004C2A6C98C9649E4B54CF4AB4C2534E483
:1010C000B96AD9E4A80DE00667F95DC3D54A593C71
:1010D000B824244E50E0F80587C4285BE77CD2731F
:1010E00039C584C3DF33AAFA5D09AC0B7793D653B5
:1010F000F9E8B3BC1F146817D4D980DC05FC3C3573
:101100005145D2D34E3131930E0F4D2BE6B81CE230
:101110006335E58132FCBE81A795530CEA7E11F759
:10112000675A9CABE4B2EB55B6B70A29D594CEF416
:10113000E450E91FF91B59D8DC9565939A8D7A5BC9
:1011400090B2AE67131018EBF3A86F0E84ECA4E412
:10115000C8ABE40E1F80351C7966E85767CED8F31C
:10116000CC968A47DBB19E2363B542BD53467F9B35
:10117000187C2F4F0083F45F23018378BCBC9FCD84
:1011800096A785E8FA97D36816CD6771B44A676168
:10119000B80E17A7DBC7D3ECF73084AF75B40ABE1F
:1011A000FD0F4D12AB7DBA0A000011241FBECFEF18
:1011B000D1E2DEBFCDBF00E00CBF14BE0FB6F89485
:1011C000A895809160008861809360001092600013
:1011D0000FBE12E0A0E0B2E0EAE7F9E700E00BBFE3
:1011E00002C007900D92AA32B107D9F723E0AAE214
:1011F000B2E001C01D92A839B207E1F70E94B31F07
:101200000C94BB3C0C940000CF93DF93CDB7DEB7BA
:101210006A970FB6F894DEBF0FBECDBF0E94A01F25
:101220006B017C019E012F5F3F4F1901AE01475FAB
:101230005F4F5F874E8780912602882309F42DC671
:101240000E94A01FC61AD70AE80AF90AF8948091EA
:101250002602882351F08FEF8093260278940000B5
:10126000F894809126028111F9CF78940E94A01FF2
:10127000A7019601260F371F481F591F2C8B3D8B46
:101280004E8B5F8B81E08093260280914C028823F5
:1012900009F43EC010924C028FEF898368E476E235
:1012A000C1010E94DE198C01892B91F1D80156965B
:1012B0008C9182FFF3CF0E94A01FF894F801378928
:1012C0002689422F4B7F468B78949F938F937F93F1
:1012D0006F931F923F9321701F922F9389811F92CA
:1012E0008F9323EF35E03F932F930E94D4326DB755
:1012F0007EB7645F7F4F0FB6F8947EBF0FBE6DBFA1
:1013000068E476E2C1010E94DE198C01892B71F636
:1013100080914D028823F9F010924D028FEF89835E
:101320006AE576E2C1010E94DE19FC01892B99F081
:10133000958D868D9813F4CFF894858D968D8917A9
:1013400009F4A8C678946AE576E2C1010E94DE1924
:10135000FC01892B69F7809149028823F9F01092EA
:1013600049028FEF89830FED15E065EB70E2C10153
:101370000E94DE19009791F0DC0158962C912F3FC6
:10138000A1F7F894FC012685211151C5789465EBED
:1013900070E2C1010E94DE19009771F780914A0244
:1013A0008823D9F110924A028FEF89830AED15E064
:1013B0006EEE72E2C1010E94DE19009771F1DC014C
:1013C0001E962C911E9723FFF3CFF894FC012685DF
:1013D000277F268778949C01265E3F4F3F932F936B
:1013E00050968C918695869586951F928F938981CC
:1013F0001F928F931F930F930E94D432EDB7FEB7C5
:1014000038960FB6F894FEBF0FBEEDBF6EEE72E2D7
:10141000C1010E94DE19009791F68091560288233F
:1014200009F446C0109256028FEF898300ED15E053
:101430006BE57EE2C1010E94DE19FC01892BC1F13E
:10144000848D80FFF5CFF894948125813681478182
:10145000548965897689A789B08DF18CE28CD38C0B
:10146000848D8E7F848F7894DF92EF92FF92BF936A
:10147000AF937F936F935F934F933F932F939F937C
:1014800089811F928F931F930F930E94D4322DB79F
:101490003EB7205F3F4F0FB6F8943EBF0FBE2DBF43
:1014A0006BE57EE2C1010E94DE19FC01892B41F649
:1014B00080914B02882309F450C010924B028FEFA9
:1014C0008B87AE01455F5F4F2A016EE974E2C2016E
:1014D0000E94DE195C01892B09F43FC0D5015996A1
:1014E0008C91599780FFF1CFF894F5016480758055
:1014F00086809780818D8E7F818F789458968C918D
:10150000813009F401C308F4E1C2823009F4A1C2B8
:101510008330D9F6CB8419821A82910142E061E0CE
:10152000F501848995890E941A1509811A8110276D
:1015300001271027F02FF670EF2E20E030E0B401E5
:10154000A301C5010E9416256EE974E2C2010E9442
:10155000DE195C01892B09F0C1CF809158028823E4
:10156000E9F0109258028FEF8B879E01255F3F4F65
:10157000290119E0D12E02EFE02EFF24FA9406C0D3
:10158000D8011E968C911E9780FDEAC266E175E334
:10159000C2010E94DE198C01892B91F780915902BA
:1015A000882309F462C0109259028FEF8B87FE01E5
:1015B0003B962F0177247A9465EE74E3C2010E9472
:1015C000DE198C01892B09F450C0D8011E968C912C
:1015D00082FFF2CFF894F80184809580A680B780CE
:1015E000D1881686118A789480859185A285B385E5
:1015F000881A990AAA0ABB0A7801F2E1EF0EF11CD7
:10160000D801DD2091F056968C91F801E80FF11D7C
:10161000778A108E118E8D5FF801868B823308F0E9
:10162000AEC0DA94D801D110EECF1F968C918823EA
:1016300009F4B0C1813009F4C6C3823009F4D6C4BC
:10164000D80156968C9190E0C2970CF4B5CF6B857B
:10165000C80142960E94CF3865EE74E3C2010E9431
:10166000DE198C01892B09F0B0CF80915A028823B2
:10167000D1F010925A028FEF8D87FE013D966F01D7
:1016800032E7932E44E7B42E06C0D70152968C91D0
:10169000529780FDDCC269E477E3C6010E94DE193F
:1016A0007C01892B91F780915B028823E9F01092ED
:1016B0005B028FEF8D879E01235F3F4F690117E02B
:1016C000612E0FEA702E88EA882E06C0D8011E9679
:1016D0008C911E9780FD19C36AE277E3C6010E94D0
:1016E000DE198C01892B91F7A895809174028823CB
:1016F00029F080E480936000109274021091350309
:10170000112309F473C000912A0200FD12C01530A4
:1017100008F46CC0B0907502CB2C8BEF8B0D8C3322
:1017200008F4E2C3EEE7CE1609F475C50160009334
:101730002A02412F50E06EE770E085E792E00E94B8
:101740008C3C009739F00E7F00932A028557924017
:1017500011E0180F01FD0CC0902F926090932A02A7
:101760008FE795E09F938F930E94D4320F900F9054
:10177000B12EDD24DA9480E0EB2CF12C1EC06B85B9
:10178000C7010E94CF38DA944DCF90E0402F50E04F
:10179000481B590BB701680F791F6B587D4F8B5849
:1017A0009D4F0E94A23C10922602802F9FB7F89472
:1017B00020913503121761F09FBF10913503012F5F
:1017C0000B1919F79FB7F894209135031213F4CF32
:1017D000009335039FBFF1E0DF1208C08FE795E06B
:1017E0009F938F930E94D4320F900F900E94A01F5E
:1017F0006B017C012C893D894E895F89621B730BCB
:10180000840B950B8090330290903402A0903502A7
:10181000B09036023FEF831A930AA30AB30A80926C
:10182000330290923402A0923502B0923602409078
:101830002F02509030026090310270903202460EBA
:10184000571E681E791E40922F02509230026092FD
:101850003102709232026115710541E084079105F1
:1018600008F020C39B01AC010E94E93BDC01CB01E5
:1018700081509F4FAF4FBF4F892F9A2FAB2FBB2760
:1018800040912B0250912C0260912D0270912E02FA
:10189000840F951FA61FB71F84179507A607B707C4
:1018A00018F48FEF9FEFDC0180932B0290932C02B2
:1018B000A0932D02B0932E024091520250915302F8
:1018C00060915402709155025C546B437B4F2F2DF5
:1018D000C416D506E606270B27FDADCCBF93AF9304
:1018E0009F938F937F926F925F924F92BF92AF922E
:1018F0009F928F928BE196E09F938F930E94D432B8
:101900006DB77EB7625F7F4F0FB6F8947EBF0FBE94
:101910006DBF8091520290915302A0915402B091F8
:101920005502C816D906EA06FB0698F480914E02C5
:1019300090914F02A0915002B09151020196A11DC9
:10194000B11D80934E0290934F02A0935002B0932A
:101950005102C0925202D0925302E0925402F0928D
:10196000550210922B0210922C0210922D0210920E
:101970002E0210922F021092300210923102109219
:1019800032021092330210923402109235021092F9
:10199000360251CC82E389831A820E94A01F6B0118
:1019A0007C01910142E061E0F801848595850E9407
:1019B0001A150E94A01FDC01CB018C199D09AE09EC
:1019C000BF0981329340A105B10508F022C2998177
:1019D00097FD5AC2C818D908EA08FB08D8015096E2
:1019E0008C918823C1F02FEF280F41E050E002C016
:1019F000440F551F2A95E2F7052E000C660B770B56
:101A0000C40ED51EE61EF71E04C0F694E794D794C4
:101A1000C7948A95D2F7BFEFCB16D104E104F10445
:101A200008F094C22A8130E0220F331F892F90E002
:101A3000982F8827990F822B932BF8012689E20F84
:101A4000F11DC78A808F918F2D5FD80156962C93F8
:101A5000F7CDCB8481E089831A821B821C8291019D
:101A600043E061E0848995890E941A1569817A8131
:101A70008B819C810E941B3CBB27A92F982F872F0D
:101A80009C01AD0144275527288B398B4A8B5B8BF2
:101A900037E039831A82910142E061E0D501549622
:101AA0008D919C9155970E941A158A81982F9C7F41
:101AB00088898170E92EE82A088919892A893B8951
:101AC000B401A301C5010E941625FFCCCB84198265
:101AD0001A821B821C82910144E061E0F501848935
:101AE00095890E941A1569817A818B819C810E9457
:101AF0001B3CF62FF770EF2E8B019C01B401A30164
:101B0000C5010E941625E1CC2B85288B3CE039834A
:101B10001A821B821C82910144E061E084899589CC
:101B20000E941A1569817A818B819C810E941B3CDD
:101B30006B017C01BFE0B9831A82910142E061E050
:101B4000F501848995890E941A159701860133272A
:101B5000C888EA80B401A301C5010E941625B5CC4E
:101B6000CB84F1012D2D11922A95E9F7E98291019B
:101B700049E061E01C968D919C911D970E941A1579
:101B8000D80153968C9190E0FC017496E00FF11F00
:101B90003B81232F207FE1F0203FD1F0F482F382BC
:101BA000F282F182F801E80FF91FF48AF8018389C3
:101BB0008B5F838B803308F003C2D8011E968C9113
:101BC0001E978E7F1E968C93C8010E94F538DECC3E
:101BD0002D81422F407F09F0B5C15F81452F407FA5
:101BE00011F0403FD9F648854039C1F649854F7715
:101BF000B42EB0E2B41790F2D801A80FB91F4A81F1
:101C000054964C938C8181838E818283852F90E0C2
:101C10003F71AC01440F551F42955295507F542798
:101C2000407F5427342B3383880F991F880F991FC7
:101C300080762F71822B8483D80153968C91539791
:101C40008B5F53968C93803308F4C0C1BAC1AD84C6
:101C500050968D919C915197C09748F1B982D701C8
:101C60001C96ED91FC911D978701085E1F4F20E3A4
:101C7000A10161E080810E94351A80E3F701878B22
:101C800080899189C097918B808B6A2DC70143967B
:101C90000E94CF38D70150968D919C915197C09753
:101CA00060F11092260281E080935A02F4CCD701B1
:101CB0001C96ED91FC911D979B86810122E0AE015F
:101CC000455F5F4F61E080810E94351A89818F7185
:101CD00090E0982F88272A81822BF7012685378567
:101CE0002817390710F497878687D70151969C9358
:101CF0008E935097C0970CF0B1CFF70182898E7FF9
:101D0000828BC7010E944139C6CC4D84F101262D3A
:101D100011922A95E9F77B861C8689825396AC90AE
:101D20005397B12C750134E1E30EF11CE00EF11E66
:101D3000910147E061E01C968D919C911D970E9456
:101D40001A159E01255F3F4F42E061E0D8011C96C5
:101D50008D919C911D970E941A158C85B82FBF7389
:101D60005B2E8074982EF801EA0DFB1D8A81848B0E
:101D70008B81F70181838C8182838D8183838E8126
:101D800084838F818583D80153968C9153978A5F82
:101D900053968C938F3208F0A4C1992031F0F8014A
:101DA000818992890196928B818B552009F493C188
:101DB000D8011E968C911E978E7F1E968C93C8011B
:101DC0000E94F53889CC8FE789838EEF8A830E9441
:101DD000A01F688B798B8A8B9B8B910142E060E01E
:101DE000F801848595850E941A150E94A01F6B0139
:101DF0007C01DC01CB01288939894A895B89821BF6
:101E0000930BA40BB50B81329340A105B10508F4E7
:101E1000AAC0D80156968C91F801E80FF11D778A77
:101E200092E0908F118E8D5FF801868B09CC318DF9
:101E3000308F7894AC01415F5F4F5F934F931F9257
:101E40002F93FC0187891F928F9389811F928F9313
:101E50001F930F930E94D4322DB73EB7265F3F4F9A
:101E60000FB6F8943EBF0FBE2DBF7FCA2E853F85AB
:101E7000E217F30709F0FEC0809590E02A8530E074
:101E80008217930709F433C1D80156968C91F80153
:101E9000E80FF11D778A93E0C4CFCC8ADD8AEE8A01
:101EA000FF8AF0C96115710550E18507910508F0B9
:101EB000F8CC8B019C0101501F4F2F4F3F4F5527EE
:101EC000432F322F212F0E94E93BDC01CB014091AF
:101ED0002B0250912C0260912D0270912E02840FE2
:101EE000951FA61FB71FD8CCD09076028D2D807F6E
:101EF000803109F017CC1B1508F478CC8B2D90E0BD
:101F0000FC01EC58FD4F20812E3709F00BCCFC0171
:101F1000EE58FD4F4F01FC01ED58FD4F9081D4016B
:101F20008C91292F30E07901F82A6DEF6B0D85E750
:101F300092E00E94B61FE816F90609F46EC1C0903F
:101F40007502F0CB403F09F029CE47CEF8018689D3
:101F5000E80FF11D778A91E0908F118E8D5FD80187
:101F600056968C936DCB80EC89831A82910142E066
:101F700061E0D8011C968D919C911D970E941A15C5
:101F800049812A81942F9227892F82958F709827D3
:101F9000892F869586958927982F9695892780FD84
:101FA000BAC046FFC8C0F8018689E80FF11D778ADC
:101FB00025E0208F118E8D5FD80156968C9340CBF3
:101FC000B12C6C2DC8010F960E94CF38BEE1BB1515
:101FD00008F02FC2F801818992890196928B818B3A
:101FE0001092260281E080935802D0CAD8011C9634
:101FF000ED91FC911D976480B281B88B2381288F6D
:1020000040E06B2F722F862D0E94591B0E94A01F4B
:102010006B017C0130E1C30ED11CE11CF11C0E945C
:10202000A01F2F2DC616D706E806290B27FFF7CFCE
:10203000F89441E06889788D862D0E94591B0E9492
:10204000A01F6B017C017894D101EAE01D92EA9512
:10205000E9F7F4E8F98323E22A8391014AE061E099
:10206000D8011C968D919C911D970E941A15FE0116
:10207000339685E09191892728E030E005C0880FEC
:102080002150310909F4F2CE87FFF9CF880FBDE165
:102090008B27F6CF548965899089218932894389B4
:1020A0008F5F858F78946F935F934F933F932F93B8
:1020B0009F9389811F928F938EEE95E09F938F93CC
:1020C0000E94D432EDB7FEB73A960FB6F894FEBF31
:1020D0000FBEEDBF25C91092260281E080935B02FE
:1020E000FBCA642DC8010F960E94CF3856CE898551
:1020F00084FF18C08B8187FD60C0D80156968C91F3
:10210000F801E80FF11D778AB4E0B08F118E8D5F72
:10211000F801868B95CAF8018689E80FF11D778A48
:1021200093E01ACFD80156968C91F801E80FF11D73
:10213000778AB5E0EACFC818D908EA08FB08F801A1
:1021400030893323C9F08FEF830F61E070E002C064
:10215000660F771F8A95E2F7CB01092E000CAA0BB8
:10216000BB0BC80ED91EEA1EFB1E04C0F694E794F2
:10217000D794C7943A95D2F77FEFC716D104E104FC
:10218000F10408F03FC0842F90E0AC01542F4427A5
:10219000550F550FF4E02F9FC0011124842B952B70
:1021A000D80156962C91F801E20FF11DC78A808F55
:1021B000918F2D5FF801268B43CAC818D908EA0809
:1021C000FB08F1E5CF16F5E5DF06E104F104D0F4F4
:1021D0002C8130E0220F331F90E0982F8827990F31
:1021E000822B932BD80156963C91F801E30FF11DF9
:1021F0002F8126952F73278B808F918F3D5FF8015C
:10220000368B1ECAD80156968C91F801E80FF11D45
:10221000778A91E006CE11E0ABCA802F8D7F809344
:102220002A0280910902D81202C181E08D0D8F70BF
:10223000806180930902B7E78B16B2E09B0609F034
:1022400008F4BEC0E7E7F2E0BA8ECDB6DEB68F0185
:102250000F5F1F4F2081222309F4E6C0EEE7F5E06F
:102260008491281708F0E0C030E0220F331F220FBE
:10227000331F220F331FF901E950FD4FE4914DB791
:102280005EB764E0E69F4019510911240FB6F89437
:102290005EBF0FBE4DBF8DB79EB70196F901E750E7
:1022A000FD4F4491F901E650FD4F65917491FB019A
:1022B000640F711DAC01D98AC88A998F888FE6177F
:1022C000F70709F482C08016910608F46EC0A49145
:1022D000A53028F1A73009F068C02801BFEF4B1ADC
:1022E0005B0AD801AC9082010A0D111D801691067F
:1022F00008F45BC0B12CC12CD12CDA01AD92BD9297
:10230000CD92DC921397612C712C14964D925D92B4
:102310006D927C921797485F5F4F3196D0CF7A01CC
:1023200084E0E80EF11C68019FEFC91AD90AD801B0
:102330001C91912F9F77492E512C612C712C012FCC
:1023400000760036A9F117FF3EC086010F5F1F4FD0
:10235000D80111978C91440C551C661C771C440CB9
:10236000551C661C771C440C551C661C771C440CC1
:10237000551C661C771C440C551C661C771C440CB1
:10238000551C661C771C440C551C661C771C982F2A
:102390009F77492A87FDDACFDA014D925D926D92DF
:1023A0007C921397A70131968ACF87E00E94783BF1
:1023B000B0EE4B2A55245A94652C762CC4CFBA8C97
:1023C000DD24D394D8C98601E7CFC888D988888D01
:1023D000998D40912702442331F0F901E850FD4FD7
:1023E000E491E0FF11C024503D4FF9012591349153
:1023F000F90119950FB6F894DEBE0FBECDBE0815D3
:102400001905E8F6F80121CF809128021F928F93D9
:10241000EAE2F6E0FF93EF930E94D4320FB6F8940D
:10242000DEBE0FBECDBEEBCF85E00E94783B1B2DFC
:1024300097C9F1E0FB1508F4D3CDBFCBCF93DF9361
:10244000EC016BE372E188810E944128FC018C81E0
:102450009D81AE81BF81892B8A2B8B2B51F420E08B
:10246000F89494A59D7F922B94A77894DF91CF91B7
:10247000089522E0F5CF0F931F93CF93DF938C0144
:102480004DE250E06BE372E1FC0180810E94122872
:10249000EC01F801848518160CF041C064E06CA7CB
:1024A000F80184810E944E1E6A8F7B8F8C8F60E0C2
:1024B000F80180850E944E1E6D8F7E8F8F8F80E089
:1024C00090E0A0E0B0EC88A399A3AAA3BBA3F80175
:1024D00080899189A289B3898E8B9F8BA88FB98FB0
:1024E0006BE070E0CE0184960E94A3288E899F89BC
:1024F000A88DB98D8997A105B10548F085E493E1D0
:102500009B838A83DF91CF911F910F9108958CA5B2
:1025100080618CA7DF91CF911F910F91089560E0AA
:10252000BECFCF93DF93EC016BE372E188810E9411
:102530004128FC018C819D81AE81BF81F894468544
:10254000578560897189452B462B472B79F4848305
:102550009583A683B783828B938BA48BB58B84A53D
:10256000877F84A77894DF91CF91089586E10E94B8
:10257000783B0F931F93CF93DF938C016BE372E152
:10258000DC018C910E944128EC010E94BD28FC01D5
:10259000D80114964D915D916D917C91179742836E
:1025A00053836483758318968D919C9119979187B5
:1025B0008087892B09F466C0D8011C968D919C9167
:1025C0001D97978386831286F8948CA5282F2170F7
:1025D00081FB992790F9291729F091E089279285A5
:1025E000916092874E855F8568897989452B462B56
:1025F000472B59F583FD19C08CA7118210828CA13D
:102600009DA1892BA9F1AEA1BFA1ED93FC93FFA3DE
:10261000EEA3CE010E940032CE010E94383678949B
:10262000DF91CF911F910F91089580914502909174
:10263000460291838083F0934602E09345027894AA
:10264000DF91CF911F910F9108958CA71182108275
:102650008CA19DA1892B89F0AEA1BFA1ED93FC9324
:10266000FFA3EEA37894DF91CF911F910F9108956E
:10267000FFA3EEA3FDA3ECA3CCCFFFA3EEA3FDA38A
:10268000ECA3CDCF87E10E94783BCF92DF92EF920F
:10269000FF920F931F93CF93DF93EC01EA8DFB8D95
:1026A0008C8D80830E94A01F0E891F89288D398DF3
:1026B0006B017C01C00ED11EE21EF31E8E859F852C
:1026C000A889B9890197A109B1098E879F87A88B2D
:1026D000B98B80FF0EC0CC82DD82EE82FF8281E06A
:1026E000DF91CF911F910F91FF90EF90DF90CF90EE
:1026F0000895892B8A2B8B2B59F1488559856A853A
:102700007B858A899B89AC89BD89840F951FA61F0B
:10271000B71F8A8B9B8BAC8BBD8B0C851D85012EC7
:10272000000C220B330B400F511F621F731F488791
:1027300059876A877B872B2F8C159D05AE052F093E
:1027400027FDC9CF8C839D83AE83BF8381E0C8CF33
:10275000CE010E940032811102C080E0C1CF4C81C5
:102760005D816E817F81972F4C155D056E059F09F8
:1027700097FFB6CF4C195D096E097F094038514C5F
:102780006F4F7F4F0CF0A7CF88E10E94783B46E067
:1027900050E069EF73E1FC0180810C941228CF9224
:1027A000DF92FF920F931F93CF93DF93EC0169EFBA
:1027B00073E18C810E9441286C01F8840F2D10E098
:1027C000A8014D5F5F4F6FEC73E188810E94122872
:1027D000FC01D182C082F2826C857D85A8010396BE
:1027E000DF91CF911F910F91FF90DF90CF900C94CC
:1027F000993CFF920F931F93CF93DF938C0146E098
:1028000050E069EF73E1FC0180810E941228EC0125
:10281000F801F08461E0F11060E0F80184810E9429
:102820004E1E6A837B838C838D81F11009C091E0F9
:10283000892B8D83DF91CF911F910F91FF90089588
:1028400099E0892B8D83DF91CF911F910F91FF909C
:1028500008950F931F93CF93DF938C016AE576E27F
:10286000FC0180810E944128EC010E94E635909194
:1028700000028A8D981303C08FEF80930002F80145
:1028800084819581A681B781888B998BAA8BBB8B1C
:102890008C839D83AE83BF8380859185A285B3851C
:1028A0008C879D87AE87BF8784858E8F91E0980F38
:1028B0009D8F4089518962897389488759876A87C2
:1028C0007B87248935893F8B2E8B208D318D398FE5
:1028D000288F948D9C8F811105C0DF91CF911F911E
:1028E0000F910895CE01DF91CF911F910F910C941C
:1028F00038368BE10E94783B8F929F92AF92BF92C5
:10290000FF920F931F93CF93DF93EC0169EF73E175
:1029100088810E9441288C01F88483E08F1508F497
:1029200084C0F8018581867009F07FC08C849D8405
:10293000AE84BF848C819D81AE81BF81892B8A2B1F
:102940008B2B09F074C0E6E4F6E0A591B4911196E2
:102950008C9180FD04C060E088E00E944E1E60E023
:1029600089E00E944E1E60E08AE00E944E1E60E0F8
:102970008BE00E94201B80E58CBD1DBC8114F2E120
:102980009F06FAE7AF06B10408F041C0811489E060
:1029900098068DE3A806B10418F5E0E88E16E4E881
:1029A0009E06EEE1AE06B104C0F5F0E48F16F2E447
:1029B0009F06FFE0AF06B10468F580E2881681EA61
:1029C000980687E0A806B10458F590E0E0E98E1675
:1029D000E0ED9E06E3E0AE06B10428F583E002C018
:1029E00090E080E0CF2DCC0FCC0FC065C82BF80154
:1029F000C0839183858184608583DF91CF911F910E
:102A00000F91FF90BF90AF909F908F90089591E0AD
:102A100080E0E8CF90E081E0E5CF91E081E0E2CF97
:102A200091E082E0DFCF82E0DDCF0E9479148EE278
:102A30000E94783B6F927F928F929F92AF92BF924B
:102A4000CF92DF92EF92FF920F931F93CF93DF937A
:102A50004C01E62E142F6901DC0115967C90159728
:102A6000872D867009F451C071FC39C0F401908142
:102A700081819CBD8DBDF72DF1706F2E70FCC8C09B
:102A8000EE2009F49CC08FEF810F112351F0F60165
:102A900090819EBD0DB407FEFDCF9EB591938150F0
:102AA000B8F7662091F1072D069506950695402FFB
:102AB00040954170D40112966D917D918C91DF917A
:102AC000CF911F910F91FF90EF90DF90CF90BF902B
:102AD000AF909F908F907F906F900C94591BED91C9
:102AE000FC91418542706681778180850E94591BE7
:102AF000B72DB1706B2E70FC17C0D401CD91DC9155
:102B0000AA24AA94A10E111126C0DF91CF911F9182
:102B10000F91FF90EF90DF90CF90BF90AF909F907C
:102B20008F907F906F900895072D069506950695D6
:102B3000402F4170F4016281738184810E94591B8E
:102B4000D401CD91DC91AA24AA94A10E112309F4F9
:102B5000AECF66246394B12C8FEFA81AB80AAC0CE0
:102B6000BD1CD601FC9008E010E0898580FF35C0CF
:102B7000EE81FF81888580834F2D40786B817C8139
:102B80008D810E94591BFF0CEE81FF818885808317
:102B9000110FE881F98190818A81892391E009F4FC
:102BA00090E0192B015009F7EE2011F0F601108387
:102BB000FFEFCF1ADF0AAC14BD0499F672CFF6010D
:102BC0009601210F311D2E173F0709F46ACF81911D
:102BD0008EBD0DB407FEFDCFF6CF4F2D40786B8133
:102BE0007C818D810E94591BFF0CEE81FF818885BD
:102BF0008083110FE881F98190818A81892391E096
:102C000009F490E0192BEE81FF8188858083CACF7B
:102C100073FA442740F9F4016281738184810E9430
:102C2000591B662463942CCFCF93DF93EC0169EF9B
:102C300073E188810E944128288539854C8160E0B4
:102C4000DF91CF910C941A15FF920F931F93CF939E
:102C5000DF93EC01188169EF73E1812F0E94412815
:102C60000C81F884C9852F2D3C2F402F61E00E94F4
:102C70001A15CF93FF921F920F931F921F9389EE05
:102C800095E09F938F930E94D4328DB79EB708969C
:102C90000FB6F8949EBF0FBE8DBFDF91CF911F91ED
:102CA0000F91FF900895AF92BF92DF92EF92FF9243
:102CB0000F931F93CF93DF93FC01A485B585968571
:102CC00047855089E18822893389F488A588B688A8
:102CD0007789008D118DD28C808586279C9384FD09
:102CE00020C085FD22C086FD24C087FD26C09C93A0
:102CF000862F8295807F808768279C9364FD2AC0F9
:102D000065FD25C066FD1CC067FD1EC09C93DF915C
:102D1000CF911F910F91FF90EF90DF90BF90AF90F8
:102D20000895EA01E88285FFDECFE901F88286FF97
:102D3000DCCFE501788387FFDACFE801D882D7CFEF
:102D4000F501708367FFE2CFE801D882DFCFE901A8
:102D5000F882D8CFFA01E082D3CF5F926F927F9250
:102D60008F929F92AF92BF92CF92DF92EF92FF929B
:102D70000F931F93CF93DF938C01FC01C080D18010
:102D8000E280F38084809580A680B78066246A9470
:102D9000660E662301F1EA01712CFFEF6F1A7F0ABC
:102DA000640E751E59900E94A01FDC01CB018C1986
:102DB0009D09AE09BF0988159905AA05BB0598F3B9
:102DC000652DC8010E9453160E94A01F6B017C0153
:102DD000C615D70539F7F801C082D182E282F382A5
:102DE000DF91CF911F910F91FF90EF90DF90CF90E7
:102DF000BF90AF909F908F907F906F905F9008955D
:102E0000EF92FF920F931F93CF93DF938C0161EBAF
:102E10007CE2FC0180810E9441287C018FE090E0EF
:102E20000E94B132EC0188E893E19E878D87F8011A
:102E30008089880F8C8761E084810E94201B6E83CB
:102E40007F83888761E0F80184810E944E1E688339
:102E500079838A8361E0F80180850E94201B69875D
:102E60007A878B8761E0F80180850E944E1E6B8314
:102E70007C838D83F701D283C183838181608383C7
:102E8000DF91CF911F910F91FF90EF9008950F93D5
:102E90001F93CF93DF93EC016FE777E188810E9466
:102EA00041288C01FC0161857285838541E00E9487
:102EB000591B488559856C81C801DF91CF911F91BD
:102EC0000F910C94AD160F931F93CF93DF93EC01EA
:102ED0006FE777E188810E9441288C01FC016185C0
:102EE0007285838540E00E94591B488559856C8115
:102EF000C801DF91CF911F910F910C94AD16CF9225
:102F0000DF92EF92FF920F931F93CF93DF93EC0129
:102F10004BE150E06FE777E188810E9412288C0135
:102F200060E08C810E944E1EF80161877287838762
:102F300060E088850E944E1EF80164877587868749
:102F400060E08C850E944E1EF8016787708B818B34
:102F500060E088890E944E1EF801628B738B848B1F
:102F600060E08C890E944E1EF801658B768B878B02
:102F700060E0888D0E944E1EF801608F718F828FF5
:102F8000F8940E94A01F6B017C0160E0C8010E94C0
:102F900053160E94A01F7894DC01CB018C199D0967
:102FA000AE09BF09CC8CDD8CEE8CFF8C8C159D0599
:102FB000AE05BF0548F4C81AD90AEA0AFB0AF801A7
:102FC000C482D582E682F782DF91CF911F910F9163
:102FD000FF90EF90DF90CF900895DF92EF92FF92F5
:102FE0000F931F93CF93DF93EC01D88883E08D1567
:102FF000B0F169EF73E188810E9441287C018AE089
:1030000090E00E94B1328C0161E08C810E94201B13
:10301000F80160837183828360E088850E944E1E80
:10302000F80163837483858360E08C850E944E1E63
:10303000F801668377838087D186F7018581982F91
:10304000967081F4F7011183008382608583DF919C
:10305000CF911F910F91FF90EF90DF9008958BE13A
:103060000E94783B0E947914CF92DF92EF92FF92F8
:10307000CF93DF93EC010E94A01F6B017C019E01A6
:10308000A0E8BEE30E94223C20E432E44FE050E09E
:103090000E94F93BC20ED31EE12CF12C0E94A01F0E
:1030A0006C157D058E059F05C8F3DF91CF91FF90CC
:1030B000EF90DF90CF9008950F931F93CF93DF93FE
:1030C000EC01062F18E01DC06B817C818D8140E0F2
:1030D0000E94681B000F8D859E850E9434186E81AA
:1030E0007F81888541E00E940A1B8D859E850E9414
:1030F0003418688179818A8140E00E94681B1150F0
:1031000049F007FFE1CF69857A858B8541E00E9410
:103110000A1BE0CF69857A858B8541E00E940A1BF6
:103120008D859E850E9434186E817F81888541E05F
:103130000E940A1BE985FA8510818B8518238D85ED
:103140009E850E943418688179818A8140E00E94BE
:10315000681B69857A858B8541E00E940A1B1111E5
:1031600005C0DF91CF911F910F91089585E20E94D4
:10317000783B4F925F926F927F928F929F92AF9225
:10318000BF92CF92DF92EF92FF920F931F93CF9354
:10319000DF938C01562E3A01FC0180809180A28041
:1031A000B380C480D580E680F780EA012196FA01D9
:1031B0004080642D607F0E944E2F0E94A01FDC0182
:1031C000CB0188199909AA09BB098C159D05AE0583
:1031D000BF0598F3642D6295607FC8010E944E2F51
:1031E0000E94A01F6B017C01F80180849184A2845D
:1031F000B384F1E05F1639F15A945A94852D90E02A
:103200000296680E791E5990652D607FC8010E9454
:103210004E2F0E94A01FDC01CB018C199D09AE0925
:10322000BF0988159905AA05BB0598F3652D629518
:10323000607FC8010E944E2F0E94A01F6B017C017D
:10324000C615D70501F7F801C082D182E282F38268
:10325000DF91CF911F910F91FF90EF90DF90CF9072
:10326000BF90AF909F908F907F906F905F904F90A6
:1032700008950F931F93CF93DF938C0180913F02AA
:1032800090914002892B09F04BC060913E0270E0A2
:10329000623071052CF482E080933E0262E070E0BF
:1032A000E0913A02F0913B024DB75EB741505F4F5B
:1032B00044275A959F01C0E0D0E0C901860F971FAF
:1032C0004817590730F121969C01C115A4E0DA078F
:1032D000A1F78E1B9F0B0E94B132D0934002C09386
:1032E0003F0290933D0280933C020E945928F801CE
:1032F00080819181A281B3818093410290934202A7
:10330000A0934302B0934402DF91CF911F910F919C
:103310000895209711F0C901DCCF80E10E94783B2D
:103320008DE00E94783BCF93209138023091390292
:10333000232B91F4FC01C0818C2F90E0880F991F02
:10334000880F991F0E94B1329093390280933802FE
:10335000C0933702CF9108958AE00E94783B809114
:103360003F02909140029F938F9321E0309127027A
:10337000311101C020E01F922F93209144022F931E
:10338000209143022F93209142022F9320914102DA
:103390002F9321E0892B09F420E01F922F938CE0DA
:1033A00096E09F938F930E94D4328DB79EB70C9670
:1033B0000FB6F8949EBF0FBE8DBF0895CF93DF93D5
:1033C000EC01988140913702A0913802B091390206
:1033D0000BC0FD0184E0989FE00DF11D11242081B8
:1033E00031812617370741F09F5F941790F380E0F3
:1033F00090E0DF91CF910895988382819381DF914E
:10340000CF910895CF92DF92EF92FF926B017C01F2
:1034100009C00E94A01F292F6C157D058E052F095C
:1034200027FF09C08091BC0087FFF3CFFF90EF908A
:10343000DF90CF90089580E30E94783B24EA2093A8
:10344000BC000E94021A8091B90090E0A0E0B0E0B8
:1034500080319105A105B10521F00897A105B105BD
:1034600009F408958FE20E94783B7F928F929F9299
:10347000AF92BF92CF92DF92EF92FF920F931F9382
:10348000CF93DF93782EC62F942EB52E822E0E94D6
:10349000A01F6B017C0120E8C20E28E3D21E21E0B0
:1034A000E21EF11CC701B6010E941E1A7092BB00F9
:1034B00084E88093BC00C701B6010E94021AAA24C6
:1034C000AA94AC0ECC23B1F0C92DDB2DB12C8FEF1B
:1034D000A81AB80AAC0EBD1E94E8992E8991809363
:1034E000BB009092BC00C701B6010E94021AAC1644
:1034F000BD06A1F7C701B6010E941E1A872D816083
:103500008093BB0084E88093BC00C701B6010E9491
:10351000021ADFEFD80D882009F15801CD2F84EC75
:10352000982ECC2369F09092BC00C701B6010E948E
:10353000021A8091BB00F50181935F01C15099F798
:10354000F801ED0FF11DEF0184E88093BC00C70185
:10355000B6010E94021A8091BB00888384E980939F
:10356000BC00DF91CF911F910F91FF90EF90DF9002
:10357000CF90BF90AF909F908F907F900895BF9213
:10358000CF92DF92EF92FF920F931F93CF93DF932F
:10359000D82FC62FB42E152F0E94A01F6B017C01BF
:1035A00020E8C20E28E3D21E21E0E21EF11CC70172
:1035B000B6010E941E1AD093BB0084E88093BC0021
:1035C000C701B6010E94021A0FEF0C0FCC23A9F01D
:1035D000CB2DD12F10E00F5F1F4F0C0F1D1F84E864
:1035E000B82E89918093BB00B092BC00C701B60190
:1035F0000E94021AC017D107A1F784E98093BC008A
:10360000DF91CF911F910F91FF90EF90DF90CF90BE
:10361000BF900895FB012FB7F8949281141644F4DB
:10362000982B809592839181892381832FBF089560
:103630008095982392839181892381832FBF089558
:103640008036A0F567FD32C0E82FE695E695E69551
:10365000F0E0EE0FFF1FEC5BF94FA591B4911097CE
:1036600029F1877021E030E0A90102C0440F551F05
:103670008A95E2F7CA014FB7F89412963C911297D7
:10368000662381F0382B282F209512963C931297B1
:1036900011963C911197232311962C9311974FBFAC
:1036A000BD010895282F20953223EFCF8BE20E9491
:1036B000783BFB012FB7F8949281411105C08095AA
:1036C000892382832FBF0895892B82832FBF08957A
:1036D000FB012FB7F8949281411109C0382F309522
:1036E000932392839181892B81832FBF0895982BF7
:1036F00092839181892B81832FBF0895CF92DF928E
:10370000EF92CF93DF93EC0161E088859985AA85DC
:10371000BB85892B8A2B8B2B09F460E08C810E945E
:103720004E1E6B01E82E44E250E06EE77BE188819B
:103730000E941228FC01C48AD58AE68A21E04885C5
:1037400059856A857B85452B462B472B09F420E05C
:103750004C855D856E857F85452B462B472BB1F4C7
:1037600030E0232BFC0123A3488959896A897B898E
:10377000478B508F618F728F6AE070E04F96DF91B8
:10378000CF91EF90DF90CF900C94A32830E1E9CF58
:10379000CF93DF93EC016EE77BE188810E944128A3
:1037A000F894FC01278D30A1232B69F44C815D81B5
:1037B0006E817F81FC01438F548F658F768F789463
:1037C000DF91CF91089584E10E94783B8F929F9280
:1037D000AF92BF92CF92DF92EF92FF921F93CF935F
:1037E000DF93EC01EF8CF8A0E114F10409F4F0C0D0
:1037F000F7018081918198A38F8F86809780A08424
:10380000B18411E081149104A104B10409F4A1C0B0
:103810006C897D898E89412F0E94591B80914502B8
:1038200090914602F70191838083F0924602E092E4
:10383000450281149104A104B104E9F08B8D9C8DA3
:10384000AD8DBE8D88169906AA06BB06A0F44F89D9
:10385000588D698D7A8D411551056105710509F401
:103860005BC08C819D81AE81BF81480F591F6A1F4B
:103870007B1F166022C08BA131E081149104A1044A
:10388000B10409F068C084FB992790F921E09227E0
:10389000391709F443C04F89588D698D7A8D4115C8
:1038A000510561057105D1F18C819D81AE81BF818A
:1038B000480F591F6A1F7B1F1460EF8DF8A13097C6
:1038C00009F077C02BA1488B598B6A8B7B8B2071B9
:1038D000212B2BA311FF5FC0880D991DAA1DBB1DB5
:1038E00012FD52C021E230E33B832A838C839D8307
:1038F000AE83BF8388869986AA86BB868B8D9C8D76
:10390000AD8DBE8D88199909AA09BB098C879D8741
:10391000AE87BF8781E011C012608BA1EF8DF8A147
:103920003097D9F4188A198A1A8A1B8A8071812BD8
:103930008BA3812F827011FD34C0DF91CF911F9135
:10394000FF90EF90DF90CF90BF90AF909F908F90BF
:10395000089510E05DCF30E096CF428153816481BD
:103960007581488B598B6A8B7B8B8071912F94600A
:10397000892B8BA311FF0FC08C819D81AE81BF81EC
:10398000880D991DAA1DBB1D2B2F84179507A6070F
:10399000270B27FDA7CF4C835D836E837F8381E058
:1039A000CCCF40E050E0BA018C819D81AE81BF81D7
:1039B00093CFC280D380E480F580872F4C155D05BE
:1039C0006E058F0987FD07C08BA1B701A601C9CF7E
:1039D00085E10E94783B83E10E94783B8EE10E9462
:1039E000783B0F931F93CF93DF93FC01A189B2899A
:1039F0008D919C911197928B818B16968D919C91B4
:103A00001797C085D185228521113FC02FB7F89423
:103A1000AC015527598348832FBF2091450230912F
:103A2000460211963C932E93B0934602A093450212
:103A3000A189B289109759F5278530898217930794
:103A400041F083859485A585B6850097A105B105CC
:103A500031F480E0DF91CF911F910F91089544815F
:103A6000558166817781840F951FA61FB71F8483B8
:103A70009583A683B7838EEE9CE19383828381E056
:103A8000DF91CF911F910F9108958883C6CF129631
:103A90004D915D916D917C911597278530898217A5
:103AA000930741F083859485A585B6850097A10588
:103AB000B10551F4448355836683778381E0DF91B8
:103AC000CF911F910F91089504811581268137812F
:103AD000800F911FA21FB31F2B2F84179507A607D6
:103AE000270B27FFE7CF8DE10E94783BEF92FF92F3
:103AF0000F931F93CF93DF937C0160EF7DE1DC0197
:103B00008C910E9441288C010E94BD28EC01F70194
:103B100084819581A681B7818A839B83AC83BD8391
:103B2000808591859F838E83F89419821882D801AD
:103B300051968D919C915297892BB9F15396ED91A5
:103B4000FC915497D183C0835496DC93CE935397C2
:103B500080E090E07894892B39F4DF91CF911F9128
:103B60000F91FF90EF900895C8010E94E635D801AB
:103B700012968D919C9113978E5E9C41F1F08A81F3
:103B80009B81AC81BD8121EF3CE1F801338322832D
:103B900084839583A683B783C801DF91CF911F915A
:103BA0000F91FF90EF900C943836F801D48BC38BB3
:103BB000D28BC18B81E090E0CDCF8A819B81AC819B
:103BC000BD81F8014481558166817781272F48178F
:103BD00059076A072B0B27FFD6CF8DE10E94783B50
:103BE000CF92DF92EF92CF93DF93EC014885598516
:103BF0006A857B852C858C810E94D1286B01E82EFB
:103C000045E150E060EF7DE188810E941228FC01CF
:103C1000C086D186E28688899989908B87878C892E
:103C20009D89AE89BF8983879487A587B68781EFF1
:103C30009CE19383828368E070E0CF014196DF913D
:103C4000CF91EF90DF90CF900C94A328B0990FC044
:103C500080914702909148020196109206021092BC
:103C60000502909308028093070281E0089581E0A5
:103C700086BB80914702909148020196909348023A
:103C80008093470220E030E830930602209305023B
:103C9000909308028093070281E00895803678F5BA
:103CA000E82FE695E695E695F0E0EE0FFF1FEC5B5A
:103CB000F94FA591B491109711F1877021E030E090
:103CC000A90102C0440F551F8A95E2F7CA013FB708
:103CD000F89412962C91129761110FC040952423ED
:103CE00012962C93129711962C911197282B1196BE
:103CF0002C9311973FBFBD010895242BF1CF8CE287
:103D00000E94783B1F920F920FB60F9211240BB6B0
:103D10000F92EF92FF920F931F932F933F934F9326
:103D20005F936F937F938F939F93AF93BF93CF9343
:103D3000DF93EF93FF930DC07A01809184009091FF
:103D400085008E199F0997FD7CC07894B2999AC01E
:103D5000F894C0912202D0912302EA81FB8130972E
:103D600009F0ADC0EA8DFB8D2C8D20838E859F855B
:103D7000019709F4C1C09F878E8788859985AA8598
:103D8000BB854C815D816E817F81480F591F6A1F01
:103D90007B1F4C835D836E837F8320832CA525FF4F
:103DA0000EC00C851D85012E000C220B330B800FDD
:103DB000911FA21FB31F88879987AA87BB87E881B5
:103DC000F9810481158126813781872F401751079A
:103DD0006207830B87FDB0CF7801F0932302E09355
:103DE0002202A0912402B091250214960D911D91FA
:103DF0002D913C911797872F401751076207830B2E
:103E000087FFFD01DF010190F081E02D0481158124
:103E100026813781872F401751076207830B87FF61
:103E2000F1CFF983E883CD93DC93D0932502C0933F
:103E3000240280918400909185008E199F0997FF3C
:103E400084CF863A9F4F0CF06AC0F0928900E092CE
:103E50008800FF91EF91DF91CF91BF91AF919F913A
:103E60008F917F916F915F914F913F912F911F9112
:103E70000F91FF90EF900F900BBE0F900FBE0F9021
:103E80001F901895F8948091840090918500970177
:103E9000281B390B2038314CDCF12091260227FFFA
:103EA00043C09C01205C304E30938B0020938A00ED
:103EB00024E026BB90938900809388003ECFCE01FA
:103EC00019954C815D816E817F81811178CFE88168
:103ED000F981E480F580F0932302E093220280913F
:103EE000240290912502C817D90709F026CFF09334
:103EF0002502E093240221CFCE010E940032EA8DF8
:103F0000FB8D9C8D90834C815D816E817F81DDCFA7
:103F1000209127022111C1CF8AE20E94783B789438
:103F2000B299B0CFF89409CF9C012854344F309304
:103F30008B0020938A0024E026BB7C01F39485CF7C
:103F40002FB7F894609184007091850080914702AA
:103F500090914802B09902C02FBF08952FBF7F3FB4
:103F6000E1F30196089578940E9491392FEF260F7E
:103F70006623C1F0FC018FEF9FEF31918327082E5C
:103F80008295807F8025092E982F82958F70082634
:103F9000869598278927880F880F880F80252150BC
:103FA00060F708958FEF9FEF08956F927F928F9241
:103FB0009F92AF92BF92CF92DF92EF92FF920F93B8
:103FC0001F93FC0183818F9382818F9384813501BC
:103FD0004601680E711C811C911CD401C301BF9362
:103FE000AF939F936F9281818F9380818F931F9363
:103FF0000F93FF92EF925F934F933F932F931F92F4
:104000006F9381EC95E09F938F930E94D4328DB78C
:104010009EB744960FB6F8949EBF0FBE8DBF1F91FA
:104020000F91FF90EF90DF90CF90BF90AF909F9057
:104030008F907F906F900895CF93DF93EC016A8DFE
:10404000662309F453C0FC0150E031E020E0A38D69
:10405000B48D4C91958D942309F0532B2F5F330F22
:1040600033962613F4CF2C85922F952729F08D8532
:10407000852780959823D9F4888D5D8787FD03C0B7
:10408000815070F1888F4C815D816E817F81888540
:104090009985AA85BB85840F951FA61FB71F8C83A2
:1040A0009D83AE83BF8381E0DF91CF910895982FE8
:1040B000909529238523822B8C879E859830E0F666
:1040C00021E0290F2E87FE01E90FF11D878710924D
:1040D000260281E0809349028FEF888F5D87D3CFDE
:1040E0001092260291E090934902CCCF50E0BBCFD2
:1040F0000F931F93CF93DF938C0165EB70E2FC016C
:1041000080810E944128EC010E94E635F8018481FB
:104110009581A681B7818C839D83AE83BF834085C3
:10412000518562857385488759876A877B8780892F
:104130008D878C871E861F8A8EEF888F8485898F56
:1041400087FD10C0452B462B472B29F4DF91CF91DB
:104150001F910F910895CE01DF91CF911F910F9183
:104160000C9438368FE10E94783BCF93FC01C481D8
:10417000C930B8F44C2F50E09A01220F331F420F80
:10418000531F455E5F4F65EB70E2FC0180810E942A
:104190001228FC01C28F2CE130E233832283CF91BD
:1041A000089581E20E94783B0F931F93CF93DF9392
:1041B0008C0165EB70E2DC018C910E944128FC01CE
:1041C000D80114969C91828D9817B8F4292F30E06D
:1041D000E901CC0FDD1F2C0F3D1FEF01C20FD31FD4
:1041E000F801648580850E94201B6B8F7C8F8D8FEA
:1041F000DF91CF911F910F91089580E20E94783B4B
:10420000FC014481558166817781208580810C94F1
:10421000D128CF92DF92EF92FF92CF93DF93FC01F0
:10422000A085B18582858C93968581E089278687D4
:10423000C82FC170C688D788E08CF18C97859F5FA6
:10424000D1899D1708F05FC0892F86958695869540
:10425000DF01A80FB11D5A962C9130E0892F87708D
:1042600002C0359527958A95E2F72170B701A6011E
:10427000C217A9F033C0892F869586958695DF01F0
:10428000A80FB11D5A962C9130E0892F877002C07B
:10429000359527958A95E2F72170C2131FC04C0D02
:1042A0005D1D6E1D7F1D9F5F9D1728F38EEF93E2AE
:1042B0009383828384819581A681B781480F591F9A
:1042C0006A1F7B1F448355836683778381E0DF9178
:1042D000CF91FF90EF90DF90CF90089597878481E2
:1042E0009581A681B781480F591F6A1F7B1F4483A0
:1042F00055836683778381E0DF91CF91FF90EF90C4
:10430000DF90CF900895B701A601D0CF6F927F9232
:104310008F92CF92DF92EF92FF92CF93DF93EC01D7
:1043200060E08C810E944E1E3B01882EC884D98497
:10433000EA84FB84D7FC24C0A601415F5F4F66E896
:1043400071E288810E941228FC016082718282825F
:10435000D686C5868C859D85948383838889998933
:10436000AA89BB8981879287A387B487DF91CF9180
:10437000FF90EF90DF90CF908F907F906F90089597
:1043800084E20E94783BCF92DF92EF92FF920F93EC
:104390001F93CF93DF93EC01E885F9858A858083AD
:1043A0000E94A01F3E8521E023272E872F852F5FA7
:1043B0002F87213009F45CC02530E0F40C811D8189
:1043C0002E813F814A895B896C897D89DB01CA0125
:1043D000800F911FA21FB31F8C839D83AE83BF8369
:1043E00081E0DF91CF911F910F91FF90EF90DF90CF
:1043F000CF900895CC80DD80EE80FF80AB01BC01C2
:104400004C195D096E097F098E899F89A88DB98D28
:10441000481B590B6A0B7B0BDB01CA010296A11DDD
:10442000B11DB7FD34C0B595A79597958795B595FE
:10443000A795979587950A891B892C893D89800FB7
:10444000911FA21FB31F8E8B9F8BA88FB98F29E05E
:1044500031E23B832A834C0D5D1D6E1D7F1D840F51
:10446000951FA61FB71F8C839D83AE83BF83B8CFD4
:104470000C811D812E813F81AB01BC01401B510B82
:10448000620B730B4E8B5F8B688F798F9BCFDB0139
:10449000CA010596A11DB11DC6CFEF92FF920F93E1
:1044A0001F93CF93DF937C016EEE72E2FC0180815B
:1044B0000E944128EC011E8511FF07C0DF91CF91BA
:1044C0001F910F91FF90EF900895F701048160858F
:1044D0007185F4840B3008F045C0FAE0FF1508F44C
:1044E00041C0402F50E04A960E94993C1F861173AC
:1044F00012601E87802F880F880F880F898BFF0C12
:10450000FF0CFF0CF88A002349F08A8D8F738A32E2
:1045100029F483EC91E29B838A830CC08A899B896E
:10452000AC89BD898E8B9F8BA88FB98F89E091E272
:104530009B838A83F8940E94A01FDC01CB018058E2
:10454000934FAF4FBF4F8C839D83AE83BF83CE010C
:104550000E9438367894DF91CF911F910F91FF9090
:10456000EF90089582E20E94783B0F931F93CF93C0
:10457000DF938C0165EB70E2DC018C910E94412895
:10458000EC01D8011496EC918F898E0F8F8BF894E3
:104590008E85E817D0F48E1BF0E03F96EC0FFD1FE0
:1045A000DE011F962FEF280F30E0205F3F4F2C0FCA
:1045B0003D1F91919D93A217B307D9F78E877894E9
:1045C000DF91CF911F910F9108951E868EEF888FF6
:1045D0007894DF91CF911F910F9108957F928F92E0
:1045E0009F92AF92BF92CF92DF92EF92FF920F9382
:1045F0001F93CF93DF93EC0144E250E06EEE72E242
:1046000088810E9412288C0178848C809D80AE80E5
:10461000BF80CC84DD84EE84FF8461E0711001C032
:1046200060E0882D0E94201BF801638774878587CE
:1046300061E08C2D0E944E1EF80160877187828791
:1046400088899989AA89BB89828B938BA48BB58B26
:10465000711018C091E08C149D04AE04BF04C1F029
:1046600080E0892BF8018687DF91CF911F910F9110
:10467000FF90EF90DF90CF90BF90AF909F908F9082
:104680007F90089591E18C149D04AE04BF0441F71E
:1046900080E2E7CFCF93DF93EC018E8585FD0DC0DF
:1046A000688579858A8541E00E94591B8E858073D3
:1046B00081608E87DF91CF910895688579858A859D
:1046C00041E00E94681B8E85807381608E87DF9138
:1046D000CF910895CF93DF93FC01A385B4855C91BE
:1046E0008785982F977021E030E001C0220F9A95BE
:1046F000EAF7982F969596959695DF01A90FB11D2B
:104700005A969C915A9745854523E1F0292B5A9654
:104710002C938F5F90898917E8F4878744815581AE
:104720006681778186899789A08DB18D840F951FC9
:10473000A61FB71F84839583A683B78381E0DF918B
:10474000CF910895209529235A962C938F5F9089B5
:10475000891718F3EF01CF010E944A238E858860E4
:104760008E871092260281E080934A0280E0DF91DA
:10477000CF910895CF93DF93FC01A385B4859C91DD
:1047800085858923E9F0868584608687878591E021
:10479000980F9787803408F5448155816681778129
:1047A00086899789A08DB18D840F951FA61FB71F8D
:1047B00084839583A683B78381E0DF91CF910895A9
:1047C000868582FFE3CF17868AE693E2938382830E
:1047D000CF01DF91CF910C946A23EF01108ACF01B2
:1047E0000E944A238E8588608E871092260281E07F
:1047F00080934A0280E0DF91CF9108951F93CF9379
:10480000DF93EC011889112369F14E8545FD23C022
:104810001F868AEB93E29B838A838E899F89A88D6A
:10482000B98D880F991FAA1FBB1F880F991FAA1F38
:10483000BB1F4C815D816E817F81840F951FA61FF8
:10484000B71F8C839D83AE83BF8311E0812FDF91DF
:10485000CF911F91089540716B857C858D850E9455
:104860000A1BD6CF0E944A238E8588608E871092BD
:10487000260281E080934A02812FDF91CF911F9120
:104880000895FC011092260281E080934B02818DF5
:104890008160818F44815581668177818085918592
:1048A000A285B385840F951FA61FB71F84839583A8
:1048B000A683B78381E008950F931F93CF93DF936F
:1048C0008C016EE974E2FC0180810E944128EC01B8
:1048D0000E94E635F80184819581A681B7818C8399
:1048E0009D83AE83BF8380859185A285B3858887AC
:1048F0009987AA87BB87892B8A2B8B2B29F4DF9179
:10490000CF911F910F91089584859585A685B785D0
:104910008C879D87AE87BF8780899189A289B3895B
:10492000888B998BAA8BBB8B84898E8B1F8ACE0137
:10493000DF91CF911F910F910C943836FF920F9316
:104940001F93CF93DF93EC01F88483E08F15E0F0A1
:104950004AE150E06EE974E288810E9412288C01DD
:1049600081E494E2F8019383828369EF73E18C819F
:104970000E944128F801958B848BF08EDF91CF91B6
:104980001F910F91FF90089587E20E94783BCF938B
:10499000DF93EC016B817C818D8140E00E94681B7C
:1049A0008D859E850E9434186E817F81888541E0C7
:1049B0000E940A1B8D859E850E94341869857A8520
:1049C0008B8541E0DF91CF910C940A1B1F93CF930D
:1049D000DF93EC01162F8D859E850E943418698522
:1049E0007A858B8541E00E940A1B6E817F818885D4
:1049F00041E00E940A1B8D859E850E9434186B81C0
:104A00007C818D8140E00E94681B8D859E850E947F
:104A10003418688179818A8140E00E94681B612F87
:104A2000CE01DF91CF911F910C945C188F929F92D1
:104A3000AF92BF92CF92EF920F931F93CF93DF93DA
:104A4000EC01480159011F92EF92BF92AF929F92E1
:104A50000F937F936F935F934F931F92CF928BEC43
:104A600095E09F938F930E94D4328DB79EB70E9698
:104A70000FB6F8949EBF0FBE8DBFE11009C08C85A4
:104A80009D85AE85BF8588169906AA06BB0688F463
:104A90008F898F5F8F8B9E898917B0F4DF91CF91BB
:104AA0001F910F91EF90CF90BF90AF909F908F90FC
:104AB000089588899989AA89BB8988159905AA05C5
:104AC000BB0530F31F8AEACF809127028111FACF0C
:104AD00086E20E94783B9F92AF92BF92CF92DF9284
:104AE000EF92FF920F931F93CF93DF93EC01C62EAB
:104AF000942ED52EB22E78016C85862F8160A82E3B
:104B0000C11085C06A2DCE010E94E6248FEF8B0D67
:104B1000BB2009F46EC06701C80ED11C69857A8577
:104B20008B8541E00E940A1B08E010E08D859E8580
:104B30000E9434186E817F81888541E00E940A1BA3
:104B40008D859E850E943418110FE985FA85908124
:104B50008B85892391E009F490E0192B6881798194
:104B60008A8140E00E94681B015001F769857A85BF
:104B70008B8541E00E940A1BCE14DF04F1F06B81AB
:104B80007C818D8140E00E94681B8D859E850E94FE
:104B900034186E817F81888541E00E940A1B8D85D3
:104BA0009E850E943418688179818A8140E00E9444
:104BB000681BF70111937F01B1CF69857A858B85D9
:104BC00041E00E940A1B8D859E850E9434186E81EB
:104BD0007F81888541E00E940A1B8D859E850E9409
:104BE0003418688179818A8140E00E94681BF6014F
:104BF0001083CE01DF91CF911F910F91FF90EF9025
:104C0000DF90CF90BF90AF909F900C94C724CE01BF
:104C10000E94E624092D1D2DCA94D12CEFEFCE1A47
:104C2000DE0AC00ED11EF80161918F01CE010E94F3
:104C30005C18C016D106B9F765CFDF92EF92FF92EC
:104C40000F931F93CF93DF937C01C62FD42E152F84
:104C5000FC0164850E94E6240FEF0C0FCC2371F059
:104C6000CD2DD12F10E00F5F1F4F0C0F1D1F69912D
:104C7000C7010E945C18C017D107C9F7C701DF91AF
:104C8000CF911F910F91FF90EF90DF900C94C7246C
:104C900049E150E068E476E2FC0180810E9412283C
:104CA00020EA39E2FC01338322832BEB39E233879C
:104CB00022870895CF93DC0114969C91149720E0ED
:104CC00030E0C22FF901EC5CF94FE4919E1741F0FE
:104CD0002F5F3F4F20313105A1F78DE20E94783BD5
:104CE00087E980937A002830E8F420917E0081E003
:104CF00090E00C2E01C0880F0A94EAF7822B809373
:104D00007E004FE150E06AE576E28C910E94122825
:104D1000FC0180EA96E293838283C28F81E0858FD3
:104D2000CF91089520917D003C2F377081E090E075
:104D300001C0880F3A95EAF7822B80937D00E1CF7E
:104D4000FC0180917A0086FF0EC084819581A68146
:104D5000B7818853984FAF4FBF4F84839583A68305
:104D6000B78381E00895828D90910002981781F0B9
:104D70009F3F59F780930002982F987090937B0083
:104D80008770806480937C0087ED80937A00DDCF0C
:104D90008FEF809300022091780030917900858D0B
:104DA000968D891780F544895589240F351F8F5FAB
:104DB000358B248B858F891760F186899789281711
:104DC0003907C8F1808D918D82179307A0F1138E5A
:104DD0001092260281E080934D02408951896289B8
:104DE000738980859185A285B385840F951FA61F41
:104DF000B71F808B918BA28BB38B84839583A68303
:104E0000B78381E0089581E0358B248B858F8917E6
:104E1000A0F6448155816681778184859585A68534
:104E2000B785840F951FA61FB71F84839583A6831C
:104E3000B78381E00895838D8F5F838F948D891769
:104E400038F2809127028111C2CF8AE10E94783B1B
:104E5000EF92FF920F931F93CF93DF938C0168E43F
:104E600076E2FC0180810E944128EC01F8948E8951
:104E700080FF13C07E01F8E0EF0EF11CC7010E9415
:104E8000E635F80184819581A681B7818C879D875D
:104E9000AE87BF87C7010E9438367894DF91CF91E3
:104EA0001F910F91FF90EF9008951F93CF93DF9381
:104EB000EC01162FAC89BD891097B9F01296ED91CF
:104EC000FC9113978D919C9111979D8B8C8B1196D2
:104ED0001C921E9213961C921E921297612FCD0166
:104EE0001995AC89BD89109749F71092260281E087
:104EF00080934C02DF91CF911F910895EF92FF9222
:104F00001F93CF93DF937C01FC01108168E476E26C
:104F1000812F0E944128EC01F8948E8980FF09C0FE
:104F2000F70164816F8B8A7F84608E8BCE010E9433
:104F30005527CE010E94E635CE0108960E94E6353F
:104F40001E8A8F8978941F921F921F921F921F9220
:104F50008F931F921F921F921F9383EF95E09F9351
:104F60008F930E94D4328DB79EB70C960FB6F894EB
:104F70009EBF0FBE8DBFDF91CF911F91FF90EF902D
:104F80000895CF93DF93EC010E94E635CE01089699
:104F90000E94E635EC89FD89309751F0908181813E
:104FA0001382128211821082E92FF82F3097B1F705
:104FB0001D8A1C8A188E1F8A1E8ADF91CF91089540
:104FC0000F931F93CF93DF938C0168E476E2FC018B
:104FD00080810E944128EC01F8940E94C12781E061
:104FE0008E8BF80184819581A681B7818C839D8306
:104FF000AE83BF8380859185A285B385888B998B8D
:10500000AA8BBB8B892B8A2B8B2B19F0CE010E948C
:105010003836F8018485888F7894DF91CF911F917D
:105020000F910895CF93DF9390913702891730F550
:10503000C82FD0E0CC0FDD1FCC0FDD1FE091380270
:10504000F0913902EC0FFD1F80819181892BB1F421
:1050500080913F0290914002892B81F4718360839B
:10506000CA010E94B1322091380230913902C20F38
:10507000D31F9B838A83DF91CF9108958BE00E9499
:10508000783B90913702891788F4E0913802F091CB
:10509000390294E0899FE00DF11D112480819181F6
:1050A0008617970719F48281938108958CE00E94F6
:1050B000783BCF92DF92EF92FF92CF93DF93C09134
:1050C0003F02D09140022097B9F121976E01E12C67
:1050D000F12CA0913E02B0E02097D9F020E030E022
:1050E00040E050E0BA0180913C0290913D02FC0109
:1050F000E20FF31F4F5F5F4F6F4F7F4F2A0F3B1F32
:10510000820F931F918380834C155D056E057F058B
:1051100050F380913C0290913D02CA9FF001CB9FD9
:10512000F00DDA9FF00D1124E80FF91F11821082A3
:105130009093460280934502DF91CF91FF90EF90CC
:10514000DF90CF900895FC011382128211821082A9
:105150006F3F710509F07CF480913F02909140020D
:10516000892B49F480913E0290E08617970714F44A
:1051700060933E0208950E940C312FB7F8948091FD
:10518000450290914602009749F0FC01408151810F
:1051900050934602409345022FBF08958FE00E942E
:1051A000783BCF92DF92EF92FF921F93CF93DF93E2
:1051B0006A017B016CE576E0FB019491981749F058
:1051C000675F7F4FF6E06C3E7F07B1F784E30E9494
:1051D000783BFB013896949191FF1AC030EAC316D0
:1051E0003FE5D306E104F10408F483C0C0E8CC161F
:1051F000CEE7DC06C1E0EC06F10408F090C0D0E494
:10520000CD16DFEBDD06E104F104C8F414E022C0A2
:10521000F8EBCF16F7E4DF06E104F10490F0A0EC20
:10522000CA16AEE3DA06A1E0EA06F10408F475C096
:10523000C114BBEFDB06B4E0EB06F10438F315E074
:1052400009C037EFC31638E0D306E104F10408F0D3
:105250005FC011E0FB013396A591B491FB01359637
:10526000C591D491FB0137963491E82FE695E695E8
:10527000E695F0E0EE0FFF1FEC5BF94F459154917E
:105280008770E1E0F0E07F0101C0EE0C8A95EAF75B
:10529000FB013196C590D490892F8170A038B1055B
:1052A00009F44BC0EFB7F8949881977011F0191377
:1052B00041C0188381112EC09FB7F894622F70E00F
:1052C000E601798368839FBF9C913160392B3C93C1
:1052D000DA0111969C911197E92A1196EC92EFBF91
:1052E000B601DF91CF911F91FF90EF90DF90CF90AB
:1052F0000895A8EDCA16A7E2DA06E104F10468F4FD
:10530000B7EFCB16B8E0DB06E104F10408F4A1CF57
:1053100012E0A0CFE6012883D7CF13E09BCFC114C2
:10532000EBEFDE06E4E0EE06F10410F416E092CFB7
:1053300017E090CF82E30E94783B83E30E94783BA2
:10534000FC0186898460868B1092260281E080931E
:105350004C02448155816681778180899189A28937
:10536000B389840F951FA61FB71F84839583A683D7
:10537000B78381E00895FC013897968990FF08C0B3
:10538000608D678B9A7F9460968BCF010E94552722
:1053900080E00895FC01A085B1859C9182858923D8
:1053A000D1F0818D80958170C9F4838D815031F168
:1053B000838F448155816681778187859089A18912
:1053C000B289840F951FA61FB71F84839583A68378
:1053D000B78381E00895818D817039F385E19AE288
:1053E0009383828383899489A589B68984839583ED
:1053F000A683B783828D838F81E00895A789B08DBE
:1054000056969C915697892F817090FFE3CF648DBB
:1054100057966C9357979A7F946056969C9356979D
:10542000CD010E94552780E008950F931F93FC0142
:10543000A085B1859C9104811581268137814385A2
:10544000548565857685400F511F621F731F8285C5
:10545000892361F0818D8095817059F04483558353
:105460006683778381E01F910F910895818D81700C
:10547000A9F7438B548B658B768B8AEC99E29383E7
:105480008283CF011F910F910C94CA29CF93FC0105
:10549000C08168EB7AE28C2F0E944128FC01F894CD
:1054A000818D33894489558966897894A085B18531
:1054B0002C919285922321E009F420E01F922F93F2
:1054C0006F935F934F933F93869581701F928F9355
:1054D0001F92CF9388EF95E09F938F930E94D432D1
:1054E0008DB79EB70C960FB6F8949EBF0FBE8DBFBA
:1054F000CF910895CF93FC01C0816BE372E18C2FB3
:105500000E944128FC01F89480A191A1A2A1B3A11D
:1055100024A5468557856089718924FD04C0769548
:10552000679557954795841B950BA60BB70BB7FF4F
:1055300007C0B095A095909581959F4FAF4FBF4FF5
:105540007894B054BF93AF939F938F931F92CF9350
:105550008DEF95E09F938F930E94D4328DB79EB7C5
:1055600008960FB6F8949EBF0FBE8DBFCF910895D9
:105570000F931F93CF93DF93EC014DE150E068EB65
:105580007AE288810E9412288C0168858C810E94B1
:10559000201BF801608771878287DF91CF911F916F
:1055A0000F9108950F931F93CF93DF938C0168EBB6
:1055B0007AE2FC0180810E944128EC010E94E635DC
:1055C000F80184819581A681B7818C839D83AE8308
:1055D000BF8380859185A285B3858F87988BA98BA2
:1055E000BA8B84858A8F882361F1F80140895189BB
:1055F000628973894B875C876D877E8725E13AE2F4
:105600003B832A838B8F84899589A689B789892BC7
:105610008A2B8B2BA1F482E0898F68E476E2F80173
:10562000808D0E944128988F8F8BF801848D8C8FFC
:10563000CE01DF91CF911F910F910C94383683E00A
:10564000EBCF188E1F8A198EDF91CF911F910F918A
:1056500008950F931F93CF93DF938C01EC01A897CC
:10566000CE010E94E6351C821D821E821F821A8A8C
:105670001B8A1C8A1D8A88A199A1AAA1BBA12CA55D
:105680004E855F856889798924FD04C07695679584
:1056900057954795841B950BA60BB70BB7FD40C0DC
:1056A000B095A095909581959F4FAF4FBF4F88A320
:1056B00099A3AAA3BBA31E861F86188A198A2471E0
:1056C00028602CA76D8D7E8D8F8D40E00E94591B28
:1056D0004CA544706A8D7B8D8C8D0E94591BD8011E
:1056E0001497ED91FC9111973097A9F040914502E4
:1056F0009091460201C0F90120813181408391835C
:10570000F0934602E09345024E2F9F2F211531055D
:1057100091F71D921C92DF91CF911F910F910895E7
:10572000B095A095909581959F4FAF4FBF4FB8CF43
:105730000F931F93CF93DF938C016BE372E1FC0116
:1057400080810E944128EC0168E476E2F8018481BE
:105750000E944128BE01685D7F4F4FB7F8942AA58B
:105760003BA5232B89F429E23BE23BA72AA7FC01B6
:105770002489358939A728A7758B648B4FBFDF91A2
:10578000CF911F910F91089589E10E94783BCF93AB
:10579000DF93EC0161EB7CE288810E9441286C81FF
:1057A00048855985FC01238120FD06C0FC018081CC
:1057B000DF91CF910C94BF1A81819281DF91CF91BB
:1057C0000C941D262F923F924F925F926F927F9280
:1057D0008F929F92AF92BF92CF92DF92EF92FF9201
:1057E0000F931F93CF93DF9300D000D0CDB7DEB7D8
:1057F0008C012DB73EB73D832C8361EB7CE2DC014D
:105800008C910E9441289A838983F801F481FB835B
:10581000D80118968D909C9019971C964D905D908C
:105820006D907C901F9740FC99C076946794579434
:105830004794F801E088F188C42CD12CFB810F2F0C
:1058400010E0C8018C0D9D1D2DB73EB7281B390BEC
:105850000FB6F8943EBF0FBE2DBF8DB79EB7019611
:105860005C01A981BA8113963C90A801B4010E9401
:10587000993CB32DB170BE8330FE53C01501200E8C
:10588000311E8101242DA4016B81E981FA8181817E
:1058900092810E946B25C114D10409F453C0A60162
:1058A0004E0D5F1DF10120E030E0D7018D917D01AB
:1058B0008095908189238083DA019D91AD01892BA8
:1058C00081932F5F3F4F2C153D057CF3BE81B111B5
:1058D00039C06B81640DA501E981FA8180810E9444
:1058E000BF1A2C813D810FB6F8943EBF0FBE2DBF6D
:1058F00026960FB6F894DEBF0FBECDBFDF91CF91D5
:105900001F910F91FF90EF90DF90CF90BF90AF90DD
:105910009F908F907F906F905F904F903F902F90CF
:1059200008951501200E311E8101242DA4016B81E3
:10593000E981FA8180810E94351AC114D10409F0ED
:10594000AECFC7CF6B81640DA501A981BA81119635
:105950008D919C9112970E941D26C3CF8CE10E94CD
:10596000783B44E050E061EB7CE2FC0180810C94E8
:105970001228AF92BF92CF92DF92EF92FF920F93D5
:105980001F93CF93DF93CDB7DEB77C01ADB6BEB624
:10599000FC01C08061EB7CE28C2D0E944128F70164
:1059A000648140855185D4842DB73EB72D193109C6
:1059B0000FB6F8943EBF0FBE2DBFEDB7FEB73196C0
:1059C0007F01FC012381870120FD2AC02D2DFC01D0
:1059D00080810E94351AFF92EF921F92DF921F92F0
:1059E000CF9284EE95E09F938F930E94D4322DB78F
:1059F0003EB7285F3F4F0FB6F8943EBF0FBE2DBF96
:105A00000FB6F894BEBE0FBEADBEDF91CF911F9111
:105A10000F91FF90EF90DF90CF90BF90AF900895DF
:105A20002D2D818192810E946B25D5CF8F929F92DF
:105A3000AF92BF92FF920F931F93CF93DF938C018E
:105A4000FC0184858F77F82E61EB7CE280810E94D7
:105A50004128EC01F80184819581A681B781892BC9
:105A60008A2B8B2BB1F58091BC0082FF10C08F2D4B
:105A7000880F88838B8182608B83DF91CF911F9108
:105A80000F91FF90BF90AF909F908F900895F80175
:105A900080849184A284B38461E089E10E944E1ED7
:105AA00061E088E10E944E1E1092B900F0E88F1666
:105AB000FAE19F06F6E0AF06B10438F488E480937B
:105AC000B80084E08093BC00D2CF8CE08093B80013
:105AD000F8CF81E30E94783B80912702882329F048
