:100000000C94A40B0C94D10B0C94D10B0C94D10B2D
:100010000C94D10B0C94D10B0C94D10B0C94D10BF0
:100020000C94D10B0C94D10B0C94D10B0C94D10BE0
:100030000C9428490C94D10B0C94D10B0C94D10B3B
:100040000C94D10B0C94004B0C94D10B0C94D10B51
:100050000C94D10B0C94D10B0C94D10B0C94D10BB0
:100060000C94D10B0C94FF480C94D5480C94D10BF4
:100070000C94D10B0C94D10B0C94D10B0C94D10B90
:100080000C94D10B0C94D10B0C94D10B0C94D10B80
:100090000C94D10B0C94D10B0C94D10B0C94D10B70
:1000A0000C94D10B0C94D10B0C94D10B0C94D10B60
:1000B0000C94D10B0C94D10B0C94D10B0C94D10B50
:1000C0000C94D10B0C94D10B0C94D10B0C94D10B40
:1000D0000C94D10B0C94D10B0C94D10B0C94D10B30
:1000E0000C94D10B0C94E83D0C940C3F0C94973974
:1000F0000C949A300C94F2360C94DC3C0C94610F06
:100100000C9445150C9444460C94D6340C9410442D
:100110000C94D41C0C94541A0C9432310C94A21CE0
:100120000C946E3E0C949A470C94F4460C94753DD6
:100130000C94C8130C946E300C943D3E0C948F308C
:100140000C94D8350C944F140C9402190C94B33AB7
:100150000C94063D0C94281B0C9409340C94BA356D
:100160000C94831A0C94EC140C9484300C949D35EC
:100170000C94B8150C94143B0C94BE390C9469166D
:100180000C9488310C94EB0C0C944E4A0C9444481B
:100190000C94CB0C0C9457350C94E5130C94161559
:1001A0000C9488330C94A7140C94734C0C946C3DF1
:1001B0000C94623A0C94BE3E0C947F480C949E15AD
:1001C0000C9489190C9415470C9456130C941D39F2
:1001D0000C94F6380C9466110C94534D0C94751CC9
:1001E0000C94734A0C942A1D0C9456520C9412468B
:1001F0000C94B0380C945A390C94E92F0C94B41D1B
:100200000C9413360C94B7340C94BD450C94F14502
:100210000C9464470C947E120C94DE460C941D42A0
:100220000C9483460C94B4470C947C370C94FA19C4
:100230000C94B7120C940E370C9463300C94EE0BA4
:100240000C94A0130C94164D0C9445530C948C15DF
:100250000C94D3180C94C2460C94A7120C94E21080
:100260000C9460340C948D430C94913C0C94EE37B8
:100270000C9443380C94AC460C94A6480C947930FA
:100280000C940F400C941A320C94CE1A0C947F47A5
:100290000C94CD0C0C94340C0C94C7470C94DC39A2
:1002A0000C9455360C94B4190C94680F0C948A1263
:1002B0000C94593F0C943D470C94E6470C94C94567
:1002C0000C94B9440C943D150C9436190C94D63604
:1002D0000C9471130C9431350C949C340C9425308F
:1002E0000C9474190C94411A0C94271E0C945E40C3
:1002F0000C9476350C94A0400C9487360C944534BD
:100300000C940A430C9469450C941D1C0C94F00C3D
:100310000C94DF390C94F5340C947E350C94350C28
:100320000C9475380C94A20F0C94D30B04010104A7
:10033000040104040404000000040401010101019B
:100340000404010104010104040404000004040481
:100350000404000000000404000000000400000089
:10036000000000000400000000000400020000047F
:100370000004000004070404000004040400000258
:10038000020004000200000204070004000404004C
:100390000004000402020404040404000004000435
:1003A0000404040404040004000203040004040020
:1003B000040004000004000400000000000000002D
:1003C000000100020102B603B4190200000100009E
:1003D000007E12030000010000008A1204000001E8
:1003E000000000FA1905000001000000411A060093
:1003F000010001E6154F1407000001000000541A27
:100400000800010001B503A7140900000100000065
:10041000340C0A00020101E11574190B00030103F9
:10042000B203350C0C00020102B00389190D000261
:100430000002B603EB0C0E00020002CD15B41D0F36
:1004400000030003B203271E1000020002B003E500
:10045000131100050005AB0369161200020002CD5E
:100460001571131300010001B503361914000200C1
:1004700002B003A0131500020002CD15C813160028
:10048000040004A7032A1D1700050005A203B815E0
:100490001800010001B503021919000800089A03A9
:1004A000D41C1A0003000397039E151B00020002D0
:1004B000CD15CE1A1C00020002B003751C1D0004ED
:1004C0000004C515A21C1E00010001B5038C151FF8
:1004D00000020002CD15561320000900098E031DED
:1004E0001C2100020002B00345152200040003CFC6
:1004F00015EC142300030002D215A71224000300F8
:1005000002D215D3182500040004C915B71226001D
:10051000010001B5033D1527000300038B031615E9
:10052000280004000388031D422900040004C915A3
:10053000623A2A00010001B50376352B000300035F
:1005400085036C3D2C000300038203753D2D0006DE
:1005500000067C03E83D2E00020002CD15F5342F85
:100560000005000577035A393000040004DB1597B5
:10057000393100020002CD15BE3932000400037487
:1005800003063D33000500056F03EE37340001001C
:1005900001B503143B3500040003BC15DC3C3600F8
:1005A0000500056A031D393700040004C9155536D6
:1005B00038000300038B03BA353900030002D2155B
:1005C000B7343A00030002D215D6343B00060006C9
:1005D00064037C373C00030002D215D6363D00038D
:1005E0000002D215F2363E000800085C030E373FC9
:1005F00000060006640369454000050005570391A5
:100600003C410006000651031336420003000397E5
:1006100003F6384300010001B503B33A4400020079
:1006200002B003593F4500020002CD159D3546003A
:10063000010001B503B9444700020002B0030C3FBA
:1006400048000400044D03B0384900010001B5031F
:1006500010444A00020002B003BE3E4B00030003F8
:10066000970375384C00010001B5038D434D00021E
:100670000002B0036E3E4E00020002CD157E354FE3
:1006800000010001B5030A435000020002B0033D1F
:100690003E5100020002CD1557355200010001B550
:1006A0000360345300020002B00387365400020096
:1006B00002CD159C3455000400044903433856000C
:1006C000010001B50309345700020002B003D83518
:1006D0005800020002CD1545345900030003B91536
:1006E00031355A00010001B50356525B0002000289
:1006F000B003534D5C00020002CD157F475D00053D
:100700000005A203734A5E00010001B50345535F73
:1007100000020002B003164D6000020002CD156415
:1007200047610003000397034E4A6200020002CDB6
:1007300015C7476300030002D215734C6400040020
:1007400004C515444865000300039703A6486600E6
:100750000300039703DE4667000500054403F446E3
:1007600068000400044003154769000700073903C7
:100770003D476A00020002CD15B4476B000100013D
:10078000B50383466C000700073203E6476D00039C
:1007900000032F03AC466E000300032C03C2466F18
:1007A00000020002CD159A4770000001000000BD54
:1007B0004571000000050000000078DA9D5A7B6F4B
:1007C000E33612FF2A3A03C55D0FC99E25DBB29DB1
:1007D00043FFC83ADEDDDCE6553BE9167738088A88
:1007E00044DB42F4704569935C91EF7EF3E04BB2D9
:1007F000B705B6C0D622391C92C379FC6698DF07CC
:10080000F17E3F381B7CCEB3FD5ED48393C1639BE6
:10081000E569F455D432AB4A0943DB2439F3FEF6DB
:1008200071B1F8D19BBE1BBD1B7A8F59D936592E99
:10083000B1F7E6C17BAF9A3F7AC1BB207C170CFDB4
:1008400070E807136095544511972930F97D10A77A
:10085000D20F826114374D9CECA2A6CEB65B5147F5
:100860007119E7D5D6ABB2F4A71F12AFDB1B71EF3E
:10087000E06C363BA1F923BF18BE7C178779001CBA
:10088000F2BC4AE24660A7F492AA2D1BE60E434C46
:100890009D95DFC57CE4A3D49A06C415C5C993A66B
:1008A000B62B8C4387204D35C1BE92F493953FFD06
:1008B000D07AFB36CFA376CF136676C26FADA85F32
:1008C0000D4F38C21352D742365193254F925B4D8C
:1008D0001D97B2C89A48AFEA6525DCA15A7F0A770E
:1008E000918BB88EE4AE6DD2EAB91C9C05783DE5DB
:1008F00026DB46EA66F412729FA9937969DCC4513B
:100900002DE2F435E24D82B0E69D797423476626E8
:10091000BBB82C458E9F655B44AA29BFC1743E724B
:1009200098BEE4A3F1E490E5E02C7496D6F7654414
:10093000A9388D2CA7C7220345D4048FAD8CBA9F4C
:1009400051F3BA17C4783AB19358E876163623E7CC
:1009500026ED1EA853D4DD1D746E71121AE234DB2D
:10096000664D9C4755DBF4267C8DF356905CC4267F
:100970006EF326321D45FC12A56D1D376087743855
:100980007F6AF809B0AAA6DA7778259DC503BBF877
:100990002E1D8FA733238A5A2AC17B427FA463F37B
:1009A00035315FA1F99A9A2F91C7AF46EDE04AAC75
:1009B00016ED5EA6BED1846D0CA6E4E8400AE7D62B
:1009C0003C64923F5975B2A2CF82C4D3573DB67CE6
:1009D000B3A40886F3F14CB30632EB177C4396A719
:1009E000891FFAC131AAD3D1B04F163D67CD0ED4BD
:1009F000A7793C9CE061376F90263B6B6432489F3F
:100A0000FF5CA33C2084D3677B47C5EC818A7D3B98
:100A10000F26C3633B9DCE0C5529AA7DF622F29E7C
:100A2000B690F1C8EC7FC075D782236E22D412C76E
:100A30000F48015D207C7B4793B161BA7F2E8E68A1
:100A400060F20ABEC1F250FAB76BFB1A093D072AE1
:100A500039B6F7272B196DB2DC3109A49622416211
:100A6000C9C20CAC18C0B2FBFB40EFD9645F45B4FF
:100A7000CBB63BF6AC73971ECC7E9B8B23DEC68C2D
:100A800059819F06D3CE54EDF88ECD56435121B7F0
:100A90003FFDF0778856A371672E2A0B2A70228DAE
:100AA000828EEC4DC9663AB7DE339147F4DC93A0F1
:100AB0001CFAF3B54CA2AE1D794991467DD39A3804
:100AC000476F04C666B375682AFDF4D2ACD69FECB6
:100AD000EF89D852B5B9140ED3C0BAC76627EAA2B7
:100AE0000227B63F2A5277D84A35B44EA529923606
:100AF000AE8D2ED52FD18107F41AD3899ADA648569
:100B0000E0A359933A1E67AD2A5923769C5F53A3FD
:100B100010ED5D8079A7E2B105A3A900CACC750BE1
:100B200096DE92C1F0A5FA860C838F57D5A9A871DD
:100B30003108C835BBD740133CD759230E28D032D3
:100B40009810F62F0A516F4599BC46E8876113D07B
:100B5000C53E39DA55853888D7322EF6AE95A9B616
:100B600089D6DD780E5BB771808F1BF530081C428B
:100B700056ECA382895D9CD002EC296E8411500052
:100B8000EABCC940C2E0372296A197D4097BF09312
:100B9000C1165C06ED136E46B58806FC1137DB3DC9
:100BA0005E1D18FBC940851230EB328D406D4DA49F
:100BB000C46F9673E8F7C8F00A3C07512832B80EA4
:100BC0008A19DF8708612FE839D1DD81F7759D2902
:100BD00034C9158204F0172F4F4856FFB16F67C90B
:100BE00067772218AB31D0347654D9319F0EAB5091
:100BF0006D8070D7C61A27A90E9ED0432D8B72A187
:100C0000FC249C364B45D9641BC0729B0DEC800CB8
:100C1000DF000BD8998E4DDF238FD31128AF8E19AB
:100C2000247673FB1377A4DDA756331880EE5AE7BA
:100C30005626A0C7AC423D54D8D14F90FFB4474789
:100C40002AD75A07390B5D820E4CECB19AFB0794F8
:100C50007D66F3A125E9C0C31EAB70D6A3EB330AB2
:100C6000EDB6FB08F23B2DF5F1B511E0F2C920F726
:100C700015E16DAFB0D6AB62A66D81BA6C81D94E6D
:100C8000244F0EACC4DBE37D75516BEF7CD37197C1
:100C9000AC7FBCA9B9BD1E383587DB57E09CFB474C
:100CA0007382CE4433E8C0B9FEE58F3A5407576FDC
:100CB0000ED3C76E7D3EC33EE1C181E69AA287EFA7
:100CC000FA3A64F6DDC5687DF9F95DB283E5CC8654
:100CD0007A20ADCF67DAA33B6064B4FF00B67C2313
:100CE00083430F0B2025DB340ABE185566D63D0121
:100CF000C0918D2E1C8BE4DF58C5D1CC8E6272035F
:100D00001004C488D4D1CB90E5DA8A63098C59A346
:100D100072E1A66FA6F4D0A62137C6006E71AC8929
:100D200011AE7816808B9A83ADF6903BF2BEF09BA5
:100D3000413803FD22A08BA82054DFC480C3587F14
:100D4000419801F78A34EE217AE9176C7C744044AB
:100D50004720786C7876B0324C0A7952295ED416E6
:100D60000091996097D51C7F7D26D202F913DC0D86
:100D700062C1AD580C847319196BCEA58BAB41467B
:100D800062B38936750CC12F6B34D40E0F7870DCCA
:100D9000896412DB03E9589479D46D3E3AECBCB80F
:100DA0006DAA489312F7C90177B5231351B9196594
:100DB000E98B827443625E495FFD06EA77A47EC7D1
:100DC000F08BAC0F0FEFC29903C638C6ACF1CB570E
:100DD0004C40B19CACA017A46DBC3B0DE64CE88424
:100DE0004C677834D1A31D98815D0A6614552A1C7E
:100DF000B80153A6764A17631499AC34B2282A99DD
:100E00001D4B1434BB3E700F47CCF5DB2719E17D39
:100E1000532AF247E06C32EB521DC766133C03279E
:100E20001D110240C0099973B7A0F6734B40B0136F
:100E30005D0023130B541CD40A3360619532746433
:100E4000DDC54B0C58C05A7B30C785D47F02873D27
:100E500051D795DB367EA7A8CAAC8121EB0D55078B
:100E6000F83E12F26970B8F2313C7D8A06DDA3C308
:100E7000EBAEE3E788E2BB091BD051E0C566FC8915
:100E8000EBA07692300EE71F48B043A18B0BBA5B04
:100E9000F90BE237477E2416E203B1E488E3054705
:100EA00034B3748D9BBC1174899CA0416D2328F1CF
:100EB000B2CF6AD14939EC8ABD5DBB44A0460C383B
:100EC0008F850FC7F38EDF746E8795E2F38B4574C1
:100ED0007DFE2B666CE80BDE3FACA3BBCB9B35865F
:100EE000D2C1D9E0EEFDE8E4EE7D00FFFC8133D80D
:100EF0003CD3E0C5F0E4EE02071657B78BCFD1879D
:100F0000D5F26774D243FAEF6470BD7800AAB829AD
:100F1000C4360E26E11008EFBE5CF36A01829FD54D
:100F200072B1BCFC65197DB9BCB9B8FD828A1E607E
:100F3000E77AB9824EDE85A8B338C7B596B0D61227
:100F4000D782D1CBF3ABE8FDF9C305B2E1A5D6F763
:100F5000E7F7EB68FD70BDFE1946D64B1C09B17B67
:100F60007977B75C45B777F797D797FF5E5E440F01
:100F700037D8C729821EC5DFE8FDEDFDA76879F1E6
:100F800011A6FA6F98E1B5907352E9C514D4192DE2
:100F900093C69F61DF7A79B3BE5D45CBD50AFEBFAC
:100FA000582D28AFE874E259EE612F6F5860B6559E
:100FB0002B9C0CE90CD1939C876F9CDF00118E91C8
:100FC000789D3E854A7008AF00CEB2BC7DB8A7AA16
:100FD000F2CDF9E233AF7B7FBEBA8FB839D2CDD52F
:100FE000F2FC42F5818B5E3F2C16CBF59A59EBFC57
:100FF000C71EE732584417E7F7E7BC77E28E5D2853
:101000005A585475C24A9737BF9C5F5D5E30739CD7
:10101000C00BF2B957CBBBDBD5BD21A795DCFA1CC1
:101020002E7475B90E2EE0BAE10AE07374F18945A9
:101030000E4E1947EFCE8783B3FF0C4F66FF057541
:10104000798FDF33FE5EE03740006A5C6003E20EBA
:101050003596D800544F8D0FD818ABF91FA9A11899
:101060007CC2C64431F81736A66ACE675A46CDB957
:10107000A206CE79EB8435B5FBD81F8D46B4F9585E
:101080004E86E3694A42299A70E6872409FC0C429D
:1010900049226F723119FAC123EB808A64C8C55C9A
:1010A0003B5E6D861EA2CE4AC8905265931ED9EE55
:1010B00086331836EEF39CEAF89E2E2EA48CA216E8
:1010C00071E9955503911AFE551B003CCF05A31DF0
:1010D0008F5C8AF7BCCBE09B5D83F4F6100E602535
:1010E00086697A6E2B0561E2DAF73655ED8195FE59
:1010F00053B73389A329F553972A3AC0D4BF36088A
:10110000133D996D61435EB38B1BA48ED536194395
:1011100071BD44114B24458FC4551DEE254049AC8B
:1011200061A7A2F474FDCDCC073D5CF0D396B78FD8
:101130006BF0081C74A860A2076A01A14336F4BCD6
:10114000F42186F3A65E537914FAB0D24DFE9723AC
:10115000ED072E9A6AFC9495A978F1F2B846A70A91
:1011600047283B7554AE9E7DFA15B333ACB2FF43AE
:1011700055D93BB7E3F9A7637EF50173F19405B246
:10118000F1786486BACF77FBD07AF4C09007EE3955
:1011900092B0BFBFE4F4C0B309BD7ED6F1D879AB3D
:1011A000C2303F5F196A9368F753657EA3D074FA23
:1011B000E5C53E6531F66710A6A9D48B2255AA6C09
:1011C0001F90E145C48500417295530F1615A06626
:1011D00075171E16CE31DCD861536637857576C417
:1011E00007E3AA7062D61F390201F5F1D816B1845F
:1011F000A87BB1C0AD835A30EBF4AB8C105D909AF4
:10120000381976094001DBBD3D93E4C7244DD1C9AF
:10121000F81C2EF86C721DBFA01ECCB44019915E54
:101220000B2963500C51268030B5BA02CBEB4CA28F
:101230002DC96427D236C78A294CC66CC653219B58
:10124000144B7C157813887BBE3D6117D72999BA5A
:10125000A2C62AFA358A9F323C0FBEEA4D5E3D7324
:101260008A7803361E7B7C1C742EE46A27BD01B08D
:101270007A1EC0772677202BF79C4771C58A864A4D
:10128000DCA9ED1E536837B6BFAFAB2D08B380ADF8
:10129000C778B60D8068D825085BA0DBC26AE44A2F
:1012A000A843A1A9A25F816550D4700D68C75847B3
:1012B0005B1B8203E978CF599E03524A805FE79D0A
:1012C00084D1B29D6924F40733F019730D3E88EF81
:1012D0009036801459D116BA4F1B07620AFDB641E9
:1012E0006FBCC08CBC167960F7B977ADDC5853552C
:1012F000DE26A6D3F1C93059BA77550A450684F4DB
:10130000FAC355D37B9207CE0490280545958752A2
:10131000B67B3464C12E8DE2083E5B7C899B64976A
:10132000565B96E25F387BA1D77788BA6DF9048C5B
:10133000D11FF283A6D32FED40886FF26823E030EF
:1013400025F879B46080A0E06924DF2F3EC4220E26
:1013500041C5A7D55BBB1B7E96B2A36C355C6D30D7
:10136000BD689EDD39F66D83034055E61033BEC27D
:1013700096E2C75C870223D0396121AFD11E1233B8
:101380002BCCDE72AFB7289C9DFEE0C04421F567F0
:1013900008293F49482C0AA303679583DC9B243026
:1013A00036E912B926123DC5047E7B3A02ABF1BE86
:1013B000D93AF0BD4A052BB63D4CBF20B01FBCE961
:1013C000606407EC3BF2679309E107D508094070B8
:1013D000239C90F240230CA7F03D7A3BC85D2C6023
:1013E000BBBEBDB9BC5748EDF697E5EAC3158168A9
:1013F000B0ADF32FD1EAFC06B1ECD020B3F5DD722D
:1014000071F9E1727194A901378F32C253E3EB0D88
:10141000582DC48FF829DA36B404FEF86F04E812A8
:10142000D013A01AE01FA47CBCBBFA3A1A50616822
:101430000F1E50305C367FE2D1A92650E1A65B9AA0
:1014400052A9F2E9C8FE0D46674AEC946EB9E8A0CD
:101450001E98D0CB7305CAA65CA7BE797CF6107522
:10146000D2176565F400837D5AA7A846005E323224
:10147000352F984EAF8054CBFDA37DAB19EA23B234
:10148000CBFB18E2F5AB970473368F58A753FB6874
:10149000D4E10CB93678F5C335DC3729983EE15CE8
:1014A00040CBB8F702A3F203553B250A2555DF3E92
:1014B000843893CD8B081721DE21293E9958E9788D
:1014C0007D58AA0484D1DC3C6FA833EA324D9B24BA
:1014D000F45E43D53D60078BB92F82A733323FF0CE
:1014E0002FB0E5FCA9530C910819CA44F4DE477CDF
:1014F000AA0839733A855F5B6B5095599D407379A3
:10150000D065F9D852044AB9280F30145C4CA44372
:10151000A4E4B3F91841A575EEFA81E21B82181D07
:101520002B791D5C905B1976EEC51FF52A4C0713CD
:101530007BF71850A2503784DC4F31A4E3BEA4558A
:1015400045D916EA47FEA64C21B055A35E49899FAE
:10155000A2B09611F6FC54F74A8F982B7E50A452F5
:10156000F71CD842D3E111B0C4C4B63A3F2CC11C19
:10157000B702FEEAD854E89651EC9C243655B0E305
:10158000A529C72D8CD187538AC17FECD0767C06E4
:10159000269FEA2FF0C0A78D1F9349380E076FFFD3
:1015A0000782DF458BEB0D000028292A2B2C2D2EDE
:1015B0002F50515253545556570404000402070447
:1015C00000000200020400000404000000040404FF
:1015D00004070407040007040404000404000404CE
:1015E00001070400040200000000000000060002E1
:1015F000028800100A03B9158700400A03BC15864B
:10160000001E0D06BF158500400A03D41584001581
:101610000B04C5158300180B04C91582000B0902C1
:10162000CD158100400902D2158000400A03CF1574
:101630007F00400903CF157E00400802D2157D00CF
:10164000400903D4157C00110A04D7157B00110A48
:1016500004DB157A000D0802DF1579000B0701E69F
:10166000157800400701E1157700120A04E21576AB
:10167000000B0701E6157500100802E71574001548
:101680000903E9150000400802EC1573000E08027A
:10169000EE157200090701F0157100060600000042
:1016A00020002300260029002C002F00320000011A
:1016B00000000301060109010F47004400450080B6
:1016C000013548004400450020010D88008000815C
:1016D0000080000E8A008000810020000F8C0080B6
:1016E00000810008000CB300B000B10080033EB4DC
:1016F00000B000B10020032398009000910080000A
:10170000249A00900091002000259C0090009100F8
:1017100008003BA800A000A10080003CAA00A00097
:10172000A10020003DAC00A000A10008005B280142
:101730002001210180005C2A012001210120005D9F
:101740002C0120012101080011241FBECFEFD1E29E
:10175000DEBFCDBF00E00CBF14BE0FB6F894A89555
:1017600080916000886180936000109260000FBEDD
:1017700012E0A0E0B2E0E6E4FAEA00E00BBF02C04B
:1017800007900D92A033B107D9F723E0A0E3B2E0B0
:1017900001C01D92A43AB207E1F70E948F4D0C944C
:1017A00021550C940000FC0186898460868B109280
:1017B000260281E080936C0284819581A681B781A5
:1017C0004089518962897389840F951FA61FB71FAD
:1017D00084839583A683B78381E008950F931F9335
:1017E000FC01A489B58986898C9393A181E089271E
:1017F00083A3448155816681778190FD12C0008565
:10180000118522853385400F511F621F731F82FD92
:1018100012C0448355836683778381E01F910F91C3
:1018200008950485158526853785400F511F621F51
:10183000731F82FFEECF0089118922893389872F98
:10184000401751076207830B87FDE3CF86E691E1DE
:1018500093838283B901A801448355836683778388
:1018600081E01F910F9108950895FC018081A4816A
:10187000B58140855185628573859FB7F894813025
:1018800061F0823019F04C939FBF08954D935D93A2
:101890006D937C9313979FBF089511965C934E931D
:1018A0009FBF08950F931F93CF93DF938C01DB01AC
:1018B000FC019081709156029F5F492F50E0440FC8
:1018C000551F440F551F2091570230915802240F85
:1018D000351F0BC0E9012C5F3F4FF9013497408160
:1018E00051814A175B0751F09F5F971798F390E07B
:1018F00080E0DF91CF911F910F910895F8019083BF
:101900008A819B81DF91CF911F910F910895CF9292
:10191000DF92EF92FF92CF93DF9360915E0270911E
:101920005F026115710581F1615071096B01F12C44
:10193000E12CC0915B02D0915C0240915D0250E0CD
:101940006115710591F0FE0180E090E0DC010196E7
:10195000A11DB11D9A012E0F3F1F31832083F90174
:101960008C159D05AE05BF0590F3469FF001479F7E
:10197000F00D569FF00D1124EC0FFD1F1182108207
:10198000D0936F02C0936E02DF91CF91FF90EF90E2
:10199000DF90CF90089580E0089510922602E2E152
:1019A000F2E084819581A681B781AC01BD015659D1
:1019B000674E7F4F44835583668377839659A74E3E
:1019C000BF4780930E0290930F02A0931002B09332
:1019D000110281E00895FC01648180810C94C84A61
:1019E000FC0180917A0086FD08C0828D90910902E9
:1019F000981789F09F3F09F463C084819581A6817F
:101A0000B7818853984FAF4FBF4F84839583A68388
:101A1000B78381E008958FEF8093090220917800C9
:101A200030917900858D968D891790F54489558977
:101A3000240F351F8F5F358B248B858F891770F1AD
:101A4000868997892817390708F448C0808D918DB9
:101A50008217930708F442C0138E1092260281E089
:101A600080936D0280899189A289B38940855185CF
:101A700062857385840F951FA61FB71F808B918B7E
:101A8000A28BB38B84839583A683B78381E008956B
:101A900081E0358B248B858F891790F68481958121
:101AA000A681B7814485558566857785840F951F06
:101AB000A61FB71F84839583A683B78381E008950B
:101AC00080930902982F987090937B0087708064B0
:101AD00080937C0087ED80937A008FCF838D8F5F1A
:101AE000838F948D891708F4B8CF809128028111D3
:101AF000B3CF8BE10E94D20F2F923F924F925F9211
:101B00006F927F928F929F92AF92BF92CF92DF920D
:101B1000EF92FF920F931F93CF93DF9300D000D0EB
:101B2000CDB7DEB7DC011596BC91B9835B2F56703B
:101B300081F1032FD22E142FC62E9B838A83B1707E
:101B4000BC83E981E1FD3EC0AA81BB819C911196D5
:101B50008C919CBD8DBDBC81B11172C1CC2009F4AA
:101B60003EC1112309F4D4C0ED2DF02F1150AF0167
:101B70004F5F5F4F410F511D80818EBD0DB407FE39
:101B8000FDCF8EB58193E417F507B1F7EC81E11134
:101B9000C3C026960FB6F894DEBF0FBECDBFDF914F
:101BA000CF911F910F91FF90EF90DF90CF90BF905A
:101BB000AF909F908F907F906F905F904F903F90ED
:101BC0002F900895DC010D90BC91A02DBE83AD83B4
:101BD0001D964C911D97427016966D917D918C913A
:101BE0000E94A64A0E942D4CED81FE818184928440
:101BF000A384B484680D791D8A1D9B1D0E94DB3F60
:101C0000FC81FF2309F4FAC0F980F694F694F69467
:101C10004F2D4170AA81BB8112966D917D918C915F
:101C20000E94A64AEA81FB810190F081E02DFE83AB
:101C3000ED8381849284A384B48424013501769455
:101C400067945794479484189508A608B7080E948B
:101C50002D4C640D751D861D971D2FEF210F11232F
:101C600009F45EC0ED2CF02EA7014F5F5F4F1A0103
:101C7000220E311CD701DD907D01ED81FE8125858D
:101C800008E010E020FF6EC00E94DB3FAD81BE8106
:101C90001696ED91FC91179718968C911897808362
:101CA0004D2D407813966D917D918C910E94A64A9E
:101CB0000E942D4CDD0C110F680D791D8A1D9B1D96
:101CC0000E94DB3FAD81BE811696ED91FC91179786
:101CD00018968C9118978083ED91FC9111978081D3
:101CE00012969C91892391E009F490E0192B0E94AF
:101CF0002D4C640D751D861D971D015029F6CC20B5
:101D000019F0F701319710832E143F0409F0B2CF78
:101D1000EC81EE2309F43DCFF980F694F694F69425
:101D20004F2D40954170EA81FB81628173818481EE
:101D300026960FB6F894DEBF0FBECDBFDF91CF91D0
:101D40001F910F91FF90EF90DF90CF90BF90AF90D9
:101D50009F908F907F906F905F904F903F902F90CB
:101D60000C94A64A0E94DB3F4D2D4078ED81FE8108
:101D70006381748185810E94A64AAD81BE811696D9
:101D8000ED91FC91179718968C9180830E942D4CB1
:101D9000DD0C110F680D791D8A1D9B1D0E94DB3F14
:101DA000AD81BE81ED91FC911197808112969C913D
:101DB000892391E009F490E0192BAD81BE8116963C
:101DC000ED91FC91179718968C9180830E942D4C71
:101DD000640D751D861D971D015021F690CFED2DC8
:101DE000F02FAF01410F511D4E175F0709F490CF3F
:101DF00081918EBD0DB407FEFDCFF6CFAA81BB81C8
:101E00000D90BC91A02DBE83AD8319968D909D90B1
:101E1000AD90BC901C97240135017694679457943B
:101E2000479484189508A608B7080E942D4C640DA5
:101E3000751D861D971D2FEF210F111113CFA9CEF0
:101E4000B981B3FB442740F9EA81FB816281738148
:101E500084810E94A64A82CE0F931F93CF93DF9373
:101E6000EC010FB7F8949E8990FF25C0162F6F8B59
:101E70009A7F94609E8BAC89BD891097B9F01296B9
:101E8000ED91FC9113978D919C9111979D8B8C8B6B
:101E900011961C921E9213961C921E921297612FFD
:101EA000CD011995AC89BD89109749F7109226028A
:101EB00081E080936C020FBFDF91CF911F910F9152
:101EC00008950897FC01608D0E942C0F80E0089512
:101ED000FC01A085B1859C91818D22859223C9F05A
:101EE00080958170C1F4838D815029F1838F848125
:101EF0009581A681B7814785508961897289840F50
:101F0000951FA61FB71F84839583A683B78381E09F
:101F10000895817041F382EA9FE0938382838389ED
:101F20009489A589B68984839583A683B783828D96
:101F3000838F81E00895648D8789908D0E942C0F96
:101F400080E008950F931F93FC01A085B1859C91BB
:101F50004481558166817781038514852585368581
:101F6000400F511F621F731F818D2285922359F0EC
:101F70008095817051F0448355836683778381E037
:101F80001F910F9108958170B1F7438B548B658B2E
:101F9000768B88E69FE093838283CF011F910F9118
:101FA0000C94680FF894682F70E08DE392E00E9423
:101FB000C4544F925F926F927F928F929F92AF9292
:101FC000BF92CF92DF92EF92FF920F931F93CF9326
:101FD000FC01A4A1B5A11097B1F416861786108A4A
:101FE000118AC0E08C2FCF911F910F91FF90EF903D
:101FF000DF90CF90BF90AF909F908F907F906F9029
:102000005F904F9008958D919C91119795A384A313
:1020100012964D915D916D917C91159718960D9149
:102020001C91199716968D919C9117971A962C9141
:102030001A97E0906E02F0906F021196FC92EE9269
:10204000B0936F02A0936E02C0A0D1A0E2A0F3A053
:10205000C22FC17020FF08C0F094E094D094C094C7
:10206000C11CD11CE11CF11C30E020E0C00ED11ECF
:10207000E21EF31EC0A2D1A2E2A2F3A2958784873A
:102080006C01092E000CEE08FF08C40ED51EE61EDA
:10209000F71EC086D186E286F386A4A5C480D580CB
:1020A000E680F780A5FD28C086849784A088B18843
:1020B0004288538864887588440D551D661D771DB8
:1020C000428B538B648B758B4483558366837783F4
:1020D0009A2F9071A4FD04C0000F111F221F331FFF
:1020E00006871787208B318B89288A288B28F1F463
:1020F000C11114C0C1E076CF4C0D5D1D6E1D7F1D5A
:10210000448355836683778306871787208B318BBB
:10211000892B49F0A064A4A7CC2361F3A58DB68DCB
:10212000878D8C935FCFAF7BA4A7F6CF8F01872FCE
:102130004C155D056E058F0987FD33C0CC23D1F2A8
:10214000911125C0D8015D96ED91FC915E975F9647
:102150008C9180830E942D4CF801C688D788E08C32
:10216000F18CDC01CB018C0D9D1DAE1DBF1DC4800B
:10217000D580E680F7802F2DC816D906EA062B0BEE
:1021800027FFB8CF84839583A683B7832BCF0E9484
:102190002D4C292F6C157D058E052F0927FDF7CFB6
:1021A000D1CF4C195D096E097F094038514C6F4FF2
:1021B0007F4F2CF0C482D582E682F782BFCF88E1C0
:1021C0000E94D20F8F929F92AF92BF92CF92DF92D6
:1021D000EF92FF920F931F93CF93DF93EC01EA8D61
:1021E000FB8D8C8D80830E942D4C0E891F89288D3C
:1021F000398DAB01BC01400F511F621F731F8E85CB
:102200009F85A889B9890197A109B10980FF19C0E3
:102210002CA524FD1AC08E879F87A88BB98B4C8371
:102220005D836E837F8381E0DF91CF911F910F915A
:10223000FF90EF90DF90CF90BF90AF909F908F90E6
:1022400008950097A105B10571F188849984AA8445
:10225000BB840A891B892C893D89080D191D2A1DFB
:102260003B1D0A8B1B8B2C8B3D8BCC84DD840D2C72
:10227000000CEE08FF08C80CD91CEA1CFB1CC88621
:10228000D986EA86FB86E32F041715072607E70B96
:10229000E7FDC1CF8E879F87A88BB98B0C831D83E9
:1022A0002E833F83C0CF4C835D836E837F83CE01BB
:1022B000DF91CF911F910F91FF90EF90DF90CF9022
:1022C000BF90AF909F908F900C94D90F8F929F9258
:1022D000AF92BF92CF92DF92EF92FF921F93CF9374
:1022E000DF93EC01EF8CF8A0E114F10409F400C1D4
:1022F000F7018081918198A38F8F86809780A08439
:10230000B18411E081149104A104B10409F4B6C0B0
:102310006C897D898E89412F0E94A64A80916E0228
:1023200090916F02F70191838083F0926F02E092A7
:102330006E0281149104A104B10489F18B8D9C8DEE
:10234000AD8DBE8D88169906AA06BB0640F54F894D
:10235000588D698D7A8D411551056105710509F416
:10236000BBC08C819D81AE81BF81480F591F6A1F00
:102370007B1F1660EF8DF8A13097B9F1C280D38032
:10238000E480F580872F4C155D056E058F0987FD6C
:10239000B2C08BA1912F9270B701A6017EC08BA114
:1023A00021E081149104A104B10409F069C084FB07
:1023B000992790F931E09327291709F442C04F89F2
:1023C000588D698D7A8D4115510561057105C9F1E9
:1023D0008C819D81AE81BF81480F591F6A1F7B1F71
:1023E0001460EF8DF8A1309749F62BA1488B598BDB
:1023F0006A8B7B8B2071212B2BA3212F247011FF43
:1024000065C0880D991DAA1DBB1D211158C02EEE57
:102410003BE03B832A838C839D83AE83BF83888686
:102420009986AA86BB868B8D9C8DAD8DBE8D8819B5
:102430009909AA09BB098C879D87AE87BF8781E070
:1024400011C090E0EF8DF8A1309719F5188A198A1C
:102450001A8A1B8A8071812B8BA3212F247080E024
:1024600091113EC0DF91CF911F91FF90EF90DF90CF
:10247000CF90BF90AF909F908F90089510E048CF7D
:1024800020E084FB992790F931E09327291397CF17
:10249000D8CF4281538164817581488B598B6A8B77
:1024A0007B8B80711460182B1BA3992379F08C818E
:1024B0009D81AE81BF81880D991DAA1DBB1D2B2F4B
:1024C00084179507A607270B27FDA1CF4C835D83B3
:1024D0006E837F8381E0C6CF12608BA192E0B2CF82
:1024E00040E050E0BA018C819D81AE81BF8189CFEF
:1024F00085E10E94D20F83E10E94D20F80912802D1
:10250000882329F0823011F010922802089582E089
:102510000E94D20F88E00E94D20F90915602891734
:1025200098F490E0880F991F880F991FE091570247
:10253000F0915802E80FF91F808191818617970763
:1025400019F48281938108958CE00E94D20FCF9379
:10255000DF93EC0166E175E188810E948D12288588
:1025600039854C8160E0DF91CF910C947C0D8F9286
:102570009F92AF92BF92EF92FF920F931F93CF93D0
:10258000DF937C0166E175E1FC0180810E948D1280
:102590008C01F701C085C43008F07FC0FC01D581F3
:1025A000D67009F07AC0F70184849584A684B78434
:1025B00084819581A681B781892B8A2B8B2B09F089
:1025C0006EC0E2EAF6E1A591B49111968C9180FD7E
:1025D00004C060E088E00E94C84A60E089E00E9490
:1025E000C84A60E08AE00E94C84A60E08BE00E942E
:1025F000174A80E58CBD1DBC81E08114F2E19F0685
:10260000FAE7AF06B10470F5811489E098068DE30E
:10261000A806B104E0F581E0D1E0E0E88E16E4E838
:102620009E06EEE1AE06B104E8F480E0D1E0F0E40D
:102630008F16F2E49F06FFE0AF06B10498F480E243
:10264000881681EA980687E0A806B10418F580E0AC
:10265000D3E0E0E98E16E0ED9E06E3E0AE06B104BD
:1026600008F0D2E0CC0FCC0FC065CD2BF801C083B1
:102670008183858184608583DF91CF911F910F9144
:10268000FF90EF90BF90AF909F908F90089580E063
:10269000D0E0E8CF81E0D2E0E5CF0E94664588E354
:1026A0000E94D20F66E175E10C948D120F931F9377
:1026B000CF93DF938C0165E475E1FC0180810E947A
:1026C0008D12EC016AE977E4F80184810E948D1291
:1026D000CF5ADF4F99838883DF91CF911F910F915C
:1026E00008950F931F93CF93DF938C0168EB75E1EF
:1026F000FC0180810E948D12EC016CE875E1F8010B
:1027000084810E948D12BE01685D7F4F4FB7F8949F
:102710002AA53BA5232B89F428E23BE13BA72AA766
:10272000FC012489358939A728A7758B648B4FBF95
:10273000DF91CF911F910F91089589E10E94D20FEF
:10274000CF93DF93EC0168EB75E188810E948D12D5
:10275000FC018C819D81AE81BF81F89446855785AF
:1027600060897189452B462B472B79F484839583A7
:10277000A683B783828B938BA48BB58B84A5877F2D
:1027800084A77894DF91CF91089586E10E94D20FBB
:10279000CF93DF93EC0168EB75E188810E948D1285
:1027A000FC018C819D81AE81BF81892B8A2B8B2B73
:1027B00051F480E0F89494A59D7F982B94A7789489
:1027C000DF91CF91089582E0F5CFCF93DF93EC01B5
:1027D00069E676E188810E948D12F894FC01278DCC
:1027E00030A1232B61F44C815D816E817F81438F09
:1027F000548F658F768F7894DF91CF91089584E11F
:102800000E94D20FFC0113821282118210828091E9
:102810005E0290915F02892B41F480915D028617E0
:10282000170614F460935D0208958EE00E94D20FA3
:102830002FB7F89480916E0290916F02009749F043
:10284000FC014081518150936F0240936E022FBF73
:1028500008958FE00E94D20FCF93DF93C091590269
:10286000D0915A02AE01480F591F2DB73EB72150E3
:102870003F4F22273A952417350770F050935A029C
:1028800040935902AC0170E060E0CE010E941A55FD
:10289000CE01DF91CF91089581E10E94D20F0F9375
:1028A0001F93CF93DF938C0180915E0290915F0222
:1028B000892B09F049C060915D0270E0623028F414
:1028C00082E080935D0262E070E0E0915902F09155
:1028D0005A024DB75EB741505F4F44275A959F014A
:1028E000D0E0C0E0C901860F971F4817590730F1A3
:1028F00021969C01C115A4E0DA07A1F78E1B9F0B5E
:102900000E942C14D0935F02C0935E0290935C02ED
:1029100080935B020E94870CF80180819181A281E3
:10292000B3818093600290936102A0936202B0939E
:102930006302DF91CF911F910F910895C9012097F4
:10294000E9F680E10E94D20F8DE00E94D20FCF9372
:102950002091570230915802232B91F4FC01C08141
:102960008C2F90E0880F991F880F991F0E942C14BC
:102970009093580280935702C0935602CF910895C6
:102980008AE00E94D20FCF93DF939091560289176D
:1029900000F5282F30E0220F331F220F331FC09184
:1029A0005702D0915802C20FD31F88819981892B79
:1029B00081F480915E0290915F02892B51F47983BA
:1029C0006883CA010E942C149B838A83DF91CF9174
:1029D00008958BE00E94D20FCF92DF92FF920F9367
:1029E0001F93CF93DF93EC0166E175E18C810E9428
:1029F0008D126C01F8840F2D10E0A8014D5F5F4F20
:102A00006CEE74E188810E94C314FC01D182C08203
:102A1000F2826C857D85A8010396DF91CF911F918D
:102A20000F91FF90DF90CF900C94FF54FF920F9383
:102A30001F93CF93DF938C0146E050E066E175E190
:102A4000FC0180810E94C314EC01F801F08461E074
:102A5000F11060E0F80184810E94C84A6A837B8398
:102A60008C838D8191E0F11099E0892B8D83DF912A
:102A7000CF911F910F91FF90089546E050E066E1DD
:102A800075E1FC0180810C94C314CF93DC01149692
:102A90009C91149730E020E005C02F5F3F4F20311C
:102AA0003105B9F1C22FF901E755FA4EE4919E13B1
:102AB000F4CF87E980937A002830E8F480917E0093
:102AC00021E030E00C2E01C0220F0A94EAF7822B9D
:102AD00080937E0043E550E065E475E18C910E94AF
:102AE000C314FC0180EF9CE093838283C28F81E05A
:102AF000858FCF91089580917D00922F977021E06E
:102B000030E001C0220F9A95EAF7822B80937D0076
:102B1000E1CF87E30E94D20F49E150E06CE875E114
:102B2000FC0180810E94C31423ED3BE0FC01338350
:102B3000228321E63FE03387228708950F931F9376
:102B4000CF93DF93EC014DE150E06EE975E18881B0
:102B50000E94C3148C0168858C810E94174AF80179
:102B6000608771878287DF91CF911F910F910895C0
:102B7000EF92FF920F931F93CF93DF938C014DE25F
:102B800050E068EB75E1FC0180810E94C314EC0108
:102B9000F801848518160CF045C084E08CA764E029
:102BA00084810E94C84A6A8F7B8F8C8F60E0F80115
:102BB00080850E94C84A6D8F7E8F8F8F80E090E065
:102BC000A0E0B0EC88A399A3AAA3BBA3F8018089D5
:102BD0009189A289B3898E8B9F8BA88FB98F6BE067
:102BE00070E0CE0184960E9402148E899F89A88D80
:102BF000B98D8997A105B10558F082EE90E19B83CC
:102C00008A83DF91CF911F910F91FF90EF900895EC
:102C10008CA580638CA7DF91CF911F910F91FF90BE
:102C2000EF9008957E01F4E2EF0EF11C811128C0AF
:102C30006CA56470F80184810E94C84A6A8F7B8FFA
:102C40008C8F60E0F80180850E94C84A6D8F7E8F6E
:102C50008F8F80E090E0A0E0B0EC88A399A3AAA3B6
:102C6000BBA3F80180899189A289B3898E8B9F8B40
:102C7000A88FB98F6BE070E0C7010E940214B5CF36
:102C800080E18CA760E0F80184810E94C84A6A8FC5
:102C90007B8F8C8F60E0F80180850E94C84A6D8F21
:102CA0007E8F8F8F80E090E0A0E0B0EC88A399A3A6
:102CB000AAA3BBA3F80180899189A289B3898E8BCD
:102CC0009F8BA88FB98F6BE070E0C7010E94021440
:102CD00094CFCF92DF92EF92CF93DF93EC0161E03C
:102CE00088859985AA85BB85892B8A2B8B2B09F42E
:102CF00060E08C810E94C84A6B01E82E44E250E0FB
:102D000069E676E188810E94C314FC01C48AD58AF1
:102D1000E68A21E0488559856A857B85452B462BC7
:102D2000472B09F420E04C855D856E857F85452B1A
:102D3000462B472B09F02061FC0123A348895989C0
:102D40006A897B89478B508F618F728F6AE070E050
:102D50004F96DF91CF91EF90DF90CF900C940214BB
:102D60002F923F924F925F926F927F928F929F929B
:102D7000AF92BF92CF92DF92EF92FF920F931F9389
:102D8000CF93DF9300D000D01F92CDB7DEB78091F4
:102D900055028823C9F027960FB6F894DEBF0FBE00
:102DA000CDBFDF91CF911F910F91FF90EF90DF90FA
:102DB000CF90BF90AF909F908F907F906F905F90DB
:102DC0004F903F902F90089581E0809355027E01AF
:102DD0002FE1E20EF11C2091A3033091A2033B836B
:102DE000432F50E02317D0F40D8D1E8D0E5F1F4F23
:102DF000F8018491840F952F911D813691059CF1E6
:102E0000ED8DFE8D3396E491421B51094E0F511DFD
:102E10004136510560F010925502BDCF1092A203C9
:102E20001092A30350E040E01B8220E0DDCF10921F
:102E3000A2036091A303FB81F61BFB83CF2ED12C51
:102E400070E06E5B7C4FA60182E493E00E9408551F
:102E50001092A3032B812093A2038091C100806272
:102E60008093C100A601CA018E5B9C4F9D838C8319
:102E7000F8010491102F063008F480C09C012E5FE9
:102E80003F4FB0E62B2EFB812F1A021508F46DC1BF
:102E9000822D8550990B1C01220E331EED8DFE8D67
:102EA00034966491ED8DFE8D359645905490820157
:102EB000ED8DFE8D859194918038910508F057C174
:102EC000D90111968F77F9018083460E511C31018B
:102ED000FFEF6F1A7F0A0415150509F445C09D011F
:102EE0002E5F3F4F2216330608F495CFF8018491E8
:102EF0000F5F1F4F853009F469C008F490C0883017
:102F000008F04EC1F701C080D18046010D2C000CA5
:102F1000AA08BB08A1014A1B5B0B052E000C660B1F
:102F2000770B84169506A606B70608F074CF9D01A8
:102F30002F5F3F4F3A8329838C92470134E0830E01
:102F4000911C62817381A601863009F4F8C08981E1
:102F50009A810E94FF54A981BA81AC0DBD1D7401F4
:102F60000415150509F0BBCF2A163B0608F453CF0C
:102F70008C819D81A81BB90B13E01A0F112309F452
:102F80004ACFAC81BD811C938091080211968C932D
:102F900011976DEF610FCD010E94924D2C813D8103
:102FA000210F311DF9013397908331968083215091
:102FB00031098EE7F9018083AB81A10FA093A203B1
:102FC0008091C10080628093C10025CFB7016E5F00
:102FD0007F4FF70120813181AD014F5F5F4FF901D4
:102FE00080818823A1F02416350688F02F5F3F4F9B
:102FF000FA0104C0FA014615570549F0AF014F5FC9
:103000005F4F8083F90181919F018111F3CFCA0144
:103010008A1B9B0B81508C937B01DA015CCFF701FB
:10302000823008F484C0819091907F01B12CA12C52
:10303000833021F4092C000CAA08BB08FD0131964D
:10304000FA83E983B501A401405E5F4F6F4F7F4F64
:10305000403851056105710508F45DC03F832E833A
:10306000B501A401505F6F4F7F4F4115504461057A
:10307000710508F469C06D0183E0C80ED11CB5016B
:10308000A401685F7F4F411551056042710508F446
:103090007EC09D012C5F3F4FB501A4017C5F4115AF
:1030A000510561057041C8F0B501A401FCE17695B8
:1030B000679557954795FA95D1F7642F60686C939B
:1030C000BD016B5F7F4FA981BA818E819F819A83F9
:1030D0008983DF82CE8269019B01B501A401E5E10C
:1030E0007695679557954795EA95D1F7642F60686F
:1030F0006C93D90129813A81DA82C982B501A40190
:103100009EE076956795579547959A95D1F74068D3
:10311000F90140831CC099818A81BA83A983A92FB0
:10312000B82F882D8F77E981FA818083D4CE808073
:103130009180A280B380C70104967C017FCF8981F2
:103140009A810E94E95407CFBF83AE83D901B501AC
:10315000A40187E076956795579547958A95D1F7AD
:103160004068EE81FF814083DCCF202E91CE2C8100
:103170003D812D5F3F4FFC01EE0FEF2FEE1FFF0B48
:10318000F195E068AC81BD811296EC9399CEE9810E
:10319000FA81FF83EE833A8329839D01D601AECF66
:1031A00086E00E94D20FFF920F931F93CF93DF937D
:1031B000EC01188166E175E1812F0E948D120C816E
:1031C000F884C9852F2D3C2F402F61E00E947C0D93
:1031D000CF93FF921F920F931F921F9387E396E165
:1031E0009F938F930E94B0168DB79EB708960FB627
:1031F000F8949EBF0FBE8DBFDF91CF911F910F91AD
:10320000FF900895CF93FC01C0816EE975E18C2F8A
:103210000E948D12FC01F894818D3389448955896F
:1032200066897894A085B1859C912285922321E0BE
:1032300009F420E01F922F936F935F934F933F9376
:10324000869581701F928F931F92CF938CE496E1A5
:103250009F938F930E94B0168DB79EB70C960FB6B2
:10326000F8949EBF0FBE8DBFCF910895CF93FC0100
:10327000C08168EB75E18C2F0E948D12FC01F894DF
:1032800080A191A1A2A1B3A124A5468557856089FB
:10329000718924FD04C07695679557954795841BE1
:1032A000950BA60BB70BB7FF07C0B095A0959095EF
:1032B00081959F4FAF4FBF4F7894B054BF93AF935A
:1032C0009F938F931F92CF9383E596E19F938F9364
:1032D0000E94B0168DB79EB708960FB6F8949EBFA1
:1032E0000FBE8DBFCF910895FC0185818F9384819E
:1032F0008F9380811F928F9381E696E19F938F93A6
:103300000E94B0160F900F900F900F900F900F909B
:103310000895DC012C911496ED91FC913FB7F8943F
:103320002130E9F02230B1F0808190E0B0E0A0E0FF
:103330003FBFBF93AF939F938F938AE596E19F938F
:103340008F930E94B0160F900F900F900F900F90D8
:103350000F90089580819181A281B381E9CF80810E
:103360009181B0E0A0E0E4CFCF92DF92EF92FF92A4
:10337000FC0140815181628173812481E5EAF5E19C
:1033800085919591A591B491481759076A077B07D4
:1033900070F56A017B01C20ED11CE11CF11C8C1579
:1033A0009D05AE05BF0500F5841B90E09A012654EB
:1033B000384F3F932F939F938F937F936F935F9398
:1033C0004F9384E896E19F938F930E94B0168DB738
:1033D0009EB70A960FB6F8949EBF0FBE8DBFFF90A2
:1033E000EF90DF90CF900895822F90E0DFCF90E0B4
:1033F00080E0DCCFCF92DF92EF92FF920F931F938A
:103400000E942D4C9F938F937F936F93C12CD12C4F
:103410007601C394009168021091690220916A02BA
:1034200030916B02601771078207930718F0C12C67
:10343000D12C760140916402509165026091660240
:1034400070916702D701C601840F951FA61FB71F91
:10345000BF93AF939F938F9386E796E19F938F934C
:103460000E94B0168DB79EB70A960FB6F8949EBF0D
:103470000FBE8DBF1F910F91FF90EF90DF90CF9007
:1034800008950E942D4C9F938F937F936F938FE6A7
:1034900096E19F938F930E94B0160F900F900F901C
:1034A0000F900F900F90089580915E0290915F02AF
:1034B0009F938F9321E030912802311101C020E0C9
:1034C0001F922F93209163022F93209162022F93DA
:1034D000209161022F93209160022F9321E0892B8C
:1034E00009F420E01F922F9388E696E19F938F9333
:1034F0000E94B0168DB79EB70C960FB6F8949EBF7B
:103500000FBE8DBF089584E00E94D20F0F931F93CA
:103510004FB7F894E0912202F0912302E817F907DF
:1035200029F420C028173907B9F0F9012081318129
:1035300021153105B9F72091240230912502281771
:10354000390731F482E192E09093250280932402BE
:103550004FBF1F910F910895DC012D913C91318354
:103560002083E9CFDC0114960D911D912D913C91A2
:1035700017970093040210930502209306023093DC
:1035800007022D913C91309301022093000220E02C
:1035900032E03093230220932202CDCFEF92FF92AC
:1035A0001F93CF93DF937C01FC0110816CE875E1E0
:1035B000812F0E948D12EC01F894F70164810E9422
:1035C0002C0FCE010E94861ACE0108960E94861A00
:1035D0001E8A8F8978941F921F921F921F921F92AA
:1035E0008F931F921F921F921F9385E496E19F93E2
:1035F0008F930E94B0168DB79EB70C960FB6F894B5
:103600009EBF0FBE8DBFDF91CF911F91FF90EF90B6
:103610000895CF93DF93EC010E94861ACE0108969D
:103620000E94861AEC89FD89309751F09081818142
:103630001382128211821082E92FF82F3097B1F78E
:103640001D8A1C8A188E1F8A1E8ADF91CF910895C9
:10365000CF92DF92EF92FF920F931F93CF93DF935E
:103660008C01EC01A897CE010E94861A1C821D8253
:103670001E821F821A8A1B8A1C8A1D8A48A159A190
:103680006AA17BA18CA5CE84DF84E888F98884FDBB
:1036900004C0F694E794D794C7944C195D096E0959
:1036A0007F09CC24DD247601C41AD50AE60AF70A7C
:1036B00077FD02C0B701A60148A359A36AA37BA363
:1036C0001E861F86188A198A847388608CA76D8D60
:1036D0007E8D8F8D40E00E94A64A4CA544FF27C0F6
:1036E00045FD25C0D8011497ED91FC9111973097B5
:1036F000A9F040916E0290916F0201C0F901208102
:10370000318140839183F0936F02E0936E024E2FDC
:103710009F2F2115310591F71D921C92DF91CF91BA
:103720001F910F91FF90EF90DF90CF90089544701C
:103730006A8D7B8D8C8D0E94A64AD4CFAF92BF92AA
:10374000CF92DF92EF92FF921F93CF93DF93DC0132
:103750001496CD90DD90ED90FC9017971FB7F894DC
:10376000C0912202D09123022F2D4C815D816E8168
:103770007F818F2DC416D506E606870B87FD1FC0F7
:10378000FE010990D881C02D4C815D816E817F81C1
:10379000922FC416D506E606970B97FFF1CF119628
:1037A000DC93CE93B183A0831FBFDF91CF911F9194
:1037B000FF90EF90DF90CF90BF90AF9008955D01A4
:1037C0000E942D4C2F2DC616D706E806290B27FD83
:1037D00025C082E0C030D80741F1F501D183C08314
:1037E000C0920402D0920502E0920602F092070213
:1037F000B0920102A092000280E092E09093230236
:10380000809322028091840090918500C2969093CB
:1038100089008093880082E086BBC6CF8091280211
:103820008111D7CF83E00E94D20F80910002909146
:103830000102F50191838083D3CF0F931F93CF9320
:10384000DF938C0165E475E1FC0180810E948D129B
:10385000EC010E94861A909109028A8D981303C088
:103860008FEF80930902F80184819581A681B78149
:10387000888B998BAA8BBB8B8C839D83AE83BF83F4
:1038800080859185A285B3858C879D87AE87BF870C
:1038900084858E8F91E0980F9D8F40895189628930
:1038A0007389488759876A877B8794899F8F18A275
:1038B000208D318D3F8B2E8B248D358D398F288F28
:1038C00020A12C8F882349F0913360F4CE01DF9141
:1038D000CF911F910F910C949E1BDF91CF911F915F
:1038E0000F9108958AE10E94D20FEF92FF920F93F9
:1038F0001F93CF93DF938C016CE875E1FC0180810D
:103900000E948D12EC01F8948E8980FF13C07E0115
:10391000F8E0EF0EF11CC7010E94861AF8018481BD
:103920009581A681B7818C879D87AE87BF87C701A8
:103930000E949E1B7894DF91CF911F910F91FF9071
:10394000EF9008950F931F93CF93DF938C016CE852
:1039500075E1FC0180810E948D12EC01F8940E94B7
:10396000091B81E08E8BF80184819581A681B78146
:103970008C839D83AE83BF8380859185A285B3852B
:10398000888B998BAA8BBB8B892B8A2B8B2B19F05D
:10399000CE010E949E1BF8018485888F7894DF9168
:1039A000CF911F910F9108950F931F93CF93DF93A2
:1039B0008C016EE975E1FC0180810E948D12EC01A1
:1039C0000E94861AF80184819581A681B7818C8333
:1039D0009D83AE83BF8380859185A285B3858F87C4
:1039E000988BA98BBA8B84858A8F882359F140895B
:1039F0005189628973894B875C876D877E8722EA4C
:103A00003FE03B832A838B8F84899589A689B78978
:103A1000892B8A2B8B2BA1F482E0898F6CE875E1CE
:103A2000F801808D0E948D12988F8F8BF801848D04
:103A30008C8FCE01DF91CF911F910F910C949E1B23
:103A400083E0EBCF188E1F8A198EDF91CF911F91E3
:103A50000F9108950F931F93CF93DF938C0168EB21
:103A600075E1DC018C910E948D12EC010E9418140A
:103A7000FC01D80114964D915D916D917C91179741
:103A8000428353836483758318968D919C91199713
:103A900091878087892B09F464C01C968D919C9135
:103AA000978386831286F8948CA5282F217081FB3A
:103AB000992790F9291729F091E08927928591603B
:103AC00092874E855F8568897989452B462B472BE0
:103AD00059F583FD19C08CA7118210828CA19DA17C
:103AE000892BD1F1AEA1BFA1ED93FC93FFA3EEA36F
:103AF000CE010E94D90FCE010E949E1B7894DF91C7
:103B0000CF911F910F91089580916E0290916F0255
:103B100091838083F0936F02E0936E027894DF913B
:103B2000CF911F910F9108958CA7118210828CA1C3
:103B30009DA1892B61F0AEA1BFA1ED93FC93FFA3E2
:103B4000EEA37894DF91CF911F910F910895FFA379
:103B5000EEA3FDA3ECA3D2CFFFA3EEA3FDA3ECA3A2
:103B6000C7CF87E10E94D20F8F929F92AF92BF92F0
:103B7000EF92FF920F931F93CF93DF938C0169E62F
:103B800076E1FC0180810E948D12EC010E94861A70
:103B90008F8D98A1892B09F057C0F801E4801BA1F3
:103BA00001E0EE2049F16C897D898E89402F0E94C9
:103BB000A64AF12FF071FF2E81E0E1101BC0129593
:103BC000117091E01927811741F08F89988DA98D87
:103BD000BA8D892B8A2B8B2B89F40F290BA3DF91AC
:103BE000CF911F910F91FF90EF90BF90AF909F905A
:103BF0008F90089580E0E3CF00E0D5CF0E942D4C58
:103C00008F88988CA98CBA8C860E971EA81EB91E18
:103C1000888A998AAA8ABB8A8C829D82AE82BF8258
:103C200086E691E19B838A830460F02AFBA2CE01A1
:103C3000DF91CF911F910F91FF90EF90BF90AF90C8
:103C40009F908F900C949E1B82E10E94D20FCF9286
:103C5000DF92EF92FF920F931F93CF93DF938C012C
:103C600069E676E1DC018C910E948D12EC010E94E4
:103C70001814FC01D8011496CD90DD90ED90FC90C5
:103C80001797C282D382E482F58218964D915D9196
:103C90006D917C911B974683578360877187F89459
:103CA000118210828F8D98A1892B81F0A9A1BAA1D0
:103CB000ED93FC93FAA3E9A37894DF91CF911F9140
:103CC0000F91FF90EF90DF90CF900895FAA3E9A3B2
:103CD000F8A3EF8F8BA182FD25C0C88AD98AEA8A12
:103CE000FB8A982F94609BA381FD10C0CE010E9497
:103CF000861ACC82DD82EE82FF8286E691E19B838A
:103D00008A83CE010E949E1B7894D7CF4C815D811F
:103D10006E817F81872F4C155D056E058F0987FDAC
:103D2000F3CFE4CF488959896A897B89972F4C154D
:103D30005D056E059F0997FFD0CF83E10E94D20FEA
:103D4000CF93DF93CDB7DEB7C754D1090FB6F89440
:103D5000DEBF0FBECDBF0E942D4C24966CAF7DAF51
:103D60008EAF9FAF2497809126028111DEC481E03F
:103D70008093260280916C02882309F443C010923C
:103D80006C028FEF89838E010F5F1F4F35E4E32EA6
:103D900036E1F32E6CE875E1C8010E94520C6C010B
:103DA000892B81F1D60156968C9182FFF3CF0E9428
:103DB0002D4CF894F60137892689422F4B7F468B8C
:103DC00078949F938F937F936F931F923F9321706B
:103DD0001F922F9389811F928F93FF92EF920E94DF
:103DE000B0162DB73EB7245F3F4F0FB6F8943EBFD5
:103DF0000FBE2DBF6CE875E1C8010E94520C6C012A
:103E0000892B81F680916D02882361F110926D02F9
:103E10008FEF89838E010F5F1F4F2EE3A22E26E1C5
:103E2000B22E65E475E1C8010E94520C7C01892B19
:103E3000C9F0D7015D969C915D975E968C915E97D7
:103E40009813EFCFF894F701858D968D891709F4B3
:103E5000D8C4789465E475E1C8010E94520C7C01D5
:103E6000892B39F780917002882329F11092700212
:103E70008FEF89838E010F5F1F4F99E2E92E96E144
:103E8000F92E6EEB79E3C8010E94520C009799F06D
:103E9000DC0158962C9158972F3F99F7F894FC0124
:103EA0002685211163C478946EEB79E3C8010E94E2
:103EB000520C009769F780917102882309F440C081
:103EC000109271028FEF89838E010F5F1F4F82E284
:103ED000E82E86E1F82E6EEE77E3C8010E94520CC0
:103EE000009771F1DC011E962C911E9723FFF3CFF2
:103EF000F894FC012685277F268778949C01265E0E
:103F00003F4F3F932F9350968C918695869586953B
:103F10001F928F9389811F928F93FF92EF920E943D
:103F2000B016EDB7FEB738960FB6F894FEBF0FBEC9
:103F3000EDBF6EEE77E3C8010E94520C009791F638
:103F400080917202882309F44BC0109272028FEFA5
:103F500089838E010F5F1F4FB4E1EB2EB6E1FB2E7C
:103F60006AEB75E3C8010E94520CFC01892BC1F178
:103F7000848D80FFF5CFF894948125813681478127
:103F8000548965897689A789B08DD18CC28CB38C10
:103F9000848D8E7F848F7894BF92CF92DF92BF936F
:103FA000AF937F936F935F934F933F932F939F9321
:103FB00089811F928F93FF92EF920E94B0162DB7C6
:103FC0003EB7205F3F4F0FB6F8943EBF0FBE2DBFE8
:103FD0006AEB75E3C8010E94520CFC01892B41F683
:103FE00080917302882309F454C0109273028FEFFA
:103FF0008AABAE014E5C5F4F1A01AFE08A2E66EFCE
:1040000078E3C1010E94520C5C01892B09F441C084
:10401000D50159968C91599780FFF1CFF894F5010D
:104020004480558066807780818D8E7F818F7894E3
:1040300058968C915897813009F438C708F417C7FF
:10404000823009F462C78330D1F6CAA819821A8275
:104050009E012F5F3F4F42E061E0848995890E9475
:104060007C0D09811A81102701271027F02FF67087
:10407000EF2E30E020E0B301A201C5010E94863F8F
:1040800066EF78E3C1010E94520C5C01892B09F0B4
:10409000BFCF809174028823F9F0109274028FEFE1
:1040A0008AAB8E010E5C1F4F180179E0A72E0153D9
:1040B0001109E2EFBE2EDD24DA9406C0D7011E9668
:1040C0008C911E9780FD27C46DE975E3C1010E94A4
:1040D000520C7C01892B91F780917502882341F164
:1040E000109275028FEF8DABFE01F5967F01B0E364
:1040F0007B2E8824839418E2512E8E010F5F1F4F70
:10410000580108EA902E81E3482E98EE392E2FE2CE
:10411000222E06C0D6011F968C911F9780FD3BC4AE
:1041200060EB78E3C7010E94520C6C01892B91F778
:1041300080917602882341F1109276028FEF8DAB49
:10414000FE01F5967F0150E3752E8824839464E286
:10415000962E8E010F5F1F4F580171E3572EE4EA30
:104160004E2EF2E23F2EA2EA2A2E06C0D6011F965C
:104170008C911F9780FD34C565E778E3C7010E94E5
:10418000520C6C01892B91F7809177028823D1F032
:10419000109277028FEF8DABFE01F5967F0134E729
:1041A000A32E42E7B42E06C0D60152968C915297A8
:1041B00080FD3EC56EE775E3C7010E94520C6C019D
:1041C000892B91F7809178028823D9F01092780298
:1041D0008FEF8DAB8E010B5C1F4F780112E7A12E84
:1041E00000E7B02E06C0D60152968C91529780FD02
:1041F00052C567E575E3C7010E94520C6C01892B1B
:1042000091F7809179028823C9F0109279028FEF9B
:1042100089838E010F5F1F4F22242394312C06C007
:10422000D70119968C911997811168C563E478E3D9
:10423000C8010E94520C7C01892B91F780917A026F
:104240008823B9F010927A028FEF8AAB8E010E5C50
:104250001F4F180106C0D80151968C9151978111BA
:10426000D7C361E375E3C1010E94520C8C01892B15
:1042700091F780917B02882309F110927B028FEFE6
:104280008AAB8E010E5C1F4F180152E1C52E9E01B4
:104290002F5F3F4F790139013FEF631A730A06C060
:1042A000D80151968C9151978111F1C363E77AE45B
:1042B000C1010E94520C8C01892B91F780917C02E4
:1042C000882309F498C010927C028FEF8AABFE011C
:1042D000F2961F0177247A9467EC77E4C1010E947B
:1042E000520C7C01892B09F486C0D7011E968C9153
:1042F00080FFF2CF6AA8BE016F5F7F4FC7010E94A7
:104300001A539C01F894F70196859E7F96877894BE
:10431000232B09F064C3898183FFDECFA388B12CEE
:104320006501F4E1CF0ED11CCE0CDF1CD7011C9629
:104330008D919C911BAA860122E0AE014D5C5F4FDE
:1043400061E00E94E0404C01F7018485958521E001
:104350002CAB0E5F1F4F22E0AE014C5C5F4F61E063
:104360000E94E04088299929892B11F00C94C42AD5
:10437000F701EA0DFB1D4489F6011181F701E65BA7
:10438000FF4F808191814F3F11F40C94F72A50E048
:1043900070E060E0742F662755274427F6012381DB
:1043A000422B612B2281522B8A019B01002711276E
:1043B0002227307E012B022B032B11F40C94BF2AF1
:1043C00060E00E940152D70153968C9153978C5F05
:1043D00053968C93803308F47FCF662DC7010F96D8
:1043E0000E94925267EC77E4C1010E94520C7C015A
:1043F000892B09F07ACF80917D02882309F47DC052
:1044000010927D028FEF8AABFE01F2961F018E01A2
:104410000A5F1F4F1FAB0EAB9E012D5F3F4F39AFA1
:1044200028AFAE01475F5F4F5BAF4AAF66EA78E403
:10443000C1010E94520C2C01892B09F45EC0D201EB
:104440001E968C9182FFF2CFF894F20184809580C1
:10445000A680B780F1881686118A78948085918528
:10446000A285B385881A990AAA0ABB0A82010E5E40
:104470001F4F68011F2D1150A8F0D20156968C9144
:10448000F201E80FF11DBFEFB78B108E118E8D5F1B
:10449000F201868B813378F36AA9C6010E94925299
:1044A000115058F7F12ED2011F96DC90DD2009F44F
:1044B000FEC1B1E0DB1609F4A3C4F2E0DF1609F493
:1044C00008C7F3E0DF1609F4B0C7B4E0DB1611F457
:1044D0000C945D2AF2017689713308F4A7CF6AA99A
:1044E000C20142960E94925266EA78E4C1010E949B
:1044F000520C2C01892B09F0A2CFA8958091800243
:10450000882329F080E48093600010928002F0906C
:104510004103FF2009F474C080913002182F80FD00
:1045200016C034E03F1508F06BC0309081029BEF5D
:10453000930D9C3308F0AAC6E09082029E2D907FD6
:10454000903109F47FC6182F1160109330024F2D5F
:1045500050E06EE770E081E892E00E94F25400972C
:1045600041F01E7F1093300281589240FF24F39453
:10457000F80E11FD9CC612601093300283EB97E099
:104580009F938F930E94B0160F900F903F2C1FEFB8
:1045900080E0C32CD12C00914103F02EF31861F47C
:1045A0002FB7F894909141030917E9F02FBF0091BC
:1045B0004103F02EF318A1F390E04F2D50E0481B7B
:1045C000590BB601680F791F6F577D4F8F579D4F5D
:1045D0000E940855109226028F2D2FB7F8949091C3
:1045E00041030913E3CFF09241032FBF113041F48F
:1045F00083EB97E09F938F930E94B0160F900F90DC
:104600000E942D4C4B015C0124960CAD1DAD2EADCE
:104610003FAD2497601B710B820B930BC090390246
:10462000D0903A02E0903B02F0903C021FEFC11A9A
:10463000D10AE10AF10AC0923902D0923A02E0921C
:104640003B02F0923C02409035025090360260905E
:10465000370270903802460E571E681E791E40922F
:10466000350250923602609237027092380261151C
:10467000710521E08207910508F099C0009131028F
:104680001091320220913302309134020CAF1DAFF1
:104690002EAF3FAF9B01AC010E94EF53DC01CB0179
:1046A00081509F4FAF4FBF4F892F9A2FAB2FBB2702
:1046B0000CAD1DAD2EAD3FAD800F911FA21FB31FDE
:1046C0000CAD1DAD2EAD3FAD80179107A207B3070E
:1046D00018F48FEF9FEFDC01809331029093320248
:1046E000A0933302B0933402409168025091690262
:1046F00060916A0270916B0295018401041B150B95
:10470000260B370BB901A8014115544B644C74407A
:1047100008F03BC424968CAE9DAEAEAEBFAE2497DF
:1047200080912602882309F422CB0E942D4C2496E6
:10473000CCACDDACEEACFFAC2497C61AD70AE80AC5
:10474000F90AF8948091260281110CC778940E948E
:104750002D4C36014701660E771E881E991E249641
:104760006CAE7DAE8EAE9FAE249701CB59963C9138
:10477000599758963C937894AC01415F5F4F5F9393
:104780004F931F922F9387891F928F9389811F9236
:104790008F93FF92EF920E94B0162DB73EB7265F1F
:1047A0003F4F0FB6F8943EBF0FBE2DBF6ACB6115C9
:1047B000710510E18107910508F08BCF009131025E
:1047C0001091320220913302309134020CAF1DAFB0
:1047D0002EAF3FAF9B01AC0121503F4F4F4F5F4F7A
:1047E000232F342F452F55270E94EF530CAD1DADBD
:1047F0002EAD3FAD060F171F281F391FD901C80165
:104800005FCF5496CD90DC90559750969C905097E2
:1048100051968C90519752967C90529753966C90EB
:1048200053978F5F5D968C937894A60170E060E05B
:10483000EF5AFF4F808191810E94B74DD70190962A
:10484000EC919097EE0DFF2DF11DC1A2D2A2909692
:104850008C9190978E5F90968C939097282F30E054
:104860002F5F3F4F5F969C919217130611F00CF04B
:10487000D8CA97012F5D3F4F3F932F931F928F937D
:104880006F927F928F929F9289811F928F93BF9296
:10489000AF920E94B016F70110A22DB73EB7245F69
:1048A0003F4F0FB6F8943EBF0FBE2DBFBACA82E38A
:1048B00089831A820E942D4C6CAF7DAF8EAF9FAF63
:1048C0009E012F5F3F4F42E061E0F20184859585B4
:1048D0000E947C0D0E942D4C0CAD1DAD2EAD3FAD48
:1048E000601B710B820B930B613273408105910544
:1048F00008F0B4C2298127FF80C5D20156967C9169
:10490000F201E70FF11DF78A83E0808F118E7D5F42
:10491000F201768BE1CDCAA8F8016A2C11926A9453
:10492000E9F7B982980149E061E01C968D919C916C
:104930000E947C0DD70153968C9190E0FC017496F7
:10494000EE0DFF1D4B81242F207F09F47AC3203FF9
:1049500009F477C3D482D382D282D1828E0D9F1D77
:10496000FC01D48AD70153968C9153978B5F539651
:104970008C938F3228F06C2DC7010F960E949252B3
:10498000D7011E968C911E978E7F1E968C93C70121
:104990000E943A3F99CB6DA81E968C911E97519616
:1049A0009C915197903308F4D0C3882309F462C6D0
:1049B000813009F419C7D60156967C92662DC6013E
:1049C00042960E949252F60181898053818B8033F6
:1049D00008F4D2C31092260280927502A1CB61E046
:1049E000E65BFF4F808191810E940152D70153966F
:1049F0008C9190E0FC017496EE0DFF1D8E0D9F1DB5
:104A0000DC0154967C927182128281E08383DBCC3C
:104A1000BAA819821A821B829E012F5F3F4F43E082
:104A200061E01F968D919C910E947C0DF801118A86
:104A30008981CA80D12CF12CE12CFE2CED2CDC2CB0
:104A4000CC24E82A8B81C82AE7FE02C0FF24FA940E
:104A5000B701A601F801E55BFF4F808191810E94BB
:104A6000B74DD80157968C91F801E80FF11DC08E13
:104A7000D18EE28EF38E8C5FF801878B803308F441
:104A8000F0CB6B2DC80143960E949252EACBDAA874
:104A900055966C915597B62EBB0CB60EF7018C2C23
:104AA00011928A94E9F746E04B0D970161E01F9659
:104AB0008D919C910E947C0DD80151961C92A3E08F
:104AC000AB0D62E06B0D8FEF9FEFAA2321F1F70191
:104AD000660D772D711D8FEF9FEF21912927322FC2
:104AE00032953F702327422F50E0382FCA01982F6C
:104AF00088279295907F28273927CA01880F991F08
:104B000082959295907F9827807F98278227932778
:104B10006E177F0711F72A2F30E0F701E20FF31F1E
:104B20004081E2E0F0E0EC0FFD1F2E0F3F1FD901A6
:104B30002C91342F8217930709F046C4898182FD96
:104B4000ACC3D80153968C918111AAC3F801848912
:104B50008F5F982F990F890F90E0F701E80FF91FE9
:104B60008080912CB12CA12C540199248824E3E05D
:104B7000F0E0EC0FFD1FE80FF91F2081822A22E0F0
:104B800030E02C0F3D1F820F931FDC018C91982A7F
:104B9000A7FE02C0BB24BA94B501A401F801E25BF0
:104BA000FF4F808191810E94B74DF801828DE80FFF
:104BB000F11D838E948EA58E8B2CBB2487FCB09424
:104BC0009B2CAB2C868E8C5FD8015A968C938033AD
:104BD00008F46CCB6D2DC80146960E94925266CBAC
:104BE0006DA81E969C911E9750962D913C915197C1
:104BF0002033310508F4EFC3992309F422C591301D
:104C000009F4E3C5D60156967C92662DC6014296FC
:104C10000E949252F60180899189C097918B808B76
:104C2000C09708F4E2C41092260280927602A4CAC9
:104C30009DA81C968D919C911D9750962D913C910D
:104C40002033310508F4A4C2A9828601085E1F4FF3
:104C500020E3AE014F5F5F4F61E00E94E0400E94A1
:104C6000F24280E3F601878B80899189C097918B0E
:104C7000808B692DC60143960E949252D6015096B0
:104C80008D919C91C09708F4A8C21092260281E0F1
:104C9000809377028FCA9DA81C968D919C911D9739
:104CA00050962D913C912033310508F421C2A98200
:104CB0008601085E1F4F20E3AE014F5F5F4F61E04A
:104CC0000E94E0400E94F24280E3F601878B8089D7
:104CD0009189C097918B808B692DC60143960E9464
:104CE0009252D60150968D919C91C09708F425C29E
:104CF0001092260281E0809378027BCA7980189610
:104D0000CC9018972C2D30E052964D915C91539792
:104D10005496DC9054975596ED91FC915697579682
:104D20007C91295E3F4F80E090E0DC012F01F894F8
:104D3000F2017083000000007083FA0160817894B2
:104D4000880F991FAA1FBB1F6D21812C912C540124
:104D50008394611103C0812C912C540188299929D5
:104D6000AA29BB292150310910F7F894F7012185B0
:104D7000118678944C015D010C2C04C0B694A79464
:104D8000979487940A94D2F7A7FE02C0BB24BA94E2
:104D9000A10101C0440FCA94EAF7415050E070E00D
:104DA00060E084239523A623B723481759076A0791
:104DB0007B0709F47FC220E030E040E050E8D701F3
:104DC0001E962D933D934D935C93519790E840E050
:104DD00030E020E0D7015C968C91F701E80FF11DDF
:104DE000258F368F478F90A38C5FF701848F803398
:104DF00008F41CCA672DC70148960E94925216CA31
:104E00008FE789838EEF8A830E942D4C28966CAFA2
:104E10007DAF8EAF9FAF28979E012F5F3F4F42E03F
:104E200060E0F201848595850E947C0D0E942D4CE6
:104E30006CAF7DAF8EAF9FAFDC01CB0128960CAD80
:104E40001DAD2EAD3FAD2897801B910BA20BB30B70
:104E500081329340A105B10508F4C8C1D20156962C
:104E60007C91F201E70FF11DF78A82E04ECDCAA8CE
:104E700019821A821B821C829E012F5F3F4F44E0E1
:104E800061E0848995890E947C0D69817A818B819A
:104E90009C810E94FF53F62FF770EF2E8B019C012F
:104EA000B301A201C5010E94863FA9C89AA80CE0DF
:104EB00009831A821B821C829E012F5F3F4F44E0B0
:104EC00061E054968D919C910E947C0D69817A815C
:104ED0008B819C810E94FF536B017C0189821A8225
:104EE0009E012F5F3F4F42E061E0F5018489958983
:104EF0000E947C0D970186013327C92CEA80B301FB
:104F0000A201C5010E94863F7AC8CAA881E08983B0
:104F10001A821B821C829E012F5F3F4F43E061E09B
:104F200054968D919C910E947C0D69817A818B8130
:104F30009C810E94FF53672F782F892F99278B011F
:104F40009C01222733270CAF1DAF2EAF3FAF17E0D8
:104F500019831A829E012F5F3F4F42E061E0D50125
:104F600054968D919C910E947C0D8A818C7F9CAD82
:104F70009170E82EE92A0CAD1DAD2EAD3FADB30109
:104F8000A201C5010E94863F3AC8BF93AF939F9389
:104F90008F937F926F925F924F92FF92EF92DF9288
:104FA000CF928DE796E19F938F930E94B0162DB715
:104FB0003EB7225F3F4F0FB6F8943EBF0FBE2DBFE6
:104FC0008091680290916902A0916A02B0916B028F
:104FD00088169906AA06BB0698F4809164029091FF
:104FE0006502A0916602B09167020196A11DB11DF4
:104FF0008093640290936502A0936602B093670267
:105000008092680290926902A0926A02B0926B024A
:105010001092310210923202109233021092340236
:105020001092350210923602109237021092380216
:105030001092390210923A0210923B0210923C02F6
:1050400069CB5D81252F207F19F0203F09F082CCAC
:105050002F81322F307F19F0303F09F07BCC38851B
:10506000303909F077CC3985932EE89497F8B0E27F
:10507000B91508F46FCC30E08E0D9F1D6A81DC01FC
:1050800054966C938C8181838E818283842F8F715F
:10509000B901660F771F62957295707F7627607FE2
:1050A0007627862B8383220F331F220F331F207610
:1050B000852F8F71822B8483F70183898B5F838B8C
:1050C0008F3208F0F3C3FEE1F91508F091C5D7015E
:1050D00051968D919C915297019652969C938E93E6
:1050E00051971092260281E0809374020C94642000
:1050F000BAAA8E010F5F1F4F22E0AE014E5C5F4FD8
:1051000061E00E94E0400E94F242898190E0982F85
:10511000882788279F712A81822BF601268537856B
:105120002817390710F497878687D60151969C93E4
:105130008E935097C0970CF052C5F60182898E7FEE
:10514000828BC6010E941E3E54C81AAA882309F405
:10515000EFC2813009F487C3F6018089813009F4F8
:1051600098C380E08F73982F990F890F880FF601ED
:10517000818B803308F098C3D6011F968C911F97BE
:105180008E7F1F968C93C6010E94ED3E0C9490205A
:10519000BAAA8E010F5F1F4F22E0AE014E5C5F4F37
:1051A00061E00E94E0400E94F242898190E0982FE5
:1051B000882788279F712A81822BF60126853785CB
:1051C0002817390710F497878687D60151969C9344
:1051D0008E935097C0970CF0FEC4F60182898E7FA3
:1051E000828BC6010E941E3E0C94DA2080EC8983DB
:1051F0001A829E012F5F3F4F42E061E0D2011C9670
:105200008D919C910E947C0D99812A81892F822702
:10521000382F32953F708327382F36953695832760
:10522000382F3695832780FF43C2F2017689E70F36
:10523000F11DF78A83E0808F118E7D5FD201569633
:105240007C934AC9F31408F4DBC9232D30E0F9013B
:10525000E058FD4F90819E3709F075C989010258C9
:105260001D4F580121583D4FD9018C91F801008103
:10527000102F082F6DEF630D81E892E00E94924D90
:105280000817190709F457C3309081024EE7341606
:1052900009F4A9C48091300256C981E0F801838BDA
:1052A00042E06D2DC8010E94C6530C9456213F2C3C
:1052B0001FEF6EC921FF83C120E030E040E050E4E1
:1052C000D7011E962D933D934D935C93519790E497
:1052D0007ECDD2011C96ED91FC9104816280738099
:1052E00040E0B301802F0E94A64A0E942D4C6B0122
:1052F0007C01B0E1CB0ED11CE11CF11C1F2D0E94E2
:105300002D4C212FC616D706E806290B27FFF7CF0D
:10531000F89441E0B301802F0E94A64A0E942D4CD0
:105320006B017C01789488E0E8ADF9AD11928A9523
:10533000E9F784E8898383E28A839E012F5F3F4FE8
:105340004AE061E0D2011C968D919C910E947C0DF7
:10535000FE01339665E08191682788E090E003C004
:10536000660F019739F067FFFBCF660FBDE16B2732
:105370000197C9F76AAC7BACE615F70561F7D20176
:1053800056967C91872F90E0AC014F5F5F4F9C0158
:105390002E5F3F4F7D5F6095EA856E1709F441C12E
:1053A000840D951D66246A94FC01678A440D551D81
:1053B00083E0DA0157968C93240D351DF901178A85
:1053C000D20156967C9388C841E06D2DC8010E9499
:1053D000C6530C945621992309F47BC1913009F4EA
:1053E00018C2F601118A108A8E7FD6011F968C93FF
:1053F000C6010E949F3E0C94BC208A8190E0880FD9
:10540000991F30E0322F2227330F7C01E22AF32A42
:105410000CAD1DAD2EAD3FADB501A401C2010E9482
:10542000B852D20156967C9157C883E889831A8274
:105430001B820E942D4C6CAF7DAF8EAF9FAF9E0143
:105440002F5F3F4F43E061E0D2011C968D919C910C
:105450000E947C0D0E942D4CAB01BC01DC01CA01F5
:105460000CAD1DAD2EAD3FAD801B910BA20BB30B50
:1054700081329340A105B10508F0F0CCEA809B8110
:105480008E2D8927282F22952F708227282F269549
:1054900026958227282F2695822780FF38C1D201A2
:1054A00056967C91F201E70FF11DF78AD08E118E8E
:1054B0007D5FF201768B0C946C2286E0EAE2F2E0EA
:1054C000DE01119601900D928A95E1F70E942D4C14
:1054D0006CAF7DAF8EAF9FAF9E012F5F3F4F46E019
:1054E00061E0D2011C968D919C910E947C0D0E94DE
:1054F0002D4CAB01BC01DC01CA010CAD1DAD2EADC4
:105500003FAD801B910BA20BB30B81329340A105E1
:10551000B10508F0A3CCFE01339680E09191892774
:1055200028E030E004C0880F2150310949F087FF9E
:10553000FACF880F07E0602E862521503109B9F790
:105540006EA87FA86E167F0649F79E81981709F40A
:105550001BC1D20156967C91F201E70FF11DBFEFFE
:10556000B78BD2C98FEF809327028093260278945D
:105570000000F894809126028111F9CFE7C87F706E
:105580000E94B74D0C94E32162E0F701E65BFF4F08
:10559000808191810E940152D70153968C9190E0B5
:1055A000FC017496EE0DFF1D8E0D9F1DDC015496BF
:1055B0007C927182128282E083830C94E321F70152
:1055C00086859785A089B1890097A105B10509F065
:1055D000FEC2B501A401E05BFF4F808191810E9472
:1055E000B74D94014A2D9B2DF5CB8785FDCE1F3FEE
:1055F00011F00C94C72163E00E940152D701539629
:105600008C9190E0FC017496EE0DFF1D8E0D9F1D98
:10561000DC0154961C931183128283E083830C94E3
:10562000E321698564FFBCC0EB81E7FD4FC1840DB8
:10563000951DEFEFDC015796EC93440D551D84E06A
:10564000B8CED501E52D1D92EA95E9F7498295017D
:1056500041E361E0D6011C968D919C910E947C0DE6
:1056600080E3FE013296D601579601900D928A95FD
:10567000E1F7C8CAD501E42D1D92EA95E9F79982B0
:10568000D60150968C91813009F43982950141E31D
:1056900061E0F601848595850E947C0D80E3FE0122
:1056A0003296D601579601900D928A95E1F783C9FB
:1056B00096FFC0C0F2017689E70FF11DF78A15E069
:1056C000612E608E118E7D5FD20156967C930C9474
:1056D0006C2229821A821B82950143E061E01C96AC
:1056E0008D919C910E947C0D8A819B818130B4E0D8
:1056F0009B0708F43FC0F601248935892F5F3F4F8F
:10570000358B248B918B808BF601968575CA91FF22
:10571000BAC0D20156967C91F201E70FF11DF78ACB
:10572000B5E0B08F118E7D5FF201768B0C946C2208
:10573000BFEAB9831A82950142E061E0F6018485EF
:1057400095850E947C0D8A818AAB86FF07C0F60191
:10575000248935892F5F3F4F358B248BD601509696
:105760009C915097913009F0FDCC85FF93C05196E4
:105770001C9202CDD60151969C938E935097C09760
:1057800018F61F968C9130CE8D8181FF97C0D20183
:1057900056967C91F201E70FF11DBFEFB78B8FCFCB
:1057A000840D951D66246A94FC01678A440D551D7D
:1057B000E5E0DA015796EC93240D351DD901579693
:1057C0001C92F201768B0C946C2299828601095E00
:1057D0001F4F20E3A50161E0F601848595850E94B5
:1057E000E0400E94F2420ECA5982D60150968C9136
:1057F000813009F461C08601095E1F4F20E3A501D5
:1058000061E0F601848595850E94E0400E94F242A5
:10581000D2C83AAA850122E0AE014E5C5F4F61E03A
:105820001C968D919C910E94E0400E94F2428981D9
:105830009A815CCF892F90E0982F8827990F990F34
:1058400030E0220F331F220F331F7C01E22AF32A9C
:105850000CAD1DAD2EAD3FADB501A401C2010E943E
:10586000B8520C946A2229828E010E5C1F4F21E0EF
:10587000A50161E01C968D919C910E94E0400E94E0
:10588000F2428AA962CF9C7FFE2CE92E8A019B01FD
:10589000C3CD80E08F71982F990F890F880FF60183
:1058A000818B803308F468CC86857FC86C2DC70156
:1058B0000F960E94925207CC99829DCFEB80FC807C
:1058C000FE24EF24FE248A019B01C6CFC818D90804
:1058D000EA08FB08B1E5CB16B5E5DB06E104F10407
:1058E00000F5AC81B0E0AA0FBB1FF0E0FE2FEE2761
:1058F000FF0FEA2BFB2B840D951D6F8166956F734F
:10590000DC0157966C93440D551DDA015796EC93C4
:10591000240D351DD9015796FC93F201768B0C941A
:105920006C22840D951D66246A94FC01678A440DDF
:10593000551D81E03ECD809130028D7F80933002F5
:1059400080910802E81240C181E08E0D8F70806165
:105950008093080203E812E0F3E8AF16F2E0BF0616
:1059600009F008F491C06DB67EB67DAE6CAED8017C
:105970002C91822F90E027FDF7C00F5F1F4F0097FB
:1059800009F401C1E1EBF7E0259134918217930707
:1059900008F0F9C0FC01EE0FFF1FEE0FFF1FEE0F26
:1059A000FF1F3F01680E791E79AE68AEF301E65421
:1059B000FC4FE4918DB69EB624E0E29F80189108DA
:1059C00011240FB6F8949EBE0FBE8DBE4DB75EB7C4
:1059D0004F5F5F4F2A01F301E454FC4F4491F30100
:1059E000E354FC4F25913491F901420F532F511D7F
:1059F0009201BF014617570779F1A016B10608F4C6
:105A0000E0C0FB0184916F5F7F4F853008F43FC099
:105A1000873009F0D6C0C8010196F801C0808C011A
:105A20000C0D111DA016B10608F4CBC0D12CF12C21
:105A3000E12CD901CD92DD92ED92FC9213976C018D
:105A4000F12CE12CF901C482D582E682F782285F2D
:105A50003F4F4617570789F620912802211196C01B
:105A6000E8ADF9ADE154FC4F25913491C201F90143
:105A700019956CAC7DAC0FB6F8947EBE0FBE6DBEB2
:105A80000A151B0508F46FCF11E00C94C8226901B8
:105A9000F4E0CF0ED11C78018FEFE81AF80AD80194
:105AA0001C91812F8F77682E712C912C812C289638
:105AB0006CAE7DAE8EAE9FAE2897012F007600367D
:105AC00061F4D401C301806E9F6FAF6FBF6F2896E2
:105AD0008CAF9DAFAEAFBFAF289717FF43C02896DE
