:100000000C94A1090C94CE090C94CE090C94CE0941
:100010000C94CE090C94CE090C94CE090C94CE0904
:100020000C94CE090C94CE090C94CE090C94CE09F4
:100030000C94C1410C94CE090C94CE090C94CE09B9
:100040000C94CE090C94F71C0C94CE090C94CE0998
:100050000C94CE090C94CE090C94CE090C94CE09C4
:100060000C94CE090C9498410C946E410C94CE09DA
:100070000C94CE090C94CE090C94CE090C94CE09A4
:100080000C94CE090C94CE090C94CE090C94CE0994
:100090000C94CE090C94CE090C94CE090C94CE0984
:1000A0000C94CE090C94CE090C94CE090C94CE0974
:1000B0000C94CE090C94CE090C94CE090C94CE0964
:1000C0000C94CE090C94CE090C94CE090C94CE0954
:1000D0000C94CE090C94CE090C94CE090C94CE0944
:1000E0000C94CE090C942B200C94912B0C94BA29CF
:1000F0000C94A9340C94C13B0C9453270C94D33129
:100100000C94993D0C943C310C94C33B0C945F2CA3
:100110000C947D3D0C94212B0C94F41E0C944D2CCE
:100120000C9446380C94073E0C94FE220C94FB363B
:100130000C9410360C9453340C94832D0C94E32CB3
:100140000C94F52A0C94921C0C941C2D0C94DF2F0B
:100150000C94603F0C94C63A0C941B200C94672BB3
:100160000C94013B0C94C52D0C94D12E0C9482362A
:100170000C94B3190C94DB340C94FD190C945A377D
:100180000C9484270C94613D0C940A1C0C94BE2D95
:100190000C949B1C0C940F410C9422190C949519EF
:1001A0000C945B310C9411300C9436260C9462370D
:1001B0000C941D310C94471C0C94961E0C941C300E
:1001C0000C945F250C94E1390C940A320C9422347F
:1001D0000C94FE1A0C94A0390C940F330C943F2805
:1001E0000C94192C0C9400380C9462410C94A13698
:1001F0000C94C2380C94243A0C94E0200C94F3250F
:100200000C94781B0C94E02A0C94E3240C9474292D
:100210000C94083F0C94B8230C94F3380C94761A81
:100220000C9498310C9418270C94E13B0C94503B9F
:100230000C94A1270C948D320C94D8290C94AA24E8
:100240000C94791A0C949E1E0C9442240C94BB2995
:100250000C945A200C9427300C94AE1B0C9410284C
:100260000C9473390C94AC300C94F1350C94FE3032
:100270000C9496380C944D3F0C9467280C942F32B4
:100280000C942A370C94AF250C9412390C949E3A96
:100290000C94D6330C945D2F0C94B7380C947520C5
:1002A0000C94613A0C94B7200C94CA2D0C94661CE3
:1002B0000C94F9340C94A4350C94053F0C947B23D6
:1002C0000C948C2C0C94762B040400000400000485
:1002D0000404040000000004040000000004000006
:1002E0000000000000040000000000040002000004
:1002F00004000400000407040400000404040000D7
:1003000002020000000204070004000404000004CC
:1003100000020204040404040000040004040404B1
:1003200004040400040002030400040400040004A4
:1003300000000400040000000000000000000100B4
:100340000201023303212B02000001000000672B91
:1003500003000001000000053F0400000100000050
:10036000083F050000010000004D3F0600010001AC
:10037000A906A13607000001000000FB36080001B5
:1003800000013203362609000001000000BA290AE4
:1003900000020101A406E02A0B000301032F03BBA6
:1003A000290C000201022D03F52A0D000200023380
:1003B00003C52D0E00020002900622190F00030053
:1003C000032F03FD1910000200022D0395191100DF
:1003D0000500052803B31912000200029006102838
:1003E00013000100013203672814000200022D03EC
:1003F0003F2815000200029006842716000400041E
:100400002403D12E17000500051F03CA2D18000173
:1004100000013203192C190008000817038C2C1A4C
:10042000000300031403E32C1B0002000290068368
:100430002D1C000200022D035F2C1D000400048807
:10044000061C2D1E0001000132034D2C1F00080068
:10045000080C03463820000200022D03003821005A
:100460000400039206F41E220003000295061B20DE
:10047000230003000295062B2024000400048C06B0
:100480006237250001000132035A372600030003BA
:1004900009032A37270004000306030F412800033D
:1004A00000029506603F29000400048C069E1E2A67
:1004B000000100013203961E2B0003000303039288
:1004C0001C2C000300039706FE1A2D00060006FDF3
:1004D00002781B2E000200029006AA242F000500BD
:1004E00005F8020A1C30000400049E06661C310058
:1004F0000200029006471C3200040003F502422469
:100500003300050005F002E324340001000132034A
:10051000F93435000400037906A4353600050005DA
:10052000EB027B2337000400048C06A93438000357
:1005300000030903DB3439000300029506F1353A64
:1005400000030002950682363B00060006E5021015
:10055000363C000300029506613D3D000300029514
:10056000067D3D3E00080008DD02993D3F00060083
:1005700006E502073E4000050005D802E0204100E4
:10058000060006D202752042000300031403B720C0
:1005900043000100013203123944000200022D031E
:1005A000733945000200029006F33846000300024A
:1005B00095060F334700040004880698314800036D
:1005C00000031403C238490001000132038D324A8E
:1005D000000200022D0322344B0002000290063C70
:1005E000314C0001000132032F324D000200022D78
:1005F00003D6334E0002000290061D314F00010069
:10060000013203273050000200022D035B315100FC
:100610000100013203D3315200060006CC02AC3097
:10062000530003000314030A325400020002900630
:10063000FE3055000100013203613A56000200020B
:100640002D03013B5700040004C802503B58000131
:1006500000013203243A59000200022D03C63A5A1F
:100660000003000382069E3A5B0000010000006266
:10067000415C0000000500000004020704000002C5
:100680000002040400040007040000040400000049
:10069000040404040704070400020404040004041E
:1006A0000004040107040004020000000000000030
:1006B0000600020273004003790672001D067C06E4
:1006C00071000F0382067000400385066F0014045A
:1006D00088066E0017048C066D000A0290066C00F6
:1006E000400295066B00400392066A0040029506A0
:1006F0006900400295066800100397066700110420
:100700009A06660011049E0665000D02A2066400AA
:100710000B01A90663004001A40662001204A506AD
:1007200061000B01A90660001002AA065F00150314
:10073000AC0600004002AF065E000E02B1065D008E
:100740000901B3065C00060000002000230026001B
:1007500029002C002F0032000001000003010601D7
:1007600009010F470044004500800135480044005E
:10077000450020010D88008000810080000E8A0065
:100780008000810020000F8C008000810008000C98
:10079000B300B000B10080033EB400B000B100204F
:1007A00003239800900091008000249A009000910B
:1007B000002000259C009000910008003BA800A0AC
:1007C00000A10080003CAA00A000A10020003DACD8
:1007D00000A000A10008005B280120012101800089
:1007E0005C2A012001210120005D2C012001210152
:1007F000080078DA9D597B6FDB3812FF2A3C03C56D
:10080000DD1E929E2D59B29D43FF489CB49B6DD333
:10081000CDE6B15DE070101489B689E8B5A294C741
:100820002DFADD7786C39764B70B5C8122223933BA
:10083000248733BF79F88F49DA349393C9C7423498
:100840000D6F274793875E1479F2C45B29EA4AC289
:10085000D236CB4ED83F3EACD73FB0E8EDFCED945E
:100860003D88AAEF442171F6F33D3BD3C31F58F0F6
:100870003688DF06D3593C9D051188CAEAB24CABD5
:100880001C84FC31498BA2CED28E27B5C825CBEA79
:10089000BEEADEBDC926274BDCB1EB60AB24CD1E22
:1008A00019ACC2B4B73E8F3D823C37044D2DD51FE5
:1008B00051BD7BD3B3A62F8AA46F88C193F87BCF99
:1008C000DB572B130EF088D42D975DD289EC51D2D3
:1008D000A86BD34A96A24BCCAE4C54707FBDFF029E
:1008E000EE51F0B44DE4AEEFF2FAB99A9C0478B54B
:1008F0006A23B67022390B82A9D9423622D19F7958
:10090000DAA549CBD3FC35A1434E4E56538FEFA504
:1009100008E7D13EDFE4245E39AA2A2DEA6D222AB7
:100920007B6B2D297427D0573514344C3CFD39711D
:100930006A92B7436103DD45B125CEC5567469910E
:10094000D47D3762784A8B9EAB2BF24DDA175D620D
:1009500027CAF425C9FB36EDC072D439670B2B8F3B
:10096000831D74753390950D360FDCE6BB7C3E5FBE
:100970002CAD5A5BA975C8B8F9C8E7F62BB25FB1C0
:10098000FD5AD82F5EA4AFF6B141BB4E73BB97C5DD
:10099000ECC56CB14D05686D9756152FD4DDE0DEC2
:1009A0004686CC8A47FB884B77251164CCBCDADCC1
:1009B000C92DF26C16CF022319A8ECDB2EE763AA2F
:1009C000E459743B78E1EE619F9EE1346D8CBCA1EB
:1009D000E31532C89F0F19CF626989CAA65F05D196
:1009E000F4D0311691A5AA78DD88175E8CDE5859AF
:1009F000AF14FF8367DDF5E0F05D826FEBF98CE407
:100A000030052A739A8DDCDD9AE7F280DD64AFE071
:100A1000474E86B69A5D3FB62398D933A4B93B3189
:100A20005C772C18A1A3134F3CD989ED4EDD305CC7
:100A3000FAF4E048DB821F7052BB9674AF0D27DDDD
:100A400004034EE3F48798F55252CAEDBB37FF0416
:100A5000940BC3012F3E2D9A5126AD9984CE7A6412
:100A6000B75839E4C8E4016B6352E4F6F3B5CA92AF
:100A7000A135B3ACCC93B181472B6F078E986E8FA5
:100A80000E436D4D2C17ADF924AC53C48EAA2F2400
:100A9000F78406EE62DD8EB7650D50D21CD4A8BF78
:100AA000EC941A3BD7EECAAC4F5B6B1BED4BB28795
:100AB00043ACB39368799D28395D6DE6A4B4A80F63
:100AC000A75640D69C3FF460CF3544B39519819426
:100AD000ADB2657A9F9925436066759BF316F783DF
:100AE000B8D2125E0586E0B9151DDFA340A32542EA
:100AF000380A2F79BBE555F69A20B0C121608A40AB
:100B00002ED9D525DF0B3B322D1BDF01F4D8069DF6
:100B1000615882A33B60A5EB5A1DB762BBE52D5E11
:100B200042D6040E41E43657410FCE9476DC2A2893
:100B300000E7DC080827E0D209E990656D46907867
:100B400034D98237AB738292F548D1803BD0B06FF5
:100B5000F015C00F8F261A9B1309FB25608136F410
:100B6000E037E9399E8DC8F00998171835193C0708
:100B7000C2123D86B607AE7C89E15C52701DEE560E
:100B80004488A0F3D04B1FD260A800092E8B7FF1C0
:100B90009DB824A39DCF1C97AC37DD73DA729F1DDF
:100BA0001CCD3A579E9ACF4392E23949D24631BE84
:100BB000C71CEF91F3AA131B4836361BD85079A7F0
:100BC0008DC1701003F7B0D67FC33EBA1D6CB8ABB1
:100BD0008B5C0DBEFFE28CB76D3DB0802598AE01F9
:100BE00073A574FBF691BFD237B9B30BCAA276BD19
:100BF000779708AC980C6894DA0CAC13B65B8DE868
:100C000094C1F50EE9964B4730C8754682E231DD56
:100C10005850BCB004E374E8FF74ADD2B9968E3579
:100C20006E04A9E01618773C7BF492A87066CE306B
:100C3000CAA1EC099A1AD06BBCBF87CA911130C8FF
:100C40003AC64A8D07547B2AB5424629C658CC7409
:100C500044A7EC6D84084B7BA561363192B5580CE6
:100C6000C9C6675AD8238FF28DB19CF9886E4F9010
:100C700035BCBD80FD8DC41D1109E2B3D8D01B2D3C
:100C8000EC8548F2484940604DF6500CFBC6269E64
:100C9000AD0C4C8506103B015273CF52627AA39E75
:100CA0001F4AA0ED1EB59F38CD2CCB286FB2E4D6DD
:100CB0003C016BE6861803357389226F293619D8F3
:100CC000D9290883BF02D01F1040A56C101A67FAFB
:100CD00053F113E88FF70306B020A4F1EF30CAFEFA
:100CE000E1DCE11E91BA81CAF3ACCC41D2074C31B0
:100CF0003155FC451F0152110BA9A2A568352322CD
:100D0000A38FBF4820412B781497CB613DB7714E1C
:100D1000EAD06D31253A0F1FBDD5706E56076106BA
:100D2000A7749829EB9C7B41025862C77228C6942D
:100D300042D626B294B5148792BC3DA1B1BECDB7C0
:100D4000EF1182C950FEF8BD301C2D875487A37067
:100D5000B4402A95292618EA212608CCBBADDFCC61
:100D6000568E40251868BD1490988D4F5EB4020EC3
:100D7000D858E7790355ABF869C33B05277811CDFF
:100D80008D3A449F3EE00160124B47D7F9F9236F3B
:100D9000EA56272FE4BD6A6C8D84BF34029EC44F8F
:100DA000955656D2E8163E11288542E5213FF67C3D
:100DB00060FED5E4A4D8E4383D5F2757A7BF61A6FD
:100DC0008929F3D9FD6D727DF9F916216D7232B959
:100DD0003E0B8FAECF02F83F9B788BDDB35A3C9F22
:100DE0001E5D9FE3C2FAD3CFEB8FC9FB9B8B5FD015
:100DF0005DA6EADFD1E46A7D0F546957F26D1A44AB
:100E0000F11408AFBF5CD16E0186979B8BF5C5E5E9
:100E1000AF17C997CBCFE73F7FC1670B70F2F6E200
:100E20000626E914BC1569817B5DC05E17B817AC56
:100E30005E9E7E4ACE4EEFCF510C6D757B777A77F2
:100E40009BDCDE5FDDFE022BB717B8127FC504B353
:100E50008794571565AAA5A3F32FFC547798020D24
:100E6000D8348EAF4FA79393FF4C8F96FF85639E28
:100E7000E1F792BED7F80D20A006E73880D4540DD4
:100E80002E70100634788F83B9E6FFA0065AC08F03
:100E90003888B4809F70B0D03C1FD5369AE7931A3B
:100EA00020CFD701344045A2BA51B3300CE1C4473A
:100EB000935446D3F92257495A57F0683A0B1EE02B
:100EC000C29A4B5F4FBD1F5E0F438B40136CA1B2A4
:100ED0004844AE1F9D29E3D850F6409D8CD342353F
:100EE0007F98C9BA7302CC755AB1AAEE18183B4361
:100EF000C0608071046C4CD92C7BDE09F826DB9332
:100F0000AC01EF819D08910D6F2FB90A7EED8C6DBC
:100F1000EA968119FCDB8C85C4D55CCDAB2949856B
:100F200039B0FEBDC3800025E5160E04C966DA217E
:100F300075AA8F49053415129A5822299A3C953B77
:100F400034AB6287120D27E5153335A6E507A35BA1
:100F500053DB8F35690B2647A9AAAA24CC42CB21A3
:100F600084C94E35FFDEA770DF9C75355348813D3F
:100F700015E5E0040D3FFE86D9123667FEA59B33CA
:100F80000355B3D9F19C62E265B0669F4FD71F2924
:100F900057C31158F1CD9D999BFA733717A7E77A7C
:100FA00001C10017EE087708672E29AA33D35A73B8
:100FB0001D420AAE14290C956E72AACAC9CD011938
:100FC000DE3F2D3944662AA0CD62593F71A30286C7
:100FD0003D168411B76C3B32B6074305D0DEBA4EDE
:100FE000E5EDFEA17774783546B68E25AD99C5D668
:100FF00089012B44386F5E675CD94E349A711E0E9E
:101000000954E5E2EE24A9B568280629952F055E66
:10101000E32A7DC1175B1A8552D8BC82EA2A85274C
:10102000840A1A02A0B1125C10124D5842129EF7A7
:101030000556F0C08CF902D350AC4C803F717C094E
:101040004C15BECDB04BDB5C7998A6C606CD15AA73
:101050005FA5500CBEDA4D513F530EF6195C2B655F
:10106000741DF4690565D84DF617C0D968211A7149
:1010700088AAA14C855AD66AA9C293BAE985826C1E
:10108000EB724D5B6F4199251C3DC5BB6D20D4C3F0
:101090002941D91CD1022BB11BAE2F851E82EE0C2B
:1010A000DBA0AAE119D07DB02B766B09F6B4C39E04
:1010B00045514004CC40DEA0A54631DD715A0D7D7E
:1010C00087035BCEB7E0FAF486EA004821CABE3453
:1010D00073C639F054A66DA65AE7204C8185023EAE
:1010E000BF8B7EABD1A3AB6BB649D5EDE866D8AF6D
:1010F000B8F34D0A550684AA514815F79DD20772D8
:1011000042F0975CF55FEE2BD937980070421205DC
:10111000DF58FF7E49BB6C97D75BD2E2DFA8D3AD27
:101120007E92805AAFAF1E4130C21075ACBD79E9D6
:10113000169041F908E0940478450F86D442B24CE9
:10114000EAF7759D4342C9BA2A00589F4040FA50B9
:1011500018BCB4D7A79E06EB0CF260774BFD366245
:101160002159FF629253E34A62830101900C21836B
:10117000655C9ADB544B0186524891B61886C2C30F
:10118000490CBE02D92C36283572934760EA0651C5
:101190006EAF8987610E328D70B68C221535F520C1
:1011A0005661930671A49E140671BC80EFF02B4823
:1011B0002A4406DA02FE09FE52F4E1FAD35338510A
:1011C00005480338C0E9872153D50F0A54E5BFC944
:1011D000A10AE8186DC3FCC0336049BD9A9DA915EA
:1011E000CA708F1124A8D27109E57168BB891007F4
:1011F00075BF4BE59CAA2D8673E6AD54220F58911E
:10120000D8D20AD9D58F39AA19F0BD836B16FD91B2
:1012100078FB63926C9A9112ACDAF6168F310699CC
:1012200066DE403494F1806EFB9BF8BD42E48F5D36
:101230005F2D31BAF6EA723536AA095CEFCAA3B55A
:101240004D2CAA13DE222D76B99C52D8381522BD1A
:10125000AC42D7EBDAEB3A7817301D2D5F2191D7EE
:10126000A7D23A3125589F65AA1987D743EC8263E4
:10127000FA8DDD638CE3E49790B24169E5973A1209
:10128000436D95F151A7EB98EA57C7336848B8E228
:101290005BB70C4C414185AB2FF2A157C89D531B46
:1012A00008B22670F6C48416A9CD0523BC74A068C4
:1012B000FA568775383F54CDEEBDA4DFB1F09F7468
:1012C000160FCBC7BF348150E5B56DA7124DAC1AD0
:1012D000F058D299AEEC4BFD47FE4E3F6446AE222D
:1012E0001C958BD452142876310292E1931EF4EFB0
:1012F0009E005EBFF3C25591FB57C0FA918E3FF539
:101300002B43676B596ACBD4C32D54CFF430EBA574
:101310001637A39F90FA01526035A07F100724DB97
:10132000A4E972F5C0275FFF04E152702B3B0B006C
:101330000028292A2B2C2D2E2F505152535455560C
:10134000570011241FBECFEFD1E2DEBFCDBF00E0BA
:101350000CBF14BE0FB6F894A89580916000886108
:1013600080936000109260000FBE12E0A0E0B2E037
:10137000E0E4F5E800E00BBF02C007900D92AA324E
:10138000B107D9F723E0AAE2B2E001C01D92AB3960
:10139000B207E1F70E942D1E0C949E420C940000AF
:1013A000CF93DF93CDB7DEB76B970FB6F894DEBF60
:1013B0000FBECDBF0E941A1E6B017C0180912602D8
:1013C000882311F40C94DB110E941A1EC61AD70A46
:1013D000E80AF90AF89480912602882361F08FEFD9
:1013E000809327028093260278940000F8948091DD
:1013F00026028111F9CF78940E941A1EA701960146
:10140000260F371F481F591F2E8B3F8B488F598F30
:1014100081E08093260280915A02882309F443C018
:1014200010925A028FEF89838E010F5F1F4F4CEF8E
:10143000E42E46E0F42E6DE47CE2C8010E945226C0
:101440006C01892B81F1D60156968C9182FFF3CFE6
:101450000E941A1EF894F60137892689422F4B7F85
:10146000468B78949F938F937F936F931F923F93B4
:1014700021701F922F9389811F928F93FF92EF9279
:101480000E9441152DB73EB7245F3F4F0FB6F89429
:101490003EBF0FBE2DBF6DE47CE2C8010E94522604
:1014A0006C01892B81F680915B02882339F11092BF
:1014B0005B028FEF89838E010F5F1F4F36EFE32EA4
:1014C00036E0F32E60E078E3C8010E945226FC016A
:1014D000892BA1F0958D868D9813F4CFF894858D86
:1014E000968D891711F40C94EA12789460E078E3F1
:1014F000C8010E945226FC01892B61F7809152029B
:10150000882321F1109252028FEF89838E010F5FA1
:101510001F4F24EEE22E26E0F22E67E47CE1C801A4
:101520000E945226009791F0DC0158962C912F3F93
:10153000A1F7F894FC012685211107C7789467E488
:101540007CE1C8010E945226009771F780915602F3
:10155000882309F440C0109256028FEF89838E01D0
:101560000F5F1F4F9EEDE92E96E0F92E63EE74E2B9
:10157000C8010E945226009771F1DC011E962C9141
:101580001E9723FFF3CFF894FC012685277F26873B
:1015900078949C01265E3F4F3F932F9350968C91F9
:1015A0008695869586951F928F9389811F928F933A
:1015B000FF92EF920E944115EDB7FEB738960FB635
:1015C000F894FEBF0FBEEDBF63EE74E2C8010E9447
:1015D0005226009791F680915F02882309F44BC050
:1015E00010925F028FEF89838E010F5F1F4F82ED94
:1015F000E82E86E0F82E6BED74E3C8010E945226B7
:10160000FC01892BC1F1848D80FFF5CFF894948182
:10161000258136814781548965897689A789B08D6E
:10162000D18CC28CB38C848D8E7F848F7894BF9242
:10163000CF92DF92BF93AF937F936F935F934F935C
:101640003F932F939F9389811F928F93FF92EF92E5
:101650000E9441152DB73EB7205F3F4F0FB6F8945B
:101660003EBF0FBE2DBF6BED74E3C8010E94522632
:10167000FC01892B41F680915502882309F456C05C
:10168000109255028FEF8B87AE01455F5F4F1A01B5
:10169000BCE09B2E17E0812E67EB70E2C1010E9437
:1016A00052265C01892B09F441C0D50159968C91D1
:1016B000599780FFF1CFF894F501448055806680FA
:1016C0007780818D8E7F818F789458968C91813030
:1016D00009F4E5C308F4C3C3823009F480C383303E
:1016E000D9F6CB8419821A829E012F5F3F4F42E0C8
:1016F00061E0F501848995890E94211F09811A8181
:10170000102701271027F02FF670EF2E20E030E091
:10171000B301A201C5010E94272167EB70E2C1015C
:101720000E9452265C01892B09F0BFCF80916B0289
:10173000882301F110926B028FEF8B879E01255F4A
:101740003F4F1901E9E0BE2E8E010F5F1F4FF2EFF0
:10175000CF2EDD24DA9406C0D7011E968C911E97F9
:1017600080FDCCC363EF78E3C1010E9452267C0167
:10177000892B91F780916C02882309F46BC0109239
:101780006C028FEF8B87FE013B961F01DD24DA94FC
:101790009E012F5F3F4F3F872E87AE01475F5F4F10
:1017A000598B488B62EC78E3C1010E9452267C0180
:1017B000892B09F44FC0D7011E968C9182FFF2CF7E
:1017C000F894F70184809580A680B780C18816863A
:1017D000118A789480859185A285B385881A990AA3
:1017E000AA0ABB0A87010E5E1F4FD701CC2091F0D9
:1017F00056968C91F701E80FF11DD78A108E118E45
:101800008D5FF701868B813308F0FBC0CA94D70146
:10181000C110EECF1F968C91882309F47FC28130CE
:1018200009F45DC5823009F480C6D70156968C91C3
:1018300090E0C1970CF4B6CF6B85C70142960E9429
:10184000833B62EC78E3C1010E9452267C01892B24
:1018500009F0B1CF80915C028823D1F010925C0234
:101860008FEF8D87FE013D967F01E2E79E2EF4E724
:10187000BF2E06C0D60152968C91529780FD36C479
:101880006CE371E3C7010E9452266C01892B91F72A
:1018900080915D02882309F110925D028FEF8D87A0
:1018A0009E01235F3F4F790147E0442EAE014F5F19
:1018B0005F4F4A015FEA552E68EA662E06C0D801DE
:1018C0001E968C911E9780FD77C46DE171E3C70170
:1018D0000E9452268C01892B91F780915E02882309
:1018E00009F495C010925E028FEF8B87FE013B9644
:1018F0001F016EEF70E3C1010E9452268C01892BFB
:1019000009F485C0D8011E968C911E9780FFF1CFF7
:10191000BB84AE014F5F5F4F68E11C968D919C9137
:101920001D970E94A93B89819A8198278927F8945D
:10193000F80196859E7F9687789483FFDACFC388D7
:10194000D12C7601B4E1EB0EF11CE00EF11EA701E3
:1019500060E0848595850E94A93BA7014E5F5F4F9B
:1019600061E0D8011C968D919C911D970E94A93B26
:10197000F80183898C5F838B4801FCE48F0E911CF6
:10198000D401AC90A2FE33C0F7012181828190E0A6
:10199000A0E0B0E0BA2FA92F982F8827A22B23818F
:1019A000822BF801EC0DFD1D24896C017D01F22ACA
:1019B000C114D104E104F0E1FF0608F056C50E940D
:1019C0001A1EA1FC6EC6F801E15BFF4F40805180FA
:1019D000628073804C145D046E047F0408F470C64A
:1019E0008A2D8D7FF4018083D80153968C9190E0ED
:1019F000C0970CF47ECF6B2DC8010F960E94833BDD
:101A000078CF6B85C8010E94833BCA9400CF809138
:101A10006D028823B9F010926D028FEF89838E01D9
:101A20000F5F1F4FEE24E394F12C170104C0FC015B
:101A300021852111DAC260E57BE3C8010E945226AC
:101A40000097A9F780916E028823B9F010926E0278
:101A50008FEF8B879E01255F3F4F190106C0D8018C
:101A600051968C915197811105C46EE97AE3C101B9
:101A70000E9452268C01892B91F7A89580917702BC
:101A8000882329F080E480936000109277021091FF
:101A90003803112309F46EC000912A0200FD12C020
:101AA000153008F467C0D0907802BD2C8BEF8D0DF7
:101AB0008C3308F4A8C4EEE7BE1609F48AC60160A8
:101AC00000932A02412F50E06EE770E088E792E031
:101AD0000E946F42009739F00E7F00932A028857C8
:101AE000924011E0180F01FD0CC0902F926090936E
:101AF0002A0283E796E09F938F930E9441150F90EF
:101B00000F90D12ECC24CA9420E0ED2CF12C19C0DA
:101B1000822F90E0402F50E0481B590BB701680F0F
:101B2000791F68587D4F88589D4F0E9485421092BA
:101B30002602202F8FB7F89490913803191761F07F
:101B40008FBF10913803012F0D1911F78FB7F8943B
:101B5000909138031913F4CF009338038FBFF1E04D
:101B6000CF1208C083E796E09F938F930E944115A0
:101B70000F900F900E941A1E6B017C012E893F89E5
:101B8000488D598D621B730B840B950B809033022B
:101B900090903402A0903502B09036023FEF831A45
:101BA000930AA30AB30A8092330290923402A0925D
:101BB0003502B092360240902F0250903002609071
:101BC000310270903202460E571E681E791E4092F6
:101BD0002F025092300260923102709232026115EF
:101BE000710541E08407910508F0EBC39B01AC014E
:101BF0000E94CC41DC01CB0181509F4FAF4FBF4FC2
:101C0000892F9A2FAB2FBB2740912B0250912C028A
:101C100060912D0270912E02840F951FA61FB71F91
:101C200084179507A607B70718F48FEF9FEFDC011D
:101C300080932B0290932C02A0932D02B0932E023E
:101C40004091730250917402609175027091760216
:101C50005C546B437B4F2F2DC416D506E606270B2D
:101C600027FDACCBBF93AF939F938F937F926F92DF
:101C70005F924F92BF92AF929F928F928CE297E0C9
:101C80009F938F930E9441156DB77EB7625F7F4F20
:101C90000FB6F8947EBF0FBE6DBF80917302909116
:101CA0007402A0917502B0917602C816D906EA06B0
:101CB000FB0698F480916F0290917002A0917102DE
:101CC000B09172020196A11DB11D80936F02909395
:101CD0007002A0937102B0937202C0927302D0920C
:101CE0007402E0927502F092760210922B0210922A
:101CF0002C0210922D0210922E0210922F0210929E
:101D0000300210923102109232021092330210927D
:101D10003402109235021092360250CB82E389834E
:101D20001A820E941A1E2B013C019E012F5F3F4F19
:101D300042E061E0F701848595850E94211F0E94A1
:101D40001A1EDC01CB0184199509A609B709813255
:101D50009340A105B10508F0EAC2998197FD22C31D
:101D6000481859086A087B08D70150968C91882337
:101D7000C1F02FEF280F41E050E002C0440F551F83
:101D80002A95E2F7052E000C660B770B440E551EC4
:101D9000661E771E04C076946794579447948A957C
:101DA000D2F7BFEF4B1651046104710408F06BC306
:101DB0002A8130E0220F331F892F90E0982F882747
:101DC000990F822B932BF7012689E20FF11D478A89
:101DD000808F918F2D5FD70156962C9326CDCB8483
:101DE00081E089831A821B821C829E012F5F3F4FF4
:101DF00043E061E0848995890E94211F69817A818D
:101E00008B819C810E94FE41BB27A92F982F872F91
:101E10009C01AD01442755272A8B3B8B4C8B5D8B56
:101E200089821A829E012F5F3F4F42E061E0D50117
:101E300054968D919C9155970E94211F8A81982FCD
:101E40009C7F8A898170E92EE82A0A891B892C895E
:101E50003D89B301A201C5010E9427211DCCCB847D
:101E600019821A821B821C829E012F5F3F4F44E021
:101E700061E0F501848995890E94211F69817A8139
:101E80008B819C810E94FE41F62FF770EF2E8B0113
:101E90009C01B301A201C5010E942721FDCB2B8526
:101EA0002A8B99821A821B821C829E012F5F3F4FD0
:101EB00044E061E0848995890E94211F69817A81CB
:101EC0008B819C810E94FE416B017C01BFE0B98344
:101ED0001A829E012F5F3F4F42E061E0F501848945
:101EE00095890E94211F970186013327CA88EA80BD
:101EF000B301A201C5010E942721CECBAB84F8011A
:101F00002B2D11922A95E9F7C982980149E061E0E9
:101F10001C968D919C911D970E94211FD70153966D
:101F20008C9190E0FC017496EE0DFF1D3B81232FF8
:101F3000207FE1F0203FD1F0D482D382D282D182BF
:101F4000F701E80FF91FD48AF70183898B5F838B30
:101F50008F3208F0D4C2D7011E968C911E978E7FC7
:101F60001E968C93C7010E94B733FCCB2D81422F64
:101F7000407F09F076C25F81452F407F11F0403FDE
:101F8000D9F648854039C1F649854F77942EB0E29D
:101F9000B41790F2D701A80FB91F4A8154964C93F9
:101FA0008C8181838E818283852F90E03F71AC018B
:101FB000440F551F42955295507F5427407F542718
:101FC000342B3383880F991F880F991F80762F71C8
:101FD000822B8483D70153968C9153978B5F5396B2
:101FE0008C938F3208F491C28BC2B9809084E92D12
:101FF000F0E0DC015296CD90DC9053975496AC9073
:10200000549755964D905C90569757963C9177967D
:1020100040E050E0BA01FA2CEB2C792CF894D20174
:102020003C93000000003C93D6012C917894440F1F
:10203000551F661F771F2F21812C912C54018394EB
:10204000211103C0812C912C5401482959296A2956
:102050007B29319718F7BE2C972CF894FC01218529
:10206000118678946A017B0104C0F694E794D794B2
:10207000C7947A94D2F7E7FE02C0FF24FA942101B4
:1020800001C0440C9A94EAF74A94512C612C712CAB
:1020900044215521662177214416550666067706A8
:1020A00009F4C5C220E030E040E050E8DC011E96B3
:1020B0002D933D934D935C93519760E850E040E041
:1020C00030E0DC015C962C91FC01E20FF11D358FB4
:1020D000468F578F60A32C5FFC01248F203308F4B8
:1020E000AACC6B2D48960E94833BA5CCAD8450961C
:1020F0008D919C915197C09770F1B9828601085ECD
:102100001F4F20E3AE014F5F5F4F61E0F601848512
:1021100095850E94D53F0E94211580E3D6015796F0
:102120008C93579750968D919C915197C09751964B
:102130009C938E9350976A2DC60143960E94833BD1
:10214000F60180899189C09778F11092260281E08A
:1021500080935C0295CBD6011C968D919C911D9726
:102160009B868E010F5F1F4F22E0AE01455F5F4FE0
:1021700061E00E94D53F0E94211589818F7190E016
:10218000982F88272A81822BF601268537852817E4
:10219000390710F497878687D60151969C938E93C2
:1021A0005097C0970CF0A9CFF60182898E7F828B61
:1021B000C6010E94033464CB2D84F401242D1192B6
:1021C0002A95E9F75B861C8669825396AC905397F3
:1021D000B12C650134E1C30ED11CC00ED11E940197
:1021E00047E061E01C968D919C911D970E94211FF4
:1021F0009E01255F3F4F42E061E0D8011C968D9122
:102200009C911D970E94211F8C85B82FBF733B2E78
:102210008074782EF801EA0DFB1D8A81848B8B81F6
:10222000F60181838C8182838D8183838E81848377
:102230008F818583D80153968C9153978A5F5396EB
:102240008C938E3208F0EDC1772031F0F80181894E
:1022500092890196928B818B332009F4DCC1D801DD
:102260001E968C911E978E7F1E968C93C8010E949D
:10227000B7332BCBFB8419821A821B829E012F5FFE
:102280003F4F43E061E01F968D919C9150970E94D3
:10229000211FF801118A29818A8190E0A0E0B0E035
:1022A000BA2FA92F982F8827A22B2B81822BA7FD2D
:1022B000BF6FF8012789E20FF11D808F918FA28FE8
:1022C000B38F84E0820FD80157968C93803308F443
:1022D000CCCB6F2DC80143960E94833BC6CB8FE7C2
:1022E00089838EEF8A830E941A1E6A8B7B8B8C8B6C
:1022F0009D8B9E012F5F3F4F42E060E0F701848598
:1023000095850E94211F0E941A1E2B013C01DC01B1
:10231000CB012A893B894C895D89821B930BA40BD5
:10232000B50B81329340A105B10508F4B9C0D701BE
:1023300056968C91F701E80FF11DD78A92E0908FA5
:10234000118E8D5FF701868B70CA318D308F789436
:10235000AC01415F5F4F5F934F931F922F93FC013E
:1023600087891F928F9389811F928F93FF92EF929B
:102370000E9441152DB73EB7265F3F4F0FB6F89428
:102380003EBF0FBE2DBFC9C828893989E217F307A0
:1023900009F010C1809590E02A8530E082179307FC
:1023A00009F457C1D70156968C91F701E80FF11D3A
:1023B000D78A93E0C4CFCE8ADF8AE88EF98E0C9458
:1023C000080A6115710550E18507910508F02DCCCB
:1023D0008B019C0101501F4F2F4F3F4F5527432F1B
:1023E000322F212F0E94CC41DC01CB0140912B02E6
:1023F00050912C0260912D0270912E02840F951F36
:10240000A61FB71F0DCCC09079028C2D807F803124
:1024100009F051CB1D1508F4ADCB8D2D90E0FC01DA
:10242000E958FD4F20812E3709F045CBFC01EB58D0
:10243000FD4F1F01FC01EA58FD4F9081D1018C91A5
:10244000292F30E07901F82A6DEF6D0D88E792E0D1
:102450000E94301EE816F90609F4BDC1B09078025A
:102460002ACB403F09F068CD86CDD4011C92F801FB
:10247000E25BFF4F60813497808191810E944E2DF5
:10248000F8018389B4CAF7018689E80FF11DD78A5C
:1024900091E0908F118E8D5FD70156968C93C5C9B0
:1024A00080EC89831A829E012F5F3F4F42E061E0FA
:1024B000D7011C968D919C911D970E94211F4981E7
:1024C0002A81942F9227892F82958F709827892FA0
:1024D000869586958927982F9695892780FDDAC05D
:1024E00046FF07C1F7018689E80FF11DD78A25E06D
:1024F000208F118E8D5FD70156968C9396C9912CA3
:102500006A2DC7010F960E94833BBEE1B91508F002
:102510008EC2F701818992890196928B818B1092EC
:10252000260281E080936B021DC9D7011C96ED91B4
:10253000FC911D971481C280038140E06C2D702FA7
:10254000812F0E94D9220E941A1E2B013C01B0E16A
:102550004B0E511C611C711C0E941A1E272D461621
:1025600057066806290B27FFF7CFF89441E06C2D3A
:10257000702F812F0E94D9220E941A1E2B013C012C
:102580007894EE85FF852AE011922A95E9F734E8E0
:10259000398343E24A839E012F5F3F4F4AE061E067
:1025A000D7011C968D919C911D970E94211FFE01C1
:1025B000339685E09191892728E030E005C0880FA7
:1025C0002150310909F4E0CE87FFF9CF880FBDE132
:1025D0008B27F6CF5489658990892189328943896F
:1025E0008F5F858F78946F935F934F933F932F9373
:1025F0009F9389811F928F93FF92EF920E944115C2
:102600004DB75EB7465F5F4F0FB6F8945EBF0FBE23
:102610004DBF0C94620A1092260281E080935D0205
:1026200054C9622DC8010F960E94833B0DCE21FD37
:1026300024C0FC0146845784608871884114510489
:102640006104710409F0F8C13C2D4D2D5E2D6F2DF4
:1026500038CD898584FF44C08B8187FD8CC0D7012C
:1026600056968C91F701E80FF11DD78AB4E0B08F30
:10267000118E8D5FF701868BD8C820E030E040E0F6
:1026800050E4DC011E962D933D934D935C9351973E
:1026900060E414CDF7018689E80FF11DD78A93E035
:1026A000F8CEF801ED5AFF4F408051806280738070
:1026B000292F641575058605270927FF84C994C944
:1026C000F801ED5AFF4F60837183828393833697BD
:1026D00060813397808191810E944E2D80E082C974
:1026E000D70156968C91F701E80FF11DD78AB5E016
:1026F000BECF481859086A087B08F7013089332390
:10270000C9F08FEF830F61E070E002C0660F771FA2
:102710008A95E2F7CB01092E000CAA0BBB0B480EE1
:10272000591E6A1E7B1E04C0769467945794479482
:102730003A95D2F77FEF471651046104710408F00F
:102740003FC0842F90E0AC01542F4427550F550F04
:10275000F4E02F9FC0011124842B952BD7015696AE
:102760002C91F701E20FF11D478A808F918F2D5F29
:10277000F701268B5AC8481859086A087B08F1E502
:102780004F16F5E55F0661047104D0F42C8130E04A
:10279000220F331F90E0982F8827990F822B932BBD
:1027A000D70156963C91F701E30FF11D2F81269535
:1027B0002F73278B808F918F3D5FF701368B35C844
:1027C000D70156968C91F701E80FF11DD78A91E059
:1027D000B6CD11E096C9802F8D7F80932A0280911B
:1027E0000802C8121FC181E08C0D8F708061809338
:1027F0000802BAE72B16B2E03B0609F008F4FDC068
:102800000AE712E081E7E82E86E0F82E99E0C92E6B
:102810008DB69EB6D8012C9127FDB7C00F5F1F4F14
:1028200030E02115310509F4FFC0F701859194913D
:102830002817390708F0F8C0A901440F551F440FA5
:10284000551F440F551F420F531FFA01E95CFC4FFF
:10285000E4916DB77EB784E0E89F60197109112497
:102860000FB6F8947EBF0FBE6DBF8DB79EB70196B1
:10287000FA01E75CFC4F6491FA01E65CFC4F45917C
:102880005491FA01DA01A60FB11DBD01AC019B8A7A
:102890008A8A9B8F8A8F6E177F0709F488C020165B
:1028A000310608F46FC0A491A53028F1A73009F0D3
:1028B00069C02801BFEF4B1A5B0AD8016C908201F6
:1028C000060D111D2016310608F45CC0712C812CF8
:1028D000912CDA016D927D928D929C921397612CCE
:1028E000712C14964D925D926D927C921797485F71
:1028F0005F4F3196D0CF5A01B4E0AB0EB11C480106
:102900008FEF881A980AD8011C91912F9F77492E32
:10291000512C612C712C012F0076003609F440C037
:1029200017FF6EC084010F5F1F4FD80111978C9164
:10293000440C551C661C771C440C551C661C771CEB
:10294000440C551C661C771C440C551C661C771CDB
:10295000440C551C661C771C440C551C661C771CCB
:10296000440C551C661C771C982F9F77492A87FDBD
:10297000DACFDA014D925D926D927C921397A501A8
:10298000319689CF87E00E943A152F77B0E82B9FC8
:1029900090011124F8018181282B0E5F1F4F41CF38
:1029A000B0EE4B2A55245A94652C762CB9CF8A88E0
:1029B0009B888A8D9B8D40912802442351F0C29EB2
:1029C000F001C39EF00D1124E85CFC4FE491E0FFA0
:1029D00019C0C29EF001C39EF00D1124E45CFC4FAF
:1029E00025913491F90119950FB6F8949EBE0FBE4A
:1029F0008DBE0215130508F40BCFCC24C39484C8F4
:102A00008401B7CF809129021F928F93EEE3F7E004
:102A1000FF93EF930E9441150FB6F8949EBE0FBE30
:102A20008DBEE7CF1D2D65C885E00E943A15F1E007
:102A3000F91508F474CD8FCA342D452D562D672D08
:102A400040CB8230910589F05CF08330910529F00C
:102A5000049771F48DE10E943A158EE10E943A15B7
:102A6000019739F48FE10E943A158CE10E943A15E2
:102A700008950895F894682F70E087E392E00E942B
:102A800041422F923F925F926F927F928F929F92DC
:102A9000AF92BF92CF92DF92EF92FF920F931F936C
:102AA000CF93DF93CDB7DEB728970FB6F894DEBF8C
:102AB0000FBECDBF80914F028823C1F028960FB67C
:102AC000F894DEBF0FBECDBFDF91CF911F910F9164
:102AD000FF90EF90DF90CF90BF90AF909F908F903E
:102AE0007F906F905F903F902F90089581E080934A
:102AF0004F028E01015E1F4F20919A03509099035F
:102B00002515C0F4452D50E0CD8CDE8C32E0C30E8F
:102B1000D11CF60184913A01680E711CC301813603
:102B2000910554F1821B91098136910560F0109254
:102B30004F02C4CF1092990310929A0340E050E0E4
:102B4000512C20E0E1CF1092990360919A03561A1C
:102B5000E52CF12C70E0675C7C4FA70189E393E0E2
:102B60000E94854210929A03509299038091C1006D
:102B700080628093C100A7019A01275C3C4F7901D4
:102B8000F601A491A63008F440C1C9010296CA2EEC
:102B9000D12CF5E0CF1AD108C80ED91EED8DFE8DCF
:102BA00033964491ED8DFE8D34968590949054012A
:102BB000ED8DFE8D259134912038310508F00AC144
:102BC000BC016F5F7F4F7E836D832F77DC012C9379
:102BD0003401640E711C78866F826F807884A6142D
:102BE000B70409F441C18D809E80C814D90448F00F
:102BF000F5018491853009F4BFC008F441C08830E4
:102C000018F086E00E943A15F80120813181F60122
:102C10006D807E80E619F709AF01FF0F660B770B19
:102C200049835A836B837C83A901330F660B770B2F
:102C300069807A808B809C8064167506860697066C
:102C400008F4D4C06D807E802FEF621A720AAD81C5
:102C5000BE814C931801B4E02B0E311CF801228187
:102C600033818A01B901863009F4C3C0C3010E94CF
:102C70007C424301800E911E9E828D828101A6C0FE
:102C8000823008F4BAC0833009F4E4C0F80140810E
:102C900051813A01812C912C0E5F1F4FD401C30149
:102CA0008096A11DB11D80389105A105B10508F4DC
:102CB000CEC0A4019301305F4F4F5F4F21153044C8
:102CC0004105510508F43FC0D401C301189600978F
:102CD000A042B10540F1A40193015C5F21153105CB
:102CE0004105504180F0D401C3015CE1B695A79540
:102CF000979587955A95D1F78068AD81BE818C9361
:102D00001196BE83AD83D401C30145E1B695A79565
:102D1000979587954A95D1F78068AD81BE818C9350
:102D20001196BE83AD83D401C3013EE0B695A7954D
:102D3000979587953A95D1F78068AD81BE818C9340
:102D40001196BE83AD83ED81FE813196D401C3011E
:102D500027E0B695A795979587952A95D1F780682E
:102D6000AD81BE818C939F012F5F3F4F3E832D83AA
:102D7000462D4F7740832AC098012E5F3F4FF801C0
:102D8000A081B1818D819E8101966C91662399F01D
:102D90008C159D0580F4FD01319604C0C816D90636
:102DA00009F453C00196AC0141505109DA016C930A
:102DB00061916111F3CFAC016D807E804619570996
:102DC0004150D3014C939E838D8389012FEFA21A2A
:102DD000B20A03CF0196B901660F672F661F770B02
:102DE00071956068D70112966C93EACEB401A30185
:102DF00029CFC3010E9466423CCFD8016D907D90DF
:102E00008D909C900C5F1F4F49CF1A2FD7011C93B8
:102E10008091080211968C936DEF610FC7010E949B
:102E2000301EE10EF11CF7013397908331968083B9
:102E300031968EE78083A52DA10FA09399038091F1
:102E4000C10080628093C10072CEC601B4CFED8113
:102E5000FE8189CFD8014D915C913A01550F8808C8
:102E600099080E5F1F4F1ACF0D811E810E191F0981
:102E700013E0100FCBCFCF93DF93CDB7DEB72997F9
:102E80000FB6F894DEBF0FBECDBF8BE993E09093F1
:102E9000610280936002FFB6F8941092800001E016
:102EA00000938100E4E8F0E011821082808191813A
:102EB000C296909389008093880012E016BB8081AF
:102EC0009181C29690938B0080938A0084E086BBA8
:102ED00089E092E00E94363C06BB10936F00FFBE73
:102EE0009DE088E10FB6F894A895809360000FBE2E
:102EF0009093600080E4809360001093C00087E0AE
:102F000090E09093C5008093C40086E08093C20057
:102F100088EB8093C10084E497E09F938F930E9495
:102F200041150F900F90F89487E392E00E941F42A2
:102F30008C01892B19F478940E94D009F8940E948E
:102F40001A1EF62EE72ED82EC92EE2E2F2E0868176
:102F5000811101C0078382E292E022E0DC01169633
:102F60002C93169700E012E00D931C93EAE1F2E037
:102F70004481558166817781D80114964D935D9384
:102F80006D937C931797DC011396FC93EE93129745
:102F9000D801ED93FC9382E192E09183808380914C
:102FA000840090918500C296909389008093880058
:102FB00026BB10924F020E94B4268FEF898781E1D1
:102FC000B82E13C0F80143A14071648975898689C0
:102FD0000E94D922D80193968C91982F907184FDEC
:102FE0009B2DF80193A310A2178E63EB79E1CE011C
:102FF00009960E9452268C01892B21F78FEF888732
:1030000009C0DC0195961C921E92949760E0889608
:103010000E94A1276AEC7DE2CE0108960E9452260A
:10302000009779F78FEF8F8302C00E94FD2C6DE42B
:103030007CE2CE0107960E9452260097B1F78FEFEF
:103040008E831FEF0AC090911102828D981302C0E7
:1030500010931102868D8111D1C060E078E3CE011A
:1030600006960E945226FC01892B69F78FEF8D830B
:1030700011E004C0FC01258120FDDAC06AE277E39B
:10308000CE0105960E9452260097A1F78FEF8D83FF
:103090000CC09C012D5F3F4FDC0112964C911297A2
:1030A00060E08D919C910E94211F64EF7EE1CE0132
:1030B00005960E945226009761F78FEF8C8309E7EF
:1030C0001AE10BC02FB7F894992711969C938E9311
:1030D0002FBF13830283128A118A68E77BE1CE0136
:1030E00004960E945226FC01892B49F0878590891D
:1030F000A085B1852285222329F38C93EACF8FEF17
:103100008B8302C00E943F2563EE74E2CE010396DA
:103110000E9452260097B1F78FEF8A830FC0F80103
:1031200064857585868540E00E94D922D8011F9666
:103130006D917D918C9140E00E94D92260E176E30F
:10314000CE0102960E9452268C01892B41F78FEF07
:1031500089832FC0F80161857285838540E00E94D4
:10316000D922D8011C966D917D918C9140E00E94EE
:10317000D922F80167857089818940E00E94D922AF
:10318000D80152966D917D918C9140E00E94D92298
:10319000F80165897689878940E00E94D922D801A3
:1031A00058966D917D918C9140E00E94D922F80152
:1031B000108669E97DE3CE0101960E9452268C01BA
:1031C000892B41F689E092E00E94363CE2E2F2E08F
:1031D00081E08683789487811F928F93CF92DF92CC
:1031E000EF92FF9288E397E09F938F930E9441159F
:1031F0000FB6F894DEBF0FBECDBF9DCE8F5F858F1B
:10320000408951896289738980859185A285B385BA
:10321000840F951FA61FB71F808B918BA28BB38B3A
:1032200084839583A683B783CF010E94363C15CF54
:1032300023FB442740F941276281738184810E94E6
:10324000D9221CCF8F929F92AF92BF92FF920F9381
:103250001F93CF93DF938C0163EB79E1FC018081B5
:103260000E949C26EC010E94E43B8F8D98A1892B43
:1032700009F058C0F80104811BA1FF24F394002336
:1032800039F16C897D898E894F2D0E94D92221E0E8
:1032900001111CC014FB882780F991E089272817A9
:1032A00041F08F89988DA98DBA8D892B8A2B8B2B14
:1032B00089F410711F291BA3DF91CF911F910F91EA
:1032C000FF90BF90AF909F908F90089520E0E2CF45
:1032D000F12CD7CF0E941A1E8F88988CA98CBA8C9B
:1032E000DC01CB01880D991DAA1DBB1D888B998B14
:1032F000AA8BBB8B8C839D83AE83BF8388ED99E2C1
:103300009B838A83107114601F291BA3CE01DF9158
:10331000CF911F910F91FF90BF90AF909F908F9092
:103320000C94363C82E10E943A15CF93DF93EC0176
:1033300063EB79E188810E949C26F894FC01278D3B
:1033400030A1232B69F44C815D816E817F81FC016A
:10335000438F548F658F768F7894DF91CF91089546
:1033600084E10E943A15CF92DF92EF92CF93DF93E0
:10337000EC0161E088859985AA85BB85892B8A2B1C
:103380008B2B09F460E08C810E94C31C6B01E82E3A
:1033900044E250E063EB79E188810E947626FC01EB
:1033A000C48AD58AE68A21E0488559856A857B8565
:1033B000452B462B472B09F420E04C855D856E8517
:1033C0007F85452B462B472BB1F430E0232BFC01A6
:1033D00023A3488959896A897B89478B508F618FDC
:1033E000728F6AE070E04F96DF91CF91EF90DF909F
:1033F000CF900C94FE2630E1E9CFCF92DF92EF928E
:10340000FF920F931F93CF93DF938C0163EB79E1CE
:10341000DC018C910E949C26EC010E94CE3EFC01B6
:10342000D8011496CD90DD90ED90FC901797C28254
:10343000D382E482F58218964D915D916D917C91D5
:103440001B974683578360877187F8941182108297
:103450008F8D98A1892B81F0A9A1BAA1ED93FC933E
:10346000FAA3E9A37894DF91CF911F910F91FF9078
:10347000EF90DF90CF900895FAA3E9A3F8A3EF8F20
:103480008BA182FD25C0C88AD98AEA8AFB8A982F37
:1034900094609BA381FD10C0CE010E94E43BCC82CE
:1034A000DD82EE82FF8288ED99E29B838A83CE01E2
:1034B0000E94363C7894D7CF4C815D816E817F81AC
:1034C000872F4C155D056E058F0987FFE5CFF2CF7D
:1034D000488959896A897B89972F4C155D056E0546
:1034E0009F0997FFD0CF83E10E943A1581E20E94A5
:1034F0003A150F931F93CF93DF93FC01A189B289F3
:103500008D919C911197928B818B16968D919C91A8
:103510001797C085D185228521113FC02FB7F89418
:10352000AC015527598348832FBF20915002309119
:10353000510211963C932E93B0935102A0935002E6
:10354000A189B289109759F5278530898217930789
:1035500041F083859485A585B6850097A105B105C1
:1035600031F480E0DF91CF911F910F910895448154
:10357000558166817781840F951FA61FB71F8483AD
:103580009583A683B78386E79AE19383828381E05C
:10359000DF91CF911F910F9108958883C6CF129626
:1035A0004D915D916D917C9115972785308982179A
:1035B000930741F083859485A585B6850097A1057D
:1035C000B10551F4448355836683778381E0DF91AD
:1035D000CF911F910F910895048115812681378124
:1035E000800F911FA21FB31F2B2F84179507A607CB
:1035F000270B27FFE7CF80E20E943A15EF92FF9258
:103600000F931F93CF93DF937C0168E77BE1DC018D
:103610008C910E949C268C010E94CE3EEC01F70109
:1036200084819581A681B7818A839B83AC83BD8386
:10363000808591859F838E83F89419821882D801A2
:1036400051968D919C915297892BB9F15396ED919A
:10365000FC915497D183C0835496DC93CE935397B7
:1036600080E090E07894892B39F4DF91CF911F911D
:103670000F91FF90EF900895C8010E94E43BD8019C
:1036800012968D919C91139786579A41F1F08A81F9
:103690009B81AC81BD8129E73AE1F8013383228324
:1036A00084839583A683B783C801DF91CF911F914F
:1036B0000F91FF90EF900C94363CF801D48BC38BA4
:1036C000D28BC18B81E090E0CDCF8A819B81AC8190
:1036D000BD81F8014481558166817781272F481784
:1036E00059076A072B0B27FFD6CF80E20E943A15B5
:1036F000CF92DF92EF92CF93DF93EC01488559850B
:103700006A857B852C858C810E94A5286B01E82E1B
:1037100045E150E068E77BE188810E947626FC0164
:10372000C086D186E28688899989908B87878C8923
:103730009D89AE89BF8983879487A587B68789E7E6
:103740009AE19383828368E070E0CF014196DF9134
:10375000CF91EF90DF90CF900C94FE26CF93DF9324
:10376000EC016A8D662309F453C0FC0150E031E09E
:1037700020E0A38DB48D4C91958D942309F0532BAB
:103780002F5F330F33962613F4CF2C85922F952776
:1037900029F08D85852780959823D9F4888D5D87BC
:1037A00087FD03C0815070F1888F4C815D816E81EF
:1037B0007F8188859985AA85BB85840F951FA61F63
:1037C000B71F8C839D83AE83BF8381E0DF91CF9150
:1037D0000895982F909529238523822B8C879E8589
:1037E0009830E0F621E0290F2E87FE01E90FF11D48
:1037F00087871092260281E0809352028FEF888F94
:103800005D87D3CF1092260291E090935202CCCFE5
:1038100050E0BBCF0F931F93CF93DF938C0167E4EE
:103820007CE1FC0180810E949C26EC010E94E43B2B
:10383000F80184819581A681B7818C839D83AE83B5
:10384000BF834085518562857385488759876A871C
:103850007B8780898D878C871E861F8A8EEF888F55
:103860008485898F87FD10C0452B462B472B29F473
:10387000DF91CF911F910F910895CE01DF91CF91EC
:103880001F910F910C94363C82E20E943A15CF931F
:10389000FC01C481C930B8F44C2F50E09A01220FCA
:1038A000331F420F531F455E5F4F67E47CE1FC010D
:1038B00080810E947626FC01C28F2EEA3BE1338391
:1038C0002283CF91089584E20E943A150F931F93AB
:1038D000CF93DF938C0167E47CE1DC018C910E9443
:1038E0009C26FC01D80114969C91828D9817B8F4FF
:1038F000292F30E0E901CC0FDD1F2C0F3D1FEF0118
:10390000C20FD31FF801648580850E94A0226B8FAF
:103910007C8F8D8FDF91CF911F910F91089583E25E
:103920000E943A15FC01448155816681778120858A
:1039300080810C94A528B0990FC08091530290917A
:103940005402019610920E0210920D0290931002F2
:1039500080930F0281E0089581E086BB809153023D
:10396000909154020196909354028093530220E068
:1039700030E830930E0220930D0290931002809352
:103980000F0281E00895803678F5E82FE695E695F8
:10399000E695F0E0EE0FFF1FE65BF84FA591B491BE
:1039A000109711F1877021E030E0A90102C0440FA7
:1039B000551F8A95E2F7CA013FB7F89412962C91E9
:1039C000129761110FC04095242312962C931297E1
:1039D00011962C911197282B11962C9311973FBF7C
:1039E000BD010895242BF1CF8FE20E943A151F925A
:1039F0000F920FB60F9211240BB60F92EF92FF9217
:103A00000F931F932F933F934F935F936F937F93E6
:103A10008F939F93AF93BF93CF93DF93EF93FF93D6
:103A20000DC07A0180918400909185008E199F09C4
:103A300097FD7CC07894B2999AC0F894C091220204
:103A4000D0912302EA81FB81309709F0ACC0EA8D66
:103A5000FB8D2C8D20838E859F85019709F4D2C024
:103A60009F878E8788859985AA85BB854C815D81D6
:103A70006E817F81480F591F6A1F7B1F4C835D83B6
:103A80006E837F8320832CA525FF0EC00C851D85AA
:103A9000012E000C220B330B800F911FA21FB31FAE
:103AA00088879987AA87BB87E881F9810481158176
:103AB00026813781872F401751076207830B87FDC7
:103AC000B0CF7801F0932302E0932202A091240268
:103AD000B091250214960D911D912D913C9117974F
:103AE000872F401751076207830B87FFFD01DF0116
:103AF0000190F081E02D0481158126813781872F87
:103B0000401751076207830B87FFF1CFF983E883E2
:103B1000CD93DC93D0932502C0932402809184003E
:103B2000909185008E199F0997FF84CF863A9F4F09
:103B30000CF07BC0F0928900E0928800FF91EF9139
:103B4000DF91CF91BF91AF919F918F917F916F91B5
:103B50005F914F913F912F911F910F91FF90EF90A7
:103B60000F900BBE0F900FBE0F901F901895F894FA
:103B700080918400909185009701281B390B203893
:103B8000314C0CF44BC02091270227FD29C09C0129
:103B90002854344F30938B0020938A0024E026BBB6
:103BA0007C01F394C7CFCE0119954C815D816E8164
:103BB0007F81811179CFE881F981E480F580F093EC
:103BC0002302E09322028091240290912502C817DB
:103BD000D90709F027CFF0932502E093240222CFE2
:103BE00020912602209327029C01205C304E3093C6
:103BF0008B0020938A0024E026BB90938900809359
:103C0000880010CFCE010E94202EEA8DFB8D9C8D66
:103C100090834C815D816E817F81CBCF2091280282
:103C20002111B1CF8DE20E943A157894B2999FCFBD
:103C3000F894F8CE2FB7F8946091840070918500C5
:103C40008091530290915402B09902C02FBF089501
:103C50002FBF7F3FE1F30196089578940E943B17B0
:103C60002FEF260F6623C1F0FC018FEF9FEF3191FC
:103C70008327082E8295807F8025092E982F829594
:103C80008F700826869598278927880F880F880FB8
:103C90008025215060F708958FEF9FEF08956F9270
:103CA0007F928F929F92AF92BF92CF92DF92EF92CC
:103CB000FF920F931F93FC0183818F9382818F93D7
:103CC000848135014601680E711C811C911CD40150
:103CD000C301BF93AF939F936F9281818F93808134
:103CE0008F931F930F93FF92EF925F934F933F93A6
:103CF0002F931F926F938AEB96E09F938F930E946E
:103D000041158DB79EB744960FB6F8949EBF0FBE6F
:103D10008DBF1F910F91FF90EF90DF90CF90BF90DC
:103D2000AF909F908F907F906F90089543E050E008
:103D300066E97EE1FC0180810C9476268F929F9249
:103D4000AF92BF92FF920F931F93CF93DF938C019B
:103D5000FC0184858F77F82E66E97EE180810E94E0
:103D60009C26EC01F80184819581A681B781892B7D
:103D70008A2B8B2BB1F58091BC0082FF10C08F2D58
:103D8000880F88838A8182608A83DF91CF911F9117
:103D90000F91FF90BF90AF909F908F900895F80182
:103DA00080849184A284B38461E089E10E94C31C71
:103DB00061E088E10E94C31C1092B900F0E88F1600
:103DC000FAE19F06F6E0AF06B10438F488E4809388
:103DD000B80084E08093BC00D2CF8CE08093B80020
:103DE000F8CF84E30E943A15CF92DF92FF920F93AF
:103DF0001F93CF93DF93EC016AE277E38C810E94FB
:103E00009C266C01F8840F2D10E0A8014D5F5F4FD8
:103E100064EF7EE188810E947626FC01D182C08217
:103E2000F2826C857D85A8010396DF91CF911F9169
:103E30000F91FF90DF90CF900C947C428BE10E9419
:103E40003A156F927F928F929F92AF92BF92CF92CC
:103E5000DF92EF92FF920F931F93CF93DF934C016A
:103E6000E62E142F6901DC0115967C901597872D9D
:103E7000867009F451C071FC39C0F40190818181D0
:103E80009CBD8DBDF72DF1706F2E70FCC8C0EE206B
:103E900009F49CC08FEF810F112351F0F60190813E
:103EA0009EBD0DB407FEFDCF9EB591938150B8F72E
:103EB000662091F1072D069506950695402F4095B1
:103EC0004170D40112966D917D918C91DF91CF91CB
:103ED0001F910F91FF90EF90DF90CF90BF90AF9028
:103EE0009F908F907F906F900C94D922ED91FC91D0
:103EF000418542706681778180850E94D922B72DE5
:103F0000B1706B2E70FC17C0D401CD91DC91AA2446
:103F1000AA94A10E111126C0DF91CF911F910F918C
:103F2000FF90EF90DF90CF90BF90AF909F908F90D9
:103F30007F906F900895072D069506950695402F62
:103F40004170F4016281738184810E94D922D4017D
:103F5000CD91DC91AA24AA94A10E112309F4AECF2D
:103F600066246394B12C8FEFA81AB80AAC0CBD1C60
:103F7000D601FC9008E010E0898580FF35C0EE8115
:103F8000FF81888580834F2D40786B817C818D8176
:103F90000E94D922FF0CEE81FF8188858083110F5A
:103FA000E881F98190818A81892391E009F490E088
:103FB000192B015009F7EE2011F0F6011083FFEFE5
:103FC000CF1ADF0AAC14BD0499F672CFF601960140
:103FD000210F311D2E173F0709F46ACF81918EBD45
:103FE0000DB407FEFDCFF6CF4F2D40786B817C815D
:103FF0008D810E94D922FF0CEE81FF81888580830C
:10400000110FE881F98190818A81892391E009F477
:1040100090E0192BEE81FF8188858083CACF73FAE7
:10402000442740F9F4016281738184810E94D9227E
:10403000662463942CCFCF93DF93EC016AE277E39D
:1040400088810E949C26288539854C8160E0DF911B
:10405000CF910C94211FFF920F931F93CF93DF9367
:10406000EC0118816AE277E3812F0E949C260C8183
:10407000F884C9852F2D3C2F402F61E00E94211F1D
:10408000CF93FF921F920F931F921F9380EF96E0A2
:104090009F938F930E9441158DB79EB708960FB6D8
:1040A000F8949EBF0FBE8DBFDF91CF911F910F91EE
:1040B000FF900895FC011092260281E08093550242
:1040C000818D8160818F4481558166817781808572
:1040D0009185A285B385840F951FA61FB71F848382
:1040E0009583A683B78381E008950F931F93CF93A1
:1040F000DF938C0167EB70E2FC0180810E949C26BB
:10410000EC010E94E43BF80184819581A681B7818E
:104110008C839D83AE83BF8380859185A285B38583
:1041200088879987AA87BB87892B8A2B8B2B29F4B1
:10413000DF91CF911F910F91089584859585A68574
:10414000B7858C879D87AE87BF8780899189A28933
:10415000B389888B998BAA8BBB8B84898E8B1F8AA2
:10416000CE01DF91CF911F910F910C94363CFF92BD
:104170000F931F93CF93DF93EC01F88483E08F15A7
:10418000E0F04AE150E067EB70E288810E94762619
:104190008C018AE590E2F801938382836AE277E3F7
:1041A0008C810E949C26F801958B848BF08EDF9188
:1041B000CF911F910F91FF90089589E20E943A15C7
:1041C000EF92FF920F931F93CF93DF938C0166E9D9
:1041D0007EE1FC0180810E949C267C018FE090E0C2
:1041E0000E94E23EEC0188E893E19E878D87F8010A
:1041F0008089880F8C8761E084810E94A0226E8371
:104200007F83888761E0F80184810E94C31C6883F2
:1042100079838A8361E0F80180850E94A022698702
:104220007A878B8761E0F80180850E94C31C6B83CD
:104230007C838D83F701D183C083828181608283F7
:10424000DF91CF911F910F91FF90EF9008958F9282
:104250009F92AF92BF92CF92EF920F931F93CF9303
:10426000DF93EC01480159011F92EF92BF92AF9288
:104270009F920F937F936F935F934F931F92CF9271
:104280008CEC96E09F938F930E9441158DB79EB75B
:104290000E960FB6F8949EBF0FBE8DBFE11009C0F9
:1042A0008C859D85AE85BF8588169906AA06BB06B6
:1042B00088F48F898F5F8F8B9E898917B0F4DF9187
:1042C000CF911F910F91EF90CF90BF90AF909F90A3
:1042D0008F90089588899989AA89BB89881599053D
:1042E000AA05BB0530F31F8AEACF8091280281110D
:1042F000FACF88E20E943A15CF92DF92EF92FF92B6
:10430000CF93DF93EC010E941A1E6B017C019E018A
:10431000A0E8BEE30E94054220E432E44FE050E012
:104320000E94DC41C20ED31EE12CF12C0E941A1E09
:104330006C157D058E059F05C8F3DF91CF91FF9029
:10434000EF90DF90CF900895CF93DF93EC016B81D6
:104350007C818D8140E00E94E8228D859E850E94AF
:104360007C216E817F81888541E00E948A228D8533
:104370009E850E947C2169857A858B8541E0DF914D
:10438000CF910C948A220F931F93CF93DF93EC016C
:10439000062F18E01DC06B817C818D8140E00E945A
:1043A000E822000F8D859E850E947C216E817F8191
:1043B000888541E00E948A228D859E850E947C210D
:1043C000688179818A8140E00E94E822115049F099
:1043D00007FFE1CF69857A858B8541E00E948A22BB
:1043E000E0CF69857A858B8541E00E948A228D85A0
:1043F0009E850E947C216E817F81888541E00E949C
:104400008A22E985FA8510818B8518238D859E8502
:104410000E947C21688179818A8140E00E94E822A3
:1044200069857A858B8541E00E948A2281E090E04F
:10443000111102C080E090E0DF91CF911F910F91A8
:1044400008951F93CF93DF93EC01162F8D859E85E2
:104450000E947C2169857A858B8541E00E948A22B1
:104460006E817F81888541E00E948A228D859E85AC
:104470000E947C216B817C818D8140E00E94E8223A
:104480008D859E850E947C21688179818A8140E0AA
:104490000E94E822612FCE010E94C3218130910544
:1044A00011F483E090E0DF91CF911F910895CF92B6
:1044B000DF92EF92FF926B017C0109C00E941A1EED
:1044C000292F6C157D058E052F0927FF09C08091C6
:1044D000BC0087FFF3CFFF90EF90DF90CF9008955F
:1044E00083E30E943A1524EA2093BC000E945722DD
:1044F0008091B90090E0A0E0B0E080319105A10585
:10450000B10521F00897A105B10509F4089582E3EA
:104510000E943A15FB012FB7F8949281141644F4C7
:10452000982B809592839181892381832FBF089551
:104530008095982392839181892381832FBF089549
:104540008036A0F567FD32C0E82FE695E695E69542
:10455000F0E0EE0FFF1FE65BF84FA591B4911097C6
:1045600029F1877021E030E0A90102C0440F551FF6
:104570008A95E2F7CA014FB7F89412963C911297C8
:10458000662381F0382B282F209512963C931297A2
:1045900011963C911197232311962C9311974FBF9D
:1045A000BD010895282F20953223EFCF8EE20E947F
:1045B0003A15FB012FB7F8949281411105C08095FF
:1045C000892382832FBF0895892B82832FBF08956B
:1045D000FB012FB7F8949281411109C0382F309513
:1045E000932392839181892B81832FBF0895982BE8
:1045F00092839181892B81832FBF0895CF92DF927F
:10460000EF92FF92CF93DF93FC01A085B185828565
:104610008C93968581E089278687C82FC170C688CC
:10462000D788E08CF18C97859F5FD1899D1708F022
:104630005FC0892F869586958695DF01A80FB11DED
:104640005A962C9130E0892F877002C035952795B6
:104650008A95E2F72170B701A601C217A9F033C00D
:10466000892F869586958695DF01A80FB11D5A96EC
:104670002C9130E0892F877002C0359527958A9557
:10468000E2F72170C2131FC04C0D5D1D6E1D7F1D12
:104690009F5F9D1728F383EF95E293838283848144
:1046A0009581A681B781480F591F6A1F7B1F4483DC
:1046B00055836683778381E0DF91CF91FF90EF9000
:1046C000DF90CF900895978784819581A681B781E7
:1046D000480F591F6A1F7B1F448355836683778366
:1046E00081E0DF91CF91FF90EF90DF90CF90089520
:1046F000B701A601D0CF6F927F928F92CF92DF92B7
:10470000EF92FF92CF93DF93EC0160E08C810E94E7
:10471000C31C3B01882EC884D984EA84FB84D7FC5F
:1047200024C0A601415F5F4F6BE773E288810E945E
:104730007626FC01608271828282D686C5868C854F
:104740009D859483838388899989AA89BB89818778
:104750009287A387B487DF91CF91FF90EF90DF908E
:10476000CF908F907F906F90089587E20E943A15C6
:10477000CF92DF92EF92FF920F931F93CF93DF932D
:10478000EC01E885F9858A8580830E941A1E3E85A2
:1047900021E023272E872F852F5F2F87213009F4D3
:1047A0005CC02530E0F40C811D812E813F814A8957
:1047B0005B896C897D89DB01CA01800F911FA21F73
:1047C000B31F8C839D83AE83BF8381E0DF91CF9144
:1047D0001F910F91FF90EF90DF90CF900895CC80C4
:1047E000DD80EE80FF80AB01BC014C195D096E09D4
:1047F0007F098E899F89A88DB98D481B590B6A0B3B
:104800007B0BDB01CA010296A11DB11DB7FD34C0AF
:10481000B595A79597958795B595A79597958795FC
:104820000A891B892C893D89800F911FA21FB31F04
:104830008E8B9F8BA88FB98F2EEF32E23B832A831A
:104840004C0D5D1D6E1D7F1D840F951FA61FB71F8C
:104850008C839D83AE83BF83B8CF0C811D812E8155
:104860003F81AB01BC01401B510B620B730B4E8BA4
:104870005F8B688F798F9BCFDB01CA010596A11DE5
:10488000B11DC6CFEF92FF920F931F93CF93DF938B
:104890007C0163EE74E2FC0180810E949C26EC01A5
:1048A0001E8511FF07C0DF91CF911F910F91FF90DF
:1048B000EF900895F701048160857185F4840B30D1
:1048C00008F045C0FAE0FF1508F441C0402F50E061
:1048D0004A960E947C421F86117312601E87802FA9
:1048E000880F880F880F898BFF0CFF0CFF0CF88A4C
:1048F000002349F08A8D8F738A3229F488EB93E282
:104900009B838A830CC08A899B89AC89BD898E8BE5
:104910009F8BA88FB98F8EEF92E29B838A83F89446
:104920000E941A1EDC01CB018058934FAF4FBF4F3E
:104930008C839D83AE83BF83CE010E94363C7894E6
:10494000DF91CF911F910F91FF90EF90089585E235
:104950000E943A150F931F93CF93DF938C0167E466
:104960007CE1DC018C910E949C26EC01D80114961C
:10497000EC918F898E0F8F8BF8948E85E817D0F489
:104980008E1BF0E03F96EC0FFD1FDE011F962FEF10
:10499000280F30E0205F3F4F2C0F3D1F91919D93DA
:1049A000A217B307D9F78E877894DF91CF911F9123
:1049B0000F9108951E868EEF888F7894DF91CF91A6
:1049C0001F910F9108957F928F929F92AF92BF9205
:1049D000CF92DF92EF92FF920F931F93CF93DF93CB
:1049E000EC0144E250E063EE74E288810E94762696
:1049F0008C0178848C809D80AE80BF80CC84DD84E7
:104A0000EE84FF8461E0711001C060E0882D0E9497
:104A1000A022F80163877487858761E08C2D0E944E
:104A2000C31CF80160877187828788899989AA8960
:104A3000BB89828B938BA48BB58B711018C091E0CE
:104A40008C149D04AE04BF04C1F080E0892BF801F2
:104A50008687DF91CF911F910F91FF90EF90DF90AC
:104A6000CF90BF90AF909F908F907F90089591E1ED
:104A70008C149D04AE04BF0441F780E2E7CFCF93CE
:104A8000DF93EC018E8585FD0DC0688579858A856B
:104A900041E00E94D9228E85807381608E87DF91EC
:104AA000CF910895688579858A8541E00E94E82242
:104AB0008E85807381608E87DF91CF910895CF932B
:104AC000DF93FC01A385B4855C918785982F97704F
:104AD00021E030E001C0220F9A95EAF7982F9695D1
:104AE00096959695DF01A90FB11D5A969C915A97FC
:104AF00045854523E1F0292B5A962C938F5F9089A9
:104B00008917E8F487874481558166817781868992
:104B10009789A08DB18D840F951FA61FB71F848321
:104B20009583A683B78381E0DF91CF910895209587
:104B300029235A962C938F5F9089891718F3EF01D8
:104B4000CF010E943F258E8588608E8710922602B5
:104B500081E08093560280E0DF91CF910895CF935A
:104B6000DF93FC01A385B4859C9185858923E9F0B9
:104B7000868584608687878591E0980F9787803443
:104B800008F5448155816681778186899789A08D52
:104B9000B18D840F951FA61FB71F84839583A683AD
:104BA000B78381E0DF91CF910895868582FFE3CFBF
:104BB00017868FE595E293838283CF01DF91CF91B2
:104BC0000C945F25EF01108ACF010E943F258E854E
:104BD00088608E871092260281E08093560280E0E2
:104BE000DF91CF9108951F93CF93DF93EC01188944
:104BF000112369F14E8545FD23C01F868FEA95E29A
:104C00009B838A838E899F89A88DB98D880F991F70
:104C1000AA1FBB1F880F991FAA1FBB1F4C815D8154
:104C20006E817F81840F951FA61FB71F8C839D8384
:104C3000AE83BF8311E0812FDF91CF911F91089543
:104C400040716B857C858D850E948A22D6CF0E941B
:104C50003F258E8588608E871092260281E08093A2
:104C60005602812FDF91CF911F910895CF9320910C
:104C7000580230915902232B91F4FC01C0818C2FF2
:104C800090E0880F991F880F991F0E94E23E909331
:104C9000590280935802C0935702CF9108958AE039
:104CA0000E943A15CF93DF93EC019881409157020F
:104CB000A0915802B09159020BC0FD0184E0989F69
:104CC000E00DF11D1124208131812617370741F0B5
:104CD0009F5F941790F380E090E0DF91CF9108956B
:104CE000988382819381DF91CF910895CF93DF9351
:104CF000909157028917E8F4C0915802D091590257
:104D000094E0899FC00DD11D112488819981892B40
:104D100081F48091650290916602892B51F4798328
:104D20006883CA010E94E23E9B838A83DF91CF9110
:104D300008958BE00E943A1590915702891788F4E4
:104D4000E0915802F091590294E0899FE00DF11D25
:104D50001124808191818617970719F482819381AC
:104D600008958CE00E943A15CF92DF92EF92FF9265
:104D7000CF93DF93C0916502D09166022097B9F17D
:104D800021976E01E12CF12CA0916402B0E02097F4
:104D9000D9F020E030E040E050E0BA0180916202BA
:104DA00090916302FC01E20FF31F4F5F5F4F6F4F63
:104DB0007F4F2A0F3B1F820F931F918380834C15D7
:104DC0005D056E057F0550F380916202909163024C
:104DD000CA9FF001CB9FF00DDA9FF00D1124E80F70
:104DE000F91F118210829093510280935002DF913B
:104DF000CF91FF90EF90DF90CF900895FC01138248
:104E00001282118210826F3F710509F07CF480914B
:104E1000650290916602892B49F48091640290E0CA
:104E20008617970714F46093640208950E94732B09
:104E3000FC01A085B1859C9182858923D1F0818D6B
:104E400080958170C9F4838D815031F1838F4481C5
:104E500055816681778187859089A189B289840F80
:104E6000951FA61FB71F84839583A683B78381E010
:104E70000895818D817039F383E597E2938382836E
:104E800083899489A589B68984839583A683B7830A
:104E9000828D838F81E00895648D8789908D0E9433
:104EA0004E2D80E008950F931F93FC01A085B185DE
:104EB0009C910481158126813781438554856585C0
:104EC0007685400F511F621F731F8285892361F011
:104ED000818D8095817059F04483558366837783F3
:104EE00081E01F910F910895818D8170A9F7438B07
:104EF000548B658B768B88E197E293838283CF0115
:104F00001F910F910C941827CF93DF93EC016AEC5B
:104F10007DE288810E949C26FC018C819D81AE816E
:104F2000BF81892B8A2B8B2B51F420E0F89494A518
:104F30009D7F922B94A77894DF91CF91089522E0E2
:104F4000F5CF0F931F93CF93DF938C01EC01A897BC
:104F5000CE010E94E43B1C821D821E821F821A8A9F
:104F60001B8A1C8A1D8A88A199A1AAA1BBA12CA574
:104F70004E855F856889798924FD04C0769567959B
:104F800057954795841B950BA60BB70BB7FD40C0F3
:104F9000B095A095909581959F4FAF4FBF4F88A337
:104FA00099A3AAA3BBA31E861F86188A198A2471F7
:104FB00028602CA76D8D7E8D8F8D40E00E94D922B8
:104FC0004CA544706A8D7B8D8C8D0E94D922D801AE
:104FD0001497ED91FC9111973097A9F040915002F0
:104FE0009091510201C0F901208131814083918368
:104FF000F0935102E09350024E2F9F2F211531055F
:1050000091F71D921C92DF91CF911F910F910895FE
:10501000B095A095909581959F4FAF4FBF4FB8CF5A
:105020000F931F93CF93DF938C016AEC7DE2FC0119
:1050300080810E949C26EC016DE47CE2F801848171
:105040000E949C26BE01685D7F4F4FB7F8942AA549
:105050003BA5232B89F421EA37E23BA72AA7FC01D1
:105060002489358939A728A7758B648B4FBFDF91B9
:10507000CF911F910F91089589E10E943A15CF9326
:10508000DF93EC016AEC7DE288810E949C26FC01A2
:105090008C819D81AE81BF81F8944685578560895A
:1050A0007189452B462B472B79F484839583A683FE
:1050B000B783828B938BA48BB58B84A5877F84A7C2
:1050C0007894DF91CF91089586E10E943A15CF93AD
:1050D000FC01C0816AEC7DE28C2F0E949C26FC01C1
:1050E000F89480A191A1A2A1B3A124A546855785DA
:1050F0006089718924FD04C0769567955795479519
:10510000841B950BA60BB70BB7FF07C0B095A095F6
:10511000909581959F4FAF4FBF4F7894B054BF93F8
:10512000AF939F938F931F92CF9388E097E09F93C5
:105130008F930E9441158DB79EB708960FB6F894CD
:105140009EBF0FBE8DBFCF910895CF92DF92EF9299
:10515000FF921F93CF93DF936A017B0162E677E0B2
:10516000FB019491981749F0675F7F4FF7E0623F2A
:105170007F07B1F787E30E943A15FB0138969491B7
:1051800091FF1AC030EAC3163FE5D306E104F104EB
:1051900008F483C0C0E8CC16CEE7DC06C1E0EC061C
:1051A000F10408F090C0D0E4CD16DFEBDD06E10499
:1051B000F104C8F414E022C0F8EBCF16F7E4DF06E0
:1051C000E104F10490F0A0ECCA16AEE3DA06A1E027
:1051D000EA06F10408F475C0C114BBEFDB06B4E0C5
:1051E000EB06F10438F315E009C037EFC31638E0D9
:1051F000D306E104F10408F05FC011E0FB0133962F
:10520000A591B491FB013596C591D491FB013796D8
:105210003491E82FE695E695E695F0E0EE0FFF1F56
:10522000E65BF84F459154918770E1E0F0E07F0133
:1052300001C0EE0C8A95EAF7FB013196C590D49037
:10524000892F8170A038B10509F44BC0EFB7F894ED
:105250009881977011F0191341C0188381112EC0E5
:105260009FB7F894622F70E0E601798368839FBF4F
:105270009C913160392B3C93DA0111969C911197E6
:10528000E92A1196EC92EFBFB601DF91CF911F9101
:10529000FF90EF90DF90CF900895A8EDCA16A7E297
:1052A000DA06E104F10468F4B7EFCB16B8E0DB06E8
:1052B000E104F10408F4A1CF12E0A0CFE6012883B5
:1052C000D7CF13E09BCFC114EBEFDE06E4E0EE0690
:1052D000F10410F416E092CF17E090CF85E30E941E
:1052E0003A1586E30E943A150F931F93FC01A48997
:1052F000B58986898C9393A181E0892783A3448112
:1053000055816681778180FF12C0008511852285D5
:105310003385400F511F621F731F82FD12C04483EB
:1053200055836683778381E01F910F9108950485EB
:10533000158526853785400F511F621F731F82FF19
:10534000EECF0089118922893389872F40175107B1
:105350006207830B87FDE3CF88ED99E29383828315
:10536000B901A801448355836683778381E01F9147
:105370000F9108950895FC018081A481B581408535
:105380005185628573859FB7F894813061F08230D2
:1053900019F04C939FBF08954D935D936D937C934B
:1053A00013979FBF089511965C934E939FBF0895E6
:1053B0008F929F92AF92BF92CF92DF92EF92FF9225
:1053C0001F93CF93DF93EC01EF8CF8A0E114F1046D
:1053D00009F4F0C0F7018081918198A38F8F8680B6
:1053E0009780A084B18411E081149104A104B104D8
:1053F00009F4A1C06C897D898E89412F0E94D92230
:105400008091500290915102F70191838083F09234
:105410005102E092500281149104A104B104E9F018
:105420008B8D9C8DAD8DBE8D88169906AA06BB0608
:10543000A0F44F89588D698D7A8D4115510561050C
:10544000710509F45BC08C819D81AE81BF81480FDD
:10545000591F6A1F7B1F166022C08BA131E0811487
:105460009104A104B10409F068C084FB992790F964
:1054700021E09227391709F443C04F89588D698D6F
:105480007A8D4115510561057105D1F18C819D81A0
:10549000AE81BF81480F591F6A1F7B1F1460EF8DBB
:1054A000F8A1309709F077C02BA1488B598B6A8BF4
:1054B0007B8B2071212B2BA311FF5FC0880D991DC1
:1054C000AA1DBB1D12FD52C024E739E23B832A838B
:1054D0008C839D83AE83BF8388869986AA86BB868C
:1054E0008B8D9C8DAD8DBE8D88199909AA09BB093C
:1054F0008C879D87AE87BF8781E011C012608BA12A
:10550000EF8DF8A13097D9F4188A198A1A8A1B8A64
:105510008071812B8BA3812F827011FD34C0DF91AC
:10552000CF911F91FF90EF90DF90CF90BF90AF9001
:105530009F908F90089510E05DCF30E096CF42812C
:10554000538164817581488B598B6A8B7B8B807109
:10555000912F9460892B8BA311FF0FC08C819D81AB
:10556000AE81BF81880D991DAA1DBB1D2B2F8417ED
:105570009507A607270B27FDA7CF4C835D836E8376
:105580007F8381E0CCCF40E050E0BA018C819D81E7
:10559000AE81BF8193CFC280D380E480F580872F16
:1055A0004C155D056E058F0987FD07C08BA1B701FE
:1055B000A601C9CF85E10E943A1583E10E943A1500
:1055C000FC0185818F9384818F9380811F928F93BB
:1055D00084E197E09F938F930E9441150F900F9065
:1055E0000F900F900F900F900895DC012C9114965E
:1055F000ED91FC9115973FB7F8942130E9F02230F6
:10560000B1F0808190E0A0E0B0E03FBFBF93AF93E6
:105610009F938F938EE097E09F938F930E94411505
:105620000F900F900F900F900F900F900895808122
:105630009181A281B381E9CF80819181A0E0B0E026
:10564000E4CFCF92DF92EF92FF92FC014081518133
:10565000628173812481EDE2F3E185919591A591B9
:10566000B491481759076A077B0770F56A017B01F7
:10567000C20ED11CE11CF11C8C159D05AE05BF05A9
:1056800000F5841B90E09A012E50384F3F932F93E2
:105690009F938F937F936F935F934F9382E397E0F2
:1056A0009F938F930E9441158DB79EB70A960FB6B0
:1056B000F8949EBF0FBE8DBFFF90EF90DF90CF900C
:1056C0000895822F90E0DFCF80E090E0DCCF8091E2
:1056D0002802882329F0823011F0109228020895C0
:1056E00082E00E943A158EE00E943A15FC018689FC
:1056F0008460868B1092260281E080935A02448156
:1057000055816681778180899189A289B389840FC7
:10571000951FA61FB71F84839583A683B78381E057
:105720000895FC0180917A0086FF0EC084819581E6
:10573000A681B7818853984FAF4FBF4F848395831D
:10574000A683B78381E00895828D90911102981706
:1057500081F09F3F59F780931102982F9870909392
:105760007B008770806480937C0087ED80937A0053
:10577000DDCF8FEF80931102209178003091790076
:10578000858D968D891780F544895589240F351F9D
:105790008F5F358B248B858F891760F18689978978
:1057A00028173907C8F1808D918D82179307A0F1D2
:1057B000138E1092260281E080935B02408951890A
:1057C0006289738980859185A285B385840F951F31
:1057D000A61FB71F808B918BA28BB38B848395837D
:1057E000A683B78381E0089581E0358B248B858F74
:1057F0008917A0F6448155816681778184859585D6
:10580000A685B785840F951FA61FB71F8483958330
:10581000A683B78381E00895838D8F5F838F948DF6
:10582000891738F2809128028111C2CF8AE10E9443
:105830003A15CF93FC01C08163EE7CE28C2F0E946D
:105840009C26FC01F894818D3389448955896689A9
:105850007894A085B1852C919285922321E009F45A
:1058600020E01F922F936F935F934F933F93869502
:1058700081701F928F931F92CF9382E097E09F9346
:105880008F930E9441158DB79EB70C960FB6F89472
:105890009EBF0FBE8DBFCF91089549E150E06DE4EA
:1058A0007CE2FC0180810E94762626E73BE2FC0137
:1058B000338322832EEB3DE2338722870895EF92D4
:1058C000FF920F931F93CF93DF938C016DE47CE2E3
:1058D000FC0180810E949C26EC01F8948E8980FF57
:1058E00013C07E01F8E0EF0EF11CC7010E94E43BFB
:1058F000F80184819581A681B7818C879D87AE87C9
:10590000BF87C7010E94363C7894DF91CF911F91E9
:105910000F91FF90EF9008950F931F93CF93DF9314
:105920008C0163EE7CE2FC0180810E949C26EC01EC
:105930000E94E43BF80184819581A681B7818C8324
:105940009D83AE83BF8380859185A285B3858F8734
:10595000988BA98BBA8B84858A8F882361F1F80193
:1059600040895189628973894B875C876D877E87FF
:1059700023E537E23B832A838B8F84899589A68927
:10598000B789892B8A2B8B2BA1F482E0898F6DE458
:105990007CE2F801808D0E949C26988F8F8BF80105
:1059A000848D8C8FCE01DF91CF911F910F910C943C
:1059B000363C83E0EBCF188E1F8A198EDF91CF9192
:1059C0001F910F9108950F931F93CF93DF93EC01D5
:1059D0004DE150E063EE7CE288810E9476268C01E6
:1059E00068858C810E94A022F80160877187828778
:1059F000DF91CF911F910F910895CF93DF93EC0129
:105A00000E94E43BCE0108960E94E43BEC89FD89AC
:105A1000309751F09081818113821282118210821D
:105A2000E92FF82F3097B1F71D8A1C8A188E1F8A2C
:105A30001E8ADF91CF9108950F931F93CF93DF9329
:105A40008C016DE47CE2FC0180810E949C26EC01CB
:105A5000F8940E94FD2C81E08E8BF8018481958161
:105A6000A681B7818C839D83AE83BF83808591851A
:105A7000A285B385888B998BAA8BBB8B892B8A2BAC
:105A80008B2B19F0CE010E94363CF8018485888F5B
:105A90007894DF91CF911F910F9108950F931F93E9
:105AA000CF93DF93EC010FB7F8949E8990FF25C048
:105AB000162F6F8B9A7F94609E8BAC89BD8910974F
:105AC000B9F01296ED91FC9113978D919C911197DD
:105AD0009D8B8C8B11961C921E9213961C921E927B
