:100000000C94FA0B0C94270C0C94270C0C94270CD2
:100010000C94270C0C94270C0C94270C0C94270C94
:100020000C94270C0C94270C0C94270C0C94270C84
:100030000C94374C0C94270C0C94270C0C94270C24
:100040000C94270C0C940F4E0C94270C0C94270C3A
:100050000C94270C0C94270C0C94270C0C94270C54
:100060000C94270C0C940E4C0C94E44B0C94270C21
:100070000C94270C0C94270C0C94270C0C94270C34
:100080000C94270C0C94270C0C94270C0C94270C24
:100090000C94270C0C94270C0C94270C0C94270C14
:1000A0000C94270C0C94270C0C94270C0C94270C04
:1000B0000C94270C0C94270C0C94270C0C94270CF4
:1000C0000C94270C0C94270C0C94270C0C94270CE4
:1000D0000C94270C0C94270C0C94270C0C94270CD4
:1000E0000C94270C0C94824F0C9470460C94E340B3
:1000F0000C94083B0C941F480C9462320C94F54A03
:100100000C9448380C94783D0C94B70F0C94E3127F
:100110000C9496150C947A360C9475430C94FB1C35
:100120000C949A1A0C94D64A0C94D4410C94CE1C7C
:100130000C94CB3F0C94D1490C94A94A0C942149BE
:100140000C94534B0C94F9130C9403320C94A13F70
:100150000C9457320C94801E0C94AB370C942C19D1
:100160000C941F3C0C94D93D0C94271B0C948C3799
:100170000C94AD1A0C94AD400C944C320C94DC1AD7
:100180000C9478320C94A3410C9466370C94F715B8
:100190000C945C3C0C943A3B0C9411160C94410D5D
:1001A0000C944C4A0C94210D0C94EC360C948E4B10
:1001B0000C9421140C9445150C94A8140C94F83349
:1001C0000C94A43C0C94E23B0C943A400C94734A7B
:1001D0000C94E5150C94CD190C9453490C94783A71
:1001E0000C94563F0C943E140C94233A0C943B11FF
:1001F0000C94761C0C942D1D0C9425500C94F346F5
:100200000C94C2160C94B1390C94B23A0C94831D20
:100210000C94B3370C943E360C9492490C94BF1155
:100220000C9400490C9406440C9431400C94BF4249
:100230000C94ED490C9483450C94BC380C940D1A25
:100240000C9400130C94C34A0C948A380C94C33158
:100250000C94440C0C94CA130C9462500C94764782
:100260000C94833C0C949E150C9454560C94A13C15
:100270000C94B54B0C94D8480C94E7350C94273D5E
:100280000C940B390C9427390C94CC480C948E4A5E
:100290000C9441320C9410330C9424420C940015AD
:1002A0000C94BB490C94230D0C948A0C0C94034AB7
:1002B0000C94753B0C945D4D0C94D2370C94E21960
:1002C0000C9465550C94BE0F0C94D7120C946D329F
:1002D0000C94244A0C94C4430C946F150C94811B09
:1002E0000C945B190C940D380C94AF130C94D1360C
:1002F0000C9423360C9487310C948F190C94531A58
:100300000C940D1E0C9466330C940B370C947242B3
:100310000C94EF370C9466350C9410130C94460D26
:100320000C94BB3B0C9495360C942A370C948B0C94
:100330000C94824D0C9443390C94F80F0C94290CB6
:100340000401010404010404040400000004040185
:100350000101010104040101040101040404040079
:100360000004040404040000000004040000000071
:100370000400000000000000040000000000040071
:100380000200000400040000040704040000040448
:10039000040000020200040002000002040700043E
:1003A0000004040000040004020204040404040025
:1003B0000004000404040404040400040002030410
:1003C0000004040004000400000400040000000015
:1003D00000000000000100020102CA030D1A020021
:1003E0000001000000D71203000001000000E3122A
:1003F00004000001000000531A0500000100000085
:100400009A1A06000100019216A8140700000100C4
:100410000000AD1A0800010001C903001509000021
:10042000010000008A0C0A000201018D16CD190B93
:1004300000030103C6038B0C0C00020102C403E29B
:10044000190D00020002CA03410D0E0002000279DC
:10045000160D1E0F00030003C603801E10000200CD
:1004600002C4033E141100050005BF03C2161200AA
:100470000200027916CA131300010001C9038F1983
:100480001400020002C403F91315000200027916D9
:1004900021141600040004BB03831D17000500058A
:1004A000B60311161800010001C9035B19190008F1
:1004B0000008AE032D1D1A00030003AB03F7151B44
:1004C000000200027916271B1C00020002C403CEA2
:1004D0001C1D000400047116FB1C1E00010001C954
:1004E00003E5151F000200027916AF132000090072
:1004F00009A203761C2100020002C4039E152200FB
:100500000400037B16451523000300027E1600132A
:1005100024000300027E162C192500040004751621
:1005200010132600010001C90396152700030003DC
:100530009F036F1528000400039C038345290004D2
:1005400000047516273D2A00010001C903AB372BB3
:1005500000030003990331402C0003000396033A83
:10056000402D000600069003AD402E0002000279E7
:10057000162A372F000500058B031F3C30000400AE
:100580000487165C3C31000200027916833C32007D
:100590000400038803CB3F33000500058303233A9F
:1005A0003400010001C903D93D3500040003681679
:1005B000A13F36000500057E03E23B37000400043E
:1005C00075168A3838000300039F03EF373900039C
:1005D00000027E16EC363A000300027E160B373B13
:1005E000000600067803B1393C000300027E160BBA
:1005F000393D000300027E1627393E0008000870CE
:100600000343393F000600067803E340400005003D
:10061000056B03563F41000600066503483842005B
:10062000030003AB03BB3B4300010001C903783D5A
:100630004400020002C403BF4245000200027916D2
:10064000D2374600010001C9031F484700020002DB
:10065000C403724248000400046103753B49000171
:100660000001C90376474A00020002C40324424B3A
:1006700000030003AB033A3B4C00010001C903F344
:10068000464D00020002C403D4414E00020002792C
:1006900016B3374F00010001C90370465000020035
:1006A00002C403A341510002000279168C375200A4
:1006B000010001C90395365300020002C403BC388F
:1006C00054000200027916D13655000400045D037F
:1006D000083B5600010001C9033E365700020002E4
:1006E000C403B23A580002000279167A365900045F
:1006F00000045D03783A5A00010001C903E7355B45
:1007000000020002C4030D385C00020002791623C7
:10071000365D00030003651666375E00010001C9FF
:100720000365555F00020002C403625060000200CE
:100730000279168E4A6100050005B603824D6200FB
:10074000010001C90354566300020002C40325508E
:1007500064000200027916734A6500030003AB03CC
:100760005D4D66000200027916D64A67000300025A
:100770007E16824F68000400047116534B69000313
:100780000003AB03B54B6A00030003AB03ED496BF9
:10079000000500055803034A6C00040004540324B8
:1007A0004A6D000700074D034C4A6E0002000279B3
:1007B00016C34A6F00010001C90392497000070087
:1007C000074603F54A71000300034303BB49720067
:1007D0000300034003D14973000200027916A94ABD
:1007E00074000001000000CC487500000005000006
:1007F000000078DA9D5AE96EE338127E15AD81C1AA
:10080000EE2C925E4B3E93C5FC701C7777B6738DD1
:10081000ED74CF5E201489B685E8F0E8E8243BC883
:10082000BB6F1DBC24BB67801EA0C722592C92C57C
:100830003ABE2AE6B75EB8DFF7CE7B9FD264BF9799
:1008400065EFA4F7D824692CBECAB24A8ABC82A13B
:100850006D149D7B7FF9309FFFE84DDE0DDEF5BD09
:10086000C7246FEA24ADB0F7F6C1BB50CD1FBDE081
:100870005D307E17F4FD71DF0F46C02A2AB22CCC02
:100880006360F25B2F8C2B3F08FA22ACEB30DA89E5
:10089000BA4CB65B598A300FD362EB1549FCD30FC3
:1008A00091D7EE15DCDB3B3F0B4E68FEC0CFFA2F35
:1008B000DFC5E174802CD2B488C25A626FE5454529
:1008C00093D734388521264FF2EFE23EF0516C7514
:1008D0000DF21261F4A4A9ED0AC3B14310C79A60E6
:1008E0005F54F493E43FFDD078FB264D45B3E70910
:1008F000533BE1D74696AF86271CE109A94B59D552
:10090000A24EA2A78A5B7519E65596D442AFEA2596
:10091000395CA25A7F029791CAB014D5AEA9E3E21E
:1009200039EF9D07783FF926D90A75357A896A9F8C
:10093000A89379715887A29461FC2A7893701783E1
:10094000D63CBA922333A35D98E732C5CFBCC984A5
:100950006A56DF607A8A12345C5FD2C17074C8B3A1
:10096000773E3EB354FAC28C2C15AB81DDDF639623
:10097000802A6A82C7A612ED4F51BFEE25319E8CA8
:10098000EC2496BA9D854DE15CA5DD0375CAB2BD28
:1009900083D6358EC69618643C9858D5C04E92467C
:1009A000D1D44A0E5E15A54F462653BB509C6C937E
:1009B0003A4C05907616FB1AA68D243672133669CA
:1009C0002D4C4716BE88B829C31AAC98F8F913C342
:1009D0004F824DD6C5BEC52B6A6D3CB01BDFC5C36B
:1009E000E1646AC458567AB7527FC443F335325F24
:1009F00063F335315F320D5F8DCEC2755A15DCBDA4
:100A00004C7CA346DB10ECD051A06F8BC85E5B1210
:100A1000449E5693A1E59B4459D03F1B4E356B2015
:100A200033DA34B53A97C6913FF6836354A78E28DC
:100A30001499784EEA1DA85EFD7838C1C36EDE2099
:100A40004DB6424F932A889FFF581B3D2084D327E1
:100A50007B473DED81B27D73168CFAC7763A991AC1
:100A6000AA5C16FBE445A61D6D21CBAB92FF01D716
:100A70005D036EBC16A8258E13A9247481F0ED1DAC
:100A80008D8686E9FE393BA281D12B3816CB43E90E
:100A9000DFAEE96A24F41CA8E4D0DE5F555462930B
:100AA000A48E392175252324AE5898BE3D20788523
:100AB000EE3ED0F5D6C9572976C976C76EF9CCA5D2
:100AC0000797B14DE5115765C6ACC04F83416BAA7E
:100AD000F69AC766AB21915560CF7F85583718B617
:100AE000E6A2B2A002479551D08173907A72665DFA
:100AF0006F541DD173AF02E5D09FAF7924DA76E44D
:100B000045592CBAA635728E5E4B8CEC66EBD054F0
:100B1000FAE9C549A93F395810B1A56AD24A3A4CF9
:100B20001DA1D43B59660538C0FD5191BAC356AAE0
:100B3000636B49751635616974A97C1107DED3AB07
:100B40004D276A6A9D64928F66CDF67890B6AA6446
:100B50008DD877B65EA210ED5DF461847CF3778565
:100B6000FE295C652C1F1BB0B90270D4996EC1CEF2
:100B7000B7646FAC137E5F0F60E0F38A3296257224
:100B8000053050B2770E34C17399D4F280020D8BC8
:100B900009E1F83293E556E6D1AB40370E67802E77
:100BA00076E9625764F2002B5461B6778D54B50D27
:100BB00052686309D8BA0D232C2DD111021CA22A28
:100BC000D8C50523BB382115D853584B23DF00ACBB
:100BD000619380D0C0ED08BE022F2A230E0027BDEE
:100BE0002D781CDA275CAC6A110DB8336E367BBCED
:100BF00079F015273D1589C02BE4B100AD37411AB6
:100C0000BF59CE63BF438657E039684691C17550DE
:100C1000C8F9BE3B87BDA0E3456F09CEDBF5C5D063
:100C2000244F0A12C05FBC3C59B1F50C7D3BAB7A36
:100C3000762782AD1BFB8E43C7121CEB6BB11AAB40
:100C40000D10E6DB58DB26D5C1137AA8652295CABC
:100C5000CDC2699358E675B2011CB9D9C00EC86FF0
:100C6000184C033BD3A1EDBBC0750046A0430E89D1
:100C7000DDDCFE2870469A7D6C3583C1EFAE716E67
:100C800065047ACC2AD441A42DFD0423F33B74A43B
:100C9000728DF5AF677D97A00551BBAC46079407F1
:100CA000CC8696A4854C3BACC6D30E5D97D17862BA
:100CB00008BAE0F53B2DF5F1B5961031C820F705DF
:100CC000617D2FB3D6AB42AE6D81BA6C81D94E46F1
:100CD0004F0EA2C5D488F7D506CC9DF34D866DB2D4
:100CE000EEF126E6F63AB8D81C6E5F806FEF1ECDA7
:100CF0008959E62EDA58B9B38FE9A44DD6DDC77409
:100D0000ACC75BA0B2CB65D0A23A606264D245901A
:100D10005D3EFD2EE1815CCE3445076576389D064B
:100D200096B00515BBF7E0B7C90ED6333BEA60C5F0
:100D30002E9F4987EE809111E4017AFA46168A9E29
:100D40001AB052B2A9955F302AC3AC3B12C0BCCFD7
:100D50006CF618A2F8C6328E8AB7349C1B806420C9
:100D6000D8C48E828F59B11A792C91326B142EEC23
:100D7000F5CD940EEA35E4C6AAC0BF0E3531C226C1
:100D8000CF2602B2E4A8AD5DED8EDC38FC2610174C
:100D900041C30870233AD1DFC480E36177419801F1
:100DA000B2421AF7109D3410363E3820A223104C60
:100DB000373C5B981D268D79522E5FD41600199A08
:100DC000A899941CC87D26D202F903FC0F62C1AD1C
:100DD000582C867319A16BCEB98BEF414672B311B3
:100DE0009B3284289AD40AF2A3943A3C3880892A08
:100DF0000AED8174504B3CEA361F2D765ED8D485BF
:100E0000D0A4C4DD3FE0AE76644233374512BF283C
:100E100068D927E645E5ABDF40FD0ED4EF107EF143
:100E20004ACF0E593BB8E880318E316BFCF29909FC
:100E3000DDB8CD4E3AD1DE06CE53046194A7D8D8A2
:100E4000EB0C0FCC680BAF6097C22B59114B07B757
:100E5000C094899DD2062B5952151AA26445951C3F
:100E60004B5834BB6E02311E30D76F9F64809A4856
:100E700029D1EFA1BCD1B44D751CE48DF00C9CFCC4
:100E8000084492003812E76E41EDCF2C01E157740F
:100E9000010C712CE271E02FCC808555EAD292755D
:100EA0001B7831F281BBEBE025179BFF01AEF664A6
:100EB00059166EDBF89DACC8931A86AC37541DE00A
:100EC000FB388EA03577563E06CC4FB120D4A1C357
:100ED000EB2EC3674140C1C40DE8C8F06213FEC4E5
:100EE0007548C58747E71F48B045A18B1CBA5BF919
:100EF0000BE237427E2416E203C1E488E30547345F
:100F0000B574B59B441206124ED0A0B611947CD98C
:100F100027A56CE52E67865367D72E11888991EB3C
:100F2000B1F0E178DEE19BCE31B1DE3DBB9C8B9B25
:100F3000D92F98FA61DE7CF1B012F757B72B8CA548
:100F4000BDF3DEFDC5E0E4FE22807F7ECF19AC9FBD
:100F500069F0B27F727F8903F3EBBBF927F17EB9A9
:100F6000F8199D749FFE3BE9DDCC1F802AAC33B994
:100F70000D83D1B80F84F75F6E78B50051D472310C
:100F80005F5C7D5E882F57B797775F50D103EC5C2D
:100F90002D96D0C9BB906512A6B8D602D65AE05A93
:100FA000307A35BB1617B3874B64C34BADD6B3F558
:100FB0004AAC1E6E563FC3C86A812363EC5EDCDF19
:100FC0002F96E2EE7E7D7573F5AFC5A578B8C53E68
:100FD000CE35F428FE8A8BBBF547B1B8FC0053FD33
:100FE000374C151B485EA904649E05187693C69F6E
:100FF00063DF6A71BBBA5B8AC57209FF9F2FE794F2
:10100000A0B43AF12C6BD8CB1B56C96DF50C274315
:101010005E44F424E7FE9B49EE2DFBF9DDEDFBABCE
:101020000FE2F66E2D66F3F9E27EBDB8A4147AB92C
:10103000985D8AF5DDDD27FC9FB8BEBBFD4045729B
:101040002597CBD97A262E17AB7FDECE3F2EEF6EBB
:10105000AF56380B4FA4D23EE44CD7D7B77D0AF633
:10106000E0105E31C86A71F7B026AEB7B3F9273E1B
:10107000D77AB65C0B6E0E7493B6C27D6064AB0714
:10108000D8E66AC5AC75A266CF7315CC7977241BF8
:10109000E28E5D7875B0A8EA8495AE6E3FCFAEAFB4
:1010A0002E99394EE00559AECBC5FDDD726DC8698C
:1010B00025B70E890B5D5FAD824B5027B862F81CD7
:1010C0005C7E640180D3C7D1FB59BF77FEEFFEC9B8
:1010D000F4BFA08E17F83DE5EF397E8353A2C625F5
:1010E0003600175263810D483FA8F11E1B4335FFA0
:1010F000033514838FD8182906FFC0C644CDF944A0
:10110000CBA839D7D4C0396FADB0A9761FFA83C147
:1011100080361F56A3FE70129350B27A3CF5C72456
:1011200009FC0CC61589BC4EE5A8EF078FAC632AF5
:10113000522217A35678B5097AA032C921958B950A
:10114000CD7BE41B369C6AB1F398A5F4D8E1E92A7B
:1011500048CC286D1EE65E5ED48004E05FB101409D
:10116000F59C319AF2C86579CFBB04BED9F554DE3F
:101170001EC20DACC43050CF6D2A49A0BBF4BD4D8A
:10118000517AE005FEAEDB4985A331F55397AA8E6F
:10119000C0D43FD70843BD2AD9C286BC7A17D648E7
:1011A0001DAA6D3246E3C28E22AE90143D1E979F5B
:1011B000B897002BB1869DCADCD37546331FF470F7
:1011C000CE0F80DE3E2CC1E37050A3CA8E1E2825B0
:1011D00084A6AAA637B8F7219C37F6EAC2A3D08A1C
:1011E000157DF2EF1CC9DF737158E3B3248FE58BD3
:1011F0009786253A6D3842DEAA177395F0E32F984B
:10120000FFE16BC2DFD46B42EB763CFF74C84F63E7
:10121000602E9EB240361E8FCC50F7F96E1F5A8F4B
:101220001EE8F3C09A2315C7932B4E3F3C5B79D041
:101230006F5FEAD14715C0F98DCF509B8A4037A721
:10124000E7B7184DA75FA7EC7B1FE7160CF23495A4
:101250007A77A5929AED0332BC8830932048AEE6A7
:10126000EAC1AC0054AEEEC2C307020C6776D83CAC
:101270002798070476F407E3AAC263D61F38020151
:10128000F5F1D81631DDD1BD58C8D7413398B6FA3B
:1012900055CA892E484D1CF5DB04A080CDDE9EA9E1
:1012A000E207374DD1CA281D2EF83C7413BEA01E8C
:1012B0004CB54019F1DEC8AA0A4131641E0182D53D
:1012C000EA0A2C6F920A6DA98A76326E522CEDC210
:1012D00064CC963C050948B1E45789378159C5B7B4
:1012E00027ECC232265357D4F85A7083E2A70CD2A7
:1012F00083AF729316CF9C82DE828D871E1F079D5F
:101300000BB9DA516700AC9E07F03DCD1D48F23DA8
:10131000E7695C5AA3A11C776ABB87041D8CEDEFBB
:10132000CB620BC2CC60EB219E6D03201D7609C2FF
:1013300096E8B6B06CBA94EA5068AAE857601914F7
:10134000355C03DA3116FC5686E0403ADE7392A62D
:1013500080C422E0D77A0F62346E671A09FDCE0C82
:101360007CEA5D810FE23BA40D2045923599EED3D6
:10137000C6819845BFE1D043383023AF451ED87DA4
:10138000135F2937561785B709E9747C322C66AC90
:101390005D9542910121BD727179774DF2C099003E
:1013A000422B4951E521AF9A3D1AB2649746710428
:1013B0009F67BE8475B48B8B2D4BF14F9C1DD19FC5
:1013C0002840D46DF227608CFE901F6E9DFECA0EE1
:1013D0008CF10F17D046C06156E0E7D18201E2825E
:1013E000A7A9F87EF1B11A71082A3EADDED8DDF06A
:1013F000F39B1D65ABE16A86E945F36CCFB16F38AD
:101400001C008A3C8598F115B6143EA63A14188142
:101410009E1116F26AED213173C3EC30F53A8BC29E
:10142000D9E9AF324C14527FAB11F3DB4985D56B50
:1014300074E0AC7290DB930486261D23D744A2A7E8
:1014400098C06F6C47603BDE375B07BECBA960C5B9
:10145000B687E91D04F683B72B8CEC80AD07FE74CC
:101460003422FCA01A630210DC188F4879A0311EC8
:101470004FE07BF076901B59C07603F071AD90DAA7
:10148000DDE7C5F2FD358174B0ADD917B19CDD2221
:1014900056EE1B64B6BA5FCCAFDE5FCD8F3235E05F
:1014A000E6B112786A7C6602AB85F8113E896D4D13
:1014B0004BE08FFF06739FB4A3D51018D615D78BBA
:1014C000CF8B6B02F277B7AB9F5EFF93F710F945B6
:1014D000A050C0AE877FDFF3E1FEFAEBA04715AA6C
:1014E0003DB84AC9B8DDFCC14CABAC4115A4768D02
:1014F0004CE5EC7E7066FFA4A5352774AAD15CFE8E
:1015000050333018732DCC267FA746FF3C84A7E6C6
:10151000CF28F84909FBB4F251B102DCA930C53734
:10152000984D0FCE549DFEBD7DAB19EA43D8D57DB5
:101530008CB2FA1DAF02BB37CF72A7CE1B5C8B33C8
:1015400024FDE0FE0FD7705FD930F9E5A441CBB898
:10155000F3A6A4120955C5250A2D23DFBEED38B325
:10156000CD230F9743DE212DBE0259F1785D00ABEC
:101570002484D6665E6CD42175C1A889227A82A2A1
:101580003A23D81E2CE63E729E0EC950C113C19E4E
:10159000D3A75659A642709147B2F3E4E3234270B1
:1015A000E7B46AD0B6EAA16AC43A95E742A5CBF29D
:1015B000B1A15815F33B03005670464207D38ACFBA
:1015C000E6A34FA86C18D06F2EC7057176ACF676DF
:1015D00070416E89BA752F9376A9EB606297BE4F02
:1015E00029455913C63F45988DFBAAAC2E564DA6EA
:1015F0007EAA5F59E5A6B67CD5A96DF1E31A9510D0
:101600003B0EAD7DA347CC153F28A4A96B1EDB8AFA
:10161000D7E111B0D6C5DB1F1CD6828E5B017FB926
:101620003635ECBBF51C3B270A4D39EE788DCCE105
:101630001190B7A76484FFFCA3717DC6049C9FFA38
:101640008346F069C3B11F0DE5A0F7F67F5B24AFB9
:101650002F5F0E000028292A2B2C2D2E2F5051529F
:1016600053545556570404000402070400000200B6
:10167000020400000404000000040404040704073A
:101680000400070404040004040004040107040027
:10169000040200000000000000060002028C00109E
:1016A0000A0365168B00400A0368168A001E0D06A1
:1016B0006B168900400A0380168800150B0471160A
:1016C0008700180B04751686000B09027916850031
:1016D0004009027E168400400A037B168300400AFC
:1016E000037B1682004009027E168100400A0380B7
:1016F000168000120B0483167F00110A0487167EE1
:10170000000D08028B167D000B070192167C00402D
:1017100007018D167B00120A048E167A000B070152
:101720009216790010080293167800150903951691
:101730000000400802981677000E08029A167600FC
:101740000907019C16750006060000002000230012
:10175000260029002C002F003200000100000301A8
:10176000060109010F47004400450080013548008B
:101770004400450020010D88008000810080000E9B
:101780008A008000810020000F8C0080008100080A
:10179000000CB300B000B10080033EB400B000B153
:1017A000002003239800900091008000249A00906C
:1017B0000091002000259C009000910008003BA8AB
:1017C00000A000A10080003CAA00A000A100200011
:1017D0003DAC00A000A10008005B28012001210110
:1017E00080005C2A012001210120005D2C012001E4
:1017F0002101080011241FBECFEFD1E2DEBFCDBF13
:1018000000E00CBF14BE0FB6F894A895809160005C
:10181000886180936000109260000FBE12E0A0E02B
:10182000B2E0E4E6F0EB00E00BBF02C007900D92DF
:10183000A033B107D9F723E0A0E3B2E001C01D92C5
:10184000A53AB207E1F70E949E500C9430580C94D0
:101850000000FC0186898460868B1092260281E05C
:1018600080936C0284819581A681B78140895189DA
:1018700062897389840F951FA61FB71F8483958380
:10188000A683B78381E008950F931F93FC01A48979
:10189000B58986898C9393A181E0892783A34481AC
:1018A00055816681778190FD12C000851185228562
:1018B0003385400F511F621F731F82FD12C0448386
:1018C00055836683778381E01F910F910895048586
:1018D000158526853785400F511F621F731F82FFB4
:1018E000EECF0089118922893389872F401751074C
:1018F0006207830B87FDE3CF8FEB91E193838283B4
:10190000B901A801448355836683778381E01F91E1
:101910000F9108950895FC018081A481B5814085CF
:101920005185628573859FB7F894813061F082306C
:1019300019F04C939FBF08954D935D936D937C93E5
:1019400013979FBF089511965C934E939FBF089580
:101950000F931F93CF93DF938C01DB01FC019081E8
:10196000709156029F5F492F50E0440F551F440F5E
:10197000551F2091570230915802240F351F0BC07C
:10198000E9012C5F3F4FF9013497408151814A179B
:101990005B0751F09F5F971798F390E080E0DF912D
:1019A000CF911F910F910895F80190838A819B81B7
:1019B000DF91CF911F910F910895CF92DF92EF9217
:1019C000FF92CF93DF9360915E0270915F02611589
:1019D000710581F1615071096B01F12CE12CC0910D
:1019E0005B02D0915C0240915D0250E0611571058F
:1019F00091F0FE0180E090E0DC010196A11DB11D97
:101A00009A012E0F3F1F31832083F9018C159D050C
:101A1000AE05BF0590F3469FF001479FF00D569F1E
:101A2000F00D1124EC0FFD1F11821082D0936F0274
:101A3000C0936E02DF91CF91FF90EF90DF90CF9037
:101A4000089580E0089510922602E2E1F2E0848198
:101A50009581A681B781AC01BD015659674E7F4F74
:101A600044835583668377839659A74EBF478093F7
:101A70000E0290930F02A0931002B093110281E026
:101A80000895FC01648180810C94D74DFC01809104
:101A90007A0086FD08C0828D90910902981789F01E
:101AA0009F3F09F463C084819581A681B7818853E3
:101AB000984FAF4FBF4F84839583A683B78381E050
:101AC00008958FEF8093090220917800309179007A
:101AD000858D968D891790F544895589240F351F7A
:101AE0008F5F358B248B858F891770F18689978955
:101AF0002817390708F448C0808D918D8217930705
:101B000008F442C0138E1092260281E080936D0289
:101B100080899189A289B3894085518562857385C1
:101B2000840F951FA61FB71F808B918BA28BB38B41
:101B300084839583A683B78381E0089581E0358B04
:101B4000248B858F891790F684819581A681B78132
:101B50004485558566857785840F951FA61FB71F19
:101B600084839583A683B78381E0089580930902D7
:101B7000982F987090937B008770806480937C008E
:101B800087ED80937A008FCF838D8F5F838F948DC5
:101B9000891708F4B8CF809128028111B3CF8BE167
:101BA0000E9428102F923F924F925F926F927F92E5
:101BB0008F929F92AF92BF92CF92DF92EF92FF925D
:101BC0000F931F93CF93DF9300D000D0CDB7DEB734
:101BD000DC011596BC91B9835B2F567081F1032F00
:101BE000D22E142FC62E9B838A83B170BC83E981C9
:101BF000E1FD3EC0AA81BB819C9111968C919CBD58
:101C00008DBDBC81B11172C1CC2009F43EC111233C
:101C100009F4D4C0ED2DF02F1150AF014F5F5F4F8D
:101C2000410F511D80818EBD0DB407FEFDCF8EB5D5
:101C30008193E417F507B1F7EC81E111C3C0269653
:101C40000FB6F894DEBF0FBECDBFDF91CF911F91CD
:101C50000F91FF90EF90DF90CF90BF90AF909F904B
:101C60008F907F906F905F904F903F902F9008954E
:101C7000DC010D90BC91A02DBE83AD831D964C91CF
:101C80001D97427016966D917D918C910E94B54D75
:101C90000E943C4FED81FE8181849284A384B484B0
:101CA000680D791D8A1D9B1D0E944143FC81FF2305
:101CB00009F4FAC0F980F694F694F6944F2D417029
:101CC000AA81BB8112966D917D918C910E94B54D38
:101CD000EA81FB810190F081E02DFE83ED83818418
:101CE0009284A384B4842401350176946794579434
:101CF000479484189508A608B7080E943C4F640DC5
:101D0000751D861D971D2FEF210F112309F45EC04D
:101D1000ED2CF02EA7014F5F5F4F1A01220E311CF0
:101D2000D701DD907D01ED81FE81258508E010E081
:101D300020FF6EC00E944143AD81BE811696ED9199
:101D4000FC91179718968C91189780834D2D4078A9
:101D500013966D917D918C910E94B54D0E943C4FE0
:101D6000DD0C110F680D791D8A1D9B1D0E944143DA
:101D7000AD81BE811696ED91FC91179718968C91C6
:101D800018978083ED91FC911197808112969C9118
:101D9000892391E009F490E0192B0E943C4F640DD7
:101DA000751D861D971D015029F6CC2019F0F701ED
:101DB000319710832E143F0409F0B2CFEC81EE234B
:101DC00009F43DCFF980F694F694F6944F2D4095A2
:101DD0004170EA81FB8162817381848126960FB60E
:101DE000F894DEBF0FBECDBFDF91CF911F910F9151
:101DF000FF90EF90DF90CF90BF90AF909F908F902B
:101E00007F906F905F904F903F902F900C94B54DC6
:101E10000E9441434D2D4078ED81FE8163817481A4
:101E200085810E94B54DAD81BE811696ED91FC91E4
:101E3000179718968C9180830E943C4FDD0C110FF0
:101E4000680D791D8A1D9B1D0E944143AD81BE8195
:101E5000ED91FC911197808112969C91892391E0DC
:101E600009F490E0192BAD81BE811696ED91FC919D
:101E7000179718968C9180830E943C4F640D751DB6
:101E8000861D971D015021F690CFED2DF02FAF014B
:101E9000410F511D4E175F0709F490CF81918EBD00
:101EA0000DB407FEFDCFF6CFAA81BB810D90BC918A
:101EB000A02DBE83AD8319968D909D90AD90BC9062
:101EC0001C9724013501769467945794479484189D
:101ED0009508A608B7080E943C4F640D751D861D25
:101EE000971D2FEF210F111113CFA9CEB981B3FB8D
:101EF000442740F9EA81FB816281738184810E94D9
:101F0000B54D82CE0F931F93CF93DF93EC010FB7A4
:101F1000F8949E8990FF25C0162F6F8B9A7F94604E
:101F20009E8BAC89BD891097B9F01296ED91FC910A
:101F300013978D919C9111979D8B8C8B11961C9270
:101F40001E9213961C921E921297612FCD01199525
:101F5000AC89BD89109749F71092260281E08093E1
:101F60006C020FBFDF91CF911F910F9108950897D9
:101F7000FC01608D0E94820F80E00895FC01A08525
:101F8000B1859C91818D22859223C9F080958170C5
:101F9000C1F4838D815029F1838F84819581A6813D
:101FA000B7814785508961897289840F951FA61F63
:101FB000B71F84839583A683B78381E008958170DA
:101FC00041F388EF9FE09383828383899489A58975
:101FD000B68984839583A683B783828D838F81E0BE
:101FE0000895648D8789908D0E94820F80E0089506
:101FF0000F931F93FC01A085B1859C91448155816D
:10200000668177810385148525853685400F511FAC
:10201000621F731F818D2285922359F080958170F4
:1020200051F0448355836683778381E01F910F913C
:1020300008958170B1F7438B548B658B768B8EEB53
:102040009FE093838283CF011F910F910C94BE0F69
:10205000F894682F70E08DE392E00E94D3578CE1F2
:102060000E9428104F925F926F927F928F929F9260
:10207000AF92BF92CF92DF92EF92FF920F931F9396
:10208000CF93FC01A4A1B5A11097B1F416861786D1
:10209000108A118AC0E08C2FCF911F910F91FF9071
:1020A000EF90DF90CF90BF90AF909F908F907F90F8
:1020B0006F905F904F9008958D919C91119795A38B
:1020C00084A312964D915D916D917C911597189610
:1020D0000D911C91199716968D919C9117971A96B0
:1020E0002C911A97E0906E02F0906F021196FC927C
:1020F000EE92B0936F02A0936E02C0A0D1A0E2A0B6
:10210000F3A0C22FC17020FF08C0F094E094D094D7
:10211000C094C11CD11CE11CF11C30E020E0C00EB9
:10212000D11EE21EF31EC0A2D1A2E2A2F3A29587A5
:1021300084876C01092E000CEE08FF08C40ED51E22
:10214000E61EF71EC086D186E286F386A4A5C4806B
:10215000D580E680F780A5FD28C086849784A08876
:10216000B1884288538864887588440D551D661D62
:10217000771D428B538B648B758B448355836683A9
:1021800077839A2F9071A4FD04C0000F111F221FA6
:10219000331F06871787208B318B89288A288B2845
:1021A000F1F4C11114C0C1E076CF4C0D5D1D6E1D60
:1021B0007F1D448355836683778306871787208B2B
:1021C000318B892B49F0A064A4A7CC2361F3A58DA2
:1021D000B68D878D8C935FCFAF7BA4A7F6CF8F0191
:1021E000872F4C155D056E058F0987FD33C0CC2305
:1021F000D1F2911125C0D8015D96ED91FC915E97C9
:102200005F968C9180830E943C4FF801C688D788E6
:10221000E08CF18CDC01CB018C0D9D1DAE1DBF1D32
:10222000C480D580E680F7802F2DC816D906EA062F
:102230002B0B27FFB8CF84839583A683B7832BCF3F
:102240000E943C4F292F6C157D058E052F0927FD17
:10225000F7CFD1CF4C195D096E097F094038514C39
:102260006F4F7F4F2CF0C482D582E682F782BFCFBA
:1022700088E10E9428108F929F92AF92BF92CF92D6
:10228000DF92EF92FF920F931F93CF93DF93EC01B6
:10229000EA8DFB8D8C8D80830E943C4F0E891F89B7
:1022A000288D398DAB01BC01400F511F621F731F78
:1022B0008E859F85A889B9890197A109B10980FFF9
:1022C00019C02CA524FD1AC08E879F87A88BB98BB7
:1022D0004C835D836E837F8381E0DF91CF911F917B
:1022E0000F91FF90EF90DF90CF90BF90AF909F90B5
:1022F0008F9008950097A105B10571F188849984A4
:10230000AA84BB840A891B892C893D89080D191D63
:102310002A1D3B1D0A8B1B8B2C8B3D8BCC84DD84B3
:102320000D2C000CEE08FF08C80CD91CEA1CFB1C85
:10233000C886D986EA86FB86E32F04171507260789
:10234000E70BE7FDC1CF8E879F87A88BB98B0C83E6
:102350001D832E833F83C0CF4C835D836E837F8339
:10236000CE01DF91CF911F910F91FF90EF90DF9001
:10237000CF90BF90AF909F908F900C9432108F921F
:102380009F92AF92BF92CF92DF92EF92FF921F93F4
:10239000CF93DF93EC01EF8CF8A0E114F10409F482
:1023A00000C1F7018081918198A38F8F86809780EB
:1023B000A084B18411E081149104A104B10409F452
:1023C000B6C06C897D898E89412F0E94B54D809160
:1023D0006E0290916F02F70191838083F0926F02F9
:1023E000E0926E0281149104A104B10489F18B8DF5
:1023F0009C8DAD8DBE8D88169906AA06BB0640F54C
:102400004F89588D698D7A8D41155105610571058A
:1024100009F4BBC08C819D81AE81BF81480F591FDB
:102420006A1F7B1F1660EF8DF8A13097B9F1C2804B
:10243000D380E480F580872F4C155D056E058F09EC
:1024400087FDB2C08BA1912F9270B701A6017EC00B
:102450008BA121E081149104A104B10409F069C0A9
:1024600084FB992790F931E09327291709F442C09A
:102470004F89588D698D7A8D41155105610571051A
:10248000C9F18C819D81AE81BF81480F591F6A1FA0
:102490007B1F1460EF8DF8A1309749F62BA1488B74
:1024A000598B6A8B7B8B2071212B2BA3212F2470BE
:1024B00011FF65C0880D991DAA1DBB1D211158C0B3
:1024C00024E43CE03B832A838C839D83AE83BF83DB
:1024D00088869986AA86BB868B8D9C8DAD8DBE8D98
:1024E00088199909AA09BB098C879D87AE87BF8780
:1024F00081E011C090E0EF8DF8A1309719F5188AAE
:10250000198A1A8A1B8A8071812B8BA3212F247030
:1025100080E091113EC0DF91CF911F91FF90EF902D
:10252000DF90CF90BF90AF909F908F90089510E074
:1025300048CF20E084FB992790F931E093272913B5
:1025400097CFD8CF4281538164817581488B598B55
:102550006A8B7B8B80711460182B1BA3992379F0F5
:102560008C819D81AE81BF81880D991DAA1DBB1DE7
:102570002B2F84179507A607270B27FDA1CF4C8388
:102580005D836E837F8381E0C6CF12608BA192E072
:10259000B2CF40E050E0BA018C819D81AE81BF8115
:1025A00089CF85E10E94281083E10E942810809144
:1025B0002802882329F0823011F010922802089511
:1025C00082E00E94281088E00E9428109091560214
:1025D000891798F490E0880F991F880F991FE09150
:1025E0005702F0915802E80FF91F808191818617F8
:1025F000970719F48281938108958CE00E94281036
:10260000CF93DF93EC016FE675E188810E94E612BB
:10261000288539854C8160E0DF91CF910C94D20DF3
:102620008F929F92AF92BF92EF92FF920F931F9360
:10263000CF93DF937C016FE675E1FC0180810E94FE
:10264000E6128C01F701C085C43008F07FC0FC01A0
:10265000D581D67009F07AC0F70184849584A68468
:10266000B78484819581A681B781892B8A2B8B2B96
:1026700009F06EC0EEE4F7E1A591B49111968C914A
:1026800080FD04C060E088E00E94D74D60E089E0F2
:102690000E94D74D60E08AE00E94D74D60E08BE059
:1026A0000E94264D80E58CBD1DBC81E08114F2E1C5
:1026B0009F06FAE7AF06B10470F5811489E0980629
:1026C0008DE3A806B104E0F581E0D1E0E0E88E16E4
:1026D000E4E89E06EEE1AE06B104E8F480E0D1E065
:1026E000F0E48F16F2E49F06FFE0AF06B10498F421
:1026F00080E2881681EA980687E0A806B10418F5FA
:1027000080E0D3E0E0E98E16E0ED9E06E3E0AE0661
:10271000B10408F0D2E0CC0FCC0FC065CD2BF8018E
:10272000C0838183858184608583DF91CF911F91F0
:102730000F91FF90EF90BF90AF909F908F90089572
:1027400080E0D0E0E8CF81E0D2E0E5CF0E942F101A
:1027500088E30E9428106FE675E10C94E6120F934F
:102760001F93CF93DF938C016EE975E1FC018081AB
:102770000E94E612EC0169EA7AE4F80184810E9481
:10278000E612CF5ADF4F99838883DF91CF911F9153
:102790000F9108950F931F93CF93DF938C0161E105
:1027A00076E1FC0180810E94E612EC0165EE75E1A4
:1027B000F80184810E94E612BE01685D7F4F4FB729
:1027C000F8942AA53BA5232B89F421E83BE13BA7FC
:1027D0002AA7FC012489358939A728A7758B648B22
:1027E0004FBFDF91CF911F910F91089589E10E9412
:1027F0002810CF93DF93EC0161E176E188810E949C
:10280000E612FC018C819D81AE81BF81F8944685E2
:10281000578560897189452B462B472B79F4848332
:102820009583A683B783828B938BA48BB58B84A56A
:10283000877F84A77894DF91CF91089586E10E94E5
:102840002810CF93DF93EC0161E176E188810E944B
:10285000E612FC018C819D81AE81BF81892B8A2B80
:102860008B2B51F480E0F89494A59D7F982B94A72E
:102870007894DF91CF91089582E0F5CFCF93DF93E5
:10288000EC0162EC76E188810E94E612F894FC018A
:10289000278D30A1232B61F44C815D816E817F8176
:1028A000438F548F658F768F7894DF91CF91089501
:1028B00084E10E942810FC0113821282118210828E
:1028C00080915E0290915F02892B41F480915D02BC
:1028D0008617170614F460935D0208958EE00E9437
:1028E00028102FB7F89480916E0290916F02009794
:1028F00049F0FC014081518150936F0240936E0278
:102900002FBF08958FE00E942810CF93DF93C091CE
:102910005902D0915A02AE01480F591F2DB73EB748
:1029200021503F4F22273A952417350770F05093D6
:102930005A0240935902AC0170E060E0CE010E945F
:102940002958CE01DF91CF91089581E10E9428108E
:102950000F931F93CF93DF938C0180915E02909130
:102960005F02892B09F049C060915D0270E062301E
:1029700028F482E080935D0262E070E0E091590209
:10298000F0915A024DB75EB741505F4F44275A95B8
:102990009F01D0E0C0E0C901860F971F4817590773
:1029A00030F121969C01C115A4E0DA07A1F78E1B36
:1029B0009F0B0E948514D0935F02C0935E02909398
:1029C0005C0280935B020E94DD0CF80180819181A2
:1029D000A281B3818093600290936102A09362020E
:1029E000B0936302DF91CF911F910F910895C901B8
:1029F0002097E9F680E10E9428108DE00E942810BF
:102A0000CF932091570230915802232B91F4FC016F
:102A1000C0818C2F90E0880F991F880F991F0E940A
:102A200085149093580280935702C0935602CF9119
:102A300008958AE00E942810CF93DF939091560268
:102A4000891700F5282F30E0220F331F220F331F84
:102A5000C0915702D0915802C20FD31F888199812B
:102A6000892B81F480915E0290915F02892B51F451
:102A700079836883CA010E9485149B838A83DF91CE
:102A8000CF9108958BE00E942810CF92DF92FF92A1
:102A90000F931F93CF93DF93EC016FE675E18C8169
:102AA0000E94E6126C01F8840F2D10E0A8014D5F22
:102AB0005F4F65E475E188810E941C15FC01D1829D
:102AC000C082F2826C857D85A8010396DF91CF914B
:102AD0001F910F91FF90DF90CF900C940E58FF92B2
:102AE0000F931F93CF93DF938C0146E050E06FE686
:102AF00075E1FC0180810E941C15EC01F801F08455
:102B000061E0F11060E0F80184810E94D74D6A8392
:102B10007B838C838D8191E0F11099E0892B8D83EB
:102B2000DF91CF911F910F91FF90089546E050E003
:102B30006FE675E1FC0180810C941C15CF93DC01DC
:102B400014969C91149730E020E005C02F5F3F4F12
:102B500020313105B9F1C22FF901EB5AF94EE49158
:102B60009E13F4CF87E980937A002830E8F48091AF
:102B70007E0021E030E00C2E01C0220F0A94EAF71B
:102B8000822B80937E0043E550E06EE975E18C91E5
:102B90000E941C15FC0186E49DE093838283C28F12
:102BA00081E0858FCF91089580917D00922F97705D
:102BB00021E030E001C0220F9A95EAF7822B809342
:102BC0007D00E1CF87E30E94281049E150E065EEE7
:102BD00075E1FC0180810E941C1529E23CE0FC01AA
:102BE0003383228327EB3FE03387228708950F93B7
:102BF0001F93CF93DF93EC014DE150E067EF75E158
:102C000088810E941C158C0168858C810E94264D4C
:102C1000F801608771878287DF91CF911F910F91B3
:102C20000895EF92FF920F931F93CF93DF938C0140
:102C30004DE250E061E176E1FC0180810E941C15CB
:102C4000EC01F801848518160CF045C084E08CA7CF
:102C500064E084810E94D74D6A8F7B8F8C8F60E007
:102C6000F80180850E94D74D6D8F7E8F8F8F80E019
:102C700090E0A0E0B0EC88A399A3AAA3BBA3F801BD
:102C800080899189A289B3898E8B9F8BA88FB98FF8
:102C90006BE070E0CE0184960E945B148E899F8960
:102CA000A88DB98D8997A105B10558F08BE391E105
:102CB0009B838A83DF91CF911F910F91FF90EF90BB
:102CC00008958CA580638CA7DF91CF911F910F9100
:102CD000FF90EF9008957E01F4E2EF0EF11C811158
:102CE00028C06CA56470F80184810E94D74D6A8F5A
:102CF0007B8F8C8F60E0F80180850E94D74D6D8FAF
:102D00007E8F8F8F80E090E0A0E0B0EC88A399A345
:102D1000AAA3BBA3F80180899189A289B3898E8B6C
:102D20009F8BA88FB98F6BE070E0C7010E945B1486
:102D3000B5CF80E18CA760E0F80184810E94D74D77
:102D40006A8F7B8F8C8F60E0F80180850E94D74D61
:102D50006D8F7E8F8F8F80E090E0A0E0B0EC88A335
:102D600099A3AAA3BBA3F80180899189A289B389F9
:102D70008E8B9F8BA88FB98F6BE070E0C7010E948C
:102D80005B1494CFCF92DF92EF92CF93DF93EC015D
:102D900061E088859985AA85BB85892B8A2B8B2B39
:102DA00009F460E08C810E94D74D6B01E82E44E26B
:102DB00050E062EC76E188810E941C15FC01C48A17
:102DC000D58AE68A21E0488559856A857B85452B29
:102DD000462B472B09F420E04C855D856E857F8569
:102DE000452B462B472B09F02061FC0123A3488982
:102DF00059896A897B89478B508F618F728F6AE00E
:102E000070E04F96DF91CF91EF90DF90CF900C94D0
:102E10005B142F923F924F925F926F927F928F92AC
:102E20009F92AF92BF92CF92DF92EF92FF920F9359
:102E30001F93CF93DF9300D000D01F92CDB7DEB7A2
:102E4000809155028823C9F027960FB6F894DEBF0B
:102E50000FBECDBFDF91CF911F910F91FF90EF90EB
:102E6000DF90CF90BF90AF909F908F907F906F90AA
:102E70005F904F903F902F90089581E0809355028E
:102E80007E012FE1E20EF11C2091A4033091A303F7
:102E90003B83432F50E02317D0F40D8D1E8D0E5F22
:102EA0001F4FF8018491840F952F911D8136910554
:102EB0009CF1ED8DFE8D3396E491421B51094E0F2E
:102EC000511D4136510560F010925502BDCF109250
:102ED000A3031092A40350E040E01B8220E0DDCF6A
:102EE0001092A3036091A403FB81F61BFB83CF2EFA
:102EF000D12C70E06D5B7C4FA60183E493E00E94CF
:102F000017581092A4032B812093A3038091C10032
:102F100080628093C100A601CA018D5B9C4F9D8396
:102F20008C83F8010491102F063008F480C09C01B6
:102F30002E5F3F4FB0E62B2EFB812F1A021508F4AF
:102F40006DC1822D8550990B1C01220E331EED8D13
:102F5000FE8D34966491ED8DFE8D3596459054909E
:102F60008201ED8DFE8D859194918038910508F058
:102F700057C1D90111968F77F9018083460E511CF4
:102F80003101FFEF6F1A7F0A0415150509F445C0DA
:102F90009D012E5F3F4F2216330608F495CFF801AE
:102FA00084910F5F1F4F853009F469C008F490C009
:102FB000883008F04EC1F701C080D18046010D2C49
:102FC000000CAA08BB08A1014A1B5B0B052E000CD4
:102FD000660B770B84169506A606B70608F074CF25
:102FE0009D012F5F3F4F3A8329838C92470134E044
:102FF000830E911C62817381A601863009F4F8C0AA
:1030000089819A810E940E58A981BA81AC0DBD1D9B
:1030100074010415150509F0BBCF2A163B0608F408
:1030200053CF8C819D81A81BB90B13E01A0F11237C
:1030300009F44ACFAC81BD811C938091080211969E
:103040008C9311976DEF610FCD010E94A1502C81DF
:103050003D81210F311DF901339790833196808393
:10306000215031098EE7F9018083AB81A10FA09334
:10307000A3038091C10080628093C10025CFB70176
:103080006E5F7F4FF70120813181AD014F5F5F4F50
:10309000F90180818823A1F02416350688F02F5F7E
:1030A0003F4FFA0104C0FA014615570549F0AF0138
:1030B0004F5F5F4F8083F90181919F018111F3CFB1
:1030C000CA018A1B9B0B81508C937B01DA015CCF78
:1030D000F701823008F484C0819091907F01B12C77
:1030E000A12C833021F4092C000CAA08BB08FD0197
:1030F0003196FA83E983B501A401405E5F4F6F4FBB
:103100007F4F403851056105710508F45DC03F836C
:103110002E83B501A401505F6F4F7F4F411550447E
:103120006105710508F469C06D0183E0C80ED11C0A
:10313000B501A401685F7F4F4115510560427105DB
:1031400008F47EC09D012C5F3F4FB501A4017C5F58
:103150004115510561057041C8F0B501A401FCE1BC
:103160007695679557954795FA95D1F7642F6068DE
:103170006C93BD016B5F7F4FA981BA818E819F8166
:103180009A838983DF82CE8269019B01B501A40104
:10319000E5E17695679557954795EA95D1F7642FC0
:1031A00060686C93D90129813A81DA82C982B501BC
:1031B000A4019EE076956795579547959A95D1F726
:1031C0004068F90140831CC099818A81BA83A98330
:1031D000A92FB82F882D8F77E981FA818083D4CEEB
:1031E00080809180A280B380C70104967C017FCF4C
:1031F00089819A810E94F85707CFBF83AE83D90196
:10320000B501A40187E076956795579547958A950E
:10321000D1F74068EE81FF814083DCCF202E91CE34
:103220002C813D812D5F3F4FFC01EE0FEF2FEE1FF4
:10323000FF0BF195E068AC81BD811296EC9399CEBD
:10324000E981FA81FF83EE833A8329839D01D601C8
:10325000AECF86E00E942810FF920F931F93CF936A
:10326000DF93EC0118816FE675E1812F0E94E61271
:103270000C81F884C9852F2D3C2F402F61E00E94DE
:10328000D20DCF93FF921F920F931F921F9383EE45
:1032900096E19F938F930E9409178DB79EB708966A
:1032A0000FB6F8949EBF0FBE8DBFDF91CF911F91D7
:1032B0000F91FF900895CF93FC01C08167EF75E1F6
:1032C0008C2F0E94E612FC01F894818D3389448989
:1032D000558966897894A085B1859C912285922331
:1032E00021E009F420E01F922F936F935F934F9397
:1032F0003F93869581701F928F931F92CF9388EF93
:1033000096E19F938F930E9409178DB79EB70C96F5
:103310000FB6F8949EBF0FBE8DBFCF910895CF9387
:10332000FC01C08161E176E18C2F0E94E612FC0174
:10333000F89480A191A1A2A1B3A124A546855785A7
:103340006089718924FD04C07695679557954795E6
:10335000841B950BA60BB70BB7FF07C0B095A095C4
:10336000909581959F4FAF4FBF4F7894B054BF93C6
:10337000AF939F938F931F92CF938FEF96E19F937D
:103380008F930E9409178DB79EB708960FB6F894D1
:103390009EBF0FBE8DBFCF910895FC0185818F9395
:1033A00084818F9380811F928F938DE097E19F930B
:1033B0008F930E9409170F900F900F900F900F900E
:1033C0000F900895DC012C911496ED91FC913FB77C
:1033D000F8942130E9F02230B1F0808190E0B0E043
:1033E000A0E03FBFBF93AF939F938F9386E097E199
:1033F0009F938F930E9409170F900F900F900F903B
:103400000F900F90089580819181A281B381E9CFBF
:1034100080819181B0E0A0E0E4CFCF92DF92EF9283
:10342000FF92FC0140815181628173812481E1E539
:10343000F6E185919591A591B491481759076A07CE
:103440007B0770F56A017B01C20ED11CE11CF11CE7
:103450008C159D05AE05BF0500F5841B90E09A0113
:103460002E50384F3F932F939F938F937F936F935B
:103470005F934F9380E397E19F938F930E94091787
:103480008DB79EB70A960FB6F8949EBF0FBE8DBF3C
:10349000FF90EF90DF90CF900895822F90E0DFCFE4
:1034A00090E080E0DCCFCF92DF92EF92FF920F931B
:1034B0001F930E943C4F9F938F937F936F93C12CD8
:1034C000D12C7601C3940091680210916902209179
:1034D0006A0230916B02601771078207930718F038
:1034E000C12CD12C7601409164025091650260910B
:1034F000660270916702D701C601840F951FA61F4F
:10350000B71FBF93AF939F938F9382E297E19F93EF
:103510008F930E9409178DB79EB70A960FB6F8943D
:103520009EBF0FBE8DBF1F910F91FF90EF90DF9058
:10353000CF9008950E943C4F9F938F937F936F93FA
:103540008BE197E19F938F930E9409170F900F9043
:103550000F900F900F900F90089580915E029091C0
:103560005F029F938F9321E030912802311101C0B7
:1035700020E01F922F93209163022F9320916202EB
:103580002F93209161022F93209160022F9321E0CD
:10359000892B09F420E01F922F9384E197E19F93F8
:1035A0008F930E9409178DB79EB70C960FB6F894AB
:1035B0009EBF0FBE8DBF089584E00E9428100F9318
:1035C0001F934FB7F894E0912202F0912302E8177D
:1035D000F90729F420C028173907B9F0F90120812B
:1035E000318121153105B9F720912402309125024E
:1035F0002817390731F482E192E0909325028093F5
:1036000024024FBF1F910F910895DC012D913C9131
:1036100031832083E9CFDC0114960D911D912D910A
:103620003C91179700930402109305022093060221
:10363000309307022D913C913093010220930002B8
:1036400020E032E03093230220932202CDCFEF928C
:10365000FF921F93CF93DF937C01FC01108165EEF5
:1036600075E1812F0E94E612EC01F894F701648164
:103670000E94820FCE010E94DF1ACE0108960E949E
:10368000DF1A1E8A8F8978941F921F921F921F92B1
:103690001F928F931F921F921F921F9381EF96E1AB
:1036A0009F938F930E9409178DB79EB70C960FB604
:1036B000F8949EBF0FBE8DBFDF91CF911F91FF90F9
:1036C000EF900895CF93DF93EC010E94DF1ACE01B3
:1036D00008960E94DF1AEC89FD89309751F090819D
:1036E00081811382128211821082E92FF82F309784
:1036F000B1F71D8A1C8A188E1F8A1E8ADF91CF910E
:103700000895CF92DF92EF92FF920F931F93CF9382
:10371000DF938C01EC01A897CE010E94DF1A1C8276
:103720001D821E821F821A8A1B8A1C8A1D8A48A13A
:1037300059A16AA17BA18CA5CE84DF84E888F98891
:1037400084FD04C0F694E794D794C7944C195D099E
:103750006E097F09CC24DD247601C41AD50AE60A55
:10376000F70A77FD02C0B701A60148A359A36AA3CF
:103770007BA31E861F86188A198A847388608CA78B
:103780006D8D7E8D8F8D40E00E94B54D4CA544FF20
:1037900027C045FD25C0D8011497ED91FC911197E4
:1037A0003097A9F040916E0290916F0201C0F9012B
:1037B0002081318140839183F0936F02E0936E0208
:1037C0004E2F9F2F2115310591F71D921C92DF91ED
:1037D000CF911F910F91FF90EF90DF90CF900895C0
:1037E00044706A8D7B8D8C8D0E94B54DD4CFAF9285
:1037F000BF92CF92DF92EF92FF921F93CF93DF930E
:10380000DC011496CD90DD90ED90FC9017971FB7DA
:10381000F894C0912202D09123022F2D4C815D811A
:103820006E817F818F2DC416D506E606870B87FD36
:103830001FC0FE010990D881C02D4C815D816E8131
:103840007F81922FC416D506E606970B97FFF1CF1E
:103850001196DC93CE93B183A0831FBFDF91CF91EC
:103860001F91FF90EF90DF90CF90BF90AF900895A1
:103870005D010E943C4F2F2DC616D706E806290B86
:1038800027FD25C082E0C030D80741F1F501D18382
:10389000C083C0920402D0920502E0920602F09228
:1038A0000702B0920102A092000280E092E09093A1
:1038B0002302809322028091840090918500C29619
:1038C000909389008093880082E086BBC6CF809168
:1038D00028028111D7CF83E00E9428108091000236
:1038E00090910102F50191838083D3CF0F931F93B1
:1038F000CF93DF938C016EE975E1FC0180810E941A
:10390000E612EC010E94DF1A909109028A8D981349
:1039100003C08FEF80930902F80184819581A6810D
:10392000B781888B998BAA8BBB8B8C839D83AE834D
:10393000BF8380859185A285B3858C879D87AE875F
:10394000BF8784858E8F91E0980F9D8F4089518924
:1039500062897389488759876A877B8794899F8F93
:1039600018A2208D318D3F8B2E8B248D358D398F74
:10397000288F20A12C8F882349F0913360F4CE0149
:10398000DF91CF911F910F910C94F71BDF91CF9195
:103990001F910F9108958AE10E942810EF92FF92E3
:1039A0000F931F93CF93DF938C0165EE75E1FC01BC
:1039B00080810E94E612EC01F8948E8980FF13C08A
:1039C0007E01F8E0EF0EF11CC7010E94DF1AF8013A
:1039D00084819581A681B7818C879D87AE87BF87BB
:1039E000C7010E94F71B7894DF91CF911F910F912F
:1039F000FF90EF9008950F931F93CF93DF938C0167
:103A000065EE75E1FC0180810E94E612EC01F894FC
:103A10000E94621B81E08E8BF80184819581A681D2
:103A2000B7818C839D83AE83BF8380859185A2857A
:103A3000B385888B998BAA8BBB8B892B8A2B8B2B7D
:103A400019F0CE010E94F71BF8018485888F7894C5
:103A5000DF91CF911F910F9108950F931F93CF93F3
:103A6000DF938C0167EF75E1FC0180810E94E61213
:103A7000EC010E94DF1AF80184819581A681B7814B
:103A80008C839D83AE83BF8380859185A285B3851A
:103A90008F87988BA98BBA8B84858A8F882359F15D
:103AA00040895189628973894B875C876D877E87DE
:103AB00028EF3FE03B832A838B8F84899589A689F1
:103AC000B789892B8A2B8B2BA1F482E0898F65EE35
:103AD00075E1F801808D0E94E612988F8F8BF801B6
:103AE000848D8C8FCE01DF91CF911F910F910C941B
:103AF000F71B83E0EBCF188E1F8A198EDF91CF91D1
:103B00001F910F9108950F931F93CF93DF938C0113
:103B100061E176E1DC018C910E94E612EC010E94E9
:103B20007114FC01D80114964D915D916D917C91B9
:103B30001797428353836483758318968D919C9164
:103B4000199791878087892B09F464C01C968D9101
:103B50009C91978386831286F8948CA5282F2170D8
:103B600081FB992790F9291729F091E089279285FF
:103B7000916092874E855F8568897989452B462BB0
:103B8000472B59F583FD19C08CA7118210828CA197
:103B90009DA1892BD1F1AEA1BFA1ED93FC93FFA311
:103BA000EEA3CE010E943210CE010E94F71B789442
:103BB000DF91CF911F910F91089580916E029091A6
:103BC0006F0291838083F0936F02E0936E0278948A
:103BD000DF91CF911F910F9108958CA711821082D0
:103BE0008CA19DA1892B61F0AEA1BFA1ED93FC93A7
:103BF000FFA3EEA37894DF91CF911F910F910895C9
:103C0000FFA3EEA3FDA3ECA3D2CFFFA3EEA3FDA3DE
:103C1000ECA3C7CF87E10E9428108F929F92AF92AA
:103C2000BF92EF92FF920F931F93CF93DF938C017C
:103C300062EC76E1FC0180810E94E612EC010E94B8
:103C4000DF1A8F8D98A1892B09F057C0F801E48005
:103C50001BA101E0EE2049F16C897D898E89402FFE
:103C60000E94B54DF12FF071FF2E81E0E1101BC0D5
:103C70001295117091E01927811741F08F89988D65
:103C8000A98DBA8D892B8A2B8B2B89F40F290BA335
:103C9000DF91CF911F910F91FF90EF90BF90AF9068
:103CA0009F908F90089580E0E3CF00E0D5CF0E94F1
:103CB0003C4F8F88988CA98CBA8C860E971EA81EB4
:103CC000B91E888A998AAA8ABB8A8C829D82AE8212
:103CD000BF828FEB91E19B838A830460F02AFBA271
:103CE000CE01DF91CF911F910F91FF90EF90BF9088
:103CF000AF909F908F900C94F71B82E10E94281048
:103D0000CF92DF92EF92FF920F931F93CF93DF93A7
:103D10008C0162EC76E1DC018C910E94E612EC01F0
:103D20000E947114FC01D8011496CD90DD90ED90A5
:103D3000FC901797C282D382E482F58218964D9147
:103D40005D916D917C911B97468357836087718746
:103D5000F894118210828F8D98A1892B81F0A9A1EE
:103D6000BAA1ED93FC93FAA3E9A37894DF91CF91E4
:103D70001F910F91FF90EF90DF90CF900895FAA3DD
:103D8000E9A3F8A3EF8F8BA182FD25C0C88AD98A49
:103D9000EA8AFB8A982F94609BA381FD10C0CE0114
:103DA0000E94DF1ACC82DD82EE82FF828FEB91E1EE
:103DB0009B838A83CE010E94F71B7894D7CF4C81D6
:103DC0005D816E817F81872F4C155D056E058F09A2
:103DD00087FDF3CFE4CF488959896A897B89972F7A
:103DE0004C155D056E059F0997FFD0CF83E10E94BA
:103DF0002810CF93DF93CDB7DEB7CD54D1090FB6DE
:103E0000F894DEBF0FBECDBF0E943C4F28966CAF2A
:103E10007DAF8EAF9FAF2897809126028111F2C4AB
:103E200081E08093260280916C02882309F442C0CD
:103E300010926C028FEF89839E012F5F3F4F190113
:103E400001EF16E165EE75E1C1010E94A80C7C014D
:103E5000892B81F1D70156968C9182FFF3CF0E9476
:103E60003C4FF894F70137892689422F4B7F468BC8
:103E700078949F938F937F936F931F923F932170BA
:103E80001F922F9389811F928F931F930F930E94EC
:103E900009172DB73EB7245F3F4F0FB6F8943EBFCA
:103EA0000FBE2DBF65EE75E1C1010E94A80C7C011B
:103EB000892B81F680916D02882369F110926D0241
:103EC0008FEF8983AE014F5F5F4F1A014AEEC42E18
:103ED00046E1D42E6EE975E1C1010E94A80C8C0167
:103EE000892BC9F0D8015D969C915D975E968C9167
:103EF0005E979813EFCFF894F801858D968D89170A
:103F000009F4EDC478946EE975E1C1010E94A80C32
:103F10008C01892B39F780917002882321F110924E
:103F200070028FEF89839E012F5F3F4F190105EDCE
:103F300016E163E87CE3C1010E94A80C009799F0A8
:103F4000DC0158962C9158972F3F99F7F894FC0173
:103F50002685211179C4789463E87CE3C1010E942D
:103F6000A80C009769F7809171028823E1F1109203
:103F700071028FEF8983AE014F5F5F4F1A010EEC24
:103F800016E163E27AE3C1010E94A80CFC01892BCF
:103F900051F1868583FFF5CFF8948685877F8687E4
:103FA0007894CF014A969F938F93808986958695C2
:103FB00086951F928F9389811F928F931F930F93E2
:103FC0000E9409176DB77EB7685F7F4F0FB6F894F0
:103FD0007EBF0FBE6DBF63E27AE3C1010E94A80CF1
:103FE000FC01892BB1F680917202882309F448C044
:103FF000109272028FEF8983CE0101961C0100ECB2
:1040000016E16FEE77E3C1010E94A80CFC01892B39
:10401000B9F1848D80FFF5CFF894948125813681A4
:104020004781548965897689A789B08DF18CE28CA6
:10403000D38C848D8E7F848F7894DF92EF92FF9261
:10404000BF93AF937F936F935F934F933F932F9360
:104050009F9389811F928F931F930F930E9409173B
:10406000ADB7BEB750960FB6F894BEBF0FBEADBF8A
:104070006FEE77E3C1010E94A80CFC01892B49F681
:1040800080917302882309F456C0109273028FEF57
:104090008AABFE01F2961F013FE0832E6BEB7BE3C0
:1040A000C1010E94A80C5C01892B09F444C0D50110
:1040B00059968C91599780FFF1CFF894F50144807F
:1040C000558066807780818D8E7F818F7894589619
:1040D0008C915897813011F40C946D2810F40C9445
:1040E0004D28823011F40C949D288330B9F6CAA86B
:1040F00019821A829E012F5F3F4F42E061E084895E
:1041000095890E94D20D09811A8110270127102755
:10411000F02FF670EF2E30E020E0B301A201C501D0
:104120000E94EC426BEB7BE3C1010E94A80C5C0196
:10413000892B09F0BCCF809174028823F9F010928A
:1041400074028FEF8AAB8E010E5C1F4F180189E05D
:10415000A82E0153110992EFB92EDD24DA9406C07E
:10416000D7011E968C911E9780FD1FC662ED77E3E6
:10417000C1010E94A80C7C01892B91F780917502E6
:10418000882341F1109275028FEF8DABFE01F596F9
:104190007F0180E3782E8824839498E2592E8E0143
:1041A0000F5F1F4F580128EA922E31E3432E48EE4D
:1041B000342E5FE2252E06C0D6011F968C911F97E4
:1041C00080FD33C665E77BE3C7010E94A80C6C0144
:1041D000892B91F780917602882341F11092760223
:1041E0008FEF8DABFE01F5967F01E0E37E2E8824F4
:1041F0008394F4E29F2E8E010F5F1F4F5801A1E3BD
:104200005A2EB4EA4B2E12E2312E02EA202E06C0BC
:10421000D6011F968C911F9780FD2BC66AE37BE326
:10422000C7010E94A80C6C01892B91F7809177023D
:104230008823D1F0109277028FEF8DABFE01F596B7
:104240007F0164E7A62E72E7B72E06C0D60152960C
:104250008C91529780FD35C663EB77E3C7010E94CE
:10426000A80C6C01892B91F7809178028823D9F0F2
:10427000109278028FEF8DAB8E010B5C1F4F78018F
:1042800032E7A32E40E7B42E06C0D60152968C9199
:10429000529780FD49C66CE877E3C7010E94A80CDD
:1042A0006C01892B91F7809179028823B9F01092E3
:1042B00079028FEF89838E010F5F1F4F180106C0AF
:1042C000D80119968C911997811161C668E07BE33A
:1042D000C1010E94A80C8C01892B91F780917A0270
:1042E0008823B1F010927A028FEF89838E010F5FDD
:1042F0001F4F180105C0D8011D96FC90F0FCF5C3B6
:1043000068E77AE3C1010E94A80C8C01892B99F718
:1043100080917B028823B9F010927B028FEF8AABE9
:104320008E010E5C1F4F180106C0D80151968C916A
:1043300051978111C4C466E677E3C1010E94A80CBD
:104340008C01892B91F780917C02882309F11092CE
:104350007C028FEF8AAB8E010E5C1F4F180152E179
:10436000E52E9E012F5F3F4F690139013FEF631A30
:10437000730A06C0D80151968C915197811152C38E
:1043800062E87DE4C1010E94A80C8C01892B91F7A1
:1043900080917D02882309F498C010927D028FEFEE
:1043A0008AABFE01F2961F0177247A9466ED7AE4D7
:1043B000C1010E94A80C7C01892B09F486C0D70199
:1043C0001E968C9180FFF2CF6AA8BE016F5F7F4F6F
:1043D000C7010E9429569C01F894F70196859E7F9B
:1043E00096877894232B09F004C3898183FFDECF5D
:1043F000A388B12C6501F4E1CF0ED11CCE0CDF1CDB
:10440000D7011C968D919C911BAA860122E0AE01DA
:104410004D5C5F4F61E00E9446444C01F70184858A
:10442000958521E02CAB0E5F1F4F22E0AE014C5C66
:104430005F4F61E00E94464488299929892B11F039
:104440000C94F72BF701EA0DFB1D4489F60111814D
:10445000F701E65BFF4F808191814F3F11F40C948F
:10446000852C50E070E060E0742F662755274427C4
:10447000F6012381422B612B2281522B8A019B0161
:10448000002711272227307E012B022B032B11F44A
:104490000C94122C60E00E941055D70153968C9119
:1044A00053978C5F53968C93803308F47FCF662D9F
:1044B000C7010F960E94A15566ED7AE4C1010E94E2
:1044C000A80C7C01892B09F07ACF80917E02882389
:1044D00009F47FC010927E028FEF8AABFE01F29644
:1044E0001F018E010A5F1F4F1FAB0EAB9E012D5F98
:1044F0003F4F39AF28AFAE01475F5F4F5BAF4AAF69
:1045000065EB7BE4C1010E94A80C2C01892B09F406
:1045100060C0D2011E968C9182FFF2CFF894F20116
:1045200084809580A680B780F1881686118A789459
:1045300080859185A285B385881A990AAA0ABB0A43
:1045400082010E5E1F4F68011F2D1150A8F0D2018D
:1045500056968C91F201E80FF11DBFEFB78B108ECC
:10456000118E8D5FF201868B813378F36AA9C601C3
:104570000E94A155115058F7F12ED2011F96DC90E0
:10458000DD2009F402C2B1E0DB1609F4D7C3F2E082
:10459000DF1611F40C94F72AF3E0DF1611F40C94F3
:1045A000792BB4E0DB1611F40C94172CF201768908
:1045B000713308F4A5CF6AA9C20142960E94A155A1
:1045C00065EB7BE4C1010E94A80C2C01892B09F04A
:1045D000A0CFA89580918102882329F080E4809360
:1045E000600010928102E0904203EE2009F475C051
:1045F00080913002182F80FD16C034E03E1508F07F
:104600006CC0809082029BEF980D9C3308F047C7E6
:10461000F09083029F2D907F903109F41CC7182FD2
:104620001160109330024E2D50E06EE770E082E88A
:1046300092E00E940158009741F01E7F10933002D3
:1046400082589240EE24E394E80E11FD5BC712609D
:10465000109330028BEE97E09F938F930E9409177F
:104660000F900F908E2C1FEF90E0C82CD12C009152
:104670004203F02EF81891F0892F90E04F2D50E072
:10468000481B590BB601680F791F6E577D4F8E5727
:104690009D4F0E941758109226029F2D8FB7F894B5
:1046A00020914203021761F08FBF00914203F02E68
:1046B000F81811F78FB7F894209142030213F4CF42
:1046C000F09242038FBF113041F48BEE97E09F933D
:1046D0008F930E9409170F900F900E943C4F4B013F
:1046E0005C0128960CAD1DAD2EAD3FAD2897601B2B
:1046F000710B820B930BC0903902D0903A02E0907C
:104700003B02F0903C021FEFC11AD10AE10AF10A04
:10471000C0923902D0923A02E0923B02F0923C02FF
:104720004090350250903602609037027090380207
:10473000460E571E681E791E409235025092360270
:1047400060923702709238026115710521E082078C
:10475000910508F09AC00091310210913202209127
:104760003302309134020CAF1DAF2EAF3FAF9B012F
:10477000AC010E94FE56DC01CB0181509F4FAF4F30
:10478000BF4F892F9A2FAB2FBB270CAD1DAD2EAD80
:104790003FAD800F911FA21FB31F0CAD1DAD2EADFD
:1047A0003FAD80179107A207B30718F48FEF9FEF73
:1047B000DC018093310290933202A0933302B093D4
:1047C0003402409168025091690260916A027091CE
:1047D0006B0295018401041B150B260B370BB901E5
:1047E000A8014115544B644C744008F0E7C4289666
:1047F0008CAE9DAEAEAEBFAE2897809126028823C8
:1048000009F40ECB0E943C4F2896CCACDDACEEAC4C
:10481000FFAC2897C61AD70AE80AF90AF8948091DB
:10482000260281110C94E92B78940E943C4F970149
:104830008601060F171F281F391F28960CAF1DAFC2
:104840002EAF3FAF2897ECCA59963C91599758968E
:104850003C937894AC01415F5F4F5F934F931F92FD
:104860002F9387891F928F9389811F928F931F9314
:104870000F930E9409172DB73EB7265F3F4F0FB623
:10488000F8943EBF0FBE2DBF54CB6115710510E1EA
:104890008107910508F08ACF009131021091320210
:1048A00020913302309134020CAF1DAF2EAF3FAFD9
:1048B0009B01AC0121503F4F4F4F5F4F232F342FAF
:1048C000452F55270E94FE560CAD1DAD2EAD3FADB8
:1048D000060F171F281F391FD901C8015ECF549634
:1048E000ED90FC9055975096BC9050975196AC9097
:1048F000519752969C90529753968C9053978F5FF6
:104900005D968C937894A70170E060E0EF5AFF4FBA
:10491000808191810E94C650D8019096EC91909729
:10492000E00FF12FF11DE1A2F2A290968C919097E9
:104930008E5F90968C939097282F30E02F5F3F4F9B
:104940005F969C919217130611F00CF0C3CA980160
:104950002F5D3F4F3F932F931F928F938F929F9284
:10496000AF92BF9289811F928F93DF92CF920E9464
:104970000917F80110A20DB71EB7045F1F4F0FB63D
:10498000F8941EBF0FBE0DBFA5CA82E389831A82A9
:104990000E943C4F6CAF7DAF8EAF9FAF9E012F5FEB
:1049A0003F4F42E061E0F201848595850E94D20D7F
:1049B0000E943C4F0CAD1DAD2EAD3FAD601B710B89
:1049C000820B930B613273408105910508F0E4C1BD
:1049D000298127FFD6C6D20156967C91F201E70FB6
:1049E000F11DF78A83E0808F118E7D5FF201768B57
:1049F000DFCD61E0E65BFF4F808191810E94105521
:104A0000D70153968C9190E0FC017496EE0DFF1D3A
:104A10008E0D9F1DDC0154967C927182128281E082
:104A200083833BCDFAA855966C915597B62EBB0C57
:104A3000B60EF6012E2D11922A95E9F746E04B0DA0
:104A4000960161E01F968D919C910E94D20DD80134
:104A500051961C92A3E0AB0D62E06B0D8FEF9FEFC0
:104A6000AA2321F1F601660D772D711D8FEF9FEFBF
:104A700021912927322F32953F702327422F50E072
:104A8000382FCA01982F88279295907F2827392799
:104A9000CA01880F991F82959295907F9827807FF1
:104AA0009827822793276E177F0711F72A2F30E068
:104AB000F601E20FF31F4081E2E0F0E0EC0FFD1F92
:104AC0002E0F3F1FD9012C91342F8217930709F025
:104AD00009C6898182FF28C581E0F801838B42E005
:104AE0006F2DC8010E94D5564BCCE980F8013F9646
:104AF0002A96FFAFEEAF2A973801F5E16F0E711CD1
:104B0000F2FE8EC448E1B3012A968EAD9FAD2A977E
:104B10000E9437412E966CAF7DAF8EAF9FAF2E9720
:104B200045E0B3012A968EAD9FAD2A970E9437418A
:104B3000D8011C968C911C9790E09B6C9C01990F5E
:104B4000440B550B24962CAF3DAF4EAF5FAF24976F
:104B500052966D917D918C9140E00E94C44D280148
:104B600032E1430E511C80E2C82ED12C812C90E8FA
:104B7000992EAA24AA94BA2C41E024968CAD9DAD1E
:104B8000AEADBFAD249788219921AA21BB21892BE5
:104B90008A2B8B2B09F440E0D2016D917D918C9191
:104BA0000E94B54DF894F30160817181828141E0EA
:104BB0000E94B54D00000000000000000000000051
:104BC0000000000000000000D3016D917D918C91E8
:104BD00040E00E94B54D7894B694A794979487943A
:104BE000B1E0CB1AD10809F0C7CFF8016785708909
:104BF000818940E00E940F4D41E0B3012A968EADBD
:104C00009FAD2A970E943741F894D8011D969C9138
:104C10008F2D892BB82FB470FB2E82FD16C49C7F7C
:104C2000F80195877894F1106BCB2B962FAD2B97CD
:104C30002E964CAC5DAC6EAC7FAC2E9776946794A0
:104C400057944794769467945794479467FE02C0AC
:104C500077247A94982F987020FDACC5992309F495
:104C60006EC621FD63C7F894D8011D968C911D97DF
:104C7000877F84601D968C937894E3E0DE2E6D2D03
:104C8000F801E05BFF4F808191810E94105590E018
:104C900020E0D8015C968C91F801E80FF11DF58EAB
:104CA000268F978FD0A28C5FF801848F803308F411
:104CB00027CB6E2DC80148960E94A15521CBBAA8DA
:104CC00019821A821B829E012F5F3F4F43E061E0F1
:104CD0001F968D919C910E94D20DF801118A8981B5
:104CE000CA80D12CF12CE12CFE2CED2CDC2CCC2418
:104CF000E82A8B81C82AE7FE02C0FF24FA94B70194
:104D0000A601F801E55BFF4F808191810E94C650AA
:104D1000D80157968C91F801E80FF11DC08ED18E05
:104D2000E28EF38E8C5FF801878B803308F403CB1F
:104D30006B2DC80143960E94A155FDCA8FE7898358
:104D40008EEF8A830E943C4F24966CAF7DAF8EAF6E
:104D50009FAF24979E012F5F3F4F42E060E0F2013A
:104D6000848595850E94D20D0E943C4F6CAF7DAF2B
:104D70008EAF9FAFDC01CB0124960CAD1DAD2EADE7
:104D80003FAD2497801B910BA20BB30B8132934054
:104D9000A105B10508F48AC3D20156967C91F201AF
:104DA000E70FF11DF78A82E01ECECAA8F8012A2D6E
:104DB00011922A95E9F7B982980149E061E01C96C1
:104DC0008D919C910E94D20DD70153968C9190E0C9
:104DD000FC017496EE0DFF1D4B81242F207F09F4FA
:104DE00049C2203F09F446C2D482D382D282D18202
:104DF0008E0D9F1DFC01D48AD70153968C91539739
:104E00008B5F53968C938F3228F06C2DC7010F96D1
:104E10000E94A155D7011E968C911E978E7F1E96DB
:104E20008C93C7010E94A042A1C96DA81E968C91C7
:104E30001E9751969C915197903308F472C2882323
:104E400009F49DC5813009F44CC6D60156967C9272
:104E5000662DC60142960E94A155F60181898053B4
:104E6000818B803308F474C21092260280927502FE
:104E7000A9C96DA81E969C911E9750962D913C91A4
:104E800051972033310508F4A0C3992309F4B7C51D
:104E9000913009F460C6D60156967C92662DC60103
:104EA00042960E94A155F60180899189C097918B05
:104EB000808BC09708F40FC510922602809276026C
:104EC000ADC99DA81C968D919C911D9750962D91D2
:104ED0003C912033310508F447C2A9828601085E5F
:104EE0001F4F20E3AE014F5F5F4F61E00E944644D9
:104EF0000E94584680E3F601878B80899189C0978C
:104F0000918B808B692DC60143960E94A155D601D5
:104F100050968D919C91C09708F44BC21092260236
:104F200081E08093770298C99DA81C968D919C91F1
:104F30001D9750962D913C912033310508F442C2C3
:104F4000A9828601085E1F4F20E3AE014F5F5F4FCD
:104F500061E00E9446440E94584680E3F601878B38
:104F600080899189C097918B808B692DC60143966A
:104F70000E94A155D60150968D919C91C09708F43E
:104F800046C21092260281E08093780284C9F9809B
:104F90001896EC9018972E2D30E052960D90BC91FB
:104FA000A02DF801D488858896889789295E3F4F7F
:104FB00040E050E0BA01AF2CBD2CF4019E2CF894D7
:104FC00090830000000090838C917894440F551FCB
:104FD000661F771F8B21C12CD12C7601C3948111C0
:104FE00003C0C12CD12C76014C295D296E297F2963
:104FF0002150310920F7FA2CE92CF894D8011996A0
:105000002C91199719961C9278944A015B010E2CE9
:1050100004C0B694A794979487940A94D2F7A7FEF5
:1050200002C0BB24BA9444244394512C01C0440CC4
:10503000EA94EAF74A94512C712C612C44215521B1
:1050400066217721441655066606770609F45DC287
:1050500020E030E040E050E8D8011E962D933D93CB
:105060004D935C93519740E830E020E090E0D80108
:105070005C968C91F801E80FF11D958F268F378F84
:1050800040A38C5FF801848F803308F41FC96F2D13
:10509000C80148960E94A15519C9CAA819821A8246
:1050A0001B821C829E012F5F3F4F44E061E0848998
:1050B00095890E94D20D69817A818B819C810E94A1
:1050C0000E57F62FF770EF2E8B019C01B301A20152
:1050D000C5010E94EC420C944E209AA80CE0098372
:1050E0001A821B821C829E012F5F3F4F44E061E0C9
:1050F00054968D919C910E94D20D69817A818B8109
:105100009C810E940E576B017C0189821A829E014C
:105110002F5F3F4F42E061E0F501848995890E944D
:10512000D20D970186013327C92CEA80B301A20171
:10513000C5010E94EC420C944E20CAA881E08983EC
:105140001A821B821C829E012F5F3F4F43E061E069
:1051500054968D919C910E94D20D69817A818B81A8
:105160009C810E940E57672F782F892F99278B01DA
:105170009C01222733270CAF1DAF2EAF3FAF17E0A6
:1051800019831A829E012F5F3F4F42E061E0D501F3
:1051900054968D919C910E94D20D8A818C7FBCADDA
:1051A000B170EB2EE82A0CAD1DAD2EAD3FADB301B5
:1051B000A201C5010E94EC420C944E20BF93AF9314
:1051C0009F938F937F926F925F924F92FF92EF9295
:1051D000DF92CF9289E297E19F938F930E94091704
:1051E0002DB73EB7225F3F4F0FB6F8943EBF0FBEBC
:1051F0002DBF8091680290916902A0916A02B091DE
:105200006B0288169906AA06BB0698F48091640280
:1052100090916502A0916602B09167020196A11D6E
:10522000B11D8093640290936502A0936602B093CF
:1052300067028092680290926902A0926A02B0921C
:105240006B021092310210923202109233021092CD
:1052500034021092350210923602109237021092E8
:1052600038021092390210923A0210923B021092C8
:105270003C02BDCA5D81252F207F19F0203F09F037
:10528000B3CD2F81322F307F19F0303F09F0ACCDF4
:105290003885303909F0A8CD3985932EE89497F8F0
:1052A000B0E2B91508F4A0CD30E08E0D9F1D6A81E3
:1052B000DC0154966C938C8181838E818283842F50
:1052C0008F71B901660F771F62957295707F76278F
:1052D000607F7627862B8383220F331F220F331F95
:1052E0002076852F8F71822B8483F70183898B5FD2
:1052F000838B8F3208F011C6FEE1F91508F007C65E
:10530000D70151968D919C915297019652969C93FC
:105310008E9351971092260281E0809374020C9430
:10532000B6201AAA882309F448C3813009F431C48D
:1053300050968C91813009F4C7C380E08F73982F09
:10534000990F890F880FF601818B803308F0C7C34E
:10535000D6011F968C911F978E7F1F968C93C60146
:105360000E9453420C94E220BAAA8E010F5F1F4F95
:1053700022E0AE014E5C5F4F61E00E9446440E9415
:105380005846898190E0982F882788279F712A8125
:10539000822BF601268537852817390710F4978761
:1053A0008687D60151969C938E935097C0970CF0A8
:1053B0003AC4F60182898E7F828BC6010E948441A5
:1053C0000C942C21BAAA8E010F5F1F4F22E0AE0170
:1053D0004E5C5F4F61E00E9446440E9458468981BE
:1053E00090E0982F882788279F712A81822BF601C9
:1053F000268537852817390710F497878687D601C1
:1054000051969C938E935097C0970CF010C4F60160
:1054100082898E7F828BC6010E9484410C944B212D
:105420004BE1B3012A968EAD9FAD2A970E9437417A
:105430009B01AC0156954795379527952E962CAF35
:105440003DAF4EAF5FAF2E97DFCB987F9860D8010E
:105450001D969C93E7CBE81408F43FC9282D30E053
:10546000F901EF57FD4F90819E3709F0D8C88901A7
:1054700001581D4F580120583D4FD9018C91F8011A
:105480000081102F082F6DEF680D82E892E00E94D6
:10549000A1500817190709F4D6C3809082024EE77D
:1054A000841609F4BBC380913002B9C880EC8983AB
:1054B0001A829E012F5F3F4F42E061E0D2011C96AD
:1054C0008D919C910E94D20D99812A81892F8227EA
:1054D000382F32953F708327382F3695369583279E
:1054E000382F3695832780FF11C3F2017689E70FA5
:1054F000F11DF78A83E0808F118E7D5FD201569671
:105500007C9356C88E2C1FEFAFC821FFE6C120E068
:1055100030E040E050E4D8011E962D933D934D932A
:105520005C93519740E4A0CDD80153968C918111A2
:10553000D6CAF80184898F5F982F990F890F90E060
:10554000F601E80FF91F8080912CB12CA12C540199
:1055500099248824E3E0F0E0EC0FFD1FE80FF91F29
:105560002081822A22E030E02C0F3D1F820F931F02
:10557000DC018C91982AA7FE02C0BB24BA94B50125
:10558000A401F801E25BFF4F808191810E94C65027
:10559000F801828DE80FF11D838E948EA58E8B2CE1
:1055A000BB2487FCB0949B2CAB2C868E8C5FD801DF
:1055B0005A968C93803310F40C94C0216F2DC8013F
:1055C00046960E94A1550C94C021992309F430C23B
:1055D000913009F4F4C2F601118A108A8E7FD60147
:1055E0001F968C93C6010E9405420C940E21D20195
:1055F0001C96ED91FC9104816280738040E0B301C0
:10560000802F0E94B54D0E943C4F6B017C01B0E1A0
:10561000CB0ED11CE11CF11C1F2D0E943C4F212FF1
:10562000C616D706E806290B27FFF7CFF89441E006
:10563000B301802F0E94B54D0E943C4F6B017C014D
:10564000789488E0E8ADF9AD11928A95E9F784E89D
:10565000898383E28A839E012F5F3F4F4AE061E0A6
:10566000D2011C968D919C910E94D20DFE01339621
:1056700065E08191682788E090E003C0660F01979C
:1056800039F067FFFBCF660FBDE16B270197C9F7C4
:105690000AAD1BADE017F10761F7D20156967C9178
:1056A000872F90E0AC014F5F5F4F9C012E5F3F4F13
:1056B0007D5F6095EA856E1709F451C1840D951DD3
:1056C0000FEFFC01078B440D551D83E0DA0157965F
:1056D0008C93240D351DF901178AD20156967C93BF
:1056E0000C94D82241E06F2DC8010E94D5560C942D
:1056F000C02183E889831A821B820E943C4F6CAFD1
:105700007DAF8EAF9FAF9E012F5F3F4F43E061E0C3
:10571000D2011C968D919C910E94D20D0E943C4F0B
:10572000AB01BC01DC01CA010CAD1DAD2EAD3FAD1E
:10573000801B910BA20BB30B81329340A105B105E5
:1057400008F02ACBEA809B818E2D8927282F22956D
:105750002F708227282F269526958227282F269579
:10576000822780FFA0C1D20156967C91F201E70FFB
:10577000F11DF78AD08E118E7D5FF201768B0C942D
:10578000D8228A8190E0880F991F30E0322F22279B
:10579000330F7C01E22AF32A0CAD1DAD2EAD3FADD7
:1057A000B501A401C2010E94C755D20156967C9151
:1057B0000C94D822DD24D394992309F460CAF89478
:1057C000F8018585877F846085877894DD24D3946C
:1057D00056CA8FEF809327028093260278940000A8
:1057E000F894809126028111F9CF0C94142462E080
:1057F000F701E65BFF4F808191810E941055D70130
:1058000053968C9190E0FC017496EE0DFF1D8E0D69
:105810009F1DDC0154967C927182128282E0838308
:105820000C944D227F700E94C6500C944D2286E04D
:10583000EAE2F2E0DE01119601900D928A95E1F71D
:105840000E943C4F6CAF7DAF8EAF9FAF9E012F5F2C
:105850003F4F46E061E0D2011C968D919C910E94E1
:10586000D20D0E943C4FAB01BC01DC01CA010CAD62
:105870001DAD2EAD3FAD801B910BA20BB30B813242
:105880009340A105B10508F087CAFE01339680E078
:105890009191892728E030E004C0880F2150310918
:1058A00041F087FFFACF880F07E0802721503109A8
:1058B000C1F72EA93FA92E173F0751F79E819817D0
:1058C00009F45BC1D20156967C91F201E70FF11DFC
:1058D000BFEFB78B87C8878581CEF801468557858E
:1058E00060897189411551056105710509F091C102
:1058F000B501A401E05BFF4F808191810E94C650F9
:10590000982D292D3A2D4B2DB2CB1F3F11F00C9421
:10591000312263E00E941055D70153968C9190E09C
:10592000FC017496EE0DFF1D8E0D9F1DDC0154963B
:105930001C931183128283E083830C944D2281FD9A
:1059400019C1B301A201F801E05BFF4F8081918191
:105950000E94C650F42C252D962DD72C9AC9698506
:1059600064FF83C0EB81E7FDA7C2840D951DEFEFB7
:10597000DC015796EC93440D551D84E0A7CED5016C
:10598000E42D1D92EA95E9F79982D60150968C9103
:10599000813009F43982950141E361E0F6018485A3
:1059A00095850E94D20D80E3FE013296D60157966E
:1059B00001900D928A95E1F748CABFEAB9831A822D
:1059C000950142E061E0F601848595850E94D20D43
:1059D0008A818AAB86FF07C0F601248935892F5F4B
:1059E0003F4F358B248BD60150969C915097913028
:1059F00009F0A4CC85FF69C051961C92A9CCD501B1
:105A0000E52D1D92EA95E9F74982950141E361E0B0
:105A1000D6011C968D919C910E94D20D80E3FE01CF
:105A20003296D601579601900D928A95E1F733CAC6
:105A300029821A821B82950143E061E01C968D91B8
:105A40009C910E94D20D8A819B818130B4E09B079A
:105A500000F1F601248935892F5F3F4F358B248B68
:105A6000918B808BF601968510CA840D951D0FEFE2
:105A7000FC01078B440D551DE5E0DA015796EC93C8
:105A8000240D351DD90157961C92F201768B0C948A
:105A9000D822D60151969C938E935097C09710F7B9
:105AA0001F968C919BCD91FF84C0D20156967C911C
:105AB000F201E70FF11DF78AB5E0B08F118E7D5F1F
:105AC000F201768B0C94D82280E08F71982F990F79
:105AD000890F880FF601818B803308F439CC8685D5
