:100000000C941E090C944B090C944B090C944B094D
:100010000C944B090C944B090C944B090C944B0910
:100020000C944B090C944B090C944B090C944B0900
:100030000C94E03E0C944B090C944B090C944B0926
:100040000C944B090C9463240C944B090C944B09AD
:100050000C944B090C944B090C944B090C944B09D0
:100060000C944B090C94B73E0C948D3E0C944B09A8
:100070000C944B090C944B090C944B090C944B09B0
:100080000C944B090C944B090C944B090C944B09A0
:100090000C944B090C944B090C944B090C944B0990
:1000A0000C944B090C944B090C944B090C944B0980
:1000B0000C944B090C944B090C944B090C944B0970
:1000C0000C944B090C944B090C944B090C944B0960
:1000D0000C944B090C944B090C944B090C944B0950
:1000E0000C944B090C94D2220C9497180C94EA2887
:1000F0000C94123B0C94E1320C94D22F0C94B73A2E
:100100000C94F7310C94813E0C94F12A0C947120DC
:100110000C94B0330C94C3310C94CD360C94E62D72
:100120000C9406310C9429340C94522D0C94A63264
:100130000C942D150C941A1D0C9403150C944F322D
:100140000C94B3180C94CF220C946E2B0C94D123E6
:100150000C94311F0C9412330C9435320C94E31A26
:100160000C94C5130C94A03B0C9405290C94121FFD
:100170000C94FC1C0C94F31E0C946D1A0C94B0316E
:100180000C945F1E0C94AB2B0C943C360C946226A2
:100190000C94C23A0C94F7330C949E220C94733B4B
:1001A0000C9457230C949D2C0C9430270C94FB1426
:1001B0000C9426260C945D150C94E1280C946B315C
:1001C0000C9448170C94B72F0C9455340C9452137C
:1001D0000C9452220C9421190C945B360C945928DF
:1001E0000C94501F0C9444350C9407240C94A22DAD
:1001F0000C94D62C0C947B180C9434180C94BF27B8
:100200000C9426350C94A23B0C94CF200C947327AD
:100210000C94F6330C94A9300C94A1300C94A826BD
:100220000C949E340C946F130C9468310C94352C00
:100230000C9496280C94C3210C94963A0C94FD27A8
:100240000C94B5280C94C71A0C9435260C948D1F69
:100250000C94F1360C945C310C94F33A0C94EF3519
:100260000C94B21C0C94EC360C94C03B0C94ED1323
:100270000C9464370C944C200C94541E0C947914F8
:100280000C94B0150C946A1E0C94C81F0C94813306
:100290000C9447290C9414340C94221E0C94A11E27
:1002A0000C9450260C94F4340C9458170400000459
:1002B0000404040000000004040000000004000026
:1002C0000000000000040000000000040002000024
:1002D00004000400000407040400000404040000F7
:1002E00002020000000204070004070704000404DF
:1002F00000000400020204040404040000040004DA
:1003000004040404040400040002030400040400C0
:1003100004000400000400040000000000000000CD
:1003200001020102160355340200010000005C3195
:1003300003000100000068310400010000006B317F
:10034000050001000000B0310601000106066D1A2B
:10035000070001000000E31A080100011503C71A95
:10036000090001000000F6330A02010101061434FD
:100370000B0301031203F7330C02010210032934AB
:100380000D0200021603EC360E020002ED05F136F6
:100390000F03000312036437100200021003FC1C59
:1003A000110500050B03B21C12020002ED0581339A
:1003B000130100011503F731140200021003C513E5
:1003C00015020002ED055213160400040703ED1395
:1003D0001705000502036F13180100011503C3314F
:1003E00019080008FA024F321A030003F7023532E7
:1003F0001B020002ED0530271C02000210037327C8
:100400001D040004E505BF271E0100011503502649
:100410001F080008EF025D1520020002100362268B
:1004200021040003EF05031522030002F20548171B
:1004300023030002F205581724040004E905B0154F
:10044000250100011503FB1426030003EC022D1502
:1004500027050003E902D22F28040003E602A93091
:1004600029030002F205B72F2A040004E90506312A
:100470002B0100011503A1302C030003E302E12846
:100480002D030003F40557232E060006DD02D123B9
:100490002F020002ED059D2C30050005D8025928D9
:1004A00031040004FB05B52832020002ED05962850
:1004B00033040003D502352C34050005D002D62CB8
:1004C000350100011503443536040003D605EF3528
:1004D00037050005CB026E2B38040004E905F4341F
:1004E00039030003EC0226353A030002F2053C36DC
:1004F0003B030002F205CD363C060006C5025B3622
:100500003D030002F2057B183E030002F205971836
:100510003F080008BD02B31840060006C5022119B5
:1005200041050005B802341842060006B20205294A
:1005300043030003F7024729440100011503123B5E
:10054000450200021003733B46020002ED05F33A38
:1005500047030002F205CF2048040004E5058D1F83
:1005600049030003F702C23A4A0100011503C81FFC
:100570004B02000210039E224C020002ED05311FC7
:100580004D010001150371204E020002100352229A
:100590004F020002ED05121F500100011503C32197
:1005A000510200021003501F5201000115036A1E80
:1005B00053060006AC02A11E54030003F7024C20B0
:1005C00055020002ED05F31E560001000000813EB9
:1005D00057000500000004020704000002000204A6
:1005E00004000400070400000404000000040404E4
:1005F00004070407040002040404000404000404C3
:1006000001070400040200000000000000060002D0
:10061000026E4003D6056D1D06D9056C0F03DF057C
:100620006B4003E2056A1404E505691704E90568EF
:100630000A02ED05674002F205664003EF056540DA
:1006400002F205644002F205631003F4056211042E
:10065000F705611104FB05600D02FF055F0B010644
:10066000065E400101065D120402065C0B010606EF
:100670005B100207065A150309060040020C0659D2
:100680000E020E0658090110065706000000282920
:100690002A2B2C2D2E2F5051525354555657200093
:1006A0002300260029002C002F003200000100004A
:1006B0000301060109010F47004400450080013590
:1006C00048004400450020010D8800800081008022
:1006D000000E8A008000810020000F8C00800081C5
:1006E0000008000CB300B000B10080033EB400B0BD
:1006F00000B1002003239800900091008000249A0C
:1007000000900091002000259C00900091000800BE
:100710003BA800A000A10080003CAA00A000A1000E
:1007200020003DAC00A000A10008005B28012001D2
:10073000210180005C2A012001210120005D2C01A3
:1007400020012101080078DA9D59E98EDBC8117E6D
:10075000955E0246B2C1D81029919226F08FB9BC9D
:10076000EBD863CF5A9E384010101CB2253586D77F
:10077000B2C939B2F0BBA7AAAB2F521A2F1003C6C9
:10078000B0BBABFAA8E3AB437F0459DB06A7C18734
:1007900052B42DEF8293E06E1065913EF04E8AA622
:1007A00096B0B4CBF353F6D75F2E2E7E66F19BC581
:1007B0009B19BB13F5D08B52E2ECA75B76AE873F5B
:1007C000B3E84D94BC896661320BA318B6CA9BAAE4
:1007D000CAEA0236F923C8CAB2C9B39EA78D282433
:1007E000CB9BA1EEDFBECA83D3159ED8F770549A77
:1007F000E5F70C5661DA5B5F2C3D82A230046D2375
:10080000D51F51BF7D35B07628CB74688961ED184E
:100810007E1F78F76CF7840BDC2375C7659FF62283
:10082000BF9734EABBAC9695E853732A1335BC5F87
:100830009F0F17CC4B9E75A9DC0F7DD13CD6C169AB
:10084000844FABB76207377A2AE78BD81C215B91BC
:10085000D26770BA9C39AA3A2B9B5D2A6A7B7B755A
:10086000EDE074EE76D2573614344C9D1C62B79D81
:100870009AE4DD78B3910CE2A5252EC44EF4599983
:1008800036433F6178C8CA81E3B8E0DB6C28FBD40B
:100890004E54D9535A0C5DD68305A87B866E3F0E05
:1008A000FAEC9B76B4573E3A3C4A2CF1BE582C9653
:1008B000AB9921EE64AACFE6E6A358D8AFD87E253F
:1008C000F66B69BF78993D5BA505A7C9DC1E22A21E
:1008D0009C19A12FDC7459E4611246E66CA0B2AAFF
:1008E00059C553AAF451F47B50507F7748CF709A82
:1008F000EE81BC0BC72B64543C1ED5FDDA1255EDBE
:10090000B08EE2D9B16B2C9DA06ADEB4E289971358
:100910001515599FA552FC17B4B21FC0EFFA145514
:10092000E399AEE430256A4F30B17B5BFB581D5133
:100930007BFE0CE6ECF6D04ADF0F53338099033B85
:1009400058B81BC373A71BA307F7E281A77BB1DBD2
:10095000AB17CE573E3DF8C1AEE487F262762DED7F
:100960009F5B4EB2998F388DEF1D63D64B6925770B
:100970006F5FFD0DC0663EE645D58218D25C5A33E6
:10098000993B7B96FD721D59F5E4D642655EDEDB30
:100990006F51D8CFE73A4FC7C6C8F2AA480FEC73D9
:1009A000E69DC0115AEDD561A8AD8915A2339F040B
:1009B000398AD8510DA5E4DEA6917B58BFE75DD5F5
:1009C0000012B44725EA2F3BA126EED97D950F5999
:1009D000676DA37B4A0F6084F576122DAF1715273C
:1009E0000B73A0D577280F27567874C1EF06B0E7B0
:1009F0000682CADA8C60979DB265D24F68C93A9E6A
:100A000001A27705EFF03C80F78EE02632048F9D3F
:100A1000E8F901051A2D11862701AF78B7E375FEB5
:100A20009C222EC125608A302ADD37153F407F99F0
:100A300055ADEF007A6CB17F1C1DE0EA0E17E9B9E5
:100A400056C69DD8ED78878F900D814314BBC35552
:100A5000EC813B653DB7028A003CB602A201B87446
:100A60004A3264799793C59C043BF066754F10B287
:100A70001E291A70071A0E2D6A01FCF024D0D09A94
:100A80004A382F050BB49103BF49CE493421431591
:100A90001832A78E048488B0543585D83EA7A06B41
:100AA000BB57C7954B311D00E106B8AABD6C4D6C14
:100AB000A4C3313DCEA525D7A0312342C53E481F52
:100AC0000961A8700C64847F51BD5C92AD2F22C770
:100AD000259B6DFF9875DC6707FFB43E5964E6F30C
:100AE000D84E494C3B695B9A3E7F81CF2F78DDC35E
:100AF000E359B3DDC281CAA96DE485751325606D24
:100B000078C1ACFA3D1CB86FCA420D7E6C288C7758
:100B10005D33329C1558AD89014A57D664627F65B2
:100B2000680B674E9403ED07EF2D311806D9DD24CD
:100B30003119193588643DA153763A38804C569660
:100B4000609ABBFC9F8E543947D291C58D20FFDA45
:100B500001E39EE7F75EC6330FCD1D26098FBD4129
:100B6000DB00564DCFF74261623698E4021369AC60
:100B7000C2099DD2F0C47557D1946822B2D5CC1267
:100B80008CF282C961CBD5986CBACD7269D627999F
:100B9000C3749F784277B091B58583D0FB42268C91
:100BA000D80291566C49FE4BFBE263C1E6853D3CA1
:100BB000358FB44C030872807D85A7E4847434F0CB
:100BC0006389AA3DA3F1339C30362C9304C7925B12
:100BD000CB02EFB6C4185199CBE8784741C438FA34
:100BE0005E8106FC1500D3F072955B815613FDA95A
:100BF000F8099DA7E70103E81E69FC374CB26CB801
:100C0000F7FC8048BD40256476CF5176064C09310B
:100C1000D5FC495F0172060B62A2A3B0121291913A
:100C2000C79F647A2015B00D2FE9C2FA67EBFCCBA1
:100C3000E1C932243A0F91BCD5F9C2AC8E801DA710
:100C400034B04348E11E2C034BE2588EA17A256450
:100C500063B0BC6AA438968D1D6C9AE87BBCFC8E90
:100C6000395801257A3F8A97F17A4C753C5CC62B3E
:100C7000A452295D8A3119505860826C1D2F5C3B4B
:100C8000029509A0F5520860362278F10138604BD0
:100C90009D908D44AD22960DA8140E40239A1B659D
:100CA000882E7BC403C024568EAEF7133DDE369DDE
:100CB000CE32C87BD5D81A097F6A05A8C4CF69D6B9
:100CC00076A7C92B7C22402D0A4EC7FCD8F381C5DC
:100CD00077933C6253E0ECF222BD3EFB17A684986A
:100CE000DB9EDF6ED29BF79F368858C16970733EDA
:100CF0003FB9398FE07F18788BFDA35ABC9C9DDCEF
:100D00005CE2C2C5C7CF171FD2775FAE7E4377992B
:100D1000A97F27C1F5C52D50657DC57759142733A7
:100D200020BCF9764DA74558247DB9BAB87AFFCFD3
:100D3000ABF4DBFB4F979FBFA1DA229CDC5C7D818B
:100D400049BA05EF4456E2595770D6159E05ABEFE8
:100D5000CF3EA6E767B797B80D1DB5F97AF675933C
:100D60006E6EAF37BFC1CAE60A5792EF98090E9070
:100D70009BAAEA49B54074C6839FEA0D33A0019B44
:100D8000C6F1CDD92C38FDF7EC64F51FB8E6397EF5
:100D9000AFE8FB02BF0104D4E012079043AAC115DB
:100DA0000EE6110DDEE160A1F97F5103BDC1AF3840
:100DB00088F506FFC0C152F37C50C7689E8F6A80D9
:100DC0003CDF47D000A583EADE84F3F91C6E7C1279
:100DD00064329E2D96854A8BFA92C7B330BA830748
:100DE0006B2EFD3CA53F7C1EC6248126D841099070
:100DF0008A422B9D29E3D852E0A78EC1598936FE3D
:100E0000CC4C7A5C10605E6435AB9B9E81B1330440
:100E10000C061847C0C694CDB2C7BD806FB23DC99D
:100E20005AF01E388910D9F00E92ABD8D6856CDBFB
:100E3000740CCCE0EF662C24AE166A5E4D4972311C
:100E400060FD4B8F01016ABF1D5C08D2BBAC47EA55
:100E50004C5F932A5DCAF835B144523479AA4B6885
:100E600056C50EB535DC94D7CC1483961F8CEE8214
:100E7000DA64ACCD3A30394A0E55CA6F163A0E21B3
:100E80004CF6AA59F62E83F716AC6F98420A6C7E80
:100E90002807A74ED97B0AB0CC74935C738BE21CF5
:100EA0006555864AF7E754B5E1E6800CAF92551CCC
:100EB0008224159D66B16A1EB8B90DC3BE047AB40A
:100EC0005BB65D0CDBB720C43F58D779AC3D7FEEF5
:100ED0005D0004C8C8ECB00C34B3D86E30B8112D26
:100EE00047F33AB7C9F7A2D58C8B704CA0D276F7EE
:100EF00026498D0C4331CA6EBC5DB0C0B9CE9ED0C0
:100F00004E5746A0D45CB886D222DB71065527C462
:100F100022A330D8F25A48B42609A96C319458F566
:100F20000233866EA65151193E7FE0A8098CDA2F54
:100F300033ECB3AE50C6AEA9B1B6BE46F1AB6C86CB
:100F4000C157B72D9B474A873E8195678C9E83EE9C
:100F5000A55065315900BBA7052CE0FD0551B7949C
:100F60003450FF4C2DD5785337BD50E869ADBFEDF7
:100F70009A1D08B382AB67F8B62D445DB825089B6F
:100F8000A3E362AFF20BD78F426345CF826350D4A5
:100F9000A006B4642CEF3696E0403AEC5194250458
:100FA000A31CF61BB5A128BC3A4E2BA11F706004F0
:100FB000DB8017920ED5059042544365E68C73E0B2
:100FC000AD4CAB4915BDB099F25B85417E0378A36A
:100FD0001DB96F1AB6CDD4EBE86558E37FF54D0A1D
:100FE000450684AAB9462DB1AF4A1EC80971587288
:100FF000D5B3B8ADE5D0622CE6E4D40A49B197FD8B
:101000002DEBF37DD1EC488A3F5145A8BAE9503128
:101010000DF53D6C8C88404D5A6F5EBA05B04CF2B0
:1010200011800C0948871E0C511EEA7AA9F5EBBA0B
:101030005504584D5D02C63DC006D95D69A0CB3E42
:101040009F2A7FA6930FEA914F3A08A7EC33802797
:1010500004C03BCC17B6D841923F515AA27E00B093
:1010600038AA7F1628A82D24B10EAF0121C86472BA
:1010700058C6254CF000FC55ABF7D3D9C507EAE0BC
:10108000991E96CAD3509A65D66138C1BCF44832CD
:10109000822A2483C78EA0466072274CC1205A1D25
:1010A00074CD305C41C6300F5771ACA29F1E242A0C
:1010B000FCD12089953DC0204996F03DFF0E3B951F
:1010C000220751037F80BF90FC72F3F1611EA8429A
:1010D000A20510E1F4838829AC4785A672FEF45876
:1010E00025F33AF27ED818B1645ED9CCD40A65AA49
:1010F000AF55275E552C2E315CDBEE1D8433DD5F52
:1011000052A9A36A43E19CD1B3CAC70167525B21CC
:1011100001B7EA40AA6AFC47D7D61CFA2375A7BFD5
:10112000C668627A7F121CC2B6F2D65EEB6CB4332C
:10113000D4E2808B8767F89D39D8781EBA76546AD6
:1011400004EDD5CE6A6CE4B2742D1F8FD6F67E28DE
:10115000D97F83B4D8BB722261D37C86A402795331
:10116000F062EBC07B806904F9F29879ED1D2D12D5
:1011700053470D79AE7A58F83C4415B8A6DF465D62
:101180002F94BF804343DA05E5915FAE488CD1755B
:10119000CE27FDA1D75869F83CA39E812BA075D915
:1011A0006F8A022A3EFD2DEF0605F905756120F3D1
:1011B0000194484D4C92DA605521E4D0D4B48D8E20
:1011C0008B707DAC223D50A4DF751869341C97806C
:1011D0007F6A01AA8803F050C9E26A4999AA748615
:1011E0002B874AFF91BF937DCE5C553729F9A81113
:1011F00027D008A309888C357AD4B7078A0C5ACD32
:1012000091AB040F9F8035205D3FF6AB3B676A7959
:10121000664BCDE38D47CFF230A1A07E32A3DF6BCA
:10122000061F25420031FD1B3080D8629DCFB222BF
:1012300009BEFF0FEFE91DE1F20A000011241FBEF5
:10124000CFEFD1E2DEBFCDBF00E00CBF14BE0FB6C2
:10125000F894A89580916000886180936000109256
:1012600060000FBE12E0A0E0B2E0EEE7FFE700E0B2
:101270000BBF02C007900D92AA32B107D9F723E045
:10128000AAE2B2E001C01D92A939B207E1F70E94BB
:1012900094250C94BD3F0C940000CF93DF93CDB701
:1012A000DEB76C970FB6F894DEBF0FBECDBF0E94BD
:1012B00081256B017C019E01275F3F4F398B288B75
:1012C00080912602882309F4E9C60E948125C61A66
:1012D000D70AE80AF90AF89480912602882351F087
:1012E0008FEF8093260278940000F8948091260274
:1012F0008111F9CF78940E948125A7019601260FCC
:10130000371F481F591F2E8B3F8B488F598F81E005
:101310008093260280914C02882309F442C01092E7
:101320004C028FEF8983AE014F5F5F4F7A010DE46E
:1013300016E060E576E2C7010E94121B6C01892B62
:1013400081F1D60156968C9182FFF3CF0E948125C0
:10135000F894F60137892689422F4B7F468B789483
:101360009F938F937F936F931F923F9321701F9250
:101370002F9389811F928F931F930F930E94B138EF
:101380002DB73EB7245F3F4F0FB6F8943EBF0FBE58
:101390002DBF60E576E2C7010E94121B6C01892B0C
:1013A00081F680914D02882329F110924D028FEF32
:1013B0008983AE014F5F5F4F7A0108E416E062E671
:1013C00076E2C7010E94121BFC01892B99F0958DD2
:1013D000868D9813F4CFF894858D968D891709F42E
:1013E00063C7789462E676E2C7010E94121BFC0193
:1013F000892B69F780914E02882311F110924E02D9
:101400008FEF8983CE0101967C0109E316E066E93E
:1014100078E2C7010E94121B009791F0DC015896F8
:101420002C912F3FA1F7F894FC0126852111FFC5CF
:10143000789466E978E2C7010E94121B009771F761
:1014400080915002882309F43FC0109250028FEF20
:101450008983AE014F5F5F4F7A0104E316E066EDCA
:101460007CE2C7010E94121B009771F1DC011E96FD
:101470002C911E9723FFF3CFF894FC012685277F3C
:10148000268778949C01265E3F4F3F932F9350967A
:101490008C918695869586951F928F9389811F9250
:1014A0008F931F930F930E94B138EDB7FEB7389614
:1014B0000FB6F894FEBF0FBEEDBF66ED7CE2C7012C
:1014C0000E94121B009791F680915902882309F41B
:1014D0004AC0109259028FEF89839E012F5F3F4FC0
:1014E00079010AE216E066E275E3C7010E94121B69
:1014F000FC01892BC1F1848D80FFF5CFF894948194
:10150000258136814781548965897689A789B08D7F
:10151000D18CC28CB38C848D8E7F848F7894BF9253
:10152000CF92DF92BF93AF937F936F935F934F936D
:101530003F932F939F9389811F928F931F930F93B4
:101540000E94B1384DB75EB7405F5F4F0FB6F89459
:101550005EBF0FBE4DBF66E275E3C7010E94121B5E
:10156000FC01892B41F680914F02882309F456C073
:1015700010924F028FEF8B87BE01655F7F4F1B017B
:101580003CE0932E47E0842E67E479E2C1010E949B
:10159000121B5C01892B09F441C0D50159968C912D
:1015A000599780FFF1CFF894F5014480558066800B
:1015B0007780818D8E7F818F789458968C91813041
:1015C00009F49AC308F478C3823009F435C3833030
:1015D000D9F6CB8419821A829E012F5F3F4F42E0D9
:1015E00061E0F501848995890E944E1609811A816E
:1015F000102701271027F02FF670EF2E20E030E0A3
:10160000B301A201C5010E94BF2967E479E2C101CB
:101610000E94121B5C01892B09F0BFCF80915B02F5
:10162000882301F110925B028FEF8B879E01255F6B
:101630003F4F190119E0B12E8E010F5F1F4F82EF4E
:10164000C82EDD24DA9406C0D7011E968C911E9711
:1016500080FD81C363EF7AE3C1010E94121B7C010C
:10166000892B91F780915C02882309F463C0109262
:101670005C028FEF8B87FE013B961F019E012F5F5F
:101680003F4F690162EC7AE3C1010E94121B7C01A9
:10169000892B09F44FC0D7011E968C9182FFF2CF9F
:1016A000F894F7014480558066807780B18816866B
:1016B000118A789480859185A285B385481A590A44
:1016C0006A0A7B0A87010E5E1F4FD701BB2099F083
:1016D00056968C91F701E80FF11DBFEFB78B108E76
:1016E000118E8D5FF701868B823308F0EFC0BA94BC
:1016F000D701B110EDCF1F968C91882309F43DC21C
:10170000813009F45FC4823009F47BC5F701868912
:1017100090E0C2970CF4B6CF6B85C70142960E9449
:10172000772162EC7AE3C1010E94121B7C01892BB4
:1017300009F0B1CF809145028823D9F0109245027B
:101740008FEF8F879E01215F3F4F790132E7932E04
:1017500044E7B42E06C0D60152968C91529780FD74
:1017600071C361E37FE1C7010E94121B6C01892BE9
:1017700091F780914602882309F1109246028FEF7B
:101780008F879E01215F3F4F790107E0402EAE0118
:101790004F5F5F4F4A018FEA582E98EA692E06C0C4
:1017A000D8011E968C911E9780FDAEC362E17FE149
:1017B000C7010E94121B8C01892B91F7809147026F
:1017C000882309F489C0109247028FEF8983FE01B4
:1017D00031967F0163EF7EE1C7010E94121B6C010D
:1017E000892B09F479C0D6011E968C9180FFF2CF27
:1017F0009980C6010E949D21F894F60196859E7FEE
:101800009687789483FFE6CFA388B12CB4E1AB0E22
:10181000B11CAC0CBD1C0484F585E02D1D86850132
:1018200022E0AE01435F5F4F61E080810E94691B4F
:10183000D6011C96ED91FC911D9781E08E870E5F7D
:101840001F4F22E0AE01425F5F4F61E080810E9446
:10185000691BF60183898C5F838B8601035B1F4FB5
:10186000D8018C9082FE28C0F50142805380542418
:1018700045245424052C000C6608770841145104B3
:101880006104F0E17F0608F062C40E94812581FCBA
:1018900053C5F601E05BFF4F2081318142815381C6
:1018A000241535054605570508F455C5882D8D7F47
:1018B000D8018C93F601838990E0C1970CF48ACF0C
:1018C000692DC6010F960E94772184CF6B85C801D0
:1018D0000E947721BA940CCFA89580917502882335
:1018E00029F080E480936000109275021091360315
:1018F000112309F46EC000912A0200FD12C01530B8
:1019000008F467C0D0907602BD2C8BEF8D0D8C3320
:1019100008F4EBC3EEE7BE1609F4A4C5016000931A
:101920002A02412F50E06EE770E086E792E00E94C5
:101930008E3F009739F00E7F00932A02865792401F
:1019400011E0180F01FD0CC0902F926090932A02B5
:1019500081ED95E09F938F930E94B1380F900F9087
:10196000D12ECC24CA9420E0ED2CF12C19C0822F6A
:1019700090E0402F50E0481B590BB701680F791FCA
:101980006A587D4F8A589D4F0E94A43F10922602AC
:10199000202F8FB7F89490913603191761F08FBFFD
:1019A00010913603012F0D1911F78FB7F89490910C
:1019B00036031913F4CF009336038FBFF1E0CF1233
:1019C00008C081ED95E09F938F930E94B1380F90EE
:1019D0000F900E9481256B017C012E893F89488DE3
:1019E000598D621B730B840B950B80903302909082
:1019F0003402A0903502B09036023FEF831A930A6A
:101A0000A30AB30A8092330290923402A092350264
:101A1000B092360240902F02509030026090310216
:101A200070903202460E571E681E791E40922F0299
:101A3000509230026092310270923202611571054B
:101A400041E08407910508F02EC39B01AC010E9480
:101A5000EB3EDC01CB0181509F4FAF4FBF4F892F31
:101A60009A2FAB2FBB2740912B0250912C026091F3
:101A70002D0270912E02840F951FA61FB71F841789
:101A80009507A607B70718F48FEF9FEFDC01809347
:101A90002B0290932C02A0932D02B0932E02409122
:101AA00055025091560260915702709158025C5451
:101AB0006B437B4F2F2DC416D506E606270B27FD5B
:101AC000FFCBBF93AF939F938F937F926F925F9261
:101AD0004F92BF92AF929F928F9285E796E09F932D
:101AE0008F930E94B1386DB77EB7625F7F4F0FB69C
:101AF000F8947EBF0FBE6DBF809155029091560243
:101B0000A0915702B0915802C816D906EA06FB0602
:101B100098F48091510290915202A0915302B09199
:101B200054020196A11DB11D80935102909352025F
:101B3000A0935302B0935402C0925502D092560221
:101B4000E0925702F092580210922B0210922C024F
:101B500010922D0210922E0210922F02109230023B
:101B6000109231021092320210923302109234021B
:101B70001092350210923602A3CB82E389831A8237
:101B80000E9481254B015C01960142E061E0F70172
:101B9000848595850E944E160E948125DC01CB012B
:101BA00088199909AA09BB0981329340A105B10599
:101BB00008F02EC2998197FD67C284189508A6087F
:101BC000B708D70150968C918823C1F02FEF280FCA
:101BD00041E050E002C0440F551F2A95E2F7052E60
:101BE000000C660B770B840E951EA61EB71E04C054
:101BF000B694A794979487948A95D2F7BFEF8B16E3
:101C00009104A104B10408F0B0C22A8130E0220F8F
:101C1000331F892F90E0982F8827990F822B932BC1
:101C2000F7012689E20FF11D878A808F918F2D5F42
:101C3000D70156962C936ACDCB8481E089831A8292
:101C40001B821C829E012F5F3F4F43E061E084892D
:101C500095890E944E1669817A818B819C810E94B0
:101C60001D3FBB27A92F982F872F9C01AD0144272B
:101C700055272A8B3B8B4C8B5D8B89821A829E0168
:101C80002F5F3F4F42E061E0D50154968D919C91CA
:101C900055970E944E168A81982F9C7F8A89817061
:101CA000E92EE82A0A891B892C893D89B301A20102
:101CB000C5010E94BF2968CCCB8419821A821B827D
:101CC0001C829E012F5F3F4F44E061E0F501848953
:101CD00095890E944E1669817A818B819C810E9430
:101CE0001D3FF62FF770EF2E8B019C01B301A2016F
:101CF000C5010E94BF2948CC2B852A8B99821A8264
:101D00001B821C829E012F5F3F4F44E061E084896B
:101D100095890E944E1669817A818B819C810E94EF
:101D20001D3F6B017C01BFE0B9831A829E012F5FCA
:101D30003F4F42E061E0F501848995890E944E168B
:101D4000970186013327CA88EA80B301A201C50141
:101D50000E94BF2919CCAB84F8012B2D11922A9532
:101D6000E9F7C982980149E061E01C968D919C9148
:101D70001D970E944E16D70153968C9190E0FC015E
:101D80007496EE0DFF1D3B81232F207FE1F0203F55
:101D9000D1F0D482D382D282D182F701E80FF91F29
:101DA000D48AF70183898B5F838B803308F013C259
:101DB000D7011E968C911E978E7F1E968C93C7011D
:101DC0000E94332247CC2D81422F407F09F0BBC1B6
:101DD0005F81452F407F11F0403FD9F6488540395B
:101DE000C1F649854F77942EB0E2B41790F2D7012F
:101DF000A80FB91F4A8154964C938C8181838E81A0
:101E00008283852F90E03F71AC01440F551F4295AE
:101E10005295507F5427407F5427342B3383880FAB
:101E2000991F880F991F80762F71822B8483D70189
:101E300053968C9153978B5F53968C93803308F411
:101E4000D0C1CAC1AF8450968D919C915197C097D3
:101E500058F1B982D6011C96ED91FC911D9786012F
:101E6000085E1F4F20E3AE014F5F5F4F61E080814E
:101E70000E94691B80E3F601878B80899189C09756
:101E8000918B808B6A2DC60143960E947721D601E3
:101E900050968D919C915197C09770F110922602A7
:101EA00081E0809345025DCCD6011C96ED91FC91BA
:101EB0001D979B868E010F5F1F4F22E0AE01455F8D
:101EC0005F4F61E080810E94691B89818F7190E082
:101ED000982F88272A81822BF60126853785281797
:101EE000390710F497878687D60151969C938E9375
:101EF0005097C0970CF0ADCFF60182898E7F828B10
:101F0000C6010E947F222DCC2F84F401242D119232
:101F10002A95E9F75B861C8669825396AC905397A5
:101F2000B12C650134E1C30ED11CC00ED11E940149
:101F300047E061E01C968D919C911D970E944E1682
:101F40009E01255F3F4F42E061E0D8011C968D91D4
:101F50009C911D970E944E168C85B82FBF733B2E07
:101F60008074782EF801EA0DFB1D8A81848B8B81A9
:101F7000F60181838C8182838D8183838E8184832A
:101F80008F818583D80153968C9153978A5F53969E
:101F90008C938F3208F0AEC1772031F0F80181893F
:101FA00092890196928B818B332009F49DC1D801CF
:101FB0001E968C911E978E7F1E968C93C8010E9450
:101FC0003322F4CB8FE789838EEF8A830E948125A9
:101FD0006A8B7B8B8C8B9D8B960142E060E0F701D6
:101FE000848595850E944E160E9481254B015C01D7
:101FF000DC01CB012A893B894C895D89821B930BCB
:10200000A40BB50B81329340A105B10508F4BBC008
:10201000D70156968C91F701E80FF11DBFEFB78BF2
:1020200092E0908F118E8D5FF701868B6FCB318D93
:10203000308F7894AC01415F5F4F5F934F931F9255
:102040002F93FC0187891F928F9389811F928F9311
:102050001F930F930E94B1382DB73EB7265F3F4FB5
:102060000FB6F8943EBF0FBE2DBFD1C9288939895C
:10207000E217F30709F008C1809590E02A8530E067
:102080008217930709F43CC1D70156968C91F7014A
:10209000E80FF11DBFEFB78B93E0C3CFCE8ADF8A85
:1020A000E88EF98E34C96115710550E185079105F7
:1020B00008F0EACC8B019C0101501F4F2F4F3F4F7E
:1020C0005527432F322F212F0E94EB3EDC01CB01FD
:1020D00040912B0250912C0260912D0270912E02A2
:1020E000840F951FA61FB71FCACCC09077028C2DF6
:1020F000807F803109F00ECC1D1508F46ACC8D2D3F
:1021000090E0FC01EB58FD4F20812E3709F002CC06
:102110009C012D583D4F4901FC01EC58FD4F908129
:10212000D9018C91292F30E07901F82A6DEF6D0DDE
:1021300086E792E00E949725E816F90609F49EC109
:10214000B0907602E7CB403F09F023CE41CE1C92FF
:10215000F601E15BFF4F60813497808191810E949D
:10216000F127D60153968C91A7CBF7018689E80F0A
:10217000F11D2FEF278B91E0908F118E8D5FD7018E
:1021800056968C93C3CA80EC89831A82960142E0EA
:1021900061E0D7011C968D919C911D970E944E166F
:1021A00049812A81942F9227892F82958F709827B1
:1021B000892F869586958927982F9695892780FD62
:1021C000B3C046FFE8C0F7018689E80FF11D2FEF85
:1021D000278B35E0A2C0912C6A2DC7010F960E9473
:1021E0007721BEE1B91508F058C2F70181899289BB
:1021F0000196928B818B1092260281E080935B0284
:1022000029CAD7011C96ED91FC911D971481B281CA
:10221000BA8B038140E06B2F702F812F0E948D1CA1
:102220000E9481254B015C01E0E18E0E911CA11CF6
:10223000B11C0E9481252B2D86169706A806290B16
:1022400027FFF7CFF89441E06A89702F812F0E9411
:102250008D1C0E9481254B015C017894D601EAE037
:102260001D92EA95E9F7F4E8F98323E22A839601BF
:102270004AE061E0D7011C968D919C911D970E94C8
:102280004E16FE01339685E09191892728E030E0D3
:1022900005C0880F2150310909F4E8CE87FFF9CF36
:1022A000880FBDE18B27F6CF5489658990892189F4
:1022B000328943898F5F858F78946F935F934F93B3
:1022C0003F932F939F9389811F928F931F930F9317
:1022D0000E94B1386DB77EB7665F7F4F0FB6F89436
:1022E0007EBF0FBE6DBF6BC81092260281E0809347
:1022F00046025CCA622DC8010F960E9477214CCE1F
:10230000898584FF38C08B8187FD87C0F701868966
:10231000E80FF11D2FEF278B34E0308F118E8D5F8A
:10232000D70156968C93F2C9F7018689E80FF11D03
:102330002FEF278B93E020CFF601EC5AFF4F20813F
:10234000318142815381E92F621773078407E50BBE
:10235000E7FF9FCAAFCAF601EC5AFF4F6083718353
:1023600082839383369760813397808191810E9425
:10237000F12780E09DCAD70156968C91F701E80FAE
:10238000F11DBFEFB78B25E0208F118E8D5FD70138
:1023900056968C93BBC984189508A608B708F70110
:1023A00030893323C9F08FEF830F61E070E002C002
:1023B000660F771F8A95E2F7CB01092E000CAA0B56
:1023C000BB0B880E991EAA1EBB1E04C0B694A79410
:1023D000979487943A95D2F77FEF87169104A104DA
:1023E000B10408F041C0842F90E0AC01542F442781
:1023F000550F550FF4E02F9FC0011124842B952B0E
:10240000D70156962C91F701E20FF11D878A808F34
:10241000918F2D5FF701268B79C984189508A6083E
:10242000B708B1E58B16B5E59B06A104B10408F029
:102430009CCE2C8130E0220F331F90E0982F88270C
:10244000990F822B932BF7013689E30FF11D2F8112
:1024500026952F73278B808F918F3D5FD7015696DE
:102460003C9354C911E07CCAD70156968C91F70170
:10247000E80FF11DBFEFB78B91E0D3CD802F8D7F9B
:1024800080932A0280910902C81205C181E08C0D57
:102490008F70806180930902B8E78B16B2E09B06CB
:1024A00009F008F4C1C0E8E7F2E010ED212E15E0D4
:1024B000312EDC8ECDB6DEB68F010F5F1F4F20812F
:1024C000222309F4E5C0F1018491281708F0E0C047
:1024D00030E0220F331F220F331F220F331FF90169
:1024E000E75EFC4FE4914DB75EB764E0E69F4019AC
:1024F000510911240FB6F8945EBF0FBE4DBF8DB7C2
:102500009EB70196F901E55EFC4F4491F901E45E46
:10251000FC4F65917491FB01640F711DAC01DB8A66
:10252000CA8A9B8F8A8FE617F70709F482C0801644
:10253000910608F46EC0A491A53028F1A73009F0E7
:1025400068C02801BFEF4B1A5B0AD801AC9082012A
:102550000A0D111D8016910608F45BC0B12CC12C28
:10256000D12CDA01AD92BD92CD92DC921397612C01
:10257000712C14964D925D926D927C921797485FE4
:102580005F4F3196D0CF7A0184E0E80EF11C6801EC
:102590009FEFC91AD90AD8011C91912F9F77492E14
:1025A000512C612C712C012F00760036A9F117FFF8
:1025B0003EC086010F5F1F4FD80111978C91440CCC
:1025C000551C661C771C440C551C661C771C440C5F
:1025D000551C661C771C440C551C661C771C440C4F
:1025E000551C661C771C440C551C661C771C440C3F
:1025F000551C661C771C982F9F77492A87FDDACFD8
:10260000DA014D925D926D927C921397A7013196FB
:102610008ACF87E00E947A3EB0EE4B2A55245A9426
:10262000652C762CC4CFDC8CCC24C3949CC9860149
:10263000E7CFCA88DB888A8D9B8D4091270244238F
:1026400031F0F901E65EFC4FE491E0FF11C0225E3B
:102650003C4FF90125913491F90119950FB6F89481
:10266000DEBE0FBECDBE08151905E8F6F80122CF73
:10267000809128021F928F93E4E8F6E0FF93EF9396
:102680000E94B1380FB6F894DEBE0FBECDBEEBCFC0
:1026900085E00E947A3E1D2D5BC9F1E0F91508F432
:1026A000AACD86CBCF93DF93EC016FE673E18881EF
:1026B0000E94582EFC018C819D81AE81BF81892BA7
:1026C0008A2B8B2B51F420E0F89494A59D7F922BBC
:1026D00094A77894DF91CF91089522E0F5CF0F93DE
:1026E0001F93CF93DF938C014DE250E06FE673E1CF
:1026F000FC0180810E94292EEC01F80184851816C6
:102700000CF041C064E06CA7F80184810E942F2482
:102710006A8F7B8F8C8F60E0F80180850E942F2468
:102720006D8F7E8F8F8F80E090E0A0E0B0EC88A36B
:1027300099A3AAA3BBA3F80180899189A289B3892F
:102740008E8B9F8BA88FB98F6BE070E0CE01849643
:102750000E94BA2E8E899F89A88DB98D8997A1056F
:10276000B10548F089E794E19B838A83DF91CF919B
:102770001F910F9108958CA580618CA7DF91CF9157
:102780001F910F91089560E0BECFCF93DF93EC01CE
:102790006FE673E188810E94582EFC018C819D8137
:1027A000AE81BF81F8944685578560897189452B34
:1027B000462B472B79F484839583A683B783828B3A
:1027C000938BA48BB58B84A5877F84A77894DF91A6
:1027D000CF91089586E10E947A3E0F931F93CF9385
:1027E000DF938C016FE673E1DC018C910E94582E1F
:1027F000EC010E94D42EFC01D80114964D915D91FC
:102800006D917C91179742835383648375831896E7
:102810008D919C91199791878087892B09F466C0C7
:10282000D8011C968D919C911D9797838683128663
:10283000F8948CA5282F217081FB992790F92917EE
:1028400029F091E089279285916092874E855F8576
:1028500068897989452B462B472B59F583FD19C08B
:102860008CA7118210828CA19DA1892BA9F1AEA108
:10287000BFA1ED93FC93FFA3EEA3CE010E94DD3731
:10288000CE010E94153C7894DF91CF911F910F915A
:102890000895809148029091490291838083F0933A
:1028A0004902E09348027894DF91CF911F910F91F4
:1028B00008958CA7118210828CA19DA1892B89F08B
:1028C000AEA1BFA1ED93FC93FFA3EEA37894DF919B
:1028D000CF911F910F910895FFA3EEA3FDA3ECA349
:1028E000CCCFFFA3EEA3FDA3ECA3CDCF87E10E9445
:1028F0007A3ECF92DF92EF92FF920F931F93CF9386
:10290000DF93EC01EA8DFB8D8C8D80830E94812505
:102910000E891F89288D398D6B017C01C00ED11E57
:10292000E21EF31E8E859F85A889B9890197A109AA
:10293000B1098E879F87A88BB98B80FF0EC0CC8290
:10294000DD82EE82FF8281E0DF91CF911F910F91B6
:10295000FF90EF90DF90CF900895892B8A2B8B2BDF
:1029600059F1488559856A857B858A899B89AC8917
:10297000BD89840F951FA61FB71F8A8B9B8BAC8BBD
:10298000BD8B0C851D85012E000C220B330B400FD7
:10299000511F621F731F488759876A877B872B2FB8
:1029A0008C159D05AE052F0927FDC9CF8C839D830E
:1029B000AE83BF8381E0C8CFCE010E94DD37811195
:1029C00002C080E0C1CF4C815D816E817F81972FF5
:1029D0004C155D056E059F0997FFB6CF4C195D0933
:1029E0006E097F094038514C6F4F7F4F0CF0A7CFD5
:1029F00088E10E947A3E46E050E06DE275E1FC011C
:102A000080810C94292ECF92DF92FF920F931F9317
:102A1000CF93DF93EC016DE275E18C810E94582E1B
:102A20006C01F8840F2D10E0A8014D5F5F4F63E04B
:102A300075E188810E94292EFC01D182C082F28238
:102A40006C857D85A8010396DF91CF911F910F9131
:102A5000FF90DF90CF900C949B3FFF920F931F93BA
:102A6000CF93DF938C0146E050E06DE275E1FC010D
:102A700080810E94292EEC01F801F08461E0F110C0
:102A800060E0F80184810E942F246A837B838C8319
:102A90008D81F11009C091E0892B8D83DF91CF9159
:102AA0001F910F91FF90089599E0892B8D83DF91FD
:102AB000CF911F910F91FF9008950F931F93CF9384
:102AC000DF938C0162E676E2FC0180810E94582E41
:102AD000EC010E94C33B909100028A8D981303C0C1
:102AE0008FEF80930002F80184819581A681B781E0
:102AF000888B998BAA8BBB8B8C839D83AE83BF8382
:102B000080859185A285B3858C879D87AE87BF8799
:102B100084858E8F91E0980F9D8F408951896289BD
:102B20007389488759876A877B87248935893F8BD2
:102B30002E8B208D318D398F288F948D9C8F811114
:102B400005C0DF91CF911F910F910895CE01DF91C4
:102B5000CF911F910F910C94153C8BE10E947A3E0E
:102B60008F929F92AF92BF92FF920F931F93CF933A
:102B7000DF93EC016DE275E188810E94582E8C0193
:102B8000F88483E08F1508F484C0F801858186708D
:102B900009F07FC08C849D84AE84BF848C819D812C
:102BA000AE81BF81892B8A2B8B2B09F074C0E0EAA0
:102BB000F6E0A591B49111968C9180FD04C060E07F
:102BC00088E00E942F2460E089E00E942F2460E0CA
:102BD0008AE00E942F2460E08BE00E94541C80E574
:102BE0008CBD1DBC8114F2E19F06FAE7AF06B1046B
:102BF00008F041C0811489E098068DE3A806B1046D
:102C000018F5E0E88E16E4E89E06EEE1AE06B104A3
:102C1000C0F5F0E48F16F2E49F06FFE0AF06B104C2
:102C200068F580E2881681EA980687E0A806B10474
:102C300058F590E0E0E98E16E0ED9E06E3E0AE0682
:102C4000B10428F583E002C090E080E0CF2DCC0FE6
:102C5000CC0FC065C82BF801C08391838581846047
:102C60008583DF91CF911F910F91FF90BF90AF901F
:102C70009F908F90089591E080E0E8CF90E081E010
:102C8000E5CF91E081E0E2CF91E082E0DFCF82E02A
:102C9000DDCF0E94AD158EE20E947A3E6F927F9248
:102CA0008F929F92AF92BF92CF92DF92EF92FF925C
:102CB0000F931F93CF93DF934C01E62E142F6901DE
:102CC000DC0115967C901597872D867009F451C00C
:102CD00071FC39C0F401908181819CBD8DBDF72DBF
:102CE000F1706F2E70FCC8C0EE2009F49CC08FEF0D
:102CF000810F112351F0F60190819EBD0DB407FEA6
:102D0000FDCF9EB591938150B8F7662091F1072DC4
:102D1000069506950695402F40954170D401129670
:102D20006D917D918C91DF91CF911F910F91FF90CB
:102D3000EF90DF90CF90BF90AF909F908F907F905B
:102D40006F900C948D1CED91FC91418542706681D1
:102D5000778180850E948D1CB72DB1706B2E70FC21
:102D600017C0D401CD91DC91AA24AA94A10E11110F
:102D700026C0DF91CF911F910F91FF90EF90DF90D0
:102D8000CF90BF90AF909F908F907F906F9008955D
:102D9000072D069506950695402F4170F401628136
:102DA000738184810E948D1CD401CD91DC91AA2471
:102DB000AA94A10E112309F4AECF66246394B12C1A
:102DC0008FEFA81AB80AAC0CBD1CD601FC9008E025
:102DD00010E0898580FF35C0EE81FF818885808382
:102DE0004F2D40786B817C818D810E948D1CFF0C62
:102DF000EE81FF8188858083110FE881F9819081C0
:102E00008A81892391E009F490E0192B015009F798
:102E1000EE2011F0F6011083FFEFCF1ADF0AAC1499
:102E2000BD0499F672CFF6019601210F311D2E17C0
:102E30003F0709F46ACF81918EBD0DB407FEFDCF27
:102E4000F6CF4F2D40786B817C818D810E948D1C47
:102E5000FF0CEE81FF8188858083110FE881F98165
:102E600090818A81892391E009F490E0192BEE8109
:102E7000FF8188858083CACF73FA442740F9F40123
:102E80006281738184810E948D1C662463942CCF9F
:102E9000CF93DF93EC016DE275E188810E94582E9B
:102EA000288539854C8160E0DF91CF910C944E16D6
:102EB000FF920F931F93CF93DF93EC0118816DE284
:102EC00075E1812F0E94582E0C81F884C9852F2D21
:102ED0003C2F402F61E00E944E16CF93FF921F922D
:102EE0000F931F921F9383E496E09F938F930E940A
:102EF000B1388DB79EB708960FB6F8949EBF0FBE37
:102F00008DBFDF91CF911F910F91FF900895AF92E8
:102F1000BF92DF92EF92FF920F931F93CF93DF93B5
:102F2000FC01A485B585968547855089E18822896D
:102F30003389F488A588B6887789008D118DD28C65
:102F4000808586279C9384FD20C085FD22C086FD58
:102F500024C087FD26C09C93862F8295807F808722
:102F600068279C9364FD2AC065FD25C066FD1CC0D2
:102F700067FD1EC09C93DF91CF911F910F91FF9031
:102F8000EF90DF90BF90AF900895EA01E88285FF4F
:102F9000DECFE901F88286FFDCCFE501788387FF89
:102FA000DACFE801D882D7CFF501708367FFE2CF8F
:102FB000E801D882DFCFE901F882D8CFFA01E082B8
:102FC000D3CF5F926F927F928F929F92AF92BF9278
:102FD000CF92DF92EF92FF920F931F93CF93DF93E5
:102FE0008C01FC01C080D180E280F38084809580D8
:102FF000A680B78066246A94660E662301F1EA0112
:10300000712CFFEF6F1A7F0A640E751E59900E9493
:103010008125DC01CB018C199D09AE09BF098815FA
:103020009905AA05BB0598F3652DC8010E9487176D
:103030000E9481256B017C01C615D70539F7F8017F
:10304000C082D182E282F382DF91CF911F910F91F2
:10305000FF90EF90DF90CF90BF90AF909F908F90B8
:103060007F906F905F900895EF92FF920F931F9360
:10307000CF93DF938C0161EA70E3FC0180810E94B1
:10308000582E7C018FE090E00E948E38EC0188E899
:1030900093E19E878D87F8018089880F8C8761E096
:1030A00084810E94541C6E837F83888761E0F801CD
:1030B00084810E942F24688379838A8361E0F801E8
:1030C00080850E94541C69877A878B8761E0F801AC
:1030D00080850E942F246B837C838D83F701D283AC
:1030E000C183838181608383DF91CF911F910F9191
:1030F000FF90EF9008950F931F93CF93DF93EC0110
:1031000063EB78E188810E94582E8C01FC01618577
:103110007285838541E00E948D1C488559856C81AC
:10312000C801DF91CF911F910F910C94E1170F937C
:103130001F93CF93DF93EC0163EB78E188810E94CA
:10314000582E8C01FC0161857285838540E00E94C8
:103150008D1C488559856C81C801DF91CF911F91E5
:103160000F910C94E117CF92DF92EF92FF920F93A1
:103170001F93CF93DF93EC014BE150E063EB78E1D9
:1031800088810E94292E8C0160E08C810E942F246E
:10319000F80161877287838760E088850E942F2409
:1031A000F80164877587868760E08C850E942F24EC
:1031B000F8016787708B818B60E088890E942F24DB
:1031C000F801628B738B848B60E08C890E942F24C2
:1031D000F801658B768B878B60E0888D0E942F24A9
:1031E000F801608F718F828FF8940E9481256B01A6
:1031F0007C0160E0C8010E9487170E9481257894B5
:10320000DC01CB018C199D09AE09BF09CC8CDD8C8A
:10321000EE8CFF8C8C159D05AE05BF0548F4C81AD1
:10322000D90AEA0AFB0AF801C482D582E682F7824B
:10323000DF91CF911F910F91FF90EF90DF90CF9092
:103240000895DF92EF92FF920F931F93CF93DF9336
:10325000EC01D88883E08D15B0F16DE275E18881CD
:103260000E94582E7C018AE090E00E948E388C01EA
:1032700061E08C810E94541CF80160837183828319
:1032800060E088850E942F24F8016383748385831E
:1032900060E08C850E942F24F80166837783808705
:1032A000D186F7018581982F967081F4F7011183FB
:1032B000008382608583DF91CF911F910F91FF90F2
:1032C000EF90DF9008958BE10E947A3E0E94AD1549
:1032D000CF92DF92EF92FF92CF93DF93EC010E94A7
:1032E00081256B017C019E01A0E8BEE30E94243F82
:1032F00020E432E44FE050E00E94FB3EC20ED31EB9
:10330000E12CF12C0E9481256C157D058E059F0511
:10331000C8F3DF91CF91FF90EF90DF90CF900895A9
:103320000F931F93CF93DF93EC01062F18E01DC07E
:103330006B817C818D8140E00E949C1C000F8D85FB
:103340009E850E9468196E817F81888541E00E9478
:103350003E1C8D859E850E946819688179818A81CD
:1033600040E00E949C1C115049F007FFE1CF6985A5
:103370007A858B8541E00E943E1CE0CF69857A8585
:103380008B8541E00E943E1C8D859E850E946819B8
:103390006E817F81888541E00E943E1CE985FA8527
:1033A00010818B8518238D859E850E946819688100
:1033B00079818A8140E00E949C1C69857A858B8591
:1033C00041E00E943E1C111105C0DF91CF911F9179
:1033D0000F91089585E20E947A3E4F925F926F921C
:1033E0007F928F929F92AF92BF92CF92DF92EF9295
:1033F000FF920F931F93CF93DF938C01562E3A01C8
:10340000FC0180809180A280B380C480D580E6805A
:10341000F780EA012196FA014080642D607F0E94C6
:1034200019360E948125DC01CB0188199909AA0966
:10343000BB098C159D05AE05BF0598F3642D6295FB
:10344000607FC8010E9419360E9481256B017C01B2
:10345000F80180849184A284B384F1E05F1639F18D
:103460005A945A94852D90E00296680E791E5990D0
:10347000652D607FC8010E9419360E948125DC01FC
:10348000CB018C199D09AE09BF0988159905AA05BC
:10349000BB0598F3652D6295607FC8010E941936BF
:1034A0000E9481256B017C01C615D70501F7F80143
:1034B000C082D182E282F382DF91CF911F910F917E
:1034C000FF90EF90DF90CF90BF90AF909F908F9044
:1034D0007F906F905F904F9008950F931F93CF93BD
:1034E000DF938C0180913F0290914002892B09F07B
:1034F0004BC060913E0270E0623071052CF482E0B6
:1035000080933E0262E070E0E0913A02F0913B026B
:103510004DB75EB741505F4F44275A959F01C0E0B9
:10352000D0E0C901860F971F4817590730F121963F
:103530009C01C115A4E0DA07A1F78E1B9F0B0E9426
:103540008E38D0934002C0933F0290933D02809307
:103550003C020E94702EF80180819181A281B3818A
:103560008093410290934202A0934302B09344029D
:10357000DF91CF911F910F910895209711F0C9010C
:10358000DCCF80E10E947A3E8DE00E947A3ECF93AC
:103590002091380230913902232B91F4FC01C08133
:1035A0008C2F90E0880F991F880F991F0E948E38EA
:1035B0009093390280933802C0933702CF910895D7
:1035C0008AE00E947A3E80913F02909140029F9350
:1035D0008F9321E030912702311101C020E01F922A
:1035E0002F93209144022F93209143022F932091F7
:1035F00042022F93209141022F9321E0892B09F45D
:1036000020E01F922F9386E696E09F938F930E946F
:10361000B1388DB79EB70C960FB6F8949EBF0FBE0B
:103620008DBF0895CF93DF93EC01988140913702CD
:10363000A0913802B09139020BC0FD0184E0989F3F
:10364000E00DF11D1124208131812617370741F04B
:103650009F5F941790F380E090E0DF91CF91089501
:10366000988382819381DF91CF910895CF92DF92E9
:10367000EF92FF926B017C0109C00E948125292FE6
:103680006C157D058E052F0927FF09C08091BC00B0
:1036900087FFF3CFFF90EF90DF90CF90089580E306
:1036A0000E947A3E24EA2093BC000E94361B80913F
:1036B000B90090E0A0E0B0E080319105A105B1052E
:1036C00021F00897A105B10509F408958FE20E9441
:1036D0007A3E7F928F929F92AF92BF92CF92DF926B
:1036E000EF92FF920F931F93CF93DF93782EC62F05
:1036F000942EB52E822E0E9481256B017C0120E83C
:10370000C20E28E3D21E21E0E21EF11CC701B60161
:103710000E94521B7092BB0084E88093BC00C701DA
:10372000B6010E94361BAA24AA94AC0ECC23B1F099
:10373000C92DDB2DB12C8FEFA81AB80AAC0EBD1E17
:1037400094E8992E89918093BB009092BC00C701A8
:10375000B6010E94361BAC16BD06A1F7C701B60123
:103760000E94521B872D81608093BB0084E8809368
:10377000BC00C701B6010E94361BDFEFD80D8820C0
:1037800009F15801CD2F84EC982ECC2369F090924A
:10379000BC00C701B6010E94361B8091BB00F50139
:1037A00081935F01C15099F7F801ED0FF11DEF0111
:1037B00084E88093BC00C701B6010E94361B80914B
:1037C000BB00888384E98093BC00DF91CF911F9177
:1037D0000F91FF90EF90DF90CF90BF90AF909F90B0
:1037E0008F907F900895BF92CF92DF92EF92FF92D9
:1037F0000F931F93CF93DF93D82FC62FB42E152F7F
:103800000E9481256B017C0120E8C20E28E3D21EB4
:1038100021E0E21EF11CC701B6010E94521BD093A9
:10382000BB0084E88093BC00C701B6010E94361B30
:103830000FEF0C0FCC23A9F0CB2DD12F10E00F5F91
:103840001F4F0C0F1D1F84E8B82E89918093BB0079
:10385000B092BC00C701B6010E94361BC017D10749
:10386000A1F784E98093BC00DF91CF911F910F9164
:10387000FF90EF90DF90CF90BF900895FB012FB79E
:10388000F8949281141644F4982B80959283918138
:10389000892381832FBF08958095982392839181F6
:1038A000892381832FBF08958036A0F567FD32C03C
:1038B000E82FE695E695E695F0E0EE0FFF1FE2565D
:1038C000F94FA591B491109729F1877021E030E06C
:1038D000A90102C0440F551F8A95E2F7CA014FB7EC
:1038E000F89412963C911297662381F0382B282F7A
:1038F000209512963C93129711963C911197232391
:1039000011962C9311974FBFBD010895282F209534
:103910003223EFCF8BE20E947A3EFB012FB7F8945F
:103920009281411105C08095892382832FBF08951C
:10393000892B82832FBF0895FB012FB7F8949281C2
:10394000411109C0382F3095932392839181892B9F
:1039500081832FBF0895982B92839181892B818336
:103960002FBF0895CF92DF92EF92CF93DF93EC01B8
:1039700061E088859985AA85BB85892B8A2B8B2B4D
:1039800009F460E08C810E942F246B01E82E44E250
:1039900050E062EB7CE188810E94292EFC01C48A00
:1039A000D58AE68A21E0488559856A857B85452B3D
:1039B000462B472B09F420E04C855D856E857F857D
:1039C000452B462B472BB1F430E0232BFC0123A3DE
:1039D000488959896A897B89478B508F618F728F9B
:1039E0006AE070E04F96DF91CF91EF90DF90CF903B
:1039F0000C94BA2E30E1E9CFCF93DF93EC0162EB68
:103A00007CE188810E94582EF894FC01278D30A11A
:103A1000232B69F44C815D816E817F81FC01438F92
:103A2000548F658F768F7894DF91CF91089584E1DC
:103A30000E947A3E8F929F92AF92BF92CF92DF9276
:103A4000EF92FF921F93CF93DF93EC01EF8CF8A0DE
:103A5000E114F10409F4F0C0F7018081918198A389
:103A60008F8F86809780A084B18411E081149104A7
:103A7000A104B10409F4A1C06C897D898E89412F0C
:103A80000E948D1C8091480290914902F701918318
:103A90008083F0924902E092480281149104A104CB
:103AA000B104E9F08B8D9C8DAD8DBE8D8816990685
:103AB000AA06BB06A0F44F89588D698D7A8D4115F1
:103AC00051056105710509F45BC08C819D81AE8152
:103AD000BF81480F591F6A1F7B1F166022C08BA130
:103AE00031E081149104A104B10409F068C084FBA1
:103AF000992790F921E09227391709F443C04F899B
:103B0000588D698D7A8D4115510561057105D1F189
:103B10008C819D81AE81BF81480F591F6A1F7B1F19
:103B20001460EF8DF8A1309709F077C02BA1488B76
:103B3000598B6A8B7B8B2071212B2BA311FF5FC0CC
:103B4000880D991DAA1DBB1D12FD52C020EB33E349
:103B50003B832A838C839D83AE83BF83888699862B
:103B6000AA86BB868B8D9C8DAD8DBE8D88199909DB
:103B7000AA09BB098C879D87AE87BF8781E011C0EA
:103B800012608BA1EF8DF8A13097D9F4188A198AA9
:103B90001A8A1B8A8071812B8BA3812F827011FD61
:103BA00034C0DF91CF911F91FF90EF90DF90CF90C5
:103BB000BF90AF909F908F90089510E05DCF30E060
:103BC00096CF4281538164817581488B598B6A8B72
:103BD0007B8B8071912F9460892B8BA311FF0FC079
:103BE0008C819D81AE81BF81880D991DAA1DBB1D51
:103BF0002B2F84179507A607270B27FDA7CF4C83EC
:103C00005D836E837F8381E0CCCF40E050E0BA01DA
:103C10008C819D81AE81BF8193CFC280D380E480AF
:103C2000F580872F4C155D056E058F0987FD07C050
:103C30008BA1B701A601C9CF85E10E947A3E83E13D
:103C40000E947A3EFC01868580FF06C02189328968
:103C50002F5F3F4F328B218B81FF0DC0DF01A85BAF
:103C6000BF4F0D90BC91A02D2C91DF01A65BBF4FE3
:103C70009C91922339F4816086871092260281E01C
:103C80008093470244815581668177818085918543
:103C9000A285B385840F951FA61FB71F84839583C4
:103CA000A683B78381E00895FC019685916096878D
:103CB0001092260281E08093460280E00895FC0184
:103CC00092899160928B1092260281E08093450246
:103CD00080E008950F931F93CF93DF93FC01C08181
:103CE000D1811281038163EF7EE18C2F0E94582ED7
:103CF000FC01EC5AFF4F23812F9322812F932181C6
:103D00002F9320812F933797808182FB882780F91A
:103D10001F928F930F931F93DF93CF938BE196E0C6
:103D20009F938F930E94B1388DB79EB70C960FB6B4
:103D3000F8949EBF0FBE8DBFDF91CF911F910F9161
:103D400008950F931F93CF93DF938C0163EF7EE170
:103D5000DC018C910E94582EEC01F8018085918540
:103D6000A285B385FE01E05BFF4F80839183A28330
:103D7000B383892B8A2B8B2B59F4359711821082B0
:103D8000C35BDF4F1882DF91CF911F910F91089590
:103D9000F80184819581A681B781FE01EC5AFF4F1D
:103DA00080839183A283B38360E576E2D8011C9679
:103DB0008C910E94582EFE01E55BFF4F918380831A
:103DC0003396D80150968C915097808331965496B3
:103DD0008C918083C35BDF4F86E08883DF91CF9136
:103DE0001F910F9108950F931F93CF93DF938C0131
:103DF00048E550E063EF7EE1FC0180810E94292EBE
:103E0000EC0182E29EE19B838A8361EA70E3F80120
:103E100084810E94582E9D878C87DF91CF911F91BE
:103E20000F9108950F931F93CF93DF938C0148E474
:103E300050E062E17FE1FC0180810E94292EEC01CB
:103E400084E59EE19B838A836DE275E1F8018481BC
:103E50000E94582E9D878C87DF91CF911F910F91E3
:103E600008950F931F93CF93DF938C014CE450E0A0
:103E700061E37FE1FC0180810E94292EEC018FE546
:103E80009EE19B838A8361EA70E3F80184810E944A
:103E9000582E9D878C87DF91CF911F910F910895A8
:103EA0000F931F93CF93DF938C0163EF7EE1FC01AF
:103EB00080810E94582EEC010E94C33B8E858E7F2C
:103EC0008E87F80184819581A681B7810097A1052D
:103ED000B105F1F088879987AA87BB87188A1F8662
:103EE0001A8A198A1B8AF8940E94812508851985E7
:103EF0002A853B85DC01CB01800F911FA21FB31FD8
:103F00008C839D83AE83BF83CE010E94153C789441
:103F1000DF91CF911F910F9108950F931F93CF932E
:103F2000DF938C0162EC7AE3FC0180810E94582EC1
:103F3000EC010E94C33B1E86F80180859185A28515
:103F4000B385892B8A2B8B2B29F4DF91CF911F917D
:103F50000F91089584819581A681B7818C839D837B
:103F6000AE83BF8380859185A285B3858887998735
:103F7000AA87BB871B8A1A8A1D8A1C8A1E8A848587
:103F8000888BCE01DF91CF911F910F910C94153C3E
:103F90002F923F924F925F926F927F928F929F9259
:103FA000AF92BF92CF92DF92EF92FF920F931F9347
:103FB000CF93DF9300D01F921F92CDB7DEB73C01A5
:103FC00061E37FE1DC018C910E94582E4C018AE371
:103FD0008B83D4011C96ED91FC911D978E010C5F93
:103FE0001F4F21E0AE014D5F5F4F61E080810E9475
:103FF000691B8C8184FF06C0F4018589968901962E
:10400000968B858B82E78D830E9481251B012C0175
:10401000D4011C96ED91FC911D978E010F5F1F4FEF
:1040200022E0AE014B5F5F4F61E080810E94691B1F
:104030000E94812529812F71A22EB12CBA2CAA248D
:104040002A81A22A0B2C000CCC08DD087B018C01F4
:10405000E218F30804091509A2019101F301608136
:10406000C40143960E94B6250F900F900F900F90B9
:104070000F90DF91CF911F910F91FF90EF90DF9004
:10408000CF90BF90AF909F908F907F906F905F90F8
:104090004F903F902F900895EF92FF920F931F93B0
:1040A000CF93DF93EC010E94F31E63EF7EE18881E2
:1040B0000E94582E8C017C0188E4E80EF11C61E01E
:1040C00088850E94541CF70160837183828382E09B
:1040D000F8018687DF91CF911F910F91FF90EF90AC
:1040E00008952F923F924F925F926F927F928F929C
:1040F0009F92AF92BF92CF92DF92EF92FF920F9377
:104100001F93CF93DF931F921F92CDB7DEB73C0171
:1041100062E17FE1FC0180810E94582E4C018FEA10
:1041200089831A820E9481251B012C019E012F5F29
:104130003F4F42E061E0F401848595850E944E1670
:104140000E9481252A812F71F6E02F9F50011124B2
:104150000B2C000CCC08DD087B018C01E218F30865
:1041600004091509A2019101F3016081C4010F96B0
:104170000E94B6250F900F90DF91CF911F910F9164
:10418000FF90EF90DF90CF90BF90AF909F908F9077
:104190007F906F905F904F903F902F9008957F9207
:1041A0008F929F92AF92BF92CF92DF92EF92FF9247
:1041B0000F931F93CF93DF937C01DC01DC9162ECC2
:1041C0007AE38D2F0E94582E8C01F701C481B084B0
:1041D000A184DC011F969C90B2E09B1609F44FC0AD
:1041E0000E9481256B017C012B2D3A2D4C2F61E023
:1041F000D8011C968D919C911D970E944E160E948D
:1042000081258B019C010C191D092E093F090132E2
:1042100013402105310558F54C2F50E0E1E09E1682
:1042200059F1AF92BF925F934F93FF92EF92DF925B
:10423000CF921F92DF9380E296E09F938F930E942C
:10424000B1388DB79EB70C960FB6F8949EBF0FBECF
:104250008DBFDF91CF911F910F91FF90EF90DF9075
:10426000CF90BF90AF909F908F907F90089540E047
:1042700050E0E1E09E12D5CF6B017C01D2CFDC0192
:104280001C96ED91FC911D9794808280738040E094
:10429000682D772D892D0E948D1C0E9481256B0130
:1042A0007C01B0E1CB0ED11CE11CF11C0E948125E8
:1042B0002F2DC616D706E806290B27FFF7CFF8944F
:1042C00041E0682D772D892D0E948D1C0E9481254B
:1042D0006B017C0178942B2D3A2D4C2F61E0F80175
:1042E000848595850E944E164C2F50E09ACFCF932F
:1042F000DF93EC0105969F938F938C811F928F9390
:1043000089818F9388818F931F926F9381E196E0CB
:104310009F938F930E94B1381C8288819981019666
:10432000998388838DB79EB70A960FB6F8949EBF7F
:104330000FBE8DBFDF91CF9108950F931F93CF9341
:10434000DF9300D0CDB7DEB7DC011C96ED91FC9178
:104350001D9788E18B838E010F5F1F4F22E0AE0116
:104360004D5F5F4F61E080810E94691B89819A8166
:104370009827892798270F900F900F90DF91CF9162
:104380001F910F9108954F925F926F927F928F923B
:104390009F92AF92BF92CF92DF92EF92FF920F93D4
:1043A0001F93CF93DF934C0163EF7EE1FC0180818B
:1043B0000E94582EEC018E8581FF31C0F8940E9436
:1043C00081259B01AC01FE01E85BFF4F0190F0816C
:1043D000E02D9081FE01E65BFF4F80818923789478
:1043E0008823D9F1A12CB12C6501E12CF12C870196
:1043F000F4016081CE010F960E94B625DF91CF9126
:104400001F910F91FF90EF90DF90CF90BF90AF90F2
:104410009F908F907F906F905F904F9008950E9433
:1044200081252B013C01CE010E949D21182F0E9465
:10443000812513FD0CC0A12CB12C65017B018C01E1
:10444000E418F50806091709A3019201D1CF24E069
:10445000A22EB12CC12CD12CF1CF64E0A62EB12C10
:10446000C12CD12CC2CF0F931F93CF93DF93EC01BC
:10447000F8940E948125088519852A853B85DC01F1
:10448000CB01800F911FA21FB31F8C839D83AE832E
:10449000BF83CE010E94153C7894DF91CF911F918C
:1044A0000F9108950F931F93CF93DF938C0162E1D7
:1044B0007FE1FC0180810E94582EEC010E94C33BE9
:1044C0001E86F80184819581A681B7810097A10598
:1044D000B10529F4DF91CF911F910F91089588873D
:1044E0009987AA87BB87188A1F861A8A198A1B8A06
:1044F000CE01DF91CF911F910F910C9433220F9336
:104500001F93CF93DF93EC01F8940E9481250885D7
:1045100019852A853B85DC01CB01800F911FA21FE5
:10452000B31F8C839D83AE83BF83CE010E94153C55
:104530007894DF91CF911F910F9108950F931F935E
:10454000CF93DF938C0161E37FE1FC0180810E94C6
:10455000582EEC010E94C33B1A8AF8018481958190
:10456000A681B7810097A105B10529F4DF91CF910C
:104570001F910F91089588879987AA87BB871C8A06
:104580001B8A1E8A1D8A1F8A1F861E86198A188A00
:10459000CE01DF91CF911F910F910C947F228EE17C
:1045A0000E947A3E0F931F93CF93DF93FC01A18962
:1045B000B2898D919C911197928B818B16968D91DA
:1045C0009C911797C085D185228521113FC02FB7B7
:1045D000F894AC015527598348832FBF2091480296
:1045E0003091490211963C932E93B0934902A093C7
:1045F0004802A189B289109759F527853089821719
:10460000930741F083859485A585B6850097A1051C
:10461000B10531F480E0DF91CF911F910F910895A2
:104620004481558166817781840F951FA61FB71F2E
:1046300084839583A683B7838FEC92E293838283EE
:1046400081E0DF91CF911F910F9108958883C6CFAC
:1046500012964D915D916D917C91159727853089CA
:104660008217930741F083859485A585B6850097C9
:10467000A105B10551F4448355836683778381E0B6
:10468000DF91CF911F910F910895048115812681AB
:104690003781800F911FA21FB31F2B2F84179507FF
:1046A000A607270B27FFE7CF8DE10E947A3EEF9206
:1046B000FF920F931F93CF93DF937C0161ED73E221
:1046C000DC018C910E94582E8C010E94D42EEC01AA
:1046D000F70184819581A681B7818A839B83AC830E
:1046E000BD83808591859F838E83F894198218827B
:1046F000D80151968D919C915297892BB9F153967F
:10470000ED91FC915497D183C0835496DC93CE9362
:10471000539780E090E07894892B39F4DF91CF9122
:104720001F910F91FF90EF900895C8010E94C33B25
:10473000D80112968D919C9113978F5C9242F1F063
:104740008A819B81AC81BD8122ED32E2F801338305
:10475000228384839583A683B783C801DF91CF9199
:104760001F910F91FF90EF900C94153CF801D48BA2
:10477000C38BD28BC18B81E090E0CDCF8A819B81AE
:10478000AC81BD81F8014481558166817781272FF5
:10479000481759076A072B0B27FFD6CF8DE10E94D8
:1047A0007A3ECF92DF92EF92CF93DF93EC01488570
:1047B00059856A857B852C858C810E94E82E6B014A
:1047C000E82E45E150E061ED73E288810E94292ED8
:1047D000FC01C086D186E28688899989908B87877B
:1047E0008C899D89AE89BF8983879487A587B68781
:1047F00082ED92E29383828368E070E0CF0141967C
:10480000DF91CF91EF90DF90CF900C94BA2EB099BA
:104810000FC080914A0290914B02019610920602BD
:1048200010920502909308028093070281E0089598
:1048300081E086BB80914A0290914B020196909351
:104840004B0280934A0220E030E830930602209326
:104850000502909308028093070281E00895803654
:1048600078F5E82FE695E695E695F0E0EE0FFF1F68
:10487000E256F94FA591B491109711F1877021E09C
:1048800030E0A90102C0440F551F8A95E2F7CA0122
:104890003FB7F89412962C91129761110FC0409572
:1048A000242312962C93129711962C911197282B52
:1048B00011962C9311973FBFBD010895242BF1CF82
:1048C0008CE20E947A3E1F920F920FB60F92112433
:1048D0000BB60F92EF92FF920F931F932F933F937C
:1048E0004F935F936F937F938F939F93AF93BF93F8
:1048F000CF93DF93EF93FF930DC07A0180918400F3
:10490000909185008E199F0997FD7CC07894B2998B
:104910009AC0F894C0912202D0912302EA81FB81CF
:10492000309709F0ADC0EA8DFB8D2C8D20838E85EC
:104930009F85019709F4C1C09F878E8788859985D7
:10494000AA85BB854C815D816E817F81480F591F8F
:104950006A1F7B1F4C835D836E837F8320832CA51E
:1049600025FF0EC00C851D85012E000C220B330B7C
:10497000800F911FA21FB31F88879987AA87BB87C3
:10498000E881F9810481158126813781872F4017BD
:1049900051076207830B87FDB0CF7801F0932302A4
:1049A000E0932202A0912402B091250214960D9169
:1049B0001D912D913C911797872F40175107620742
:1049C000830B87FFFD01DF010190F081E02D048161
:1049D000158126813781872F401751076207830B86
:1049E00087FFF1CFF983E883CD93DC93D093250241
:1049F000C093240280918400909185008E199F09B4
:104A000097FF84CF863A9F4F0CF06AC0F0928900DE
:104A1000E0928800FF91EF91DF91CF91BF91AF912C
:104A20009F918F917F916F915F914F913F912F91C6
:104A30001F910F91FF90EF900F900BBE0F900FBE44
:104A40000F901F901895F8948091840090918500A4
:104A50009701281B390B2038314CDCF120912602BC
:104A600027FF43C09C01205C304E30938B00209385
:104A70008A0024E026BB90938900809388003ECF73
:104A8000CE0119954C815D816E817F81811178CF36
:104A9000E881F981E480F580F0932302E09322021B
:104AA0008091240290912502C817D90709F026CFDA
:104AB000F0932502E093240221CFCE010E94DD373E
:104AC000EA8DFB8D9C8D90834C815D816E817F8111
:104AD000DDCF209127022111C1CF8AE20E947A3EC8
:104AE0007894B299B0CFF89409CF9C012854344FF0
:104AF00030938B0020938A0024E026BB7C01F39442
:104B000085CF2FB7F89460918400709185008091D3
:104B10004A0290914B02B09902C02FBF08952FBF57
:104B20007F3FE1F30196089578940E94933C2FEF24
:104B3000260F6623C1F0FC018FEF9FEF3191832791
:104B4000082E8295807F8025092E982F82958F7060
:104B50000826869598278927880F880F880F802533
:104B6000215060F708958FEF9FEF08956F927F9225
:104B70008F929F92AF92BF92CF92DF92EF92FF926D
:104B80000F931F93FC0183818F9382818F93848184
:104B900035014601680E711C811C911CD401C301B2
:104BA000BF93AF939F936F9281818F9380818F93F7
:104BB0001F930F93FF92EF925F934F933F932F9327
:104BC0001F926F9386E196E09F938F930E94B13876
:104BD0008DB79EB744960FB6F8949EBF0FBE8DBF9B
:104BE0001F910F91FF90EF90DF90CF90BF90AF900B
:104BF0009F908F907F906F9008951F93CF93DF9336
:104C0000EC01162FAC89BD891097B9F01296ED9181
:104C1000FC9113978D919C9111979D8B8C8B119684
:104C20001C921E9213961C921E921297612FCD0118
:104C30001995AC89BD89109749F71092260281E039
:104C400080934C02DF91CF911F910895FC0138971A
:104C5000968990FF08C0608D678B9A7F9460968BD1
:104C6000CF010E94FD2580E00895FC0186898460C3
:104C7000868B1092260281E080934C0244815581FC
:104C80006681778180899189A289B389840F951F74
:104C9000A61FB71F84839583A683B78381E00895F9
:104CA00049E150E060E576E2FC0180810E94292E16
:104CB00025E336E2FC013383228326E236E23387A2
:104CC00022870895CF93DC0114969C91149720E0DD
:104CD00030E0C22FF901E257F94FE4919E1741F0FD
:104CE0002F5F3F4F20313105A1F78DE20E947A3EC0
:104CF00087E980937A002830E8F420917E0081E0F3
:104D000090E00C2E01C0880F0A94EAF7822B809362
:104D10007E004FE150E062E676E28C910E94292EFF
:104D2000FC0188EA96E293838283C28F81E0858FBB
:104D3000CF91089520917D003C2F377081E090E065
:104D400001C0880F3A95EAF7822B80937D00E1CF6E
:104D5000FC0180917A0086FF0EC084819581A68136
:104D6000B7818853984FAF4FBF4F84839583A683F5
:104D7000B78381E00895828D90910002981781F0A9
:104D80009F3F59F780930002982F987090937B0073
:104D90008770806480937C0087ED80937A00DDCFFC
:104DA0008FEF809300022091780030917900858DFB
:104DB000968D891780F544895589240F351F8F5F9B
:104DC000358B248B858F891760F186899789281701
:104DD0003907C8F1808D918D82179307A0F1138E4A
:104DE0001092260281E080934D02408951896289A8
:104DF000738980859185A285B385840F951FA61F31
:104E0000B71F808B918BA28BB38B84839583A683F2
:104E1000B78381E0089581E0358B248B858F8917D6
:104E2000A0F6448155816681778184859585A68524
:104E3000B785840F951FA61FB71F84839583A6830C
:104E4000B78381E00895838D8F5F838F948D891759
:104E500038F2809127028111C2CF8AE10E947A3E06
:104E6000EF92FF921F93CF93DF937C01FC0110819F
:104E700060E576E2812F0E94582EEC01F8948E892D
:104E800080FF09C0F70164816F8B8A7F84608E8BFD
:104E9000CE010E94FD25CE010E94C33BCE010896A3
:104EA0000E94C33B1E8A8F8978941F921F921F9283
:104EB0001F921F928F931F921F921F921F938DE438
:104EC00096E09F938F930E94B1388DB79EB70C9652
:104ED0000FB6F8949EBF0FBE8DBFDF91CF911F918B
:104EE000FF90EF900895EF92FF920F931F93CF934F
:104EF000DF938C0160E576E2FC0180810E94582EF0
:104F0000EC01F8948E8980FF13C07E01F8E0EF0E6B
:104F1000F11CC7010E94C33BF80184819581A681E1
:104F2000B7818C879D87AE87BF87C7010E94153CDC
:104F30007894DF91CF911F910F91FF90EF9008959A
:104F4000CF93DF93EC010E94C33BCE0108960E94F1
:104F5000C33BEC89FD89309751F0908181811382A8
:104F6000128211821082E92FF82F3097B1F71D8A33
:104F70001C8A188E1F8A1E8ADF91CF9108950F9385
:104F80001F93CF93DF938C0160E576E2FC01808173
:104F90000E94582EEC01F8940E94A02781E08E8B8D
:104FA000F80184819581A681B7818C839D83AE832E
:104FB000BF8380859185A285B385888B998BAA8BC9
:104FC000BB8B892B8A2B8B2B19F0CE010E94153CB1
:104FD000F8018485888F7894DF91CF911F910F918C
:104FE0000895FC01968990FF07C0678B9A7F9460B3
:104FF000968BCF010C94FD250895CF93DF93EC01A0
:105000006A8D662309F453C0FC0150E031E020E0D2
:10501000A38DB48D4C91958D942309F0532B2F5F64
:10502000330F33962613F4CF2C85922F952729F032
:105030008D85852780959823D9F4888D5D8787FD98
:1050400003C0815070F1888F4C815D816E817F81BA
:1050500088859985AA85BB85840F951FA61FB71FD4
:105060008C839D83AE83BF8381E0DF91CF910895D0
:10507000982F909529238523822B8C879E859830A5
:10508000E0F621E0290F2E87FE01E90FF11D878749
:105090001092260281E080934E028FEF888F5D8709
:1050A000D3CF1092260291E090934E02CCCF50E0E5
:1050B000BBCF0F931F93CF93DF938C0166E978E208
:1050C000FC0180810E94582EEC010E94C33BF80134
:1050D00084819581A681B7818C839D83AE83BF83B4
:1050E0004085518562857385488759876A877B87A4
:1050F00080898D878C871E861F8A8EEF888F848596
:10510000898F87FD10C0452B462B472B29F4DF9153
:10511000CF911F910F910895CE01DF91CF911F91F3
:105120000F910C94153C8FE10E947A3ECF93FC01C5
:10513000C481C930B8F44C2F50E09A01220F331FBC
:10514000420F531F455E5F4F66E978E2FC018081A4
:105150000E94292EFC01C28F2DEF37E23383228378
:10516000CF91089581E20E947A3E0F931F93CF93CF
:10517000DF938C0166E978E2DC018C910E94582E65
:10518000FC01D80114969C91828D9817B8F4292FB0
:1051900030E0E901CC0FDD1F2C0F3D1FEF01C20FE6
:1051A000D31FF801648580850E94541C6B8F7C8F0F
:1051B0008D8FDF91CF911F910F91089580E20E9412
:1051C0007A3EFC014481558166817781208580810A
:1051D0000C94E82EFC011092260281E080934F028D
:1051E000818D8160818F4481558166817781808541
:1051F0009185A285B385840F951FA61FB71F848351
:105200009583A683B78381E008950F931F93CF936F
:10521000DF938C0167E479E2FC0180810E94582EC3
:10522000EC010E94C33BF80184819581A681B7817E
:105230008C839D83AE83BF8380859185A285B38552
:1052400088879987AA87BB87892B8A2B8B2B29F480
:10525000DF91CF911F910F91089584859585A68543
:10526000B7858C879D87AE87BF8780899189A28902
:10527000B389888B998BAA8BBB8B84898E8B1F8A71
:10528000CE01DF91CF911F910F910C94153CFF92AD
:105290000F931F93CF93DF93EC01F88483E08F1576
:1052A000E0F04AE150E067E479E288810E94292E2B
:1052B0008C018AEE98E2F801938382836DE275E1B6
:1052C0008C810E94582EF801958B848BF08EDF9193
:1052D000CF911F910F91FF90089587E20E947A3E2F
:1052E000CF93DF93EC016B817C818D8140E00E9444
:1052F0009C1C8D859E850E9468196E817F818885A2
:1053000041E00E943E1C8D859E850E94681969853A
:105310007A858B8541E0DF91CF910C943E1C1F93E1
:10532000CF93DF93EC01162F8D859E850E9468191F
:1053300069857A858B8541E00E943E1C6E817F8164
:10534000888541E00E943E1C8D859E850E946819DB
:105350006B817C818D8140E00E949C1C8D859E85A7
:105360000E946819688179818A8140E00E949C1CB2
:10537000612FCE01DF91CF911F910C9490198F92E4
:105380009F92AF92BF92CF92EF920F931F93CF93C2
:10539000DF93EC01480159011F92EF92BF92AF9247
:1053A0009F920F937F936F935F934F931F92CF9230
:1053B00085E296E09F938F930E94B1388DB79EB798
:1053C0000E960FB6F8949EBF0FBE8DBFE11009C0B8
:1053D0008C859D85AE85BF8588169906AA06BB0675
:1053E00088F48F898F5F8F8B9E898917B0F4DF9146
:1053F000CF911F910F91EF90CF90BF90AF909F9062
:105400008F90089588899989AA89BB8988159905FB
:10541000AA05BB0530F31F8AEACF809127028111CC
:10542000FACF86E20E947A3E9F92AF92BF92CF92CD
:10543000DF92EF92FF920F931F93CF93DF93EC01D4
:10544000C62E942ED52EB22E78016C85862F8160C3
:10545000A82EC11085C06A2DCE010E948F298FEF22
:105460008B0DBB2009F46EC06701C80ED11C698585
:105470007A858B8541E00E943E1C08E010E08D8516
:105480009E850E9468196E817F81888541E00E9417
:105490003E1C8D859E850E946819110FE985FA854D
:1054A00090818B85892391E009F490E0192B688124
:1054B00079818A8140E00E949C1C015001F7698536
:1054C0007A858B8541E00E943E1CCE14DF04F1F00A
:1054D0006B817C818D8140E00E949C1C8D859E8526
:1054E0000E9468196E817F81888541E00E943E1C80
:1054F0008D859E850E946819688179818A8140E046
:105500000E949C1CF70111937F01B1CF69857A85B8
:105510008B8541E00E943E1C8D859E850E94681906
:105520006E817F81888541E00E943E1C8D859E852D
:105530000E946819688179818A8140E00E949C1CE0
:10554000F6011083CE01DF91CF911F910F91FF9053
:10555000EF90DF90CF90BF90AF909F900C94702908
:10556000CE010E948F29092D1D2DCA94D12CEFEF59
:10557000CE1ADE0AC00ED11EF80161918F01CE0154
:105580000E949019C016D106B9F765CFDF92EF924D
:10559000FF920F931F93CF93DF937C01C62FD42EDE
:1055A000152FFC0164850E948F290FEF0C0FCC236F
:1055B00071F0CD2DD12F10E00F5F1F4F0C0F1D1F6D
:1055C0006991C7010E949019C017D107C9F7C70197
:1055D000DF91CF911F910F91FF90EF90DF900C948E
:1055E0007029CF92DF92EF92FF92CF93DF93FC016D
:1055F000A085B18582858C93968581E089278687F1
:10560000C82FC170C688D788E08CF18C97859F5FC2
:10561000D1899D1708F05FC0892F8695869586955C
:10562000DF01A80FB11D5A962C9130E0892F8770A9
:1056300002C0359527958A95E2F72170B701A6013A
:10564000C217A9F033C0892F869586958695DF010C
:10565000A80FB11D5A962C9130E0892F877002C097
:10566000359527958A95E2F72170C2131FC04C0D1E
:105670005D1D6E1D7F1D9F5F9D1728F386EE9DE2C9
:105680009383828384819581A681B781480F591FB6
:105690006A1F7B1F448355836683778381E0DF9194
:1056A000CF91FF90EF90DF90CF90089597878481FE
:1056B0009581A681B781480F591F6A1F7B1F4483BC
:1056C00055836683778381E0DF91CF91FF90EF90E0
:1056D000DF90CF900895B701A601D0CF6F927F924F
:1056E0008F92CF92DF92EF92FF92CF93DF93EC01F4
:1056F00060E08C810E942F243B01882EC884D984CD
:10570000EA84FB84D7FC24C0A601415F5F4F6EE6AC
:105710007BE288810E94292EFC0160827182828254
:10572000D686C5868C859D8594838383888999894F
:10573000AA89BB8981879287A387B487DF91CF919C
:10574000FF90EF90DF90CF908F907F906F900895B3
:1057500084E20E947A3ECF92DF92EF92FF920F9303
:105760001F93CF93DF93EC01E885F9858A858083C9
:105770000E9481253E8521E023272E872F852F5FDC
:105780002F87213009F45CC02530E0F40C811D81A5
:105790002E813F814A895B896C897D89DB01CA0141
:1057A000800F911FA21FB31F8C839D83AE83BF8385
:1057B00081E0DF91CF911F910F91FF90EF90DF90EB
:1057C000CF900895CC80DD80EE80FF80AB01BC01DE
:1057D0004C195D096E097F098E899F89A88DB98D45
:1057E000481B590B6A0B7B0BDB01CA010296A11DFA
:1057F000B11DB7FD34C0B595A79597958795B5951B
:10580000A795979587950A891B892C893D89800FD3
:10581000911FA21FB31F8E8B9F8BA88FB98F21EF73
:105820003AE23B832A834C0D5D1D6E1D7F1D840F64
:10583000951FA61FB71F8C839D83AE83BF83B8CFF0
:105840000C811D812E813F81AB01BC01401B510B9E
:10585000620B730B4E8B5F8B688F798F9BCFDB0155
:10586000CA010596A11DB11DC6CFEF92FF920F93FD
:105870001F93CF93DF937C0166ED7CE2FC01808176
:105880000E94582EEC011E8511FF07C0DF91CF91B9
:105890001F910F91FF90EF900895F70104816085AB
:1058A0007185F4840B3008F045C0FAE0FF1508F468
:1058B00041C0402F50E04A960E949B3F1F861173C3
:1058C00012601E87802F880F880F880F898BFF0C2E
:1058D000FF0CFF0CF88A002349F08A8D8F738A32FF
:1058E00029F48BEA9BE29B838A830CC08A899B897B
:1058F000AC89BD898E8B9F8BA88FB98F81EF9AE27F
:105900009B838A83F8940E948125DC01CB01805817
:10591000934FAF4FBF4F8C839D83AE83BF83CE0128
:105920000E94153C7894DF91CF911F910F91FF90C9
:10593000EF90089582E20E947A3E0F931F93CF93D7
:10594000DF938C0166E978E2DC018C910E94582E8D
:10595000EC01D8011496EC918F898E0F8F8BF894FF
:105960008E85E817D0F48E1BF0E03F96EC0FFD1FFC
:10597000DE011F962FEF280F30E0205F3F4F2C0FE6
:105980003D1F91919D93A217B307D9F78E87789405
:10599000DF91CF911F910F9108951E868EEF888F12
:1059A0007894DF91CF911F910F9108957F928F92FC
:1059B0009F92AF92BF92CF92DF92EF92FF920F939E
:1059C0001F93CF93DF93EC0144E250E066ED7CE25D
:1059D00088810E94292E8C0178848C809D80AE80E5
:1059E000BF80CC84DD84EE84FF8461E0711001C04F
:1059F00060E0882D0E94541CF801638774878587B6
:105A000061E08C2D0E942F24F801608771878287C6
:105A100088899989AA89BB89828B938BA48BB58B42
:105A2000711018C091E08C149D04AE04BF04C1F045
:105A300080E0892BF8018687DF91CF911F910F912C
:105A4000FF90EF90DF90CF90BF90AF909F908F909E
:105A50007F90089591E18C149D04AE04BF0441F73A
:105A600080E2E7CFCF93DF93EC018E8585FD0DC0FB
:105A7000688579858A8541E00E948D1C8E858073BA
:105A800081608E87DF91CF910895688579858A85B9
:105A900041E00E949C1C8E85807381608E87DF911F
:105AA000CF910895CF93DF93FC01A385B4855C91DA
:105AB0008785982F977021E030E001C0220F9A95DA
:105AC000EAF7982F969596959695DF01A90FB11D47
:105AD0005A969C915A9745854523E1F0292B5A9671
