:100000000C94B0090C94DD090C94DD090C94DD0905
:100010000C94DD090C94DD090C94DD090C94DD09C8
:100020000C94DD090C94DD090C94DD090C94DD09B8
:100030000C948D420C94DD090C94DD090C94DD09BF
:100040000C94DD090C94FB230C94DD090C94DD0960
:100050000C94DD090C94DD090C94DD090C94DD0988
:100060000C94DD090C9464420C943A420C94DD0922
:100070000C94DD090C94DD090C94DD090C94DD0968
:100080000C94DD090C94DD090C94DD090C94DD0958
:100090000C94DD090C94DD090C94DD090C94DD0948
:1000A0000C94DD090C94DD090C94DD090C94DD0938
:1000B0000C94DD090C94DD090C94DD090C94DD0928
:1000C0000C94DD090C94DD090C94DD090C94DD0918
:1000D0000C94DD090C94DD090C94DD090C94DD0908
:1000E0000C94DD090C9443300C94F6300C94FD41D3
:1000F0000C9439330C94FD3A0C94E81F0C94352A77
:100100000C942E260C94E3320C944F200C9434342F
:100110000C946B1D0C94F1250C94F21A0C948933F9
:100120000C947D3A0C94072C0C944D260C94082CBE
:100130000C942A3B0C94D81F0C9429220C948134E3
:100140000C946C390C946B330C9462150C94EF2264
:100150000C94EA2A0C94203A0C946B170C94331AE2
:100160000C94B81B0C94C7210C94241C0C94692388
:100170000C9414320C94422F0C94E7200C947E2B98
:100180000C9479260C946E2A0C94FD160C94843FE2
:100190000C94741A0C94413A0C94661B0C946A22C9
:1001A0000C949F230C94343F0C9431350C94512FB4
:1001B0000C942A310C944C3A0C9443290C94D02E74
:1001C0000C94D9310C9494390C94FF1B0C945A362E
:1001D0000C943B300C9466400C949C3A0C94DB1DC0
:1001E0000C94FC2E0C9440200C942B3C0C94C12BB2
:1001F0000C945F1C0C94ED3F0C94DF260C942D2D79
:100200000C9495250C9482260C940D1E0C947E164D
:100210000C940D3C0C94EC3E0C94A0300C94EF3EEE
:100220000C94793F0C94252C0C94B1410C94A33B75
:100230000C9416390C94F9380C9408150C948231EE
:100240000C942F1B0C9489280C946C2F0C949C1CE0
:100250000C94401E0C94B4320C9406290C94C516D0
:100260000C94EB1C0C94473F0C940C400C9468319C
:100270000C942E420C943A2B0C94EA400C94C13B03
:100280000C940B3C0C94CD290C9445320C942B40CF
:100290000C947E150C94BA200C94E31D0C94F92058
:1002A0000C94B51A0C949D260C94A0340C946722DF
:1002B0000C9436350C9412350C943F210C946A2022
:1002C0000C94E1160C948F3F0C94E01B0404000086
:1002D0000400000404040400000000040400000002
:1002E0000004000000000000000400000000000402
:1002F00000020000040004000004070404000004DD
:1003000004040000020200000002040700040707C2
:1003100004000404000004000202040404040400B5
:1003200000040004040404040404000400020304A0
:1003300000040400040004000004000400000000A5
:10034000000000000001000201023A03FC2E02003E
:100350000001000000422F03000001000000EC3EFD
:1003600004000001000000EF3E0500000100000055
:10037000343F0600010001C906081507000001000E
:1003800000007E1508000100013903621509000014
:1003900001000000072C0A00020101C4062D2D0BEC
:1003A000000301033603082C0C000201023403D0C1
:1003B0002E0D000200023A0331350E00020002B099
:1003C0000636350F0003000336032A3B10000200F7
:1003D000023403A33B11000500052F03C13B1200AB
:1003E000020002B006B432130001000139032A31C1
:1003F000140002000234036C391500020002B0063A
:10040000F93816000400042B039439170005000581
:100410002603163918000100013903F630190008C7
:1004200000081E0382311A000300031B0368311BFE
:1004300000020002B006C7211C000200023403BA09
:10044000201D00040004A80629221E000100013915
:1004500003E7201F0008000813036A2020000200A1
:10046000023403F9202100040003B206E31D220038
:10047000030002B506D81F2300030002B506E81FDB
:100480002400040004AC06401E25000100013903CD
:10049000DB1D260003000310030D1E2700050003CB
:1004A0000D036C2F28000400030A034330290003C6
:1004B0000002B506512F2A00040004AC06A0302B20
:1004C0000001000139033B302C00030003070379CE
:1004D000262D00030003B706EF222E0006000601BA
:1004E0000369232F00020002B006352A3000050000
:1004F00005FC02F1253100040004BE064D26320041
:10050000020002B0062E263300040003F902CD29B2
:100510003400050005F4026E2A350001000139039C
:10052000893336000400039906343437000500058A
:10053000EF0206293800040004AC06393339000301
:10054000000310036B333A00030002B50681343B0D
:1005500000030002B50612353C00060006E902A0C1
:10056000343D00030002B506C5163E00030002B587
:1005700006E1163F00080008E102FD1640000600F3
:1005800006E9026B174100050005DC027E164200F9
:10059000060006D6029D2643000300031B03DF2648
:1005A000440001000139039C3A4500020002340373
:1005B000FD3A4600020002B0067D3A470003000201
:1005C000B506EA404800040004A8062B4049000391
:1005D00000031B034C3A4A00010001390366404BFB
:1005E000000200023403FD414C00020002B0060C80
:1005F000404D0001000139038F3F4E0002000234DC
:1006000003B1414F00020002B006ED3F500001006F
:100610000139036B1D510002000234035F1C5200BC
:1006200001000139032F1B5300060006D002661B90
:1006300054000300031B03FF1B5500020002B00619
:10064000E01B56000100013903F21A5700020002B4
:1006500034039C1C5800040004CC02EB1C5900011C
:1006600000013903B51A5A000200023403241C5B4E
:1006700000030003A206B81B5C0000010000002E6E
:10068000425D0000000500000028292A2B2C2D2E99
:100690002F5051525354555657040207040000027C
:1006A0000002040400040007040000040400000029
:1006B00004040404070407040002040404000404FE
:1006C0000004040107040004020000000000000010
:1006D0000600020274004003990673001D069C0682
:1006E00072000F03A20671004003A50670001404F7
:1006F000A8066F001704AC066E000A02B0066D0073
:100700004002B5066C004003B2066B004002B5061D
:100710006A004002B50669001003B70668001104BC
:10072000BA0667001104BE0666000D02C206650027
:100730000B01C90664004001C40663001204C5062B
:1007400062000B01C90661001002CA0660001503B1
:10075000CC0600004002CF065F000E02D1065E000C
:100760000901D3065D0006000000200023002600DA
:1007700029002C002F0032000001000003010601B7
:1007800009010F470044004500800135480044003E
:10079000450020010D88008000810080000E8A0045
:1007A0008000810020000F8C008000810008000C78
:1007B000B300B000B10080033EB400B000B100202F
:1007C00003239800900091008000249A00900091EB
:1007D000002000259C009000910008003BA800A08C
:1007E00000A10080003CAA00A000A10020003DACB8
:1007F00000A000A10008005B280120012101800069
:100800005C2A012001210120005D2C012001210131
:10081000080078DA9D196B8FDBB8F1AFF00C04EDAE
:1008200015BBA92559B2BD453EEC2BB934D9642F6F
:10083000CE36071485A095689B885E274AFBE82181
:10084000FFBD331CBE243B39A0018215C999E1CC00
:1008500070DEFE6396B5EDEC6CF6AE146DCBBBD9D5
:10086000C9EC7E1065913EF04E8AA69670B4CBF32B
:1008700033F6D73797973FB3F8E5E2E59CDD8B7AFF
:10088000E8452971F7C31DBBD0CB9F59F8324C5EA8
:1008900086F3209907610CA4F2A6AAB2BA00227FBF
:1008A000CCB2B26CF2ACE769230AC9F266A8FB5776
:1008B0002FF2D9D90A6FEC7BB82ACDF2AF0C4E617A
:1008C000DB3B5F2C3D80A230006D23D51F51BF7AEA
:1008D00031B07628CB74680961ED107E1F78F76C13
:1008E0006902035F11BAE3B24F7B917F95B4EABB13
:1008F000AC9695E853732B1335C8AFEF0706F39208
:10090000675D2AF7435F348FF5EC2C44D1EAADD80C
:1009100001473208C3B9B942B622D59F45D66769A7
:10092000C7B3E23925266767EBC0C37B2AA3457CA2
:1009300088373B5BCE1D549D95CD2E15B5955A53EA
:100940008A1C075A540341CBD4E92F76E4D426EF0E
:10095000C6C446BA8B9716B8103BD16765DA0CFD52
:1009600004E1212B07AE44E4DB6C28FBD46E54D9A0
:10097000535A0C5DD683E5283E03478F831DF44D03
:100980003BA2958F2E0F130BBC2F168BE5CAAAB571
:10099000935A878C9B8F6261BF62FB95D8AFA5FD90
:1009A000E265F66C1F7B769644EE92A765F064AE26
:1009B000D86502B4B6CFEA9A974A3690DBD09079E0
:1009C000F9D53EE26A6509883067E6D5168E6E591C
:1009D000E4411284863240D9B75DC553A8F451F47E
:1009E0007B78E1FEFE109EE1365D8CB80B872B64B0
:1009F000583C1E359EB505AADA611DC6F3636C2C02
:100A00009DA66BDEB4E28997933756D62BC57FE15E
:100A100059F703387C9FE2DB7A3E23396C81CA9C0C
:100A20006663275BFB581DB19BFC19FCC8D1D056EF
:100A3000B31FA676043B0786B4701C83B853C21854
:100A40003A7AF1C0D3BDD8ED9584D1CA870747DA89
:100A500095FC8893DAB3B47F6E39E9261A611AA738
:100A60003F86AC8FD24AEE5EBDF81B44B9688C8BD2
:100A70004F8B66944B6B26917308D92FD72E72E457
:100A8000F288B531290AFBF95CE7E9D89A595E1575
:100A9000E98181CFBD1B38C674CB3A2CB535B14244
:100AA00074E693629D0276504329B947347482F507
:100AB0007BDE550D8492F6A846FD63A7D4C489DD7C
:100AC00057F99075D636BAA7F4200EB1DE6EA2E5BE
:100AD000F5A2E264612EEAF51DEAC3A915842EF899
:100AE000FD00F6DC40365B9B1550D9295BA6F70963
:100AF0002C180666D67405EFF03EC82B1DC5ABD08A
:100B0000003C76A2E7071068B40408A19C57BCDB40
:100B1000F13A7F4E31B00113B045412EDD37153F1C
:100B2000483B32AB5ADF01F4DA269D715A02D65D9A
:100B3000602571AD8E3BB1DBF10E85900D058730E0
:100B40007697ABA4073C653DB70A0A21786C05A4EB
:100B50001370E99474C8F22E278B3999EDC09B1558
:100B60009FA064BD5230E00EB41C5A7C05F0C393C4
:100B7000998ECDA984FB52B0409B7AF09BF49C8463
:100B800013307C02E625460D064AC4B0543585D89C
:100B90003EA7F0D69656C7954B319D7981033CD53B
:100BA0005EB626347AC3313CEEA525D741634E802C
:100BB0000A7D907E2484A58A63A023FC8BCFCB255D
:100BC000D9FA227458B2D9F68F59C77D74F04FEB19
:100BD0009345663E8F514A62A2A46D692AFE02C502
:100BE0002F78DD83F0ACD96EE142E5D43675C3B918
:100BF000C91270367CC7ACFA3D5CB86FCA422D7E14
:100C00006C288C775D33329C1558ADC901EAADACC8
:100C1000C9C4FEC9D016CE9CA8F8DA0F9E2C311894
:100C200006D9DDA4221A193578E67C02A7EC747087
:100C30000172B57600A31269422899C24D09252B8D
:100C40000B30ADA2FE4F8FAC9C47EA14E5565041E5
:100C5000EE0071CFF3AF5EED1505868749E9653982
:100C6000681B087AD3FBBD9C9A1802A36265A28B0D
:100C7000D5720475A0524B6452994CC9041338655F
:100C80006F9340B20A2DD0A80899D05AAEC66053CF
:100C90009E9696E5499932A5134FE00E0859C33B3D
:100CA000C8F3DFA9F73190415A175B7AA3A51588DD
:100CB000284F9404125B933D96FABE7389672B23E9
:100CC00053A105A45C88C485672909BDD1C08FD50F
:100CD000DDF68EC6AFB782D8A04CCA2D0B6ECD13F1
:100CE000628D05C6FCCE5C7DC93B4A6926ECEC559D
:100CF0000883BF029206A846557AE0B7E653E1534F
:100D0000AE98DE0708A02A84F16598340DC0777488
:100D100000A42450E5A1A539AA15012921A49A3FD0
:100D20006916A082B121557494E4020232FAF89354
:100D3000BA13B402C6E39580D8066E9D93BAE8B69E
:100D40000C08CE8B8FDE69B430A7A334835B3ACD19
:100D50004082E35E920094C4A11CCB3195908DC972
:100D60002C5523C5B1DAF08068A2F9F8BE1C1158E1
:100D700001959D3FCADEF17A0C753C79C72B8452F0
:100D800005668A1502E40481E5BAF59B60ED00541E
:100D90005D82D64B0989D9FCE4652BC00092BA3C30
:100DA0001CA95AE54F9BDE2939C18B686CD421FA06
:100DB000F4110F00935839B8DE2F3B79DB74BAE693
:100DC00021EF556B6B24FCA915F0247E85B5B694F4
:100DD0002652F84010D628551EF363CF0716DF4C75
:100DE000298BB391F3ABCBF4E6FC372C50B1D2BED8
:100DF000B8DBA4B76F3F6C30A4CDCE66B717D1C9AE
:100E0000ED4508FF839977D83FAAC3ABF9C9ED1523
:100E10001E5CBEFF78F92E7DFDE9FA577497B9FA8A
:100E20007732BBB9BC03A8ACAFF82E0BE3640E80DD
:100E3000B75F6EE8B6105BB64FD797D76FFF759D5B
:100E40007E79FBE1EAE3177CB6103737D79F6093D2
:100E5000B8E09DC84ABCEB1AEEBAC6BBE0F4EDF9A7
:100E6000FBF4E2FCEE0AC9D0559BCFE79F37E9E6D9
:100E7000EE66F32B9C6CAEF124F98675E90095B211
:100E8000EAE5D42448D75FF8A96498030CD834AEB7
:100E90006FCFE7B3B37FCF4F56FF01362FF07B45BF
:100EA000DF97F80D41402DAE700115AD5A5CE3227D
:100EB0000A69F11A170B8DFF462D34815F70116B93
:100EC00002FFC4C552E3BC53D7689CF76A8138DF80
:100ED00046A1011A1935C40AA228028E4F66998CC0
:100EE000E78B65A18AB4BEE4F13C08EF41608DA5B3
:100EF000C553EF87E2616A1168821D3424A928F482
:100F0000A333651C5BAA1E6800725EAA991133C5E3
:100F10007A4101F332AB59DDF40C8C9D61C0601055
:100F2000E328B03165B3EC712FE09B6C4FB216BC77
:100F3000076EA2886C7007C955F2EB02B66D3A06CF
:100F400066F00FB316124F0BB5AFB624755B80FA7F
:100F5000971E130274A23B60088ACDAC47E84CB3DD
:100F6000497D37F51F1A5822289A3C7549B4AB724F
:100F700087220D9CF29A99D6D4E2E365342D646DF4
:100F8000D681C951A9AA1A1073D0714861B25733DA
:100F9000C3D719C85BB0BE612A52E0284639380D64
:100FA000EC7EF90DAB259CE9FC5DCF7446AA66C1C9
:100FB000E9820AFDB794899999A2B961202544AACA
:100FC000E10C949E67AA26C9ED0118F29C551CB24B
:100FD00029F5CAE6B06A1EB8619BE138055DDF1DE0
:100FE000DBE18B1DB7506A3838D7E5B7BD3FF21843
:100FF000004D33B2CFC01308A72426C06054F2F6C8
:10100000759594EF45AB1117C11840751B4E2649D5
:10101000535803312A833C2AD897DD644FA8E595BD
:101020005128CD446EA023CA40EDD02C43D2322F9C
:101030000B82DE08896627A1702E86129B7540C63A
:101040001CCF74F854CFC61F38BE04A6F7EF23ECAC
:10105000B3AE505EA1A171247083EA57650F83AFD0
:101060006E5B368F54377D0077C81889837EA8C29F
:101070000FCE98FC0370103AC04EC83F10754BD588
:10108000055510EAA8464EDD76ACC2AC7593B66B3A
:1010900076A0CC0A58CF50B62DA467E01294CDD1DB
:1010A000C3319B7DE25A28B46A7441B806550DCF0E
:1010B00080268FF3C58D0538D00E7B146509592B1A
:1010C000077AA3E919E561876935F4030C4C751BB0
:1010D00070577A43C50042886AA8CC9E710EB0B89A
:1010E0008D9990A95E1D88290757C1CA1F986FB4B2
:1010F000C7F74DC3B699928E24C3D1C467DFA450FD
:101100006500A8668234C9FBACF4819890B025577D
:10111000A396BB5A0E2D266D4EDEAF422E0EBBBFE0
:10112000647DBE2F9A1D69F127EA4DD5AF0FD09F80
:101130000DF557208CA18386D3DEBE74076008E4CA
:1011400023105B248444F460280724CBA57E5F37FA
:1011500064A3C8D6D42504C3072090DD9726C659BA
:10116000F16960C17495423F514C061F67EC2344FE
:1011700059C894F758586C71F0257FA2FA45FD6064
:101180006203AEFE19A5A06996C4F10186373299B3
:101190001C8EF1082B41C8126A42FDE1FCF21D0DC4
:1011A0001ECDE84D1574A8CD32EB30EF60017BA465
:1011B0006AC1272483C741A60ED5E44E58AB415AD5
:1011C0003B18F6615E83D2220A5671ACD2A45E242B
:1011D0002A4FD22289953DC0224996F01D7D034AAF
:1011E000A5C841D5803FC35F94DEDCBE7F8866AA78
:1011F000E368218870FA01C9B4F1A38E54397F7A6B
:10120000ACE539C5406C7E081AA1645E93CED40962
:1012100095B4A7982DA9B57115E46964DF1A129FDA
:101220009E8BA922538DCF70CF3CB4AADC21D0A4D1
:10123000B697429A6A22AFBAFF1F31AE51F447EA1D
:10124000DD8F666A8696125CC2CE204F31AE9BA1BE
:10125000DF8834F4ED101A0F2FF1678A881FBB4125
:101260005A6A74ED35E26A6D54E30DAB3C583BB5F8
:10127000A2C6E025C2E2D4CD29854D6B1FD2CB7A20
:10128000E1865B0763064F0033C2F215B2F00653E6
:101290005A27A6E71AF25C4DDF503C6C27804D7F41
:1012A000007C8AFE444E0D351AF4527E6F23314F76
:1012B000D7399F8CB64E31ADFA38A30984EBB6F519
:1012C0008CC07410D4A9FA24EF0715F60B9AFB40D2
:1012D000990491223579496A7351DDB18BA8665022
:1012E000755C87F1B1F6F5E025FD1185FFA4413C61
:1012F000EE17FFD4044255C876BDAA2CD71195B578
:10130000D299AE1C2AFD47FEAE7D27743DE0A44174
:10131000A421A240BAC924928CDFF4A8830F941EA2
:10132000F44327AE6F3C94013B469277EDF782CEB3
:10133000D8F2CC36A6C787A69EED852A54AA3A963F
:101340007E6B1A46A1228050A67F398750562C8B7F
:10135000F57C1DCEBEFD0F6F728305490B000000AA
:1013600011241FBECFEFD1E2DEBFCDBF00E00CBF26
:1013700014BE0FB6F894A8958091600088618093A0
:101380006000109260000FBE12E0A0E0B2E0E8ED55
:10139000F6E800E00BBF02C007900D92AA32B10739
:1013A000D9F723E0AAE2B2E001C01D92AB39B2073F
:1013B000E1F70E942C250C946A430C940000CF9313
:1013C000DF93CDB7DEB76B970FB6F894DEBF0FBED5
:1013D000CDBF0E9419256B017C019E01275F3F4F05
:1013E0003B8B2A8B80912602882309F4C8C70E9470
:1013F0001925C61AD70AE80AF90AF8948091260234
:10140000882351F08FEF8093260278940000F8949F
:10141000809126028111F9CF78940E941925A701A5
:101420009601260F371F481F591F288F398F4A8F63
:101430005B8F81E08093260280914702882309F424
:1014400042C0109247028FEF8983AE014F5F5F4F1A
:101450007A010CE117E067EE70E2C7010E94AD155A
:101460006C01892B81F1D60156968C9182FFF3CFC6
:101470000E941925F894F60137892689422F4B7F5F
:10148000468B78949F938F937F936F931F923F9394
:1014900021701F922F9389811F928F931F930F9317
:1014A0000E94FF362DB73EB7245F3F4F0FB6F8942A
:1014B0003EBF0FBE2DBF67EE70E2C7010E94AD15A3
:1014C0006C01892B81F680914802882331F11092BA
:1014D00048028FEF8983AE014F5F5F4F7A0106E1CB
:1014E00017E069EF70E2C7010E94AD15FC01892B7E
:1014F000A1F0958D868D9813F4CFF894858D968DF7
:10150000891711F40C94CD12789469EF70E2C70139
:101510000E94AD15FC01892B61F780914D02882353
:1015200011F110924D028FEF8983CE0101967C015B
:1015300004E017E06EE276E2C7010E94AD15009765
:1015400091F0DC0158962C912F3FA1F7F894FC0103
:1015500026852111DEC678946EE276E2C7010E94EC
:10156000AD15009771F780914F02882309F43FC0B1
:1015700010924F028FEF8983AE014F5F5F4F7A0168
:101580000EEF16E06EE67AE2C7010E94AD150097F5
:1015900071F1DC011E962C911E9723FFF3CFF89476
:1015A000FC012685277F268778949C01265E3F4F85
:1015B0003F932F9350968C918695869586951F9292
:1015C0008F9389811F928F931F930F930E94FF36F1
:1015D000EDB7FEB738960FB6F894FEBF0FBEEDBF5D
:1015E0006EE67AE2C7010E94AD15009791F68091F0
:1015F0005002882309F44AC0109250028FEF898369
:101600009E012F5F3F4F790102EF16E06BE673E317
:10161000C7010E94AD15FC01892BC1F1848D80FFAB
:10162000F5CFF89494812581368147815489658965
:101630007689A789B08DD18CC28CB38C848D8E7F36
:10164000848F7894BF92CF92DF92BF93AF937F93B2
:101650006F935F934F933F932F939F9389811F9233
:101660008F931F930F930E94FF364DB75EB7405F75
:101670005F4F0FB6F8945EBF0FBE4DBF6BE673E3CE
:10168000C7010E94AD15FC01892B41F680914E02E5
:10169000882309F456C010924E028FEF8B87BE014B
:1016A000655F7F4F1B01FCE09F2EA7E08A2E6FED48
:1016B00076E2C1010E94AD155C01892B09F441C09D
:1016C000D50159968C91599780FFF1CFF894F50187
:1016D0004480558066807780818D8E7F818F78945D
:1016E00058968C91813009F4D3C308F4B1C3823089
:1016F00009F46EC38330D9F6CB8419821A829E0115
:101700002F5F3F4F42E061E0F501848995890E9497
:10171000DE1E09811A81102701271027F02FF6708D
:10172000EF2E20E030E0B301A201C5010E9457274F
:101730006FED76E2C1010E94AD155C01892B09F0C5
:10174000BFCF80915202882301F1109252028FEF95
:101750008B879E01255F3F4F190149E0B42E8E0112
:101760000F5F1F4F52EFC52EDD24DA9406C0D7015C
:101770001E968C911E9780FDBAC36DE77AE3C10176
:101780000E94AD157C01892B91F78091530288232B
:1017900009F466C0109253028FEF8B87FE013B96CF
:1017A0001F01DD24DA949E012F5F3F4F398B288B78
:1017B0006CE47AE3C1010E94AD157C01892B09F428
:1017C0004FC0D7011E968C9182FFF2CFF894F7019B
:1017D00084809580A680B780C1881686118A789407
:1017E00080859185A285B385881A990AAA0ABB0AC1
:1017F00087010E5E1F4FD701CC2091F056968C9139
:10180000F701E80FF11DD78A108E118E8D5FF70159
:10181000868B813308F0EFC0CA94D701C110EECF98
:101820001F968C91882309F472C2813009F43BC55C
:10183000823009F45DC6D70156968C9190E0C1972D
:101840000CF4B6CF6B85C70142960E941F1D6CE455
:101850007AE3C1010E94AD157C01892B09F0B1CF5B
:10186000809174028823D1F0109274028FEF8F87D9
:10187000FE013F967F0142E7942E54E7B52E06C045
:10188000D60152968C91529780FD1BC46CE070E497
:10189000C7010E94AD156C01892B91F780917502EB
:1018A000882309F1109275028FEF8F879E01215FC7
:1018B0003F4F790187E0482EAE014F5F5F4F4A01ED
:1018C0009FEA592E28EA622E06C0D8011E968C91F6
:1018D0001E9780FD58C46DEE7FE3C7010E94AD15D1
:1018E0008C01892B91F780917602882309F489C0B5
:1018F000109276028FEF8983FE0131967F0160EEB0
:101900007BE1C7010E94AD156C01892B09F479C0F8
:10191000D6011E968C9180FFF2CF9980C6010E945D
:10192000451DF894F60196859E7F9687789483FFEF
:10193000E6CFA388B12CB4E1AB0EB11CAC0CBD1C3E
:101940000484F585E02D1D86850122E0AE01435F0C
:101950005F4F61E080810E94EA18D6011C96ED91EC
:10196000FC911D9781E08E870E5F1F4F22E0AE0134
:10197000425F5F4F61E080810E94EA18F60183892F
:101980008C5F838B8601045B1F4FD8018C9082FE95
:1019900028C0F50142805380542445245424052C4A
:1019A000000C66087708411451046104F0E17F06D9
:1019B00008F03EC50E94192581FC55C6F601E15B81
:1019C000FF4F208131814281538124153505460521
:1019D000570508F457C6882D8D7FD8018C93F601E2
:1019E000838990E0C0970CF48ACF692DC6010F96C9
:1019F0000E941F1D84CF6B85C8010E941F1DCA94C1
:101A00000CCF809145028823B1F0109245028FEFF0
:101A100089839E012F5F3F4F790105C0D801199638
:101A20008C918111DBC26BEE7CE1C7010E94AD1588
:101A30008C01892B99F7809146028823B9F0109286
:101A400046028FEF8B879E01255F3F4F190106C02D
:101A5000D80151968C9151978111F3C368EB7BE1CA
:101A6000C1010E94AD158C01892B91F7A895809139
:101A70007702882329F080E4809360001092770237
:101A800010913803112309F46EC000912A0200FD61
:101A900012C0153008F467C0D0907802BD2C8BEFCF
:101AA0008D0D8C3308F492C4EEE7BE1609F480C69F
:101AB000016000932A02412F50E06EE770E088E752
:101AC00092E00E943B43009739F00E7F00932A0278
:101AD0008857924011E0180F01FD0CC0902F9260C2
:101AE00090932A0283E896E09F938F930E94FF369B
:101AF0000F900F90D12ECC24CA9420E0ED2CF12C25
:101B000019C0822F90E0402F50E0481B590BB701BD
:101B1000680F791F68587D4F88589D4F0E94514328
:101B200010922602202F8FB7F8949091380319173E
:101B300061F08FBF10913803012F0D1911F78FB786
:101B4000F894909138031913F4CF009338038FBFA2
:101B5000F1E0CF1208C083E896E09F938F930E9434
:101B6000FF360F900F900E9419256B017C01288D84
:101B7000398D4A8D5B8D621B730B840B950B8090A6
:101B8000330290903402A0903502B09036023FEFBD
:101B9000831A930AA30AB30A809233029092340202
:101BA000A0923502B092360240902F02509030023F
:101BB0006090310270903202460E571E681E791EE8
:101BC00040922F02509230026092310270923202A3
:101BD0006115710541E08407910508F0D5C39B01AB
:101BE000AC010E949842DC01CB0181509F4FAF4F66
:101BF000BF4F892F9A2FAB2FBB2740912B025091BB
:101C00002C0260912D0270912E02840F951FA61F49
:101C1000B71F84179507A607B70718F48FEF9FEF34
:101C2000DC0180932B0290932C02A0932D02B093A1
:101C30002E02409170025091710260917202709177
:101C400073025C546B437B4F2F2DC416D506E606FA
:101C5000270B27FDC7CBBF93AF939F938F937F92A3
:101C60006F925F924F92BF92AF929F928F928CE44D
:101C700097E09F938F930E94FF366DB77EB7625FA8
:101C80007F4F0FB6F8947EBF0FBE6DBF809170027C
:101C900090917102A0917202B0917302C816D90698
:101CA000EA06FB0698F480916C0290916D02A09177
:101CB0006E02B0916F020196A11DB11D80936C025E
:101CC00090936D02A0936E02B0936F02C092700267
:101CD000D0927102E0927202F092730210922B0283
:101CE00010922C0210922D0210922E0210922F02AE
:101CF000109230021092310210923202109233028E
:101D00001092340210923502109236026BCB82E3AD
:101D100089831A820E9419252B013C019E012F5FA5
:101D20003F4F42E061E0F701848595850E94DE1E09
:101D30000E941925DC01CB0184199509A609B70970
:101D400081329340A105B10508F0D5C2998197FD74
:101D50000DC3481859086A087B08D70150968C9122
:101D60008823C1F02FEF280F41E050E002C0440F5C
:101D7000551F2A95E2F7052E000C660B770B440ED3
:101D8000551E661E771E04C0769467945794479438
:101D90008A95D2F7BFEF4B1651046104710408F025
:101DA00055C32A8130E0220F331F892F90E0982FEE
:101DB0008827990F822B932BF7012689E20FF11DBB
:101DC000478A808F918F2D5FD70156962C9333CD04
:101DD000CB8481E089831A821B821C829E012F5F43
:101DE0003F4F43E061E0848995890E94DE1E69814E
:101DF0007A818B819C810E94CA42BB27A92F982F90
:101E0000872F9C01AD01442755272C8B3D8B4E8B92
:101E10005F8B89821A829E012F5F3F4F42E061E013
:101E2000D50154968D919C9155970E94DE1E8A8112
:101E3000982F9C7F8C898170E92EE82A0C891D8956
:101E40002E893F89B301A201C5010E9457272FCCDB
:101E5000CB8419821A821B821C829E012F5F3F4F06
:101E600044E061E0F501848995890E94DE1E698164
:101E70007A818B819C810E94CA42F62FF770EF2EE7
:101E80008B019C01B301A201C5010E9457270FCC11
:101E90002B852C8B99821A821B821C829E012F5FBC
:101EA0003F4F44E061E0848995890E94DE1E69818C
:101EB0007A818B819C810E94CA426B017C01BFE0C8
:101EC000B9831A829E012F5F3F4F42E061E0F50126
:101ED000848995890E94DE1E970186013327CC886C
:101EE000EA80B301A201C5010E945727E0CBAB8471
:101EF000F8012B2D11922A95E9F7C982980149E042
:101F000061E01C968D919C911D970E94DE1ED70169
:101F100053968C9190E0FC017496EE0DFF1D3B8171
:101F2000232F207FE1F0203FD1F0D482D382D282D0
:101F3000D182F701E80FF91FD48AF70183898B5FFB
:101F4000838B8F3208F0BEC2D7011E968C911E97EC
:101F50008E7F1E968C93C7010E9492410ECC2D81DC
:101F6000422F407F09F060C25F81452F407F11F012
:101F7000403FD9F648854039C1F649854F77942EC0
:101F8000B0E2B41790F2D701A80FB91F4A81549656
:101F90004C938C8181838E818283852F90E03F7169
:101FA000AC01440F551F42955295507F5427407FF6
:101FB0005427342B3383880F991F880F991F8076FD
:101FC0002F71822B8483D70153968C9153978B5F0B
:101FD00053968C938F3208F47BC275C2D9800E94CD
:101FE00019254B015C01F801F085FC8B8F2F90E0E7
:101FF000F801A289B389C4886588768837894796AD
:1020000040E050E0BA01F301F89430830000000092
:1020100030832C917894440F551F661F771F2C2115
:10202000412C512C32014394211103C0412C512CDD
:1020300032014429552966297729019728F7D801C3
:1020400019961C921A012B010C8804C056944794CF
:10205000379427940A94D2F747FE02C055245A9425
:1020600081E090E00C8802C0880F991F0A94E2F783
:10207000815090E0A0E0B0E0482359236A237B23FD
:1020800084179507A607B70709F4CFC2F80116868B
:102090001786108A118AD8015C968C91F801E80F96
:1020A000F11D258E368E478E50A28C5FF801848FED
:1020B000803308F4B8CC6D2DC80148960E941F1DCE
:1020C000B2CCAF8450968D919C915197C09758F1A6
:1020D000B982D6011C96ED91FC911D978601085E90
:1020E0001F4F20E3AE014F5F5F4F61E080810E9490
:1020F000EA1880E3F601878B80899189C097918BDC
:10210000808B6A2DC60143960E941F1DD6015096F2
:102110008D919C915197C09770F11092260281E0A9
:1021200080937402B3CBD6011C96ED91FC911D9760
:102130009B868E010F5F1F4F22E0AE01455F5F4F10
:1021400061E080810E94EA1889818F7190E0982F68
:1021500088272A81822BF60126853785281739079B
:1021600010F497878687D60151969C938E9350974B
:10217000C0970CF0ADCFF60182898E7F828BC601AD
:102180000E94DE4183CB2F84F401242D11922A95E5
:10219000E9F75B861C8669825396AC905397B12C05
:1021A000650134E1C30ED11CC00ED11E940147E07D
:1021B00061E01C968D919C911D970E94DE1E9E01F0
:1021C000255F3F4F42E061E0D8011C968D919C91C4
:1021D0001D970E94DE1E8C85B82FBF733B2E807426
:1021E000782EF801EA0DFB1D8A81848B8B81F60124
:1021F00081838C8182838D8183838E8184838F818F
:102200008583D80153968C9153978A5F53968C930C
:102210008E3208F0E9C1772031F0F8018189928986
:102220000196928B818B332009F4D8C1D8011E9678
:102230008C911E978E7F1E968C93C8010E949241AE
:102240004ACBFB8419821A821B829E012F5F3F4F6B
:1022500043E061E01F968D919C9150970E94DE1E95
:10226000F801118A8A819B81982789279827092E4E
:10227000000CAA0BBB0BA7FDBF6FF8012789E20F6B
:10228000F11D808F918FA28FB38F84E0820FD801D0
:1022900057968C93803308F4E1CB6F2DC801439699
:1022A0000E941F1DDBCB8FE789838EEF8A830E94FC
:1022B00019256C8B7D8B8E8B9F8B9E012F5F3F4FE3
:1022C00042E060E0F701848595850E94DE1E0E9451
:1022D00019252B013C01DC01CB012C893D894E895C
:1022E0005F89821B930BA40BB50B81329340A10530
:1022F000B10508F4B8C0D70156968C91F701E80FE4
:10230000F11DD78A92E0908F118E8D5FF701868B39
:1023100092CA318D308F7894AC01415F5F4F5F93EB
:102320004F931F922F93FC0187891F928F9389816E
:102330001F928F931F930F930E94FF362DB73EB7C6
:10234000265F3F4F0FB6F8943EBF0FBE2DBFF2C8B9
:102350002A893B89E217F30709F00FC1809590E0C5
:102360002A8530E08217930709F444C1D7015696B5
:102370008C91F701E80FF11DD78A93E0C4CFC88E86
:10238000D98EEA8EFB8E55C86115710550E185071F
:10239000910508F043CC8B019C0101501F4F2F4F3A
:1023A0003F4F5527432F322F212F0E949842DC01A7
:1023B000CB0140912B0250912C0260912D02709123
:1023C0002E02840F951FA61FB71F23CCC090790241
:1023D0008C2D807F803109F067CB1D1508F4C3CBAD
:1023E0008D2D90E0FC01E958FD4F20812E3709F03A
:1023F0005BCBFC01EB58FD4F4F01FC01EA58FD4F50
:102400009081D4018C91292F30E07901F82A6DEF69
:102410006D0D88E792E00E942F25E816F90609F471
:10242000C9C1B090780240CB403F09F07ECD9CCD31
:102430001C92F601E25BFF4F6081349780819181AD
:102440000E945B22D60153968C91CBCAF7018689F4
:10245000E80FF11DD78A91E0908F118E8D5FD70123
:1024600056968C93E8C980EC89831A829E012F5F6F
:102470003F4F42E061E0D7011C968D919C911D97E2
:102480000E94DE1E49812A81942F9227892F8295EE
:102490008F709827892F869586958927982F9695EE
:1024A000892780FDBBC046FF13C1F7018689E80F6D
:1024B000F11DD78A25E0208F118E8D5FD7015696AA
:1024C0008C93B9C9912C6A2DC7010F960E941F1DCC
:1024D000BEE1B91508F097C2F7018189928901968A
:1024E000928B818B1092260281E08093520245C923
:1024F000D7011C96ED91FC911D971481C280038138
:1025000040E06C2D702F812F0E940E1A0E94192519
:102510002B013C01B0E14B0E511C611C711C0E944F
:102520001925272D461657066806290B27FFF7CFD2
:10253000F89441E06C2D702F812F0E940E1A0E949A
:1025400019252B013C017894E889F9892AE0119238
:102550002A95E9F734E8398343E24A839E012F5FE5
:102560003F4F4AE061E0D7011C968D919C911D97E9
:102570000E94DE1EFE01339685E09191892728E0B6
:1025800030E005C0880F2150310909F4E1CE87FF02
:10259000F9CF880FBDE18B27F6CF548965899089E3
:1025A0002189328943898F5F858F78946F935F93F8
:1025B0004F933F932F939F9389811F928F931F93E4
:1025C0000F930E94FF366DB77EB7665F7F4F0FB6E1
:1025D000F8947EBF0FBE6DBF0C94710A1092260254
:1025E00081E08093750277C9622DC8010F960E9421
:1025F0001F1D11CE898584FF55C08B8187FDAAC020
:10260000D70156968C91F701E80FF11DD78AB4E0F7
:10261000B08F118E8D5FF701868B0DC9F70186890A
:10262000E80FF11DD78A93E017CF0E941925AB015F
:10263000BC01481959096A097B09F801828593850B
:10264000A485B58523E0880F991FAA1FBB1F2A9573
:10265000D1F784179507A607B70768F5168617867A
:10266000108A118A18CDF601ED5AFF4F2081318171
:1026700042815381E92F621773078407E50BE7FF57
:102680009DC9ADC9F601ED5AFF4F60837183828306
:102690009383369760813397808191810E945B227A
:1026A00080E09BC9D70156968C91F701E80FF11D88
:1026B000D78AB5E0ADCFF80186859785A089B18925
:1026C0000097A105B10509F4E6CC1C012D01E3CC6E
:1026D000481859086A087B08F70130893323C9F084
:1026E0008FEF830F61E070E002C0660F771F8A955D
:1026F000E2F7CB01092E000CAA0BBB0B480E591EAA
:102700006A1E7B1E04C076946794579447943A954A
:10271000D2F77FEF471651046104710408F03FC0FF
:10272000842F90E0AC01542F4427550F550FF4E04F
:102730002F9FC0011124842B952BD70156962C91E5
:10274000F701E20FF11D478A808F918F2D5FF7010E
:10275000268B71C8481859086A087B08F1E54F169E
:10276000F5E55F0661047104D0F42C8130E0220F9E
:10277000331F90E0982F8827990F822B932BD70136
:1027800056963C91F701E30FF11D2F8126952F738B
:10279000278B808F918F3D5FF701368B4CC8D70117
:1027A00056968C91F701E80FF11DD78A91E0ABCDD9
:1027B00011E0A0C9802F8D7F80932A0280910902A9
:1027C000C8121FC181E08C0D8F7080618093090257
:1027D000BAE78B16B2E09B0609F008F4F9C00AE7E5
:1027E00012E081E8282E86E0382E99E0C92EADB699
:1027F000BEB6D8018C9187FDB4C00F5F1F4F90E02B
:10280000009709F4FBC0F1012591349182179307D9
:1028100008F0F4C09C01220F331F220F331F220F38
:10282000331F280F391FF901E25CFC4FE4914DB7CB
:102830005EB764E0E69F4019510911240FB6F89481
:102840005EBF0FBE4DBFADB7BEB711967D01F9019A
:10285000E05CFC4F4491F901EF5BFC4F2591349112
:10286000F901240F311DA9019D019D8B8C8B4E1701
:102870005F0709F488C08016910608F46FC0649160
:10288000653028F1673009F069C02801BFEF4B1AA5
:102890005B0AD8016C918201060F111D801691060A
:1028A00008F45CC070E080E090E0D9016D937D9306
:1028B0008D939C931397612C712C14964D925D927D
:1028C0006D927C921797285F3F4F3196D0CFB90118
:1028D0006C5F7F4FC8010196998B888BD8011C9142
:1028E000912F9F77492E512C612C712C012F00764E
:1028F000003609F441C017FF6EC0088919890F5FBF
:102900001F4FD80111978C91440C551C661C771CE5
:10291000440C551C661C771C440C551C661C771C0B
:10292000440C551C661C771C440C551C661C771CFB
:10293000440C551C661C771C440C551C661C771CEB
:10294000982F9F77492A87FDDACFD9014D925D9262
:102950006D927C9213979B01319689CF87E00E94FC
:10296000E53E8F77B0E88B9FC0011124F8012181EB
:10297000822B0E5F1F4F44CFB0EE4B2A55245A9442
:10298000652C762CB8CF8C899D8920912702222333
:1029900051F0C89EF001C99EF00D1124E15CFC4F7E
:1029A000E491E0FF1BC0C89EF001C99EF00D112408
:1029B000ED5BFC4F25913491C701F90119950FB6D4
:1029C000F894BEBE0FBEADBE0815190508F40FCFB2
:1029D000CC24C39492C808891989B7CF8091280262
:1029E0001F928F93EEE5F7E0FF93EF930E94FF367F
:1029F0000FB6F894BEBE0FBEADBEE6CF85E00E9416
:102A0000E53E1D2D6FC8F1E0F91508F46BCD9CCAA9
:102A10000F931F93CF93DF938C0180913F0290918E
:102A20004002892B09F04BC060913E0270E0623099
:102A300071052CF482E080933E0262E070E0E09148
:102A40003A02F0913B024DB75EB741505F4F4427C9
:102A50005A959F01C0E0D0E0C901860F971F481723
:102A6000590730F121969C01C115A4E0DA07A1F7BE
:102A70008E1B9F0B0E94DC36D0934002C0933F0216
:102A800090933D0280933C020E94892DF801808141
:102A90009181A281B3818093410290934202A093DD
:102AA0004302B0934402DF91CF911F910F9108959B
:102AB000209711F0C901DCCF80E10E94E53E8DE056
:102AC0000E94E53ECF932091380230913902232BAA
:102AD00091F4FC01C0818C2F90E0880F991F880F22
:102AE000991F0E94DC369093390280933802C0937C
:102AF0003702CF9108958AE00E94E53E80913F021F
:102B0000909140029F938F9321E0309127023111E1
:102B100001C020E01F922F93209144022F93209117
:102B200043022F93209142022F93209141022F9331
:102B300021E0892B09F420E01F922F938AE397E08C
:102B40009F938F930E94FF368DB79EB70C960FB65A
:102B5000F8949EBF0FBE8DBF0895CF93DF93EC0115
:102B6000988140913702A0913802B09139020BC090
:102B7000FD0184E0989FE00DF11D11242081318139
:102B80002617370741F09F5F941790F380E090E09D
:102B9000DF91CF910895988382819381DF91CF91C6
:102BA0000895AF92BF92DF92EF92FF920F931F931F
:102BB000CF93DF93FC01A485B58596854785508921
:102BC000E18822893389F488A588B6887789008DC1
:102BD000118DD28C808586279C9384FD20C085FD35
:102BE00022C086FD24C087FD26C09C93862F829537
:102BF000807F808768279C9364FD2AC065FD25C07F
:102C000066FD1CC067FD1EC09C93DF91CF911F9194
:102C10000F91FF90EF90DF90BF90AF900895EA0181
:102C2000E88285FFDECFE901F88286FFDCCFE5018F
:102C3000788387FFDACFE801D882D7CFF501708398
:102C400067FFE2CFE801D882DFCFE901F882D8CF71
:102C5000FA01E082D3CF5F926F927F928F929F9220
:102C6000AF92BF92CF92DF92EF92FF920F931F939A
:102C7000CF93DF938C01FC01C080D180E280F38090
:102C800084809580A680B78066246A94660E662349
:102C900001F1EA01712CFFEF6F1A7F0A640E751EB5
:102CA00059900E941925DC01CB018C199D09AE09B0
:102CB000BF0988159905AA05BB0598F3652DC801BC
:102CC0000E94D1150E9419256B017C01C615D705FC
:102CD00039F7F801C082D182E282F382DF91CF918D
:102CE0001F910F91FF90EF90DF90CF90BF90AF902A
:102CF0009F908F907F906F905F900895EF92FF92DA
:102D00000F931F93CF93DF938C016BE370E3FC0170
:102D100080810E94712D7C018FE090E00E94DC3662
:102D2000EC0188E893E19E878D87F8018089880F00
:102D30008C8761E084810E94D5196E837F838887A8
:102D400061E0F80184810E94C723688379838A83C4
:102D500061E0F80180850E94D51969877A878B87A1
:102D600061E0F80180850E94C7236B837C838D839B
:102D7000F701D283C183838181608383DF91CF9107
:102D80001F910F91FF90EF9008950F931F93CF9392
:102D9000DF93EC016DEF76E188810E94712D8C014B
:102DA000FC0161857285838541E00E940E1A488589
:102DB00059856C81C801DF91CF911F910F910C94BF
:102DC0002B160F931F93CF93DF93EC016DEF76E1FA
:102DD00088810E94712D8C01FC016185728583853B
:102DE00040E00E940E1A488559856C81C801DF9128
:102DF000CF911F910F910C942B16CF92DF92EF92EF
:102E0000FF920F931F93CF93DF93EC014BE150E0C0
:102E10006DEF76E188810E94422D8C0160E08C810B
:102E20000E94C723F80161877287838760E08885E5
:102E30000E94C723F80164877587868760E08C85C8
:102E40000E94C723F8016787708B818B60E08889B7
:102E50000E94C723F801628B738B848B60E08C899E
:102E60000E94C723F801658B768B878B60E0888D85
:102E70000E94C723F801608F718F828FF8940E949F
:102E800019256B017C0160E0C8010E94D1150E94E8
:102E900019257894DC01CB018C199D09AE09BF0975
:102EA000CC8CDD8CEE8CFF8C8C159D05AE05BF05A2
:102EB00048F4C81AD90AEA0AFB0AF801C482D58282
:102EC000E682F782DF91CF911F910F91FF90EF90F3
:102ED000DF90CF900895DF92EF92FF920F931F93B0
:102EE000CF93DF93EC01D88883E08D15B0F16DE0CE
:102EF0007EE188810E94712D7C018AE090E00E9431
:102F0000DC368C0161E08C810E94D519F801608368
:102F10007183828360E088850E94C723F801638300
:102F20007483858360E08C850E94C723F8016683E3
:102F300077838087D186F7018581982F967081F4F9
:102F4000F7011183008382608583DF91CF911F9108
:102F50000F91FF90EF90DF9008958BE10E94E53E86
:102F60000E943D1ECF92DF92EF92FF92CF93DF93AC
:102F7000EC010E9419256B017C019E01A0E8BEE3D3
:102F80000E94D14220E432E44FE050E00E94A84287
:102F9000C20ED31EE12CF12C0E9419256C157D0563
:102FA0008E059F05C8F3DF91CF91FF90EF90DF90E2
:102FB000CF9008950F931F93CF93DF93EC01062FCB
:102FC00018E01DC06B817C818D8140E00E941D1A3C
:102FD000000F8D859E850E94B2176E817F81888546
:102FE00041E00E94BF198D859E850E94B2176881BD
:102FF00079818A8140E00E941D1A115049F007FF33
:10300000E1CF69857A858B8541E00E94BF19E0CFC9
:1030100069857A858B8541E00E94BF198D859E85E3
:103020000E94B2176E817F81888541E00E94BF199E
:10303000E985FA8510818B8518238D859E850E94F0
:10304000B217688179818A8140E00E941D1A6985E2
:103050007A858B8541E00E94BF19111105C0DF916F
:10306000CF911F910F91089585E20E94E53E4F9206
:103070005F926F927F928F929F92AF92BF92CF9208
:10308000DF92EF92FF920F931F93CF93DF938C0108
:10309000562E3A01FC0180809180A280B380C480CA
:1030A000D580E680F780EA012196FA014080642D00
:1030B000607F0E945E340E941925DC01CB018819D3
:1030C0009909AA09BB098C159D05AE05BF0598F3A2
:1030D000642D6295607FC8010E945E340E941925AC
:1030E0006B017C01F80180849184A284B384F1E0B7
:1030F0005F1639F15A945A94852D90E00296680E25
:10310000791E5990652D607FC8010E945E340E942F
:103110001925DC01CB018C199D09AE09BF09881561
:103120009905AA05BB0598F3652D6295607FC801D6
:103130000E945E340E9419256B017C01C615D705DB
:1031400001F7F801C082D182E282F382DF91CF9150
:103150001F910F91FF90EF90DF90CF90BF90AF90B5
:103160009F908F907F906F905F904F900895CF9237
:10317000DF92EF92FF926B017C0109C00E9419253A
:10318000292F6C157D058E052F0927FF09C0809119
:10319000BC0087FFF3CFFF90EF90DF90CF900895B2
:1031A00081E30E94E53E24EA2093BC000E94B71808
:1031B0008091B90090E0A0E0B0E080319105A105D8
:1031C000B10521F00897A105B10509F4089580E340
:1031D0000E94E53E7F928F929F92AF92BF92CF92D4
:1031E000DF92EF92FF920F931F93CF93DF93782E8E
:1031F000C62F942EB52E822E0E9419256B017C01BC
:1032000020E8C20E28E3D21E21E0E21EF11CC70115
:10321000B6010E94D3187092BB0084E88093BC0072
:10322000C701B6010E94B718AA24AA94AC0ECC23F9
:10323000B1F0C92DDB2DB12C8FEFA81AB80AAC0E56
:10324000BD1E94E8992E89918093BB009092BC009A
:10325000C701B6010E94B718AC16BD06A1F7C70199
:10326000B6010E94D318872D81608093BB0084E84B
:103270008093BC00C701B6010E94B718DFEFD80DDC
:10328000882009F15801CD2F84EC982ECC2369F0C9
:103290009092BC00C701B6010E94B7188091BB0094
:1032A000F50181935F01C15099F7F801ED0FF11D10
:1032B000EF0184E88093BC00C701B6010E94B718F3
:1032C0008091BB00888384E98093BC00DF91CF911B
:1032D0001F910F91FF90EF90DF90CF90BF90AF9034
:1032E0009F908F907F900895BF92CF92DF92EF9240
:1032F000FF920F931F93CF93DF93D82FC62FB42E37
:10330000152F0E9419256B017C0120E8C20E28E3CD
:10331000D21E21E0E21EF11CC701B6010E94D318A3
:10332000D093BB0084E88093BC00C701B6010E9423
:10333000B7180FEF0C0FCC23A9F0CB2DD12F10E035
:103340000F5F1F4F0C0F1D1F84E8B82E89918093CB
:10335000BB00B092BC00C701B6010E94B718C017ED
:10336000D107A1F784E98093BC00DF91CF911F9131
:103370000F91FF90EF90DF90CF90BF900895FB01E9
:103380002FB7F8949281141644F4982B8095928369
:103390009181892381832FBF0895809598239283FB
:1033A0009181892381832FBF08958036A0F567FD21
:1033B00032C0E82FE695E695E695F0E0EE0FFF1FA8
:1033C000E659F84FA591B491109729F1877021E043
:1033D00030E0A90102C0440F551F8A95E2F7CA01E7
:1033E0004FB7F89412963C911297662381F0382BD0
:1033F000282F209512963C93129711963C91119785
:10340000232311962C9311974FBFBD010895282FA8
:1034100020953223EFCF8CE20E94E53EFB012FB7CF
:10342000F8949281411105C08095892382832FBF32
:103430000895892B82832FBF0895FB012FB7F8943D
:103440009281411109C0382F309593239283918145
:10345000892B81832FBF0895982B92839181892B8B
:1034600081832FBF0895CF93DF93FC0180859185E1
:10347000A285B38521892223F1F0258936892F5F22
:103480003F4F368B258B880F991FAA1FBB1F880FB4
:10349000991FAA1FBB1F4481558166817781840FC4
:1034A000951FA61FB71F84839583A683B78381E0EA
:1034B000DF91CF910895C485D58538812685232352
:1034C00051F721E0218B1092260220934602880FAB
:1034D000991FAA1FBB1F880F991FAA1FBB1F880F08
:1034E000991FAA1FBB1FD7CFCF93DF93FC01828503
:1034F0009385A485B58521852223F1F0228D338D16
:103500002F5F3F4F338F228F880F991FAA1FBB1F3A
:10351000880F991FAA1FBB1F44815581668177813F
:10352000840F951FA61FB71F84839583A683B78337
:1035300081E0DF91CF910895C289D38938812489B0
:10354000232351F721E02187109226022093450280
:10355000880F991FAA1FBB1F880F991FAA1FBB1F87
:10356000880F991FAA1FBB1FD7CF9F92AF92BF9200
:10357000CF92DF92EF92FF920F931F93CF93DF933F
:10358000FC01908068EB7BE1892D0E94712DEC019C
:10359000F8940E9419259B01AC01EC85FD85908172
:1035A0008E85892378948823B9F0A12CB12C6501EC
:1035B000E12CF12C8701692DCE0143960E944E2506
:1035C000DF91CF911F910F91FF90EF90DF90CF90FF
:1035D000BF90AF909F90089584E0A82EB12CC12C8D
:1035E000D12CE6CF9F92AF92BF92CF92DF92EF9213
:1035F000FF920F931F93CF93DF93FC0190806BEEAC
:103600007CE1892D0E94712DEC01F8940E9419250E
:103610009B01AC01EA89FB8990818C89892378948C
:103620008823B9F0A12CB12C6501E12CF12C870184
:10363000692DCE0148960E944E25DF91CF911F91B2
:103640000F91FF90EF90DF90CF90BF90AF909F9041
:10365000089584E0A82EB12CC12CD12CE6CF0F9375
:103660001F93CF93DF93FC01C081D181128103812D
:1036700060EE7BE18C2F0E94712DFC01ED5AFF4F13
:1036800023812F9322812F9321812F9320812F93A8
:103690003797808182FB882780F91F928F930F9341
:1036A0001F93DF93CF9380EE96E09F938F930E94BA
:1036B000FF368DB79EB70C960FB6F8949EBF0FBE1F
:1036C0008DBFDF91CF911F910F9108950F931F939D
:1036D000CF93DF938C0160EE7BE1DC018C910E9443
:1036E000712DEC01F80180859185A285B385FE01DD
:1036F000E15BFF4F80839183A283B383892B8A2B65
:103700008B2B59F4359711821082C45BDF4F1882DE
:10371000DF91CF911F910F910895F80184819581D8
:10372000A681B781FE01ED5AFF4F80839183A2836A
:10373000B38367EE70E2D8011C968C910E94712DC4
:10374000FE01E65BFF4F918380833396D80150964C
:103750008C9150978083319654968C918083C45B72
:10376000DF4F86E08883DF91CF911F910F910895FD
:103770000F931F93CF93DF938C014BE450E068EBE2
:103780007BE1FC0180810E94422DEC0183E39AE100
:103790009B838A83198A6DE07EE1F80184810E940F
:1037A000712D988B8F8760E0F80180850E94D51974
:1037B0006C877D878E87DF91CF911F910F91089540
:1037C0000F931F93CF93DF938C0147E550E060EE9A
:1037D0007BE1FC0180810E94422DEC0187E49FE3A4
:1037E0009B838A836BE370E3F80184810E94712DCF
:1037F0009D878C87DF91CF911F910F910895EF9254
:10380000FF920F931F93CF93DF93EC010E94E01B75
:1038100060EE7BE188810E94712D8C017C0187E440
:10382000E80EF11C61E088850E94D519F7016083DC
:103830007183828382E0F8018687DF91CF911F91A7
:103840000F91FF90EF9008950F931F93CF93DF9305
:103850008C0168EB7BE1FC0180810E94712DEC0101
:103860000E942E3C198AF80184819581A681B78136
:1038700088879987AA87BB87892B8A2B8B2BD1F0C6
:103880001C8A1B8A1E8A1D8A1F8AF8940E94192589
:10389000088519852A853B85DC01CB01800F911FA6
:1038A000A21FB31F8C839D83AE83BF83CE010E9472
:1038B000803C7894DF91CF911F910F9108950F93E1
:1038C0001F93CF93DF938C0160EE7BE1FC0180813D
:1038D0000E94712DEC010E942E3C8E858E7F8E877A
:1038E000F80184819581A681B7810097A105B10572
:1038F000F1F088879987AA87BB87188A1F861A8A5A
:10390000198A1B8AF8940E941925088519852A8529
:103910003B85DC01CB01800F911FA21FB31F8C835D
:103920009D83AE83BF83CE010E94803C7894DF915B
:10393000CF911F910F9108950F931F93CF93DF9312
:103940008C016BEE7CE1FC0180810E94712DEC0109
:103950000E942E3C19861E861F86188A198AF80135
:1039600084819581A681B7818A879B87AC87BD8733
:10397000892B8A2B8B2B29F16D897E898F8940E0D9
:103980000E940E1A198E188E1B8E1A8E1C8EF89499
:103990000E9419250A851B852C853D85DC01CB01FC
:1039A000800F911FA21FB31F8C839D83AE83BF83A3
:1039B000CE010E94803C7894DF91CF911F910F91AE
:1039C00008956D897E898F8941E0DF91CF911F91A4
:1039D0000F910C940E1A0F931F93CF93DF938C01CA
:1039E00040E550E06BEE7CE1FC0180810E94422DBD
:1039F000EC0184E79AE19B838A831986F80184812C
:103A00009FEF980F9430C0F4888761E0F8018085BB
:103A10000E94D5196A8B7B8B8C8B60E0F8018485C2
:103A20000E94C7236D8B7E8B8F8B41E0DF91CF91FE
:103A30001F910F910C940E1A8AE20E94E53ECF93DB
:103A4000DF93EC0105969F938F938C811F928F9348
:103A500089818F9388818F931F926F9384ED96E075
:103A60009F938F930E94FF361C82888199810196D3
:103A7000998388838DB79EB70A960FB6F8949EBF38
:103A80000FBE8DBFDF91CF9108950F931F93CF93FA
:103A9000DF9300D0CDB7DEB7DC011C96ED91FC9131
:103AA0001D9788E18B838E010F5F1F4F22E0AE01CF
:103AB0004D5F5F4F61E080810E94EA1889819A81A1
:103AC0009827892798270F900F900F90DF91CF911B
:103AD0001F910F9108954F925F926F927F928F92F4
:103AE0009F92AF92BF92CF92DF92EF92FF920F938D
:103AF0001F93CF93DF934C0160EE7BE1FC0180814B
:103B00000E94712DEC018E8581FF31C0F8940E94D6
:103B100019259B01AC01FE01E95BFF4F0190F0818B
:103B2000E02D9081FE01E75BFF4F8081892378942F
:103B30008823D9F1A12CB12C6501E12CF12C87014E
:103B4000F4016081CE010F960E944E25DF91CF9146
:103B50001F910F91FF90EF90DF90CF90BF90AF90AB
:103B60009F908F907F906F905F904F9008950E94EC
:103B700019252B013C01CE010E94451D182F0E94E2
:103B8000192513FD0CC0A12CB12C65017B018C0102
:103B9000E418F50806091709A3019201D1CF24E022
:103BA000A22EB12CC12CD12CF1CF64E0A62EB12CC9
:103BB000C12CD12CC2CF46E050E06DE07EE1FC018B
:103BC00080810C94422DCF92DF92FF920F931F932E
:103BD000CF93DF93EC016DE07EE18C810E94712D2B
:103BE0006C01F8840F2D10E0A8014D5F5F4F63EE6C
:103BF0007DE188810E94422DFC01D182C082F28247
:103C00006C857D85A8010396DF91CF911F910F915F
:103C1000FF90DF90CF900C944843FF920F931F9337
:103C2000CF93DF938C0146E050E06DE07EE1FC0134
:103C300080810E94422DEC01F801F08461E0F110D6
:103C400060E0F80184810E94C7236A837B838C83B0
:103C50008D81F11009C091E0892B8D83DF91CF9187
:103C60001F910F91FF90089599E0892B8D83DF912B
:103C7000CF911F910F91FF9008958BE10E94E53E37
:103C80008F929F92AF92BF92FF920F931F93CF9309
:103C9000DF93EC016DE07EE188810E94712D8C0143
:103CA000F88483E08F1508F484C0F801858186705C
:103CB00009F07FC08C849D84AE84BF848C819D81FB
:103CC000AE81BF81892B8A2B8B2B09F074C0ECE667
:103CD000F7E0A591B49111968C9180FD04C060E04D
:103CE00088E00E94C72360E089E00E94C72360E06B
:103CF0008AE00E94C72360E08BE00E94D51980E52E
:103D00008CBD1DBC8114F2E19F06FAE7AF06B10439
:103D100008F041C0811489E098068DE3A806B1043B
:103D200018F5E0E88E16E4E89E06EEE1AE06B10472
:103D3000C0F5F0E48F16F2E49F06FFE0AF06B10491
:103D400068F580E2881681EA980687E0A806B10443
:103D500058F590E0E0E98E16E0ED9E06E3E0AE0651
:103D6000B10428F583E002C090E080E0CF2DCC0FB5
:103D7000CC0FC065C82BF801C08391838581846016
:103D80008583DF91CF911F910F91FF90BF90AF90EE
:103D90009F908F90089591E080E0E8CF90E081E0DF
:103DA000E5CF91E081E0E2CF91E082E0DFCF82E0F9
:103DB000DDCF0E943D1E8FE20E94E53E6F927F9212
:103DC0008F929F92AF92BF92CF92DF92EF92FF922B
:103DD0000F931F93CF93DF934C01E62E142F6901AD
:103DE000DC0115967C901597872D867009F451C0DB
:103DF00071FC39C0F401908181819CBD8DBDF72D8E
:103E0000F1706F2E70FCC8C0EE2009F49CC08FEFDB
:103E1000810F112351F0F60190819EBD0DB407FE74
:103E2000FDCF9EB591938150B8F7662091F1072D93
:103E3000069506950695402F40954170D40112963F
:103E40006D917D918C91DF91CF911F910F91FF909A
:103E5000EF90DF90CF90BF90AF909F908F907F902A
:103E60006F900C940E1AED91FC9141854270668121
:103E7000778180850E940E1AB72DB1706B2E70FC71
:103E800017C0D401CD91DC91AA24AA94A10E1111DE
:103E900026C0DF91CF911F910F91FF90EF90DF909F
:103EA000CF90BF90AF909F908F907F906F9008952C
:103EB000072D069506950695402F4170F401628105
:103EC000738184810E940E1AD401CD91DC91AA24C1
:103ED000AA94A10E112309F4AECF66246394B12CE9
:103EE0008FEFA81AB80AAC0CBD1CD601FC9008E0F4
:103EF00010E0898580FF35C0EE81FF818885808351
:103F00004F2D40786B817C818D810E940E1AFF0CB1
:103F1000EE81FF8188858083110FE881F98190818E
:103F20008A81892391E009F490E0192B015009F767
:103F3000EE2011F0F6011083FFEFCF1ADF0AAC1468
:103F4000BD0499F672CFF6019601210F311D2E178F
:103F50003F0709F46ACF81918EBD0DB407FEFDCFF6
:103F6000F6CF4F2D40786B817C818D810E940E1A97
:103F7000FF0CEE81FF8188858083110FE881F98134
:103F800090818A81892391E009F490E0192BEE81D8
:103F9000FF8188858083CACF73FA442740F9F401F2
:103FA0006281738184810E940E1A662463942CCFEF
:103FB000CF93DF93EC016DE07EE188810E94712D4B
:103FC000288539854C8160E0DF91CF910C94DE1E0D
:103FD000FF920F931F93CF93DF93EC0118816DE055
:103FE0007EE1812F0E94712D0C81F884C9852F2DCF
:103FF0003C2F402F61E00E94DE1ECF93FF921F9264
:104000000F931F921F9380E197E09F938F930E94DD
:10401000FF368DB79EB708960FB6F8949EBF0FBEB9
:104020008DBFDF91CF911F910F91FF9008951F9346
:10403000CF93DF93EC01162FAC89BD891097B9F0AF
:104040001296ED91FC9113978D919C9111979D8BF8
:104050008C8B11961C921E9213961C921E92129794
:10406000612FCD011995AC89BD89109749F7109240
:10407000260281E080934702DF91CF911F9108953E
:10408000FC013897968990FF08C0608D678B9A7FF6
:104090009460968BCF010E94172080E00895FC0168
:1040A00086898460868B1092260281E08093470285
:1040B000448155816681778180899189A289B389FC
:1040C000840F951FA61FB71F84839583A683B7838C
:1040D00081E008950F931F93CF93DF938C0169EFD5
:1040E00070E2FC0180810E94712DEC010E942E3C47
:1040F000909100028A8D981303C08FEF8093000285
:10410000F80184819581A681B781888B998BAA8BD0
:10411000BB8B8C839D83AE83BF8380859185A28575
:10412000B3858C879D87AE87BF8784858E8F91E00E
:10413000980F9D8F40895189628973894887598773
:104140006A877B87248935893F8B2E8B208D318D23
:10415000398F288F948D9C8F811105C0DF91CF916D
:104160001F910F910895CE01DF91CF911F910F9173
:104170000C94803CEF92FF920F931F93CF93DF93A9
:104180008C0167EE70E2FC0180810E94712DEC01D0
:10419000F8948E8980FF13C07E01F8E0EF0EF11CC9
:1041A000C7010E942E3CF80184819581A681B781C8
:1041B0008C879D87AE87BF87C7010E94803C78941B
:1041C000DF91CF911F910F91FF90EF90089549E1FA
:1041D00050E067EE70E2FC0180810E94422D2FE4E6
:1041E00030E2FC013383228320E430E233872287EC
:1041F0000895CF93DC0114969C91149720E030E051
:10420000C22FF901E757F94FE4919E1741F02F5F54
:104210003F4F20313105A1F78EE20E94E53E87E94C
:1042200080937A002830E8F420917E0081E090E0CD
:104230000C2E01C0880F0A94EAF7822B80937E002F
:104240004FE150E069EF70E28C910E94422DFC0139
:104250008FE391E293838283C28F81E0858FCF9138
:10426000089520917D003C2F377081E090E001C0DF
:10427000880F3A95EAF7822B80937D00E1CFFC010D
:1042800080917A0086FF0EC084819581A681B781D6
:104290008853984FAF4FBF4F84839583A683B783CE
:1042A00081E00895828D90910002981781F09F3FE0
:1042B00059F780930002982F987090937B00877035
:1042C000806480937C0087ED80937A00DDCF8FEF50
:1042D000809300022091780030917900858D968D31
:1042E000891780F544895589240F351F8F5F358BD9
:1042F000248B858F891760F186899789281739075C
:10430000C8F1808D918D82179307A0F1138E1092C2
:10431000260281E08093480240895189628973892D
:1043200080859185A285B385840F951FA61FB71F31
:10433000808B918BA28BB38B84839583A683B78369
:1043400081E0089581E0358B248B858F8917A0F655
:10435000448155816681778184859585A685B78559
:10436000840F951FA61FB71F84839583A683B783E9
:1043700081E00895838D8F5F838F948D891738F244
:10438000809127028111C2CF8AE10E94E53EEF921F
:10439000FF921F93CF93DF937C01FC01108167EEA6
:1043A00070E2812F0E94712DEC01F8948E8980FFBC
:1043B00009C0F70164816F8B8A7F84608E8BCE0188
:1043C0000E941720CE010E942E3CCE0108960E942A
:1043D0002E3C1E8A8F8978941F921F921F921F92E3
:1043E0001F928F931F921F921F921F938CE197E051
:1043F0009F938F930E94FF368DB79EB70C960FB692
:10440000F8949EBF0FBE8DBFDF91CF911F91FF909B
:10441000EF900895CF93DF93EC010E942E3CCE01E4
:1044200008960E942E3CEC89FD89309751F09081CE
:1044300081811382128211821082E92FF82F309726
:10444000B1F71D8A1C8A188E1F8A1E8ADF91CF91B0
:1044500008950F931F93CF93DF938C0167EE70E263
:10446000FC0180810E94712DEC01F8940E940A22C7
:1044700081E08E8BF80184819581A681B7818C8340
:104480009D83AE83BF8380859185A285B385888B0C
:10449000998BAA8BBB8B892B8A2B8B2B19F0CE0186
:1044A0000E94803CF8018485888F7894DF91CF91B9
:1044B0001F910F910895FC01968990FF07C0678BAB
:1044C0009A7F9460968BCF010C94172008958EE10B
:1044D0000E94E53E0F931F93CF93DF93FC01A189C8
:1044E000B2898D919C911197928B818B16968D91AB
:1044F0009C911797C085D185228521113FC02FB788
:10450000F894AC015527598348832FBF2091490265
:1045100030914A0211963C932E93B0934A02A09395
:104520004902A189B289109759F5278530898217E8
:10453000930741F083859485A585B6850097A105ED
:10454000B10531F480E0DF91CF911F910F91089573
:104550004481558166817781840F951FA61FB71FFF
:1045600084839583A683B78387E692E293838283CD
:1045700081E0DF91CF911F910F9108958883C6CF7D
:1045800012964D915D916D917C911597278530899B
:104590008217930741F083859485A585B68500979A
:1045A000A105B10551F4448355836683778381E087
:1045B000DF91CF911F910F9108950481158126817C
:1045C0003781800F911FA21FB31F2B2F84179507D0
:1045D000A607270B27FFE7CF8DE10E94E53EEF926C
:1045E000FF920F931F93CF93DF937C0169E673E2F1
:1045F000DC018C910E94712D8C010E94ED2DEC014B
:10460000F70184819581A681B7818A839B83AC83DE
:10461000BD83808591859F838E83F894198218824B
:10462000D80151968D919C915297892BB9F153964F
:10463000ED91FC915497D183C0835496DC93CE9333
:10464000539780E090E07894892B39F4DF91CF91F3
:104650001F910F91FF90EF900895C8010E942E3C8A
:10466000D80112968D919C91139787569242F1F042
:104670008A819B81AC81BD812AE632E2F8013383D5
:10468000228384839583A683B783C801DF91CF916A
:104690001F910F91FF90EF900C94803CF801D48B08
:1046A000C38BD28BC18B81E090E0CDCF8A819B817F
:1046B000AC81BD81F8014481558166817781272FC6
:1046C000481759076A072B0B27FFD6CF8DE10E94A9
:1046D000E53ECF92DF92EF92CF93DF93EC014885D6
:1046E00059856A857B852C858C810E94012E6B0102
:1046F000E82E45E150E069E673E288810E94422D90
:10470000FC01C086D186E28688899989908B87874B
:104710008C899D89AE89BF8983879487A587B68751
:104720008AE692E29383828368E070E0CF0141964B
:10473000DF91CF91EF90DF90CF900C94D32DB09973
:104740000FC080914B0290914C020196109206028C
:1047500010920502909308028093070281E0089569
:1047600081E086BB80914B0290914C020196909320
:104770004C0280934B0220E030E8309306022093F5
:104780000502909308028093070281E00895803625
:1047900078F5E82FE695E695E695F0E0EE0FFF1F39
:1047A000E659F84FA591B491109711F1877021E067
:1047B00030E0A90102C0440F551F8A95E2F7CA01F3
:1047C0003FB7F89412962C91129761110FC0409543
:1047D000242312962C93129711962C911197282B23
:1047E00011962C9311973FBFBD010895242BF1CF53
:1047F0008DE20E94E53E1F920F920FB60F92112498
:104800000BB60F92EF92FF920F931F932F933F934C
:104810004F935F936F937F938F939F93AF93BF93C8
:10482000CF93DF93EF93FF930DC07A0180918400C3
:10483000909185008E199F0997FD7CC07894B2995C
:104840009AC0F894C0912202D0912302EA81FB81A0
:10485000309709F0ADC0EA8DFB8D2C8D20838E85BD
:104860009F85019709F4C1C09F878E8788859985A8
:10487000AA85BB854C815D816E817F81480F591F60
:104880006A1F7B1F4C835D836E837F8320832CA5EF
:1048900025FF0EC00C851D85012E000C220B330B4D
:1048A000800F911FA21FB31F88879987AA87BB8794
:1048B000E881F9810481158126813781872F40178E
:1048C00051076207830B87FDB0CF7801F093230275
:1048D000E0932202A0912402B091250214960D913A
:1048E0001D912D913C911797872F40175107620713
:1048F000830B87FFFD01DF010190F081E02D048132
:10490000158126813781872F401751076207830B56
:1049100087FFF1CFF983E883CD93DC93D093250211
:10492000C093240280918400909185008E199F0984
:1049300097FF84CF863A9F4F0CF06AC0F0928900AF
:10494000E0928800FF91EF91DF91CF91BF91AF91FD
:104950009F918F917F916F915F914F913F912F9197
:104960001F910F91FF90EF900F900BBE0F900FBE15
:104970000F901F901895F894809184009091850075
:104980009701281B390B2038314CDCF1209126028D
:1049900027FF43C09C01205C304E30938B00209356
:1049A0008A0024E026BB90938900809388003ECF44
:1049B000CE0119954C815D816E817F81811178CF07
:1049C000E881F981E480F580F0932302E0932202EC
:1049D0008091240290912502C817D90709F026CFAB
:1049E000F0932502E093240221CFCE010E94A93545
:1049F000EA8DFB8D9C8D90834C815D816E817F81E2
:104A0000DDCF209127022111C1CF8BE20E94E53E2C
:104A10007894B299B0CFF89409CF9C012854344FC0
:104A200030938B0020938A0024E026BB7C01F39412
:104A300085CF2FB7F89460918400709185008091A4
:104A40004B0290914C02B09902C02FBF08952FBF26
:104A50007F3FE1F30196089578940E94FE3C2FEF8A
:104A6000260F6623C1F0FC018FEF9FEF3191832762
:104A7000082E8295807F8025092E982F82958F7031
:104A80000826869598278927880F880F880F802504
:104A9000215060F708958FEF9FEF08956F927F92F6
:104AA0008F929F92AF92BF92CF92DF92EF92FF923E
:104AB0000F931F93FC0183818F9382818F93848155
:104AC00035014601680E711C811C911CD401C30183
:104AD000BF93AF939F936F9281818F9380818F93C8
:104AE0001F930F93FF92EF925F934F933F932F93F8
:104AF0001F926F938AED96E09F938F930E94FF36EB
:104B00008DB79EB744960FB6F8949EBF0FBE8DBF6B
:104B10001F910F91FF90EF90DF90CF90BF90AF90DB
:104B20009F908F907F906F900895CF93DF93EC01CB
:104B30006A8D662309F453C0FC0150E031E020E0A7
:104B4000A38DB48D4C91958D942309F0532B2F5F39
:104B5000330F33962613F4CF2C85922F952729F007
:104B60008D85852780959823D9F4888D5D8787FD6D
:104B700003C0815070F1888F4C815D816E817F818F
:104B800088859985AA85BB85840F951FA61FB71FA9
:104B90008C839D83AE83BF8381E0DF91CF910895A5
:104BA000982F909529238523822B8C879E8598307A
:104BB000E0F621E0290F2E87FE01E90FF11D87871E
:104BC0001092260281E080934D028FEF888F5D87DF
:104BD000D3CF1092260291E090934D02CCCF50E0BB
:104BE000BBCF0F931F93CF93DF938C016EE276E2DE
:104BF000FC0180810E94712DEC010E942E3CF80185
:104C000084819581A681B7818C839D83AE83BF8388
:104C10004085518562857385488759876A877B8778
:104C200080898D878C871E861F8A8EEF888F84856A
:104C3000898F87FD10C0452B462B472B29F4DF9128
:104C4000CF911F910F910895CE01DF91CF911F91C8
:104C50000F910C94803C8FE10E94E53ECF93FC01C4
:104C6000C481C930B8F44C2F50E09A01220F331F91
:104C7000420F531F455E5F4F6EE276E2FC0180817A
:104C80000E94422DFC01C28F25E935E23383228345
:104C9000CF91089581E20E94E53E0F931F93CF9339
:104CA000DF938C016EE276E2DC018C910E94712D23
:104CB000FC01D80114969C91828D9817B8F4292F85
:104CC00030E0E901CC0FDD1F2C0F3D1FEF01C20FBB
:104CD000D31FF801648580850E94D5196B8F7C8F66
:104CE0008D8FDF91CF911F910F91089580E20E94E7
:104CF000E53EFC0144815581668177812085808174
:104D00000C94012EFC011092260281E080934E0249
:104D1000818D8160818F4481558166817781808515
:104D20009185A285B385840F951FA61FB71F848325
:104D30009583A683B78381E008950F931F93CF9344
:104D4000DF938C016FED76E2FC0180810E94712D72
:104D5000EC010E942E3CF80184819581A681B781E7
:104D60008C839D83AE83BF8380859185A285B38527
:104D700088879987AA87BB87892B8A2B8B2B29F455
:104D8000DF91CF911F910F91089584859585A68518
:104D9000B7858C879D87AE87BF8780899189A289D7
:104DA000B389888B998BAA8BBB8B84898E8B1F8A46
:104DB000CE01DF91CF911F910F910C94803CFF9217
:104DC0000F931F93CF93DF93EC01F88483E08F154B
:104DD000E0F04AE150E06FED76E288810E94422DDA
:104DE0008C0182E896E2F801938382836DE07EE194
:104DF0008C810E94712DF801958B848BF08EDF9150
:104E0000CF911F910F91FF90089587E20E94E53E98
:104E1000CF93DF93EC016B817C818D8140E00E9418
:104E20001D1A8D859E850E94B2176E817F818885AF
:104E300041E00E94BF198D859E850E94B217698549
:104E40007A858B8541E0DF91CF910C94BF191F9338
:104E5000CF93DF93EC01162F8D859E850E94B217AC
:104E600069857A858B8541E00E94BF196E817F81BB
:104E7000888541E00E94BF198D859E850E94B217EA
:104E80006B817C818D8140E00E941D1A8D859E85FD
:104E90000E94B217688179818A8140E00E941D1AC0
:104EA000612FCE01DF91CF911F910C94DA178F9271
:104EB0009F92AF92BF92CF92EF920F931F93CF9397
:104EC000DF93EC01480159011F92EF92BF92AF921C
:104ED0009F920F937F936F935F934F931F92CF9205
:104EE0008CEE96E09F938F930E94FF368DB79EB70E
:104EF0000E960FB6F8949EBF0FBE8DBFE11009C08D
:104F00008C859D85AE85BF8588169906AA06BB0649
:104F100088F48F898F5F8F8B9E898917B0F4DF911A
:104F2000CF911F910F91EF90CF90BF90AF909F9036
:104F30008F90089588899989AA89BB8988159905D0
:104F4000AA05BB0530F31F8AEACF809127028111A1
:104F5000FACF86E20E94E53E9F92AF92BF92CF9237
:104F6000DF92EF92FF920F931F93CF93DF93EC01A9
:104F7000C62E942ED52EB22E78016C85862F816098
:104F8000A82EC11085C06A2DCE010E9427278FEF61
:104F90008B0DBB2009F46EC06701C80ED11C69855A
:104FA0007A858B8541E00E94BF1908E010E08D856D
:104FB0009E850E94B2176E817F81888541E00E94A4
:104FC000BF198D859E850E94B217110FE985FA855C
:104FD00090818B85892391E009F490E0192B6881F9
:104FE00079818A8140E00E941D1A015001F769858C
:104FF0007A858B8541E00E94BF19CE14DF04F1F061
:105000006B817C818D8140E00E941D1A8D859E857B
:105010000E94B2176E817F81888541E00E94BF198E
:105020008D859E850E94B217688179818A8140E0D2
:105030000E941D1AF70111937F01B1CF69857A850E
:105040008B8541E00E94BF198D859E850E94B21715
:105050006E817F81888541E00E94BF198D859E8584
:105060000E94B217688179818A8140E00E941D1AEE
:10507000F6011083CE01DF91CF911F910F91FF9028
:10508000EF90DF90CF90BF90AF909F900C94082747
:10509000CE010E942727092D1D2DCA94D12CEFEF98
:1050A000CE1ADE0AC00ED11EF80161918F01CE0129
:1050B0000E94DA17C016D106B9F765CFDF92EF92DA
:1050C000FF920F931F93CF93DF937C01C62FD42EB3
:1050D000152FFC0164850E9427270FEF0C0FCC23AE
:1050E00071F0CD2DD12F10E00F5F1F4F0C0F1D1F42
:1050F0006991C7010E94DA17C017D107C9F7C70124
:10510000DF91CF911F910F91FF90EF90DF900C9462
:105110000827CF92DF92EF92FF92CF93DF93FC01AB
:10512000A085B18582858C93968581E089278687C5
:10513000C82FC170C688D788E08CF18C97859F5F97
:10514000D1899D1708F05FC0892F86958695869531
:10515000DF01A80FB11D5A962C9130E0892F87707E
:1051600002C0359527958A95E2F72170B701A6010F
:10517000C217A9F033C0892F869586958695DF01E1
:10518000A80FB11D5A962C9130E0892F877002C06C
:10519000359527958A95E2F72170C2131FC04C0DF3
:1051A0005D1D6E1D7F1D9F5F9D1728F38EE79BE29F
:1051B0009383828384819581A681B781480F591F8B
:1051C0006A1F7B1F448355836683778381E0DF9169
:1051D000CF91FF90EF90DF90CF90089597878481D3
:1051E0009581A681B781480F591F6A1F7B1F448391
:1051F00055836683778381E0DF91CF91FF90EF90B5
:10520000DF90CF900895B701A601D0CF6F927F9223
:105210008F92CF92DF92EF92FF92CF93DF93EC01C8
:1052200060E08C810E94C7233B01882EC884D9840A
:10523000EA84FB84D7FC24C0A601415F5F4F66E08F
:1052400079E288810E94422DFC0160827182828213
:10525000D686C5868C859D85948383838889998924
:10526000AA89BB8981879287A387B487DF91CF9171
:10527000FF90EF90DF90CF908F907F906F90089588
:1052800084E20E94E53ECF92DF92EF92FF920F936D
:105290001F93CF93DF93EC01E885F9858A8580839E
:1052A0000E9419253E8521E023272E872F852F5F19
:1052B0002F87213009F45CC02530E0F40C811D817A
:1052C0002E813F814A895B896C897D89DB01CA0116
:1052D000800F911FA21FB31F8C839D83AE83BF835A
:1052E00081E0DF91CF911F910F91FF90EF90DF90C0
:1052F000CF900895CC80DD80EE80FF80AB01BC01B3
:105300004C195D096E097F098E899F89A88DB98D19
:10531000481B590B6A0B7B0BDB01CA010296A11DCE
:10532000B11DB7FD34C0B595A79597958795B595EF
:10533000A795979587950A891B892C893D89800FA8
:10534000911FA21FB31F8E8B9F8BA88FB98F29E847
:1053500038E23B832A834C0D5D1D6E1D7F1D840F3B
:10536000951FA61FB71F8C839D83AE83BF83B8CFC5
:105370000C811D812E813F81AB01BC01401B510B73
:10538000620B730B4E8B5F8B688F798F9BCFDB012A
:10539000CA010596A11DB11DC6CFEF92FF920F93D2
:1053A0001F93CF93DF937C016EE67AE2FC0180814C
:1053B0000E94712DEC011E8511FF07C0DF91CF9176
:1053C0001F910F91FF90EF900895F7010481608580
:1053D0007185F4840B3008F045C0FAE0FF1508F43D
:1053E00041C0402F50E04A960E9448431F861173E7
:1053F00012601E87802F880F880F880F898BFF0C03
:10540000FF0CFF0CF88A002349F08A8D8F738A32D3
:1054100029F483E499E29B838A830CC08A899B895F
:10542000AC89BD898E8B9F8BA88FB98F89E898E254
:105430009B838A83F8940E941925DC01CB01805854
:10544000934FAF4FBF4F8C839D83AE83BF83CE01FD
:105450000E94803C7894DF91CF911F910F91FF9033
:10546000EF90089582E20E94E53E0F931F93CF9341
:10547000DF938C016EE276E2DC018C910E94712D4B
:10548000EC01D8011496EC918F898E0F8F8BF894D4
:105490008E85E817D0F48E1BF0E03F96EC0FFD1FD1
:1054A000DE011F962FEF280F30E0205F3F4F2C0FBB
:1054B0003D1F91919D93A217B307D9F78E877894DA
:1054C000DF91CF911F910F9108951E868EEF888FE7
:1054D0007894DF91CF911F910F9108957F928F92D1
:1054E0009F92AF92BF92CF92DF92EF92FF920F9373
:1054F0001F93CF93DF93EC0144E250E06EE67AE233
:1055000088810E94422D8C0178848C809D80AE80A1
:10551000BF80CC84DD84EE84FF8461E0711001C023
:1055200060E0882D0E94D519F8016387748785870C
:1055300061E08C2D0E94C723F80160877187828704
:1055400088899989AA89BB89828B938BA48BB58B17
:10555000711018C091E08C149D04AE04BF04C1F01A
:1055600080E0892BF8018687DF91CF911F910F9101
:10557000FF90EF90DF90CF90BF90AF909F908F9073
:105580007F90089591E18C149D04AE04BF0441F70F
:1055900080E2E7CFCF93DF93EC018E8585FD0DC0D0
:1055A000688579858A8541E00E940E1A8E85807310
:1055B00081608E87DF91CF910895688579858A858E
:1055C00041E00E941D1A8E85807381608E87DF9175
:1055D000CF910895CF93DF93FC01A385B4855C91AF
:1055E0008785982F977021E030E001C0220F9A95AF
:1055F000EAF7982F969596959695DF01A90FB11D1C
:105600005A969C915A9745854523E1F0292B5A9645
:105610002C938F5F90898917E8F48787448155819F
:105620006681778186899789A08DB18D840F951FBA
:10563000A61FB71F84839583A683B78381E0DF917C
:10564000CF910895209529235A962C938F5F9089A6
:10565000891718F3EF01CF010E94CA2A8E8588604E
:105660008E871092260281E080934F0280E0DF91C6
:10567000CF910895CF93DF93FC01A385B4859C91CE
:1056800085858923E9F0868584608687878591E012
:10569000980F9787803408F544815581668177811A
:1056A00086899789A08DB18D840F951FA61FB71F7E
:1056B00084839583A683B78381E0DF91CF9108959A
:1056C000868582FFE3CF17868AEE9AE293838283F0
:1056D000CF01DF91CF910C94EA2AEF01108ACF011C
:1056E0000E94CA2A8E8588608E871092260281E0E9
:1056F00080934F0280E0DF91CF9108951F93CF9365
:10570000DF93EC011889112369F14E8545FD23C013
:105710001F868AE39BE29B838A838E899F89A88D5B
:10572000B98D880F991FAA1FBB1F880F991FAA1F29
:10573000BB1F4C815D816E817F81840F951FA61FE9
:10574000B71F8C839D83AE83BF8311E0812FDF91D0
:10575000CF911F91089540716B857C858D850E9446
:10576000BF19D6CF0E94CA2A8E8588608E87109274
:10577000260281E080934F02812FDF91CF911F910C
:1057800008950F931F93FC01A489B58986898C9392
:1057900093A181E0892783A3448155816681778124
:1057A00080FF12C00085118522853385400F511F6F
:1057B000621F731F82FD12C0448355836683778303
:1057C00081E01F910F910895048515852685378501
:1057D000400F511F621F731F82FFEECF0089118996
:1057E00022893389872F401751076207830B87FD72
:1057F000E3CF85E29CE293838283B901A8014483CD
:1058000055836683778381E01F910F9108950895F2
:10581000FC018081A481B5814085518562857385B5
:105820009FB7F894813061F0823019F04C939FBF9C
:1058300008954D935D936D937C9313979FBF089547
:1058400011965C934E939FBF08958F929F92AF9253
:10585000BF92CF92DF92EF92FF921F93CF93DF938D
:10586000EC01EF8CF8A0E114F10409F4F0C0F701A9
:105870008081918198A38F8F86809780A084B18446
:1058800011E081149104A104B10409F4A1C06C8950
:105890007D898E89412F0E940E1A80914902909134
:1058A0004A02F70191838083F0924A02E092490212
:1058B00081149104A104B104E9F08B8D9C8DAD8D10
:1058C000BE8D88169906AA06BB06A0F44F89588D8E
:1058D000698D7A8D411551056105710509F45BC02B
:1058E0008C819D81AE81BF81480F591F6A1F7B1F2C
:1058F000166022C08BA131E081149104A104B1048F
:1059000009F068C084FB992790F921E092273917A4
:1059100009F443C04F89588D698D7A8D4115510521
:1059200061057105D1F18C819D81AE81BF81480FE8
:10593000591F6A1F7B1F1460EF8DF8A1309709F083
:1059400077C02BA1488B598B6A8B7B8B2071212BC5
:105950002BA311FF5FC0880D991DAA1DBB1D12FD51
:1059600052C021EC3BE23B832A838C839D83AE8330
:10597000BF8388869986AA86BB868B8D9C8DAD8DCC
:10598000BE8D88199909AA09BB098C879D87AE87A6
:10599000BF8781E011C012608BA1EF8DF8A1309715
:1059A000D9F4188A198A1A8A1B8A8071812B8BA3D1
:1059B000812F827011FD34C0DF91CF911F91FF9034
:1059C000EF90DF90CF90BF90AF909F908F90089511
:1059D00010E05DCF30E096CF4281538164817581C4
:1059E000488B598B6A8B7B8B8071912F9460892BAC
:1059F0008BA311FF0FC08C819D81AE81BF81880D6B
:105A0000991DAA1DBB1D2B2F84179507A607270BD1
:105A100027FDA7CF4C835D836E837F8381E0CCCF4E
:105A200040E050E0BA018C819D81AE81BF8193CF6F
:105A3000C280D380E480F580872F4C155D056E050C
:105A40008F0987FD07C08BA1B701A601C9CF85E1EA
:105A50000E94E53E83E10E94E53EFC0185818F9333
:105A600084818F9380811F928F9384E397E09F932B
:105A70008F930E94FF360F900F900F900F900F9012
:105A80000F900895CF93DF9390913702891730F5E7
:105A9000C82FD0E0CC0FDD1FCC0FDD1FE091380206
:105AA000F0913902EC0FFD1F80819181892BB1F4B7
:105AB00080913F0290914002892B81F47183608331
:105AC000CA010E94DC362091380230913902C20F9F
:105AD000D31F9B838A83DF91CF9108958BE00E942F
