:100000000C94130B0C94400B0C94400B0C94400B71
:100010000C94400B0C94400B0C94400B0C94400B34
:100020000C94400B0C94400B0C94400B0C94400B24
:100030000C9492430C94400B0C94400B0C94400B8A
:100040000C94400B0C9491450C94400B0C94400B79
:100050000C94400B0C94400B0C94400B0C94400BF4
:100060000C94400B0C9469430C943F430C94400B4C
:100070000C94400B0C94400B0C94400B0C94400BD4
:100080000C94400B0C94400B0C94400B0C94400BC4
:100090000C94400B0C94400B0C94400B0C94400BB4
:1000A0000C94400B0C94400B0C94400B0C94400BA4
:1000B0000C94400B0C94400B0C94400B0C94400B94
:1000C0000C94400B0C94400B0C94400B0C94400B84
:1000D0000C94400B0C94400B0C94400B0C94400B74
:1000E0000C94400B0C942F420C948F370C940040CE
:1000F0000C9460420C942C2E0C940C350C94DC3A2D
:100100000C94270D0C9466100C94A1150C94483196
:100110000C94EA180C94952E0C948D3F0C945F452A
:100120000C94E4470C94B8440C944C3C0C9444114B
:100130000C94DE290C942C3F0C94AA2D0C940D2EBB
:100140000C948D330C940D120C94E6160C942B41E8
:100150000C94E62F0C9438330C94BD290C9474192C
:100160000C94C52F0C941A150C94052E0C94C829C8
:100170000C94E7190C94532E0C941A330C945916C2
:100180000C946C160C94C72E0C945A0C0C94354D90
:100190000C943A0C0C9441410C944E150C949C1107
:1001A0000C94E32F0C94BE120C94882F0C94C93B32
:1001B0000C94692B0C945F390C942C380C940447E4
:1001C0000C9412160C94DD440C94E1110C947F3EB7
:1001D0000C9409370C943D100C94714D0C94024210
:1001E0000C94E7410C94CC3F0C949B160C949636DF
:1001F0000C945E370C94EB2C0C94E9290C948A41F6
:100200000C94B4330C94DA300C947F420C94184361
:100210000C94604E0C9449100C949D3F0C94200D4E
:100220000C94D3350C9462180C94BD100C941F4898
:100230000C941C420C9428350C948B2D0C945D0B63
:100240000C9421400C94A10E0C94D83F0C94CE3801
:100250000C94812A0C94CC150C941D390C94D72A3B
:100260000C9495100C94B1410C94250F0C946C30A7
:100270000C94FD350C9463360C94A7470C94E62D32
:100280000C948F400C9462410C940F410C94CC411F
:100290000C94172F0C94F3110C943C0C0C94A30B9E
:1002A0000C94DF370C944F340C9435180C94D040D8
:1002B0000C94F9400C94610D0C944B2E0C94DD427F
:1002C0000C948C150C9453400C94F0340C94F7312E
:1002D0000C94B3300C946C2D0C9440170C9494181F
:1002E0000C945F2F0C949A340C94DA100C94E60C56
:1002F0000C94BA310C94A40B0C948D360C94D32925
:100300000C94420B040101040401040404040000E1
:1003100000040401010101010404010104010104BC
:1003200004040400000404040404000000000404A5
:1003300000000000040000000000000004000000B5
:10034000000004000200000400040000040704048C
:100350000000040404000002020000000204070080
:100360000400040400000400020204040404040065
:100370000004000404040404040400040002030450
:100380000004040004000400000400040000000055
:10039000000000000001000201028A03CC150200E7
:1003A00000010000003D10030000010000004910A2
:1003B000040000010000001216050000010000000A
:1003C00059160600010001DD144411070000010068
:1003D00000006C16080001000189039C110900004F
:1003E00001000000A30B0A00020101D8148C150BB8
:1003F000000301038603A40B0C000201028403A185
:10040000150D000200028A03E60C0E00020002C471
:100410001474190F000300038603E719100002008B
:10042000028403DA1011000500057F03BE121200DA
:10043000020002C4146610130001000189034E1566
:100440001400020002840395101500020002C41477
:10045000BD1016000400047B03EA18170005000510
:1004600076030D12180001000189031A15190008FE
:1004700000086E0394181A000300036B03F3111BAA
:1004800000020002C414E6161C00020002840335B8
:10049000181D00040004BC1462181E00010001892C
:1004A00003E1111F000800086303C72E20000200AB
:1004B0000284036C302100040003C614633622005A
:1004C000030002C9148D3F2300030002C9149D3F9D
:1004D0002400040004C014B4332500010001890382
:1004E0004B2E26000300036003B3302700040003F3
:1004F0005D03DC3A2800040004C014F73129000130
:1005000000018903052E2A000300035A038D362BB0
:1005100000030003CB1496362C0006000654030992
:10052000372D00020002C414AA2D2E000500054F2D
:1005300003882F2F00040004D2148D3330000200F2
:1005400002C414C52F31000400034C03FD353200F2
:1005500005000547033833330001000189032835BE
:100560003400040003B014D3353500050005420300
:10057000BA313600040004C014952E37000300037E
:1005800060031A333800030002C9146C2D390003CC
:100590000002C9148B2D3A000600063C0348313B8B
:1005A00000030002C914F0343C00030002C9140C1B
:1005B000353D000800083403DA303E000600063CF2
:1005C000039A343F000500052F034F344000060016
:1005D000062903532E41000300036B035F2F4200E3
:1005E00001000189032C3F430002000284032C38E0
:1005F0004400020002C4142C2E45000100018903AE
:100600007F3E46000200028403DF374700040004F7
:100610002503172F480001000189034C3C490002C3
:10062000000284038F374A00020002C4140D2E4BCF
:10063000000100018903C93B4C0002000284035EF3
:10064000374D00020002C414E62D4E00010001895E
:1006500003714D4F0002000284031F485000020046
:1006600002C414E741510004000421035F45520015
:100670000100018903354D53000200028403E44761
:100680005400020002C414CC415500030003AD1411
:10069000DD4456000100018903604E57000200024C
:1006A0008403A7475800020002C414B14159000353
:1006B00000036B03B8445A00020002C41460425B9A
:1006C00000030002C91404475C00040004BC14DDEC
:1006D000425D000300036B032F425E000300036BC7
:1006E000032B415F000500051C034141600004002D
:1006F0000418036241610007000711038A41620088
:10070000020002C4141C4263000100018903D040AE
:1007100064000700070A037F426500030003070324
:10072000F940660003000304030F41670002000262
:10073000C414024268000001000000CC3F690000C0
:10074000000500000078DA9D5A7B6FDB3812FF2A23
:100750003A03C5DD1E929E25BF73D83F52C76D7305
:10076000CD6BE364BBB8C3815024DA16A2875794DB
:100770009AF416FDEE370FBE24BBBBC016282C9290
:10078000334372388F1F87F96D10EFF783B3C1A71A
:100790003CDBEF653D38193CB5599E8A2FB256595E
:1007A000552A18DA26C959F0B70FCBE50FC1ECED81
:1007B000E8ED3078CACAB6C97285BD378FC13BDD56
:1007C000FC2188DE46D3B7D1309C0EC36802A292CA
:1007D000AA28E2320521BF0DE2548551341471D3A9
:1007E000C4C94E3475B6DDCA5AC4659C57DBA0CA6D
:1007F000D21FDF2441B75770EFE06C3E3E19C47939
:100800005E257123B1530549D5960D8FE18A9B066C
:10081000962AE2E4D90872E3E3894790A686605FEE
:1008200029FAC9CA1FDFB4C1BECD73D1EE9961E602
:10083000187E6D65FDD5CA84053C23752D55239A18
:100840002C7956DC6AEAB85445D608336B9095A0EB
:100850003F3DFF14F490CBB8166AD73669F5520EB7
:10086000CE22544DB9C9B6426BC54CA1F699DE747F
:1008700090C64D2C6A19A75F052F12B63AF1F85EA3
:10088000F3D17872C837389BCE1D15AB312BEDAE46
:10089000B5A4915B81DEAAA1E0A6F0F4E7C451A75C
:1008A000ACBBC23ABA9BB815A6D9366BE25C546DA4
:1008B000D363F812E7ADA42DCA4DDCE68DB01D451B
:1008C000FC2AD2B68E1BB03C5A6738B3F224D851FA
:1008D00053ED3BB292CEE4D1D412EFD2F17836B7D9
:1008E0006AAD95D66120CD473AB65F13FB35B55F4B
:1008F00033FB25F3F8AB3D6CD06EE826799D85AFD0
:10090000668A6D9C81D6767159CA9CF606FB363292
:1009100054923FBB437402B22809CCA98DBDEEA40A
:1009200088868BF1DC8806327BB833A7903C4DC2B9
:1009300069181DA35A0CFB54E2256B766008CDD3D1
:10094000217D80DDBC3EF4A785E3CD5494BE38CB39
:1009500050A2FB299AAF7B3A372084BD677BD30135
:10096000EB74DB29F6ED229A0C8FEE666CA94A59DE
:10097000EDB35799F76C85BC4065FF03A9BB160220
:100980004F23D0463CDF5312BA40F5EE8426232B8A
:1009900074FF521CB1BFE42BF8A393A1AD6FD7F63F
:1009A000ED117A0E0C72EC56AC2A253659EE39044C
:1009B000522B9920B1A2FD9D8EDC41808BF6D78110
:1009C00011ABC9BE48B1CBB63B6218CD7D7AF0DF22
:1009D0006D2E8FC4063BE614BE1875384DAC39C673
:1009E000AC8744A1B63FBEF93B04E75197174D05CC
:1009F000AD3751D63A47CEEC54335BB88095A82337
:100A0000461E28B00DF3F9B54C44D78982A4484559
:100A1000DFAF26DECE1B89A9C82E1D9ADA3A8334B1
:100A2000ABCD2787582276546DAEA42734721B6B4A
:100A300076B22E2A8860FBA31AF5879D52A72E9CBA
:100A40003545D2C6B535A5FA551C84BFA0B19D6801
:100A5000A84D5648DE9A3382E359CF5992F58CD38C
:100A6000C89BBA4625BAB30071A97C6AC1672AC877
:100A7000DC0BD382A9B7E42F7CA8A125C324125490
:100A8000752A6B9C0C7260CDB13532042F75D6C8B7
:100A9000030A740C26045F9685ACB7B24CBE0A0CF0
:100AA000C2B008E8E2802C7655210F52A48A8BBD93
:100AB000EF64BA6D13643785C2D25D12E0ED8A1E11
:100AC00022804DA88A2314AAC64C4E091AD6143780
:100AD000D22A28021FDD64A061081B8275182475C4
:100AE000C2E1FB64B0858841EB8493D12DA2817073
:100AF000C4CD768F4707BE7E32D07904BCBA4C0590
:100B000098AD4D93F8CD7A9E0E7B6478048197C49E
:100B1000996C02E74409E3CF012098040327463B80
:100B200008BE7E2C85264542D000FEE2E149C5E69E
:100B30003FF6B8D48BCF08CE6A1D348D3D53F6DC1A
:100B4000A7236A3A6251047536CE39C97470870199
:100B50005A99C8A5C617B0DB2C9565936D003E6DFC
:100B600036B002727C8B2AC0A44C66FA53FA8068B5
:100B700061320669DD1EFE24F446DA7DEA0C83212B
:100B8000DFAEF50F055C802DA887C33AE609D38D4B
:100B90007A746471AD8B8F734F500798F5044D676D
:100BA0003DBABEA0E9D412F4B1DB9FF4ADC2F99610
:100BB0004E68AE0587B905C69D4C9E3DC4370ACD2B
:100BC0001A7A80CFAE605F41CCEBCFEFC5F2B111A6
:100BD000D081483D5DCC161DAABE26667333DCC7A6
:100BE000437D39D33EE181A889A1E861A6FE31DBCE
:100BF000D3E9229FFE84C32ED9C119DA8DF5A04F07
:100C00005FCEA84777B06E6B550760E03B77110C5D
:100C10005C90FBB30D9FE4C20920C9BDFDC38EAD3E
:100C2000EE8EE5C7EF4CE25954C7A0B801791922FE
:100C30006FEAD9D394CDA195C7EE04768ECAC7705A
:100C4000E1C4B0F4209C25B7460C616E64881104A1
:100C5000040ED4CA9A5398893B3B8A69F09B41920F
:100C600000D5107AC45C3BD6DF248093437F42E0FA
:100C70008063471A7F13BD1B0D2C7C7440445B209E
:100C8000CC6965760028304D99A994AF7A098073B4
:100C90006C0AC96ACE6A21131985FC019805B5C092
:100CA0000E3D6481BC0C378DE4D207ABA023B9D9CB
:100CB000884D1D434AC91AC6AF8BF181080EE64222
:100CC00025B1DB8F09F05940DDF6A3232D88DBA683
:100CD000128614854F0E84EBF5D82CC54D91A5AF27
:100CE0001A260D4976A542FD1BE9DF91FE1DC32F93
:100CF000C2EEF050B407110E04E3188BC6AF500BD0
:100D000041FD39A0DD4B7C2E892C42A6F3D29037D1
:100D10003A1A9BD14EE6C62E9DB98B2A955E0607E0
:100D200096A963E9A6ED22539549D645A5B263D8A5
:100D3000DB88EB63E1A9DECEF73732C2032174FF13
:100D40007B786732EB527D07EEE01E18C70BC45468
:100D5000907B33EF68C1E6178E80901CFA3F277BAB
:100D600097FB3D20081C9010340AEFE8BA0B41F8BD
:100D7000320DC27BC8C147A97F80300359D795DFA8
:100D8000B641A7A8CAAC8121170A7507043E52F2E2
:100D900069343F98F918443D8D0E5788C75DC72FB9
:100DA0008292B24D19D051E0C166FC89F3A0716204
:100DB000ADE308FF81063B14E6BA6EBA75B0207940
:100DC0003394476A213990478E445D88427347D7F0
:100DD000F8F721B9AF6A8DAB396350DB2A4ABEEE12
:100DE000B35A7650FCC24AEAADDA27826531883BB5
:100DF000963BBCB03BFE66AE4B586B3CBF588AEB93
:100E0000F35FF0128457C0778F6B717779B3C63474
:100E10003A381BDCBD1B9DDCBD8BE07F38F0069BA8
:100E2000171ABC189EDC5DE0C0F2EA76F949BCBF37
:100E30005FFD84117A48FF4E06D7CB47A08A9B42BC
:100E40006EE368321D02E1DDE76B9E2DC2F2D7FD35
:100E50006AB9BAFC79253E5FDE5CDC7E46438FB022
:100E600073BDBA874E5E85ACB338C7B95630D70A62
:100E7000E782D1CBF32BF1EEFCF102C5F054EB8706
:100E8000F387B5583F5EAF7F8291F50A47A6D8BD7C
:100E9000BABB5BDD8BDBBB87CBEBCB7FAF2EC4E379
:100EA0000DF631DE37A3F82BDEDD3E7C14AB8B0F65
:100EB000C01A7EC34B530BD7382A665049D62FE34E
:100EC000601B003E217352D3F01B237E20C231D21F
:100ED0008ED7A711050EA1066129ABDBC7072A6DC6
:100EE000DE9C2F3F911CD8C0FD83E0E6C834EF574D
:100EF000E717BA0F42E3FA71B95CADD72CDADC0818
:100F0000C8FFCE50F465B41417E70FE762757F7F12
:100F10007B4FD2B10B350393EA4E98E9F2E6E7F343
:100F2000ABCB0B168E0C3CE1EA667D7B0F9D77B751
:100F3000F70F969C66F20B5638D1D5E53ABA80D3B6
:100F4000020DC2E7E8E2236B0C622A8EDE9D0F07DA
:100F500067FF199ECCFF0BA7FD0EBFE7FCBDC46F5A
:100F600048DFD4B8C00660096AACB00129841AEF22
:100F7000B131D6FC1FA8A1057CC4C6440BF81736B6
:100F8000669AE7134DA379AEA8813CDF3A4949AF91
:100F90003E0E47A3112D3E5693E1789692528A66F3
:100FA0003A0FA7A409FC8CA68A54DEE472320CA383
:100FB00027D0A616A68FD81E3B1E6D860E5E67250F
:100FC000DC4052ED5201B9DE866F0D5C6E3DCFA95B
:100FD000421D98EB76CA086819974159359067E128
:100FE0007FB501B0F2523052092822042FBB0CBE4B
:100FF000D9B355B087680E3331C432BCAD920467A3
:10100000EB30D85475004EF64FD3CE148EA6D44F85
:101010005DFA7E0DAC7F6D10E2052ADBC28282662E
:101020001737481DEB6532FEE10A822656488A01D1
:1010300085EB1CDC4B609044C34A6519988A94E5A3
:10104000073B5CF2DB46B08F6B7068CE19544230C0
:1010500003B584C8AF1A7AA1781FC37ED3A0A902B2
:10106000CA5C58F8A5F0C915F3F75C4534E8272B9E
:1010700053F91AE4718D3111B650760A8B9CDD3E1E
:10108000FE82172B2C3AFF43179D3BA71384A763BF
:101090007E7A007709B40786DC2237347D43BF0FA0
:1010A000BD470F6074C681074E041CF82F19DA077C
:1010B000E6C9C0BD7C30C266B463A8F4E30F5559DD
:1010C0005C1F90A1CAE242C296B94267068B0AB081
:1010D000A9D65A80355F8CEB6ED856886D4D98EB4B
:1010E0000C07E3FAD66FE71F794B87830ED86BB0F6
:1010F000FC657AB1366BB207A61CAF5F5FBB305898
:1011000068C6F1BC4B00A6D2EEDD9E14DF7F0D4514
:10111000E75EE54B81D3B88E5FF1C4E646A10CFDD6
:10112000AEA552311CA12C138072C6B0702053683A
:10113000F50AEEEB699B63B50F98F1CE10E8DC4839
:101140002620BF483C09BC2E7C9F6117D72939A5B2
:10115000A6C60AF035AA9FEE51017CD59BBC7AE168
:101160008BD80D78631CF076300C5050C42ABB3FEE
:1011700000FEC903580FF307B272CFB715AECDD03A
:1011800050892B75DD11E550EBA5FBBADA82320BE5
:10119000587A8C7BDB005A855582B2250618AC1430
:1011A000DF4BBD29742A8C00300DAA1A8E013D0E2A
:1011B0002BAE6B4B70A09DE025CB73802409C8EB50
:1011C00094F819963A4EABA1DFE1C06BC21AA205A2
:1011D0009F212D0029B2A22D4C9F710ED0E5DAD4AB
:1011E000E5E9491084517CA158E9BF0EAE75C0698C
:1011F000AA2AD8C4B43BDE195E551F7C93429501E0
:10120000213D5C300278207D2027A0312529FE3F3A
:1012100096AADD2322931C7C28E22392FF1C37C967
:101220002EADB6ACC5BFF0FB163DB5427E6CCB67AC
:10123000108C918B5FE2BC7EE506C032D94720B4AA
:101240002988C8E8C180F55490283E5F7E505594A7
:10125000AD68F6D6AD865F54DC287B0DDFE96D2FD7
:10126000BA6797C715C7395457650ED1FD0B2C299E
:101270007ECA4DD0B60A5D106A091A13CB1045E13B
:1012800035290F7A9382E6E975D9E60BFDE69C7263
:10129000395D614113432D9B1C5C714903637B2FB6
:1012A000A1D044AAA7E8CDEF2647F02B9E377B07B5
:1012B000BEB5E8B4C2BE87F71C48C107EF119883DA
:1012C00001648EC2F96442995E37A694EAB9319DF1
:1012D00090F140633A9DC1F7E8DBC125C141ABEB1A
:1012E000DB9BCB078DA96E7F5EDDBFBF22B40ABE3C
:1012F00075FE59DC9FDF20681C5A0CB5BE5B2D2F94
:10130000DF5F2E8F0AB530E44909DC35BE3C80D75B
:101310008ABD8C9FC5B6A129F027FC46D02B013B86
:1013200001AA01FEEDC087BBAB2FA301955FF610AC
:101330000125FFA980297D766FED541E3956003AAC
:10134000C5CC6D9EEC3B2CB157D8E4CB3D5F4F4FE5
:10135000F1B589CA3CEE6A731ADA27A800E1217D4B
:10136000D1ED87DE0EB0CF9814DDC521480A5B5859
:1013700042767A23A382E9EFAD5BB3E80FE1CD3F7C
:10138000710F360ABCD9BEBF9C86DE834747325CEC
:101390006A21AA1FCEE1BFA720BF2EDE1B25F79E24
:1013A0000F3494D7154AA2D05AF2AAF81EB32DE7EB
:1013B000F375FF2D92E24B83D34FD047905A458867
:1013C0009B6C715EEFD21444DA24A1C7065C30F83E
:1013D00027CCE5BF669D728D0C030C2C397FEE94F3
:1013E0001D1462863291BDEAFE69D865E95457DD65
:1013F000A55ED73FCD4D958B70BEC4A7963250CA1F
:10140000956F008C1062844991CA6C0DE672B1DD53
:1014100054EABFA386F05865E9E078FCF2AB7F2A76
:10142000A36E21E780AF474E910BC12641EC534498
:101430005CB82EE52C51B585FE51BFEA32C6D055B9
:10144000677AA51B7E46C19A0182B34E9CEA9EE84C
:1014500051776D3953F131BBC079640F58CAA1F58A
:10146000CF0E2B1DC77D80BF3C8F0ABBD50AC7930B
:10147000C4B6D874BC02E44785084338DD05F89942
:10148000BEED8C2E20A4E9BF95829096C8C52C99FC
:1014900084836FFF0734F97B97540D000028292AB5
:1014A0002B2C2D2E2F5051525354555657040400B7
:1014B0000402070400000200020400070400000404
:1014C00004000000040404040704070400020404E8
:1014D00004000404000404010704000402000000E6
:1014E000000000000600020280001003AD147F001F
:1014F0004003B0147E001D06B3147D004003B914F0
:101500007C001404BC147B001704C0147A000A0287
:10151000C41479004002C91478004003C61477004F
:101520004003C61476004002C91475001003CB14A2
:1015300074001104CE1473001104D21472000D0251
:10154000D61471000B01DD1470004001D8146F0037
:101550001204D9146E000B01DD146D001002DE14AC
:101560006C001503E01400004002E3146B000E024F
:10157000E5146A000901E714690006000000200074
:101580002300260029002C002F003200000100005B
:101590000301060109010F470044004500800135A1
:1015A00048004400450020010D8800800081008033
:1015B000000E8A008000810020000F8C00800081D6
:1015C0000008000CB300B000B10080033EB400B0CE
:1015D00000B1002003239800900091008000249A1D
:1015E00000900091002000259C00900091000800D0
:1015F0003BA800A000A10080003CAA00A000A10020
:1016000020003DAC00A000A10008005B28012001E3
:10161000210180005C2A012001210120005D2C01B4
:1016200020012101080011241FBECFEFD1E2DEBF4F
:10163000CDBF00E00CBF14BE0FB6F894A895809102
:101640006000886180936000109260000FBE12E01D
:10165000A0E0B2E0E8EFFFE900E00BBF02C00790B6
:101660000D92A033B107D9F723E0A0E3B2E001C0A7
:101670001D92A23AB207E1F70E946E480C94FA4F0D
:101680000C940000FC0186898460868B10922602EF
:1016900081E080936C0284819581A681B781408925
:1016A000518962897389840F951FA61FB71F848390
:1016B0009583A683B78381E008950F931F93FC0160
:1016C000A489B58986898C9393A181E0892783A316
:1016D000448155816681778190FD12C00085118516
:1016E00022853385400F511F621F731F82FD12C078
:1016F000448355836683778381E01F910F9108951A
:101700000485158526853785400F511F621F731F7D
:1017100082FFEECF0089118922893389872F4017F4
:1017200051076207830B87FDE3CF85E29FE0938338
:101730008283B901A801448355836683778381E05E
:101740001F910F9108950895FC018081A481B581B6
:1017500040855185628573859FB7F894813061F02B
:10176000823019F04C939FBF08954D935D936D9314
:101770007C9313979FBF089511965C934E939FBFE0
:1017800008950F931F93CF93DF938C01DB01FC012E
:101790009081709156029F5F492F50E0440F551F72
:1017A000440F551F2091570230915802240F351FC6
:1017B0000BC0E9012C5F3F4FF90134974081518103
:1017C0004A175B0751F09F5F971798F390E080E00E
:1017D000DF91CF911F910F910895F80190838A8135
:1017E0009B81DF91CF911F910F910895CF92DF924E
:1017F000EF92FF92CF93DF9360915E0270915F0250
:101800006115710581F1615071096B01F12CE12CB9
:10181000C0915B02D0915C0240915D0250E0611585
:10182000710591F0FE0180E090E0DC010196A11DC0
:10183000B11D9A012E0F3F1F31832083F9018C15B2
:101840009D05AE05BF0590F3469FF001479FF00D43
:10185000569FF00D1124EC0FFD1F11821082D093C2
:101860006F02C0936E02DF91CF91FF90EF90DF90F7
:10187000CF90089580E0089510922602E2E1F2E010
:1018800084819581A681B781AC01BD015659674E0F
:101890007F4F44835583668377839659A74EBF470E
:1018A00080930E0290930F02A0931002B093110246
:1018B00081E00895FC0180917A0086FD08C0828D48
:1018C00090910902981789F09F3F09F463C08481C1
:1018D0009581A681B7818853984FAF4FBF4F8483BE
:1018E0009583A683B78381E008958FEF80930902E3
:1018F0002091780030917900858D968D891790F52B
:1019000044895589240F351F8F5F358B248B858F34
:10191000891770F1868997892817390708F448C014
:10192000808D918D8217930708F442C0138E109218
:10193000260281E080936D0280899189A289B38912
:101940004085518562857385840F951FA61FB71F3B
:10195000808B918BA28BB38B84839583A683B78373
:1019600081E0089581E0358B248B858F891790F66F
:1019700084819581A681B781448555856685778563
:10198000840F951FA61FB71F84839583A683B783F3
:1019900081E0089580930902982F987090937B00BE
:1019A0008770806480937C0087ED80937A008FCF6E
:1019B000838D8F5F838F948D891708F4B8CF8091C2
:1019C00028028111B3CF8AE10E94910DFC0164814C
:1019D00080810C9427450F931F93CF93DF93EC01E5
:1019E0000FB7F8949E8990FF25C0162F6F8B9A7FB2
:1019F00094609E8BAC89BD891097B9F01296ED91D9
:101A0000FC9113978D919C9111979D8B8C8B1196C6
:101A10001C921E9213961C921E921297612FCD015A
:101A20001995AC89BD89109749F71092260281E07B
:101A300080936C020FBFDF91CF911F910F9108959A
:101A40000897FC01608D0E94EB0C80E00895FC017A
:101A5000A085B1859C91818D22859223C9F08095C6
:101A60008170C1F4838D815029F1838F84819581A8
:101A7000A681B7814785508961897289840F951F36
:101A8000A61FB71F84839583A683B78381E008953B
:101A9000817041F381E69DE09383828383899489F9
:101AA000A589B68984839583A683B783828D838F26
:101AB00081E00895648D8789908D0E94EB0C80E011
:101AC00008950F931F93FC01A085B1859C914481DB
:101AD0005581668177810385148525853685400F7C
:101AE000511F621F731F818D2285922359F08095AB
:101AF000817051F0448355836683778381E01F9121
:101B00000F9108958170B1F7438B548B658B768B61
:101B100087E29DE093838283CF011F910F910C9404
:101B2000270DF894682F70E08DE392E00E949D4F9E
:101B30004F925F926F927F928F929F92AF92BF92DD
:101B4000CF92DF92EF92FF920F931F93CF93FC01FE
:101B5000A4A1B5A11097B1F416861786108A118A30
:101B6000C0E08C2FCF911F910F91FF90EF90DF90ED
:101B7000CF90BF90AF909F908F907F906F905F902D
:101B80004F9008958D919C91119795A384A31296DF
:101B90004D915D916D917C91159718960D911C91C9
:101BA000199716968D919C9117971A962C911A97C2
:101BB000E0906E02F0906F021196FC92EE92B0935C
:101BC0006F02A0936E02C0A0D1A0E2A0F3A0C22F2A
:101BD000C17020FF08C0F094E094D094C094C11C60
:101BE000D11CE11CF11C30E020E0C00ED11EE21E31
:101BF000F31EC0A2D1A2E2A2F3A2958784876C0152
:101C0000092E000CEE08FF08C40ED51EE61EF71EB6
:101C1000C086D186E286F386A4A5C480D580E680FE
:101C2000F780A5FD28C086849784A088B188428863
:101C3000538864887588440D551D661D771D428B39
:101C4000538B648B758B44835583668377839A2F7C
:101C50009071A4FD04C0000F111F221F331F0687BF
:101C60001787208B318B89288A288B28F1F4C111A2
:101C700014C0C1E076CF4C0D5D1D6E1D7F1D4483E9
:101C800055836683778306871787208B318B892B53
:101C900049F0A064A4A7CC2361F3A58DB68D878DF0
:101CA0008C935FCFAF7BA4A7F6CF8F01872F4C1506
:101CB0005D056E058F0987FD33C0CC23D1F29111EC
:101CC00025C0D8015D96ED91FC915E975F968C9151
:101CD00080830E94BE46F801C688D788E08CF18CCC
:101CE000DC01CB018C0D9D1DAE1DBF1DC480D580B8
:101CF000E680F7802F2DC816D906EA062B0B27FFA2
:101D0000B8CF84839583A683B7832BCF0E94BE462A
:101D1000292F6C157D058E052F0927FDF7CFD1CF13
:101D20004C195D096E097F094038514C6F4F7F4F48
:101D30002CF0C482D582E682F782BFCF88E10E9470
:101D4000910D8F929F92AF92BF92CF92DF92EF92BE
:101D5000FF920F931F93CF93DF93EC01EA8DFB8DDE
:101D60008C8D80830E94BE460E891F89288D398DF7
:101D7000AB01BC01400F511F621F731F8E859F85F1
:101D8000A889B9890197A109B10980FF19C02CA5BB
:101D900024FD1AC08E879F87A88BB98B4C835D83E7
:101DA0006E837F8381E0DF91CF911F910F91FF9030
:101DB000EF90DF90CF90BF90AF909F908F9008955D
:101DC0000097A105B10571F188849984AA84BB8428
:101DD0000A891B892C893D89080D191D2A1D3B1D67
:101DE0000A8B1B8B2C8B3D8BCC84DD840D2C000C43
:101DF000EE08FF08C80CD91CEA1CFB1CC886D98653
:101E0000EA86FB86E32F041715072607E70BE7FD95
:101E1000C1CF8E879F87A88BB98B0C831D832E83A0
:101E20003F83C0CF4C835D836E837F83CE01DF9180
:101E3000CF911F910F91FF90EF90DF90CF90BF90C7
:101E4000AF909F908F900C94980D8F929F92AF922D
:101E5000BF92CF92DF92EF92FF921F93CF93DF93C7
:101E6000EC01EF8CF8A0E114F10409F400C1F701D2
:101E70008081918198A38F8F86809780A084B18480
:101E800011E081149104A104B10409F4B6C06C8975
:101E90007D898E89412F0E94054580916E02909127
:101EA0006F02F70191838083F0926F02E0926E02DD
:101EB00081149104A104B10489F18B8D9C8DAD8DA9
:101EC000BE8D88169906AA06BB0640F54F89588D27
:101ED000698D7A8D411551056105710509F4BBC005
:101EE0008C819D81AE81BF81480F591F6A1F7B1F66
:101EF0001660EF8DF8A13097B9F1C280D380E480ED
:101F0000F580872F4C155D056E058F0987FDB2C0E2
:101F10008BA1912F9270B701A6017EC08BA121E009
:101F200081149104A104B10409F069C084FB9927CC
:101F300090F931E09327291709F442C04F89588D51
:101F4000698D7A8D4115510561057105C9F18C8145
:101F50009D81AE81BF81480F591F6A1F7B1F14608E
:101F6000EF8DF8A1309749F62BA1488B598B6A8BDE
:101F70007B8B2071212B2BA3212F247011FF65C097
:101F8000880D991DAA1DBB1D211158C02DE53BE0F0
:101F90003B832A838C839D83AE83BF838886998607
:101FA000AA86BB868B8D9C8DAD8DBE8D88199909B7
:101FB000AA09BB098C879D87AE87BF8781E011C0C6
:101FC00090E0EF8DF8A1309719F5188A198A1A8ACE
:101FD0001B8A8071812B8BA3212F247080E09111AB
:101FE0003EC0DF91CF911F91FF90EF90DF90CF9097
:101FF000BF90AF909F908F90089510E048CF20E061
:1020000084FB992790F931E09327291397CFD8CFF4
:102010004281538164817581488B598B6A8B7B8B9C
:1020200080711460182B1BA3992379F08C819D81FA
:10203000AE81BF81880D991DAA1DBB1D2B2F841752
:102040009507A607270B27FDA1CF4C835D836E83E1
:102050007F8381E0C6CF12608BA192E0B2CF40E0D7
:1020600050E0BA018C819D81AE81BF8189CF85E12D
:102070000E94910D83E10E94910D80912802882396
:1020800029F0823011F010922802089582E00E9417
:10209000910D88E00E94910D90915602891798F455
:1020A00090E0880F991F880F991FE0915702F091D7
:1020B0005802E80FF91F808191818617970719F45C
:1020C0008281938108958CE00E94910D0F931F935C
:1020D000CF93DF938C016DE072E1FC0180810E945F
:1020E0004C10EC0161EE71E1F80184810E944C100A
:1020F000BE01685D7F4F4FB7F8942AA53BA5232BFF
:1021000089F420E437E13BA72AA7FC01248935891B
:1021100039A728A7758B648B4FBFDF91CF911F9193
:102120000F91089589E10E94910DCF93DF93EC0107
:102130006DE072E188810E944C10FC018C819D81D0
:10214000AE81BF81F8944685578560897189452B9A
:10215000462B472B79F484839583A683B783828BA0
:10216000938BA48BB58B84A5877F84A77894DF910C
:10217000CF91089586E10E94910DCF93DF93EC01FA
:102180006DE072E188810E944C10FC018C819D8180
:10219000AE81BF81892B8A2B8B2B51F480E0F89480
:1021A00094A59D7F982B94A77894DF91CF91089563
:1021B00082E0F5CFCF93DF93EC016EEB72E1888183
:1021C0000E944C10F894FC01278D30A1232B61F460
:1021D0004C815D816E817F81438F548F658F768FB7
:1021E0007894DF91CF91089584E10E94910DFC01D4
:1021F000138212821182108280915E0290915F029E
:10220000892B41F480915D028617170614F46093C0
:102210005D0208958EE00E94910D2FB7F894809191
:102220006E0290916F02009749F0FC01408151814C
:1022300050936F0240936E022FBF08958FE00E946B
:10224000910DCF93DF93C0915902D0915A02AE0104
:10225000480F591F2DB73EB721503F4F22273A95BF
:102260002417350770F050935A0240935902AC017D
:1022700070E060E0CE010E94F34FCE01DF91CF917C
:10228000089581E10E94910D0F931F93CF93DF93E7
:102290008C0180915E0290915F02892B09F049C008
:1022A00060915D0270E0623028F482E080935D020C
:1022B00062E070E0E0915902F0915A024DB75EB7CA
:1022C00041505F4F44275A959F01D0E0C0E0C901BB
:1022D000860F971F4817590730F121969C01C115A9
:1022E000A4E0DA07A1F78E1B9F0B0E942111D09367
:1022F0005F02C0935E0290935C0280935B020E9437
:10230000F60BF80180819181A281B38180936002F4
:1023100090936102A0936202B0936302DF91CF9128
:102320001F910F910895C9012097E9F680E10E945D
:10233000910D8DE00E94910DCF9320915702309125
:102340005802232B91F4FC01C0818C2F90E0880F60
:10235000991F880F991F0E94211190935802809312
:102360005702C0935602CF9108958AE00E94910DC2
:10237000CF93DF9390915602891700F5282F30E014
:10238000220F331F220F331FC0915702D0915802E2
:10239000C20FD31F88819981892B81F480915E02BD
:1023A00090915F02892B51F479836883CA010E945E
:1023B00021119B838A83DF91CF9108958BE00E9446
:1023C000910D49E150E061EE71E1FC0180810E94D4
:1023D000B81122E43BE0FC013383228320E23DE09C
:1023E0003387228708950F931F93CF93DF93EC01D8
:1023F0004DE150E063EF71E188810E94B8118C01DA
:1024000068858C810E948144F8016087718782878A
:10241000DF91CF911F910F910895EF92FF920F934B
:102420001F93CF93DF938C014DE250E06DE072E19A
:10243000FC0180810E94B811EC01F8018485181616
:102440000CF045C084E08CA764E084810E9427459D
:102450006A8F7B8F8C8F60E0F80180850E94274512
:102460006D8F7E8F8F8F80E090E0A0E0B0EC88A32E
:1024700099A3AAA3BBA3F80180899189A289B389F2
:102480008E8B9F8BA88FB98F6BE070E0CE01849606
:102490000E94F7108E899F89A88DB98D8997A10513
:1024A000B10558F081EA9EE09B838A83DF91CF914A
:1024B0001F910F91FF90EF9008958CA580638CA7DA
:1024C000DF91CF911F910F91FF90EF9008957E01C2
:1024D000F4E2EF0EF11C811128C06CA56470F801C4
:1024E00084810E9427456A8F7B8F8C8F60E0F80182
:1024F00080850E9427456D8F7E8F8F8F80E090E0D2
:10250000A0E0B0EC88A399A3AAA3BBA3F80180899B
:102510009189A289B3898E8B9F8BA88FB98F6BE02D
:1025200070E0C7010E94F710B5CF80E18CA760E092
:10253000F80184810E9427456A8F7B8F8C8F60E031
:10254000F80180850E9427456D8F7E8F8F8F80E0F8
:1025500090E0A0E0B0EC88A399A3AAA3BBA3F801E4
:1025600080899189A289B3898E8B9F8BA88FB98F1F
:102570006BE070E0C7010E94F71094CFCF92DF921A
:10258000EF92CF93DF93EC0161E088859985AA856E
:10259000BB85892B8A2B8B2B09F460E08C810E94F0
:1025A00027456B01E82E44E250E06EEB72E1888132
:1025B0000E94B811FC01C48AD58AE68A21E04885C8
:1025C00059856A857B85452B462B472B09F420E0EE
:1025D0004C855D856E857F85452B462B472B09F005
:1025E0002061FC0123A3488959896A897B89478B2B
:1025F000508F618F728F6AE070E04F96DF91CF91BC
:10260000EF90DF90CF900C94F7102F923F924F9263
:102610005F926F927F928F929F92AF92BF92CF9272
:10262000DF92EF92FF920F931F93CF93DF9300D02F
:102630001F921F92CDB7DEB7809155028823C1F05B
:102640000F900F900F900F900F90DF91CF911F91EF
:102650000F91FF90EF90DF90CF90BF90AF909F9041
:102660008F907F906F905F904F903F902F90089544
:1026700081E0809355023E016DE1660E711C209150
:10268000A1037091A0037983272E312C2717A0F482
:102690000B8D1C8D0E5F1F4FF8018491820D932DC1
:1026A000911D8136910564F1821B91098136910556
:1026B00060F010925502C4CF1092A0031092A103B3
:1026C000312C212C198220E0E3CF1092A0036091DD
:1026D000A103F981F61BF9832F2E312C70E0605C89
:1026E0007C4FA10180E493E00E94E14F1092A1038E
:1026F00069816093A0038091C10080628093C100D2
:10270000C101805C9C4F1C01F8018491082F863028
:1027100008F478C091012E5F3F4F8550990B7901E5
:10272000E80EF91EEB8DFC8D3396A490EB8DFC8D9D
:102730003496459154916A01EB8DFC8D859194916D
:102740008038910508F04DC1B9016F5F7F4F7B83E1
:102750006A838F77D9018C93A40EB52EB11CCA144D
:10276000DB0409F44AC06A817B81E616F70608F4A7
:102770005EC1F6018491FFEFCF1ADF0A853009F4BC
:10278000DBC008F461C0883008F051C1F30100815A
:102790001181012E000C220B330BA7016A817B8172
:1027A000461B570B052E000C660B770B04171507FD
:1027B0002607370708F4A8018A809B809FEF891AB3
:1027C000990AAA81BB814C932301B4E04B0E511CA2
:1027D000F301228133818A01B901863009F4E7C00F
:1027E000C4010E94D84FB401600F711F7B836A83BC
:1027F0003201CA14DB0409F0B6CF0A811B81021929
:1028000013090D5FD1010C938091080211968C93EE
:102810006DEF600FC1010E947148200E311CF10163
:102820003397908331968083B1E02B1A31088EE77D
:10283000F1018083F9810F0F0093A0038091C10003
:1028400080628093C10035CF823008F4A7C0D301E5
:102850004D915D913D0170E060E0833021F4052EE3
:10286000000C660B770BAA81BB8111968A019B0134
:10287000005E1F4F2F4F3F4F0038110521053105D6
:1028800008F485C08A819B8102969D838C838A018E
:102890009B01105F2F4F3F4F01151044210531055B
:1028A00008F489C08A809B80E3E08E0E911C8A0127
:1028B0009B01285F3F4F011511052042310508F4A7
:1028C00085C04A805B8084E0480E511C8A019B01D0
:1028D0003C5F011511052105304108F08FC08A01C8
:1028E0009B01E5E13695279517950795EA95D1F770
:1028F0000068EA81FB8100835B824A822D01D4015A
:102900008A019B019EE036952795179507959A9524
:10291000D1F70068F20100838A019B0187E03695B8
:102920002795179507958A95D1F70068EC81FD8169
:1029300000834F774C9313CF93012E5F3F4FD3010A
:102940004D915C91EA81FB813196DA016C916623AD
:10295000D9F1EE15FF05C0F54F5F5F4F04C0FC01D4
:10296000E816F90641F0CF0101966083FA01619102
:10297000AF016111F4CFAC016A817B81461B570B1B
:102980004150DB014C9339019B838A83E8CE9A2F17
:102990008B2FAA81BB819A838B83CBCFF30140819C
:1029A000518162817381C30104963C015CCFC401F3
:1029B0000E94C24F18CF3C812D818A819B819D83CB
:1029C0008C833A832B83A8CFCF01D5CF3C812D8137
:1029D000BD83AC83A32FB22F4A805B809B828A8207
:1029E0008FCF2F5F3F4FBC01660F672F661F770B9E
:1029F00071956068D10112966C93A6CE8A019B01F5
:102A0000FCE13695279517950795FA95D1F700685B
:102A1000EA81FB8100839F012B5F3F4FBB83AA8329
:102A2000AC81BD819D828C824201290158CF86E014
:102A30000E94910DCF93FC01C08163EF71E18C2F57
:102A40000E944C10FC01F894818D3389448955898A
:102A500066897894A085B1859C912285922321E096
:102A600009F420E01F922F936F935F934F933F934E
:102A7000869581701F928F931F92CF9386E395E185
:102A80009F938F930E9405138DB79EB70C960FB638
:102A9000F8949EBF0FBE8DBFCF910895CF93FC01D8
:102AA000C0816DE072E18C2F0E944C10FC01F89403
:102AB00080A191A1A2A1B3A124A5468557856089D3
:102AC000718924FD04C07695679557954795841BB9
:102AD000950BA60BB70BB7FF07C0B095A0959095C7
:102AE00081959F4FAF4FBF4F7894B054BF93AF9332
:102AF0009F938F931F92CF938CE395E19F938F9336
:102B00000E9405138DB79EB708960FB6F8949EBF26
:102B10000FBE8DBFCF910895FC0185818F93848175
:102B20008F9380811F928F9388E495E19F938F9379
:102B30000E9405130F900F900F900F900F900F9021
:102B40000895DC012C911496ED91FC913FB7F89417
:102B50002130E9F02230B1F0808190E0B0E0A0E0D7
:102B60003FBFBF93AF939F938F9382E495E19F9371
:102B70008F930E9405130F900F900F900F900F905E
:102B80000F90089580819181A281B381E9CF8081E6
:102B90009181B0E0A0E0E4CFCF92DF92EF92FF927C
:102BA000FC0140815181628173812481E9E9F4E172
:102BB00085919591A591B491481759076A077B07AC
:102BC00070F56A017B01C20ED11CE11CF11C8C1551
:102BD0009D05AE05BF0500F5841B90E09A012B5BB7
:102BE000384F3F932F939F938F937F936F935F9370
:102BF0004F9386E695E19F938F930E9405138DB7BF
:102C00009EB70A960FB6F8949EBF0FBE8DBFFF9079
:102C1000EF90DF90CF900895822F90E0DFCF90E08B
:102C200080E0DCCFCF92DF92EF92FF920F931F9361
:102C30000E94BE469F938F937F936F93C12CD12C9C
:102C40007601C394009168021091690220916A0292
:102C500030916B02601771078207930718F0C12C3F
:102C6000D12C760140916402509165026091660218
:102C700070916702D701C601840F951FA61FB71F69
:102C8000BF93AF939F938F938AE595E19F938F9323
:102C90000E9405138DB79EB70A960FB6F8949EBF93
:102CA0000FBE8DBF1F910F91FF90EF90DF90CF90DF
:102CB00008950E94BE469F938F937F936F9384E500
:102CC00095E19F938F930E9405130F900F900F90A3
:102CD0000F900F900F90089580915E0290915F0287
:102CE0009F938F9321E030912802311101C020E0A1
:102CF0001F922F93209163022F93209162022F93B2
:102D0000209161022F93209160022F9321E0892B63
:102D100009F420E01F922F938EE495E19F938F9307
:102D20000E9405138DB79EB70C960FB6F8949EBF00
:102D30000FBE8DBF089584E00E94910D0F931F93E5
:102D40004FB7F894E0912202F0912302E817F907B7
:102D500029F420C028173907B9F0F9012081318101
:102D600021153105B9F72091240230912502281749
:102D7000390731F482E192E0909325028093240296
:102D80004FBF1F910F910895DC012D913C9131832C
:102D90002083E9CFDC0114960D911D912D913C917A
:102DA00017970093040210930502209306023093B4
:102DB00007022D913C91309301022093000220E004
:102DC00032E03093230220932202CDCFEF92FF9284
:102DD0001F93CF93DF937C01FC01108161EE71E1C1
:102DE000812F0E944C10EC01F894F70164810E943D
:102DF000EB0CCE010E949E16CE0108960E949E16F4
:102E00001E8A8F8978941F921F921F921F921F9281
:102E10008F931F921F921F921F9380E395E19F93C0
:102E20008F930E9405138DB79EB70C960FB6F8943A
:102E30009EBF0FBE8DBFDF91CF911F91FF90EF908E
:102E40000895CF93DF93EC010E949E16CE01089661
:102E50000E949E16EC89FD89309751F09081818106
:102E60001382128211821082E92FF82F3097B1F766
:102E70001D8A1C8A188E1F8A1E8ADF91CF910895A1
:102E8000CF92DF92EF92FF920F931F93CF93DF9336
:102E90008C01EC01A897CE010E949E161C821D8217
:102EA0001E821F821A8A1B8A1C8A1D8A48A159A168
:102EB0006AA17BA18CA5CE84DF84E888F98884FD93
:102EC00004C0F694E794D794C7944C195D096E0931
:102ED0007F09CC24DD247601C41AD50AE60AF70A54
:102EE00077FD02C0B701A60148A359A36AA37BA33B
:102EF0001E861F86188A198A847388608CA76D8D38
:102F00007E8D8F8D40E00E9405454CA544FF27C073
:102F100045FD25C0D8011497ED91FC91119730978C
:102F2000A9F040916E0290916F0201C0F9012081D9
:102F3000318140839183F0936F02E0936E024E2FB4
:102F40009F2F2115310591F71D921C92DF91CF9192
:102F50001F910F91FF90EF90DF90CF9008954470F4
:102F60006A8D7B8D8C8D0E940545D4CFAF92BF9228
:102F7000CF92DF92EF92FF921F93CF93DF93DC010A
:102F80001496CD90DD90ED90FC9017971FB7F894B4
:102F9000C0912202D09123022F2D4C815D816E8140
:102FA0007F818F2DC416D506E606870B87FD1FC0CF
:102FB000FE010990D881C02D4C815D816E817F8199
:102FC000922FC416D506E606970B97FFF1CF119600
:102FD000DC93CE93B183A0831FBFDF91CF911F916C
:102FE000FF90EF90DF90CF90BF90AF9008955D017C
:102FF0000E94BE462F2DC616D706E806290B27FDD0
:1030000025C082E0C030D80741F1F501D183C083EB
:10301000C0920402D0920502E0920602F0920702EA
:10302000B0920102A092000280E092E0909323020D
:10303000809322028091840090918500C2969093A3
:1030400089008093880082E086BBC6CF80912802E9
:103050008111D7CF83E00E94910D80910002909161
:103060000102F50191838083D3CFEF92FF920F93FA
:103070001F93CF93DF938C0161EE71E1FC0180819E
:103080000E944C10EC01F8948E8980FF13C07E01E1
:10309000F8E0EF0EF11CC7010E949E16F801848132
:1030A0009581A681B7818C879D87AE87BF87C70131
:1030B0000E94B6177894DF91CF911F910F91FF90E6
:1030C000EF9008950F931F93CF93DF938C0161EEE0
:1030D00071E1FC0180810E944C10EC01F8940E9487
:1030E000211781E08E8BF80184819581A681B781BB
:1030F0008C839D83AE83BF8380859185A285B385B4
:10310000888B998BAA8BBB8B892B8A2B8B2B19F0E5
:10311000CE010E94B617F8018485888F7894DF91DC
:10312000CF911F910F9108950F931F93CF93DF932A
:103130008C0163EF71E1FC0180810E944C10EC0175
:103140000E949E16F80184819581A681B7818C83A7
:103150009D83AE83BF8380859185A285B3858F874C
:10316000988BA98BBA8B84858A8F882359F14089E3
:103170005189628973894B875C876D877E8721E6D9
:103180003DE03B832A838B8F84899589A689B78903
:10319000892B8A2B8B2BA1F482E0898F61EE71E160
:1031A000F801808D0E944C10988F8F8BF801848DD0
:1031B0008C8FCE01DF91CF911F910F910C94B61798
:1031C00083E0EBCF188E1F8A198EDF91CF911F916C
:1031D0000F9108950F931F93CF93DF938C016DE0B0
:1031E00072E1DC018C910E944C10EC010E940D11E7
:1031F000FC01D80114964D915D916D917C911797CA
:10320000428353836483758318968D919C9119979B
:1032100091878087892B09F464C01C968D919C91BD
:10322000978386831286F8948CA5282F217081FBC2
:10323000992790F9291729F091E0892792859160C3
:1032400092874E855F8568897989452B462B472B68
:1032500059F583FD19C08CA7118210828CA19DA104
:10326000892BD1F1AEA1BFA1ED93FC93FFA3EEA3F7
:10327000CE010E94980DCE010E94B6177894DF917E
:10328000CF911F910F91089580916E0290916F02DE
:1032900091838083F0936F02E0936E027894DF91C4
:1032A000CF911F910F9108958CA7118210828CA14C
:1032B0009DA1892B61F0AEA1BFA1ED93FC93FFA36B
:1032C000EEA37894DF91CF911F910F910895FFA302
:1032D000EEA3FDA3ECA3D2CFFFA3EEA3FDA3ECA32B
:1032E000C7CF87E10E94910D8F929F92AF92BF92BC
:1032F000EF92FF920F931F93CF93DF938C016EEBAE
:1033000072E1FC0180810E944C10EC010E949E162B
:103310008F8D98A1892B09F057C0F801E4801BA17B
:1033200001E0EE2049F16C897D898E89402F0E9451
:103330000545F12FF071FF2E81E0E1101BC01295C1
:10334000117091E01927811741F08F89988DA98D0F
:10335000BA8D892B8A2B8B2B89F40F290BA3DF9134
:10336000CF911F910F91FF90EF90BF90AF909F90E2
:103370008F90089580E0E3CF00E0D5CF0E94BE4655
:103380008F88988CA98CBA8C860E971EA81EB91EA1
:10339000888A998AAA8ABB8A8C829D82AE82BF82E1
:1033A00085E29FE09B838A830460F02AFBA2CE0122
:1033B000DF91CF911F910F91FF90EF90BF90AF9051
:1033C0009F908F900C94B61782E10E94910DCF923E
:1033D000DF92EF92FF920F931F93CF93DF938C01B5
:1033E0006EEB72E1DC018C910E944C10EC010E94AA
:1033F0000D11FC01D8011496CD90DD90ED90FC905C
:103400001797C282D382E482F58218964D915D911E
:103410006D917C911B974683578360877187F894E1
:10342000118210828F8D98A1892B81F0A9A1BAA158
:10343000ED93FC93FAA3E9A37894DF91CF911F91C8
:103440000F91FF90EF90DF90CF900895FAA3E9A33A
:10345000F8A3EF8F8BA182FD25C0C88AD98AEA8A9A
:10346000FB8A982F94609BA381FD10C0CE010E941F
:103470009E16CC82DD82EE82FF8285E29FE09B83F6
:103480008A83CE010E94B6177894D7CF4C815D8194
:103490006E817F81872F4C155D056E058F0987FD35
:1034A000F3CFE4CF488959896A897B89972F4C15D6
:1034B0005D056E059F0997FFD0CF83E10E94910DB6
:1034C000CF93DF93CDB7DEB7C754D1090FB6F894C9
:1034D000DEBF0FBECDBF0E94BE4624966CAF7DAF4F
:1034E0008EAF9FAF249780912602811189C481E01D
:1034F0008093260280916C02882309F443C01092C5
:103500006C028FEF89838E010F5F1F4FF0E3EF2E68
:10351000F5E1FF2E61EE71E1C8010E94C10B6C0163
:10352000892B81F1D60156968C9182FFF3CF0E94B0
:10353000BE46F894F60137892689422F4B7F468B89
:1035400078949F938F937F936F931F923F932170F3
:103550001F922F9389811F928F93FF92EF920E9467
:1035600005132DB73EB7245F3F4F0FB6F8943EBF0B
:103570000FBE2DBF61EE71E1C8010E94C10B6C014D
:10358000892B81F680916D02882331F110926D02B2
:103590008FEF89838E010F5F1F4FEAE2EE2EE5E188
:1035A000FE2E6CE670E3C8010E94C10BFC01892B62
:1035B00099F0958D868D9813F4CFF894858D968D1E
:1035C000891709F489C478946CE670E3C8010E94F5
:1035D000C10BFC01892B69F780917002882329F1C6
:1035E000109270028FEF89838E010F5F1F4F78E179
:1035F000E72E75E1F72E65EC7FE2C8010E94C10B52
:10360000009799F0DC0158962C9158972F3F99F725
:10361000F894FC012685211114C4789465EC7FE2AE
:10362000C8010E94C10B009769F78091710288233D
:1036300009F440C0109271028FEF89838E010F5FF1
:103640001F4F62E1E62E65E1F62E68E373E3C801E1
:103650000E94C10B009771F1DC011E962C911E9700
:1036600023FFF3CFF894FC012685277F26877894E3
:103670009C01265E3F4F3F932F9350968C918695E9
:10368000869586951F928F9389811F928F93FF92C3
:10369000EF920E940513EDB7FEB738960FB6F89477
:1036A000FEBF0FBEEDBF68E373E3C8010E94C10B0C
:1036B000009791F680917202882309F44BC0109212
:1036C00072028FEF89838E010F5F1F4F56E0E52E48
:1036D00055E1F52E6AE173E3C8010E94C10BFC01BC
:1036E000892BC1F1848D80FFF5CFF89494812581D9
:1036F00036814781548965897689A789B08DD18CB7
:10370000C28CB38C848D8E7F848F7894BF92CF923D
:10371000DF92BF93AF937F936F935F934F933F93EA
:103720002F939F9389811F928F93FF92EF920E9414
:1037300005132DB73EB7205F3F4F0FB6F8943EBF3D
:103740000FBE2DBF6AE173E3C8010E94C10BFC01EB
:10375000892B41F680917302882309F454C010929A
:1037600073028FEF8AABAE014E5C5F4F1A014FE0E0
:10377000842E6FE57FE2C1010E94C10B5C01892BA1
:1037800009F441C0D50159968C91599780FFF1CF2A
:10379000F894F5014480558066807780818D8E7F16
:1037A000818F789458968C915897813009F4E2C5AE
:1037B00008F4C1C5823009F40CC68330D1F6CAA81A
:1037C00019821A829E012F5F3F4F42E061E0848997
:1037D00095890E94CF3C09811A8110270127102763
:1037E000F02FF670EF2E30E020E0B301A201C5010A
:1037F0000E9459386FE57FE2C1010E94C10B5C0154
:10380000892B09F0BFCF809174028823F9F01092C0
:1038100074028FEF8AAB8E010E5C1F4F180199E086
:10382000A92E0153110922EFB22EDD24DA9406C02D
:10383000D7011E968C911E9780FDA2C36CE27EE29A
:10384000C1010E94C10B7C01892B91F78091750207
:10385000882341F1109275028FEF8DABFE01F59632
:103860006F0150E3752E8824839468E2562E8E01F2
:103870000F5F1F4F580178EA972EE1E34E2EF8EEC6
:103880003F2EAFE22A2E06C0D7011F968C911F97BC
:1038900080FDB6C367E17FE2C6010E94C10B7C01D7
:1038A000892B91F7809176028823D1F010927602CD
:1038B0008FEF8DABFE01F5966F0134E7A32E42E743
:1038C000B42E06C0D70152968C91529780FDD5C375
:1038D0006DE07EE2C6010E94C10B7C01892B91F74D
:1038E000809177028823D9F0109277028FEF8DAB09
:1038F0008E010B5C1F4F680112E7A12E00E7B02E6E
:1039000006C0D70152968C91529780FDE9C366EEAE
:103910007DE2C6010E94C10B7C01892B91F7809149
:1039200078028823C9F0109278028FEF89838E0184
:103930000F5F1F4F22242394312C06C0D701199604
:103940008C9119978111FFC36FE575E4C8010E943E
:10395000C10B7C01892B91F7809179028823B9F002
:10396000109279028FEF8AAB8E010E5C1F4F180107
:1039700006C0D80151968C915197811166C46DEDA6
:1039800074E4C1010E94C10B8C01892B91F78091D5
:103990007A02882309F498C010927A028FEF8AABDA
:1039A0008E010E5C1F4F180177247A9460E672E452
:1039B000C1010E94C10B7C01892B09F485C0D7018C
:1039C0001E968C9180FFF2CF6AA8BE016F5F7F4F79
:1039D000C7010E94354E9C01F894F70196859E7FA1
:1039E00096877894232B09F02FC3898183FFDECF3C
:1039F000A388B12C6501F4E1CF0ED11CCE0CDF1CE5
:103A0000D7011C968D919C911BAA860122E0AE01E4
:103A10004D5C5F4F61E00E949F394C01F701848546
:103A2000958521E02CAB0E5F1F4F22E0AE014C5C70
:103A30005F4F61E00E949F3988299929892B11F0F5
:103A40000C94FD24F701EA0DFB1D4489F601118158
:103A5000F701E65BFF4F808191814F3F11F40C9499
:103A6000412550E070E060E0742F66275527442719
:103A7000F6012381422B612B2281522B8A019B016B
:103A8000002711272227307E012B022B032B09F45C
:103A9000CEC760E00E94E04CD70153968C915397BB
:103AA0008C5F53968C93803308F480CF662DC701CA
:103AB0000F960E94AD4D60E672E4C1010E94C10BF9
:103AC0007C01892B09F07BCF80917B02882309F44C
:103AD0007CC010927B028FEF8AABFE01F2961F0131
:103AE0008E010A5F1F4F1FAB0EAB9E012D5F3F4F34
:103AF00039AF28AFAE01475F5F4F5BAF4AAF6FE2B0
:103B000072E4C1010E94C10B2C01892B09F45DC034
:103B1000D2011E968C9182FFF2CFF894F20184803C
:103B20009580A680B780F1881686118A7894808562
:103B30009185A285B385881A990AAA0ABB0A8201CF
:103B40000E5E1F4F68011F2D1150A8F0D20156962E
:103B50008C91F201E80FF11DBFEFB78B108E118E23
:103B60008D5FF201868B813378F36AA9C6010E94CA
:103B7000AD4D115058F7F12ED2011F96DC90DD208B
:103B800009F4CAC1B1E0DB1609F49EC3F2E0DF1606
:103B900009F4E4C5F3E0DF1609F486C6B4E0DB16E9
:103BA00009F4D6C6F2017689713308F4A8CF6AA960
:103BB000C20142960E94AD4D6FE272E4C1010E94C3
:103BC000C10B2C01892B09F0A3CFA89580917E020F
:103BD000882329F080E48093600010927E02F090A8
:103BE0003F03FF2009F477C080913002182F80FD39
:103BF00016C034E03F1508F06EC030907F029BEF96
:103C0000930D9C3308F0A3C5E09080029E2D907F19
:103C1000903109F478C5182F1160109330024F2DA0
:103C200050E06EE770E08FE792E00E94CB4F009784
:103C300041F01E7F109330028F579240FF24F3947F
:103C4000F80E11FD15C61260109330028FE397E055
:103C50009F938F930E9405130F900F903F2CDD24AC
:103C6000DA9480E0E32CF12C00913F03102F13191C
:103C700061F42FB7F89490913F030917E9F02FBF33
:103C800000913F03102F1319A1F390E0412F50E052
:103C9000481B590BB701680F791F61587D4F815838
:103CA0009D4F0E94E14F10922602812F2FB7F8946A
:103CB00090913F030913E3CF10933F032FBF772465
:103CC0007394D71008C08FE397E09F938F930E945F
:103CD00005130F900F900E94BE464B015C01249685
:103CE0000CAD1DAD2EAD3FAD2497601B710B820B4B
:103CF000930BC0903902D0903A02E0903B02F090D2
:103D00003C021FEFC11AD10AE10AF10AC09239023E
:103D1000D0923A02E0923B02F0923C02409035028F
:103D2000509036026090370270903802460E571E4F
:103D3000681E791E40923502509236026092370218
:103D4000709238026115710521E08207910508F033
:103D500099C00091310210913202209133023091CA
:103D600034020CAF1DAF2EAF3FAF9B01AC010E94E0
:103D7000E14EDC01CB0181509F4FAF4FBF4F892FE8
:103D80009A2FAB2FBB270CAD1DAD2EAD3FAD800FD5
:103D9000911FA21FB31F0CAD1DAD2EAD3FAD8017FF
:103DA0009107A207B30718F48FEF9FEFDC01809310
:103DB000310290933202A0933302B09334024091C7
:103DC00068025091690260916A0270916B029501DC
:103DD0008401041B150B260B370BB901A8014115F3
:103DE000544B644C744008F034C324968CAE9DAEA2
:103DF000AEAEBFAE249780912602882309F477CB1C
:103E00000E94BE462496CCACDDACEEACFFAC249751
:103E1000C61AD70AE80AF90AF89480912602811195
:103E20008AC578940E94BE4636014701660E771E09
:103E3000881E991E24966CAE7DAE8EAE9FAE2497E2
:103E400056CB59963C91599758963C937894AC012F
:103E5000415F5F4F5F934F931F922F9387891F920C
:103E60008F9389811F928F93FF92EF920E94051387
:103E70002DB73EB7265F3F4F0FB6F8943EBF0FBE3B
:103E80002DBFB9CB6115710510E18107910508F0CF
:103E90008BCF009131021091320220913302309188
:103EA00034020CAF1DAF2EAF3FAF9B01AC012150D0
:103EB0003F4F4F4F5F4F232F342F452F55270E94E1
:103EC000E14E0CAD1DAD2EAD3FAD060F171F281FE7
:103ED000391FD901C8015FCF54896589908921892B
:103EE000328943898F5F858F78946F935F934F9367
:103EF0003F932F939F9389811F928F93FF92EF920D
:103F00000E9405134DB75EB7465F5F4F0FB6F8943A
:103F10005EBF0FBE4DBF45CB82E389831A820E94EC
:103F2000BE466CAF7DAF8EAF9FAF9E012F5F3F4F00
:103F300042E061E0F201848595850E94CF3C0E94B9
:103F4000BE460CAD1DAD2EAD3FAD601B710B820B9F
:103F5000930B613273408105910508F0E3C129811B
:103F600027FF8AC4D20156967C91F201E70FF11D1A
:103F7000F78A83E0808F118E7D5FF201768B14CEFD
:103F8000CAA8F8016A2C11926A94E9F7B9829801DB
:103F900049E061E01C968D919C910E94CF3CD70135
:103FA00053968C9190E0FC017496EE0DFF1D4B81B1
:103FB000242F207F09F4A9C2203F09F4A6C2D4828D
:103FC000D382D282D1828E0D9F1DFC01D48AD7016B
:103FD00053968C9153978B5F53968C938F3228F026
:103FE0006C2DC7010F960E94AD4DD7011E968C9186
:103FF0001E978E7F1E968C93C7010E940D381ECC93
:104000006DA81E968C911E9751969C915197903356
:1040100008F4D1C2882309F44EC5813009F403C6DF
:10402000D70156967C92662DC70142960E94AD4DEF
:10403000F70181898053818B803308F4D3C21092B9
:1040400026028092750226CC61E0E65BFF4F8081FC
:1040500091810E94E04CD70153968C9190E0FC0135
:104060007496EE0DFF1D8E0D9F1DDC0154967C9203
:104070007182128281E083830FCD9DA81C968D9161
:104080009C911D9750962D913C912033310508F459
:10409000B4C2A9828701085E1F4F20E3AE014F5FC3
:1040A0005F4F61E00E949F390E94B13B80E3F701BE
:1040B000878B80899189C097918B808B692DC701EF
:1040C00043960E94AD4DD70150968D919C91C0971B
:1040D00008F4B8C21092260281E080937602F8CBF1
:1040E0009DA81C968D919C911D9750962D913C9169
:1040F0002033310508F4AEC2A9828701085E1F4F44
:1041000020E3AE014F5F5F4F61E00E949F390E9444
:10411000B13B80E3F701878B80899189C097918BB0
:10412000808B692DC70143960E94AD4DD7015096F3
:104130008D919C91C09708F4B2C21092260281E042
:1041400080937702E4CB79801896CC9018972C2D29
:1041500030E052964D915C9153975496DC90549771
:104160005596ED91FC91569757967C91295E3F4F5D
:1041700080E090E0DC012F01F894F20170830000F0
:1041800000007083FA0160817894880F991FAA1F3C
:10419000BB1F6D21812C912C54018394611103C0AC
:1041A000812C912C540188299929AA29BB292150B5
:1041B000310910F7F894F7012185118678944C01A4
:1041C0005D010C2C04C0B694A794979487940A942C
:1041D000D2F7A7FE02C0BB24BA94A10101C0440FCC
:1041E000CA94EAF7415050E070E060E084239523E0
:1041F000A623B723481759076A077B0709F429C381
:1042000020E030E040E050E8D7011E962D933D932A
:104210004D935C93519790E840E030E020E0D70167
:104220005C968C91F701E80FF11D258F368F478F33
:1042300090A38C5FF701848F803308F485CB672DC2
:10424000C70148960E94AD4D7FCBBAA819821A8249
:104250001B829E012F5F3F4F43E061E01F968D91CF
:104260009C910E94CF3CF801118A8981CA80D12C8F
:10427000F12CE12CFE2CED2CDC2CCC24E82A8B81BB
:10428000C82AE7FE02C0FF24FA94B701A601F8018C
:10429000E55BFF4F808191810E949648D801579637
:1042A0008C91F801E80FF11DC08ED18EE28EF38E55
:1042B0008C5FF801878B803308F461CB6B2DC801CC
:1042C00043960E94AD4D5BCB8FE789838EEF8A8347
:1042D0000E94BE4628966CAF7DAF8EAF9FAF2897E9
:1042E0009E012F5F3F4F42E060E0F201848595859B
:1042F0000E94CF3C0E94BE466CAF7DAF8EAF9FAF99
:10430000DC01CB0128960CAD1DAD2EAD3FAD28973D
:10431000801B910BA20BB30B81329340A105B10519
:1043200008F4C5C1D20156967C91F201E70FF11D48
:10433000F78A82E01FCECAA819821A821B821C82C9
:104340009E012F5F3F4F44E061E0848995890E9480
:10435000CF3C69817A818B819C810E94F14EF62F3E
:10436000F770EF2E8B019C01B301A201C5010E94E1
:104370005938FFC99AA80CE009831A821B821C8253
:104380009E012F5F3F4F44E061E054968D919C91D8
:104390000E94CF3C69817A818B819C810E94F14E81
:1043A0006B017C0189821A829E012F5F3F4F42E0A0
:1043B00061E0F501848995890E94CF3C97018601CF
:1043C0003327C92CEA80B301A201C5010E945938E4
:1043D000D0C9CAA881E089831A821B821C829E01EF
:1043E0002F5F3F4F43E061E054968D919C910E9476
:1043F000CF3C69817A818B819C810E94F14E672F2D
:10440000782F892F99278B019C01222733270CAF06
:104410001DAF2EAF3FAF17E019831A829E012F5FA9
:104420003F4F42E061E0D50154968D919C910E94EE
:10443000CF3C8A818C7F9CAD9170E82EE92A0CAD2F
:104440001DAD2EAD3FADB301A201C5010E9459388B
:1044500090C9BF93AF939F938F937F926F925F9218
:104460004F92FF92EF92DF92CF9280E695E19F9379
:104470008F930E9405132DB73EB7225F3F4F0FB6B3
:10448000F8943EBF0FBE2DBF8091680290916902E3
:10449000A0916A02B0916B0288169906AA06BB0623
:1044A00098F48091640290916502A0916602B091A7
:1044B00067020196A11DB11D80936402909365026D
:1044C000A0936602B093670280926802909269029C
:1044D000A0926A02B0926B021092310210923202E4
:1044E000109233021092340210923502109236026A
:1044F00010923702109238021092390210923A024A
:1045000010923B0210923C0270CC5D81252F207FDF
:1045100019F0203F09F053CD2F81322F307F19F051
:10452000303F09F04CCD3885303909F048CD398518
:10453000932EE89497F8B0E2B91508F440CD30E036
:104540008E0D9F1D6A81DC0154966C938C81818352
:104550008E818283842F8F71B901660F771F6295D8
:104560007295707F7627607F7627862B8383220F54
:10457000331F220F331F2076852F8F71822B848368
:10458000F70183898B5F838B8F3208F066C3FEE16E
:10459000F91508F006C5D70151968D919C91529757
:1045A000019652969C938E9351971092260281E029
:1045B0008093740243C91AAA882309F49AC28130ED
:1045C00009F4DAC2F7018089813009F4FEC280E083
:1045D0008F73982F990F890F880FF701818B803384
:1045E00008F0FEC2D7011F968C911F978E7F1F96F1
:1045F0008C93C7010E94C0374DC9BAAA8E010F5FC4
:104600001F4F22E0AE014E5C5F4F61E00E949F3978
:104610000E94B13B898190E0982F882788279F715D
:104620002A81822BF701268537852817390710F450
:1046300097878687D70151969C938E935097C09702
:104640000CF0A5C4F70182898E7F828BC7010E947E
:104650003F373EC9BAAA8E010F5F1F4F22E0AE015D
:104660004E5C5F4F61E00E949F390E94B13B89819F
:1046700090E0982F882788279F712A81822BF70145
:10468000268537852817390710F497878687D7013D
:1046900051969C938E935097C0970CF074C4F70179
:1046A00082898E7F828BC7010E943F3730C980ECA0
:1046B00089831A829E012F5F3F4F42E061E0D20161
:1046C0001C968D919C910E94CF3C99812A81892FC3
:1046D0008227382F32953F708327382F36953695AD
:1046E0008327382F3695832780FF35C2F2017689DC
:1046F000E70FF11DF78A83E0808F118E7D5FD20175
:1047000056967C9351CAF31408F4E5CA232D30E081
:10471000F901E258FD4F90819E3709F07CCA89016A
:1047200004581D4F580123583D4FD9018C91F80171
:104730000081102F082F6DEF630D8FE792E00E942C
:1047400071480817190709F4CDC230907F024EE76F
:10475000341609F420C4809130025DCAD2011C963F
:10476000ED91FC9104816280738040E0B301802F61
:104770000E9405450E94BE466B017C01B0E1CB0E54
:10478000D11CE11CF11C1F2D0E94BE46212FC61614
:10479000D706E806290B27FFF7CFF89441E0B301CD
:1047A000802F0E9405450E94BE466B017C017894D3
:1047B00088E0E8ADF9AD11928A95E9F784E889833C
:1047C00083E28A839E012F5F3F4F4AE061E0D2017E
:1047D0001C968D919C910E94CF3CFE01339665E022
:1047E0008191682788E090E003C0660F019739F057
:1047F00067FFFBCF660FBDE16B270197C9F76AAC76
:104800007BAC6E167F0661F7D20156967C91872F9E
:1048100090E0AC014F5F5F4F9C012E5F3F4F7D5F8B
:104820006095EA856E1709F41CC1840D951D6624F8
:104830006A94FC01678A440D551D83E0DA0157969E
:104840008C93240D351DF901178AD20156967C935D
:10485000ABC921FFF0C020E030E040E050E4D701D8
:104860001E962D933D934D935C93519790E4D4CC39
:104870003F2CDD24DA94F5C98A8190E0880F991FD6
:1048800030E0322F2227330F7C01E22AF32A0CADCD
:104890001DAD2EAD3FADB501A401C2010E94D34DA7
:1048A000D20156967C9180C983E889831A821B8243
:1048B0000E94BE466CAF7DAF8EAF9FAF9E012F5F53
:1048C0003F4F43E061E0D2011C968D919C910E9484
:1048D000CF3C0E94BE46AB01BC01DC01CA010CAD5D
:1048E0001DAD2EAD3FAD801B910BA20BB30B8132E2
:1048F0009340A105B10508F015CDEA809B818E2D6E
:104900008927282F22952F708227282F26952695D4
:104910008227282F2695822780FF0DC1D201569627
:104920007C91F201E70FF11DF78AD08E118E7D5F29
:10493000F201768B39C98FEF80932702809326028C
:1049400078940000F894809126028111F9CF69CA09
:1049500086E0EAE2F2E0DE01119601900D928A957E
:10496000E1F70E94BE466CAF7DAF8EAF9FAF9E0158
:104970002F5F3F4F46E061E0D2011C968D919C91E4
:104980000E94CF3C0E94BE46AB01BC01DC01CA01C3
:104990000CAD1DAD2EAD3FAD801B910BA20BB30B2B
:1049A00081329340A105B10508F0BCCCFE013396DD
:1049B00080E09191892728E030E004C0880F2150E1
:1049C000310949F087FFFACF880F07E0602E86256E
:1049D00021503109B9F76EA87FA86E167F0649F7F6
:1049E0009E81981709F4FEC0D20156967C91F2017F
:1049F000E70FF11DBFEFB78BBCCA62E0F701E65BC2
:104A0000FF4F808191810E94E04CD70153968C9199
:104A100090E0FC017496EE0DFF1D8E0D9F1DDC01D4
:104A200054967C927182128282E0838335C87F70B3
:104A30000E94964831C8F70186859785A089B1897B
:104A40000097A105B10509F09AC2B501A401E05B88
:104A5000FF4F808191810E94964894014A2D9B2DA1
:104A6000DECB698564FFCAC0EB81E7FD06C1840D1A
:104A7000951DEFEFDC015796EC93440D551D84E036
:104A8000DDCE1F3F11F00C94311D63E00E94E04C1D
:104A9000D70153968C9190E0FC017496EE0DFF1DAA
:104AA0008E0D9F1DDC0154961C931183128283E0AE
:104AB00083830C944C1DD501E42D1D92EA95E9F7F2
:104AC0009982D70150968C91813009F439829501F1
:104AD00041E361E0F701848595850E94CF3C80E346
:104AE000FE013296D701579601900D928A95E1F713
:104AF00097CABFEAB9831A82950142E061E0F701E3
:104B0000848595850E94CF3C8A818AAB86FF07C049
:104B1000F701248935892F5F3F4F358B248BD701CF
:104B200050969C915097913009F052CD85FF4EC020
:104B300051961C9257CD91FF8AC0D20156967C9116
:104B4000F201E70FF11DF78AB5E0B08F118E7D5F9E
:104B5000F201768B29C896FF1FC0F2017689E70F14
:104B6000F11DF78A15E0612E608E118E7D5FD201F6
:104B700056967C930C94D41D29828E010E5C1F4F97
:104B800021E0A50161E01C968D919C910E949F39C6
:104B90000E94B13B8AA9BACF892F90E0982F88272D
:104BA000990F990F30E0220F331F220F331F7C0122
:104BB000E22AF32A0CAD1DAD2EAD3FADB501A40127
:104BC000C2010E94D34D0C94D21D80E08F71982FAA
:104BD000990F890F880FF701818B803308F402CD7C
:104BE000868518CA8D8181FF40C0D20156967C917E
:104BF000F201E70FF11DBFEFB78BB4CF840D951D08
:104C000066246A94FC01678A440D551DE5E0DA01CB
:104C10005796EC93240D351DD90157961C92F2013D
:104C2000768B0C94D41D5982D70150968C9181308B
:104C3000D1F08701095E1F4F20E3A50161E0F70174
:104C4000848595850E949F390E94B13BE9C99C7F6C
:104C5000FE2CE92E8A019B011ECE6C2DC7010F96FA
:104C60000E94AD4D94CC9982E4CFEB80FC80FE2471
:104C7000EF24FE248A019B01A1CFC818D908EA08B5
:104C8000FB08B1E5CB16B5E5DB06E104F10400F560
:104C9000AC81B0E0AA0FBB1FF0E0FE2FEE27FF0FA4
:104CA000EA2BFB2B840D951D6F8166956F73DC01DC
:104CB00057966C93440D551DDA015796EC93240DCD
:104CC000351DD9015796FC93F201768B0C94D41DB7
:104CD000840D951D66246A94FC01678A440D551D58
:104CE00081E0ACCD809130028D7F80933002809145
:104CF0000802E81241C181E08E0D8F7080618093BF
:104D0000080201E812E0F1E8AF16F2E0BF0609F090
:104D100008F491C06DB67EB67DAE6CAED8012C9114
:104D2000822F90E027FDF8C00F5F1F4F009709F416
:104D300002C1EDE3F7E0259134918217930708F063
:104D4000FAC0FC01EE0FFF1FEE0FFF1FEE0FFF1F5B
:104D50003F01680E791E79AE68AEF301E257FC4F51
:104D6000E4918DB69EB624E0E29F8018910811244C
:104D70000FB6F8949EBE0FBE8DBE4DB75EB74F5FA7
:104D80005F4F2A01F301E057FC4F4491F301EF56C6
:104D9000FC4F25913491F901420F532F511D92017F
:104DA000BF016417750779F1A016B10608F4E1C0D8
:104DB000FB0184916F5F7F4F853008F440C08730DE
:104DC00009F0D7C0C8010196F801C0808C010C0D14
:104DD000111DA016B10608F4CCC0D12CF12CE12C89
:104DE000D901CD92DD92ED92FC9213976C01F12CDA
:104DF000E12CF901C482D582E682F782285F3F4F19
:104E00006417750789F620912802211197C0E8AD33
:104E1000F9ADED56FC4F25913491C201F901199578
:104E20006CAC7DAC0FB6F8947EBE0FBE6DBE0A159D
:104E30001B0508F46FCFDD24D3940C94311E690157
:104E4000F4E0CF0ED11C78018FEFE81AF80AD801F0
:104E50001C91812F8F77682E712C912C812C289694
:104E60006CAE7DAE8EAE9FAE2897012F00760036D9
:104E700061F4D401C301806E9F6FAF6FBF6F28963E
:104E80008CAF9DAFAEAFBFAF289717FF43C028963A
:104E90008CAD9DADAEADBFAD28974B0187010F5FC7
:104EA0001F4FF7016081880F991FAA1FBB1F880F32
:104EB000991FAA1FBB1F880F991FAA1FBB1F880F0E
:104EC000991FAA1FBB1F880F991FAA1FBB1F880FFE
:104ED000991FAA1FBB1F880F991FAA1FBB1F762FE0
:104EE0007F77872B780167FDD9CF28968CAF9DAF50
:104EF000AEAFBFAF2897B40128966CAC7DAC8EAC3A
:104F00009FAC2897D9016D927D928D929C921397B8
:104F1000960147CF8701F0CF9695982F88279795D0
:104F2000879580789F73F8012181822B0E5F1F4F38
:104F3000009709F0FECE85E00E94910DE8ADF9AD35
:104F4000E157FC4FE491E0FD62CF809129021F926E
:104F50008F93A2E76A2EA5E17A2E7F926F920E942C
:104F600005136CAC7DAC0FB6F8947EBE0FBE6DBE63
:104F70005ECF87E00E94910DF32C0C94261E9C01BD
:104F80004A2F9B2F4CC91C968D919C91B5C81C969D
:104F90008D919C917EC833243394DD24DA940C9453
:104FA000311EB1E0B91508F400CB0C94F51FCF9376
:104FB000DF9300D000D000D0CDB7DEB782EA93E017
:104FC00090935A0280935902FFB6F8941092800091
:104FD00001E000938100E4E8F0E01182108280811A
:104FE0009181C296909389008093880012E016BB4D
:104FF00080819181C29690938B0080938A0084E097
:1050000086BB8AE192E00E94B61706BB10936F0040
:10501000FFBE88E19DE00FB6F894A89580936000EC
:105020000FBE9093600080E4809360001093C000F6
:1050300087E090E09093C5008093C40086E0809361
:10504000C20088EB8093C10088E795E19F938F931E
:105050000E9405130F900F90F8948DE392E00E9448
:105060007B4F8C01892B19F478940E94601AF89474
:105070000E94BE46F62EE72ED82EC92EE2E2F2E0BE
:105080008681811101C0078382E292E022E0DC0187
:1050900016962C93169700E012E00D931C93E2E114
:1050A000F2E04481558166817781D80114964D9351
:1050B0005D936D937C931797DC011396FC93EE93AD
:1050C0001297D801ED93FC938AE092E0918380835C
:1050D0008091840090918500C2969093890080937E
:1050E000880026BB109255020E94F60B8FEF89872D
:1050F00081E1A82EB12C05C08B2DF80183A310A24D
:10510000178E6EEB72E1CE0109960E94C10B8C01E5
:10511000892B79F0F80143A14071648975898689EA
:105120000E940545D80193968C9184FFE5CF8A2D86
:10513000E4CF8FEF888709C0DC0195961C921E9200
:10514000949760E088960E9440176DE072E1CE016E
:1051500008960E94C10B009779F78FEF8F8302C0EA
:105160000E94211761EE71E1CE0107960E94C10BEA
:105170000097B1F78FEF8E831FEF0AC0909109025D
:10518000828D981302C010930902868D8111D1C0BF
:105190006CE670E3CE0106960E94C10BFC01892BE0
:1051A00069F78FEF8D8311E004C0FC01458140FD5C
:1051B000DAC063EB70E3CE0105960E94C10B009745
:1051C000A1F78FEF8D830CC09C012D5F3F4FDC0159
:1051D00012964C91129760E08D919C910E94CF3C69
:1051E00063E676E3CE0105960E94C10B009761F756
:1051F0008FEF8C8306EE1FE20BC02FB7F894992730
:1052000011969C938E932FBF13830283128A118A67
:1052100069E077E3CE0104960E94C10BFC01892B63
:1052200049F087859089A085B1852285222329F3BD
:105230008C93EACF8FEF8B8302C00E94AE3868E375
:1052400073E3CE0103960E94C10B0097B1F78FEF75
:105250008A830FC0F80164857585868540E00E94C9
:105260000545D8011F966D917D918C9140E00E947B
:10527000054568E471E3CE0102960E94C10B8C01E2
:10528000892B41F78FEF89832FC0F80161857285E3
:10529000838540E00E940545D8011C966D917D9163
:1052A0008C9140E00E940545F801678570898189ED
:1052B00040E00E940545D80152966D917D918C91F8
:1052C00040E00E940545F80165897689878940E0BC
:1052D0000E940545D80158966D917D918C9140E0D2
:1052E0000E940545F80110866AED70E3CE01019633
:1052F0000E94C10B8C01892B41F68AE192E00E9449
:10530000B617E2E2F2E081E08683789487811F920B
:105310008F93CF92DF92EF92FF928CE695E19F936D
:105320008F930E9405130FB6F894DEBF0FBECDBF5A
:105330009BCE8F5F858F80899189A289B3894085B3
:10534000518562857385840F951FA61FB71F808BBB
:10535000918BA28BB38B84839583A683B783CF0174
:105360000E94B61715CF43FB442740F941276281BD
:10537000738184810E9405451CCFFC019289916054
:10538000928B1092260281E08093770280E008954C
:10539000FC0192899160928B1092260281E08093A9
:1053A000760280E00895FC019785916097871092BE
:1053B000260281E08093750280E00895FC019685C5
:1053C000916096871092260281E08093740280E0BB
:1053D0000895FC011092260281E080937302818D72
:1053E0008160818F84819581A681B78140855185B7
:1053F00062857385840F951FA61FB71F84839583CD
:10540000A683B78381E00895AF92BF92DF92EF92B7
:10541000FF920F931F93CF93DF93FC01A485B58573
:10542000968547855089E18822893389F488A58843
:10543000B6887789008D118DD28C808586279C93C4
:1054400084FD20C085FD22C086FD24C087FD26C0C6
:105450009C93862F8295807F808768279C9364FD2C
:105460002AC065FD25C066FD1CC067FD1EC09C935B
:10547000DF91CF911F910F91FF90EF90DF90BF9040
:10548000AF900895EA01E88285FFDECFE901F88256
:1054900086FFDCCFE501788387FFDACFE801D88289
:1054A000D7CFF501708367FFE2CFE801D882DFCF65
:1054B000E901F882D8CFFA01E082D3CFCF93DF930E
:1054C000DC011C96ED91FC911D971E969C911E97F8
:1054D0001F96CD91DC91509751962C9188E005C094
:1054E0009083660F9083815049F067FFF9CF28833E
:1054F00060959083660F90838150B9F7DF91CF91CB
:105500000895CF93DF93FC0184819581A681B781B3
:105510004489558966897789C58DD68D2881C42FA0
:10552000C170378D232331E009F430E0C31761F0F7
:105530004F5F5F4F6F4F7F4F448B558B668B778BE1
:10554000808F918FA28FB38F40895189628973892F
:10555000272F481759076A072B0B27FF18C0248DE0
:105560002160248F4485558566857785840F951F36
:10557000A61FB71F808B918BA28BB38B1092260234
:1055800081E08093720284819581A681B7814085F4
:10559000518562857385840F951FA61FB71F84836D
:1055A0009583A683B78381E0DF91CF910895CF9251
:1055B000DF92EF92FF92CF93DC011896ED91FC9170
:1055C00019971A968C911A9780831E968C911E9724
:1055D00091E098271E969C931E9780958170569611
:1055E000CD90DD90ED90FC9059971F969C911F9760
:1055F0009F5F5196CC9151979C1708F067C0E92F97
:10560000E695E695E695EA0FFB2FF11D228D30E039
:10561000492F477002C0359527954A95E2F72170CA
:10562000B701A6018217A1F037C0E92FE695E695EC
:10563000E695EA0FFB2FF11D228D30E0E92FE77090
:1056400002C035952795EA95E2F72170821324C0B0
:105650004C0D5D1D6E1D7F1D9F5F9C1730F38FE508
:1056600099E313969C938E9312971496CD90DD90A8
:10567000ED90FC9017974C0D5D1D6E1D7F1D1496CF
:105680004D935D936D937C93179781E0CF91FF903D
:10569000EF90DF90CF9008951F969C931F971496DC
:1056A000CD90DD90ED90FC9017974C0D5D1D6E1D1B
:1056B0007F1D14964D935D936D937C93179781E0B6
:1056C000CF91FF90EF90DF90CF900895B701A601A2
:1056D000C6CF0F931F93CF93DF93DC015A963C9173
:1056E0005A973323E9F0FC017B963150232F30E0A9
:1056F000B901660F771F260F371FBD01625E7F4F0E
:10570000620F731F30E041E0C081D18198818281B6
:10571000982309F0342B440F33966E177F07A1F7B7
:105720001C969C911C97931749F01D968C911D9780
:1057300083278095292F2327282351F558968C916C
:1057400058971D963C931D9787FD06C0815008F41D
:1057500042C058968C93589714964D915D916D91D7
:105760007C91179718960D911D912D913C911B9747
:10577000400F511F621F731F14964D935D936D93DD
:105780007C93179781E0DF91CF911F910F9108953E
:10579000282F209592238323892B1C968C931C976A
:1057A0001E96EC911E97E83048F691E09E0F1E96EB
:1057B0009C931E97EA0FFB2FF11D878710922602FC
:1057C00081E0809370028FEF58968C9358971D96C6
:1057D0003C931D97C1CF1092260291E090937002E6
:1057E000B8CFCF92DF92EF92FF926B017C010E94C3
:1057F000BE46C60ED71EE81EF91E0E94BE46292FC1
:105800006C157D058E052F0927FDF7CFFF90EF90D2
:10581000DF90CF900895CF92DF92EF92FF926B01CD
:105820007C010E94BE46292F6C157D058E052F092F
:1058300027FDF7CFFF90EF90DF90CF9008955F9214
:105840006F927F928F929F92AF92BF92CF92DF9290
:10585000EF92FF920F931F93CF93DF938C01FC0184
:10586000C080D180E280F38084809580A680B7805C
:1058700066246A94660E6623E9F0EA01CA0101967D
:10588000680E792E711C59900E94BE466C197D09D4
:105890008E099F09681579058A059B05A8F3652D72
:1058A000C8010E94042A0E94BE466B017C01C615F5
:1058B000D70549F7F801C082D182E282F382DF91F5
:1058C000CF911F910F91FF90EF90DF90CF90BF90FD
:1058D000AF909F908F907F906F905F9008954F92C0
:1058E0005F926F927F928F929F92AF92BF92CF9270
:1058F000DF92EF92FF920F931F93CF93DF93EC0110
:10590000562E3A0188809980AA80BB80CC80DD80A9
:10591000EE80FF808A010F5F1F4FFA014080642DE7
:10592000607F0E945E2A0E94BE46681979098A0932
:105930009B096C157D058E059F05A8F3642D629566
:10594000607FCE010E945E2A0E94BE466B017C01F0
:1059500088849984AA84BB84F1E05F1639F15A9453
:105960005A94650C711C82E0680E711CF80151900C
:105970008F01652D607FCE010E945E2A0E94BE4687
:105980006C197D098E099F09681579058A059B05A3
:10599000A8F3652D6295607FCE010E945E2A0E9469
:1059A000BE466B017C010615170501F7C882D98236
:1059B000EA82FB82DF91CF911F910F91FF90EF90D0
:1059C000DF90CF90BF90AF909F908F907F906F901F
:1059D0005F904F900895CF92DF92EF92FF920F93D6
:1059E0001F93CF93DF93EC01E885F9858A85808347
:1059F0000E94BE463E8521E023272E872F8541E069
:105A0000420F4F870C811D812E813F81413009F467
:105A10004EC0CA88DB88EC88FD88453090F40C0DB8
:105A20001D1D2E1D3F1D0C831D832E833F8381E092
:105A3000DF91CF911F910F91FF90EF90DF90CF906A
:105A40000895AB01BC01401B510B620B730B8E8997
:105A50009F89A88DB98D481B590B6A0B7B0BDB0105
:105A6000CA010296A11DB11DB7FD30C0B595A7951D
:105A700097958795B595A795979587958C0D9D1DBD
:105A8000AE1DBF1D8E8B9F8BA88FB98FE7EDFAE2FD
:105A9000FB83EA83400F511F621F731F840F951F02
:105AA000A61FB71F8C839D83AE83BF83C0CFAB017E
:105AB000BC01401B510B620B730B4E8B5F8B688FCD
:105AC000798FCA88DB88EC88FD88A9CFDB01CA0101
:105AD0000596A11DB11DCACF0F931F93CF93DF93DE
