:100000000C94500B0C947D0B0C947D0B0C947D0B7D
:100010000C947D0B0C947D0B0C947D0B0C947D0B40
:100020000C947D0B0C947D0B0C947D0B0C947D0B30
:100030000C9470460C947D0B0C947D0B0C947D0BF2
:100040000C947D0B0C943D480C947D0B0C947D0B13
:100050000C947D0B0C947D0B0C947D0B0C947D0B00
:100060000C947D0B0C9447460C941D460C947D0B10
:100070000C947D0B0C947D0B0C947D0B0C947D0BE0
:100080000C947D0B0C947D0B0C947D0B0C947D0BD0
:100090000C947D0B0C947D0B0C947D0B0C947D0BC0
:1000A0000C947D0B0C947D0B0C947D0B0C947D0BB0
:1000B0000C947D0B0C947D0B0C947D0B0C947D0BA0
:1000C0000C947D0B0C947D0B0C947D0B0C947D0B90
:1000D0000C947D0B0C947D0B0C947D0B0C947D0B80
:1000E0000C947D0B0C94823C0C94ED430C94903951
:1000F0000C94CB4A0C9409440C9430300C94463F39
:100100000C94C2360C94792E0C94E73B0C94842EFC
:100110000C940D0F0C9426150C94AA440C948D3459
:100120000C94B6400C94DE300C94581D0C945D4534
:100130000C949E2F0C94D0350C94E5180C949E3A98
:100140000C94A61B0C94D31B0C9460320C94B43505
:100150000C94C3310C94591A0C94C93D0C94B314EB
:100160000C94482F0C9433400C94C0300C94983568
:100170000C9433180C94113B0C94DB390C946718D5
:100180000C9439410C9433310C94970C0C94B04975
:100190000C94770C0C94E8420C9413350C94FA14DC
:1001A0000C9484140C94C0310C94E14F0C94353CA5
:1001B0000C94973B0C94953A0C94873D0C9496477D
:1001C0000C9485190C94BB450C94E7130C943813CC
:1001D0000C9412110C94E51C0C94534A0C94AE43ED
:1001E0000C94904A0C94A5180C948F440C948F385E
:1001F0000C949A2E0C941C430C94EF350C940C34F4
:100200000C941F440C9468440C942A120C943E45A0
:100210000C94383D0C94E0440C940C510C943637FB
:100220000C94EE120C94D7430C9404370C94B02E1B
:100230000C949A0B0C947D130C941D500C94D715B0
:100240000C94BA180C94663B0C940D450C94531204
:100250000C943D430C948E100C943B2E0C947337ED
:100260000C948F2E0C94D4370C94FA440C94BB4706
:100270000C94F4420C946F430C94E2410C9465315D
:100280000C943F140C94AB140C944E1B0C94790CEE
:100290000C94E00B0C94053A0C940E360C94B419A3
:1002A0000C94140F0C9436120C94B8300C94F64540
:1002B0000C9440440C940C150C94051C0C942B19B4
:1002C0000C9471360C9460130C94CB340C949A33C8
:1002D0000C94A52E0C9472190C94FF190C94A23155
:1002E0000C9450350C9492420C944A360C94091399
:1002F0000C945B1C0C949C0C0C946B3A0C94AC34DA
:100300000C946F350C94E10B0C94E4370C94C544B9
:100310000C944E0F0C947F0B04010104040104049F
:1003200004040000000404010101010104040101AE
:100330000401010404040400000404040404000093
:1003400000000404000000000400000000000000A1
:10035000040000000000040002000004000400008B
:100360000407040400000404040000020200040066
:10037000020000020407000400040400000400045A
:10038000020204040404040000040004040404043D
:100390000404000400020304000404000400040038
:1003A0000004000400000000000000000001000242
:1003B0000102A203E518020000010000002A120356
:1003C0000000010000003612040000010000002BB4
:1003D0001905000001000000721906000100015615
:1003E00015E713070000010000008519080001004F
:1003F00001A1033F1409000001000000E00B0A0006
:100400000201015115A5180B000301039E03E10B26
:100410000C000201029C03BA180D00020002A203A4
:10042000970C0E000200023D15E51C0F00030003AF
:100430009E03581D10000200029C037D131100054D
:1004400000059703D71512000200023D150913138A
:1004500000010001A103671814000200029C033888
:100460001315000200023D156013160004000493EA
:10047000035B1C17000500058E03261518000100FC
:1004800001A103331819000800088603051C1A008F
:1004900003000383030C151B000200023D15FF1926
:1004A0001C000200029C03A61B1D0004000435155D
:1004B000D31B1E00010001A103FA141F0002000259
:1004C0003D15EE1220000900097A034E1B2100029F
:1004D00000029C03B31422000400033F156B3A236F
:1004E000000300024215D437240003000242158F96
:1004F000382500040004391553122600010001A11B
:1005000003AB1427000300037703841428000400BE
:10051000037403463F2900040004391571362A008C
:10052000010001A103B8302B000300037103953AC9
:100530002C000300036E039E3A2D0006000668039C
:10054000113B2E000200023D150E362F000500055E
:100550006303363730000400044B154A363100027D
:1005600000023D15A23132000400036003053A3356
:10057000000500055B03DE303400010001A103E447
:100580003735000400032C15DB393600050005560D
:1005900003653137000400043915043738000300BF
:1005A000037703C03039000300024215D0353A000A
:1005B0000300024215EF353B0006000650039A3354
:1005C0003C00030002421598353D0003000242152D
:1005D000B4353E00080008480360323F00060006BC
:1005E0005003924240000500054303903941000644
:1005F00000063D03C236420003000383036F354308
:1006000000010001A103733744000200029C038231
:100610003C45000200023D1550354600010001A195
:1006200003E24147000200029C03353C48000400FD
:10063000043903CB344900010001A10339414A00C8
:100640000200029C03E73B4B0003000383031335C6
:100650004C00010001A103B6404D000200029C03C2
:10066000973B4E000200023D15AC344F00010001E3
:10067000A103334050000200029C03663B5100027C
:1006800000023D158D345200010001A1031D50539D
:10069000000200029C03CB4A54000200023D15C533
:1006A000445500040004350333315600010001A114
:1006B00003E14F57000200029C03904A58000200D9
:1006C000023D15AA4459000300032915BB475A00EF
:1006D000010001A1030C515B000200029C03534A7C
:1006E0005C000200023D158F445D0003000383039C
:1006F00096475E000200023D153E455F0003000282
:100700004215B04960000400043515BB4561000383
:10071000000383030D456200030003830309446360
:100720000005000530031F4464000400042C03404E
:100730004465000700072503684466000200023D87
:1007400015FA446700010001A103AE4368000700E9
:10075000071E035D4569000300031B03D7436A00BE
:100760000300031803ED436B000200023D15E04453
:100770006C000001000000E8426D00000005000070
:100780000078DA9D5A7B6FDB3812FF2A3A038BBB65
:100790003D243DCBF23387FD2375DC36D7E6B171BE
:1007A000B25DDCE14028126D0BD1C32B4A4D728B38
:1007B0007EF79B075F92DD5DA0050A8BE4CC901C61
:1007C000CEE3C7617E1FC4FBFDE06CF031CFF67B4A
:1007D000590F4E068F6D96A7E28BAC5556950A863B
:1007E000B6497216FCEDFD72F963307B13BD190634
:1007F0008F59D93659AEB0F7FA2178AB9B3F06A393
:1008000037A3E99BD1309C0EC3D10444255551C474
:10081000650A427E1FC4A90A47A3A1889B264E767B
:10082000A2A9B3ED56D6222EE3BCDA065596FEF405
:100830004312747B05F70ECEE6F393419CE7551205
:1008400037123B5590546DD9F0180C3175567E9780
:10085000F028C43D370D6C56C4C993A176338CA7DC
:100860001E419A1A827DA5E8272B7FFAA10DF66D0D
:100870009E8B76CF0C73C7F05B2BEB572B13B6F028
:1008800084D4B5548D68B2E44971ABA9E3521559CB
:1008900023CCAC4156C209E8F967A0C95CC6B55083
:1008A000BBB649ABE772703642E5969B6C2BB45EE3
:1008B000CD146A9FE99D0569DCC4A29671FA2A7875
:1008C00091A0AC85C7F79247E3C921DFE06CEA51FC
:1008D00019D5DA5D6B495164691E8B0C4EDC103CF6
:1008E000B64A743F45F3BA97247836714CAC1FC7AB
:1008F000854DE129DDAD813A65DD5D4147E193A993
:10090000254EB36DD6C4B9A8DAA6C7F025CE5B498B
:100910007A919BB8CD1B613B8AF845A46D1D376069
:10092000F0B4B97066E54930DFA6DA7764259DC971
:10093000476EF25D3A1ECFE65615B5D28A0FA4F97E
:1009400048C7F66B62BFA6F66B66BF641EBF5A0B44
:1009500081237107BE7B99852F668A6D0C569FECAB
:10096000E2B29439ED0DF66D64A8247F7227EF543E
:100970009F8D92C01CF5D8C9CD9262345C8CE7463D
:10098000349039070C2D599E26E1341C1DA35A8C36
:10099000FB54E2396B76603DCDE3217D80DDBC3ECA
:1009A000E475F694676A943EFFB93D0540087BCF35
:1009B000F69E81B9ED14FB76319A0C8FAD7336B784
:1009C00054A5ACF6D98BCC7BB642AEA3B2FF81D492
:1009D0005D0BF1AE1168239EC32A095DA07A7742B0
:1009E00013B7F9FD7371C4FE9257706227435BDF42
:1009F000AEEDDB23F41C18E4D89D9EAA94D864B90C
:100A0000E71048AD6482C48AF677EA9924F8757FC6
:100A10001D18E69AEC8B14BB6CBBE310B8F0E9C16F
:100A2000E9B7B93C1250EC9853F8691476584D84E4
:100A30003AC6AD8744A1B63FFDF077480AD1B8C3A6
:100A40008BB682E69B286B9E913B29D5CC162ECC8B
:100A500025EA8895070A8CC37CBE9689E87A51906E
:100A600014A9E83BD6C4DB7A233105DAA543539BAE
:100A7000679066B5F9E4C04CC48EAACD95F4848E17
:100A80009C31373B59171584B0FD5195FAC34EABD5
:100A900053777E4D91B4716D6DA97E1107F12F686A
:100AA0006C275A6A931592B7E68EE6784274A6646C
:100AB0005DE374E433A112DD590C4F06A97C6CC1CF
:100AC000692A400C0BD382A9B7E4307CA8A125C3C6
:100AD000D41354752A6B9C0C3267CDC17564089E83
:100AE000EBAC910714E8194C084B9185ACB7B24CAC
:100AF0005E054661580474714416BBAA9007895577
:100B0000C5C5DEF732DDB669B59B7861E92E0BF01D
:100B100076450F2CC02654C5216A347193535A87E9
:100B200035C58DB40A1A81396F32D030C40DC13A3F
:100B30000C923AE1F87D32D842C8A075C2C9E816D5
:100B4000D1403CE266BBC7A303673F19E844026E8D
:100B50005DA602CCD6E649FC663D4FC31E191E4178
:100B6000E0A57E4D06C74119E3FB8017AC0523279E
:100B7000863B88BE7E3085268542D000FEE2E14974
:100B8000C5E63F0E1D977AF619C159AD83A6B16728
:100B9000CA9EFB74444DF50208206D9C7392E9E0F7
:100BA0000E03B432914B1D2761B7592ACB26DB00C7
:100BB000E8DA6C6005E4F81656C0CA4C6AFA1E7D85
:100BC0002CC0764DCA20ADDBC39FF823ED3E758661
:100BD000C14071D77A87320133660BEAA1B78E79AB
:100BE00082FA673D3AB2B8D6C5C7F9D41174E05C51
:100BF0004FD074DEA3EB0B9ABA99FA88EF3B7DEBEA
:100C0000F1B59110A4C985F61541D9A070FEA6B31F
:100C10009C6BC1016F41D84E264F1E0C8C46665D01
:100C20005D94D9DBDF6CDC25EB6F6F6615DE03931B
:100C30007673FB0AC2697F6B5E9A9818011DF8D51E
:100C40003FAFA84375705A76337DACD59733EC131C
:100C50001E6C6861287A78AC2769115ABA0EAAEA24
:100C6000EBAF4776309D5D500F56F5E5CC7A7407B3
:100C700082ACC11E008D6F5C8E302602ACC8368DF2
:100C8000061C56892CBAA700D8B25DEBB1DCFB8DEF
:100C9000593CCBEC18263720E743544F3DBB9CB260
:100CA0003DB4F2D885C3CE51F90031B42C3D7C68F7
:100CB000C9AD3340201B1B6204188143CCB2E6F45B
:100CC0006862DA8EE225FC6690804035044D318FF3
:100CD0000FF53709E0C4D39F1038800A69FC4DF442
:100CE000AE4BB0F0E88088B64080D6CAECA05B601E
:100CF0009A3253295FF4120043D9F494D59C3143BE
:100D000026320AF913A40C6AC1A538D482BC8C65BA
:100D10008DE4D247C2A023B9D9884D1D43BACA1A5F
:100D20000D8E11C7F46470A6102A89DD864CF6C8B2
:100D300002EAB61F1D7141DC369530A4849F160768
:100D4000D2F58A6C0EE4A6C8D2170DC28624BC5216
:100D5000A1FE1DE9DF48FF8EE11745CF0E457B0060
:100D6000E440308EB168FC0AB510C8041E8EEFA5B1
:100D70005597A21613A6F3929C371AD9D10E2EC0FE
:100D80002E8D0B8A2A951E3E00969963E982822257
:100D90005395810245A5B263C8DE88EB23ED69C493
:100DA00052BFBD91080D91EE0E7F84A626F32ED57D
:100DB000713035C13DF02D41206283CC9E79470BC7
:100DC00056BF700484133102309470C8C28399C036
:100DD00001136B8CDFD17517E030C400C3EDE11255
:100DE0001F03FF097E0D645D577EDB869DA22AB33B
:100DF00006865C30D41D10FA48C9A7886C7B331F67
:100E000003C0A788907B7478DC75FC2C28BDDBAC14
:100E1000011D051E6CC69F380F19E7E828FF8106E3
:100E20003B14A61A60BA75B8207911CA23B5901C74
:100E3000482547E22EC4A1B9A36BFCDB162117E1BC
:100E4000E50C6A5B45C9977D56CBCE1D616125F5E2
:100E500056ED13811931443C963DBCC03BFE6A2ED1
:100E60006358413DBF588AABF35FF18A851B7BFB1A
:100E7000B016B797D76BCCA483B3C1EDDBE8E4F62B
:100E8000ED08FE87036FB079A6C18BE1C9ED050EB1
:100E90002C3FDD2C3F8A7777AB9F31460FE9DFC9C6
:100EA000E06AF900547153C86D3C9A4C874078FB56
:100EB000F98A671B21F6B95B2D5797BFACC4E7CB06
:100EC000EB8B9BCF68E823EC5CAFEEA0935721EB54
:100ED0002CCE71AE15CCB5C2B960F4F2FC93787B20
:100EE000FE70816278AAF5FDF9FD5AAC1FAED63FBF
:100EF000C3C87A852353EC5EDDDEAEEEC4CDEDFDD6
:100F0000E5D5E5BF5717E2E11AFB18D39B51FC1555
:100F10006F6FEE3F88D5C57B600DBFE295AC854B0A
:100F200022D54AA8D0EC5789B00DD707C2FDA4A698
:100F3000E157BE4F00118E9176BC3E8D2970083569
:100F4000084B59DD3CDC53B9F5FA7CF991E4C00655
:100F5000EEEE053723D3BC5B9D5FE83EF095F5C30D
:100F600072B95AAF59B4B96F90FF9DA1E8CBD15275
:100F70005C9CDF9F8BD5DDDDCD1D49C72ED40C4C8D
:100F8000AA3B61A6CBEB5FCE3F5D5EB07064E0092B
:100F900057D7EB9B3BE8BCBDB9BBB7E434935F0FBD
:100FA000C3893E5DAE4717705AA041F88C2E3EB003
:100FB000C620A6E2E8EDF97070F69FE1C9FCBF70AB
:100FC000DA6FF17BCEDF4BFC86044E8D0B6C40005C
:100FD000A0C60A1B80C0A8F10E1B63CDFF9E1A5A43
:100FE000C0076C4CB4807F6163A6793ED2349AE727
:100FF000133590E76B2729E9D5C7611445B4F85834
:101000004D86E3594A4A299AE93C9C9226F073346A
:1010100055A4F226979361387A046D6A61FA88EDD7
:10102000B1E3D166E8E07556C2FD26D52E1590EBEA
:101030006DF8FEC1BE799E53D53C3097F99431D0FE
:10104000322E83B26A20CFC2FF6A0370E5B960AC6A
:10105000125044089E77197CB367AB600FD11C66B1
:10106000629065785B2509D1D661B0A9EA009CEC55
:101070009FA69D291C4DA99FBAF4ED1D58FFDA20AB
:10108000C80B54B6850505CD2E6E903AD6CB6404B8
:10109000C4F5094DAC9014030A5751B897E0208964
:1010A0008695CA3230F52ECB0F76B8E4179B601FB9
:1010B000D7E0D09C33A84061066A09915F35F4EE11
:1010C000F22E86FDA641530594B9B0AE4CE1930BC8
:1010D000F2EFB84869D04F56A6F225C8E31A63224A
:1010E0006CA1ECD42D39BB7DF815EF5658D3FE8793
:1010F000AE69774E27084FC7FC1C02EE12680F64DA
:10110000E709C80D4D5FE8F7A1F79881210FDC735F
:1011100022E0707DC9E03E7017DFFED5956BFC863E
:10112000CEBC5CB8571BC6E28C8A0C957EFAA25ADC
:101130008FEB0332546D5C48500DD709CD605101DF
:101140008AD5DA0DB0F48CF1DF0DDB42B52D4D738D
:10115000643C18D7B5073B7FE46D110C2260EFC2E9
:10116000229CE9C512B1C9329809BD7E7D43C3A056
:10117000A219C78B2E019854BB777B527C5536142D
:101180009D1B982F05A6BF8A5FF064E746A10C114E
:10119000AFA452311CB52C13807CC60041FD579979
:1011A00042EF50C94EA66D8E354760C6DB45A07331
:1011B00028998AFC22F124F062F16D865D5CA7E437
:1011C000BC9A1AEBD057A87EBA7105F0556FF2EAB7
:1011D00099AF6CD7E0B571C0DBC17041C1138BFD15
:1011E000FE00F8310F6055CE1FC8CA3DDF6BB84214
:1011F000444325AED47547946BAD37EFEB6A0BCA09
:101200002C60E931EE6D03A8165609CA961888B00D
:101210005E7D27F5A6D0F93052C034A86A3806F4AE
:101220004CACFBAE2DC1817682E72CCF01BA2420D5
:10123000AFF3D2C0F0D5715A0DFD01073E03AE21C8
:10124000AAF019D20290222BDAC2F419E7C0246F57
:101250005E07E8391384511CA298EABF6CAE756032
:101260006AAA2AD8C4B43BDE19E2D07BDFA4506559
:101270004048EF275C77BC277D2027A03625294FE3
:101280003C94AADDA3234B0E52941910F17F8E9B40
:101290006497565BD6E25FF8998D1E9A218FB6E56A
:1012A0001308C608C70F825EBF7203537C7E461FB9
:1012B0008110A82072A30703265441A2F87CF931BB
:1012C000585156A3D95BB71A7ED871A3EC357CFB75
:1012D000B7BDE89E5D1EF73AC021BD2A73C8025F04
:1012E0006049F1636E82BB55E882D04DD0989887F3
:1012F0009718BC4EE5416F52D014BDADDBBCA25F68
:10130000DC532EEA2B2CAB6248669383BB306960BA
:101310006CEF2F149A48F514E5F9F5E608CEC5F3FD
:1013200066EFC0171F9D7ED8F7F03E04A9FAE0557E
:1013300004733580D1289C4F26840874634A9080BA
:101340001BD309190F34A6D3197C475F0F2E130E38
:10135000825DDD5C5FDE6BEC75F3CBEAEEDD274290
:10136000B5E05BE79FC5DDF93582CBA1C55AEBDB64
:10137000D5F2F2DDE5F2A8500B571E95C05DE3FBF8
:1013800007782DE48FF8496C1B9A027FC2AF04D115
:1013900012B013A01AE05F4EBCBFFDF4251A50A195
:1013A000660F1150F21F4AD8BF66E8DCEEA990D252
:1013B0002D15E9BBEBE9CCFDB9418725F64AA95CBF
:1013C00004D00CF8EE46052177053A0DED635C80FC
:1013D0003092BEE896442F18D8674C8AEEEC102461
:1013E000852D41213B3D79516DF58FD6AD59F4875F
:1013F000F0E777CF460ABCD9BE029DD233907E7605
:10140000E94886CB2F44F5C339FC571DE067FB172D
:1014100046C7BD370C8DF8752D9328B49226EE295A
:10142000C163B66F0A5C157883A4F8E8E0D413F4BE
:1014300081A6D1D0DC7B21D09B3475933649E8C599
:10144000832ED100D0ABCE93DA29666B8E2FB0E419
:10145000FCA9539D500819CA44F69E18C228ECF204
:10146000740AB1EEF2AF2BA5E646CBE53A5FE46332
:101470004B1928E52239004B0831C2A448C57B0B23
:10148000A9A6E682BB7930F8862266C74A500707CC
:10149000E4576ABD7309A9C2E6957C0E187BE7483C
:1014A000F51F084F84C54FB9421337CA99A26A0B7A
:1014B000FDA37ED3263775659C5E8D875F73B0B8BC
:1014C0008031B113A8BA677AC45FF1835215DFEE99
:1014D000475EE9E7700F58F4A1F547873591E35E61
:1014E000C05F9E4F85D1C8AF6B389E24B665A9E317
:1014F000B522CF2F2986D3A581FF5CA0ED048D09ED
:10150000C434FDA76210D3A6D178918E3783AFFF84
:10151000074724D395940D000028292A2B2C2D2E23
:101520002F505152535455565704040004020704D7
:10153000000002000204000004040000000404048F
:10154000040704070400070404040004040004045E
:101550000107040004020000000000000006000271
:1015600002840010032915830040032C1582001EFD
:10157000062F158100400344158000150435157FA2
:1015800000170439157E000A023D157D0040024215
:10159000157C0040033F157B0040033F157A004057
:1015A000024215790040034415780011044715776D
:1015B0000011044B1576000D024F1575000B0156F6
:1015C0001574004001511573001204521572000B7E
:1015D00001561571001002571570001503591500BA
:1015E0000040025C156F000E025E156E000901607E
:1015F000156D000600000020002300260029002CA5
:10160000002F003200000100000301060109010F54
:101610004700440045008001354800440045002053
:10162000010D88008000810080000E8A008000810A
:101630000020000F8C008000810008000CB300B077
:1016400000B10080033EB400B000B1002003239835
:1016500000900091008000249A00900091002000EA
:10166000259C009000910008003BA800A000A1006C
:1016700080003CAA00A000A10020003DAC00A0001A
:10168000A10008005B28012001210180005C2A01E3
:101690002001210120005D2C012001210108000012
:1016A00011241FBECFEFD1E2DEBFCDBF00E00CBFE3
:1016B00014BE0FB6F894A89580916000886180935D
:1016C0006000109260000FBE12E0A0E0B2E0E2E81D
:1016D000F5EA00E00BBF02C007900D92A033B107FE
:1016E000D9F723E0A0E3B2E001C01D92A33AB2070C
:1016F000E1F70E941A4B0C94BF520C940000FC01BD
:1017000086898460868B1092260281E080936C0229
:1017100084819581A681B7814089518962897389C5
:10172000840F951FA61FB71F84839583A683B78355
:1017300081E008950F931F93FC01A489B5898689E0
:101740008C9393A181E0892783A34481558166818D
:10175000778190FD12C00085118522853385400F69
:10176000511F621F731F82FD12C04483558366831D
:10177000778381E01F910F91089504851585268553
:101780003785400F511F621F731F82FFEECF008904
:10179000118922893389872F401751076207830BEC
:1017A00087FDE3CF82E191E193838283B901A801B0
:1017B000448355836683778381E01F910F91089559
:1017C0000895FC018081A481B581408551856285A1
:1017D00073859FB7F894813061F0823019F04C9393
:1017E0009FBF08954D935D936D937C9313979FBF17
:1017F000089511965C934E939FBF08950F931F9386
:10180000CF93DF938C01DB01FC0190817091560234
:101810009F5F492F50E0440F551F440F551F2091E3
:10182000570230915802240F351F0BC0E9012C5F7D
:101830003F4FF9013497408151814A175B0751F0BE
:101840009F5F971798F390E080E0DF91CF911F9111
:101850000F910895F80190838A819B81DF91CF9148
:101860001F910F910895CF92DF92EF92FF92CF9345
:10187000DF9360915E0270915F026115710581F1E5
:10188000615071096B01F12CE12CC0915B02D09188
:101890005C0240915D0250E06115710591F0FE011E
:1018A00080E090E0DC010196A11DB11D9A012E0F90
:1018B0003F1F31832083F9018C159D05AE05BF05BF
:1018C00090F3469FF001479FF00D569FF00D1124B5
:1018D000EC0FFD1F11821082D0936F02C0936E0235
:1018E000DF91CF91FF90EF90DF90CF90089580E04F
:1018F000089510922602E2E1F2E084819581A681AA
:10190000B781AC01BD015659674E7F4F4483558363
:10191000668377839659A74EBF4780930E029093B4
:101920000F02A0931002B093110281E00895FC0110
:10193000648180810C940548FC0180917A0086FDC9
:1019400008C0828D90910902981789F09F3F09F491
:1019500063C084819581A681B7818853984FAF4F2A
:10196000BF4F84839583A683B78381E008958FEF6B
:10197000809309022091780030917900858D968DB1
:10198000891790F544895589240F351F8F5F358B52
:10199000248B858F891770F18689978928173907D5
:1019A00008F448C0808D918D8217930708F442C0D7
:1019B000138E1092260281E080936D0280899189B6
:1019C000A289B3894085518562857385840F951FEF
:1019D000A61FB71F808B918BA28BB38B84839583BB
:1019E000A683B78381E0089581E0358B248B858FB2
:1019F000891790F684819581A681B78144855585A4
:101A000066857785840F951FA61FB71F84839583EE
:101A1000A683B78381E0089580930902982F987078
:101A200090937B008770806480937C0087ED809327
:101A30007A008FCF838D8F5F838F948D891708F401
:101A4000B8CF809128028111B3CF8BE10E947E0F25
:101A50002F923F924F925F926F927F928F929F92BE
:101A6000AF92BF92CF92DF92EF92FF920F931F93AC
:101A7000CF93DF9300D000D0CDB7DEB7DC01159651
:101A8000BC91B9835B2F567081F1032FD22E142F96
:101A9000C62E9B838A83B170BC83E981E1FD3EC081
:101AA000AA81BB819C9111968C919CBD8DBDBC81FE
:101AB000B11172C1CC2009F43EC1112309F4D4C084
:101AC000ED2DF02F1150AF014F5F5F4F410F511DB2
:101AD00080818EBD0DB407FEFDCF8EB58193E417D6
:101AE000F507B1F7EC81E111C3C026960FB6F89463
:101AF000DEBF0FBECDBFDF91CF911F910F91FF9041
:101B0000EF90DF90CF90BF90AF909F908F907F909D
:101B10006F905F904F903F902F900895DC010D9053
:101B2000BC91A02DBE83AD831D964C911D97427034
:101B300016966D917D918C910E94E3470E946A49AF
:101B4000ED81FE8181849284A384B484680D791D23
:101B50008A1D9B1D0E94043DFC81FF2309F4FAC0ED
:101B6000F980F694F694F6944F2D4170AA81BB81CA
:101B700012966D917D918C910E94E347EA81FB81E1
:101B80000190F081E02DFE83ED8381849284A38413
:101B9000B48424013501769467945794479484184B
:101BA0009508A608B7080E946A49640D751D861D30
:101BB000971D2FEF210F112309F45EC0ED2CF02E9D
:101BC000A7014F5F5F4F1A01220E311CD701DD9034
:101BD0007D01ED81FE81258508E010E020FF6EC0CB
:101BE0000E94043DAD81BE811696ED91FC91179740
:101BF00018968C91189780834D2D407813966D918F
:101C00007D918C910E94E3470E946A49DD0C110F7F
:101C1000680D791D8A1D9B1D0E94043DAD81BE810A
:101C20001696ED91FC91179718968C9118978083D2
:101C3000ED91FC911197808112969C91892391E0FE
:101C400009F490E0192B0E946A49640D751D861DE8
:101C5000971D015029F6CC2019F0F7013197108318
:101C60002E143F0409F0B2CFEC81EE2309F43DCFEE
:101C7000F980F694F694F6944F2D40954170EA81E0
:101C8000FB8162817381848126960FB6F894DEBF52
:101C90000FBECDBFDF91CF911F910F91FF90EF90BD
:101CA000DF90CF90BF90AF909F908F907F906F907C
:101CB0005F904F903F902F900C94E3470E94043D1B
:101CC0004D2D4078ED81FE816381748185810E9474
:101CD000E347AD81BE811696ED91FC91179718965A
:101CE0008C9180830E946A49DD0C110F680D791D6B
:101CF0008A1D9B1D0E94043DAD81BE81ED91FC912A
:101D00001197808112969C91892391E009F490E0CB
:101D1000192BAD81BE811696ED91FC9117971896FF
:101D20008C9180830E946A49640D751D861D971DE4
:101D3000015021F690CFED2DF02FAF01410F511D35
:101D40004E175F0709F490CF81918EBD0DB407FE49
:101D5000FDCFF6CFAA81BB810D90BC91A02DBE8393
:101D6000AD8319968D909D90AD90BC901C972401E9
:101D70003501769467945794479484189508A6087B
:101D8000B7080E946A49640D751D861D971D2FEFC7
:101D9000210F111113CFA9CEB981B3FB442740F90C
:101DA000EA81FB816281738184810E94E34782CE54
:101DB0000F931F93CF93DF93EC010FB7F8949E8995
:101DC00090FF25C0162F6F8B9A7F94609E8BAC89F5
:101DD000BD891097B9F01296ED91FC9113978D91F2
:101DE0009C9111979D8B8C8B11961C921E92139631
:101DF0001C921E921297612FCD011995AC89BD8955
:101E0000109749F71092260281E080936C020FBF71
:101E1000DF91CF911F910F9108950897FC01608D7C
:101E20000E94D80E80E00895FC01A085B1859C91A8
:101E3000818D22859223C9F080958170C1F4838DB4
:101E4000815029F1838F84819581A681B78147854F
:101E5000508961897289840F951FA61FB71F8483DB
:101E60009583A683B78381E00895817041F38EE462
:101E70009FE09383828383899489A589B68984832B
:101E80009583A683B783828D838F81E00895648DC7
:101E90008789908D0E94D80E80E008950F931F933C
:101EA000FC01A085B1859C91448155816681778133
:101EB0000385148525853685400F511F621F731FCA
:101EC000818D2285922359F08095817051F0448351
:101ED00055836683778381E01F910F910895817008
:101EE000B1F7438B548B658B768B84E19FE09383B2
:101EF0008283CF011F910F910C94140FF894682FD7
:101F000070E08DE392E00E9462524F925F926F9276
:101F10007F928F929F92AF92BF92CF92DF92EF9279
:101F2000FF920F931F93CF93FC01A4A1B5A110972B
:101F3000B1F416861786108A118AC0E08C2FCF91D3
:101F40001F910F91FF90EF90DF90CF90BF90AF90D7
:101F50009F908F907F906F905F904F9008958D919C
:101F60009C91119795A384A312964D915D916D91CB
:101F70007C91159718960D911C91199716968D9135
:101F80009C9117971A962C911A97E0906E02F090F8
:101F90006F021196FC92EE92B0936F02A0936E02C4
:101FA000C0A0D1A0E2A0F3A0C22FC17020FF08C042
:101FB000F094E094D094C094C11CD11CE11CF11C9D
:101FC00030E020E0C00ED11EE21EF31EC0A2D1A25E
:101FD000E2A2F3A2958784876C01092E000CEE081B
:101FE000FF08C40ED51EE61EF71EC086D186E28607
:101FF000F386A4A5C480D580E680F780A5FD28C01F
:1020000086849784A088B1884288538864887588BC
:10201000440D551D661D771D428B538B648B758B4C
:1020200044835583668377839A2F9071A4FD04C0FF
:10203000000F111F221F331F06871787208B318B3C
:1020400089288A288B28F1F4C11114C0C1E076CF09
:102050004C0D5D1D6E1D7F1D448355836683778304
:1020600006871787208B318B892B49F0A064A4A7A2
:10207000CC2361F3A58DB68D878D8C935FCFAF7B1D
:10208000A4A7F6CF8F01872F4C155D056E058F092C
:1020900087FD33C0CC23D1F2911125C0D8015D96C4
:1020A000ED91FC915E975F968C9180830E946A49C6
:1020B000F801C688D788E08CF18CDC01CB018C0D4F
:1020C0009D1DAE1DBF1DC480D580E680F7802F2DDD
:1020D000C816D906EA062B0B27FFB8CF8483958351
:1020E000A683B7832BCF0E946A49292F6C157D05E3
:1020F0008E052F0927FDF7CFD1CF4C195D096E0949
:102100007F094038514C6F4F7F4F2CF0C482D582ED
:10211000E682F782BFCF88E10E947E0F8F929F9266
:10212000AF92BF92CF92DF92EF92FF920F931F93E5
:10213000CF93DF93EC01EA8DFB8D8C8D80830E9421
:102140006A490E891F89288D398DAB01BC01400F6A
:10215000511F621F731F8E859F85A889B9890197BA
:10216000A109B10980FF19C02CA524FD1AC08E87D2
:102170009F87A88BB98B4C835D836E837F8381E0BF
:10218000DF91CF911F910F91FF90EF90DF90CF9053
:10219000BF90AF909F908F9008950097A105B105D3
:1021A00071F188849984AA84BB840A891B892C894B
:1021B0003D89080D191D2A1D3B1D0A8B1B8B2C8B7D
:1021C0003D8BCC84DD840D2C000CEE08FF08C80C80
:1021D000D91CEA1CFB1CC886D986EA86FB86E32F3D
:1021E000041715072607E70BE7FDC1CF8E879F87EA
:1021F000A88BB98B0C831D832E833F83C0CF4C8368
:102200005D836E837F83CE01DF91CF911F910F910C
:10221000FF90EF90DF90CF90BF90AF909F908F9006
:102220000C94850F8F929F92AF92BF92CF92DF92C4
:10223000EF92FF921F93CF93DF93EC01EF8CF8A006
:10224000E114F10409F400C1F7018081918198A3A0
:102250008F8F86809780A084B18411E081149104CF
:10226000A104B10409F4B6C06C897D898E89412F1F
:102270000E94E34780916E0290916F02F701918373
:102280008083F0926F02E0926E0281149104A104A7
:10229000B10489F18B8D9C8DAD8DBE8D881699060C
:1022A000AA06BB0640F54F89588D698D7A8D411578
:1022B00051056105710509F4BBC08C819D81AE811A
:1022C000BF81480F591F6A1F7B1F1660EF8DF8A151
:1022D0003097B9F1C280D380E480F580872F4C1508
:1022E0005D056E058F0987FDB2C08BA1912F92709D
:1022F000B701A6017EC08BA121E081149104A10445
:10230000B10409F069C084FB992790F931E0932763
:10231000291709F442C04F89588D698D7A8D41156E
:10232000510561057105C9F18C819D81AE81BF8127
:10233000480F591F6A1F7B1F1460EF8DF8A130975B
:1023400049F62BA1488B598B6A8B7B8B2071212BF3
:102350002BA3212F247011FF65C0880D991DAA1D84
:10236000BB1D211158C02AE93BE03B832A838C83A3
:102370009D83AE83BF8388869986AA86BB868B8D14
:102380009C8DAD8DBE8D88199909AA09BB098C87D2
:102390009D87AE87BF8781E011C090E0EF8DF8A1E7
:1023A000309719F5188A198A1A8A1B8A8071812B2D
:1023B0008BA3212F247080E091113EC0DF91CF913B
:1023C0001F91FF90EF90DF90CF90BF90AF909F90C4
:1023D0008F90089510E048CF20E084FB992790F972
:1023E00031E09327291397CFD8CF4281538164815D
:1023F0007581488B598B6A8B7B8B80711460182B8D
:102400001BA3992379F08C819D81AE81BF81880DBA
:10241000991DAA1DBB1D2B2F84179507A607270BF7
:1024200027FDA1CF4C835D836E837F8381E0C6CF80
:1024300012608BA192E0B2CF40E050E0BA018C81F3
:102440009D81AE81BF8189CF85E10E947E0F83E1AE
:102450000E947E0F80912802882329F0823011F09B
:1024600010922802089582E00E947E0F88E00E9468
:102470007E0F90915602891798F490E0880F991F6B
:10248000880F991FE0915702F0915802E80FF91F49
:10249000808191818617970719F48281938108952D
:1024A0008CE00E947E0F8F929F92AF92BF92EF922C
:1024B000FF920F931F93CF93DF937C0164E874E145
:1024C000FC0180810E9439128C01F701C085C43063
:1024D00008F07FC0FC01D581D67009F07AC0F70101
:1024E00084849584A684B78484819581A681B781EC
:1024F000892B8A2B8B2B09F06EC0E9EFF5E1A591B2
:10250000B49111968C9180FD04C060E088E00E9437
:10251000054860E089E00E94054860E08AE00E948A
:10252000054860E08BE00E945F4780E58CBD1DBCE4
:1025300081E08114F2E19F06FAE7AF06B10470F57D
:10254000811489E098068DE3A806B104E0F581E0E6
:10255000D1E0E0E88E16E4E89E06EEE1AE06B104B6
:10256000E8F480E0D1E0F0E48F16F2E49F06FFE0AB
:10257000AF06B10498F480E2881681EA980687E0F5
:10258000A806B10418F580E0D3E0E0E98E16E0ED8E
:102590009E06E3E0AE06B10408F0D2E0CC0FCC0F0B
:1025A000C065CD2BF801C0838183858184608583DC
:1025B000DF91CF911F910F91FF90EF90BF90AF905F
:1025C0009F908F90089580E0D0E0E8CF81E0D2E046
:1025D000E5CF0E948F4287E30E947E0F0F931F93E7
:1025E000CF93DF938C0163EB74E1FC0180810E9447
:1025F0003912EC0160EE74E4F80184810E94391212
:10260000CF5ADF4F99838883DF91CF911F910F912C
:1026100008950F931F93CF93DF938C0166E275E1CA
:10262000FC0180810E943912EC016AEF74E1F8012B
:1026300084810E943912BE01685D7F4F4FB7F894C4
:102640002AA53BA5232B89F429E53AE13BA72AA734
:10265000FC012489358939A728A7758B648B4FBF66
:10266000DF91CF911F910F91089589E10E947E0F14
:10267000CF93DF93EC0166E275E188810E94391205
:10268000FC018C819D81AE81BF81F8944685578580
:1026900060897189452B462B472B79F48483958378
:1026A000A683B783828B938BA48BB58B84A5877FFE
:1026B00084A77894DF91CF91089586E10E947E0FE0
:1026C000CF93DF93EC0166E275E188810E943912B5
:1026D000FC018C819D81AE81BF81892B8A2B8B2B44
:1026E00051F480E0F89494A59D7F982B94A778945A
:1026F000DF91CF91089582E0F5CFCF93DF93EC0186
:1027000067ED75E188810E943912F894FC01278DEC
:1027100030A1232B61F44C815D816E817F81438FD9
:10272000548F658F768F7894DF91CF91089584E1EF
:102730000E947E0FFC01138212821182108280910E
:102740005E0290915F02892B41F480915D028617B1
:10275000170614F460935D0208958EE00E947E0FC8
:102760002FB7F89480916E0290916F02009749F014
:10277000FC014081518150936F0240936E022FBF44
:1027800008958FE00E947E0FCF93DF93C09159028E
:10279000D0915A02AE01480F591F2DB73EB72150B4
:1027A0003F4F22273A952417350770F050935A026D
:1027B00040935902AC0170E060E0CE010E94B85233
:1027C000CE01DF91CF91089581E10E947E0F0F939A
:1027D0001F93CF93DF938C0180915E0290915F02F3
:1027E000892B09F049C060915D0270E0623028F4E5
:1027F00082E080935D0262E070E0E0915902F09126
:102800005A024DB75EB741505F4F44275A959F011A
:10281000D0E0C0E0C901860F971F4817590730F173
:1028200021969C01C115A4E0DA07A1F78E1B9F0B2E
:102830000E94C413D0935F02C0935E0290935C0227
:1028400080935B020E94330CF80180819181A28108
:10285000B3818093600290936102A0936202B0936F
:102860006302DF91CF911F910F910895C9012097C5
:10287000E9F680E10E947E0F8DE00E947E0FCF93EB
:102880002091570230915802232B91F4FC01C08112
:102890008C2F90E0880F991F880F991F0E94C413F6
:1028A0009093580280935702C0935602CF91089597
:1028B0008AE00E947E0FCF93DF9390915602891792
:1028C00000F5282F30E0220F331F220F331FC09155
:1028D0005702D0915802C20FD31F88819981892B4A
:1028E00081F480915E0290915F02892B51F479838B
:1028F0006883CA010E94C4139B838A83DF91CF91AE
:1029000008958BE00E947E0FFF920F931F93CF9349
:10291000DF938C0146E050E064E874E1FC018081C3
:102920000E945B14EC01F801F08461E0F11060E0BA
:10293000F80184810E9405486A837B838C838D81A2
:1029400091E0F11099E0892B8D83DF91CF911F9158
:102950000F91FF90089546E050E064E874E1FC01B7
:1029600080810C945B14CF93DC0114969C91149796
:1029700030E020E005C02F5F3F4F20313105B9F135
:10298000C22FF901E75EFA4EE4919E13F4CF87E976
:1029900080937A002830E8F480917E0021E030E0D6
:1029A0000C2E01C0220F0A94EAF7822B80937E003E
:1029B00043E550E063EB74E18C910E945B14FC01F1
:1029C0008CE99CE093838283C28F81E0858FCF91D5
:1029D000089580917D00922F977021E030E001C032
:1029E000220F9A95EAF7822B80937D00E1CF86E350
:1029F0000E947E0F49E150E06AEF74E1FC018081A2
:102A00000E945B142FE73BE0FC01338322832DE01F
:102A10003FE03387228708950F931F93CF93DF936F
:102A2000EC014DE150E06CE075E188810E945B149F
:102A30008C0168858C810E945F47F80160877187EF
:102A40008287DF91CF911F910F910895EF92FF92AE
:102A50000F931F93CF93DF938C014DE250E066E21A
:102A600075E1FC0180810E945B14EC01F801848512
:102A700018160CF045C084E08CA764E084810E94A5
:102A800005486A8F7B8F8C8F60E0F80180850E94FB
:102A900005486D8F7E8F8F8F80E090E0A0E0B0ECD6
:102AA00088A399A3AAA3BBA3F80180899189A289CD
:102AB000B3898E8B9F8BA88FB98F6BE070E0CE01AE
:102AC00084960E949A138E899F89A88DB98D8997C3
:102AD000A105B10558F08EE890E19B838A83DF91D0
:102AE000CF911F910F91FF90EF9008958CA5806377
:102AF0008CA7DF91CF911F910F91FF90EF900895D8
:102B00007E01F4E2EF0EF11C811128C06CA5647007
:102B1000F80184810E9405486A8F7B8F8C8F60E06A
:102B2000F80180850E9405486D8F7E8F8F8F80E031
:102B300090E0A0E0B0EC88A399A3AAA3BBA3F801FE
:102B400080899189A289B3898E8B9F8BA88FB98F39
:102B50006BE070E0C7010E949A13B5CF80E18CA7AB
:102B600060E0F80184810E9405486A8F7B8F8C8F1A
:102B700060E0F80180850E9405486D8F7E8F8F8F01
:102B800080E090E0A0E0B0EC88A399A3AAA3BBA347
:102B9000F80180899189A289B3898E8B9F8BA88F38
:102BA000B98F6BE070E0C7010E949A1394CFCF9267
:102BB000DF92EF92CF93DF93EC0161E088859985F6
:102BC000AA85BB85892B8A2B8B2B09F460E08C812D
:102BD0000E9405486B01E82E44E250E067ED75E184
:102BE00088810E945B14FC01C48AD58AE68A21E0B0
:102BF000488559856A857B85452B462B472B09F4EB
:102C000020E04C855D856E857F85452B462B472BC7
:102C100009F02061FC0123A3488959896A897B89CD
:102C2000478B508F618F728F6AE070E04F96DF9113
:102C3000CF91EF90DF90CF900C949A132F923F9208
:102C40004F925F926F927F928F929F92AF92BF92BC
:102C5000CF92DF92EF92FF920F931F93CF93DF9368
:102C600000D01F921F92CDB7DEB780915502882306
:102C7000C1F00F900F900F900F900F90DF91CF91B8
:102C80001F910F91FF90EF90DF90CF90BF90AF908A
:102C90009F908F907F906F905F904F903F902F907C
:102CA000089581E0809355023E016DE1660E711C2E
:102CB0002091A2037091A1037983272E312C27172D
:102CC000A0F40B8D1C8D0E5F1F4FF8018491820DB7
:102CD000932D911D8136910564F1821B91098136F6
:102CE000910560F010925502C4CF1092A10310928A
:102CF000A203312C212C198220E0E3CF1092A103F2
:102D00006091A203F981F61BF9832F2E312C70E01C
:102D10006F5B7C4FA10181E493E00E94A652109268
:102D2000A20369816093A1038091C10080628093B6
:102D3000C100C1018F5B9C4F1C01F8018491082FD9
:102D4000863008F478C091012E5F3F4F8550990B73
:102D50007901E80EF91EEB8DFC8D3396A490EB8D76
:102D6000FC8D3496459154916A01EB8DFC8D8591D3
:102D700094918038910508F04DC1B9016F5F7F4F84
:102D80007B836A838F77D9018C93A40EB52EB11CF7
:102D9000CA14DB0409F44AC06A817B81E616F7068F
:102DA00008F45EC1F6018491FFEFCF1ADF0A853087
:102DB00009F4DBC008F461C0883008F051C1F301A8
:102DC00000811181012E000C220B330BA7016A81B7
:102DD0007B81461B570B052E000C660B770B0417E7
:102DE00015072607370708F4A8018A809B809FEF04
:102DF000891A990AAA81BB814C932301B4E04B0E36
:102E0000511CF301228133818A01B901863009F412
:102E1000E7C0C4010E949D52B401600F711F7B8303
:102E20006A833201CA14DB0409F0B6CF0A811B8120
:102E3000021913090D5FD1010C93809108021196BC
:102E40008C936DEF600FC1010E941D4B200E311C51
:102E5000F1013397908331968083B1E02B1A3108CA
:102E60008EE7F1018083F9810F0F0093A103809118
:102E7000C10080628093C10035CF823008F4A7C0C2
:102E8000D3014D915D913D0170E060E0833021F40C
:102E9000052E000C660B770BAA81BB8111968A0167
:102EA0009B01005E1F4F2F4F3F4F0038110521053A
:102EB000310508F485C08A819B8102969D838C83AD
:102EC0008A019B01105F2F4F3F4F011510442105D0
:102ED000310508F489C08A809B80E3E08E0E911C46
:102EE0008A019B01285F3F4F0115110520423105E2
:102EF00008F485C04A805B8084E0480E511C8A013A
:102F00009B013C5F011511052105304108F08FC080
:102F10008A019B01E5E13695279517950795EA9576
:102F2000D1F70068EA81FB8100835B824A822D0130
:102F3000D4018A019B019EE0369527951795079548
:102F40009A95D1F70068F20100838A019B0187E01E
:102F500036952795179507958A95D1F70068EC81E6
:102F6000FD8100834F774C9313CF93012E5F3F4F2A
:102F7000D3014D915C91EA81FB813196DA016C912C
:102F80006623D9F1EE15FF05C0F54F5F5F4F04C012
:102F9000FC01E816F90641F0CF0101966083FA01C1
:102FA0006191AF016111F4CFAC016A817B81461B55
:102FB000570B4150DB014C9339019B838A83E8CE48
:102FC0009A2F8B2FAA81BB819A838B83CBCFF3015E
:102FD0004081518162817381C30104963C015CCFC1
:102FE000C4010E94875218CF3C812D818A819B8128
:102FF0009D838C833A832B83A8CFCF01D5CF3C818F
:103000002D81BD83AC83A32FB22F4A805B809B822E
:103010008A828FCF2F5F3F4FBC01660F672F661FDD
:10302000770B71956068D10112966C93A6CE8A01D8
:103030009B01FCE13695279517950795FA95D1F7F1
:103040000068EA81FB8100839F012B5F3F4FBB83B8
:10305000AA83AC81BD819D828C824201290158CF17
:1030600086E00E947E0FCF93FC01C0816CE075E189
:103070008C2F0E943912FC01F894818D3389448988
:10308000558966897894A085B1859C912285922383
:1030900021E009F420E01F922F936F935F934F93E9
:1030A0003F93869581701F928F931F92CF938FEAE3
:1030B00095E19F938F930E941E168DB79EB70C9635
:1030C0000FB6F8949EBF0FBE8DBFCF910895CF93DA
:1030D000FC01C08166E275E18C2F0E943912FC016F
:1030E000F89480A191A1A2A1B3A124A546855785FA
:1030F0006089718924FD04C0769567955795479539
:10310000841B950BA60BB70BB7FF07C0B095A09516
:10311000909581959F4FAF4FBF4F7894B054BF9318
:10312000AF939F938F931F92CF9385EB95E19F93DE
:103130008F930E941E168DB79EB708960FB6F8940F
:103140009EBF0FBE8DBFCF910895FC0185818F93E7
:1031500084818F9380811F928F9381EC95E19F935F
:103160008F930E941E160F900F900F900F900F904C
:103170000F900895DC012C911496ED91FC913FB7CE
:10318000F8942130E9F02230B1F0808190E0B0E095
:10319000A0E03FBFBF93AF939F938F938BEB95E1DD
:1031A0009F938F930E941E160F900F900F900F9079
:1031B0000F900F90089580819181A281B381E9CF12
:1031C00080819181B0E0A0E0E4CFCF92DF92EF92D6
:1031D000FF92FC0140815181628173812481E5E18C
:1031E000F5E185919591A591B491481759076A0722
:1031F0007B0770F56A017B01C20ED11CE11CF11C3A
:103200008C159D05AE05BF0500F5841B90E09A0165
:103210002F57384F3F932F939F938F937F936F93A5
:103220005F934F938FED95E19F938F930E941E16AE
:103230008DB79EB70A960FB6F8949EBF0FBE8DBF8E
:10324000FF90EF90DF90CF900895822F90E0DFCF36
:1032500090E080E0DCCFCF92DF92EF92FF920F936D
:103260001F930E946A499F938F937F936F93C12C02
:10327000D12C7601C39400916802109169022091CB
:103280006A0230916B02601771078207930718F08A
:10329000C12CD12C7601409164025091650260915D
:1032A000660270916702D701C601840F951FA61FA1
:1032B000B71FBF93AF939F938F9383ED95E19F9338
:1032C0008F930E941E168DB79EB70A960FB6F8947C
:1032D0009EBF0FBE8DBF1F910F91FF90EF90DF90AB
:1032E000CF9008950E946A499F938F937F936F9325
:1032F0008DEC95E19F938F930E941E160F900F9077
:103300000F900F900F900F90089580915E02909112
:103310005F029F938F9321E030912802311101C009
:1033200020E01F922F93209163022F93209162023D
:103330002F93209161022F93209160022F9321E01F
:10334000892B09F420E01F922F9387EC95E19F933E
:103350008F930E941E168DB79EB70C960FB6F894E9
:103360009EBF0FBE8DBF089584E00E947E0F0F9315
:103370001F934FB7F894E0912202F0912302E817CF
:10338000F90729F420C028173907B9F0F90120817D
:10339000318121153105B9F72091240230912502A0
:1033A0002817390731F482E192E090932502809347
:1033B00024024FBF1F910F910895DC012D913C9184
:1033C00031832083E9CFDC0114960D911D912D915D
:1033D0003C91179700930402109305022093060274
:1033E000309307022D913C9130930102209300020B
:1033F00020E032E03093230220932202CDCFEF92DF
:10340000FF921F93CF93DF937C01FC0110816AEF41
:1034100074E1812F0E943912EC01F894F701648164
:103420000E94D80ECE010E94B719CE0108960E94C4
:10343000B7191E8A8F8978941F921F921F921F922C
:103440001F928F931F921F921F921F9389EA95E1FB
:103450009F938F930E941E168DB79EB70C960FB642
:10346000F8949EBF0FBE8DBFDF91CF911F91FF904B
:10347000EF900895CF93DF93EC010E94B719CE012E
:1034800008960E94B719EC89FD89309751F0908118
:1034900081811382128211821082E92FF82F3097D6
:1034A000B1F71D8A1C8A188E1F8A1E8ADF91CF9160
:1034B0000895CF92DF92EF92FF920F931F93CF93D5
:1034C000DF938C01EC01A897CE010E94B7191C82F2
:1034D0001D821E821F821A8A1B8A1C8A1D8A48A18D
:1034E00059A16AA17BA18CA5CE84DF84E888F988E4
:1034F00084FD04C0F694E794D794C7944C195D09F1
:103500006E097F09CC24DD247601C41AD50AE60AA7
:10351000F70A77FD02C0B701A60148A359A36AA321
:103520007BA31E861F86188A198A847388608CA7DD
:103530006D8D7E8D8F8D40E00E94E3474CA544FF4A
:1035400027C045FD25C0D8011497ED91FC91119736
:103550003097A9F040916E0290916F0201C0F9017D
:103560002081318140839183F0936F02E0936E025A
:103570004E2F9F2F2115310591F71D921C92DF913F
:10358000CF911F910F91FF90EF90DF90CF90089512
:1035900044706A8D7B8D8C8D0E94E347D4CFAF92AF
:1035A000BF92CF92DF92EF92FF921F93CF93DF9360
:1035B000DC011496CD90DD90ED90FC9017971FB72D
:1035C000F894C0912202D09123022F2D4C815D816D
:1035D0006E817F818F2DC416D506E606870B87FD89
:1035E0001FC0FE010990D881C02D4C815D816E8184
:1035F0007F81922FC416D506E606970B97FFF1CF71
:103600001196DC93CE93B183A0831FBFDF91CF913E
:103610001F91FF90EF90DF90CF90BF90AF900895F3
:103620005D010E946A492F2DC616D706E806290BB0
:1036300027FD25C082E0C030D80741F1F501D183D4
:10364000C083C0920402D0920502E0920602F0927A
:103650000702B0920102A092000280E092E09093F3
:103660002302809322028091840090918500C2966B
:10367000909389008093880082E086BBC6CF8091BA
:1036800028028111D7CF83E00E947E0F8091000233
:1036900090910102F50191838083D3CF0F931F9303
:1036A000CF93DF938C0163EB74E1FC0180810E9476
:1036B0003912EC010E94B719909109028A8D981372
:1036C00003C08FEF80930902F80184819581A68160
:1036D000B781888B998BAA8BBB8B8C839D83AE83A0
:1036E000BF8380859185A285B3858C879D87AE87B2
:1036F000BF8784858E8F91E0980F9D8F4089518977
:1037000062897389488759876A877B8794899F8FE5
:1037100018A2208D318D3F8B2E8B248D358D398FC6
:10372000288F20A12C8F882349F0913360F4CE019B
:10373000DF91CF911F910F910C94CF1ADF91CF9110
:103740001F910F9108958AE10E947E0FEF92FF92E0
:103750000F931F93CF93DF938C016AEF74E1FC0109
:1037600080810E943912EC01F8948E8980FF13C089
:103770007E01F8E0EF0EF11CC7010E94B719F801B5
:1037800084819581A681B7818C879D87AE87BF870D
:10379000C7010E94CF1A7894DF91CF911F910F91AA
:1037A000FF90EF9008950F931F93CF93DF938C01B9
:1037B0006AEF74E1FC0180810E943912EC01F894F7
:1037C0000E943A1A81E08E8BF80184819581A6814E
:1037D000B7818C839D83AE83BF8380859185A285CD
:1037E000B385888B998BAA8BBB8B892B8A2B8B2BD0
:1037F00019F0CE010E94CF1AF8018485888F789441
:10380000DF91CF911F910F9108950F931F93CF9345
:10381000DF938C016CE075E1FC0180810E9439121C
:10382000EC010E94B719F80184819581A681B781C6
:103830008C839D83AE83BF8380859185A285B3856C
:103840008F87988BA98BBA8B84858A8F882359F1AF
:1038500040895189628973894B875C876D877E8730
:103860002EE43FE03B832A838B8F84899589A68948
:10387000B789892B8A2B8B2BA1F482E0898F6AEF81
:1038800074E1F801808D0E943912988F8F8BF801B6
:10389000848D8C8FCE01DF91CF911F910F910C946D
:1038A000CF1A83E0EBCF188E1F8A198EDF91CF914C
:1038B0001F910F9108950F931F93CF93DF938C0166
:1038C00066E275E1DC018C910E943912EC010E94E4
:1038D000B013FC01D80114964D915D916D917C91CE
:1038E0001797428353836483758318968D919C91B7
:1038F000199791878087892B09F464C01C968D9154
:103900009C91978386831286F8948CA5282F21702A
:1039100081FB992790F9291729F091E08927928551
:10392000916092874E855F8568897989452B462B02
:10393000472B59F583FD19C08CA7118210828CA1E9
:103940009DA1892BD1F1AEA1BFA1ED93FC93FFA363
:10395000EEA3CE010E94850FCE010E94CF1A78946B
:10396000DF91CF911F910F91089580916E029091F8
:103970006F0291838083F0936F02E0936E027894DC
:10398000DF91CF911F910F9108958CA71182108222
:103990008CA19DA1892B61F0AEA1BFA1ED93FC93F9
:1039A000FFA3EEA37894DF91CF911F910F9108951B
:1039B000FFA3EEA3FDA3ECA3D2CFFFA3EEA3FDA331
:1039C000ECA3C7CF87E10E947E0F8F929F92AF92A8
:1039D000BF92EF92FF920F931F93CF93DF938C01CF
:1039E00067ED75E1FC0180810E943912EC010E94B3
:1039F000B7198F8D98A1892B09F057C0F801E48081
:103A00001BA101E0EE2049F16C897D898E89402F50
:103A10000E94E347F12FF071FF2E81E0E1101BC0FF
:103A20001295117091E01927811741F08F89988DB7
:103A3000A98DBA8D892B8A2B8B2B89F40F290BA387
:103A4000DF91CF911F910F91FF90EF90BF90AF90BA
:103A50009F908F90089580E0E3CF00E0D5CF0E9443
:103A60006A498F88988CA98CBA8C860E971EA81EDE
:103A7000B91E888A998AAA8ABB8A8C829D82AE8264
:103A8000BF8282E191E19B838A830460F02AFBA2DA
:103A9000CE01DF91CF911F910F91FF90EF90BF90DA
:103AA000AF909F908F900C94CF1A82E10E947E0F6E
:103AB000CF92DF92EF92FF920F931F93CF93DF93FA
:103AC0008C0167ED75E1DC018C910E943912EC01EB
:103AD0000E94B013FC01D8011496CD90DD90ED90BA
:103AE000FC901797C282D382E482F58218964D919A
:103AF0005D916D917C911B97468357836087718799
:103B0000F894118210828F8D98A1892B81F0A9A140
:103B1000BAA1ED93FC93FAA3E9A37894DF91CF9136
:103B20001F910F91FF90EF90DF90CF900895FAA32F
:103B3000E9A3F8A3EF8F8BA182FD25C0C88AD98A9B
:103B4000EA8AFB8A982F94609BA381FD10C0CE0166
:103B50000E94B719CC82DD82EE82FF8282E191E180
:103B60009B838A83CE010E94CF1A7894D7CF4C8151
:103B70005D816E817F81872F4C155D056E058F09F4
:103B800087FDF3CFE4CF488959896A897B89972FCC
:103B90004C155D056E059F0997FFD0CF83E10E940C
:103BA0007E0FCF93DF93CDB7DEB7C754D1090FB6E1
:103BB000F894DEBF0FBECDBF0E946A4924966CAF59
:103BC0007DAF8EAF9FAF2497809126028111BBC439
:103BD00081E08093260280916C02882309F443C01F
:103BE00010926C028FEF89838E010F5F1F4F39EAAD
:103BF000E32E35E1F32E6AEF74E1C8010E94FE0B5B
:103C00006C01892B81F1D60156968C9182FFF3CFFE
:103C10000E946A49F894F60137892689422F4B7F22
:103C2000468B78949F938F937F936F931F923F93CC
:103C300021701F922F9389811F928F93FF92EF9291
:103C40000E941E162DB73EB7245F3F4F0FB6F89463
:103C50003EBF0FBE2DBF6AEF74E1C8010E94FE0B8C
:103C60006C01892B81F680916D02882361F110929D
:103C70006D028FEF89838E010F5F1F4F23EAA22E03
:103C800025E1B22E63EB74E1C8010E94FE0B7C01BA
:103C9000892BC9F0D7015D969C915D975E968C91BA
:103CA0005E979813EFCFF894F701858D968D89175D
:103CB00009F4B5C4789463EB74E1C8010E94FE0B6B
:103CC0007C01892B39F780917002882329F11092A9
:103CD00070028FEF89838E010F5F1F4F91E9E92EEC
:103CE00095E1F92E62EA71E3C8010E94FE0B00978C
:103CF00099F0DC0158962C9158972F3F99F7F8943A
:103D0000FC012685211140C4789462EA71E3C80160
:103D10000E94FE0B009769F780917102882309F4D5
:103D200040C0109271028FEF89838E010F5F1F4F89
:103D30008BE8E82E85E1F82E6EED70E3C8010E9455
:103D4000FE0B009771F1DC011E962C911E9723FF4C
:103D5000F3CFF894FC012685277F268778949C0171
:103D6000265E3F4F3F932F9350968C918695869574
:103D700086951F928F9389811F928F93FF92EF9266
:103D80000E941E16EDB7FEB738960FB6F894FEBF28
:103D90000FBEEDBF6EED70E3C8010E94FE0B0097F1
:103DA00091F680917202882309F44BC0109272023E
:103DB0008FEF89838E010F5F1F4FBFE7EB2EB5E1B9
:103DC000FB2E60EC70E3C8010E94FE0BFC01892B06
:103DD000C1F1848D80FFF5CFF894948125813681DF
:103DE0004781548965897689A789B08DD18CC28C29
:103DF000B38C848D8E7F848F7894BF92CF92DF9224
:103E0000BF93AF937F936F935F934F933F932F93A2
:103E10009F9389811F928F93FF92EF920E941E16AB
:103E20002DB73EB7205F3F4F0FB6F8943EBF0FBE91
:103E30002DBF60EC70E3C8010E94FE0BFC01892BD2
:103E400041F680917302882309F454C010927302E2
:103E50008FEF8AABAE014E5C5F4F1A01AFE08A2E46
:103E60006FE675E3C1010E94FE0B5C01892B09F42A
:103E700041C0D50159968C91599780FFF1CFF894A4
:103E8000F5014480558066807780818D8E7F818F9B
:103E9000789458968C915897813009F46CC608F440
:103EA0004BC6823009F496C68330D1F6CAA819826F
:103EB0001A829E012F5F3F4F42E061E0848995891D
:103EC0000E94280D09811A81102701271027F02F41
:103ED000F670EF2E30E020E0B301A201C5010E9490
:103EE000AF3C6FE675E3C1010E94FE0B5C01892BBC
:103EF00009F0BFCF809174028823F9F01092740208
:103F00008FEF8AAB8E010E5C1F4F180179E0A72E50
:103F100001531109E2EFBE2EDD24DA9406C0D70169
:103F20001E968C911E9780FD43C460E575E3C10128
:103F30000E94FE0B7C01892B91F7809175028823EA
:103F400041F1109275028FEF8DABFE01F5967F0166
:103F5000B0E37B2E8824839418E2512E8E010F5FEC
:103F60001F4F580108EA902E81E3482E98EE392E13
:103F70002FE2222E06C0D6011F968C911F9780FD3E
:103F800057C46BEC74E3C7010E94FE0B6C01892BD4
:103F900091F780917602882341F1109276028FEF9B
:103FA0008DABFE01F5967F0150E3752E8824839436
:103FB00064E2962E8E010F5F1F4F580171E3572E5A
:103FC000E4EA4E2EF2E23F2EA2EA2A2E06C0D601E5
:103FD0001F968C911F9780FD68C463E175E3C7014C
:103FE0000E94FE0B6C01892B91F780917702882348
:103FF000D1F0109277028FEF8DABFE01F5967F0125
:1040000034E7A32E42E7B42E06C0D60152968C9117
:10401000529780FD72C46CEA74E3C7010E94FE0BE4
:104020006C01892B91F7809178028823D9F0109246
:1040300078028FEF8DAB8E010B5C1F4F780112E77A
:10404000A12E00E7B02E06C0D60152968C91529751
:1040500080FD86C46DE874E3C7010E94FE0B6C010D
:10406000892B91F7809179028823C9F01092790207
:104070008FEF89838E010F5F1F4F22242394312CF1
:1040800006C0D70119968C91199781119CC463E3DE
:1040900071E3C8010E94FE0B7C01892B91F780918E
:1040A0007A028823B9F010927A028FEF8AAB8E01E0
:1040B0000E5C1F4F180106C0D80151968C91519784
:1040C000811103C36BEB77E4C1010E94FE0B8C01ED
:1040D000892B91F780917B02882309F498C0109274
:1040E0007B028FEF8AAB8E010E5C1F4F1801772485
:1040F0007A946EE375E4C1010E94FE0B7C01892B6A
:1041000009F485C0D7011E968C9180FFF2CF6AA872
:10411000BE016F5F7F4FC7010E94E1509C01F89480
:10412000F70196859E7F96877894232B09F0A4C388
:10413000898183FFDECFA388B12C6501F4E1CF0E26
:10414000D11CCE0CDF1CD7011C968D919C911BAA13
:10415000860122E0AE014D5C5F4F61E00E94093EA6
:104160004C01F7018485958521E02CAB0E5F1F4F34
:1041700022E0AE014C5C5F4F61E00E94093E88295D
:104180009929892B11F00C94BF28F701EA0DFB1D2A
:104190004489F6011181F701E65BFF4F808191812F
:1041A0004F3F11F40C94572950E070E060E0742FF9
:1041B000662755274427F6012381422B612B228154
:1041C000522B8A019B01002711272227307E012BC9
:1041D000022B032B09F4C2C760E00E948C4FD70169
:1041E00053968C9153978C5F53968C93803308F43D
:1041F00080CF662DC7010F960E9459506EE375E47B
:10420000C1010E94FE0B7C01892B09F07BCF8091BC
:104210007C02882309F47CC010927C028FEF8AAB69
:10422000FE01F2961F018E010A5F1F4F1FAB0EABFE
:104230009E012D5F3F4F39AF28AFAE01475F5F4F03
:104240005BAF4AAF6DE075E4C1010E94FE0B2C012B
:10425000892B09F45DC0D2011E968C9182FFF2CFAA
:10426000F894F20184809580A680B780F188168644
:10427000118A789480859185A285B385881A990AD8
:10428000AA0ABB0A82010E5E1F4F68011F2D115042
:10429000A8F0D20156968C91F201E80FF11DBFEF04
:1042A000B78B108E118E8D5FF201868B813378F380
:1042B0006AA9C6010E945950115058F7F12ED20137
:1042C0001F96DC90DD2009F43FC2B1E0DB1609F453
:1042D000FCC3F2E0DF1609F455C6F3E0DF1609F47B
:1042E000F6C6B4E0DB1609F465C7F20176897133CE
:1042F00008F4A8CF6AA9C20142960E9459506DE005
:1043000075E4C1010E94FE0B2C01892B09F0A3CF9B
:10431000A89580917F02882329F080E48093600033
:1043200010927F02F0904003FF2009F477C0809143
:104330003002182F80FD16C034E03F1508F06EC023
:10434000309080029BEF930D9C3308F0D5C5E09030
:1043500081029E2D907F903109F4AAC5182F11601B
:10436000109330024F2D50E06EE770E080E892E04D
:104370000E949052009741F01E7F109330028058A7
:104380009240FF24F394F80E11FDF8C512601093CB
:1043900030028BE797E09F938F930E941E160F9039
:1043A0000F903F2CDD24DA9480E0E32CF12C009177
:1043B0004003102F131961F42FB7F8949091400324
:1043C0000917E9F02FBF00914003102F1319A1F333
:1043D00090E0412F50E0481B590BB701680F791F3F
:1043E00060587D4F80589D4F0E94A6521092260221
:1043F000812F2FB7F894909140030913E3CF1093C6
:1044000040032FBF77247394D71008C08BE797E041
:104410009F938F930E941E160F900F900E946A49DF
:104420004B015C0124960CAD1DAD2EAD3FAD249724
:10443000601B710B820B930BC0903902D0903A0233
:10444000E0903B02F0903C021FEFC11AD10AE10A52
:10445000F10AC0923902D0923A02E0923B02F09205
:104460003C024090350250903602609037027090C6
:104470003802460E571E681E791E40923502509231
:10448000360260923702709238026115710521E0A0
:104490008207910508F099C0009131021091320213
:1044A00020913302309134020CAF1DAF2EAF3FAFDD
:1044B0009B01AC010E948D51DC01CB0181509F4FCB
:1044C000AF4FBF4F892F9A2FAB2FBB270CAD1DAD20
:1044D0002EAD3FAD800F911FA21FB31F0CAD1DADC0
:1044E0002EAD3FAD80179107A207B30718F48FEFE9
:1044F0009FEFDC018093310290933202A09333024C
:10450000B0933402409168025091690260916A024E
:1045100070916B0295018401041B150B260B370B60
:10452000B901A8014115544B644C744008F092C382
:1045300024968CAE9DAEAEAEBFAE2497809126027F
:10454000882309F445CB0E946A492496CCACDDACA3
:10455000EEACFFAC2497C61AD70AE80AF90AF89419
:10456000809126028111FEC578940E946A49360125
:104570004701660E771E881E991E24966CAE7DAE8E
:104580008EAE9FAE249724CB59963C91599758965E
:104590003C937894AC01415F5F4F5F934F931F92C0
:1045A0002F9387891F928F9389811F928F93FF92F8
:1045B000EF920E941E162DB73EB7265F3F4F0FB6F3
:1045C000F8943EBF0FBE2DBF8DCB6115710510E174
:1045D0008107910508F08BCF0091310210913202D2
:1045E00020913302309134020CAF1DAF2EAF3FAF9C
:1045F0009B01AC0121503F4F4F4F5F4F232F342F72
:10460000452F55270E948D510CAD1DAD2EAD3FADF0
:10461000060F171F281F391FD901C8015FCF5496F5
:10462000CD90DC90559750969C90509751968C90D9
:10463000519752967C90529753966C9053978F5FF8
:104640005D968C937894A60170E060E0EF5AFF4F7E
:10465000808191810E94424BD7019096EC91909776
:10466000EE0DFF2DF11DC1A2D2A290968C919097D4
:104670008E5F90968C939097282F30E02F5F3F4F5E
:104680005F969C919217130611F00CF0FBCA9701EC
:104690002F5D3F4F3F932F931F928F936F927F9287
:1046A0008F929F9289811F928F93BF92AF920E94A7
:1046B0001E16F70110A22DB73EB7245F3F4F0FB66D
:1046C000F8943EBF0FBE2DBFDDCABAA819821A8268
:1046D0001B829E012F5F3F4F43E061E01F968D914B
:1046E0009C910E94280DF801118A8981CA80D12CE1
:1046F000F12CE12CFE2CED2CDC2CCC24E82A8B8137
:10470000C82AE7FE02C0FF24FA94B701A601F80107
:10471000E55BFF4F808191810E94424BD801579603
:104720008C91F801E80FF11DC08ED18EE28EF38ED0
:104730008C5FF801878B803308F4C4CC6B2DC801E3
:1047400043960E945950BECC82E389831A820E940C
:104750006A496CAF7DAF8EAF9FAF9E012F5F3F4F19
:1047600042E061E0F201848595850E94280D0E9457
:104770006A490CAD1DAD2EAD3FAD601B710B820BB8
:10478000930B613273408105910508F0CCC12981FA
:1047900027FF85C4D20156967C91F201E70FF11DE7
:1047A000F78A83E0808F118E7D5FF201768B9FCD3B
:1047B000CAA8F8016A2C11926A94E9F7B9829801A3
:1047C00049E061E01C968D919C910E94280DD701D3
:1047D00053968C9190E0FC017496EE0DFF1D4B8179
:1047E000242F207F09F492C2203F09F48FC2D48283
:1047F000D382D282D1828E0D9F1DFC01D48AD70133
:1048000053968C9153978B5F53968C938F3228F0ED
:104810006C2DC7010F960E945950D7011E968C919E
:104820001E978E7F1E968C93C7010E94633C7DCBA2
:104830006DA81E968C911E9751969C91519790331E
:1048400008F414C3882309F487C5813009F423C60A
:10485000D60156967C92662DC60142960E9459500A
:10486000F60181898053818B803308F416C310923E
:1048700026028092750285CB61E0E65BFF4F808166
:1048800091810E948C4FD70153968C9190E0FC014E
:104890007496EE0DFF1D8E0D9F1DDC0154967C92CB
:1048A0007182128281E083839ACC6DA81E969C91BE
:1048B0001E9750962D913C9151972033310508F465
:1048C000DCC3992309F40DC5913009F4D5C5D6018F
:1048D00056967C92662DC60142960E945950F6016A
:1048E00080899189C097918B808BC09708F4CDC443
:1048F000109226028092760270CB9DA81C968D9114
:104900009C911D9750962D913C912033310508F4D0
:1049100080C2A9828601085E1F4F20E3AE014F5F6F
:104920005F4F61E00E94093E0E941B4080E3F60158
:10493000878B80899189C097918B808B692DC60167
:1049400043960E945950D60150968D919C91C097E4
:1049500008F484C21092260281E0809377025BCB38
:104960009DA81C968D919C911D9750962D913C91E0
:104970002033310508F420C2A9828601085E1F4F4A
:1049800020E3AE014F5F5F4F61E00E94093E0E944D
:104990001B4080E3F601878B80899189C097918BBA
:1049A000808B692DC60143960E945950D6015096BE
:1049B0008D919C91C09708F424C21092260281E048
:1049C0008093780247CB79801896CC9018972C2D3D
:1049D00030E052964D915C9153975496DC905497E9
:1049E0005596ED91FC91569757967C91295E3F4FD5
:1049F00080E090E0DC012F01F894F2017083000068
:104A000000007083FA0160817894880F991FAA1FB3
:104A1000BB1F6D21812C912C54018394611103C023
:104A2000812C912C540188299929AA29BB2921502C
:104A3000310910F7F894F7012185118678944C011B
:104A40005D010C2C04C0B694A794979487940A94A3
:104A5000D2F7A7FE02C0BB24BA94A10101C0440F43
:104A6000CA94EAF7415050E070E060E08423952357
:104A7000A623B723481759076A077B0709F46FC2B3
:104A800020E030E040E050E8D7011E962D933D93A2
:104A90004D935C93519790E840E030E020E0D701DF
:104AA0005C968C91F701E80FF11D258F368F478FAB
:104AB00090A38C5FF701848F803308F4E8CA672DD8
:104AC000C70148960E945950E2CA8FE789838EEF4A
:104AD0008A830E946A4928966CAF7DAF8EAF9FAFE4
:104AE00028979E012F5F3F4F42E060E0F2018485EE
:104AF00095850E94280D0E946A496CAF7DAF8EAFEC
:104B00009FAFDC01CB0128960CAD1DAD2EAD3FADA6
:104B10002897801B910BA20BB30B81329340A10508
:104B2000B10508F4F0C1D20156967C91F201E70F6D
:104B3000F11DF78A82E036CECAA819821A821B823A
:104B40001C829E012F5F3F4F44E061E0848995897C
:104B50000E94280D69817A818B819C810E949D51E0
:104B6000F62FF770EF2E8B019C01B301A201C50156
:104B70000E94AF3C75C99AA80CE009831A821B8277
:104B80001C829E012F5F3F4F44E061E054968D915F
:104B90009C910E94280D69817A818B819C810E9461
:104BA0009D516B017C0189821A829E012F5F3F4FCC
:104BB00042E061E0F501848995890E94280D970102
:104BC00086013327C92CEA80B301A201C5010E94E6
:104BD000AF3C46C9CAA881E089831A821B821C8225
:104BE0009E012F5F3F4F43E061E054968D919C9171
:104BF0000E94280D69817A818B819C810E949D5140
:104C0000672F782F892F99278B019C012227332723
:104C10000CAF1DAF2EAF3FAF17E019831A829E0174
:104C20002F5F3F4F42E061E0D50154968D919C91FA
:104C30000E94280D8A818C7F9CAD9170E82EE92A14
:104C40000CAD1DAD2EAD3FADB301A201C5010E945B
:104C5000AF3C06C9BF93AF939F938F937F926F92A0
:104C60005F924F92FF92EF92DF92CF9289ED95E1A2
:104C70009F938F930E941E162DB73EB7225F3F4F22
:104C80000FB6F8943EBF0FBE2DBF80916802909181
:104C90006902A0916A02B0916B0288169906AA0671
:104CA000BB0698F48091640290916502A09166021F
:104CB000B09167020196A11DB11D8093640290938B
:104CC0006502A0936602B093670280926802909298
:104CD0006902A0926A02B0926B02109231021092A5
:104CE0003202109233021092340210923502109266
:104CF0003602109237021092380210923902109246
:104D00003A0210923B0210923C0212CC5D81252F98
:104D1000207F19F0203F09F06ACD2F81322F307F9C
:104D200019F0303F09F063CD3885303909F05FCD97
:104D30003985932EE89497F8B0E2B91508F457CD69
:104D400030E08E0D9F1D6A81DC0154966C938C813E
:104D500081838E818283842F8F71B901660F771FC3
:104D600062957295707F7627607F7627862B838386
:104D7000220F331F220F331F2076852F8F71822B36
:104D80008483F70183898B5F838B8F3208F0DDC3C7
:104D9000FEE1F91508F07EC5D70151968D919C91E1
:104DA0005297019652969C938E9351971092260299
:104DB00081E080937402B9C8BAAA8E010F5F1F4FB9
:104DC00022E0AE014E5C5F4F61E00E94093E0E940E
:104DD0001B40898190E0982F882788279F712A811E
:104DE000822BF601268537852817390710F4978717
:104DF0008687D60151969C938E935097C0970CF05E
:104E00003FC5F60182898E7F828BC6010E94473B97
:104E100021C9BAAA8E010F5F1F4F22E0AE014E5C7E
:104E20005F4F61E00E94093E0E941B40898190E033
:104E3000982F882788279F712A81822BF601268543
:104E400037852817390710F497878687D60151963A
:104E50009C938E935097C0970CF00EC5F6018289F3
:104E60008E7F828BC6010E94473BD5C81AAA882331
:104E700009F450C2813009F4EFC2F6018089813013
:104E800009F4DDC280E08F73982F990F890F880F86
:104E9000F601818B803308F0DDC2D6011F968C911C
:104EA0001F978E7F1F968C93C6010E94163C69C87F
:104EB000F31408F4B3CA232D30E0F901E158FD4F93
:104EC00090819E3709F04ACA890103581D4F580145
:104ED00022583D4FD9018C91F8010081102F082FE5
:104EE0006DEF630D80E892E00E941D4B08171907D3
:104EF00009F467C3309080024EE7341609F4C4C445
:104F0000809130022BCA80EC89831A829E012F5F28
:104F10003F4F42E061E0D2011C968D919C910E942E
:104F2000280D99812A81892F8227382F32953F7049
:104F30008327382F369536958327382F3695832744
:104F400080FF28C2F2017689E70FF11DF78A83E01E
:104F5000808F118E7D5FD20156967C93C8C921FF48
:104F60007EC120E030E040E050E4D7011E962D9352
:104F70003D934D935C93519790E48ECD3F2CDD246F
:104F8000DA9412CAD2011C96ED91FC9104816280E0
:104F9000738040E0B301802F0E94E3470E946A497A
:104FA0006B017C01B0E1CB0ED11CE11CF11C1F2D6B
:104FB0000E946A49212FC616D706E806290B27FF4B
:104FC000F7CFF89441E0B301802F0E94E3470E949D
:104FD0006A496B017C01789488E0E8ADF9AD1192E3
:104FE0008A95E9F784E8898383E28A839E012F5FAB
:104FF0003F4F4AE061E0D2011C968D919C910E9446
:10500000280DFE01339665E08191682788E090E0E5
:1050100003C0660F019739F067FFFBCF660FBDE154
:105020006B270197C9F76AAC7BACE615F70561F70A
:10503000D20156967C91872F90E0AC014F5F5F4F75
:105040009C012E5F3F4F7D5F6095EA856E1709F4E6
:105050001EC1840D951D66246A94FC01678A440D67
:10506000551D83E0DA0157968C93240D351DF90107
:10507000178AD20156967C933AC9992309F4ACC198
:10508000913009F44BC2F601118A108A8E7FD60145
:105090001F968C93C6010E94C83B0C94ED1F8A8119
:1050A00090E0880F991F30E0322F2227330F7C01C8
:1050B000E22AF32A0CAD1DAD2EAD3FADB501A40122
:1050C000C2010E947F50D20156967C9110C983E89C
:1050D00089831A821B820E946A496CAF7DAF8EAFB2
:1050E0009FAF9E012F5F3F4F43E061E0D2011C96CE
:1050F0008D919C910E94280D0E946A49AB01BC01D0
:10510000DC01CA010CAD1DAD2EAD3FAD801B910B76
:10511000A20BB30B81329340A105B10508F003CD7A
:10512000EA809B818E2D8927282F22952F70822738
:10513000282F269526958227282F2695822780FFBF
:105140003AC1D20156967C91F201E70FF11DF78A20
:10515000D08E118E7D5FF201768BC9C87F700E9460
:10516000424B3DC88FEF80932702809326027894AC
:105170000000F894809126028111F9CFF5C962E010
:10518000F701E65BFF4F808191810E948C4FD70130
:1051900053968C9190E0FC017496EE0DFF1D8E0DE0
:1051A0009F1DDC0154967C927182128282E083837F
:1051B0000C94EF2086E0EAE2F2E0DE011196019025
:1051C0000D928A95E1F70E946A496CAF7DAF8EAF70
:1051D0009FAF9E012F5F3F4F46E061E0D2011C96DA
:1051E0008D919C910E94280D0E946A49AB01BC01DF
:1051F000DC01CA010CAD1DAD2EAD3FAD801B910B86
:10520000A20BB30B81329340A105B10508F08BCC02
:10521000FE01339680E09191892728E030E004C0B8
:10522000880F2150310949F087FFFACF880F07E036
:10523000602E862521503109B9F76EA87FA86E1619
:105240007F0649F79E81981709F4EDC0D201569662
:105250007C91F201E70FF11DBFEFB78BA2CAF701F6
:1052600086859785A089B1890097A105B10509F0C8
:10527000F2C2B501A401E05BFF4F808191810E94E1
:10528000424B94014A2D9B2D0ACC8785FFCE698520
:1052900064FF16C1EB81E7FD68C1840D951DEFEF3A
:1052A000DC015796EC93440D551D84E0DBCE1F3F87
:1052B00011F00C94D42063E00E948C4FD7015396D8
:1052C0008C9190E0FC017496EE0DFF1D8E0D9F1DDC
:1052D000DC0154961C931183128283E083830C9427
:1052E000EF20D501E52D1D92EA95E9F74982950158
:1052F00041E361E0D6011C968D919C910E94280D9E
:1053000080E3FE013296D601579601900D928A9560
:10531000E1F7DDCABFEAB9831A82950142E061E094
:10532000F601848595850E94280D8A818AAB86FFC7
:1053300007C0F601248935892F5F3F4F358B248BB9
:10534000D60150969C915097913009F09CCD85FFE5
:1053500077C051961C92A1CDD501E42D1D92EA95FE
:10536000E9F79982D60150968C91813009F43982FF
:10537000950141E361E0F601848595850E94280D41
:1053800080E3FE013296D601579601900D928A95E0
:10539000E1F75ECA96FFA9C0F2017689E70FF11D19
:1053A000F78A15E0612E608E118E7D5FD2015696D0
:1053B0007C930C94772191FFC2C0D20156967C91C8
:1053C000F201E70FF11DF78AB5E0B08F118E7D5F16
:1053D000F201768B0C94772129821A821B82950127
:1053E00043E061E01C968D919C910E94280D8A817A
:1053F0009B818130B4E09B0760F0F60124893589F8
:105400002F5F3F4F358B248B918B808BF6019685D8
:1054100058CAD60151969C938E935097C097B0F777
:105420001F968C9133CE8D8181FF97C0D201569605
:105430007C91F201E70FF11DBFEFB78BB2CF80E097
:105440008F71982F990F890F880FF601818B803308
:1054500008F423CD8685F6C929828E010E5C1F4F84
:1054600021E0A50161E01C968D919C910E94093E6E
:105470000E941B408AA95BCF99828601095E1F4F5B
:1054800020E3A50161E0F601848595850E94093E2F
:105490000E941B401CCA5982D60150968C918130C3
:1054A00009F459C08601095E1F4F20E3A50161E0A0
:1054B000F601848595850E94093E0E941B40C8C95B
:1054C000840D951D66246A94FC01678A440D551D60
:1054D000E5E0DA015796EC93240D351DD901579676
:1054E0001C92F201768B0C947721892F90E0982FF3
:1054F0008827990F990F30E0220F331F220F331F97
:105500007C01E22AF32A0CAD1DAD2EAD3FADB501F5
:10551000A401C2010E947F500C9475213AAA850112
:1055200022E0AE014E5C5F4F61E01C968D919C9134
:105530000E94093E0E941B4089819A815ACF9C7F1C
:10554000FE2CE92E8A019B01B9CD6C2DC7010F9667
:105550000E9459501DCC9982A5CFEB80FC80FE247F
:10556000EF24FE248A019B01D2CFC818D908EA088B
:10557000FB08B1E5CB16B5E5DB06E104F10408F064
:1055800071C1AC81B0E0AA0FBB1FF0E0FE2FEE2787
:10559000FF0FEA2BFB2B840D951D6F8166956F73B2
:1055A000DC0157966C93440D551DDA015796EC9328
:1055B000240D351DD9015796FC93F201768B0C947E
:1055C0007721809130028D7F809330028091080294
:1055D000E81245C181E08E0D8F70806180930802D2
:1055E00002E812E0F2E8AF16F2E0BF0609F008F4B4
:1055F00091C06DB67EB67DAE6CAED8012C91822F77
:1056000090E027FDF8C00F5F1F4F009709F402C11B
:10561000E9E7F7E0259134918217930708F0FAC083
:10562000FC01EE0FFF1FEE0FFF1FEE0FFF1F3F01EC
:10563000680E791E79AE68AEF301EA55FC4FE4912D
:105640008DB69EB624E0E29F8018910811240FB613
:10565000F8949EBE0FBE8DBE4DB75EB74F5F5F4FD5
:105660002A01F301E855FC4F4491F301E755FC4F43
:1056700025913491F901420F532F511D9201BF0121
:105680004617570779F1A016B10608F4E1C0FB01EF
:1056900084916F5F7F4F853008F440C0873009F0F8
:1056A000D7C0C8010196F801C0808C010C0D111DF6
:1056B000A016B10608F4CCC0D12CF12CE12CD901F4
:1056C000CD92DD92ED92FC9213976C01F12CE12CBE
:1056D000F901C482D582E682F782285F3F4F4617E0
:1056E000570789F620912802211197C0E8ADF9AD3E
:1056F000E555FC4F25913491C201F90119956CAC27
:105700007DAC0FB6F8947EBE0FBE6DBE0A151B05AC
:1057100008F46FCFDD24D3940C94D4216901F4E014
:10572000CF0ED11C78018FEFE81AF80AD8011C912E
:10573000812F8F77682E712C912C812C28966CAE3E
:105740007DAE8EAE9FAE2897012F0076003661F4B5
:10575000D401C301806E9F6FAF6FBF6F28968CAF6F
:105760009DAFAEAFBFAF289717FF43C028968CAD53
:105770009DADAEADBFAD28974B0187010F5F1F4FA9
:10578000F7016081880F991FAA1FBB1F880F991FFF
:10579000AA1FBB1F880F991FAA1FBB1F880F991F25
:1057A000AA1FBB1F880F991FAA1FBB1F880F991F15
:1057B000AA1FBB1F880F991FAA1FBB1F762F7F77B9
:1057C000872B780167FDD9CF28968CAF9DAFAEAF00
:1057D000BFAF2897B40128966CAC7DAC8EAC9FAC63
:1057E0002897D9016D927D928D929C921397960184
:1057F00047CF8701F0CF9695982F88279795879563
:1058000080789F73F8012181822B0E5F1F4F0097D4
:1058100009F0FECE85E00E947E0FE8ADF9ADE955B6
:10582000FC4FE491E0FD62CF809129021F928F939B
:10583000ABEE6A2EA5E17A2E7F926F920E941E1621
:105840006CAC7DAC0FB6F8947EBE0FBE6DBE5ECF65
:1058500087E00E947E0F9C014A2F9B2F20C9F32CCA
:105860000C94C921840D951D66246A94FC01678AF5
:10587000440D551D81E0F6CB1C968D919C9149C835
:105880001C968D919C9178C833243394DD24DA944E
:105890000C94D421B1E0B91508F488CA0C940D24F5
:1058A000CF93DF9300D000D000D0CDB7DEB783EA2E
:1058B00093E090935A0280935902FFB6F8941092A5
:1058C000800001E000938100E4E8F0E011821082A2
:1058D00080819181C296909389008093880012E024
:1058E00016BB80819181C29690938B0080938A0031
:1058F00084E086BB8AE192E00E94CF1A06BB109337
:105900006F00FFBE88E19DE00FB6F894A8958093E4
:1059100060000FBE9093600080E48093600010935D
:10592000C00087E090E09093C5008093C40086E0BB
:105930008093C20088EB8093C10081EF95E19F9333
:105940008F930E941E160F900F90F8948DE392E0B3
:105950000E9440528C01892B19F478940E94D11D29
:10596000F8940E946A49F62EE72ED82EC92EE2E25C
:10597000F2E08681811101C0078382E292E022E099
:10598000DC0116962C93169700E012E00D931C9301
:10599000E2E1F2E04481558166817781D801149675
:1059A0004D935D936D937C931797DC011396FC9355
:1059B000EE931297D801ED93FC938AE092E09183E5
:1059C00080838091840090918500C2969093890095
:1059D0008093880026BB109255020E94330C8FEFF3
:1059E000898781E1A82EB12C05C08B2DF80183A3F6
:1059F00010A2178E67ED75E1CE0109960E94FE0B8D
:105A00008C01892B79F0F80143A140716489758973
:105A100086890E94E347D80193968C9184FFE5CF55
:105A20008A2DE4CF8FEF888709C0DC0195961C9200
:105A30001E92949760E088960E94591A66E275E17A
:105A4000CE0108960E94FE0B009779F78FEF8F83A7
:105A500002C00E943A1A6AEF74E1CE0107960E94D2
:105A6000FE0B0097B1F78FEF8E831FEF0FC0909161
:105A70000902828D981302C010930902DF01AF5A08
:105A8000BF4F1D921C92868D8111D1C063EB74E1D2
:105A9000CE0106960E94FE0BFC01892B41F78FEF89
:105AA0008D8311E004C0FC01458140FDDAC064E84B
:105AB00074E1CE0105960E94FE0B0097A1F78FEFCF
:105AC0008D830CC09C012D5F3F4FDC0112964C91E1
:105AD000129760E08D919C910E94280D6BE67AE30D
