:100000000C94D6080C9403090C9403090C9403096E
:100010000C9403090C9403090C9403090C94030930
:100020000C9403090C9403090C9403090C94030920
:100030000C94DF3B0C9403090C9403090C94030902
:100040000C9403090C94831E0C9403090C9403096B
:100050000C9403090C9403090C9403090C940309F0
:100060000C9403090C94B63B0C948C3B0C94030940
:100070000C9403090C9403090C9403090C940309D0
:100080000C9403090C9403090C9403090C940309C0
:100090000C9403090C9403090C9403090C940309B0
:1000A0000C9403090C9403090C9403090C940309A0
:1000B0000C9403090C9403090C9403090C94030990
:1000C0000C9403090C9403090C9403090C94030980
:1000D0000C9403090C9403090C9403090C94030970
:1000E0000C9403090C947B2A0C9480170C94D52053
:1000F0000C94A4370C9486300C94D42D0C942B378C
:100100000C94C4350C9401210C947F1B0C942A2B65
:100110000C94803B0C9497350C94D32A0C94EF1CD0
:100120000C9415310C9469300C94E4350C945B26D6
:100130000C942A140C943A190C94A1290C94FA13D7
:100140000C9468300C94EE170C94C4210C94FF238B
:100150000C94C6350C9415160C949B300C94DB341F
:100160000C9422300C94BA120C94E71B0C94941942
:100170000C941F120C94B22C0C94F11D0C949F241F
:100180000C944A370C9417350C946B230C94792DEE
:100190000C9428380C942A2E0C9403300C941539A6
:1001A0000C94D0130C9479200C941D200C94C82B23
:1001B0000C94E1270C94252F0C94E6340C94B92A66
:1001C0000C9425160C9488310C94C12D0C943C127F
:1001D0000C94BA2C0C947D140C94E32B0C940A21EF
:1001E0000C9464170C94A1260C9448170C944E227E
:1001F0000C94162A0C94B6200C94BC290C94C2368C
:100200000C94BA340C9449260C9492120C947A2EC5
:100210000C947F270C947C2D0C94271E0C94CD36C7
:100220000C94BB230C94912F0C9429270C94B01997
:100230000C9487210C94B6220C9442240C94172D14
:100240000C945C2E0C9469370C9436350C94C91BB5
:100250000C94EF220C9461390C94722F0C94B736E5
:100260000C9446130C94771D0C9401170C94CB2915
:100270000C94C7300C94C8130C9410310C94F21CDD
:100280000C945D240C946D2D0C94992B0C94472A9E
:10029000040000000004040000000004000000004E
:1002A0000000000400000000000400020000040040
:1002B0000400000407040400000404040000020217
:1002C0000000000204070004070704000404000003
:1002D00004000202040404040400000400040404F2
:1002E00004040404000400020304000404000400E5
:1002F00004000004000400000000000000000102EF
:100300000102F402C7300200010000006D2D03005D
:1003100001000000792D0400010000007C2D050083
:1003200001000000C12D06010001B1053A190700C6
:1003300001000000B01908010001F302941909003E
:100340000100000068300A020101AC0586300B0391
:100350000103F00269300C020102EE029B300D0233
:100360000002F40210310E020002980515310F034D
:100370000003F002883110020002EE02C91B1105D1
:100380000005E9027F1B120200029805992B130158
:100390000001F3027B2A14020002EE0292121502FF
:1003A000000298051F1216040004E502BA12170590
:1003B0000005E0023C1218010001F302472A190867
:1003C0000008D802D32A1A030003D502B92A1B0257
:1003D000000298057F271C020002EE0229271D0457
:1003E00000049005E1271E010001F30249261F08C1
:1003F0000008CD022A1420020002EE025B2621042E
:1004000000039A05D013220300029D05151623034D
:1004100000029D0525162404000494057D14250181
:100420000001F302C81326030003CA02FA132705CA
:100430000003C702E32B28040003C402BA2C2903DB
:1004400000029D05C82B2A0400049405172D2B01DA
:100450000001F302B22C2C030003C10201212D0381
:1004600000039F05771D2E060006BB02F11D2F021B
:1004700000029805B62230050005B6027920310445
:100480000004A605D520320200029805B6203304E8
:100490000003B3024E2234050005AE02EF223501FF
:1004A0000001F3027A2E360400038405252F370558
:1004B0000005A90287213804000494052A2E390377
:1004C0000003CA025C2E3A0300029D05722F3B0313
:1004D00000029D0503303C060006A302912F3D0358
:1004E00000029D0548173E0300029D0564173F0862
:1004F00000089B02801740060006A302EE17410584
:100500000005960201174206000690025D2443038F
:100510000003D5029F2444010001F3023635450251
:100520000002EE0297354602000298051735470390
:1005300000029D05283848040004900569374903E6
:100540000003D502E6344A010001F302A4374B024E
:100550000002EE0261394C02000298054A374D0153
:100560000001F302CD364E020002EE0215394F02B1
:10057000000298052B37500001000000803B51001D
:100580000500000004020704000002000204000746
:100590000400000404000000040404040704070429
:1005A000000204040400040400040401070400041D
:1005B0000200000000000000060002026740038401
:1005C00005661D0687056540038D056414049005C6
:1005D0006317049405620A0298056140029D056054
:1005E00040039A055F40029D055E40029D055D1037
:1005F000039F055C1104A2055B1104A6055A0D02B8
:10060000AA05590B01B105584001AC05571204ADBC
:1006100005560B01B105551002B205541503B4057A
:10062000004002B705530E02B905520901BB05513E
:100630000600000028292A2B2C2D2E2F5051525312
:100640005455565720002300260029002C002F0067
:100650003200000100000301060109010F470044B8
:1006600000450080013548004400450020010D8808
:10067000008000810080000E8A0080008100200040
:100680000F8C008000810008000CB300B000B100A6
:1006900080033EB400B000B1002003239800900016
:1006A00091008000249A00900091002000259C0079
:1006B0009000910008003BA800A000A10080003C31
:1006C000AA00A000A10020003DAC00A000A10008ED
:1006D000005B28012001210180005C2A012001210A
:1006E0000120005D2C0120012101080078DA9D59CC
:1006F0007B8FDBB811FF2A3C03417BC56E204B96F4
:100700006C6F913FF6956B9A6CB217679B0245210F
:100710006825DA2656AF13A57DDC21DFBD331CBE6C
:10072000243B39A001028BE47048CEE3378FFD6390
:1007300096B5EDEC6CF6BE146DCBBBD9C9EC7E1052
:1007400065913EF24E8AA696B0B4CBF333F6D75FEE
:100750002E2F7F66F1EBC5EB80DD8B7AE8452971A2
:10076000F6E31DBBD0C39F59F83A4C5E87C13C09E4
:10077000E6610CACF2A6AAB2BA00267FCCB2B26C8B
:10078000F2ACE769230AC9F266A8FB37AFF2D9D900
:100790000A4FEC7B382ACDF20706AB30EDAD2F9631
:1007A0001E41511882B691EA47D46F5E0DAC1DCA46
:1007B000321D5ADAB0761B7E1B78F76279C2051EAD
:1007C00090BAE3B24F7B913F481AF55D56CB4AF49D
:1007D000A93995891ADEAFCF870BE625CFBA54EE3B
:1007E00087BE689EEAD959884FABB76207377A2E21
:1007F000A3456C8E90AD48E97376B60C1C559D955B
:10080000CD2E15B5BDBDBAF6EC2C729CF4950D0538
:100810000D532787D8B15393BC1B331BC9205E5A95
:10082000E242EC449F956933F4930D8F5939701C63
:10083000177C9B0D659FDA892A7B4E8BA1CB7AB002
:100840000075CFB9E3C7419F7DD38E78E5A3C3C3BD
:10085000C412EF8BC562B90A0C7127537D36371F5E
:10086000C5C27EC5F62BB15F4BFBC5CBECC52A6D6F
:10087000769644F61011E6CC087DE1A64B21C3E242
:10088000E9A866D696A86A877518DB0B022B47E5A0
:100890009E51F3A615CFBC9C08B0C8FA2C95E27700
:1008A00090D97E00AFE853149C675892C394A8BDBA
:1008B0006BC7B165DA3E55479492BF80B1391E5A75
:1008C00025FB61AA249839D0D2C2DD189E3B658CE5
:1008D000FED58B479EEEC56EAF5E18AD7C7AB0D26A
:1008E0005DC90FE5C5EC5ADABFB49C64138D761A66
:1008F000CF38B6592FA595DCBD79F537808268BC15
:10090000F749F47B10439A4BABC4C8599BEC97EB67
:10091000D0AA27B7F623F3F2C17E8BC27EBED4796C
:100920003A36159657457A603D81770247E0B357CE
:100930008761AA8DBA109DF9244050C48E6A28257B
:10094000F79886EE61FD9E7755037EDA1E95A8BF67
:10095000EC849AB867F7553E649DB58DEE393D70CD
:1009600072D6DB49B4BC5E549C2CCC414ADFA13C1E
:100970009C58E1D105BF1FC09E1B80FCB519019793
:100980009DB265D2CFDC92753C03BCED0ADEE17905
:1009900000BE1D814168089E3AD1F3030A345A22F1
:1009A0009C9FCC78C5BB1DAFF3971451032E015308
:1009B0008420E9BEA9F80136CBAC6A7D07D0638BF1
:1009C000CC63EC86AB3BD4A2E75A197762B7E31D40
:1009D0003E42A27F2030C5EE701519E04E59CFADD2
:1009E00080C2C5C96C2B00ABC1A5539221CBBB9C67
:1009F0002CE664B6036F56F70421EB91A20177A0B1
:100A0000E1D0A216C00F4F661AF85209E7A560811F
:100A100016D7F19BE49C84133254812173EA484039
:100A200088084B555388ED4B0ABAB6BC3AAE5C8A7F
:100A3000E9F00437C055ED656BDA463A1CD3E35C48
:100A40005A720D1A0111AAED83F49110860AC7405B
:100A500046F88BEAE5926C7D11BA5DB2D9F64F5932
:100A6000C7FDEDE09FD6278BCC7C1EE394C4C44920
:100A7000DBD2F4F90B7C7EC1EB1E1ECF9AED160E75
:100A8000544E6DE322AC1B785662B4DA8C236F654A
:100A9000680BA7694A1EF683774C0C3A2393984457
:100AA000F491BDC16DD7133A654283C3AE64650945
:100AB000A641FFFFB4F1CAD9B8067D3782C46507E5
:100AC0001BF73C7FF05285686EEE30C914EC0DDAEE
:100AD0000660647ABE17A512C3601C4427C258AED4
:100AE000C66453592C97667D1266A77CE209DD0126
:100AF00023AB9D8338F59DA40E1D11C292D892445C
:100B000096A161700C99BFC3C313FC48EE34808872
:100B100000405178624F486A033F9673D9331A3FB9
:100B20001D98C766CB241BB0E456D7E00A9618C3BD
:100B30008F7554543021AEF18ABDF230F8158069BA
:100B4000F072958840A61DE84FB59FA06C7A1E6C88
:100B5000002AA4F1DF304918E1DED101917A81CA7F
:100B60005E2CCF512A039B12DA54F3677D0508B03F
:100B7000D6E34547183C2722238F3F498B402A6004
:100B80001B5E8682A9FCD659BCF3F0E59CE83C8C40
:100B9000F056A385591DA1204E691404FCE51E865C
:100BA000C196C46D39068195908D01BEAA91E25817
:100BB000EA72C034D1F7F8FE3B22B002CA8A7E1432
:100BC0005CE2F598EA786C895748A5F29F140318FF
:100BD000E0A2C06CD23ADE7CED0854D844EBA5C04C
:100BE000CA6C9CF5A22EEC00963A7B19895AC1BBBF
:100BF0008D3E04D0A011BD1B65882E7BC403C0248C
:100C0000568EAEF7B322DE369D0EC9E4BD6A6C8DFA
:100C1000843FB70254E227006BCB69F20A9F085069
:100C20008BC2C5313FF67C60F1CD645A58DF9E5FC0
:100C30005DA637E7FFC6FC0913C18BBB4D7AFBEEFF
:100C4000E306110B6AE8DB8BE8E4F62284FFF399F4
:100C5000B7D83FA9C5ABE0E4F60A172E3F7CBA7CB3
:100C60009FBEFD7CFD2BBA4BA0FE9DCC6E2EEF806F
:100C70002AEB2BBECBC2380980F0F6EB0D9D166235
:100C800045F1F9FAF2FADDBFAED3AFEF3E5E7DFA81
:100C90008A6A0B717273FD1926E916BC13598967AC
:100CA0005DC359D77816ACBE3BFF905E9CDF5D21DB
:100CB0001B3A6AF3E5FCCB26DDDCDD6C7E8595CD49
:100CC00035AE24DF306D1A209153A586AAE6757AD9
:100CD000809FEA0D01D0804DE3F8F63C989DFD27FA
:100CE0003859FD17AE7981DF2BFABEC46F0001358C
:100CF000B8C201245C6A708D03A885D5E02D0E165C
:100D00007AFF2F6AA019FC0307B166F04F1C2CF57F
:100D10009EF7EA18BDE7831AE09E6F2368803C5B6C
:100D20003522E65114C18D4F66998C83C5B2503976
:100D3000445FF2389887F7F060BD4B3F4FE90F9F53
:100D4000873149A00976902FA7A2D04A67CA38B642
:100D5000148AA9F83D2FD1C65F98C9250B02CCCBC8
:100D6000AC6675D33330768680C100E308D898B27C
:100D700059F6B417F04DB627590BDE032711229B05
:100D8000BD83E42AB67573B66D3A0666F0773316FE
:100D900012570B35AFA624B9186CFD4B8F01010A11
:100DA000A51D5C08AA8FAC47EA4C5F93CA424A8FE4
:100DB00035B1445234794AE26956C50EC51A6ECA35
:100DC0006B662A27BB1F8CEE923A3EACCD3A303987
:100DD000C6BBAEE9547E6C163A0E214CF6AAEFF370
:100DE0003683F716AC6F98420AACE3958353D3E78A
:100DF0001D0558661A23AE4F43718EF21C43A55B46
:100E00004D2A357773408657C92A0E41922A34B34A
:100E100058358FDCDC8661118F1EED966DC96F8BA6
:100E20007C42FC83759D59DAF323EF02204046662D
:100E300087359399C5DADCE046B81CCDEBDC26DFBC
:100E40008B566F5CCCC704A082A1756F9254F51BC2
:100E50008A5176E371C16AE0267B463B5D19815277
:100E6000257E037978B6E30C4A3488454661C0F2A2
:100E70004648B42609C96531945822C2660CDD4C37
:100E8000A3A2327CFEC8511318B5BFBF619F758500
:100E900032764D8D85E80D8A5F65330CBEBA6DD90B
:100EA0003C513AF411AC3C63F41C742F852A8BC975
:100EB00002D83D2D60B5EB2F88BAA5A4815A416AAE
:100EC000A9C69BBAE985424F6BFD6DD7EC409815DA
:100ED0005C3DC3B76D21EAC22D41D81C1D17DB6EE6
:100EE0009FB97E141A2B7A161C83A20635A025639F
:100EF0002DB4B10407D2614FA22C2118E5C06FD4E4
:100F0000B3A1F0EA765A09FD600746B00D7821E9F1
:100F1000505D002944355466CE3807DECAF4655466
:100F20008508CC94DF2A0CF27B991BEDC87DD3B0E9
:100F30006DA65E472FC382F88B6F52283220549DD6
:100F400028EA1F7D51F2C09D1087255705FE5D2DB3
:100F50008716633127A756488A6DD9AF599FEF8B03
:100F6000664752FC896A34D518861A66A81F8031F4
:100F70002202F51BBD79E916C032C9470032242090
:100F80001D7A3044792882A5D6AF6BED1060357597
:100F90000918F7080CB2FBD240977D3E95C94C2743
:100FA0001FD4EE9D94DB67EC13802704C07BCC1725
:100FB000B6D86E913F515AA27AD916477587BBA011
:100FC0001E8AC4A2B506842093C961199730C10353
:100FD000F0575DCB8FE797EFA9DD651A3E2A4F43A7
:100FE00069965987E104F3D223C908AA900C1EDB45
:100FF000671A81C99D3005836875D062C270051972
:1010000043345FC5B18A7E7A90A8F047832456F6B0
:1010100000832459C277F40D3895220751C3FE1975
:1010200036FB7FB9FDF018CD5421D1028870EAED6E
:101030009B5277D45051CE9F1EAB64D6916BD18F0B
:1010400076645E1DCBD40A25AAA7AA51AE0A1697CC
:1010500017AE6CBB13A299EEC5A8CC51B56C70CE7F
:10106000A859A5E30033A92D9060B7EAB6A9F2F814
:1010700047B7D63BF447EA4E3F0DD7AE4F26C11FC8
:101080006CDB6BB5766DA611E77D0325E5EEF00C04
:10109000BF8B05C299BBCE4D6AC4EC55CE6A4C627B
:1010A00059C7AE39E291DA2E0965FAAF9114BB3C0B
:1010B0004E206C9ACC6899845ECB44BFCA5442439C
:1010C0009EAB964D8EDA006E7096DF355CAD94C5A2
:1010D000834B42E204058E5F70488CB275CE273D8B
:1010E00097534C38FC3DA3AADF95C0BA7037693DD1
:1010F000958F3ECBFB418176419D0DC85DC0CF539E
:101100001355243DED141333E9F0D0B4628ECB2196
:101110003A56531E28C3EF1B785A39C5A0EE1771F3
:101120007FA6C5854A2EBB5E657BAB39A59AD29951
:101130009E1C2AFD237F230B5BB8B26C52B3516F08
:101140000B52D675300181B13E8FFAE640C84E4A47
:101150000EBD4AEEF00158C39167CEFDEACC197B73
:101160009ED952F1683BD67364AC56A877CAE86F33
:101170001383EFE5316090FE6B2460108F96F7418A
:10118000B03C2D44D7BF9C8641B808A2284883F9BB
:101190003C59AC4FB78FA7D9EF49BC3E8D92F5ECC7
:1011A000DBFF00A1B8AB53BB0A00000011241FBE37
:1011B000CFEFD1E2DEBFCDBF00E00CBF14BE0FB653
:1011C000F894A895809160008861809360001092E7
:1011D00060000FBE12E0A0E0B2E0ECE7F9E700E04B
:1011E0000BBF02C007900D92AA32B107D9F723E0D6
:1011F000AAE2B2E001C01D92A839B207E1F70E944D
:10120000B41F0C94BC3C0C940000CF93DF93CDB77B
:10121000DEB76A970FB6F894DEBF0FBECDBF0E944F
:10122000A11F6B017C019E012F5F3F4F1901AE0191
:10123000475F5F4F5F874E8780912602882309F4BE
:101240002DC60E94A11FC61AD70AE80AF90AF89407
:1012500080912602882351F08FEF809326027894A4
:101260000000F894809126028111F9CF78940E94B1
:10127000A11FA7019601260F371F481F591F2C8B4E
:101280003D8B4E8B5F8B81E08093260280914C02D8
:10129000882309F43EC010924C028FEF898369E4E1
:1012A00076E2C1010E94DF198C01892B91F1D801EE
:1012B00056968C9182FFF3CF0E94A11FF894F801FB
:1012C00037892689422F4B7F468B78949F938F9343
:1012D0007F936F931F923F9321701F922F93898169
:1012E0001F928F9323EF35E03F932F930E94D532C7
:1012F0006DB77EB7645F7F4F0FB6F8947EBF0FBEA9
:101300006DBF69E476E2C1010E94DF198C01892B6F
:1013100071F680914D028823F9F010924D028FEF03
:1013200089836BE576E2C1010E94DF19FC01892BFC
:1013300099F0958D868D9813F4CFF894858D968DC0
:10134000891709F4A8C678946BE576E2C1010E947A
:10135000DF19FC01892B69F7809149028823F9F094
:10136000109249028FEF89830FED15E066EB70E272
:10137000C1010E94DF19009791F0DC0158962C9171
:101380002F3FA1F7F894FC012685211151C57894CF
:1013900066EB70E2C1010E94DF19009771F780913E
:1013A0004A028823D9F110924A028FEF89830AED0D
:1013B00015E06FEE72E2C1010E94DF19009771F132
:1013C000DC011E962C911E9723FFF3CFF894FC01AD
:1013D0002685277F268778949C01265E3F4F3F9382
:1013E0002F9350968C918695869586951F928F9314
:1013F00089811F928F931F930F930E94D532EDB76F
:10140000FEB738960FB6F894FEBF0FBEEDBF6FEE75
:1014100072E2C1010E94DF19009791F68091560295
:10142000882309F446C0109256028FEF898300ED9D
:1014300015E06CE57EE2C1010E94DF19FC01892BF9
:10144000C1F1848D80FFF5CFF89494812581368198
:101450004781548965897689A789B08DF18CE28CA2
:10146000D38C848D8E7F848F7894DF92EF92FF925D
:10147000BF93AF937F936F935F934F933F932F935C
:101480009F9389811F928F931F930F930E94D53250
:101490002DB73EB7205F3F4F0FB6F8943EBF0FBE4B
:1014A0002DBF6CE57EE2C1010E94DF19FC01892B92
:1014B00041F680914B02882309F450C010924B02F0
:1014C0008FEF8B87AE01455F5F4F2A016FE974E2B2
:1014D000C2010E94DF195C01892B09F43FC0D501CC
:1014E00059968C91599780FFF1CFF894F50164805B
:1014F000758086809780818D8E7F818F78945896B5
:101500008C91813009F401C308F4E1C2823009F4FE
:10151000A1C28330D9F6CB8419821A82910142E0AC
:1015200061E0F501848995890E941B1509811A8162
:10153000102701271027F02FF670EF2E20E030E063
:10154000B401A301C5010E9417256FE974E2C2012D
:101550000E94DF195C01892B09F0C1CF80915802EC
:101560008823E9F0109258028FEF8B879E01255F48
:101570003F4F290119E0D12E02EFE02EFF24FA940B
:1015800006C0D8011E968C911E9780FDEAC267E1C5
:1015900075E3C2010E94DF198C01892B91F78091BC
:1015A0005902882309F462C0109259028FEF8B8789
:1015B000FE013B962F0177247A9466EE74E3C20114
:1015C0000E94DF198C01892B09F450C0D8011E96A6
:1015D0008C9182FFF2CFF894F80184809580A680E8
:1015E000B780D1881686118A789480859185A285E6
:1015F000B385881A990AAA0ABB0A7801F2E1EF0EAC
:10160000F11CD801DD2091F056968C91F801E80F7D
:10161000F11D778A108E118E8D5FF801868B8233D3
:1016200008F0AEC0DA94D801D110EECF1F968C919D
:10163000882309F4B0C1813009F4C6C3823009F4AB
:10164000D6C4D80156968C9190E0C2970CF4B5CFD1
:101650006B85C80142960E94D03866EE74E3C201E1
:101660000E94DF198C01892B09F0B0CF80915A02BA
:101670008823D1F010925A028FEF8D87FE013D969C
:101680006F0132E7932E44E7B42E06C0D70152967D
:101690008C91529780FDDCC26AE477E3C6010E9418
:1016A000DF197C01892B91F780915B028823E9F097
:1016B00010925B028FEF8D879E01235F3F4F690180
:1016C00017E0612E0FEA702E88EA882E06C0D80136
:1016D0001E968C911E9780FD19C36BE277E3C601BD
:1016E0000E94DF198C01892B91F7A89580917402D3
:1016F000882329F080E48093600010927402109196
:101700003503112309F473C000912A0200FD12C0B1
:10171000153008F46CC0B0907502CB2C8BEF8B0D9C
:101720008C3308F4E2C3EEE7CE1609F475C5016008
:1017300000932A02412F50E06EE770E085E792E0C7
:101740000E948D3C009739F00E7F00932A02855746
:10175000924011E0180F01FD0CC0902F9260909301
:101760002A028FE795E09F938F930E94D5320F90C6
:101770000F90B12EDD24DA9480E0EB2CF12C1EC00A
:101780006B85C7010E94D038DA944DCF90E0402F8E
:1017900050E0481B590BB701680F791F6B587D4FFC
:1017A0008B589D4F0E94A33C10922602802F9FB71A
:1017B000F89420913503121761F09FBF1091350303
:1017C000012F0B1919F79FB7F894209135031213C5
:1017D000F4CF009335039FBFF1E0DF1208C08FE71D
:1017E00095E09F938F930E94D5320F900F900E94A7
:1017F000A11F6B017C012C893D894E895F89621B89
:10180000730B840B950B8090330290903402A09060
:101810003502B09036023FEF831A930AA30AB30A47
:101820008092330290923402A0923502B092360236
:1018300040902F025090300260903102709032023E
:10184000460E571E681E791E40922F02509230029B
:1018500060923102709232026115710541E0840795
:10186000910508F020C39B01AC010E94EA3BDC011A
:10187000CB0181509F4FAF4FBF4F892F9A2FAB2F76
:10188000BB2740912B0250912C0260912D02709148
:101890002E02840F951FA61FB71F84179507A60752
:1018A000B70718F48FEF9FEFDC0180932B02909322
:1018B0002C02A0932D02B0932E024091520250911F
:1018C000530260915402709155025C546B437B4FFC
:1018D0002F2DC416D506E606270B27FDADCCBF93EA
:1018E000AF939F938F937F926F925F924F92BF922D
:1018F000AF929F928F928BE196E09F938F930E947D
:10190000D5326DB77EB7625F7F4F0FB6F8947EBF5A
:101910000FBE6DBF8091520290915302A09154026C
:10192000B0915502C816D906EA06FB0698F48091D4
:101930004E0290914F02A0915002B0915102019637
:10194000A11DB11D80934E0290934F02A0935002AF
:10195000B0935102C0925202D0925302E0925402CC
:10196000F092550210922B0210922C0210922D022E
:1019700010922E0210922F02109230021092310219
:1019800010923202109233021092340210923502F9
:101990001092360251CC82E389831A820E94A11FE1
:1019A0006B017C01910142E061E0F801848595853D
:1019B0000E941B150E94A11FDC01CB018C199D09FF
:1019C000AE09BF0981329340A105B10508F022C2DA
:1019D000998197FD5AC2C818D908EA08FB08D801AE
:1019E00050968C918823C1F02FEF280F41E050E0F2
:1019F00002C0440F551F2A95E2F7052E000C660B16
:101A0000770BC40ED51EE61EF71E04C0F694E794AD
:101A1000D794C7948A95D2F7BFEFCB16D104E104CF
:101A2000F10408F094C22A8130E0220F331F892F7D
:101A300090E0982F8827990F822B932BF801268905
:101A4000E20FF11DC78A808F918F2D5FD8015696C6
:101A50002C93F7CDCB8481E089831A821B821C8270
:101A6000910143E061E0848995890E941B15698199
:101A70007A818B819C810E941C3CBB27A92F982FC7
:101A8000872F9C01AD0144275527288B398B4A8B22
:101A90005B8B37E039831A82910142E061E0D50126
:101AA00054968D919C9155970E941B158A81982F71
:101AB0009C7F88898170E92EE82A088919892A89FA
:101AC0003B89B401A301C5010E941725FFCCCB843B
:101AD00019821A821B821C82910144E061E0F501A7
:101AE000848995890E941B1569817A818B819C81EB
:101AF0000E941C3CF62FF770EF2E8B019C01B40165
:101B0000A301C5010E941725E1CC2B85288B3CE061
:101B100039831A821B821C82910144E061E084892E
:101B200095890E941B1569817A818B819C810E9415
:101B30001C3C6B017C01BFE0B9831A82910142E039
:101B400061E0F501848995890E941B159701860142
:101B50003327C888EA80B401A301C5010E94172574
:101B6000B5CCCB84F1012D2D11922A95E9F7E982AC
:101B7000910149E061E01C968D919C911D970E9416
:101B80001B15D80153968C9190E0FC017496E00FE0
:101B9000F11F3B81232F207FE1F0203FD1F0F48221
:101BA000F382F282F182F801E80FF91FF48AF8015A
:101BB00083898B5F838B803308F003C2D8011E9624
:101BC0008C911E978E7F1E968C93C8010E94F638CA
:101BD000DECC2D81422F407F09F0B5C15F81452FBA
:101BE000407F11F0403FD9F648854039C1F649851C
:101BF0004F77B42EB0E2B41790F2D801A80FB91FF6
:101C00004A8154964C938C8181838E818283852F67
:101C100090E03F71AC01440F551F42955295507FA3
:101C20005427407F5427342B3383880F991F880F04
:101C3000991F80762F71822B8483D80153968C91C3
:101C400053978B5F53968C93803308F4C0C1BAC10D
:101C5000AD8450968D919C915197C09748F1B9826F
:101C6000D7011C96ED91FC911D978701085E1F4FCF
:101C700020E3A10161E080810E94361A80E3F70130
:101C8000878B80899189C097918B808B6A2DC70142
:101C900043960E94D038D70150968D919C915197D0
:101CA000C09760F11092260281E080935A02F4CC32
:101CB000D7011C96ED91FC911D979B86810122E036
:101CC000AE01455F5F4F61E080810E94361A8981D5
:101CD0008F7190E0982F88272A81822BF701268523
:101CE00037852817390710F497878687D7015196CB
:101CF0009C938E935097C0970CF0B1CFF7018289D7
:101D00008E7F828BC7010E944239C6CC4D84F1017F
:101D1000262D11922A95E9F77B861C868982539697
:101D2000AC905397B12C750134E1E30EF11CE00E39
:101D3000F11E910147E061E01C968D919C911D97E9
:101D40000E941B159E01255F3F4F42E061E0D801D4
:101D50001C968D919C911D970E941B158C85B82F08
:101D6000BF735B2E8074982EF801EA0DFB1D8A81EB
:101D7000848B8B81F70181838C8182838D81838326
:101D80008E8184838F818583D80153968C9153975C
:101D90008A5F53968C938F3208F0A4C1992031F05A
:101DA000F801818992890196928B818B552009F4E3
:101DB00093C1D8011E968C911E978E7F1E968C9390
:101DC000C8010E94F63889CC8FE789838EEF8A8319
:101DD0000E94A11F688B798B8A8B9B8B910142E0BB
:101DE00060E0F801848595850E941B150E94A11F63
:101DF0006B017C01DC01CB01288939894A895B8927
:101E0000821B930BA40BB50B81329340A105B10546
:101E100008F4AAC0D80156968C91F801E80FF11D7C
:101E2000778A92E0908F118E8D5FF801868B09CCB6
:101E3000318D308F7894AC01415F5F4F5F934F934A
:101E40001F922F93FC0187891F928F9389811F9284
:101E50008F931F930F930E94D5322DB73EB7265F05
:101E60003F4F0FB6F8943EBF0FBE2DBF7FCA2E85E1
:101E70003F85E217F30709F0FEC0809590E02A85C0
:101E800030E08217930709F433C1D80156968C913C
:101E9000F801E80FF11D778A93E0C4CFCC8ADD8A80
:101EA000EE8AFF8AF0C96115710550E18507910539
:101EB00008F0F8CC8B019C0101501F4F2F4F3F4F72
:101EC0005527432F322F212F0E94EA3BDC01CB0103
:101ED00040912B0250912C0260912D0270912E02A4
:101EE000840F951FA61FB71FD8CCD09076028D2DDA
:101EF000807F803109F017CC1B1508F478CC8B2D2E
:101F000090E0FC01EC58FD4F20812E3709F00BCCFE
:101F1000FC01EE58FD4F4F01FC01ED58FD4F908143
:101F2000D4018C91292F30E07901F82A6DEF6B0DE7
:101F300085E792E00E94B71FE816F90609F46EC122
:101F4000C0907502F0CB403F09F029CE47CEF80192
:101F50008689E80FF11D778A91E0908F118E8D5F51
:101F6000D80156968C936DCB80EC89831A829101AF
:101F700042E061E0D8011C968D919C911D970E94D2
:101F80001B1549812A81942F9227892F82958F7062
:101F90009827892F869586958927982F9695892742
:101FA00080FDBAC046FFC8C0F8018689E80FF11D60
:101FB000778A25E0208F118E8D5FD80156968C93FD
:101FC00040CBB12C6C2DC8010F960E94D038BEE1D9
:101FD000BB1508F02FC2F801818992890196928B76
:101FE000818B1092260281E080935802D0CAD801DA
:101FF0001C96ED91FC911D976480B281B88B238172
:10200000288F40E06B2F722F862D0E945A1B0E9452
:10201000A11F6B017C0130E1C30ED11CE11CF11C3E
:102020000E94A11F2F2DC616D706E806290B27FFF1
:10203000F7CFF89441E06889788D862D0E945A1B6D
:102040000E94A11F6B017C017894D101EAE01D92EE
:10205000EA95E9F7F4E8F98323E22A8391014AE05B
:1020600061E0D8011C968D919C911D970E941B15D3
:10207000FE01339685E09191892728E030E005C084
:10208000880F2150310909F4F2CE87FFF9CF880F6C
:10209000BDE18B27F6CF54896589908921893289E2
:1020A00043898F5F858F78946F935F934F933F93AE
:1020B0002F939F9389811F928F938EEE95E09F932C
:1020C0008F930E94D532EDB7FEB73A960FB6F894CB
:1020D000FEBF0FBEEDBF25C91092260281E080939E
:1020E0005B02FBCA642DC8010F960E94D03856CE01
:1020F000898584FF18C08B8187FD60C0D801569602
:102100008C91F801E80FF11D778AB4E0B08F118E41
:102110008D5FF801868B95CAF8018689E80FF11D5D
:10212000778A93E01ACFD80156968C91F801E80F80
:10213000F11D778AB5E0EACFC818D908EA08FB088C
:10214000F80130893323C9F08FEF830F61E070E02D
:1021500002C0660F771F8A95E2F7CB01092E000CAB
:10216000AA0BBB0BC80ED91EEA1EFB1E04C0F694B8
:10217000E794D794C7943A95D2F77FEFC716D10466
:10218000E104F10408F03FC0842F90E0AC01542F2B
:102190004427550F550FF4E02F9FC0011124842BC5
:1021A000952BD80156962C91F801E20FF11DC78AA4
:1021B000808F918F2D5FF801268B43CAC818D908EC
:1021C000EA08FB08F1E5CF16F5E5DF06E104F104C6
:1021D000D0F42C8130E0220F331F90E0982F882715
:1021E000990F822B932BD80156963C91F801E30F5F
:1021F000F11D2F8126952F73278B808F918F3D5F47
:10220000F801368B1ECAD80156968C91F801E80F5A
:10221000F11D778A91E006CE11E0ABCA802F8D7F49
:1022200080932A0280910902D81202C181E08D0DAB
:102230008F70806180930902B7E78B16B2E09B062E
:1022400009F008F4BEC0E7E7F2E0BA8ECDB6DEB61C
:102250008F010F5F1F4F2081222309F4E6C0EEE7B4
:10226000F5E08491281708F0E0C030E0220F331F1A
:10227000220F331F220F331FF901E950FD4FE49164
:102280004DB75EB764E0E69F4019510911240FB6BF
:10229000F8945EBF0FBE4DBF8DB79EB70196F90192
:1022A000E750FD4F4491F901E650FD4F659174915F
:1022B000FB01640F711DAC01D98AC88A998F888F80
:1022C000E617F70709F482C08016910608F46EC07D
:1022D000A491A53028F1A73009F068C02801BFEF0C
:1022E0004B1A5B0AD801AC9082010A0D111D8016B1
:1022F000910608F45BC0B12CC12CD12CDA01AD924F
:10230000BD92CD92DC921397612C712C14964D9254
:102310005D926D927C921797485F5F4F3196D0CF58
:102320007A0184E0E80EF11C68019FEFC91AD90A0E
:10233000D8011C91912F9F77492E512C612C712C23
:10234000012F00760036A9F117FF3EC086010F5F0E
:102350001F4FD80111978C91440C551C661C771C9B
:10236000440C551C661C771C440C551C661C771CC1
:10237000440C551C661C771C440C551C661C771CB1
:10238000440C551C661C771C440C551C661C771CA1
:10239000982F9F77492A87FDDACFDA014D925D9217
:1023A0006D927C921397A70131968ACF87E00E94A5
:1023B000793BB0EE4B2A55245A94652C762CC4CF29
:1023C000BA8CDD24D394D8C98601E7CFC888D988D0
:1023D000888D998D40912702442331F0F901E8500E
:1023E000FD4FE491E0FF11C024503D4FF9012591CC
:1023F0003491F90119950FB6F894DEBE0FBECDBE2B
:1024000008151905E8F6F80121CF809128021F92DE
:102410008F93EAE2F6E0FF93EF930E94D5320FB676
:10242000F894DEBE0FBECDBEEBCF85E00E94793BB7
:102430001B2D97C9F1E0FB1508F4D3CDBFCBCF938B
:10244000DF93EC016CE372E188810E944228FC0179
:102450008C819D81AE81BF81892B8A2B8B2B51F47E
:1024600020E0F89494A59D7F922B94A77894DF9117
:10247000CF91089522E0F5CF0F931F93CF93DF9371
:102480008C014DE250E06CE372E1FC0180810E941E
:102490001328EC01F801848518160CF041C064E0A3
:1024A0006CA7F80184810E944F1E6A8F7B8F8C8FEE
:1024B00060E0F80180850E944F1E6D8F7E8F8F8FA8
:1024C00080E090E0A0E0B0EC88A399A3AAA3BBA30E
:1024D000F80180899189A289B3898E8B9F8BA88FFF
:1024E000B98F6BE070E0CE0184960E94A4288E899B
:1024F0009F89A88DB98D8997A105B10548F086E41B
:1025000093E19B838A83DF91CF911F910F9108956F
:102510008CA580618CA7DF91CF911F910F910895B9
:1025200060E0BECFCF93DF93EC016CE372E1888172
:102530000E944228FC018C819D81AE81BF81F8946C
:102540004685578560897189452B462B472B79F441
:1025500084839583A683B783828B938BA48BB58B5F
:1025600084A5877F84A77894DF91CF91089586E131
:102570000E94793B0F931F93CF93DF938C016CE301
:1025800072E1DC018C910E944228EC010E94BE287D
:10259000FC01D80114964D915D916D917C91179736
:1025A000428353836483758318968D919C91199708
:1025B00091878087892B09F466C0D8011C968D917C
:1025C0009C911D97978386831286F8948CA5282F5B
:1025D000217081FB992790F9291729F091E089272B
:1025E0009285916092874E855F8568897989452BB0
:1025F000462B472B59F583FD19C08CA711821082F9
:102600008CA19DA1892BA9F1AEA1BFA1ED93FC9353
:10261000FFA3EEA3CE010E940132CE010E94393603
:102620007894DF91CF911F910F9108958091450289
:102630009091460291838083F0934602E093450295
:102640007894DF91CF911F910F9108958CA71182FB
:1026500010828CA19DA1892B89F0AEA1BFA1ED9321
:10266000FC93FFA3EEA37894DF91CF911F910F917C
:102670000895FFA3EEA3FDA3ECA3CCCFFFA3EEA38D
:10268000FDA3ECA3CDCF87E10E94793BCF92DF92EF
:10269000EF92FF920F931F93CF93DF93EC01EA8D9C
:1026A000FB8D8C8D80830E94A11F0E891F89288D30
:1026B000398D6B017C01C00ED11EE21EF31E8E858A
:1026C0009F85A889B9890197A109B1098E879F873C
:1026D000A88BB98B80FF0EC0CC82DD82EE82FF8298
:1026E00081E0DF91CF911F910F91FF90EF90DF90EC
:1026F000CF900895892B8A2B8B2B59F148855985CA
:102700006A857B858A899B89AC89BD89840F951FE1
:10271000A61FB71F8A8B9B8BAC8BBD8B0C851D8531
:10272000012E000C220B330B400F511F621F731F31
:10273000488759876A877B872B2F8C159D05AE05A7
:102740002F0927FDC9CF8C839D83AE83BF8381E092
:10275000C8CFCE010E940132811102C080E0C1CFFA
:102760004C815D816E817F81972F4C155D056E05D3
:102770009F0997FFB6CF4C195D096E097F09403854
:10278000514C6F4F7F4F0CF0A7CF88E10E94793BEF
:1027900046E050E06AEF73E1FC0180810C9413285D
:1027A000CF92DF92FF920F931F93CF93DF93EC01B1
:1027B0006AEF73E18C810E9442286C01F8840F2D2E
:1027C00010E0A8014D5F5F4F60ED73E188810E94CA
:1027D0001328FC01D182C082F2826C857D85A8011C
:1027E0000396DF91CF911F910F91FF90DF90CF90D3
:1027F0000C949A3CFF920F931F93CF93DF938C011D
:1028000046E050E06AEF73E1FC0180810E941328EA
:10281000EC01F801F08461E0F11060E0F8018481DE
:102820000E944F1E6A837B838C838D81F11009C0C7
:1028300091E0892B8D83DF91CF911F910F91FF90B4
:10284000089599E0892B8D83DF91CF911F910F918E
:10285000FF9008950F931F93CF93DF938C016BE547
:1028600076E2FC0180810E944228EC010E94E7355B
:10287000909100028A8D981303C08FEF809300021D
:10288000F80184819581A681B781888B998BAA8B69
:10289000BB8B8C839D83AE83BF8380859185A2850E
:1028A000B3858C879D87AE87BF8784858E8F91E0A7
:1028B000980F9D8F4089518962897389488759870C
:1028C0006A877B87248935893F8B2E8B208D318DBC
:1028D000398F288F948D9C8F811105C0DF91CF9106
:1028E0001F910F910895CE01DF91CF911F910F910C
:1028F0000C9439368BE10E94793B8F929F92AF9274
:10290000BF92FF920F931F93CF93DF93EC016AEF77
:1029100073E188810E9442288C01F88483E08F153E
:1029200008F484C0F8018581867009F07FC08C842A
:102930009D84AE84BF848C819D81AE81BF81892BB3
:102940008A2B8B2B09F074C0E6E4F6E0A591B491D4
:1029500011968C9180FD04C060E088E00E944F1EBB
:1029600060E089E00E944F1E60E08AE00E944F1EF6
:1029700060E08BE00E94211B80E58CBD1DBC8114B2
:10298000F2E19F06FAE7AF06B10408F041C08114F6
:1029900089E098068DE3A806B10418F5E0E88E16E4
:1029A000E4E89E06EEE1AE06B104C0F5F0E48F1651
:1029B000F2E49F06FFE0AF06B10468F580E28816F6
:1029C00081EA980687E0A806B10458F590E0E0E9AE
:1029D0008E16E0ED9E06E3E0AE06B10428F583E036
:1029E00002C090E080E0CF2DCC0FCC0FC065C82B8B
:1029F000F801C0839183858184608583DF91CF91C5
:102A00001F910F91FF90BF90AF909F908F9008956E
:102A100091E080E0E8CF90E081E0E5CF91E081E0D7
:102A2000E2CF91E082E0DFCF82E0DDCF0E947A1436
:102A30008EE20E94793B6F927F928F929F92AF922B
:102A4000BF92CF92DF92EF92FF920F931F93CF939B
:102A5000DF934C01E62E142F6901DC0115967C9062
:102A60001597872D867009F451C071FC39C0F401A7
:102A7000908181819CBD8DBDF72DF1706F2E70FC12
:102A8000C8C0EE2009F49CC08FEF810F112351F0D4
:102A9000F60190819EBD0DB407FEFDCF9EB59193CA
:102AA0008150B8F7662091F1072D06950695069599
:102AB000402F40954170D40112966D917D918C917B
:102AC000DF91CF911F910F91FF90EF90DF90CF900A
:102AD000BF90AF909F908F907F906F900C945A1BF7
:102AE000ED91FC91418542706681778180850E94DD
:102AF0005A1BB72DB1706B2E70FC17C0D401CD914D
:102B0000DC91AA24AA94A10E111126C0DF91CF91C5
:102B10001F910F91FF90EF90DF90CF90BF90AF90FB
:102B20009F908F907F906F900895072D0695069542
:102B30000695402F4170F4016281738184810E9467
:102B40005A1BD401CD91DC91AA24AA94A10E112381
:102B500009F4AECF66246394B12C8FEFA81AB80A9B
:102B6000AC0CBD1CD601FC9008E010E0898580FF0C
:102B700035C0EE81FF81888580834F2D40786B8141
:102B80007C818D810E945A1BFF0CEE81FF8188851C
:102B90008083110FE881F98190818A81892391E0F6
:102BA00009F490E0192B015009F7EE2011F0F6011D
:102BB0001083FFEFCF1ADF0AAC14BD0499F672CF71
:102BC000F6019601210F311D2E173F0709F46ACF38
:102BD00081918EBD0DB407FEFDCFF6CF4F2D40780D
:102BE0006B817C818D810E945A1BFF0CEE81FF81DD
:102BF00088858083110FE881F98190818A818923FA
:102C000091E009F490E0192BEE81FF8188858083A3
:102C1000CACF73FA442740F9F40162817381848139
:102C20000E945A1B662463942CCFCF93DF93EC0150
:102C30006AEF73E188810E944228288539854C819A
:102C400060E0DF91CF910C941B15FF920F931F93BF
:102C5000CF93DF93EC0118816AEF73E1812F0E941B
:102C600042280C81F884C9852F2D3C2F402F61E02C
:102C70000E941B15CF93FF921F920F931F921F93D9
:102C800089EE95E09F938F930E94D5328DB79EB7C2
:102C900008960FB6F8949EBF0FBE8DBFDF91CF91FF
:102CA0001F910F91FF900895AF92BF92DF92EF9224
:102CB000FF920F931F93CF93DF93FC01A485B585FB
:102CC000968547855089E18822893389F488A588CB
:102CD000B6887789008D118DD28C808586279C934C
:102CE00084FD20C085FD22C086FD24C087FD26C04E
:102CF0009C93862F8295807F808768279C9364FDB4
:102D00002AC065FD25C066FD1CC067FD1EC09C93E2
:102D1000DF91CF911F910F91FF90EF90DF90BF90C7
:102D2000AF900895EA01E88285FFDECFE901F882DD
:102D300086FFDCCFE501788387FFDACFE801D88210
:102D4000D7CFF501708367FFE2CFE801D882DFCFEC
:102D5000E901F882D8CFFA01E082D3CF5F926F9277
:102D60007F928F929F92AF92BF92CF92DF92EF921B
:102D7000FF920F931F93CF93DF938C01FC01C080D0
:102D8000D180E280F38084809580A680B78066241D
:102D90006A94660E662301F1EA01712CFFEF6F1A47
:102DA0007F0A640E751E59900E94A11FDC01CB01A1
:102DB0008C199D09AE09BF0988159905AA05BB059F
:102DC00098F3652DC8010E9454160E94A11F6B0143
:102DD0007C01C615D70539F7F801C082D182E2829D
:102DE000F382DF91CF911F910F91FF90EF90DF90D1
:102DF000CF90BF90AF909F908F907F906F905F909B
:102E00000895EF92FF920F931F93CF93DF938C015E
:102E100062EB7CE2FC0180810E9442287C018FE011
:102E200090E00E94B232EC0188E893E19E878D87A2
:102E3000F8018089880F8C8761E084810E94211BC2
:102E40006E837F83888761E0F80184810E944F1E32
:102E5000688379838A8361E0F80180850E94211B61
:102E600069877A878B8761E0F80180850E944F1E11
:102E70006B837C838D83F701D283C18383818160DF
:102E80008383DF91CF911F910F91FF90EF90089571
:102E90000F931F93CF93DF93EC0160E877E1888174
:102EA0000E9442288C01FC0161857285838541E086
:102EB0000E945A1B488559856C81C801DF91CF91CA
:102EC0001F910F910C94AE160F931F93CF93DF9326
:102ED000EC0160E877E188810E9442288C01FC01C6
:102EE00061857285838540E00E945A1B488559851B
:102EF0006C81C801DF91CF911F910F910C94AE1698
:102F0000CF92DF92EF92FF920F931F93CF93DF93B5
:102F1000EC014BE150E060E877E188810E941328E2
:102F20008C0160E08C810E944F1EF80161877287DE
:102F3000838760E088850E944F1EF801648775874B
:102F4000868760E08C850E944F1EF8016787708B32
:102F5000818B60E088890E944F1EF801628B738B21
:102F6000848B60E08C890E944F1EF801658B768B04
:102F7000878B60E0888D0E944F1EF801608F718FF3
:102F8000828FF8940E94A11F6B017C0160E0C80150
:102F90000E9454160E94A11F7894DC01CB018C1969
:102FA0009D09AE09BF09CC8CDD8CEE8CFF8C8C1595
:102FB0009D05AE05BF0548F4C81AD90AEA0AFB0AFE
:102FC000F801C482D582E682F782DF91CF911F910A
:102FD0000F91FF90EF90DF90CF900895DF92EF92E6
:102FE000FF920F931F93CF93DF93EC01D88883E078
:102FF0008D15B0F16AEF73E188810E9442287C014F
:103000008AE090E00E94B2328C0161E08C810E94E3
:10301000211BF80160837183828360E088850E94B0
:103020004F1EF80163837483858360E08C850E9462
:103030004F1EF801668377838087D186F7018581EB
:10304000982F967081F4F701118300838260858345
:10305000DF91CF911F910F91FF90EF90DF90089536
:103060008BE10E94793B0E947A14CF92DF92EF921B
:10307000FF92CF93DF93EC010E94A11F6B017C01B3
:103080009E01A0E8BEE30E94233C20E432E44FE02E
:1030900050E00E94FA3BC20ED31EE12CF12C0E949C
:1030A000A11F6C157D058E059F05C8F3DF91CF919B
:1030B000FF90EF90DF90CF9008950F931F93CF93E1
:1030C000DF93EC01062F18E01DC06B817C818D81A0
:1030D00040E00E94691B000F8D859E850E94351877
:1030E0006E817F81888541E00E940B1B8D859E85C6
:1030F0000E943518688179818A8140E00E94691BAD
:10310000115049F007FFE1CF69857A858B8541E051
:103110000E940B1BE0CF69857A858B8541E00E9478
:103120000B1B8D859E850E9435186E817F81888559
:1031300041E00E940B1BE985FA8510818B851823DD
:103140008D859E850E943518688179818A8140E04D
:103150000E94691B69857A858B8541E00E940B1B63
:10316000111105C0DF91CF911F910F91089585E254
:103170000E94793B4F925F926F927F928F929F92C3
:10318000AF92BF92CF92DF92EF92FF920F931F9375
:10319000CF93DF938C01562E3A01FC018080918001
:1031A000A280B380C480D580E680F780EA012196B2
:1031B000FA014080642D607F0E944F2F0E94A11F62
:1031C000DC01CB0188199909AA09BB098C159D0559
:1031D000AE05BF0598F3642D6295607FC8010E941B
:1031E0004F2F0E94A11F6B017C01F8018084918404
:1031F000A284B384F1E05F1639F15A945A94852D74
:1032000090E00296680E791E5990652D607FC80186
:103210000E944F2F0E94A11FDC01CB018C199D0938
:10322000AE09BF0988159905AA05BB0598F3652D58
:103230006295607FC8010E944F2F0E94A11F6B0101
:103240007C01C615D70501F7F801C082D182E28260
:10325000F382DF91CF911F910F91FF90EF90DF905C
:10326000CF90BF90AF909F908F907F906F905F9026
:103270004F9008950F931F93CF93DF938C0180910C
:103280003F0290914002892B09F04BC060913E02B1
:1032900070E0623071052CF482E080933E0262E0BF
:1032A00070E0E0913A02F0913B024DB75EB74150B9
:1032B0005F4F44275A959F01C0E0D0E0C901860FB7
:1032C000971F4817590730F121969C01C115A4E0BA
:1032D000DA07A1F78E1B9F0B0E94B232D0934002F7
:1032E000C0933F0290933D0280933C020E945A2873
:1032F000F80180819181A281B381809341029093F2
:103300004202A0934302B0934402DF91CF911F91F8
:103310000F910895209711F0C901DCCF80E10E9440
:10332000793B8DE00E94793BCF9320913802309118
:103330003902232B91F4FC01C0818C2F90E0880F7F
:10334000991F880F991F0E94B2329093390280937F
:103350003802C0933702CF9108958AE00E94793BEA
:1033600080913F02909140029F938F9321E0309192
:103370002702311101C020E01F922F9320914402B7
:103380002F93209143022F93209142022F9320915B
:1033900041022F9321E0892B09F420E01F922F9303
:1033A0008CE096E09F938F930E94D5328DB79EB7A5
:1033B0000C960FB6F8949EBF0FBE8DBF0895CF93A5
:1033C000DF93EC01988140913702A0913802B091CF
:1033D00039020BC0FD0184E0989FE00DF11D11241E
:1033E000208131812617370741F09F5F941790F3B2
:1033F00080E090E0DF91CF9108959883828193815E
:10340000DF91CF910895CF92DF92EF92FF926B01FF
:103410007C0109C00E94A11F292F6C157D058E0516
:103420002F0927FF09C08091BC0087FFF3CFFF90D1
:10343000EF90DF90CF90089580E30E94793B24EADB
:103440002093BC000E94031A8091B90090E0A0E094
:10345000B0E080319105A105B10521F00897A105E3
:10346000B10509F408958FE20E94793B7F928F9213
:103470009F92AF92BF92CF92DF92EF92FF920F9303
:103480001F93CF93DF93782EC62F942EB52E822EC6
:103490000E94A11F6B017C0120E8C20E28E3D21E0E
:1034A00021E0E21EF11CC701B6010E941F1A7092B2
:1034B000BB0084E88093BC00C701B6010E94031AD8
:1034C000AA24AA94AC0ECC23B1F0C92DDB2DB12CCB
:1034D0008FEFA81AB80AAC0EBD1E94E8992E8991F8
:1034E0008093BB009092BC00C701B6010E94031AF2
:1034F000AC16BD06A1F7C701B6010E941F1A872DA1
:1035000081608093BB0084E88093BC00C701B60152
:103510000E94031ADFEFD80D882009F15801CD2F42
:1035200084EC982ECC2369F09092BC00C701B601C0
:103530000E94031A8091BB00F50181935F01C15085
:1035400099F7F801ED0FF11DEF0184E88093BC00BD
:10355000C701B6010E94031A8091BB00888384E9E9
:103560008093BC00DF91CF911F910F91FF90EF905E
:10357000DF90CF90BF90AF909F908F907F900895F5
:10358000BF92CF92DF92EF92FF920F931F93CF9350
:10359000DF93D82FC62FB42E152F0E94A11F6B01C9
:1035A0007C0120E8C20E28E3D21E21E0E21EF11CBD
:1035B000C701B6010E941F1AD093BB0084E8809314
:1035C000BC00C701B6010E94031A0FEF0C0FCC23F9
:1035D000A9F0CB2DD12F10E00F5F1F4F0C0F1D1F37
:1035E00084E8B82E89918093BB00B092BC00C701DB
:1035F000B6010E94031AC017D107A1F784E980938E
:10360000BC00DF91CF911F910F91FF90EF90DF9061
:10361000CF90BF900895FB012FB7F89492811416B4
:1036200044F4982B809592839181892381832FBFC5
:1036300008958095982392839181892381832FBF58
:1036400008958036A0F567FD32C0E82FE695E6952F
:10365000E695F0E0EE0FFF1FEC5BF94FA591B491FA
:10366000109729F1877021E030E0A90102C0440FD2
:10367000551F8A95E2F7CA014FB7F89412963C910C
:103680001297662381F0382B282F209512963C93B1
:10369000129711963C911197232311962C93119711
:1036A0004FBFBD010895282F20953223EFCF8BE225
:1036B0000E94793BFB012FB7F8949281411105C01C
:1036C0008095892382832FBF0895892B82832FBF02
:1036D0000895FB012FB7F8949281411109C0382F4A
:1036E0003095932392839181892B81832FBF0895F5
:1036F000982B92839181892B81832FBF0895CF923C
:10370000DF92EF92CF93DF93EC0161E0888599859A
:10371000AA85BB85892B8A2B8B2B09F460E08C81D1
:103720000E944F1E6B01E82E44E250E06FE77BE100
:1037300088810E941328FC01C48AD58AE68A21E088
:10374000488559856A857B85452B462B472B09F48F
:1037500020E04C855D856E857F85452B462B472B6C
:10376000B1F430E0232BFC0123A3488959896A89ED
:103770007B89478B508F618F728F6AE070E04F9624
:10378000DF91CF91EF90DF90CF900C94A42830E19F
:10379000E9CFCF93DF93EC016FE77BE188810E9453
:1037A0004228F894FC01278D30A1232B69F44C8129
:1037B0005D816E817F81FC01438F548F658F768F91
:1037C0007894DF91CF91089584E10E94793B8F92A4
:1037D0009F92AF92BF92CF92DF92EF92FF921F9390
:1037E000CF93DF93EC01EF8CF8A0E114F10409F41E
:1037F000F0C0F7018081918198A38F8F8680978098
:10380000A084B18411E081149104A104B10409F4ED
:10381000A1C06C897D898E89412F0E945A1B80919D
:10382000450290914602F70191838083F09246020F
:10383000E092450281149104A104B104E9F08B8D5A
:103840009C8DAD8DBE8D88169906AA06BB06A0F488
:103850004F89588D698D7A8D411551056105710526
:1038600009F45BC08C819D81AE81BF81480F591FD7
:103870006A1F7B1F166022C08BA131E08114910466
:10388000A104B10409F068C084FB992790F921E0F4
:103890009227391709F443C04F89588D698D7A8D65
:1038A0004115510561057105D1F18C819D81AE8174
:1038B000BF81480F591F6A1F7B1F1460EF8DF8A14D
:1038C000309709F077C02BA1488B598B6A8B7B8B83
:1038D0002071212B2BA311FF5FC0880D991DAA1DFC
:1038E000BB1D12FD52C022E230E33B832A838C834E
:1038F0009D83AE83BF8388869986AA86BB868B8D7F
:103900009C8DAD8DBE8D88199909AA09BB098C873C
:103910009D87AE87BF8781E011C012608BA1EF8DBC
:10392000F8A13097D9F4188A198A1A8A1B8A8071EB
:10393000812B8BA3812F827011FD34C0DF91CF9139
:103940001F91FF90EF90DF90CF90BF90AF909F902E
:103950008F90089510E05DCF30E096CF4281538183
:1039600064817581488B598B6A8B7B8B8071912F19
:103970009460892B8BA311FF0FC08C819D81AE8138
:10398000BF81880D991DAA1DBB1D2B2F841795077C
:10399000A607270B27FDA7CF4C835D836E837F830C
:1039A00081E0CCCF40E050E0BA018C819D81AE81B6
:1039B000BF8193CFC280D380E480F580872F4C15E0
:1039C0005D056E058F0987FD07C08BA1B701A601B4
:1039D000C9CF85E10E94793B83E10E94793B8EE16A
:1039E0000E94793B0F931F93CF93DF93FC01A18932
:1039F000B2898D919C911197928B818B16968D91A6
:103A00009C911797C085D185228521113FC02FB782
:103A1000F894AC015527598348832FBF2091450264
:103A20003091460211963C932E93B0934602A09398
:103A30004502A189B289109759F5278530898217E7
:103A4000930741F083859485A585B6850097A105E8
:103A5000B10531F480E0DF91CF911F910F9108956E
:103A60004481558166817781840F951FA61FB71FFA
:103A700084839583A683B7838FEE9CE193838283AF
:103A800081E0DF91CF911F910F9108958883C6CF78
:103A900012964D915D916D917C9115972785308996
:103AA0008217930741F083859485A585B685009795
:103AB000A105B10551F4448355836683778381E082
:103AC000DF91CF911F910F91089504811581268177
:103AD0003781800F911FA21FB31F2B2F84179507CB
:103AE000A607270B27FFE7CF8DE10E94793BEF92D6
:103AF000FF920F931F93CF93DF937C0161EF7DE1E2
:103B0000DC018C910E9442288C010E94BE28EC01AD
:103B1000F70184819581A681B7818A839B83AC83D9
:103B2000BD83808591859F838E83F8941982188246
:103B3000D80151968D919C915297892BB9F153964A
:103B4000ED91FC915497D183C0835496DC93CE932E
:103B5000539780E090E07894892B39F4DF91CF91EE
:103B60001F910F91FF90EF900895C8010E94E735D3
:103B7000D80112968D919C9113978F5E9C41F1F024
:103B80008A819B81AC81BD8122EF3CE1F8013383C6
:103B9000228384839583A683B783C801DF91CF9165
:103BA0001F910F91FF90EF900C943936F801D48B50
:103BB000C38BD28BC18B81E090E0CDCF8A819B817A
:103BC000AC81BD81F8014481558166817781272FC1
:103BD000481759076A072B0B27FFD6CF8DE10E94A4
:103BE000793BCF92DF92EF92CF93DF93EC01488540
:103BF00059856A857B852C858C810E94D2286B0132
:103C0000E82E45E150E061EF7DE188810E941328B4
:103C1000FC01C086D186E28688899989908B878746
:103C20008C899D89AE89BF8983879487A587B6874C
:103C300082EF9CE19383828368E070E0CF0141963C
:103C4000DF91CF91EF90DF90CF900C94A428B099A2
:103C50000FC080914702909148020196109206028F
:103C600010920502909308028093070281E0089564
:103C700081E086BB80914702909148020196909323
:103C800048028093470220E030E8309306022093F8
:103C90000502909308028093070281E00895803620
:103CA00078F5E82FE695E695E695F0E0EE0FFF1F34
:103CB000EC5BF94FA591B491109711F1877021E059
:103CC00030E0A90102C0440F551F8A95E2F7CA01EE
:103CD0003FB7F89412962C91129761110FC040953E
:103CE000242312962C93129711962C911197282B1E
:103CF00011962C9311973FBFBD010895242BF1CF4E
:103D00008CE20E94793B1F920F920FB60F92112402
:103D10000BB60F92EF92FF920F931F932F933F9347
:103D20004F935F936F937F938F939F93AF93BF93C3
:103D3000CF93DF93EF93FF930DC07A0180918400BE
:103D4000909185008E199F0997FD7CC07894B29957
:103D50009AC0F894C0912202D0912302EA81FB819B
:103D6000309709F0ADC0EA8DFB8D2C8D20838E85B8
:103D70009F85019709F4C1C09F878E8788859985A3
:103D8000AA85BB854C815D816E817F81480F591F5B
:103D90006A1F7B1F4C835D836E837F8320832CA5EA
:103DA00025FF0EC00C851D85012E000C220B330B48
:103DB000800F911FA21FB31F88879987AA87BB878F
:103DC000E881F9810481158126813781872F401789
:103DD00051076207830B87FDB0CF7801F093230270
:103DE000E0932202A0912402B091250214960D9135
:103DF0001D912D913C911797872F4017510762070E
:103E0000830B87FFFD01DF010190F081E02D04812C
:103E1000158126813781872F401751076207830B51
:103E200087FFF1CFF983E883CD93DC93D09325020C
:103E3000C093240280918400909185008E199F097F
:103E400097FF84CF863A9F4F0CF06AC0F0928900AA
:103E5000E0928800FF91EF91DF91CF91BF91AF91F8
:103E60009F918F917F916F915F914F913F912F9192
:103E70001F910F91FF90EF900F900BBE0F900FBE10
:103E80000F901F901895F894809184009091850070
:103E90009701281B390B2038314CDCF12091260288
:103EA00027FF43C09C01205C304E30938B00209351
:103EB0008A0024E026BB90938900809388003ECF3F
:103EC000CE0119954C815D816E817F81811178CF02
:103ED000E881F981E480F580F0932302E0932202E7
:103EE0008091240290912502C817D90709F026CFA6
:103EF000F0932502E093240221CFCE010E940132EB
:103F0000EA8DFB8D9C8D90834C815D816E817F81DC
:103F1000DDCF209127022111C1CF8AE20E94793B97
:103F20007894B299B0CFF89409CF9C012854344FBB
:103F300030938B0020938A0024E026BB7C01F3940D
:103F400085CF2FB7F894609184007091850080919F
:103F5000470290914802B09902C02FBF08952FBF29
:103F60007F3FE1F30196089578940E9492392FEFF4
:103F7000260F6623C1F0FC018FEF9FEF319183275D
:103F8000082E8295807F8025092E982F82958F702C
:103F90000826869598278927880F880F880F8025FF
:103FA000215060F708958FEF9FEF08956F927F92F1
:103FB0008F929F92AF92BF92CF92DF92EF92FF9239
:103FC0000F931F93FC0183818F9382818F93848150
:103FD00035014601680E711C811C911CD401C3017E
:103FE000BF93AF939F936F9281818F9380818F93C3
:103FF0001F930F93FF92EF925F934F933F932F93F3
:104000001F926F9381EC95E09F938F930E94D5321E
:104010008DB79EB744960FB6F8949EBF0FBE8DBF66
:104020001F910F91FF90EF90DF90CF90BF90AF90D6
:104030009F908F907F906F900895CF93DF93EC01C6
:104040006A8D662309F453C0FC0150E031E020E0A2
:10405000A38DB48D4C91958D942309F0532B2F5F34
:10406000330F33962613F4CF2C85922F952729F002
:104070008D85852780959823D9F4888D5D8787FD68
:1040800003C0815070F1888F4C815D816E817F818A
:1040900088859985AA85BB85840F951FA61FB71FA4
:1040A0008C839D83AE83BF8381E0DF91CF910895A0
:1040B000982F909529238523822B8C879E85983075
:1040C000E0F621E0290F2E87FE01E90FF11D878719
:1040D0001092260281E0809349028FEF888F5D87DE
:1040E000D3CF1092260291E090934902CCCF50E0BA
:1040F000BBCF0F931F93CF93DF938C0166EB70E2DE
:10410000FC0180810E944228EC010E94E735F80101
:1041100084819581A681B7818C839D83AE83BF8383
:104120004085518562857385488759876A877B8773
:1041300080898D878C871E861F8A8EEF888F848565
:10414000898F87FD10C0452B462B472B29F4DF9123
:10415000CF911F910F910895CE01DF91CF911F91C3
:104160000F910C9439368FE10E94793BCF93FC017B
:10417000C481C930B8F44C2F50E09A01220F331F8C
:10418000420F531F455E5F4F66EB70E2FC0180817A
:104190000E941328FC01C28F2DE130E23383228379
:1041A000CF91089581E20E94793B0F931F93CF93A3
:1041B000DF938C0166EB70E2DC018C910E94422857
:1041C000FC01D80114969C91828D9817B8F4292F80
:1041D00030E0E901CC0FDD1F2C0F3D1FEF01C20FB6
:1041E000D31FF801648580850E94211B6B8F7C8F13
:1041F0008D8FDF91CF911F910F91089580E20E94E2
:10420000793BFC01448155816681778120858081DD
:104210000C94D228CF92DF92EF92FF92CF93DF934C
:10422000FC01A085B18582858C93968581E08927E4
:104230008687C82FC170C688D788E08CF18C978597
:104240009F5FD1899D1708F05FC0892F869586955D
:104250008695DF01A80FB11D5A962C9130E0892F69
:10426000877002C0359527958A95E2F72170B701CE
:10427000A601C217A9F033C0892F86958695869529
:10428000DF01A80FB11D5A962C9130E0892F87705D
:1042900002C0359527958A95E2F72170C2131FC099
:1042A0004C0D5D1D6E1D7F1D9F5F9D1728F38FEFC9
:1042B00093E29383828384819581A681B781480F9D
:1042C000591F6A1F7B1F448355836683778381E070
:1042D000DF91CF91FF90EF90DF90CF900895978777
:1042E00084819581A681B781480F591F6A1F7B1F62
:1042F000448355836683778381E0DF91CF91FF907C
:10430000EF90DF90CF900895B701A601D0CF6F92C4
:104310007F928F92CF92DF92EF92FF92CF93DF93B3
:10432000EC0160E08C810E944F1E3B01882EC88406
:10433000D984EA84FB84D7FC24C0A601415F5F4F87
:1043400067E871E288810E941328FC016082718213
:104350008282D686C5868C859D8594838383888951
:104360009989AA89BB8981879287A387B487DF91BE
:10437000CF91FF90EF90DF90CF908F907F906F90D4
:10438000089584E20E94793BCF92DF92EF92FF92F0
:104390000F931F93CF93DF93EC01E885F9858A850E
:1043A00080830E94A11F3E8521E023272E872F8531
:1043B0002F5F2F87213009F45CC02530E0F40C8199
:1043C0001D812E813F814A895B896C897D89DB0152
:1043D000CA01800F911FA21FB31F8C839D83AE83E0
:1043E000BF8381E0DF91CF911F910F91FF90EF90FC
:1043F000DF90CF900895CC80DD80EE80FF80AB0110
:10440000BC014C195D096E097F098E899F89A88DB1
:10441000B98D481B590B6A0B7B0BDB01CA01029655
:10442000A11DB11DB7FD34C0B595A795979587958A
:10443000B595A795979587950A891B892C893D89FC
:10444000800F911FA21FB31F8E8B9F8BA88FB98FD8
:104450002AE031E23B832A834C0D5D1D6E1D7F1DDA
:10446000840F951FA61FB71F8C839D83AE83BF83C8
:10447000B8CF0C811D812E813F81AB01BC01401B57
:10448000510B620B730B4E8B5F8B688F798F9BCFB9
:10449000DB01CA010596A11DB11DC6CFEF92FF92A7
:1044A0000F931F93CF93DF937C016FEE72E2FC01B9
:1044B00080810E944228EC011E8511FF07C0DF9118
:1044C000CF911F910F91FF90EF900895F701048114
:1044D00060857185F4840B3008F045C0FAE0FF1563
:1044E00008F441C0402F50E04A960E949A3C1F8633
:1044F000117312601E87802F880F880F880F898B99
:10450000FF0CFF0CFF0CF88A002349F08A8D8F7393
:104510008A3229F484EC91E29B838A830CC08A89D5
:104520009B89AC89BD898E8B9F8BA88FB98F8AE0C0
:1045300091E29B838A83F8940E94A11FDC01CB0146
:104540008058934FAF4FBF4F8C839D83AE83BF8303
:10455000CE010E9439367894DF91CF911F910F914F
:10456000FF90EF90089582E20E94793B0F931F9392
:10457000CF93DF938C0166EB70E2DC018C910E949B
:104580004228EC01D8011496EC918F898E0F8F8B05
:10459000F8948E85E817D0F48E1BF0E03F96EC0F70
:1045A000FD1FDE011F962FEF280F30E0205F3F4FE9
:1045B0002C0F3D1F91919D93A217B307D9F78E87BA
:1045C0007894DF91CF911F910F9108951E868EEF01
:1045D000888F7894DF91CF911F910F9108957F92EA
:1045E0008F929F92AF92BF92CF92DF92EF92FF9203
:1045F0000F931F93CF93DF93EC0144E250E06FEEF3
:1046000072E288810E9413288C0178848C809D80BE
:10461000AE80BF80CC84DD84EE84FF8461E07110C5
:1046200001C060E0882D0E94211BF8016387748718
:10463000858761E08C2D0E944F1EF801608771878D
:10464000828788899989AA89BB89828B938BA48B5D
:10465000B58B711018C091E08C149D04AE04BF049A
:10466000C1F080E0892BF8018687DF91CF911F91FF
:104670000F91FF90EF90DF90CF90BF90AF909F9001
:104680008F907F90089591E18C149D04AE04BF0437
:1046900041F780E2E7CFCF93DF93EC018E8585FD74
:1046A0000DC0688579858A8541E00E945A1B8E85F8
:1046B000807381608E87DF91CF91089568857985B9
:1046C0008A8541E00E94691B8E85807381608E8798
:1046D000DF91CF910895CF93DF93FC01A385B4853B
:1046E0005C918785982F977021E030E001C0220F00
:1046F0009A95EAF7982F969596959695DF01A90FCA
:10470000B11D5A969C915A9745854523E1F0292B76
:104710005A962C938F5F90898917E8F48787448194
:1047200055816681778186899789A08DB18D840FA7
:10473000951FA61FB71F84839583A683B78381E047
:10474000DF91CF910895209529235A962C938F5F5E
:104750009089891718F3EF01CF010E944B238E85B2
:1047600088608E871092260281E080934A0280E062
:10477000DF91CF910895CF93DF93FC01A385B4859A
:104780009C9185858923E9F0868584608687878565
:1047900091E0980F9787803408F5448155816681B0
:1047A000778186899789A08DB18D840F951FA61F6B
:1047B000B71F84839583A683B78381E0DF91CF9170
:1047C0000895868582FFE3CF17868BE693E2938375
:1047D0008283CF01DF91CF910C946B23EF01108A7C
:1047E000CF010E944B238E8588608E87109226020F
:1047F00081E080934A0280E0DF91CF9108951F937A
:10480000CF93DF93EC011889112369F14E8545FDA3
:1048100023C01F868BEB93E29B838A838E899F89BB
:10482000A88DB98D880F991FAA1FBB1F880F991FCC
:10483000AA1FBB1F4C815D816E817F81840F951FF4
:10484000A61FB71F8C839D83AE83BF8311E0812F8A
:10485000DF91CF911F91089540716B857C858D8587
:104860000E940B1BD6CF0E944B238E8588608E87BB
:104870001092260281E080934A02812FDF91CF912E
:104880001F910895FC011092260281E080934B0253
:10489000818D8160818F448155816681778180859A
:1048A0009185A285B385840F951FA61FB71F8483AA
:1048B0009583A683B78381E008950F931F93CF93C9
:1048C000DF938C016FE974E2FC0180810E94422831
:1048D000EC010E94E735F80184819581A681B781BA
:1048E0008C839D83AE83BF8380859185A285B385AC
:1048F00088879987AA87BB87892B8A2B8B2B29F4DA
:10490000DF91CF911F910F91089584859585A6859C
:10491000B7858C879D87AE87BF8780899189A2895B
:10492000B389888B998BAA8BBB8B84898E8B1F8ACA
:10493000CE01DF91CF911F910F910C943936FF92E8
:104940000F931F93CF93DF93EC01F88483E08F15CF
:10495000E0F04AE150E06FE974E288810E94132898
:104960008C0182E494E2F801938382836AEF73E11D
:104970008C810E944228F801958B848BF08EDF9108
:10498000CF911F910F91FF90089587E20E94793B8C
:10499000CF93DF93EC016B817C818D8140E00E949D
:1049A000691B8D859E850E9435186E817F81888563
:1049B00041E00E940B1B8D859E850E9435186985FC
:1049C0007A858B8541E0DF91CF910C940B1B1F936F
:1049D000CF93DF93EC01162F8D859E850E943518AD
:1049E00069857A858B8541E00E940B1B6E817F81F2
:1049F000888541E00E940B1B8D859E850E9435189D
:104A00006B817C818D8140E00E94691B8D859E8534
:104A10000E943518688179818A8140E00E94691B73
:104A2000612FCE01DF91CF911F910C945D188F9271
:104A30009F92AF92BF92CF92EF920F931F93CF931B
:104A4000DF93EC01480159011F92EF92BF92AF92A0
:104A50009F920F937F936F935F934F931F92CF9289
:104A60008BEC95E09F938F930E94D5328DB79EB7C4
:104A70000E960FB6F8949EBF0FBE8DBFE11009C011
:104A80008C859D85AE85BF8588169906AA06BB06CE
:104A900088F48F898F5F8F8B9E898917B0F4DF919F
:104AA000CF911F910F91EF90CF90BF90AF909F90BB
:104AB0008F90089588899989AA89BB898815990555
:104AC000AA05BB0530F31F8AEACF80912702811126
:104AD000FACF86E20E94793B9F92AF92BF92CF922B
:104AE000DF92EF92FF920F931F93CF93DF93EC012E
:104AF000C62E942ED52EB22E78016C85862F81601D
:104B0000A82EC11085C06A2DCE010E94E7248FEF28
:104B10008B0DBB2009F46EC06701C80ED11C6985DE
:104B20007A858B8541E00E940B1B08E010E08D85A3
:104B30009E850E9435186E817F81888541E00E94A4
:104B40000B1B8D859E850E943518110FE985FA850E
:104B500090818B85892391E009F490E0192B68817D
:104B600079818A8140E00E94691B015001F76985C3
:104B70007A858B8541E00E940B1BCE14DF04F1F097
:104B80006B817C818D8140E00E94691B8D859E85B3
:104B90000E9435186E817F81888541E00E940B1B41
:104BA0008D859E850E943518688179818A8140E0D3
:104BB0000E94691BF70111937F01B1CF69857A8546
:104BC0008B8541E00E940B1B8D859E850E943518C8
:104BD0006E817F81888541E00E940B1B8D859E85BB
:104BE0000E943518688179818A8140E00E94691BA2
:104BF000F6011083CE01DF91CF911F910F91FF90AD
:104C0000EF90DF90CF90BF90AF909F900C94C8240E
:104C1000CE010E94E724092D1D2DCA94D12CEFEF5F
:104C2000CE1ADE0AC00ED11EF80161918F01CE01AD
:104C30000E945D18C016D106B9F765CFDF92EF92DA
:104C4000FF920F931F93CF93DF937C01C62FD42E37
:104C5000152FFC0164850E94E7240FEF0C0FCC2375
:104C600071F0CD2DD12F10E00F5F1F4F0C0F1D1FC6
:104C70006991C7010E945D18C017D107C9F7C70124
:104C8000DF91CF911F910F91FF90EF90DF900C94E7
:104C9000C82449E150E069E476E2FC0180810E9489
:104CA000132821EA39E2FC01338322832CEB39E219
:104CB000338722870895CF93DC0114969C91149733
:104CC00020E030E0C22FF901EC5CF94FE4919E172F
:104CD00041F02F5F3F4F20313105A1F78DE20E9457
:104CE000793B87E980937A002830E8F420917E00B0
:104CF00081E090E00C2E01C0880F0A94EAF7822B25
:104D000080937E004FE150E06BE576E28C910E944B
:104D10001328FC0181EA96E293838283C28F81E0AB
:104D2000858FCF91089520917D003C2F377081E0D1
:104D300090E001C0880F3A95EAF7822B80937D00BE
:104D4000E1CFFC0180917A0086FF0EC084819581BD
:104D5000A681B7818853984FAF4FBF4F8483958307
:104D6000A683B78381E00895828D90910002981701
:104D700081F09F3F59F780930002982F987090938D
:104D80007B008770806480937C0087ED80937A003D
:104D9000DDCF8FEF80930002209178003091790071
:104DA000858D968D891780F544895589240F351F87
:104DB0008F5F358B248B858F891760F18689978962
:104DC00028173907C8F1808D918D82179307A0F1BC
:104DD000138E1092260281E080934D024089518902
:104DE0006289738980859185A285B385840F951F1B
:104DF000A61FB71F808B918BA28BB38B8483958367
:104E0000A683B78381E0089581E0358B248B858F5D
:104E10008917A0F6448155816681778184859585BF
:104E2000A685B785840F951FA61FB71F848395831A
:104E3000A683B78381E00895838D8F5F838F948DE0
:104E4000891738F2809127028111C2CF8AE10E942E
:104E5000793BEF92FF920F931F93CF93DF938C01D7
:104E600069E476E2FC0180810E944228EC01F8941A
:104E70008E8980FF13C07E01F8E0EF0EF11CC701A0
:104E80000E94E735F80184819581A681B7818C87DE
:104E90009D87AE87BF87C7010E9439367894DF911E
:104EA000CF911F910F91FF90EF9008951F93CF9393
:104EB000DF93EC01162FAC89BD891097B9F01296DB
:104EC000ED91FC9113978D919C9111979D8B8C8BFB
:104ED00011961C921E9213961C921E921297612F8D
:104EE000CD011995AC89BD89109749F7109226021A
:104EF00081E080934C02DF91CF911F910895EF9252
:104F0000FF921F93CF93DF937C01FC01108169E432
:104F100076E2812F0E944228EC01F8948E8980FF6E
:104F200009C0F70164816F8B8A7F84608E8BCE010C
:104F30000E945627CE010E94E735CE0108960E94B6
:104F4000E7351E8A8F8978941F921F921F921F92B5
:104F50001F928F931F921F921F921F9383EF95E0D2
:104F60009F938F930E94D5328DB79EB70C960FB644
:104F7000F8949EBF0FBE8DBFDF91CF911F91FF9020
:104F8000EF900895CF93DF93EC010E94E735CE01B7
:104F900008960E94E735EC89FD89309751F09081A1
:104FA00081811382128211821082E92FF82F3097AB
:104FB000B1F71D8A1C8A188E1F8A1E8ADF91CF9135
:104FC00008950F931F93CF93DF938C0169E476E2EA
:104FD000FC0180810E944228EC01F8940E94C227C3
:104FE00081E08E8BF80184819581A681B7818C83C5
:104FF0009D83AE83BF8380859185A285B385888B91
:10500000998BAA8BBB8B892B8A2B8B2B19F0CE010A
:105010000E943936F8018485888F7894DF91CF918A
:105020001F910F910895CF93DF93909137028917C5
:1050300030F5C82FD0E0CC0FDD1FCC0FDD1FE09185
:105040003802F0913902EC0FFD1F80819181892B8C
:10505000B1F480913F0290914002892B81F47183D9
:105060006083CA010E94B232209138023091390225
:10507000C20FD31F9B838A83DF91CF9108958BE06A
:105080000E94793B90913702891788F4E0913802A9
:10509000F091390294E0899FE00DF11D1124808187
:1050A00091818617970719F48281938108958CE086
:1050B0000E94793BCF92DF92EF92FF92CF93DF93E2
:1050C000C0913F02D09140022097B9F121976E0123
:1050D000E12CF12CA0913E02B0E02097D9F020E025
:1050E00030E040E050E0BA0180913C0290913D02F6
:1050F000FC01E20FF31F4F5F5F4F6F4F7F4F2A0F8F
:105100003B1F820F931F918380834C155D056E05B5
:105110007F0550F380913C0290913D02CA9FF001BF
:10512000CB9FF00DDA9FF00D1124E80FF91F1182CB
:1051300010829093460280934502DF91CF91FF90B9
:10514000EF90DF90CF900895FC01138212821182BC
:1051500010826F3F710509F07CF480913F029091BD
:105160004002892B49F480913E0290E08617970710
:1051700014F460933E0208950E940D312FB7F89405
:105180008091450290914602009749F0FC014081D0
:10519000518150934602409345022FBF08958FE0FE
:1051A0000E94793BCF92DF92EF92FF921F93CF93B1
:1051B000DF936A017B016CE576E0FB01949198171F
:1051C00049F0675F7F4FF6E06C3E7F07B1F784E3FD
:1051D0000E94793BFB013896949191FF1AC030EA06
:1051E000C3163FE5D306E104F10408F483C0C0E828
:1051F000CC16CEE7DC06C1E0EC06F10408F090C066
:10520000D0E4CD16DFEBDD06E104F104C8F414E0D0
:1052100022C0F8EBCF16F7E4DF06E104F10490F0CA
:10522000A0ECCA16AEE3DA06A1E0EA06F10408F43F
:1052300075C0C114BBEFDB06B4E0EB06F10438F334
:1052400015E009C037EFC31638E0D306E104F104D6
:1052500008F05FC011E0FB013396A591B491FB010A
:105260003596C591D491FB0137963491E82FE69598
:10527000E695E695F0E0EE0FFF1FEC5BF94F4591E8
:1052800054918770E1E0F0E07F0101C0EE0C8A9557
:10529000EAF7FB013196C590D490892F8170A03830
:1052A000B10509F44BC0EFB7F8949881977011F0ED
:1052B000191341C0188381112EC09FB7F894622F33
:1052C00070E0E601798368839FBF9C913160392B40
:1052D0003C93DA0111969C911197E92A1196EC9270
:1052E000EFBFB601DF91CF911F91FF90EF90DF905C
:1052F000CF900895A8EDCA16A7E2DA06E104F104FA
:1053000068F4B7EFCB16B8E0DB06E104F10408F46B
:10531000A1CF12E0A0CFE6012883D7CF13E09BCF27
:10532000C114EBEFDE06E4E0EE06F10410F416E043
:1053300092CF17E090CF82E30E94793B83E30E94F3
:10534000793BFC0186898460868B1092260281E07D
:1053500080934C024481558166817781808991894F
:10536000A289B389840F951FA61FB71F84839583D5
:10537000A683B78381E00895FC013897968990FF52
:1053800008C0608D678B9A7F9460968BCF010E94D6
:10539000562780E00895FC01A085B1859C91828507
:1053A0008923D1F0818D80958170C9F4838D8150DE
:1053B00031F1838F4481558166817781878590891A
:1053C000A189B289840F951FA61FB71F8483958377
:1053D000A683B78381E00895818D817039F386E1DA
:1053E0009AE29383828383899489A589B689848389
:1053F0009583A683B783828D838F81E00895A789E3
:10540000B08D56969C915697892F817090FFE3CF6F
:10541000648D57966C9357979A7F946056969C9399
:105420005697CD010E94562780E008950F931F9351
:10543000FC01A085B1859C9104811581268137816D
:105440004385548565857685400F511F621F731F04
:105450008285892361F0818D8095817059F0448324
:1054600055836683778381E01F910F910895818D25
:105470008170A9F7438B548B658B768B8BEC99E20B
:1054800093838283CF011F910F910C94CB29CF93EB
:10549000FC01C08169EB7AE28C2F0E944228FC015A
:1054A000F894818D33894489558966897894A085DB
:1054B000B1852C919285922321E009F420E01F927E
:1054C0002F936F935F934F933F93869581701F92B5
:1054D0008F931F92CF9388EF95E09F938F930E94B5
:1054E000D5328DB79EB70C960FB6F8949EBF0FBEFF
:1054F0008DBFCF910895CF93FC01C0816CE372E121
:105500008C2F0E944228FC01F89480A191A1A2A1B5
:10551000B3A124A5468557856089718924FD04C0FF
:105520007695679557954795841B950BA60BB70BFA
:10553000B7FF07C0B095A095909581959F4FAF4F4D
:10554000BF4F7894B054BF93AF939F938F931F92A4
:10555000CF938DEF95E09F938F930E94D5328DB7B7
:105560009EB708960FB6F8949EBF0FBE8DBFCF9121
:1055700008950F931F93CF93DF93EC014DE150E01B
:1055800069EB7AE288810E9413288C0168858C81FE
:105590000E94211BF801608771878287DF91CF917C
:1055A0001F910F9108950F931F93CF93DF938C0159
:1055B00069EB7AE2FC0180810E944228EC010E94A2
:1055C000E735F80184819581A681B7818C839D831D
:1055D000AE83BF8380859185A285B3858F87988BA5
:1055E000A98BBA8B84858A8F882361F1F801408961
:1055F0005189628973894B875C876D877E8726E135
:105600003AE23B832A838B8F84899589A689B7895F
:10561000892B8A2B8B2BA1F482E0898F69E476E2B7
:10562000F801808D0E944228988F8F8BF801848D1D
:105630008C8FCE01DF91CF911F910F910C94393651
:1056400083E0EBCF188E1F8A198EDF91CF911F91C7
:105650000F9108950F931F93CF93DF938C01EC016B
:10566000A897CE010E94E7351C821D821E821F82F0
:105670001A8A1B8A1C8A1D8A88A199A1AAA1BBA18A
:105680002CA54E855F856889798924FD04C07695AF
:10569000679557954795841B950BA60BB70BB7FDE0
:1056A00040C0B095A095909581959F4FAF4FBF4F4B
:1056B00088A399A3AAA3BBA31E861F86188A198A4A
:1056C000247128602CA76D8D7E8D8F8D40E00E9407
:1056D0005A1B4CA544706A8D7B8D8C8D0E945A1B81
:1056E000D8011497ED91FC9111973097A9F0409152
:1056F00045029091460201C0F90120813181408329
:105700009183F0934602E09345024E2F9F2F21157F
:10571000310591F71D921C92DF91CF911F910F914E
:105720000895B095A095909581959F4FAF4FBF4F2D
:10573000B8CF0F931F93CF93DF938C016CE372E18B
:10574000FC0180810E944228EC0169E476E2F801C4
:1057500084810E944228BE01685D7F4F4FB7F89454
:105760002AA53BA5232B89F42AE23BE23BA72AA7E3
:10577000FC012489358939A728A7758B648B4FBF15
:10578000DF91CF911F910F91089589E10E94793B9C
:10579000CF93DF93EC0162EB7CE288810E94422888
:1057A0006C8148855985FC01238120FD06C0FC01E0
:1057B0008081DF91CF910C94C01A81819281DF9119
:1057C000CF910C941E262F923F924F925F926F9230
:1057D0007F928F929F92AF92BF92CF92DF92EF9281
:1057E000FF920F931F93CF93DF9300D000D0CDB7DC
:1057F000DEB78C012DB73EB73D832C8362EB7CE294
:10580000DC018C910E9442289A838983F801F481FB
:10581000FB83D80118968D909C9019971C964D90FB
:105820005D906D907C901F9740FC99C07694679432
:1058300057944794F801E088F188C42CD12CFB815F
:105840000F2F10E0C8018C0D9D1D2DB73EB7281BF2
:10585000390B0FB6F8943EBF0FBE2DBF8DB79EB764
:1058600001965C01A981BA8113963C90A801B4010C
:105870000E949A3CB32DB170BE8330FE53C0150117
:10588000200E311E8101242DA4016B81E981FA8152
:10589000818192810E946C25C114D10409F453C006
:1058A000A6014E0D5F1DF10120E030E0D7018D9182
:1058B0007D018095908189238083DA019D91AD01DE
:1058C000892B81932F5F3F4F2C153D057CF3BE81C3
:1058D000B11139C06B81640DA501E981FA81808124
:1058E0000E94C01A2C813D810FB6F8943EBF0FBEB6
:1058F0002DBF26960FB6F894DEBF0FBECDBFDF9149
:10590000CF911F910F91FF90EF90DF90CF90BF90BC
:10591000AF909F908F907F906F905F904F903F904F
:105920002F9008951501200E311E8101242DA40110
:105930006B81E981FA8180810E94361AC114D104F9
:1059400009F0AECFC7CF6B81640DA501A981BA81E3
:1059500011968D919C9112970E941E26C3CF8CE1C7
:105960000E94793B44E050E062EB7CE2FC018081E4
:105970000C941328AF92BF92CF92DF92EF92FF92D6
:105980000F931F93CF93DF93CDB7DEB77C01ADB6F6
:10599000BEB6FC01C08062EB7CE28C2D0E944228E6
:1059A000F701648140855185D4842DB73EB72D1908
:1059B00031090FB6F8943EBF0FBE2DBFEDB7FEB74D
:1059C00031967F01FC012381870120FD2AC02D2D06
:1059D000FC0180810E94361AFF92EF921F92DF92A3
:1059E0001F92CF9284EE95E09F938F930E94D532C1
:1059F0002DB73EB7285F3F4F0FB6F8943EBF0FBE9E
:105A00002DBF0FB6F894BEBE0FBEADBEDF91CF91D5
:105A10001F910F91FF90EF90DF90CF90BF90AF90CC
:105A200008952D2D818192810E946C25D5CF8F9272
:105A30009F92AF92BF92FF920F931F93CF93DF93EA
:105A40008C01FC0184858F77F82E62EB7CE28081EB
:105A50000E944228EC01F80184819581A681B781DA
:105A6000892B8A2B8B2BB1F58091BC0082FF10C053
:105A70008F2D880F88838B8182608B83DF91CF91FC
:105A80001F910F91FF90BF90AF909F908F900895BE
:105A9000F80180849184A284B38461E089E10E944A
:105AA0004F1E61E088E10E944F1E1092B900F0E89D
:105AB0008F16FAE19F06F6E0AF06B10438F488E4E9
:105AC0008093B80084E08093BC00D2CF8CE08093B8
:105AD000B800F8CF81E30E94793B809127028823A8
