:100000000C94FB0B0C94280C0C94280C0C94280CCE
:100010000C94280C0C94280C0C94280C0C94280C90
:100020000C94280C0C94280C0C94280C0C94280C80
:100030000C94384C0C94280C0C94280C0C94280C20
:100040000C94280C0C94104E0C94280C0C94280C36
:100050000C94280C0C94280C0C94280C0C94280C50
:100060000C94280C0C940F4C0C94E54B0C94280C1D
:100070000C94280C0C94280C0C94280C0C94280C30
:100080000C94280C0C94280C0C94280C0C94280C20
:100090000C94280C0C94280C0C94280C0C94280C10
:1000A0000C94280C0C94280C0C94280C0C94280C00
:1000B0000C94280C0C94280C0C94280C0C94280CF0
:1000C0000C94280C0C94280C0C94280C0C94280CE0
:1000D0000C94280C0C94280C0C94280C0C94280CD0
:1000E0000C94280C0C94834F0C9471460C94E440AF
:1000F0000C94093B0C9420480C9463320C94F64AFF
:100100000C9449380C94793D0C94B80F0C94E4127B
:100110000C9497150C947B360C9476430C94FC1C31
:100120000C949B1A0C94D74A0C94D5410C94CF1C78
:100130000C94CC3F0C94D2490C94AA4A0C942249BA
:100140000C94544B0C94FA130C9404320C94A23F6C
:100150000C9458320C94811E0C94AC370C942D19CD
:100160000C94203C0C94DA3D0C94281B0C948D3795
:100170000C94AE1A0C94AE400C944D320C94DD1AD3
:100180000C9479320C94A4410C9467370C94F815B4
:100190000C945D3C0C943B3B0C9412160C94420D59
:1001A0000C944D4A0C94220D0C94ED360C948F4B0C
:1001B0000C9422140C9446150C94A9140C94F93345
:1001C0000C94A53C0C94E33B0C943B400C94744A77
:1001D0000C94E6150C94CE190C9454490C94793A6D
:1001E0000C94573F0C943F140C94243A0C943C11FB
:1001F0000C94771C0C942E1D0C9426500C94F446F1
:100200000C94C3160C94B2390C94B33A0C94841D1C
:100210000C94B4370C943F360C9493490C94C01151
:100220000C9401490C9407440C9432400C94C04245
:100230000C94EE490C9484450C94BD380C940E1A21
:100240000C9401130C94C44A0C948B380C94C43154
:100250000C94450C0C94CB130C9463500C9477477E
:100260000C94843C0C949F150C9455560C94A23C11
:100270000C94B64B0C94D9480C94E8350C94283D5A
:100280000C940C390C9428390C94CD480C948F4A5A
:100290000C9442320C9411330C9425420C940115A9
:1002A0000C94BC490C94240D0C948B0C0C94044AB3
:1002B0000C94763B0C945E4D0C94D3370C94E3195C
:1002C0000C9466550C94BF0F0C94D8120C946E329B
:1002D0000C94254A0C94C5430C9470150C94821B05
:1002E0000C945C190C940E380C94B0130C94D23608
:1002F0000C9424360C9488310C9490190C94541A54
:100300000C940E1E0C9467330C940C370C947342AF
:100310000C94F0370C9467350C9411130C94470D22
:100320000C94BC3B0C9496360C942B370C948C0C90
:100330000C94834D0C9444390C94F90F0C942A0CB2
:100340000401010404010404040400000004040185
:100350000101010104040101040101040404040079
:100360000004040404040000000004040000000071
:100370000400000000000000040000000000040071
:100380000200000400040000040704040000040448
:10039000040000020200040002000002040700043E
:1003A0000004040000040004020204040404040025
:1003B0000004000404040404040400040002030410
:1003C0000004040004000400000400040000000015
:1003D00000000000000100020102CA030E1A020020
:1003E0000001000000D81203000001000000E41228
:1003F00004000001000000541A0500000100000084
:100400009B1A06000100019316A9140700000100C1
:100410000000AE1A0800010001C90301150900001F
:10042000010000008B0C0A000201018E16CE190B90
:1004300000030103C6038C0C0C00020102C403E399
:10044000190D00020002CA03420D0E000200027ADA
:10045000160E1E0F00030003C603811E10000200CB
:1004600002C4033F141100050005BF03C3161200A8
:100470000200027A16CB131300010001C903901980
:100480001400020002C403FA1315000200027A16D7
:1004900022141600040004BB03841D170005000588
:1004A000B60312161800010001C9035C19190008EF
:1004B0000008AE032E1D1A00030003AB03F8151B42
:1004C000000200027A16281B1C00020002C403CF9F
:1004D0001C1D000400047216FC1C1E00010001C952
:1004E00003E6151F000200027A16B013200009006F
:1004F00009A203771C2100020002C4039F152200F9
:100500000400037C16461523000300027F16011326
:1005100024000300027F162D19250004000476161E
:1005200011132600010001C90397152700030003DA
:100530009F03701528000400039C038445290004D0
:1005400000047616283D2A00010001C903AC372BB0
:1005500000030003990332402C0003000396033B81
:10056000402D000600069003AE402E000200027AE5
:10057000162B372F000500058B03203C30000400AC
:100580000488165D3C31000200027A16843C320079
:100590000400038803CC3F33000500058303243A9D
:1005A0003400010001C903DA3D3500040003691677
:1005B000A23F36000500057E03E33B37000400043C
:1005C00076168B3838000300039F03F03739000399
:1005D00000027F16ED363A000300027F160C373B0F
:1005E000000600067803B2393C000300027F160CB7
:1005F000393D000300027F1628393E0008000870CC
:100600000344393F000600067803E440400005003B
:10061000056B03573F410006000665034938420059
:10062000030003AB03BC3B4300010001C903793D58
:100630004400020002C403C04245000200027A16D0
:10064000D3374600010001C90320484700020002D9
:10065000C403734248000400046103763B4900016F
:100660000001C90377474A00020002C40325424B38
:1006700000030003AB033B3B4C00010001C903F442
:10068000464D00020002C403D5414E000200027A2A
:1006900016B4374F00010001C90371465000020033
:1006A00002C403A44151000200027A168D375200A1
:1006B000010001C90396365300020002C403BD388D
:1006C00054000200027A16D23655000400045D037D
:1006D000093B5600010001C9033F365700020002E2
:1006E000C403B33A58000200027A167B365900045C
:1006F00000045D03793A5A00010001C903E8355B43
:1007000000020002C4030E385C000200027A1624C4
:10071000365D00030003661667375E00010001C9FD
:100720000366555F00020002C403635060000200CC
:10073000027A168F4A6100050005B603834D6200F8
:10074000010001C90355566300020002C40326508C
:1007500064000200027A16744A6500030003AB03CA
:100760005E4D66000200027A16D74A670003000257
:100770007F16834F68000400047216544B6900030F
:100780000003AB03B64B6A00030003AB03EE496BF7
:10079000000500055803044A6C00040004540325B6
:1007A0004A6D000700074D034D4A6E000200027AB1
:1007B00016C44A6F00010001C90393497000070085
:1007C000074603F64A71000300034303BC49720065
:1007D0000300034003D24973000200027A16AA4ABA
:1007E00074000001000000CD487500000005000005
:1007F000000078DA9D5A796FDB3816FF2A5A038396
:10080000DD59245D4BBEBB983F5CC76DB3CD35B69B
:10081000D3CE5E201489B685E8F0885293EC20DFB1
:100820007DDFC14392DD19A003742C928F8FE4E326
:100830003B7EEF31BFF5C2C3A1F7B6F7294D0E07D6
:1008400059F6CE7A0F7592C6E2AB2C5552E40A8661
:100850007651F4D6FBCB87C5E2476FF266F0A6EF80
:100860003D24795D25A9C2DE9B7BEF9D6EFEE805E8
:100870006F82F19BA0EF8FFB7E3002565191656134
:100880001E0393DF7A61ACFC20E88BB0AAC2682F0C
:10089000AA32D9ED6429C23C4C8B9D5724F14F3FBD
:1008A000445EBB57706FEFED2C38A3F9033FEB3F6D
:1008B0007F1787F301B248D3220A2B89BDCA8B8ADE
:1008C0003AAF68700A434C9EE4DFC57DE0A3D8AA26
:1008D0000AE425C2E8D150BB1586E306411C1B8201
:1008E00043A1E827C97FFAA1F60E759A8AFAC013C8
:1008F000A66EC2AFB52C5F2C4F38C223529752550B
:10090000A24AA247C5ADAA0C7395259530AB7A498A
:100910000E97A8D79FC065A4322C85DAD7555C3CCA
:10092000E5BDB701DE4FBE4D76425F8D59421D12C7
:100930007D322F0EAB5094328C5F046F12EE62D07A
:100940009A4757726266B40FF35CA6F899D799D0AC
:100950004DF50DA6E72841CBF5391D0C47C73C7B6B
:100960006FC73347652ECCCA52B31AB8FD3D640930
:10097000A8A22178A895687F8AEAE52089F164E435
:1009800026B1D4DD2C6C8AC655BA3D50A72CDB3B72
:10099000685DE368EC8841C68389530DEC246914D3
:1009A00075A5E5E0A9287DB43299BA85E26497542B
:1009B000612A80B4B3D8D730AD25B191DBB04E2BCE
:1009C000613BB2F059C475195660C5C4CF9F587EBB
:1009D000126CB22A0E2D5E516BE381DBF83E1E0EC7
:1009E00027532BC65299DD4AF3110FEDD7C87E8DE0
:1009F000EDD7C47EC9347CB13A0BD7E95470FF3CC3
:100A0000F1AD1AED42B0C386027D5B44EEDA92206E
:100A1000F28C9A0C1DDF24CA82FE6C3835AC81CC76
:100A20006AD3D4E95C1A47FED80F4E519D3744A1D2
:100A3000C9C45352ED41F5AA87E3091E76F306694E
:100A4000B2137A9AA8207EFA636DF480104E9F1C30
:100A50001AEAE90E941DEA5930EA9FDAE9646AA9B4
:100A600072591C92679976B4852C4F25FF03AEFB13
:100A70001ADC7825504B1A4E4449E802E1BB3B1A78
:100A80000D2DD3C353764203A317702C8E87D6BF88
:100A90007DDDD548E83952C9A1BB3F5528B14DD2BB
:100AA000863921B59211122B16A6EF0E085EA1BB56
:100AB0000F74BD55F2558A7DB2DBB35B9E35E9C13B
:100AC00065EC5279C255D93127F0F360D09A6ABCEF
:100AD000E6A9D97A48640AECF9AF10EB06C3D65CF4
:100AE000541654E04859051D340E524D66CEF54655
:100AF000EA849E7B0A94C37CBEE49168DB9117650F
:100B0000B1E89AD6A871F44A6264B75B87A6D64F5B
:100B10002F4E4AF3C9C182881D559D2AD960DA102B
:100B20004AB597655680033C9C146973D84975ECA7
:100B30002CA9CAA23A2CAD2E95CFE2C87B7A95EDAE
:100B4000444DAD924CF2D19CD99E0ED24E959C1143
:100B5000FB8DAD97284477177D1821DFFC5DA17FC1
:100B60000A5719CB871A6CAE001C35332DD8F98E75
:100B7000EC8D75C2EF9B010C7C5E51C6B244AE0099
:100B8000064AF6CE8121782A934A1E51A06131216E
:100B90001C5F66B2DCC93C7A11E8C6E10CD0C52EF8
:100BA0005DEC8B4C1E6105156687A691EAB6450A79
:100BB0006D2C015B776184A5253A428043A8825D54
:100BC0005C30728B1352813D8595B4F20DC01AB61C
:100BD00009080DDC8EE02BF0A232E20070D6DB813A
:100BE000C7A17DC2C5EA16D1803BE3667DC09B07E5
:100BF0005F71D6D39108BC421E0BD07A1BA4F19B27
:100C0000E53CF63B6478055E03CD6832B80E0A39E0
:100C1000DF77E7B01774BCE82DC179377D3134C96F
:100C2000938204F0172F4F2AB69EA1EF66A9A7E67C
:100C300044B0756BDF71D8B08486F5B5588DF50674
:100C400008F36D9D6D93EAE0093DD432914AED665B
:100C5000E1B4492CF32AD9028EDC6E6107E4372C0B
:100C6000A6819D99D0F65DE03A0023302187C46EBD
:100C70006F7F143446EA43EC3483C1EFBE6EDCCAA6
:100C800008F49855A883485BFA0946E677E848E5F2
:100C90006AE75F67FD26410BA276598D8E288F98F3
:100CA0000D1D490B9976588DA71DBA2EA3F1C412BC
:100CB00074C1EB775AEAC34B25216290411E0AC2E8
:100CC000FA5EE6AC57875CD70275D901B3BD8C1EBE
:100CD0001B88165323DE571B3077CE3719B6C9BA97
:100CE000C79BD8DBEBE0627BB84301BEBD7BB4465B
:100CF000CCB277D1C6CA9D7D4C276DB2EE3EA663BD
:100D000033DE02955D2E8316D511132B932E82ECC4
:100D1000F2E977098FE43233141D94D9E1741E3857
:100D2000C21654ECDE83DF263B5ACFEEA88315BBF8
:100D30007C261DBA2346569047E8E91B59287A6A53
:100D4000C04AC9B6D27EC1AA0CB3EE4800F33EBB7E
:100D5000D95388E21BCB3454BCA5E1DC002403C189
:100D6000266E28F89815AB96A71229BB46D184BDEC
:100D7000BE9DD241BD96DC5A15F8D7A12146D8E4D4
:100D8000B94440961CB58DABDD931B87DF04E2228E
:100D90006818016E4427E69B18703CEC2E0833401F
:100DA0005648D33C44270D848D0F8E88E80804D321
:100DB0002DCF16668749639E94CB67BD0540863666
:100DC0006A262507729F898C40FE00FF8358702B8E
:100DD0000E8BE15C46E88673DEC4F72023B9DD8A1A
:100DE0006D1942144D2A0DF9514A1D1E1CC0848AEA
:100DF00042772013D4128FBAED478B9D17D6552119
:100E00000C2971F78FB8EB1DD9D0CC4D91C4CF1AF6
:100E10005AF68979A17CFD1BE8DF81FE1DC22F5E99
:100E2000E9EC987503171D31C631668D5F3E33A11D
:100E30001B77D94927DABBC0798E208CF214177B37
:100E40001BC3033BDAC22BD8A5F14A56C4B2815B5F
:100E500060CAC44D6983952C5185812859A192534C
:100E6000098B61D74D20C603E6FAED930C50132988
:100E700025FA3D94379AB6A94E83BC119E81931FE3
:100E80008148120047D2B85B50FB992320FC8A2E80
:100E900080218E433C0DF80B3360619DBAB464DD54
:100EA000065E8C7CE0EE3A78A989CDFF00577BB2D4
:100EB0002C8B66DBFA9DACC8930A869C37D41DE068
:100EC000FB388EA03577563E05CCCFB120D4A1C3D8
:100ED000EB2EC3274140C1C60DE8C8F06213FEC423
:100EE0007548C58727E71F49B045618A1CA65BFB8B
:100EF0000BE237427E2416E203C1E484E305473463
:100F00007574553389240C241A4183DA5650F2F94A
:100F10009094B295BBCC2CA7CEAE9B44202646AE77
:100F2000A7C247C3F30E5F4D8E89F5EEF9C5425C4B
:100F3000CF7FC1D40FF3E677F76B717779B3C658DB
:100F4000DA7BDBBB7B3738BB7B17C03FBFD718AC26
:100F50009E68F0A27F767781038BABDBC527F17E9D
:100F6000B5FC199D749FFE3BEB5D2FEE812AAC32E0
:100F7000B90B83D1B80F84775FAE79B50051D46ACD
:100F8000B9585E7E5E8A2F973717B75F50D103EC52
:100F90005C2F57D0C9BB906512A6B8D612D65AE2BC
:100FA0005A307A39BF12EFE6F717C886975A6FE6BC
:100FB0009BB558DF5FAF7F8691F51247C6D8BDBCA1
:100FC000BB5BAEC4EDDDE6F2FAF25FCB0B717F8363
:100FD0007D9C6B9851FC15EF6E371FC5F2E2034CF8
:100FE000F55F3155AC2179A512907D1660D84D1A68
:100FF000FF16FBD6CB9BF5ED4A2C572BF8FF62B5BD
:10100000A004A5D58967D9C05E5EB14AEEAA67384B
:1010100019F222A22739F75F6D72EFD82F6E6FDEBB
:101020005F7E1037B71B315F2C96779BE505A5D007
:10103000ABE5FC426C6E6F3FE1FFC4D5EDCD072AF6
:10104000926BB95CCC377371B15CFFF366F171756B
:101050007B73B9C65978229DF62167BABEBEEBD321
:10106000B00787F08A4156CBDBFB0D71BD992F3E4F
:10107000F1B936F3D5467073609AB415EE03235B6D
:10108000DFC336D76B666D1235779ECB60C1BB234D
:10109000D91077ECC2AB83457527AC7479F3797EB0
:1010A0007579C1CC71022FC8725D2DEF6E571B4B45
:1010B0004E2B35EB90B8D0D5E53AB80075822B862B
:1010C000CFC1C5471600387D1CBD9BF77B6FFFDD88
:1010D0003F9BFE17D4F11D7E4FF97B81DFE094A882
:1010E00071810DC085D4586203D20F6ABCC7C65047
:1010F000CFFF400DCDE02336469AC13FB031D173CA
:101100003ED1327ACE153570CE6B2B6CEADD87FE80
:101110006030A0CD876AD41F4E62124A568DA7FE5A
:101120009824819FC15891C8AB548EFA7EF0C03A82
:10113000A6232572B16A85579BA0072A931C52B932
:1011400058DBBC47BE61CBA9163B8F794A8F1D9EE9
:10115000A982C48CD21661EEE545054800FE155BF8
:1011600000544F19A3298F5C96F7B44FE09B5D8F15
:10117000F20E106E60258681666EAD2481EED2F788
:10118000B645E98117F8BB69270A4763EAA72E5DD0
:101190001D81A97FAE10867A2AD9C186BC6A1F56E6
:1011A000481DEA6D3246E3C28E2656488A1E8FCB12
:1011B0004FDC4B809558C34E65EE993AA39D0F7A4C
:1011C000B8E00740EF1096E07138A85165C70C945D
:1011D000124293AAE80DEE7D08E78DBDAAF028B46F
:1011E00062459FFC3B47F2F75C1C36F82CC963F95B
:1011F000ECA561894E1B8E90B7EAC55C25FCF80B07
:10120000E67FF89AF037FD9AD0BA1DCF3F1FF2D390
:1012100018988BA72D908DC72333347D7EB30FADE7
:10122000C70CF47960C3918AE3C925A71F9EAB3C24
:1012300098B72FFDE8A30BE0FCC667A96D45A09BFE
:10124000D3F35B8CA133AF53EEBD8F730B0679865E
:101250004ABFBB5249CDF501195E44984910245745
:1012600073CD6056002AD777E1E103018633376CEE
:101270009F13EC03023BFAA3715DE1B1EB0F1A027D
:1012800001F5F1D81631DD31BD58C837413398B674
:10129000FA75CA892E484F1CF5DB04A080F5C19D64
:1012A00049F1839BA16865940D2EF83C741D3EA303
:1012B0001E4C8D4019F15E4BA542500C9947806041
:1012C0008DBA02CBEB44A12DA9682FE33AC5D22EEB
:1012D0004CC66CC9D39080144B7E95781398557C7E
:1012E0007BC23E2C6332754D8DAF05D7287ECA2058
:1012F0003DF82AB769F1C429E80DD878E8F171D032
:10130000B990AB1D7506C0EA7900DFD39A03497E18
:10131000E03C8D4B6B3494E34E5DF790A083B5FDBC
:101320004359EC4098196C3DC4B36D01A4C32E41E0
:10133000D812DD16964D57521F0A4D15FD0A2C8303
:10134000A2866B403BC682DFDA121C49C77B4AD2B9
:1013500014905804FC5AEF418CC6DD4C2BA1DF9948
:10136000814FBD6BF0417C87B401A448B23A337D14
:10137000C63810B398371C7A080766E4B5C8033737
:10138000DFC4D7DA8D5545E16D433A1D9F0C8B19AB
:101390009BA64AA1C880905EB9B8BCBB2179E04C3D
:1013A00000A14A5254B9CF557D404396ECD2288EC5
:1013B000E0F3CC97B08AF671B16329FE89B323FAC2
:1013C000130588BA75FE088CD11FF2C36DA35FB9EF
:1013D0008131FEE102DA08384C057E1E2D18202EE0
:1013E000781AC5F78B8FD5884350F169F5DAED8609
:1013F0009FDFDC285B0D57336C2F9A677B8E7BC396
:10140000E10050E429C48CAFB0A5F02135A1C00A99
:10141000744658C8AB8C87C4CC0DB3C3D4EB2C0A2C
:1014200067A7BFCAB05148FFAD46CC6F270AABD7FC
:10143000E8C059E520B727090C6D3A46AE89444FFC
:101440003181DFD84EC076BC6FB60E7C97D3C18A8F
:101450006D0FD33B08EC476F5718D9015B0FFCE9C0
:101460006844F84137C60420B8311E91F240633C0D
:101470009EC0F7E0F528377280ED1AE0E34623B509
:10148000DBCFCBD5FB2B02E9605BF32F6235BF418D
:10149000ACDCB7C86C7DB75C5CBEBF5C9C646AC1E9
:1014A000CD8312786A7C6602AB85F8113E8A5D4571
:1014B0004BE08FFF0A731F8DA3351018D61557CB3D
:1014C000CFCB2B02F2B737EB9F5EFE93F710F945B7
:1014D000A050C0AE877FDFF3E1EEEAEBA04715AA8C
:1014E00003B84AC9B8DDFEC14CABAC4115A4768D3A
:1014F0004CE7EC7E30737FD2D29A1336AAD15CFED1
:10150000D0333018732DCC257FE756FF3C84A7F6E7
:10151000CF28F84909FB8CF251B102DCA9B0C537DC
:10152000984D0FCE549DFEBD7DEB19FA43B8D57D85
:101530008CB2E61D4F81DDDB67B9F3C61B5C8B33D4
:1015400024FDE0FE8FD768BEB261F2CB4983917172
:10155000E74D492712BA8A4B144646BE7BDB69CC5D
:10156000B68F3C5C0E7983B4F80AE4C4E37501AC31
:1015700096105A9B7DB1D1873405A33A8AE8098A2F
:10158000EA8C607BB058F391F37C48860A9E08F69B
:101590009C3EB6CA320AC1451EC9CE938F8F08A1A0
:1015A00039A7558376550F5D2336A93C172A9B2C06
:1015B0001F6A8A5531BF3300600567244C30557C63
:1015C000361F7D827261C0BCB99C16C4EC54EDED2F
:1015D000E8829A25EAD6BD4CDAA5AEA3895DFA3E2B
:1015E000A514654518FF1C6136EE4B395D5475A690
:1015F0007FD4AFAC725357BEEAD4B6F8718D4A8827
:101600001D87D6BED113E68A1F14D2F4358F5DC56F
:10161000EBF80858EBE2ED0F8E6B41A7AD80BF9A57
:101620003635EC37EB396E4E14DA72DCE91A598331
:101630004740DE9E9211FEF38FBAE93326E0FCF4B8
:101640001F34824F93C1C36C16CE7AAFFF075D3350
:10165000AF6A600E000028292A2B2C2D2E2F505106
:101660005253545556570404000402070400000264
:101670000002040000040400000004040404070441
:101680000704000704040400040400040401070420
:1016900000040200000000000000060002028C00AE
:1016A000100A0366168B00400A0369168A001E0D95
:1016B000066C168900400A0381168800150B047217
:1016C000168700180B04761686000B09027A168519
:1016D000004009027F168400400A037C1683004004
:1016E0000A037C1682004009027F168100400A032B
:1016F00081168000120B0484167F00110A048816DC
:101700007E000D08028C167D000B070193167C00ED
:101710004007018E167B00120A048F167A000B0711
:1017200001931679001008029416780015090396A3
:10173000160000400802991677000E08029B1676E4
:10174000000907019D167500060600000020002311
:1017500000260029002C002F0032000001000003A9
:1017600001060109010F470044004500800135488A
:10177000004400450020010D8800800081008000A9
:101780000E8A008000810020000F8C008000810004
:1017900008000CB300B000B10080033EB400B000FC
:1017A000B1002003239800900091008000249A004B
:1017B000900091002000259C009000910008003BC3
:1017C000A800A000A10080003CAA00A000A1002069
:1017D000003DAC00A000A10008005B280120012111
:1017E0000180005C2A012001210120005D2C0120E4
:1017F00001210108000011241FBECFEFD1E2DEBF9E
:10180000CDBF00E00CBF14BE0FB6F894A895809130
:101810006000886180936000109260000FBE12E04B
:10182000A0E0B2E0E6E6F0EB00E00BBF02C00790FC
:101830000D92A033B107D9F723E0A0E3B2E001C0D5
:101840001D92A53AB207E1F70E949F500C943158BF
:101850000C940000FC0186898460868B109226021D
:1018600081E080936C0284819581A681B781408953
:10187000518962897389840F951FA61FB71F8483BE
:101880009583A683B78381E008950F931F93FC018E
:10189000A489B58986898C9393A181E0892783A344
:1018A000448155816681778190FD12C00085118544
:1018B00022853385400F511F621F731F82FD12C0A6
:1018C000448355836683778381E01F910F91089548
:1018D0000485158526853785400F511F621F731FAC
:1018E00082FFEECF0089118922893389872F401723
:1018F00051076207830B87FDE3CF80EC91E193836F
:101900008283B901A801448355836683778381E08C
:101910001F910F9108950895FC018081A481B581E4
:1019200040855185628573859FB7F894813061F059
:10193000823019F04C939FBF08954D935D936D9342
:101940007C9313979FBF089511965C934E939FBF0E
:1019500008950F931F93CF93DF938C01DB01FC015C
:101960009081709156029F5F492F50E0440F551FA0
:10197000440F551F2091570230915802240F351FF4
:101980000BC0E9012C5F3F4FF90134974081518131
:101990004A175B0751F09F5F971798F390E080E03C
:1019A000DF91CF911F910F910895F80190838A8163
:1019B0009B81DF91CF911F910F910895CF92DF927C
:1019C000EF92FF92CF93DF9360915E0270915F027E
:1019D0006115710581F1615071096B01F12CE12CE8
:1019E000C0915B02D0915C0240915D0250E06115B4
:1019F000710591F0FE0180E090E0DC010196A11DEF
:101A0000B11D9A012E0F3F1F31832083F9018C15E0
:101A10009D05AE05BF0590F3469FF001479FF00D71
:101A2000569FF00D1124EC0FFD1F11821082D093F0
:101A30006F02C0936E02DF91CF91FF90EF90DF9025
:101A4000CF90089580E0089510922602E2E1F2E03E
:101A500084819581A681B781AC01BD015659674E3D
:101A60007F4F44835583668377839659A74EBF473C
:101A700080930E0290930F02A0931002B093110274
:101A800081E00895FC01648180810C94D84DFC01B3
:101A900080917A0086FD08C0828D90910902981786
:101AA00089F09F3F09F463C084819581A681B78145
:101AB0008853984FAF4FBF4F84839583A683B783D6
:101AC00081E008958FEF8093090220917800309192
:101AD0007900858D968D891790F544895589240F55
:101AE000351F8F5F358B248B858F891770F1868921
:101AF00097892817390708F448C0808D918D82177F
:101B0000930708F442C0138E1092260281E080935E
:101B10006D0280899189A289B3894085518562854A
:101B20007385840F951FA61FB71F808B918BA28B87
:101B3000B38B84839583A683B78381E0089581E086
:101B4000358B248B858F891790F684819581A681AA
:101B5000B7814485558566857785840F951FA61FB7
:101B6000B71F84839583A683B78381E0089580930C
:101B70000902982F987090937B00877080648093FF
:101B80007C0087ED80937A008FCF838D8F5F838F6A
:101B9000948D891708F4B8CF809128028111B3CFB2
:101BA0008BE10E9429102F923F924F925F926F9289
:101BB0007F928F929F92AF92BF92CF92DF92EF92DD
:101BC000FF920F931F93CF93DF9300D000D0CDB738
:101BD000DEB7DC011596BC91B9835B2F567081F19D
:101BE000032FD22E142FC62E9B838A83B170BC8301
:101BF000E981E1FD3EC0AA81BB819C9111968C9147
:101C00009CBD8DBDBC81B11172C1CC2009F43EC117
:101C1000112309F4D4C0ED2DF02F1150AF014F5F07
:101C20005F4F410F511D80818EBD0DB407FEFDCF6A
:101C30008EB58193E417F507B1F7EC81E111C3C0CC
:101C400026960FB6F894DEBF0FBECDBFDF91CF91C1
:101C50001F910F91FF90EF90DF90CF90BF90AF90CA
:101C60009F908F907F906F905F904F903F902F90BC
:101C70000895DC010D90BC91A02DBE83AD831D960F
:101C80004C911D97427016966D917D918C910E949A
:101C9000B64D0E943D4FED81FE8181849284A384E4
:101CA000B484680D791D8A1D9B1D0E944243FC81EE
:101CB000FF2309F4FAC0F980F694F694F6944F2DB8
:101CC0004170AA81BB8112966D917D918C910E9489
:101CD000B64DEA81FB810190F081E02DFE83ED831A
:101CE00081849284A384B48424013501769467941A
:101CF0005794479484189508A608B7080E943D4F4A
:101D0000640D751D861D971D2FEF210F112309F4FA
:101D10005EC0ED2CF02EA7014F5F5F4F1A01220E1F
:101D2000311CD701DD907D01ED81FE81258508E024
:101D300010E020FF6EC00E944243AD81BE81169626
:101D4000ED91FC91179718968C91189780834D2DE3
:101D5000407813966D917D918C910E94B64D0E94B2
:101D60003D4FDD0C110F680D791D8A1D9B1D0E94D2
:101D70004243AD81BE811696ED91FC91179718965E
:101D80008C9118978083ED91FC9111978081129628
:101D90009C91892391E009F490E0192B0E943D4F1A
:101DA000640D751D861D971D015029F6CC2019F074
:101DB000F701319710832E143F0409F0B2CFEC8164
:101DC000EE2309F43DCFF980F694F694F6944F2D66
:101DD00040954170EA81FB816281738184812696FE
:101DE0000FB6F894DEBF0FBECDBFDF91CF911F912C
:101DF0000F91FF90EF90DF90CF90BF90AF909F90AA
:101E00008F907F906F905F904F903F902F900C94A9
:101E1000B64D0E9442434D2D4078ED81FE81638195
:101E2000748185810E94B64DAD81BE811696ED917B
:101E3000FC91179718968C9180830E943D4FDD0C82
:101E4000110F680D791D8A1D9B1D0E944243AD81B3
:101E5000BE81ED91FC911197808112969C9189230E
:101E600091E009F490E0192BAD81BE811696ED91B9
:101E7000FC91179718968C9180830E943D4F640DBA
:101E8000751D861D971D015021F690CFED2DF02F69
:101E9000AF01410F511D4E175F0709F490CF81919B
:101EA0008EBD0DB407FEFDCFF6CFAA81BB810D908C
:101EB000BC91A02DBE83AD8319968D909D90AD9061
:101EC000BC901C97240135017694679457944794ED
:101ED00084189508A608B7080E943D4F640D751D2B
:101EE000861D971D2FEF210F111113CFA9CEB98198
:101EF000B3FB442740F9EA81FB81628173818481CD
:101F00000E94B64D82CE0F931F93CF93DF93EC01C7
:101F10000FB7F8949E8990FF25C0162F6F8B9A7F7C
:101F200094609E8BAC89BD891097B9F01296ED91A3
:101F3000FC9113978D919C9111979D8B8C8B119691
:101F40001C921E9213961C921E921297612FCD0125
:101F50001995AC89BD89109749F71092260281E046
:101F600080936C020FBFDF91CF911F910F91089565
:101F70000897FC01608D0E94830F80E00895FC01AA
:101F8000A085B1859C91818D22859223C9F0809591
:101F90008170C1F4838D815029F1838F8481958173
:101FA000A681B7814785508961897289840F951F01
:101FB000A61FB71F84839583A683B78381E0089506
:101FC000817041F389EF9FE09383828383899489B1
:101FD000A589B68984839583A683B783828D838FF1
:101FE00081E00895648D8789908D0E94830F80E041
:101FF00008950F931F93FC01A085B1859C914481A6
:102000005581668177810385148525853685400F46
:10201000511F621F731F818D2285922359F0809575
:10202000817051F0448355836683778381E01F91EB
:102030000F9108958170B1F7438B548B658B768B2C
:102040008FEB9FE093838283CF011F910F910C94BC
:10205000BF0FF894682F70E08DE392E00E94D45790
:102060008CE10E9429104F925F926F927F928F9223
:102070009F92AF92BF92CF92DF92EF92FF920F9317
:102080001F93CF93FC01A4A1B5A11097B1F41686BC
:102090001786108A118AC0E08C2FCF911F910F9163
:1020A000FF90EF90DF90CF90BF90AF909F908F9078
:1020B0007F906F905F904F9008958D919C911197B4
:1020C00095A384A312964D915D916D917C91159786
:1020D00018960D911C91199716968D919C911797B2
:1020E0001A962C911A97E0906E02F0906F0211965A
:1020F000FC92EE92B0936F02A0936E02C0A0D1A0AA
:10210000E2A0F3A0C22FC17020FF08C0F094E094B9
:10211000D094C094C11CD11CE11CF11C30E020E023
:10212000C00ED11EE21EF31EC0A2D1A2E2A2F3A2F3
:10213000958784876C01092E000CEE08FF08C40EF9
:10214000D51EE61EF71EC086D186E286F386A4A5BC
:10215000C480D580E680F780A5FD28C0868497845A
:10216000A088B1884288538864887588440D551DBD
:10217000661D771D428B538B648B758B448355830F
:10218000668377839A2F9071A4FD04C0000F111FFE
:10219000221F331F06871787208B318B89288A28B7
:1021A0008B28F1F4C11114C0C1E076CF4C0D5D1D38
:1021B0006E1D7F1D4483558366837783068717874B
:1021C000208B318B892B49F0A064A4A7CC2361F329
:1021D000A58DB68D878D8C935FCFAF7BA4A7F6CFEF
:1021E0008F01872F4C155D056E058F0987FD33C064
:1021F000CC23D1F2911125C0D8015D96ED91FC91CF
:102200005E975F968C9180830E943D4FF801C6884F
:10221000D788E08CF18CDC01CB018C0D9D1DAE1DAF
:10222000BF1DC480D580E680F7802F2DC816D90643
:10223000EA062B0B27FFB8CF84839583A683B78349
:102240002BCF0E943D4F292F6C157D058E052F0940
:1022500027FDF7CFD1CF4C195D096E097F094038B2
:10226000514C6F4F7F4F2CF0C482D582E682F782AB
:10227000BFCF88E10E9429108F929F92AF92BF92A8
:10228000CF92DF92EF92FF920F931F93CF93DF9342
:10229000EC01EA8DFB8D8C8D80830E943D4F0E8971
:1022A0001F89288D398DAB01BC01400F511F621F62
:1022B000731F8E859F85A889B9890197A109B109E6
:1022C00080FF19C02CA524FD1AC08E879F87A88B7C
:1022D000B98B4C835D836E837F8381E0DF91CF91E7
:1022E0001F910F91FF90EF90DF90CF90BF90AF9034
:1022F0009F908F9008950097A105B10571F1888492
:102300009984AA84BB840A891B892C893D89080D7C
:10231000191D2A1D3B1D0A8B1B8B2C8B3D8BCC84DE
:10232000DD840D2C000CEE08FF08C80CD91CEA1C3B
:10233000FB1CC886D986EA86FB86E32F041715079F
:102340002607E70BE7FDC1CF8E879F87A88BB98B48
:102350000C831D832E833F83C0CF4C835D836E83AC
:102360007F83CE01DF91CF911F910F91FF90EF906E
:10237000DF90CF90BF90AF909F908F900C943310D0
:102380008F929F92AF92BF92CF92DF92EF92FF9285
:102390001F93CF93DF93EC01EF8CF8A0E114F104CD
:1023A00009F400C1F7018081918198A38F8F868005
:1023B0009780A084B18411E081149104A104B10438
:1023C00009F4B6C06C897D898E89412F0E94B64D73
:1023D00080916E0290916F02F70191838083F09259
:1023E0006F02E0926E0281149104A104B10489F19C
:1023F0008B8D9C8DAD8DBE8D88169906AA06BB0669
:1024000040F54F89588D698D7A8D411551056105CB
:10241000710509F4BBC08C819D81AE81BF81480FDD
:10242000591F6A1F7B1F1660EF8DF8A13097B9F115
:10243000C280D380E480F580872F4C155D056E0542
:102440008F0987FDB2C08BA1912F9270B701A601B1
:102450007EC08BA121E081149104A104B10409F094
:1024600069C084FB992790F931E09327291709F473
:1024700042C04F89588D698D7A8D4115510561058E
:102480007105C9F18C819D81AE81BF81480F591FB3
:102490006A1F7B1F1460EF8DF8A1309749F62BA1BE
:1024A000488B598B6A8B7B8B2071212B2BA3212F7F
:1024B000247011FF65C0880D991DAA1DBB1D211137
:1024C00058C025E43CE03B832A838C839D83AE8304
:1024D000BF8388869986AA86BB868B8D9C8DAD8DA1
:1024E000BE8D88199909AA09BB098C879D87AE877B
:1024F000BF8781E011C090E0EF8DF8A1309719F50A
:10250000188A198A1A8A1B8A8071812B8BA3212F22
:10251000247080E091113EC0DF91CF911F91FF9018
:10252000EF90DF90CF90BF90AF909F908F900895E5
:1025300010E048CF20E084FB992790F931E0932701
:10254000291397CFD8CF4281538164817581488BFD
:10255000598B6A8B7B8B80711460182B1BA399237A
:1025600079F08C819D81AE81BF81880D991DAA1D56
:10257000BB1D2B2F84179507A607270B27FDA1CF7F
:102580004C835D836E837F8381E0C6CF12608BA115
:1025900092E0B2CF40E050E0BA018C819D81AE81E3
:1025A000BF8189CF85E10E94291083E10E94291013
:1025B00080912802882329F0823011F0109228029D
:1025C000089582E00E94291088E00E9429109091CD
:1025D0005602891798F490E0880F991F880F991F69
:1025E000E0915702F0915802E80FF91F8081918124
:1025F0008617970719F48281938108958CE00E94D1
:102600002910CF93DF93EC0160E775E188810E9488
:10261000E712288539854C8160E0DF91CF910C94D9
:10262000D30D8F929F92AF92BF92EF92FF920F9332
:102630001F93CF93DF937C0160E775E1FC018081FC
:102640000E94E7128C01F701C085C43008F07FC0FA
:10265000FC01D581D67009F07AC0F7018484958495
:10266000A684B78484819581A681B781892B8A2B22
:102670008B2B09F06EC0EFE4F7E1A591B4911196B0
:102680008C9180FD04C060E088E00E94D84D60E03D
:1026900089E00E94D84D60E08AE00E94D84D60E059
:1026A0008BE00E94274D80E58CBD1DBC81E081142C
:1026B000F2E19F06FAE7AF06B10470F5811489E0F4
:1026C00098068DE3A806B104E0F581E0D1E0E0E8EA
:1026D0008E16E4E89E06EEE1AE06B104E8F480E072
:1026E000D1E0F0E48F16F2E49F06FFE0AF06B104FC
:1026F00098F480E2881681EA980687E0A806B1047B
:1027000018F580E0D3E0E0E98E16E0ED9E06E3E008
:10271000AE06B10408F0D2E0CC0FCC0FC065CD2BD3
:10272000F801C0838183858184608583DF91CF91A7
:102730001F910F91FF90EF90BF90AF909F908F905F
:10274000089580E0D0E0E8CF81E0D2E0E5CF0E94BC
:10275000301088E30E94291060E775E10C94E712BD
:102760000F931F93CF93DF938C016FE975E1FC0109
:1027700080810E94E712EC016AEA7AE4F801848120
:102780000E94E712CF5ADF4F99838883DF91CF9160
:102790001F910F9108950F931F93CF93DF938C0197
:1027A00062E176E1FC0180810E94E712EC0166EEB5
:1027B00075E1F80184810E94E712BE01685D7F4FD8
:1027C0004FB7F8942AA53BA5232B89F422E83BE1D7
:1027D0003BA72AA7FC012489358939A728A7758B2F
:1027E000648B4FBFDF91CF911F910F91089589E1C5
:1027F0000E942910CF93DF93EC0162E176E188819A
:102800000E94E712FC018C819D81AE81BF81F8940A
:102810004685578560897189452B462B472B79F46E
:1028200084839583A683B783828B938BA48BB58B8C
:1028300084A5877F84A77894DF91CF91089586E15E
:102840000E942910CF93DF93EC0162E176E1888149
:102850000E94E712FC018C819D81AE81BF81892B92
:102860008A2B8B2B51F480E0F89494A59D7F982BB4
:1028700094A77894DF91CF91089582E0F5CFCF931C
:10288000DF93EC0163EC76E188810E94E712F89413
:10289000FC01278D30A1232B61F44C815D816E8179
:1028A0007F81438F548F658F768F7894DF91CF919E
:1028B000089584E10E942910FC0113821282118282
:1028C000108280915E0290915F02892B41F4809189
:1028D0005D028617170614F460935D0208958EE07A
:1028E0000E9429102FB7F89480916E0290916F0288
:1028F000009749F0FC014081518150936F02409351
:102900006E022FBF08958FE00E942910CF93DF93AE
:10291000C0915902D0915A02AE01480F591F2DB7EC
:102920003EB721503F4F22273A952417350770F0C4
:1029300050935A0240935902AC0170E060E0CE011E
:102940000E942A58CE01DF91CF91089581E10E9423
:1029500029100F931F93CF93DF938C0180915E0218
:1029600090915F02892B09F049C060915D0270E08F
:10297000623028F482E080935D0262E070E0E091D2
:102980005902F0915A024DB75EB741505F4F44274C
:102990005A959F01D0E0C0E0C901860F971F4817E4
:1029A000590730F121969C01C115A4E0DA07A1F77F
:1029B0008E1B9F0B0E948614D0935F02C0935E0211
:1029C00090935C0280935B020E94DE0CF801808190
:1029D0009181A281B3818093600290936102A09360
:1029E0006202B0936302DF91CF911F910F9108951E
:1029F000C9012097E9F680E10E9429108DE00E942C
:102A00002910CF932091570230915802232B91F433
:102A1000FC01C0818C2F90E0880F991F880F991FAF
:102A20000E9486149093580280935702C0935602D6
:102A3000CF9108958AE00E942910CF93DF9390915F
:102A40005602891700F5282F30E0220F331F220F7E
:102A5000331FC0915702D0915802C20FD31F8881F3
:102A60009981892B81F480915E0290915F02892B7C
:102A700051F479836883CA010E9486149B838A83F8
:102A8000DF91CF9108958BE00E942910CF92DF92C1
:102A9000FF920F931F93CF93DF93EC0160E775E1F3
:102AA0008C810E94E7126C01F8840F2D10E0A801C0
:102AB0004D5F5F4F66E475E188810E941D15FC0142
:102AC000D182C082F2826C857D85A8010396DF9158
:102AD000CF911F910F91FF90DF90CF900C940F58E2
:102AE000FF920F931F93CF93DF938C0146E050E04A
:102AF00060E775E1FC0180810E941D15EC01F80181
:102B0000F08461E0F11060E0F80184810E94D84D0A
:102B10006A837B838C838D8191E0F11099E0892B0E
:102B20008D83DF91CF911F910F91FF90089546E023
:102B300050E060E775E1FC0180810C941D15CF9396
:102B4000DC0114969C91149730E020E005C02F5FC3
:102B50003F4F20313105B9F1C22FF901EA5AF94E40
:102B6000E4919E13F4CF87E980937A002830E8F44B
:102B700080917E0021E030E00C2E01C0220F0A94EB
:102B8000EAF7822B80937E0043E550E06FE975E120
:102B90008C910E941D15FC0187E49DE09383828344
:102BA000C28F81E0858FCF91089580917D00922F13
:102BB000977021E030E001C0220F9A95EAF7822B4E
:102BC00080937D00E1CF87E30E94291049E150E026
:102BD00066EE75E1FC0180810E941D152AE23CE051
:102BE000FC013383228328EB3FE03387228708955B
:102BF0000F931F93CF93DF93EC014DE150E068EF0B
:102C000075E188810E941D158C0168858C810E9468
:102C1000274DF801608771878287DF91CF911F91DF
:102C20000F910895EF92FF920F931F93CF93DF932D
:102C30008C014DE250E062E176E1FC0180810E946E
:102C40001D15EC01F801848518160CF045C084E0D0
:102C50008CA764E084810E94D84D6A8F7B8F8C8F13
:102C600060E0F80180850E94D84D6D8F7E8F8F8F38
:102C700080E090E0A0E0B0EC88A399A3AAA3BBA356
:102C8000F80180899189A289B3898E8B9F8BA88F47
:102C9000B98F6BE070E0CE0184960E945C148E893F
:102CA0009F89A88DB98D8997A105B10558F08CE34E
:102CB00091E19B838A83DF91CF911F910F91FF90C8
:102CC000EF9008958CA580638CA7DF91CF911F9121
:102CD0000F91FF90EF9008957E01F4E2EF0EF11C4A
:102CE000811128C06CA56470F80184810E94D84DC0
:102CF0006A8F7B8F8C8F60E0F80180850E94D84DB1
:102D00006D8F7E8F8F8F80E090E0A0E0B0EC88A385
:102D100099A3AAA3BBA3F80180899189A289B38949
:102D20008E8B9F8BA88FB98F6BE070E0C7010E94DC
:102D30005C14B5CF80E18CA760E0F80184810E942B
:102D4000D84D6A8F7B8F8C8F60E0F80180850E9460
:102D5000D84D6D8F7E8F8F8F80E090E0A0E0B0EC3B
:102D600088A399A3AAA3BBA3F80180899189A2890A
:102D7000B3898E8B9F8BA88FB98F6BE070E0C701F2
:102D80000E945C1494CFCF92DF92EF92CF93DF93A7
:102D9000EC0161E088859985AA85BB85892B8A2B02
:102DA0008B2B09F460E08C810E94D84D6B01E82EDA
:102DB00044E250E063EC76E188810E941D15FC013D
:102DC000C48AD58AE68A21E0488559856A857B854B
:102DD000452B462B472B09F420E04C855D856E85FD
:102DE0007F85452B462B472B09F02061FC0123A34F
:102DF000488959896A897B89478B508F618F728F87
:102E00006AE070E04F96DF91CF91EF90DF90CF9026
:102E10000C945C142F923F924F925F926F927F922C
:102E20008F929F92AF92BF92CF92DF92EF92FF92DA
:102E30000F931F93CF93DF9300D000D01F92CDB795
:102E4000DEB7809155028823C9F027960FB6F89413
:102E5000DEBF0FBECDBFDF91CF911F910F91FF90CD
:102E6000EF90DF90CF90BF90AF909F908F907F902A
:102E70006F905F904F903F902F90089581E08093E6
:102E800055027E012FE1E20EF11C2091A403309146
:102E9000A3033B83432F50E02317D0F40D8D1E8DE9
:102EA0000E5F1F4FF8018491840F952F911D81367D
:102EB00091059CF1ED8DFE8D3396E491421B5109F5
:102EC0004E0F511D4136510560F010925502BDCF95
:102ED0001092A3031092A40350E040E01B8220E074
:102EE000DDCF1092A3036091A403FB81F61BFB834B
:102EF000CF2ED12C70E06D5B7C4FA60183E493E074
:102F00000E9418581092A4032B812093A303809150
:102F1000C10080628093C100A601CA018D5B9C4FF5
:102F20009D838C83F8010491102F063008F480C033
:102F30009C012E5F3F4FB0E62B2EFB812F1A02150E
:102F400008F46DC1822D8550990B1C01220E331E91
:102F5000ED8DFE8D34966491ED8DFE8D3596459008
:102F600054908201ED8DFE8D85919491803891056C
:102F700008F057C1D90111968F77F9018083460E69
:102F8000511C3101FFEF6F1A7F0A0415150509F472
:102F900045C09D012E5F3F4F2216330608F495CFA2
:102FA000F80184910F5F1F4F853009F469C008F460
:102FB00090C0883008F04EC1F701C080D180460132
:102FC0000D2C000CAA08BB08A1014A1B5B0B052EA7
:102FD000000C660B770B84169506A606B70608F05C
:102FE00074CF9D012F5F3F4F3A8329838C92470115
:102FF00034E0830E911C62817381A601863009F44E
:10300000F8C089819A810E940F58A981BA81AC0DBC
:10301000BD1D74010415150509F0BBCF2A163B062A
:1030200008F453CF8C819D81A81BB90B13E01A0FB4
:10303000112309F44ACFAC81BD811C938091080211
:1030400011968C9311976DEF610FCD010E94A250E4
:103050002C813D81210F311DF901339790833196E9
:103060008083215031098EE7F9018083AB81A10F64
:10307000A093A3038091C10080628093C10025CFFB
:10308000B7016E5F7F4FF70120813181AD014F5F46
:103090005F4FF90180818823A1F02416350688F05E
:1030A0002F5F3F4FFA0104C0FA014615570549F05A
:1030B000AF014F5F5F4F8083F90181919F018111C3
:1030C000F3CFCA018A1B9B0B81508C937B01DA01E1
:1030D0005CCFF701823008F484C0819091907F0129
:1030E000B12CA12C833021F4092C000CAA08BB08B8
:1030F000FD013196FA83E983B501A401405E5F4F7B
:103100006F4F7F4F403851056105710508F45DC070
:103110003F832E83B501A401505F6F4F7F4F411550
:1031200050446105710508F469C06D0183E0C80E63
:10313000D11CB501A401685F7F4F41155105604264
:10314000710508F47EC09D012C5F3F4FB501A401BD
:103150007C5F4115510561057041C8F0B501A401BE
:10316000FCE17695679557954795FA95D1F7642FC9
:1031700060686C93BD016B5F7F4FA981BA818E81BE
:103180009F819A838983DF82CE8269019B01B50189
:10319000A401E5E17695679557954795EA95D1F7AE
:1031A000642F60686C93D90129813A81DA82C982DF
:1031B000B501A4019EE076956795579547959A9538
:1031C000D1F74068F90140831CC099818A81BA8394
:1031D000A983A92FB82F882D8F77E981FA81808361
:1031E000D4CE80809180A280B380C70104967C01F8
:1031F0007FCF89819A810E94F95707CFBF83AE8321
:10320000D901B501A40187E0769567955795479553
:103210008A95D1F74068EE81FF814083DCCF202E74
:1032200091CE2C813D812D5F3F4FFC01EE0FEF2FA2
:10323000EE1FFF0BF195E068AC81BD811296EC9317
:1032400099CEE981FA81FF83EE833A8329839D0138
:10325000D601AECF86E00E942910FF920F931F93F4
:10326000CF93DF93EC01188160E775E1812F0E9415
:10327000E7120C81F884C9852F2D3C2F402F61E087
:103280000E94D30DCF93FF921F920F931F921F9313
:1032900084EE96E19F938F930E940A178DB79EB795
:1032A00008960FB6F8949EBF0FBE8DBFDF91CF91E9
:1032B0001F910F91FF900895CF93FC01C08168EF9B
:1032C00075E18C2F0E94E712FC01F894818D3389FF
:1032D0004489558966897894A085B1859C91228519
:1032E000922321E009F420E01F922F936F935F93C4
:1032F0004F933F93869581701F928F931F92CF9328
:1033000089EF96E19F938F930E940A178DB79EB71E
:103310000C960FB6F8949EBF0FBE8DBFCF91089547
:10332000CF93FC01C08162E176E18C2F0E94E7120D
:10333000FC01F89480A191A1A2A1B3A124A5468586
:1033400057856089718924FD04C0769567955795E6
:103350004795841B950BA60BB70BB7FF07C0B0951D
:10336000A095909581959F4FAF4FBF4F7894B054E3
:10337000BF93AF939F938F931F92CF9380E097E17A
:103380009F938F930E940A178DB79EB708960FB62A
:10339000F8949EBF0FBE8DBFCF910895FC0185812B
:1033A0008F9384818F9380811F928F938EE097E11A
:1033B0009F938F930E940A170F900F900F900F907A
:1033C0000F900F900895DC012C911496ED91FC91D3
:1033D0003FB7F8942130E9F02230B1F0808190E0DD
:1033E000B0E0A0E03FBFBF93AF939F938F9387E080
:1033F00097E19F938F930E940A170F900F900F9061
:103400000F900F900F90089580819181A281B381D8
:10341000E9CF80819181B0E0A0E0E4CFCF92DF924C
:10342000EF92FF92FC01408151816281738124817E
:10343000E2E5F6E185919591A591B4914817590778
:103440006A077B0770F56A017B01C20ED11CE11C83
:10345000F11C8C159D05AE05BF0500F5841B90E0A1
:103460009A012E50384F3F932F939F938F937F93C2
:103470006F935F934F9381E397E19F938F930E94A4
:103480000A178DB79EB70A960FB6F8949EBF0FBE67
:103490008DBFFF90EF90DF90CF900895822F90E046
:1034A000DFCF90E080E0DCCFCF92DF92EF92FF920F
:1034B0000F931F930E943D4F9F938F937F936F9322
:1034C000C12CD12C7601C39400916802109169023D
:1034D00020916A0230916B0260177107820793078F
:1034E00018F0C12CD12C76014091640250916502F4
:1034F0006091660270916702D701C601840F951F23
:10350000A61FB71FBF93AF939F938F9383E297E15B
:103510009F938F930E940A178DB79EB70A960FB696
:10352000F8949EBF0FBE8DBF1F910F91FF90EF903B
:10353000DF90CF9008950E943D4F9F938F937F938C
:103540006F938CE197E19F938F930E940A170F90DE
:103550000F900F900F900F900F90089580915E0242
:1035600090915F029F938F9321E030912802311157
:1035700001C020E01F922F93209163022F9320918E
:1035800062022F93209161022F93209160022F936A
:1035900021E0892B09F420E01F922F9385E197E128
:1035A0009F938F930E940A178DB79EB70C960FB604
:1035B000F8949EBF0FBE8DBF089584E00E9429102D
:1035C0000F931F934FB7F894E0912202F0912302DA
:1035D000E817F90729F420C028173907B9F0F901CD
:1035E0002081318121153105B9F7209124023091D4
:1035F00025022817390731F482E192E090932502E1
:10360000809324024FBF1F910F910895DC012D91EB
:103610003C9131832083E9CFDC0114960D911D91FB
:103620002D913C911797009304021093050220936B
:103630000602309307022D913C91309301022093B2
:10364000000220E032E03093230220932202CDCF0B
:10365000EF92FF921F93CF93DF937C01FC011081C7
:1036600066EE75E1812F0E94E712EC01F894F701F4
:1036700064810E94830FCE010E94E01ACE01089659
:103680000E94E01A1E8A8F8978941F921F921F92BF
:103690001F921F928F931F921F921F921F9382EF70
:1036A00096E19F938F930E940A178DB79EB70C9651
:1036B0000FB6F8949EBF0FBE8DBFDF91CF911F91C3
:1036C000FF90EF900895CF93DF93EC010E94E01AF2
:1036D000CE0108960E94E01AEC89FD89309751F0DE
:1036E000908181811382128211821082E92FF82F3A
:1036F0003097B1F71D8A1C8A188E1F8A1E8ADF91A7
:10370000CF910895CF92DF92EF92FF920F931F9384
:10371000CF93DF938C01EC01A897CE010E94E01AB1
:103720001C821D821E821F821A8A1B8A1C8A1D8A85
:1037300048A159A16AA17BA18CA5CE84DF84E88829
:10374000F98884FD04C0F694E794D794C7944C1983
:103750005D096E097F09CC24DD247601C41AD50ADF
:10376000E60AF70A77FD02C0B701A60148A359A3EC
:103770006AA37BA31E861F86188A198A84738860B1
:103780008CA76D8D7E8D8F8D40E00E94B64D4CA52F
:1037900044FF27C045FD25C0D8011497ED91FC9149
:1037A00011973097A9F040916E0290916F0201C07D
:1037B000F9012081318140839183F0936F02E0937E
:1037C0006E024E2F9F2F2115310591F71D921C92ED
:1037D000DF91CF911F910F91FF90EF90DF90CF90ED
:1037E000089544706A8D7B8D8C8D0E94B64DD4CF28
:1037F000AF92BF92CF92DF92EF92FF921F93CF933F
:10380000DF93DC011496CD90DD90ED90FC9017973E
:103810001FB7F894C0912202D09123022F2D4C8122
:103820005D816E817F818F2DC416D506E606870BDC
:1038300087FD1FC0FE010990D881C02D4C815D819C
:103840006E817F81922FC416D506E606970B97FFEF
:10385000F1CF1196DC93CE93B183A0831FBFDF918C
:10386000CF911F91FF90EF90DF90CF90BF90AF90DE
:1038700008955D010E943D4F2F2DC616D706E8061C
:10388000290B27FD25C082E0C030D80741F1F501A2
:10389000D183C083C0920402D0920502E092060256
:1038A000F0920702B0920102A092000280E092E042
:1038B000909323028093220280918400909185004E
:1038C000C296909389008093880082E086BBC6CF21
:1038D000809128028111D7CF83E00E942910809126
:1038E000000290910102F50191838083D3CF0F9361
:1038F0001F93CF93DF938C016FE975E1FC01808109
:103900000E94E712EC010E94E01A909109028A8D50
:10391000981303C08FEF80930902F8018481958189
:10392000A681B781888B998BAA8BBB8B8C839D8357
:10393000AE83BF8380859185A285B3858C879D8763
:10394000AE87BF8784858E8F91E0980F9D8F4089C9
:10395000518962897389488759876A877B879489E7
:103960009F8F18A2208D318D3F8B2E8B248D358D0E
:10397000398F288F20A12C8F882349F0913360F450
:10398000CE01DF91CF911F910F910C94F81BDF9125
:10399000CF911F910F9108958AE10E942910EF9213
:1039A000FF920F931F93CF93DF938C0166EE75E127
:1039B000FC0180810E94E712EC01F8948E8980FF5F
:1039C00013C07E01F8E0EF0EF11CC7010E94E01A5F
:1039D000F80184819581A681B7818C879D87AE8708
:1039E000BF87C7010E94F81B7894DF91CF911F9188
:1039F0000F91FF90EF9008950F931F93CF93DF9354
:103A00008C0166EE75E1FC0180810E94E712EC01F9
:103A1000F8940E94631B81E08E8BF801848195816C
:103A2000A681B7818C839D83AE83BF83808591857A
:103A3000A285B385888B998BAA8BBB8B892B8A2B0C
:103A40008B2B19F0CE010E94F81BF8018485888F1A
:103A50007894DF91CF911F910F9108950F931F9349
:103A6000CF93DF938C0168EF75E1FC0180810E94A8
:103A7000E712EC010E94E01AF80184819581A68189
:103A8000B7818C839D83AE83BF8380859185A2851A
:103A9000B3858F87988BA98BBA8B84858A8F88236F
:103AA00059F140895189628973894B875C876D8799
:103AB0007E8729EF3FE03B832A838B8F848995891A
:103AC000A689B789892B8A2B8B2BA1F482E0898F59
:103AD00066EE75E1F801808D0E94E712988F8F8B5A
:103AE000F801848D8C8FCE01DF91CF911F910F91C2
:103AF0000C94F81B83E0EBCF188E1F8A198EDF9190
:103B0000CF911F910F9108950F931F93CF93DF9340
:103B10008C0162E176E1DC018C910E94E712EC01FC
:103B20000E947214FC01D80114964D915D916D9123
:103B30007C911797428353836483758318968D9184
:103B40009C91199791878087892B09F464C01C96F2
:103B50008D919C91978386831286F8948CA5282F4B
:103B6000217081FB992790F9291729F091E0892785
:103B70009285916092874E855F8568897989452B0A
:103B8000462B472B59F583FD19C08CA71182108253
:103B90008CA19DA1892BD1F1AEA1BFA1ED93FC9386
:103BA000FFA3EEA3CE010E943310CE010E94F81BAA
:103BB0007894DF91CF911F910F91089580916E02BB
:103BC00090916F0291838083F0936F02E0936E0275
:103BD0007894DF91CF911F910F9108958CA7118256
:103BE00010828CA19DA1892B61F0AEA1BFA1ED93A4
:103BF000FC93FFA3EEA37894DF91CF911F910F91D7
:103C00000895FFA3EEA3FDA3ECA3D2CFFFA3EEA3E1
:103C1000FDA3ECA3C7CF87E10E9429108F929F924A
:103C2000AF92BF92EF92FF920F931F93CF93DF93C8
:103C30008C0163EC76E1FC0180810E94E712EC01CB
:103C40000E94E01A8F8D98A1892B09F057C0F801C6
:103C5000E4801BA101E0EE2049F16C897D898E8909
:103C6000402F0E94B64DF12FF071FF2E81E0E11040
:103C70001BC01295117091E01927811741F08F89AF
:103C8000988DA98DBA8D892B8A2B8B2B89F40F29BE
:103C90000BA3DF91CF911F910F91FF90EF90BF90F9
:103CA000AF909F908F90089580E0E3CF00E0D5CF54
:103CB0000E943D4F8F88988CA98CBA8C860E971ED7
:103CC000A81EB91E888A998AAA8ABB8A8C829D827C
:103CD000AE82BF8280EC91E19B838A830460F02AEC
:103CE000FBA2CE01DF91CF911F910F91FF90EF903A
:103CF000BF90AF909F908F900C94F81B82E10E9430
:103D00002910CF92DF92EF92FF920F931F93CF93E0
:103D1000DF938C0163EC76E1DC018C910E94E71269
:103D2000EC010E947214FC01D8011496CD90DD9034
:103D3000ED90FC901797C282D382E482F5821896A8
:103D40004D915D916D917C911B9746835783608760
:103D50007187F894118210828F8D98A1892B81F040
:103D6000A9A1BAA1ED93FC93FAA3E9A37894DF91FA
:103D7000CF911F910F91FF90EF90DF90CF9008951A
:103D8000FAA3E9A3F8A3EF8F8BA182FD25C0C88A0F
:103D9000D98AEA8AFB8A982F94609BA381FD10C080
:103DA000CE010E94E01ACC82DD82EE82FF8280EC9E
:103DB00091E19B838A83CE010E94F81B7894D7CF30
:103DC0004C815D816E817F81872F4C155D056E056D
:103DD0008F0987FDF3CFE4CF488959896A897B89A8
:103DE000972F4C155D056E059F0997FFD0CF83E196
:103DF0000E942910CF93DF93CDB7DEB7CD54D10900
:103E00000FB6F894DEBF0FBECDBF0E943D4F28967F
:103E10006CAF7DAF8EAF9FAF289780912602811146
:103E2000F2C481E08093260280916C02882309F419
:103E300042C010926C028FEF89839E012F5F3F4F2B
:103E4000190102EF16E166EE75E1C1010E94A90CAD
:103E50007C01892B81F1D70156968C9182FFF3CF9B
:103E60000E943D4FF894F70137892689422F4B7FF6
:103E7000468B78949F938F937F936F931F923F937A
:103E800021701F922F9389811F928F931F930F93FD
:103E90000E940A172DB73EB7245F3F4F0FB6F89424
:103EA0003EBF0FBE2DBF66EE75E1C1010E94A90C99
:103EB0007C01892B81F680916D02882369F1109233
:103EC0006D028FEF8983AE014F5F5F4F1A014BEE9A
:103ED000C42E46E1D42E6FE975E1C1010E94A90C00
:103EE0008C01892BC9F0D8015D969C915D975E96F7
:103EF0008C915E979813EFCFF894F801858D968D8D
:103F0000891709F4EDC478946FE975E1C1010E9445
:103F1000A90C8C01892B39F780917002882321F13B
:103F2000109270028FEF89839E012F5F3F4F19011E
:103F300006ED16E164E87CE3C1010E94A90C00973C
:103F400099F0DC0158962C9158972F3F99F7F894E7
:103F5000FC012685211179C4789464E87CE3C101D1
:103F60000E94A90C009769F7809171028823E1F102
:103F7000109271028FEF8983AE014F5F5F4F1A017C
:103F80000FEC16E164E27AE3C1010E94A90CFC0186
:103F9000892B51F1868583FFF5CFF8948685877F3D
:103FA00086877894CF014A969F938F9380898695D0
:103FB000869586951F928F9389811F928F931F9369
:103FC0000F930E940A176DB77EB7685F7F4F0FB6D9
:103FD000F8947EBF0FBE6DBF64E27AE3C1010E9418
:103FE000A90CFC01892BB1F680917202882309F497
:103FF00048C0109272028FEF8983CE0101961C0196
:1040000001EC16E160EF77E3C1010E94A90CFC010D
:10401000892BB9F1848D80FFF5CFF89494812581A7
:1040200036814781548965897689A789B08DF18C5D
:10403000E28CD38C848D8E7F848F7894DF92EF9284
:10404000FF92BF93AF937F936F935F934F933F9391
:104050002F939F9389811F928F931F930F930E9499
:104060000A17ADB7BEB750960FB6F894BEBF0FBED5
:10407000ADBF60EF77E3C1010E94A90CFC01892B61
:1040800049F680917302882309F456C01092730296
:104090008FEF8AABFE01F2961F013FE0832E6CEB9F
:1040A0007BE3C1010E94A90C5C01892B09F444C087
:1040B000D50159968C91599780FFF1CFF894F5016D
:1040C0004480558066807780818D8E7F818F789443
:1040D00058968C915897813011F40C946E2810F4F6
:1040E0000C944E28823011F40C949E288330B9F63B
:1040F000CAA819821A829E012F5F3F4F42E061E0F9
:10410000848995890E94D30D09811A81102701277E
:104110001027F02FF670EF2E30E020E0B301A2015F
:10412000C5010E94ED426CEB7BE3C1010E94A90C2A
:104130005C01892B09F0BCCF809174028823F9F0CF
:10414000109274028FEF8AAB8E010E5C1F4F180124
:1041500089E0A82E0153110992EFB92EDD24DA94DB
:1041600006C0D7011E968C911E9780FD1FC663ED79
:1041700077E3C1010E94A90C7C01892B91F7809102
:104180007502882341F1109275028FEF8DABFE010D
:10419000F5967F0180E3782E8824839498E2592E47
:1041A0008E010F5F1F4F580128EA922E31E3432EF4
:1041B00048EE342E5FE2252E06C0D6011F968C9164
:1041C0001F9780FD33C666E77BE3C7010E94A90CF9
:1041D0006C01892B91F780917602882341F110922E
:1041E00076028FEF8DABFE01F5967F01E0E37E2E28
:1041F00088248394F4E29F2E8E010F5F1F4F580195
:10420000A1E35A2EB4EA4B2E12E2312E02EA202EFE
:1042100006C0D6011F968C911F9780FD2BC66BE3BD
:104220007BE3C7010E94A90C6C01892B91F7809157
:1042300077028823D1F0109277028FEF8DABFE01C9
:10424000F5967F0164E7A62E72E7B72E06C0D60169
:1042500052968C91529780FD35C664EB77E3C70187
:104260000E94A90C6C01892B91F780917802882318
:10427000D9F0109278028FEF8DAB8E010B5C1F4F3F
:10428000780132E7A32E40E7B42E06C0D60152963D
:104290008C91529780FD49C66DE877E3C7010E9473
:1042A000A90C6C01892B91F7809179028823B9F0D0
:1042B000109279028FEF89838E010F5F1F4F1801D3
:1042C00006C0D80119968C911997811161C669E0D1
:1042D0007BE3C1010E94A90C8C01892B91F780918D
:1042E0007A028823B1F010927A028FEF89838E01CF
:1042F0000F5F1F4F180105C0D8011D96FC90F0FC00
:10430000F5C369E77AE3C1010E94A90C8C01892BEE
:1043100099F780917B028823B9F010927B028FEF8E
:104320008AAB8E010E5C1F4F180106C0D801519652
:104330008C9151978111C4C467E677E3C1010E9453
:10434000A90C8C01892B91F780917C02882309F1BB
:1043500010927C028FEF8AAB8E010E5C1F4F18010A
:1043600052E1E52E9E012F5F3F4F690139013FEF7A
:10437000631A730A06C0D80151968C915197811126
:1043800052C363E87DE4C1010E94A90C8C01892B12
:1043900091F780917D02882309F498C010927D02E4
:1043A0008FEF8AABFE01F2961F0177247A9467EDB6
:1043B0007AE4C1010E94A90C7C01892B09F486C012
:1043C000D7011E968C9180FFF2CF6AA8BE016F5F65
:1043D0007F4FC7010E942A569C01F894F7019685E9
:1043E0009E7F96877894232B09F004C3898183FFED
:1043F000DECFA388B12C6501F4E1CF0ED11CCE0C29
:10440000DF1CD7011C968D919C911BAA860122E08E
:10441000AE014D5C5F4F61E00E9447444C01F701E3
:104420008485958521E02CAB0E5F1F4F22E0AE0105
:104430004C5C5F4F61E00E94474488299929892B91
:1044400011F00C94F82BF701EA0DFB1D4489F601DD
:104450001181F701E65BFF4F808191814F3F11F49D
:104460000C94862C50E070E060E0742F662755278E
:104470004427F6012381422B612B2281522B8A0192
:104480009B01002711272227307E012B022B032BB3
:1044900011F40C94132C60E00E941155D70153962F
:1044A0008C9153978C5F53968C93803308F47FCF15
:1044B000662DC7010F960E94A25567ED7AE4C101EF
:1044C0000E94A90C7C01892B09F07ACF80917E0291
:1044D000882309F47FC010927E028FEF8AABFE0121
:1044E000F2961F018E010A5F1F4F1FAB0EAB9E019C
:1044F0002D5F3F4F39AF28AFAE01475F5F4F5BAFD6
:104500004AAF66EB7BE4C1010E94A90C2C01892B08
:1045100009F460C0D2011E968C9182FFF2CFF8940C
:10452000F20184809580A680B780F1881686118A72
:10453000789480859185A285B385881A990AAA0AFC
:10454000BB0A82010E5E1F4F68011F2D1150A8F09B
:10455000D20156968C91F201E80FF11DBFEFB78B97
:10456000108E118E8D5FF201868B813378F36AA9EC
:10457000C6010E94A255115058F7F12ED2011F9684
:10458000DC90DD2009F402C2B1E0DB1609F4D7C3E8
:10459000F2E0DF1611F40C94F82AF3E0DF1611F4C0
:1045A0000C947A2BB4E0DB1611F40C94182CF20165
:1045B0007689713308F4A5CF6AA9C20142960E9498
:1045C000A25566EB7BE4C1010E94A90C2C01892B4A
:1045D00009F0A0CFA89580918102882329F080E47A
:1045E0008093600010928102E0904203EE2009F473
:1045F00075C080913002182F80FD16C034E03E1542
:1046000008F06CC0809082029BEF980D9C3308F0FC
:1046100047C7F09083029F2D907F903109F41CC70B
:10462000182F1160109330024E2D50E06EE770E0AD
:1046300082E892E00E940258009741F01E7F10939A
:10464000300282589240EE24E394E80E11FD5BC7DD
:104650001260109330028BEE97E09F938F930E942D
:104660000A170F900F908E2C1FEF90E0C82CD12CC2
:1046700000914203F02EF81891F0892F90E04F2D11
:1046800050E0481B590BB601680F791F6E577D4FDC
:104690008E579D4F0E941858109226029F2D8FB75B
:1046A000F89420914203021761F08FBF00914203FA
:1046B000F02EF81811F78FB7F894209142030213E7
:1046C000F4CFF09242038FBF113041F48BEE97E0AC
:1046D0009F938F930E940A170F900F900E943D4F57
:1046E0004B015C0128960CAD1DAD2EAD3FAD28975A
:1046F000601B710B820B930BC0903902D0903A0271
:10470000E0903B02F0903C021FEFC11AD10AE10A8F
:10471000F10AC0923902D0923A02E0923B02F09242
:104720003C02409035025090360260903702709003
:104730003802460E571E681E791E4092350250926E
:10474000360260923702709238026115710521E0DD
:104750008207910508F09AC000913102109132024F
:1047600020913302309134020CAF1DAF2EAF3FAF1A
:104770009B01AC010E94FF56DC01CB0181509F4F91
:10478000AF4FBF4F892F9A2FAB2FBB270CAD1DAD5D
:104790002EAD3FAD800F911FA21FB31F0CAD1DADFD
:1047A0002EAD3FAD80179107A207B30718F48FEF26
:1047B0009FEFDC018093310290933202A093330289
:1047C000B0933402409168025091690260916A028C
:1047D00070916B0295018401041B150B260B370B9E
:1047E000B901A8014115544B644C744008F0E7C46A
:1047F00028968CAE9DAEAEAEBFAE289780912602B5
:10480000882309F40ECB0E943D4F2896CCACDDAC3A
:10481000EEACFFAC2897C61AD70AE80AF90AF89452
:104820008091260281110C94EA2B78940E943D4FCE
:1048300097018601060F171F281F391F28960CAFF6
:104840001DAF2EAF3FAF2897ECCA59963C915997B0
:1048500058963C937894AC01415F5F4F5F934F93C0
:104860001F922F9387891F928F9389811F928F9315
:104870001F930F930E940A172DB73EB7265F3F4F35
:104880000FB6F8943EBF0FBE2DBF54CB6115710516
:1048900010E18107910508F08ACF00913102109153
:1048A000320220913302309134020CAF1DAF2EAF93
:1048B0003FAF9B01AC0121503F4F4F4F5F4F232F24
:1048C000342F452F55270E94FF560CAD1DAD2EAD40
:1048D0003FAD060F171F281F391FD901C8015ECF32
:1048E0005496ED90FC9055975096BC9050975196E9
:1048F000AC90519752969C90529753968C905397A8
:104900008F5F5D968C937894A70170E060E0EF5A1A
:10491000FF4F808191810E94C750D8019096EC9101
:104920009097E00FF12FF11DE1A2F2A290968C91E9
:1049300090978E5F90968C939097282F30E02F5F02
:104940003F4F5F969C919217130611F00CF0C3CA6B
:1049500098012F5D3F4F3F932F931F928F938F921C
:104960009F92AF92BF9289811F928F93DF92CF92D5
:104970000E940A17F80110A20DB71EB7045F1F4F5F
:104980000FB6F8941EBF0FBE0DBFA5CA82E3898380
:104990001A820E943D4F6CAF7DAF8EAF9FAF9E01DC
:1049A0002F5F3F4F42E061E0F201848595850E94D0
:1049B000D30D0E943D4F0CAD1DAD2EAD3FAD601B24
:1049C000710B820B930B613273408105910508F0E6
:1049D000E4C1298127FFD6C6D20156967C91F20107
:1049E000E70FF11DF78A83E0808F118E7D5FF20162
:1049F000768BDFCD61E0E65BFF4F808191810E9485
:104A00001155D70153968C9190E0FC017496EE0DF0
:104A1000FF1D8E0D9F1DDC0154967C9271821282C7
:104A200081E083833BCDFAA855966C915597B62EBD
:104A3000BB0CB60EF6012E2D11922A95E9F746E031
:104A40004B0D960161E01F968D919C910E94D30DB4
:104A5000D80151961C92A3E0AB0D62E06B0D8FEF75
:104A60009FEFAA2321F1F601660D772D711D8FEFBF
:104A70009FEF21912927322F32953F702327422F14
:104A800050E0382FCA01982F88279295907F2827C9
:104A90003927CA01880F991F82959295907F982790
:104AA000807F9827822793276E177F0711F72A2F79
:104AB00030E0F601E20FF31F4081E2E0F0E0EC0F9E
:104AC000FD1F2E0F3F1FD9012C91342F8217930702
:104AD00009F009C6898182FF28C581E0F801838B2E
:104AE00042E06F2DC8010E94D6564BCCE980F801F8
:104AF0003F962A96FFAFEEAF2A973801F5E16F0E89
:104B0000711CF2FE8EC448E1B3012A968EAD9FADB2
:104B10002A970E9438412E966CAF7DAF8EAF9FAF23
:104B20002E9745E0B3012A968EAD9FAD2A970E943D
:104B30003841D8011C968C911C9790E09B6C9C018D
:104B4000990F440B550B24962CAF3DAF4EAF5FAF82
:104B5000249752966D917D918C9140E00E94C54DB5
:104B6000280132E1430E511C80E2C82ED12C812C49
:104B700090E8992EAA24AA94BA2C41E024968CADF0
:104B80009DADAEADBFAD249788219921AA21BB214F
:104B9000892B8A2B8B2B09F440E0D2016D917D91FA
:104BA0008C910E94B64DF894F301608171818281ED
:104BB00041E00E94B64D000000000000000000002F
:104BC00000000000000000000000D3016D917D9105
:104BD0008C9140E00E94B64D7894B694A794979437
:104BE0008794B1E0CB1AD10809F0C7CFF8016785E7
:104BF0007089818940E00E94104D41E0B3012A96FE
:104C00008EAD9FAD2A970E943841F894D8011D9629
:104C10009C918F2D892BB82FB470FB2E82FD16C46A
:104C20009C7FF80195877894F1106BCB2B962FAD74
:104C30002B972E964CAC5DAC6EAC7FAC2E977694D9
:104C4000679457944794769467945794479467FE73
:104C500002C077247A94982F987020FDACC59923D0
:104C600009F46EC621FD63C7F894D8011D968C9196
:104C70001D97877F84601D968C937894E3E0DE2EE9
:104C80006D2DF801E05BFF4F808191810E941155ED
:104C900090E020E0D8015C968C91F801E80FF11DBE
:104CA000F58E268F978FD0A28C5FF801848F80338A
:104CB00008F427CB6E2DC80148960E94A25521CB3F
:104CC000BAA819821A821B829E012F5F3F4F43E0D0
:104CD00061E01F968D919C910E94D30DF801118A7D
:104CE0008981CA80D12CF12CE12CFE2CED2CDC2CFE
:104CF000CC24E82A8B81C82AE7FE02C0FF24FA945C
:104D0000B701A601F801E55BFF4F808191810E9408
:104D1000C750D80157968C91F801E80FF11DC08E4D
:104D2000D18EE28EF38E8C5FF801878B803308F48E
:104D300003CB6B2DC80143960E94A255FDCA8FE795
:104D400089838EEF8A830E943D4F24966CAF7DAF9E
:104D50008EAF9FAF24979E012F5F3F4F42E060E0F0
:104D6000F201848595850E94D30D0E943D4F6CAF62
:104D70007DAF8EAF9FAFDC01CB0124960CAD1DAD96
:104D80002EAD3FAD2497801B910BA20BB30B81324C
:104D90009340A105B10508F48AC3D20156967C91CF
:104DA000F201E70FF11DF78A82E01ECECAA8F801D2
:104DB0002A2D11922A95E9F7B982980149E061E01C
:104DC0001C968D919C910E94D30DD70153968C9186
:104DD00090E0FC017496EE0DFF1D4B81242F207F87
:104DE00009F449C2203F09F446C2D482D382D28258
:104DF000D1828E0D9F1DFC01D48AD70153968C91D0
:104E000053978B5F53968C938F3228F06C2DC7018C
:104E10000F960E94A255D7011E968C911E978E7FE9
:104E20001E968C93C7010E94A142A1C96DA81E962F
:104E30008C911E9751969C915197903308F472C2B1
:104E4000882309F49DC5813009F44CC6D6015696D5
:104E50007C92662DC60142960E94A255F601818978
:104E60008053818B803308F474C2109226028092A2
:104E70007502A9C96DA81E969C911E9750962D91FA
:104E80003C9151972033310508F4A0C3992309F4CC
:104E9000B7C5913009F460C6D60156967C92662D4E
:104EA000C60142960E94A255F60180899189C09759
:104EB000918B808BC09708F40FC5109226028092C8
:104EC0007602ADC99DA81C968D919C911D97509618
:104ED0002D913C912033310508F447C2A982860107
:104EE000085E1F4F20E3AE014F5F5F4F61E00E94FD
:104EF00047440E94594680E3F601878B8089918957
:104F0000C097918B808B692DC60143960E94A25554
:104F1000D60150968D919C91C09708F44BC2109287
:104F2000260281E08093770298C99DA81C968D91F6
:104F30009C911D9750962D913C912033310508F49A
:104F400042C2A9828601085E1F4F20E3AE014F5F77
:104F50005F4F61E00E9447440E94594680E3F6019A
:104F6000878B80899189C097918B808B692DC60131
:104F700043960E94A255D60150968D919C91C09760
:104F800008F446C21092260281E08093780284C918
:104F9000F9801896EC9018972E2D30E052960D90CF
:104FA000BC91A02DF801D488858896889789295EC0
:104FB0003F4F40E050E0BA01AF2CBD2CF4019E2CD5
:104FC000F89490830000000090838C917894440FB3
:104FD000551F661F771F8B21C12CD12C7601C394DE
:104FE000811103C0C12CD12C76014C295D296E2979
:104FF0007F292150310920F7FA2CE92CF894D801A7
:1050000019962C91199719961C9278944A015B0174
:105010000E2C04C0B694A794979487940A94D2F760
:10502000A7FE02C0BB24BA9444244394512C01C06F
:10503000440CEA94EAF74A94512C712C612C4421D7
:10504000552166217721441655066606770609F430
:105050005DC220E030E040E050E8D8011E962D937C
:105060003D934D935C93519740E830E020E090E011
:10507000D8015C968C91F801E80FF11D958F268F71
:10508000378F40A38C5FF801848F803308F41FC9E9
:105090006F2DC80148960E94A25519C9CAA8198245
:1050A0001A821B821C829E012F5F3F4F44E061E009
:1050B000848995890E94D30D69817A818B819C8135
:1050C0000E940F57F62FF770EF2E8B019C01B30152
:1050D000A201C5010E94ED420C944F209AA80CE059
:1050E00009831A821B821C829E012F5F3F4F44E07E
:1050F00061E054968D919C910E94D30D69817A81D3
:105100008B819C810E940F576B017C0189821A82DE
:105110009E012F5F3F4F42E061E0F5018489958950
:105120000E94D30D970186013327C92CEA80B30171
:10513000A201C5010E94ED420C944F20CAA881E053
:1051400089831A821B821C829E012F5F3F4F43E09E
:1051500061E054968D919C910E94D30D69817A8172
:105160008B819C810E940F57672F782F892F992759
:105170008B019C01222733270CAF1DAF2EAF3FAF11
:1051800017E019831A829E012F5F3F4F42E061E0D2
:10519000D50154968D919C910E94D30D8A818C7F6C
:1051A000BCADB170EB2EE82A0CAD1DAD2EAD3FAD00
:1051B000B301A201C5010E94ED420C944F20BF93A0
:1051C000AF939F938F937F926F925F924F92FF92D4
:1051D000EF92DF92CF928AE297E19F938F930E94A2
:1051E0000A172DB73EB7225F3F4F0FB6F8943EBF68
:1051F0000FBE2DBF8091680290916902A0916A0252
:10520000B0916B0288169906AA06BB0698F48091A5
:10521000640290916502A0916602B09167020196C6
:10522000A11DB11D8093640290936502A093660254
:10523000B09367028092680290926902A0926A021B
:10524000B0926B021092310210923202109233022D
:1052500010923402109235021092360210923702E8
:10526000109238021092390210923A0210923B02C8
:1052700010923C02BDCA5D81252F207F19F0203F8E
:1052800009F0B3CD2F81322F307F19F0303F09F074
:10529000ACCD3885303909F0A8CD3985932EE89406
:1052A00097F8B0E2B91508F4A0CD30E08E0D9F1D3F
:1052B0006A81DC0154966C938C8181838E81828318
:1052C000842F8F71B901660F771F62957295707F79
:1052D0007627607F7627862B8383220F331F220F4A
:1052E000331F2076852F8F71822B8483F70183896A
:1052F0008B5F838B8F3208F011C6FEE1F91508F041
:1053000007C6D70151968D919C915297019652965E
:105310009C938E9351971092260281E080937402A1
:105320000C94B7201AAA882309F448C3813009F4E1
:1053300031C450968C91813009F4C7C380E08F73DB
:10534000982F990F890F880FF601818B803308F011
:10535000C7C3D6011F968C911F978E7F1F968C9383
:10536000C6010E9454420C94E320BAAA8E010F5F3A
:105370001F4F22E0AE014E5C5F4F61E00E94474448
:105380000E945946898190E0982F882788279F712D
:105390002A81822BF601268537852817390710F4D4
:1053A00097878687D60151969C938E935097C09786
:1053B0000CF03AC4F60182898E7F828BC6010E946E
:1053C00085410C942D21BAAA8E010F5F1F4F22E058
:1053D000AE014E5C5F4F61E00E9447440E94594617
:1053E000898190E0982F882788279F712A81822BB6
:1053F000F601268537852817390710F497878687A1
:10540000D60151969C938E935097C0970CF010C480
:10541000F60182898E7F828BC6010E9485410C94A1
:105420004C214BE1B3012A968EAD9FAD2A970E9485
:1054300038419B01AC0156954795379527952E9697
:105440002CAF3DAF4EAF5FAF2E97DFCB987F98600C
:10545000D8011D969C93E7CBE81408F43FC9282D8A
:1054600030E0F901EF57FD4F90819E3709F0D8C821
:10547000890101581D4F580120583D4FD9018C9189
:10548000F8010081102F082F6DEF680D82E892E07F
:105490000E94A2500817190709F4D6C3809082020F
:1054A0004EE7841609F4BBC380913002B9C880EC82
:1054B00089831A829E012F5F3F4F42E061E0D20153
:1054C0001C968D919C910E94D30D99812A81892FE0
:1054D0008227382F32953F708327382F369536959F
:1054E0008327382F3695832780FF11C3F2017689F1
:1054F000E70FF11DF78A83E0808F118E7D5FD20167
:1055000056967C9356C88E2C1FEFAFC821FFE6C17C
:1055100020E030E040E050E4D8011E962D933D930A
:105520004D935C93519740E4A0CDD80153968C9154
:105530008111D6CAF80184898F5F982F990F890F3E
:1055400090E0F601E80FF91F8080912CB12CA12C7E
:10555000540199248824E3E0F0E0EC0FFD1FE80FEC
:10556000F91F2081822A22E030E02C0F3D1F820F9C
:10557000931FDC018C91982AA7FE02C0BB24BA9429
:10558000B501A401F801E25BFF4F808191810E9487
:10559000C750F801828DE80FF11D838E948EA58E81
:1055A0008B2CBB2487FCB0949B2CAB2C868E8C5F01
:1055B000D8015A968C93803310F40C94C1216F2D2E
:1055C000C80146960E94A2550C94C121992309F462
:1055D00030C2913009F4F4C2F601118A108A8E7F2C
:1055E000D6011F968C93C6010E9406420C940F218F
:1055F000D2011C96ED91FC9104816280738040E0A1
:10560000B301802F0E94B64D0E943D4F6B017C017B
:10561000B0E1CB0ED11CE11CF11C1F2D0E943D4FAF
:10562000212FC616D706E806290B27FFF7CFF894D7
:1056300041E0B301802F0E94B64D0E943D4F6B01A7
:105640007C01789488E0E8ADF9AD11928A95E9F78C
:1056500084E8898383E28A839E012F5F3F4F4AE07B
:1056600061E0D2011C968D919C910E94D30DFE01A8
:10567000339665E08191682788E090E003C0660F6B
:10568000019739F067FFFBCF660FBDE16B270197EC
:10569000C9F70AAD1BADE017F10761F7D2015696C5
:1056A0007C91872F90E0AC014F5F5F4F9C012E5F94
:1056B0003F4F7D5F6095EA856E1709F451C1840DF7
:1056C000951D0FEFFC01078B440D551D83E0DA019A
:1056D00057968C93240D351DF901178AD2015696E1
:1056E0007C930C94D92241E06F2DC8010E94D656BC
:1056F0000C94C12183E889831A821B820E943D4F4A
:105700006CAF7DAF8EAF9FAF9E012F5F3F4F43E0E9
:1057100061E0D2011C968D919C910E94D30D0E9454
:105720003D4FAB01BC01DC01CA010CAD1DAD2EAD7E
:105730003FAD801B910BA20BB30B81329340A105AF
:10574000B10508F02ACBEA809B818E2D8927282F6E
:1057500022952F708227282F269526958227282F7D
:105760002695822780FFA0C1D20156967C91F20136
:10577000E70FF11DF78AD08E118E7D5FF201768BD7
:105780000C94D9228A8190E0880F991F30E0322F43
:105790002227330F7C01E22AF32A0CAD1DAD2EAD7A
:1057A0003FADB501A401C2010E94C855D201569671
:1057B0007C910C94D922DD24D394992309F460CAF6
:1057C000F894F8018585877F846085877894DD2447
:1057D000D39456CA8FEF8093270280932602789441
:1057E0000000F894809126028111F9CF0C941524C1
:1057F00062E0F701E65BFF4F808191810E941155C5
:10580000D70153968C9190E0FC017496EE0DFF1D2C
:105810008E0D9F1DDC0154967C927182128282E073
:1058200083830C944E227F700E94C7500C944E22AA
:1058300086E0EAE2F2E0DE01119601900D928A958F
:10584000E1F70E943D4F6CAF7DAF8EAF9FAF9E01E1
:105850002F5F3F4F46E061E0D2011C968D919C91F5
:105860000E94D30D0E943D4FAB01BC01DC01CA0177
:105870000CAD1DAD2EAD3FAD801B910BA20BB30B3C
:1058800081329340A105B10508F087CAFE01339625
:1058900080E09191892728E030E004C0880F2150F2
:1058A000310941F087FFFACF880F07E080272150A8
:1058B0003109C1F72EA93FA92E173F0751F79E8145
:1058C000981709F45BC1D20156967C91F201E70F5B
:1058D000F11DBFEFB78B87C8878581CEF80146855C
:1058E000578560897189411551056105710509F078
:1058F00091C1B501A401E05BFF4F808191810E94BD
:10590000C750982D292D3A2D4B2DB2CB1F3F11F0AA
:105910000C94322263E00E941155D70153968C916A
:1059200090E0FC017496EE0DFF1D8E0D9F1DDC01B5
:1059300054961C931183128283E083830C944E222D
:1059400081FD19C1B301A201F801E05BFF4F808125
:1059500091810E94C750F42C252D962DD72C9AC9E1
:10596000698564FF83C0EB81E7FDA7C2840D951DA7
:10597000EFEFDC015796EC93440D551D84E0A7CE64
:10598000D501E42D1D92EA95E9F79982D60150964A
:105990008C91813009F43982950141E361E0F6018F
:1059A000848595850E94D30D80E3FE013296D60151
:1059B000579601900D928A95E1F748CABFEAB983DC
:1059C0001A82950142E061E0F601848595850E9486
:1059D000D30D8A818AAB86FF07C0F60124893589F9
:1059E0002F5F3F4F358B248BD60150969C9150975B
:1059F000913009F0A4CC85FF69C051961C92A9CCC6
:105A0000D501E52D1D92EA95E9F74982950141E31B
:105A100061E0D6011C968D919C910E94D30D80E38C
:105A2000FE013296D601579601900D928A95E1F7C4
:105A300033CA29821A821B82950143E061E01C96D9
:105A40008D919C910E94D30D8A819B818130B4E01D
:105A50009B0700F1F601248935892F5F3F4F358B75
:105A6000248B918B808BF601968510CA840D951D31
:105A70000FEFFC01078B440D551DE5E0DA01579649
:105A8000EC93240D351DD90157961C92F201768BAB
:105A90000C94D922D60151969C938E935097C0971F
:105AA00010F71F968C919BCD91FF84C0D201569622
:105AB0007C91F201E70FF11DF78AB5E0B08F118EEE
:105AC0007D5FF201768B0C94D92280E08F71982F44
:105AD000990F890F880FF601818B803308F439CC38
