:100000000C94380B0C94650B0C94650B0C94650BDD
:100010000C94650B0C94650B0C94650B0C94650BA0
:100020000C94650B0C94650B0C94650B0C94650B90
:100030000C94C0450C94650B0C94650B0C94650BEB
:100040000C94650B0C94BF470C94650B0C94650BDA
:100050000C94650B0C94650B0C94650B0C94650B60
:100060000C94650B0C9497450C946D450C94650BA2
:100070000C94650B0C94650B0C94650B0C94650B40
:100080000C94650B0C94650B0C94650B0C94650B30
:100090000C94650B0C94650B0C94650B0C94650B20
:1000A0000C94650B0C94650B0C94650B0C94650B10
:1000B0000C94650B0C94650B0C94650B0C94650B00
:1000C0000C94650B0C94650B0C94650B0C94650BF0
:1000D0000C94650B0C94650B0C94650B0C94650BE0
:1000E0000C94650B0C94E43A0C9404400C94B843C3
:1000F0000C94CD370C94DF430C94AD400C941C2F22
:100100000C94EB340C94122C0C944C0D0C948B101E
:100110000C94F8150C945D440C9464310C941E19E5
:100120000C94962F0C94CB410C94A23A0C94324927
:100130000C9469110C94613C0C94FD2E0C945F128C
:100140000C94A31A0C9481420C9495300C94263094
:100150000C9450190C947C2E0C94A6190C94BB4151
:100160000C94772F0C942E330C947E160C94163925
:100170000C9440380C94C5160C949E2F0C947F0C54
:100180000C944D4A0C945F0C0C94BD420C941132AB
:100190000C94D5490C9486150C94C1110C945830CC
:1001A0000C9479120C94E42F0C94533A0C947A2BFF
:1001B0000C94C6380C94D13D0C9438160C94AC17A2
:1001C0000C9406120C949A370C9434370C946210E9
:1001D0000C948E500C94634F0C946F430C945943C1
:1001E0000C94FA410C94D8160C944A440C940A3797
:1001F0000C94592B0C94C4370C94FA2C0C94432B6C
:100200000C94FE420C9461310C94FA430C944E2BE6
:100210000C9430440C946E100C944E3D0C94AD44F0
:100220000C94E6460C94450D0C94D1350C94A11811
:100230000C94E2100C9490430C9486350C94820B31
:100240000C94C60E0C94642B0C940D160C9407178A
:100250000C946F2B0C9464390C94124A0C94464500
:100260000C94BA100C9427430C944A0F0C9406314A
:100270000C94B1390C9427360C94682C0C944336AA
:100280000C940B450C948D470C944F420C943D43B9
:100290000C94BD2F0C944D120C942A130C94301A0C
:1002A0000C94610C0C94C80B0C940B470C949F4F4E
:1002B0000C9451340C9406420C942E420C94860DEE
:1002C0000C945A410C943B2F0C9415440C94BA1581
:1002D0000C9452170C94C4340C94EA310C944331AE
:1002E0000C94F1180C94DC2F0C947F320C946F3426
:1002F0000C94DD300C94FF100C940B0D0C9495387D
:100300000C94F1320C94C90B0C945F360C948E440F
:100310000C94670B040101040401040404040000AC
:1003200000040401010101010404010104010104AC
:100330000404040000040404040400000000040495
:1003400000000000040000000000000004000000A5
:10035000000004000200000400040000040704047C
:100360000000040404000002020000000204070070
:100370000400040400000400020204040404040055
:100380000004000404040404040400040002030440
:100390000004040004000400000400040000000045
:1003A000000000000001000201029A03381602005A
:1003B00000010000006210030000010000006E1048
:1003C000040000010000007E16050000010000008E
:1003D000C51606000100012715691107000001007C
:1003E0000000D81608000100019903C1110900009E
:1003F00001000000C80B0A000201012215F8150BCC
:10040000000301039603C90B0C0002010294030DC3
:10041000160D000200029A030B0D0E000200020EE0
:1004200015301A0F000300039603A31A10000200F0
:10043000029403FF1011000500058F032A13120018
:100440000200020E158B1013000100019903BA156A
:1004500014000200029403BA1015000200020E15E7
:10046000E21016000400048B03A61917000500050E
:1004700086037912180001000199038615190008F6
:1004800000087E0350191A000300037B035F121B50
:10049000000200020E1552171C000200029403F124
:1004A000181D0004000406151E191E000100019904
:1004B000034D121F000800087303A118200002005A
:1004C0000294030612210004000310159A3722003B
:1004D0000300021315BB4123000300021315CB4197
:1004E00024000400040A15EB3425000100019903DF
:1004F000DC2F26000300037003EA31270004000309
:100500006D03613C28000400040A152E3329000104
:1005100000019903962F2A000300036A03C4372BB6
:10052000000300031515CD372C00060006640340B8
:10053000382D000200020E153B2F2E000500055F2E
:100540000306312F000400041C15C43430000200DF
:10055000020E15433131000400035C0334373200CE
:1005600005000557036F34330001000199035F361E
:100570003400040003FA140A37350005000552035D
:10058000F13236000400040A152630370003000358
:100590007003513438000300021315FD2E39000397
:1005A000000213151C2F3A000600064C037F323B55
:1005B00000030002131527363C0003000213154305
:1005C000363D00080008440311323E000600064C88
:1005D00003D1353F000500053F0386354000060086
:1005E000063903E42F41000300037B03DD304200A2
:1005F00001000199035A4143000200029403B139FA
:1006000044000200020E15BD2F45000100019903B0
:10061000AD40460002000294036439470004000420
:100620003503953048000100019903044049000258
:100630000002940316394A000300037B0358304B31
:10064000000100019903D13D4C000200029403C651
:10065000384D000200020E159E2F4E000100019938
:10066000034E3D4F000200029403953850000200F3
:10067000020E15772F510001000199039F4F520080
:1006800002000294034D4A53000200020E15154465
:10069000540004000431038D475500010001990303
:1006A000634F56000200029403124A5700020002F0
:1006B0000E15FA435800030003F7140B47590001C5
:1006C000000199038E505A000200029403D5495B41
:1006D000000200020E15DF435C000300037B03E60B
:1006E000465D000200020E158E445E0003000213F8
:1006F0001532495F0004000406150B456000030035
:10070000037B035D4461000300037B0359436200E4
:100710000500052C036F4363000400042803904385
:1007200064000700072103B84365000200020E15AC
:100730004A4466000100019903FE42670007000772
:100740001A03AD446800030003170327436900033D
:10075000000314033D436A000200020E1530446B8F
:10076000000001000000FA416C00000005000000DC
:1007700078DA9D5A7B6FDB3812FF2A3A03C5DD1EFB
:10078000929E25BF73D83F52C76D73CD6BE364BB98
:10079000B8C3815024DA16A28757949AF416FDEE56
:1007A000370FBE24BBBBC016282C92334372388F40
:1007B0001F87F96D10EFF783B3C1A73CDBEF653DF1
:1007C00038193CB5599E8A2FB25659552A18DA263F
:1007D000C959F0B70FCBE50FC1ECEDE8ED3078CAA1
:1007E000CAB6C97285BD378FC13BDDFC2188DE46A4
:1007F000D3B7D1309C0EC36802A292AA28E2320578
:1008000021BF0DE2548551341471D3C4C94E3475DF
:10081000B6DDCA5AC4659C57DBA0CAD21FDF24418B
:10082000B75770EFE06C3E3B19C4795E257123B178
:10083000530549D5960D8FE18A9B06962AE2E4D9A5
:100840000872E3E3894790A686605F29FAC9CA1F48
:10085000DFB4C1BECD73D1EE9961E6187E6D65FD42
:10086000D5CA84053C23752D55239A2C7956DC6A0C
:10087000EAB85445D608336B9095A03F3DFF14F479
:1008800090CBB8166AD73669F5520ECE22544DB9C0
:10089000C9B6426BC54CA1F699DE7490C64D2C6A60
:1008A00019A75F052F12B63AF7F85EF3D17872C830
:1008B00037389B7A54ACC6ACB4BBD692466E054F63
:1008C0004506E765089E5A25BA9FA2F9BA9724788B
:1008D00036764CAC1FC7854DE129DDAD813A65DD2B
:1008E0005D4147E19389254EB36DD6C4B9A8DAA618
:1008F000C7F025CE5B497A919BB8CD1B613B8AF846
:1009000055A46D1D3760AEB4B97066E54930BEA61A
:10091000DA7764259DC9A3A925DEA5E3F16C6E55A0
:10092000512BADF8409A8F746CBF26F66B6ABF6688
:10093000F64BE6F1576B217024A19BE47516BE9A25
:1009400029B671065ADBC5652973DA1BECDBC85082
:1009500049FEEC4EDEA93E8B92C01CF5D8C9CD9263
:10096000221A2EC673231AC89CFB0C2D599E26E111
:10097000348C8E512D467D2AF192353BB09EE6E9AE
:10098000903EC06E5E1FF23A7BCA3315A52F7F6C76
:100990004F0110C2DEB3BD67606E3BC5BE5D4493C0
:1009A000E1B175CEDCF196B2DA67AF32EFD90AB9B0
:1009B0008ECAFE0752772D44AB46A08D780EAB242D
:1009C0007481EADD094DDCE6F72FC511FB4BBE82D1
:1009D000133B19DAFA766DDF1EA1E7C020C7EEF4EB
:1009E00054A5C426CB3D87406A25132456B4BFD3F3
:1009F000C86D10FCBABF0E0C734DF6458A5DB6DDAE
:100A000011C368EED383D36F737924A0D831A7F0D4
:100A1000532F0EE0B08950C7B8F59028D4F6C737E9
:100A20007F87903E1A7578D156D07C1365CD73E4DC
:100A30006DA4992D5C984BD4112B0F141887F9FCD9
:100A40005A26A2EB454152A4A2EF58136FEB8DC476
:100A50000466970E4D6D9E419AD5E6930333113B84
:100A6000AA3657D2131AB98D353B59171584B0FDE4
:100A70005195FAC34EAB5317CF9A2269E3DADA5293
:100A8000FD2A0EE25FD0D84EB4D4262B246FCD3988
:100A9000EDF15CE94CC9BAC66914794CA8447716E3
:100AA000202E954F2D384D05F97E615A30F5961C54
:100AB000860F35B464987A82AA4E658D9341E6AC70
:100AC00039B84686E0A5CE1A7940819EC184E0CC33
:100AD000B290F55696C95781511816015D1C91C503
:100AE000AE2AE441625571B1F7BD4CB76D5AED269F
:100AF0005E58BACB02BC5DD1C311B0095571888A6A
:100B0000266E724AEBB0A6B89156411138E9260319
:100B10000D43DC10ACC320A9138EDF27832D840C7A
:100B20005A279C8C6E110DC4236EB67B3C3A70F62E
:100B300093814E24E0D6652AC06C6D9EC46FD6F3B7
:100B400074D823C32308BCD4CF64133827CA187FB2
:100B50000E3681BE317262B883E8EB0753685228C3
:100B6000040DE02F1E9E546CFEE3A1E3522F3E23A2
:100B700038AB75D034F64CD9739F8EA8A95E0001AE
:100B8000A48D734E321DDC6180562672A95109EC8A
:100B9000364B65D9641B005D9B0DAC801CDFC20A1F
:100BA0003029939AFE8C3E16C06F520669DD1EFEF8
:100BB000C41F69F7A9330C068ABBD63F147001B66F
:100BC000A01E7AEB9827A87FDAA3238B6B5D7C9C11
:100BD0004F1C4107CEF5044D673DBABEA0A99BA9A5
:100BE0008FF8FEA46F15CEB77446732D38CC2D3018
:100BF000EE64F2EC41BE5168D6D04594BDBDCC4602
:100C00005DB2FE566656B93DE06837B2AF2074F665
:100C1000B7E1A584B111D0815AFDB3893A540727B1
:100C20006337D3C755FDED2CFA84071B9A1B8A1E28
:100C3000F6EA495A0C2D5D0741F527EC911D988283
:100C40005D500F42F5E54C7B7407EBB6C679002A80
:100C5000BE7311C2F8071022DBB0412C9C0092DC5D
:100C6000DB3F28D92EF5589AFDCE249E6176EC9272
:100C70001B90DE2180A79E594ED91C5A79EC6E61DB
:100C8000E7A87C2C184E0C4B0F0A5A72EB0B102D58
:100C9000478618B144E0C0B1AC39139AF0B5A3D07F
:100CA00008BF19E41AB03E42A198B243FD4D023884
:100CB000C7F427040E3876A4F137D1BB19C1C24757
:100CC0000744B405C2AE566607C802D394994AF9E0
:100CD000AA970070C966A2ACE6E418329151C81F09
:100CE0008062500BECD00328C8CBB0D5482E7DD005
:100CF0000B3A929B8DD8D43164A6ACD13818234AD4
:100D00004F062705A192D86DC8248A2CA06EFBD16E
:100D10001117C46D5309434AD28707D2F58A6CBABA
:100D2000E3A6C8D2578DB78624BC52A1FE8DF4EF3E
:100D300048FF8EE1178F747E28DAC31A0782718C00
:100D400045E357A88580777890BD97415D365A8CEA
:100D500099CECB67DEE8C88E7620007669085054BD
:100D6000A9F4A000B04C1D4B37FF1799AA4CD62F01
:100D70002A951D03F1465C1F544F2396FAFD8D8C76
:100D8000C0EDF89AF07BC06932EB527D0737E11E67
:100D9000F84220109C4112CFBCA305AB5F38028201
:100DA00084180118353810E1214AE08043D570BE1F
:100DB000A3EB2E96E16B3908EF41101FEEFE0154B4
:100DC0000D645D577EDB869DA22AB306865C30D417
:100DD0001D10FA48C9A708727B331FC3BAA758F57C
:100DE000E8D1E171D7F18BA0EC6E9306741478B062
:100DF000197FE23C649CA3A3FC071AEC50988BBFBC
:100E0000E9D6E182E48D511EA985E44026391277A6
:100E1000210ECD1D5DE35FACE4BEAA3540E79C41E9
:100E20006DAB28F9BACF6AD9B90E2CACA4DEAA7D75
:100E30002230364683C7B2871778C7DFCCBD0B4B4D
:100E40009DE7174B717DFE0BDEA65051EF1ED7E2DA
:100E5000EEF2668D89747036B87B373AB97B17C16C
:100E6000FF70E00D362F3478313CB9BBC081E5D539
:100E7000EDF293787FBFFA0963F490FE9D0CAE9774
:100E80008F40153785DCC6D1643A04C2BBCFD73C4E
:100E90005B8485B4FBD57275F9F34A7CBEBCB9B8E6
:100EA000FD8C861E61E77A750F9DBC0A5967718EAD
:100EB00073AD60AE15CE05A397E757E2DDF9E30504
:100EC0008AE1A9D60FE70F6BB17EBC5EFF0423EB6E
:100ED000158E4CB17B7577B7BA17B7770F97D79741
:100EE000FF5E5D88C71BECE38B8319C55FF1EEF6EF
:100EF000E1A3585D7C00D6F01BDEBE5AB80F5259F4
:100F0000842AC27E4108DB705320884F6A1A7EE330
:100F1000AB0310E11869C7EBD39802875083B094F4
:100F2000D5EDE30355566FCE979F480E6CE0FE411A
:100F30007073649AF7ABF30BDD0736B77E5C2E5700
:100F4000EB358B36570BF2BF33147D192DC5C5F920
:100F5000C3B958DDDFDFDE9374EC42CDC0A4BA1311
:100F600066BABCF9F9FCEAF2828523034FB8BA5994
:100F7000DFDE43E7DDEDFD8325A799FCD2174E7434
:100F800075B98E2EE0B44083F039BAF8C81A839848
:100F90008AA377E7C3C1D97F8627F3FFC269BFC39E
:100FA000EF397F2FF11B1238352EB0018E448D158D
:100FB00036461137DE6363ACF93F50430BF8888D3A
:100FC0008916F02F6CCC34CF279A46F35C51037905
:100FD000BE7592925E7D1C8E46235A7CAC26C3F170
:100FE0002C25A514CD741E4E4913F8194D15A9BC16
:100FF000C9E56418464FA04D2D4C1FB13D763CDA33
:101000000C1DBCCE4AB8CAA4DAA50272BD0D5F3F62
:10101000B8707B9E53813C30F7F69431D0322E83EA
:10102000B26A20CFC2FF6A0370E5A560AC125044DB
:10103000085E76197CB367AB600FD11C6662906561
:10104000785B2509D0D661B0A9EA009CEC9FA69DEB
:10105000291C4DA99FBAF4451D58FFDA20C80B542E
:10106000B6850505CD2E6E903AD6CB6404C4A5088E
:101070004DAC9014030A174CB897E020898695CAA6
:101080003230A52DCB0F76B8E4A795601FD7E0D0FE
:101090009C33A81661066A09915F35F440F23E86DA
:1010A000FDA641530594B9B0844CE1936BEFEFB9C1
:1010B0001E69D04F56A6F235C8E31A63226CA1EC24
:1010C000942839BB7DFC05AF5658BEFE872E5F774E
:1010D0004E27084FC7FCF201EE12680F0CB9456E9F
:1010E00068FA867E1F7A8F1EC0E88C030F9C083832
:1010F000F05F32B80FCCE3837B78618CCD68C7504A
:10110000E9B7272AD7B83E204395C585842D73A912
:10111000CF0C1615A053ADB500ABC718D7DDB0ADD9
:1011200035DBEA32172C0EC675F9C0CE3FF2960EAB
:10113000071DB0D7601DCDF46295D7640F4C395EA2
:10114000BFBE7861B0D08CE37997004CA5DDBB3D84
:1011500029BE011B8ACECDCA9702A7711DBFE289A5
:10116000CD8D4219FA5D4BA5623842592600E58CB7
:1011700061E140A6D0EA155CFCD336C7B22130E36A
:10118000AD21D0B9914C407E9178127861F83EC380
:101190002EAE53724A4D8DA5E46B543FDDA402F888
:1011A000AA3779F5C257B11BF0C638E0ED6018A038
:1011B000A088F57A7F00FC9307B0B0E60F64E59E47
:1011C000EF2B5CE4A1A11257EABA23CAA1D64BF7D0
:1011D00075B5056516B0F418F7B601B40AAB046529
:1011E0004B0C305872BE977A53E8541801601A5469
:1011F000351C037A1C966ED796E0403BC14B96E7B0
:1012000000491290D7792C6058EA38AD867E870362
:101210002BF86B88167C86B400A4C88AB6307DC6CD
:101220003940976B53E0A717491046F18562A5FF37
:1012300038B9D601A7A9AA6013D3EE786788D31E60
:101240007C93429501213D81300278207D2027A0AA
:10125000312529FE3F96AADD2322931C7C28E22318
:1012600092FF1C37C92EADB6ACC5BFF04B19BDF40B
:10127000427E6CCB67108C918BDFF4BC7EE506C0A0
:1012800032D94720B42988C8E8C180F55490283E57
:101290005F7ECF5594AD68F6D6AD86DF66DC287BE1
:1012A0000DDFEA6D2FBA6797C715F8395457650EE9
:1012B000D1FD0B2C297ECA4DD0B60A5D106A091AE1
:1012C00013CB1045E135290F7A9382E6E971DBE60D
:1012D0000BFDE49D725D5E616514432D9B1CDC710A
:1012E0004903637B2FA1D044AAA7E8CD0F3047F074
:1012F0002B9E377B073EDAE8B4C2BE87F71C48C195
:10130000070F1B988301648EC2F96442995E37A669
:1013100094EAB9319D90F140633A9DC1F7E8DBC191
:1013200025C141ABEBDB9BCB078DA96E7F5EDDBF9B
:10133000BF22B40ABE75FE59DC9FDF20681C5A0C20
:10134000B5BE5B2D2FDF5F2E8F0AB530E44909DC77
:10135000353E6180D78ABD8C9FC5B6A129F027FC98
:1013600046D02B013B01AA01FEE9C287BBAB2FA3EC
:10137000011560F6100125FFA582A9A1766FED5435
:10138000203956023AF5FE04A1C3117B0552BEDB9B
:10139000F3EDF414ED87EA3CEE66731A5AA30A10D3
:1013A0001DD2175D7EE80D02FB8C45D1551C62A451
:1013B000B0952564A73746AA98FEDEB2358BFE109D
:1013C000DEFC917BF851E0CCF61DE71433957938BB
:1013D000E948863B2D04F5C339FC7719E4D7EF09BA
:1013E00046C7BD67088DE475899228B496A6EE3588
:1013F000C063B6CF027CDB7F8BA43883D34FD0078A
:101400009046450BAFC8AF7769EA216D92D0A3052E
:1014100055860078579D57B153AEAC617C8125E766
:10142000CF9DAA8342C85026B2F74A108E865D9E91
:101430004E7DD55DEA7505D4DC54B90CE78B7C6A2A
:101440002903A55CFB06C00821469814A9786F21E2
:10145000558B5C703735FFEF28627EACB4747040FA
:101460007E05D63B97309A774B39078CBD73A48A9B
:101470000D8427C2D8A754C9847529678BAA2DF477
:101480008FFA55DBDCCC95677AB51B7E90C1A20143
:1014900002E64EA0EA9EE9517F6D395569CB74157D
:1014A0009DC32D602D87963F3E2C751CF702FEF2E2
:1014B0007C2A44CCEBCA158E27896DB5E97809C81A
:1014C000F3CB058670BA0BF0837FDB091A530869EA
:1014D000FA4FB520A4CDE3281CA6D1E0DBFF013AEA
:1014E00023A4D4730D000028292A2B2C2D2E2F5035
:1014F0005152535455565704040004020704000087
:1015000002000204000704000004040000000404B8
:101510000404070407040002040404000404000493
:10152000040107040004020000000000000006009F
:10153000020283001003F71482004003FA148100B2
:101540001E06FD148000400303157F0014040615D9
:101550007E0017040A157D000A020E157C00400269
:1015600013157B00400310157A0040031015790015
:101570004002131578001003151577001104181593
:10158000760011041C1575000D02201574000B0166
:1015900027157300400122157200120423157100F3
:1015A0000B0127157000100228156F0015032A156E
:1015B000000040022D156E000E022F156D0009016E
:1015C00031156C00060000002000230026002900D1
:1015D0002C002F0032000001000003010601090168
:1015E0000F47004400450080013548004400450095
:1015F00020010D88008000810080000E8A0080009C
:10160000810020000F8C008000810008000CB300D6
:10161000B000B10080033EB400B000B1002003234D
:101620009800900091008000249A00900091002082
:1016300000259C009000910008003BA800A000A19C
:101640000080003CAA00A000A10020003DAC00A04A
:1016500000A10008005B28012001210180005C2A14
:10166000012001210120005D2C0120012101080041
:1016700011241FBECFEFD1E2DEBFCDBF00E00CBF13
:1016800014BE0FB6F894A89580916000886180938D
:101690006000109260000FBE12E0A0E0B2E0E4E54E
:1016A000F4EA00E00BBF02C007900D92A033B1072F
:1016B000D9F723E0A0E3B2E001C01D92A33AB2073C
:1016C000E1F70E949C4A0C9428520C940000FC0103
:1016D00086898460868B1092260281E080936C025A
:1016E00084819581A681B7814089518962897389F6
:1016F000840F951FA61FB71F84839583A683B78386
:1017000081E008950F931F93FC01A489B589868910
:101710008C9393A181E0892783A3448155816681BD
:10172000778190FD12C00085118522853385400F99
:10173000511F621F731F82FD12C04483558366834D
:10174000778381E01F910F91089504851585268583
:101750003785400F511F621F731F82FFEECF008934
:10176000118922893389872F401751076207830B1C
:1017700087FDE3CF8AE49FE093838283B901A801C8
:10178000448355836683778381E01F910F91089589
:101790000895FC018081A481B581408551856285D1
:1017A00073859FB7F894813061F0823019F04C93C3
:1017B0009FBF08954D935D936D937C9313979FBF47
:1017C000089511965C934E939FBF08950F931F93B6
:1017D000CF93DF938C01DB01FC0190817091560265
:1017E0009F5F492F50E0440F551F440F551F209114
:1017F000570230915802240F351F0BC0E9012C5FAE
:101800003F4FF9013497408151814A175B0751F0EE
:101810009F5F971798F390E080E0DF91CF911F9141
:101820000F910895F80190838A819B81DF91CF9178
:101830001F910F910895CF92DF92EF92FF92CF9375
:10184000DF9360915E0270915F026115710581F115
:10185000615071096B01F12CE12CC0915B02D091B8
:101860005C0240915D0250E06115710591F0FE014E
:1018700080E090E0DC010196A11DB11D9A012E0FC0
:101880003F1F31832083F9018C159D05AE05BF05EF
:1018900090F3469FF001479FF00D569FF00D1124E5
:1018A000EC0FFD1F11821082D0936F02C0936E0265
:1018B000DF91CF91FF90EF90DF90CF90089580E07F
:1018C000089510922602E2E1F2E084819581A681DA
:1018D000B781AC01BD015659674E7F4F4483558394
:1018E000668377839659A74EBF4780930E029093E5
:1018F0000F02A0931002B093110281E00895FC0141
:1019000080917A0086FD08C0828D90910902981717
:1019100089F09F3F09F463C084819581A681B781D6
:101920008853984FAF4FBF4F84839583A683B78367
:1019300081E008958FEF8093090220917800309123
:101940007900858D968D891790F544895589240FE6
:10195000351F8F5F358B248B858F891770F18689B2
:1019600097892817390708F448C0808D918D821710
:10197000930708F442C0138E1092260281E08093F0
:101980006D0280899189A289B389408551856285DC
:101990007385840F951FA61FB71F808B918BA28B19
:1019A000B38B84839583A683B78381E0089581E018
:1019B000358B248B858F891790F684819581A6813C
:1019C000B7814485558566857785840F951FA61F49
:1019D000B71F84839583A683B78381E0089580939E
:1019E0000902982F987090937B0087708064809391
:1019F0007C0087ED80937A008FCF838D8F5F838FFC
:101A0000948D891708F4B8CF809128028111B3CF43
:101A10008AE10E94B60DFC01648180810C945547D7
:101A20000F931F93CF93DF93EC010FB7F8949E8928
:101A300090FF25C0162F6F8B9A7F94609E8BAC8988
:101A4000BD891097B9F01296ED91FC9113978D9185
:101A50009C9111979D8B8C8B11961C921E921396C4
:101A60001C921E921297612FCD011995AC89BD89E8
:101A7000109749F71092260281E080936C020FBF05
:101A8000DF91CF911F910F9108950897FC01608D10
:101A90000E94100D80E00895FC01A085B1859C9105
:101AA000818D22859223C9F080958170C1F4838D48
:101AB000815029F1838F84819581A681B7814785E3
:101AC000508961897289840F951FA61FB71F84836F
:101AD0009583A683B78381E00895817041F386E8FA
:101AE0009DE09383828383899489A589B6898483C1
:101AF0009583A683B783828D838F81E00895648D5B
:101B00008789908D0E94100D80E008950F931F9398
:101B1000FC01A085B1859C914481558166817781C6
:101B20000385148525853685400F511F621F731F5D
:101B3000818D2285922359F08095817051F04483E4
:101B400055836683778381E01F910F91089581709B
:101B5000B1F7438B548B658B768B8CE49DE093833C
:101B60008283CF011F910F910C944C0DF894682F34
:101B700070E08DE392E00E94CB514F925F926F92A2
:101B80007F928F929F92AF92BF92CF92DF92EF920D
:101B9000FF920F931F93CF93FC01A4A1B5A11097BF
:101BA000B1F416861786108A118AC0E08C2FCF9167
:101BB0001F910F91FF90EF90DF90CF90BF90AF906B
:101BC0009F908F907F906F905F904F9008958D9130
:101BD0009C91119795A384A312964D915D916D915F
:101BE0007C91159718960D911C91199716968D91C9
:101BF0009C9117971A962C911A97E0906E02F0908C
:101C00006F021196FC92EE92B0936F02A0936E0257
:101C1000C0A0D1A0E2A0F3A0C22FC17020FF08C0D5
:101C2000F094E094D094C094C11CD11CE11CF11C30
:101C300030E020E0C00ED11EE21EF31EC0A2D1A2F1
:101C4000E2A2F3A2958784876C01092E000CEE08AE
:101C5000FF08C40ED51EE61EF71EC086D186E2869A
:101C6000F386A4A5C480D580E680F780A5FD28C0B2
:101C700086849784A088B188428853886488758850
:101C8000440D551D661D771D428B538B648B758BE0
:101C900044835583668377839A2F9071A4FD04C093
:101CA000000F111F221F331F06871787208B318BD0
:101CB00089288A288B28F1F4C11114C0C1E076CF9D
:101CC0004C0D5D1D6E1D7F1D448355836683778398
:101CD00006871787208B318B892B49F0A064A4A736
:101CE000CC2361F3A58DB68D878D8C935FCFAF7BB1
:101CF000A4A7F6CF8F01872F4C155D056E058F09C0
:101D000087FD33C0CC23D1F2911125C0D8015D9657
:101D1000ED91FC915E975F968C9180830E94EC48D8
:101D2000F801C688D788E08CF18CDC01CB018C0DE2
:101D30009D1DAE1DBF1DC480D580E680F7802F2D70
:101D4000C816D906EA062B0B27FFB8CF84839583E4
:101D5000A683B7832BCF0E94EC48292F6C157D05F5
:101D60008E052F0927FDF7CFD1CF4C195D096E09DC
:101D70007F094038514C6F4F7F4F2CF0C482D58281
:101D8000E682F782BFCF88E10E94B60D8F929F92C4
:101D9000AF92BF92CF92DF92EF92FF920F931F9379
:101DA000CF93DF93EC01EA8DFB8D8C8D80830E94B5
:101DB000EC480E891F89288D398DAB01BC01400F7D
:101DC000511F621F731F8E859F85A889B98901974E
:101DD000A109B10980FF19C02CA524FD1AC08E8766
:101DE0009F87A88BB98B4C835D836E837F8381E053
:101DF000DF91CF911F910F91FF90EF90DF90CF90E7
:101E0000BF90AF909F908F9008950097A105B10566
:101E100071F188849984AA84BB840A891B892C89DE
:101E20003D89080D191D2A1D3B1D0A8B1B8B2C8B10
:101E30003D8BCC84DD840D2C000CEE08FF08C80C13
:101E4000D91CEA1CFB1CC886D986EA86FB86E32FD0
:101E5000041715072607E70BE7FDC1CF8E879F877D
:101E6000A88BB98B0C831D832E833F83C0CF4C83FB
:101E70005D836E837F83CE01DF91CF911F910F91A0
:101E8000FF90EF90DF90CF90BF90AF909F908F909A
:101E90000C94BD0D8F929F92AF92BF92CF92DF9222
:101EA000EF92FF921F93CF93DF93EC01EF8CF8A09A
:101EB000E114F10409F400C1F7018081918198A334
:101EC0008F8F86809780A084B18411E08114910463
:101ED000A104B10409F4B6C06C897D898E89412FB3
:101EE0000E94334780916E0290916F02F7019183B7
:101EF0008083F0926F02E0926E0281149104A1043B
:101F0000B10489F18B8D9C8DAD8DBE8D881699069F
:101F1000AA06BB0640F54F89588D698D7A8D41150B
:101F200051056105710509F4BBC08C819D81AE81AD
:101F3000BF81480F591F6A1F7B1F1660EF8DF8A1E4
:101F40003097B9F1C280D380E480F580872F4C159B
:101F50005D056E058F0987FDB2C08BA1912F927030
:101F6000B701A6017EC08BA121E081149104A104D8
:101F7000B10409F069C084FB992790F931E09327F7
:101F8000291709F442C04F89588D698D7A8D411502
:101F9000510561057105C9F18C819D81AE81BF81BB
:101FA000480F591F6A1F7B1F1460EF8DF8A13097EF
:101FB00049F62BA1488B598B6A8B7B8B2071212B87
:101FC0002BA3212F247011FF65C0880D991DAA1D18
:101FD000BB1D211158C022E83BE03B832A838C8340
:101FE0009D83AE83BF8388869986AA86BB868B8DA8
:101FF0009C8DAD8DBE8D88199909AA09BB098C8766
:102000009D87AE87BF8781E011C090E0EF8DF8A17A
:10201000309719F5188A198A1A8A1B8A8071812BC0
:102020008BA3212F247080E091113EC0DF91CF91CE
:102030001F91FF90EF90DF90CF90BF90AF909F9057
:102040008F90089510E048CF20E084FB992790F905
:1020500031E09327291397CFD8CF428153816481F0
:102060007581488B598B6A8B7B8B80711460182B20
:102070001BA3992379F08C819D81AE81BF81880D4E
:10208000991DAA1DBB1D2B2F84179507A607270B8B
:1020900027FDA1CF4C835D836E837F8381E0C6CF14
:1020A00012608BA192E0B2CF40E050E0BA018C8187
:1020B0009D81AE81BF8189CF85E10E94B60D83E10C
:1020C0000E94B60D80912802882329F0823011F0F9
:1020D00010922802089582E00E94B60D88E00E94C6
:1020E000B60D90915602891798F490E0880F991FC9
:1020F000880F991FE0915702F0915802E80FF91FDD
:10210000808191818617970719F4828193810895C0
:102110008CE00E94B60D0F931F93CF93DF938C0139
:1021200069E772E1FC0180810E947110EC016DE4AD
:1021300072E1F80184810E947110BE01685D7F4FD9
:102140004FB7F8942AA53BA5232B89F42CEA37E155
:102150003BA72AA7FC012489358939A728A7758BB5
:10216000648B4FBFDF91CF911F910F91089589E14B
:102170000E94B60DCF93DF93EC0169E772E188818D
:102180000E947110FC018C819D81AE81BF81F89409
:102190004685578560897189452B462B472B79F4F5
:1021A00084839583A683B783828B938BA48BB58B13
:1021B00084A5877F84A77894DF91CF91089586E1E5
:1021C0000E94B60DCF93DF93EC0169E772E188813D
:1021D0000E947110FC018C819D81AE81BF81892B91
:1021E0008A2B8B2B51F480E0F89494A59D7F982B3B
:1021F00094A77894DF91CF91089582E0F5CFCF93A3
:10220000DF93EC016AE273E188810E947110F89417
:10221000FC01278D30A1232B61F44C815D816E81FF
:102220007F81438F548F658F768F7894DF91CF9124
:10223000089584E10E94B60DFC011382128211827E
:10224000108280915E0290915F02892B41F480910F
:102250005D028617170614F460935D0208958EE000
:102260000E94B60D2FB7F89480916E0290916F0284
:10227000009749F0FC014081518150936F024093D7
:102280006E022FBF08958FE00E94B60DCF93DF93AB
:10229000C0915902D0915A02AE01480F591F2DB773
:1022A0003EB721503F4F22273A952417350770F04B
:1022B00050935A0240935902AC0170E060E0CE01A5
:1022C0000E942152CE01DF91CF91089581E10E94B9
:1022D000B60D0F931F93CF93DF938C0180915E0215
:1022E00090915F02892B09F049C060915D0270E016
:1022F000623028F482E080935D0262E070E0E09159
:102300005902F0915A024DB75EB741505F4F4427D2
:102310005A959F01D0E0C0E0C901860F971F48176A
:10232000590730F121969C01C115A4E0DA07A1F705
:102330008E1B9F0B0E944611D0935F02C0935E02DA
:1023400090935C0280935B020E941B0CF8018081D9
:102350009181A281B3818093600290936102A093E6
:102360006202B0936302DF91CF911F910F910895A4
:10237000C9012097E9F680E10E94B60D8DE00E9428
:10238000B60DCF932091570230915802232B91F430
:10239000FC01C0818C2F90E0880F991F880F991F36
:1023A0000E9446119093580280935702C0935602A0
:1023B000CF9108958AE00E94B60DCF93DF9390915C
:1023C0005602891700F5282F30E0220F331F220F05
:1023D000331FC0915702D0915802C20FD31F88817A
:1023E0009981892B81F480915E0290915F02892B03
:1023F00051F479836883CA010E9446119B838A83C2
:10240000DF91CF9108958BE00E94B60DCF93DC0150
:1024100014969C91149730E020E005C02F5F3F4F49
:1024200020313105B9F1C22FF901E951FB4EE49198
:102430009E13F4CF87E980937A002830E8F48091E6
:102440007E0021E030E00C2E01C0220F0A94EAF752
:10245000822B80937E004FE150E066E072E18C9128
:102460000E94DD11FC018FE79CE093838283C28F81
:1024700081E0858FCF91089580917D00922F977094
:1024800021E030E001C0220F9A95EAF7822B809379
:102490007D00E1CF85E30E94B60D49E150E06DE497
:1024A00072E1FC0180810E94DD1127E63BE0FC0126
:1024B0003383228325E43DE03387228708950F93F9
:1024C0001F93CF93DF93EC014DE150E06FE572E194
:1024D00088810E94DD118C0168858C810E94AF4645
:1024E000F801608771878287DF91CF911F910F91EB
:1024F0000895EF92FF920F931F93CF93DF938C0178
:102500004DE250E069E772E1FC0180810E94DD113B
:10251000EC01F801848518160CF045C084E08CA706
:1025200064E084810E9455476A8F7B8F8C8F60E0C6
:10253000F80180850E9455476D8F7E8F8F8F80E0D8
:1025400090E0A0E0B0EC88A399A3AAA3BBA3F801F4
:1025500080899189A289B3898E8B9F8BA88FB98F2F
:102560006BE070E0CE0184960E941C118E899F89D9
:10257000A88DB98D8997A105B10558F086EC9EE02C
:102580009B838A83DF91CF911F910F91FF90EF90F2
:1025900008958CA580638CA7DF91CF911F910F9137
:1025A000FF90EF9008957E01F4E2EF0EF11C81118F
:1025B00028C06CA56470F80184810E9455476A8F19
:1025C0007B8F8C8F60E0F80180850E9455476D8F6E
:1025D0007E8F8F8F80E090E0A0E0B0EC88A399A37D
:1025E000AAA3BBA3F80180899189A289B3898E8BA4
:1025F0009F8BA88FB98F6BE070E0C7010E941C1100
:10260000B5CF80E18CA760E0F80184810E94554736
:102610006A8F7B8F8C8F60E0F80180850E94554720
:102620006D8F7E8F8F8F80E090E0A0E0B0EC88A36C
:1026300099A3AAA3BBA3F80180899189A289B38930
:102640008E8B9F8BA88FB98F6BE070E0C7010E94C3
:102650001C1194CFCF92DF92EF92CF93DF93EC01D6
:1026600061E088859985AA85BB85892B8A2B8B2B70
:1026700009F460E08C810E9455476B01E82E44E22A
:1026800050E06AE273E188810E94DD11FC01C48A96
:10269000D58AE68A21E0488559856A857B85452B60
:1026A000462B472B09F420E04C855D856E857F85A0
:1026B000452B462B472B09F02061FC0123A34889B9
:1026C00059896A897B89478B508F618F728F6AE045
:1026D00070E04F96DF91CF91EF90DF90CF900C9408
:1026E0001C112F923F924F925F926F927F928F9226
:1026F0009F92AF92BF92CF92DF92EF92FF920F9391
:102700001F93CF93DF9300D01F921F92CDB7DEB7F8
:10271000809155028823C1F00F900F900F900F9079
:102720000F90DF91CF911F910F91FF90EF90DF906D
:10273000CF90BF90AF909F908F907F906F905F9061
:102740004F903F902F90089581E0809355023E0175
:102750006DE1660E711C2091A2037091A103798333
:10276000272E312C2717A0F40B8D1C8D0E5F1F4FC9
:10277000F8018491820D932D911D8136910564F1AC
:10278000821B91098136910560F010925502C4CFE9
:102790001092A1031092A203312C212C198220E067
:1027A000E3CF1092A1036091A203F981F61BF98394
:1027B0002F2E312C70E06F5B7C4FA10181E493E000
:1027C0000E940F521092A20369816093A10380912D
:1027D000C10080628093C100C1018F5B9C4F1C01CE
:1027E000F8018491082F863008F478C091012E5F9B
:1027F0003F4F8550990B7901E80EF91EEB8DFC8D4A
:102800003396A490EB8DFC8D3496459154916A01DA
:10281000EB8DFC8D859194918038910508F04DC128
:10282000B9016F5F7F4F7B836A838F77D9018C9368
:10283000A40EB52EB11CCA14DB0409F44AC06A8187
:102840007B81E616F70608F45EC1F6018491FFEF7E
:10285000CF1ADF0A853009F4DBC008F461C0883084
:1028600008F051C1F30100811181012E000C220BEF
:10287000330BA7016A817B81461B570B052E000C89
:10288000660B770B041715072607370708F4A8010E
:102890008A809B809FEF891A990AAA81BB814C93F9
:1028A0002301B4E04B0E511CF301228133818A01D4
:1028B000B901863009F4E7C0C4010E940652B40190
:1028C000600F711F7B836A833201CA14DB0409F035
:1028D000B6CF0A811B81021913090D5FD1010C9338
:1028E0008091080211968C936DEF600FC1010E94D8
:1028F0009F4A200E311CF1013397908331968083DB
:10290000B1E02B1A31088EE7F1018083F9810F0FB6
:102910000093A1038091C10080628093C10035CFF4
:10292000823008F4A7C0D3014D915D913D0170E064
:1029300060E0833021F4052E000C660B770BAA8132
:10294000BB8111968A019B01005E1F4F2F4F3F4FA5
:10295000003811052105310508F485C08A819B8165
:1029600002969D838C838A019B01105F2F4F3F4FFE
:10297000011510442105310508F489C08A809B8027
:10298000E3E08E0E911C8A019B01285F3F4F0115E9
:1029900011052042310508F485C04A805B8084E03F
:1029A000480E511C8A019B013C5F01151105210550
:1029B000304108F08FC08A019B01E5E136952795EB
:1029C00017950795EA95D1F70068EA81FB810083A6
:1029D0005B824A822D01D4018A019B019EE03695DB
:1029E0002795179507959A95D1F70068F20100830E
:1029F0008A019B0187E036952795179507958A955B
:102A0000D1F70068EC81FD8100834F774C9313CFA1
:102A100093012E5F3F4FD3014D915C91EA81FB8181
:102A20003196DA016C916623D9F1EE15FF05C0F5F8
:102A30004F5F5F4F04C0FC01E816F90641F0CF017B
:102A400001966083FA016191AF016111F4CFAC018D
:102A50006A817B81461B570B4150DB014C93390146
:102A60009B838A83E8CE9A2F8B2FAA81BB819A837E
:102A70008B83CBCFF3014081518162817381C3018C
:102A800004963C015CCFC4010E94F05118CF3C81F8
:102A90002D818A819B819D838C833A832B83A8CF50
:102AA000CF01D5CF3C812D81BD83AC83A32FB22F25
:102AB0004A805B809B828A828FCF2F5F3F4FBC0111
:102AC000660F672F661F770B71956068D1011296AC
:102AD0006C93A6CE8A019B01FCE13695279517954C
:102AE0000795FA95D1F70068EA81FB8100839F0181
:102AF0002B5F3F4FBB83AA83AC81BD819D828C82BB
:102B00004201290158CF86E00E94B60DCF93FC0107
:102B1000C0816FE572E18C2F0E947110FC01F89466
:102B2000818D33894489558966897894A085B185DA
:102B30009C912285922321E009F420E01F922F939B
:102B40006F935F934F933F93869581701F928F93FE
:102B50001F92CF9380E895E19F938F930E9471130A
:102B60008DB79EB70C960FB6F8949EBF0FBE8DBF63
:102B7000CF910895CF93FC01C08169E772E18C2F5A
:102B80000E947110FC01F89480A191A1A2A1B3A1AF
:102B900024A5468557856089718924FD04C07695F2
:102BA000679557954795841B950BA60BB70BB7FFF9
:102BB00007C0B095A095909581959F4FAF4FBF4F9F
:102BC0007894B054BF93AF939F938F931F92CF93FA
:102BD00086E895E19F938F930E9471138DB79EB7FE
:102BE00008960FB6F8949EBF0FBE8DBFCF91089583
:102BF000FC0185818F9384818F9380811F928F93B5
:102C000082E995E19F938F930E9471130F900F902B
:102C10000F900F900F900F900895DC012C91149657
:102C2000ED91FC913FB7F8942130E9F02230B1F0FA
:102C3000808190E0B0E0A0E03FBFBF93AF939F934F
:102C40008F938CE895E19F938F930E9471130F905F
:102C50000F900F900F900F900F90089580819181A9
:102C6000A281B381E9CF80819181B0E0A0E0E4CF7F
:102C7000CF92DF92EF92FF92FC01408151816281FD
:102C800073812481E3EEF4E185919591A591B4914E
:102C9000481759076A077B0770F56A017B01C20E66
:102CA000D11CE11CF11C8C159D05AE05BF0500F57E
:102CB000841B90E09A012059384F3F932F939F93A4
:102CC0008F937F936F935F934F9380EB95E19F93E7
:102CD0008F930E9471138DB79EB70A960FB6F89422
:102CE0009EBF0FBE8DBFFF90EF90DF90CF900895F5
:102CF000822F90E0DFCF90E080E0DCCFCF92DF92B8
:102D0000EF92FF920F931F930E94EC489F938F9333
:102D10007F936F93C12CD12C7601C39400916802EC
:102D20001091690220916A0230916B02601771075D
:102D30008207930718F0C12CD12C760140916402D0
:102D4000509165026091660270916702D701C601D9
:102D5000840F951FA61FB71FBF93AF939F938F93A9
:102D600084EA95E19F938F930E9471138DB79EB76C
:102D70000A960FB6F8949EBF0FBE8DBF1F910F919C
:102D8000FF90EF90DF90CF9008950E94EC489F93C2
:102D90008F937F936F938EE995E19F938F930E941A
:102DA00071130F900F900F900F900F900F90089548
:102DB00080915E0290915F029F938F9321E030910A
:102DC0002802311101C020E01F922F93209163024D
:102DD0002F93209162022F93209161022F932091D3
:102DE00060022F9321E0892B09F420E01F922F939A
:102DF00088E995E19F938F930E9471138DB79EB7D9
:102E00000C960FB6F8949EBF0FBE8DBF089584E058
:102E10000E94B60D0F931F934FB7F894E0912202D2
:102E2000F0912302E817F90729F420C02817390781
:102E3000B9F0F9012081318121153105B9F72091CF
:102E40002402309125022817390731F482E192E0FB
:102E500090932502809324024FBF1F910F910895F4
:102E6000DC012D913C9131832083E9CFDC01149664
:102E70000D911D912D913C91179700930402109391
:102E8000050220930602309307022D913C91309366
:102E900001022093000220E032E0309323022093CD
:102EA0002202CDCFEF92FF921F93CF93DF937C014D
:102EB000FC0110816DE472E1812F0E947110EC0120
:102EC000F894F70164810E94100DCE010E940A1748
:102ED000CE0108960E940A171E8A8F8978941F9245
:102EE0001F921F921F921F928F931F921F921F92E9
:102EF0001F938AE795E19F938F930E9471138DB77B
:102F00009EB70C960FB6F8949EBF0FBE8DBFDF9193
:102F1000CF911F91FF90EF900895CF93DF93EC0135
:102F20000E940A17CE0108960E940A17EC89FD89B3
:102F3000309751F090818181138212821182108228
:102F4000E92FF82F3097B1F71D8A1C8A188E1F8A37
:102F50001E8ADF91CF910895CF92DF92EF92FF9278
:102F60000F931F93CF93DF938C01EC01A897CE01B1
:102F70000E940A171C821D821E821F821A8A1B8AC7
:102F80001C8A1D8A48A159A16AA17BA18CA5CE8467
:102F9000DF84E888F98884FD04C0F694E794D79428
:102FA000C7944C195D096E097F09CC24DD24760194
:102FB000C41AD50AE60AF70A77FD02C0B701A601CE
:102FC00048A359A36AA37BA31E861F86188A198A61
:102FD000847388608CA76D8D7E8D8F8D40E00E94FC
:102FE00033474CA544FF27C045FD25C0D8011497A1
:102FF000ED91FC9111973097A9F040916E0290915C
:103000006F0201C0F9012081318140839183F093E7
:103010006F02E0936E024E2F9F2F2115310591F71D
:103020001D921C92DF91CF911F910F91FF90EF9015
:10303000DF90CF90089544706A8D7B8D8C8D0E94B7
:103040003347D4CFAF92BF92CF92DF92EF92FF92ED
:103050001F93CF93DF93DC011496CD90DD90ED901C
:10306000FC9017971FB7F894C0912202D0912302C9
:103070002F2D4C815D816E817F818F2DC416D506E9
:10308000E606870B87FD1FC0FE010990D881C02D81
:103090004C815D816E817F81922FC416D506E60634
:1030A000970B97FFF1CF1196DC93CE93B183A0835A
:1030B0001FBFDF91CF911F91FF90EF90DF90CF90D6
:1030C000BF90AF9008955D010E94EC482F2DC61669
:1030D000D706E806290B27FD25C082E0C030D807B7
:1030E00041F1F501D183C083C0920402D092050260
:1030F000E0920602F0920702B0920102A092000252
:1031000080E092E0909323028093220280918400D9
:1031100090918500C296909389008093880082E008
:1031200086BBC6CF809128028111D7CF83E00E9451
:10313000B60D8091000290910102F5019183808388
:10314000D3CF0F931F93CF93DF938C0166E072E18F
:10315000FC0180810E947110EC010E940A179A8D77
:1031600080910902981303C08FEF80930902F80140
:1031700084819581A681B781888B998BAA8BBB8B23
:103180008C839D83AE83BF8380859185A285B38523
:103190008C879D87AE87BF8784858E8F91E0980F3F
:1031A0009D8F4089518962897389488759876A87C9
:1031B0007B87248935893F8B2E8B208D318D398FEC
:1031C000288F948D9C8F811105C0DF91CF911F9125
:1031D0000F910895CE01DF91CF911F910F910C9423
:1031E0002218EF92FF920F931F93CF93DF938C01DE
:1031F0006DE472E1FC0180810E947110EC01F89491
:103200008E8980FF13C07E01F8E0EF0EF11CC7012C
:103210000E940A17F80184819581A681B7818C8765
:103220009D87AE87BF87C7010E9422187894DF91DF
:10323000CF911F910F91FF90EF9008950F931F93DF
:10324000CF93DF938C016DE472E1FC0180810E94D9
:103250007110EC01F8940E948D1781E08E8BF801BB
:1032600084819581A681B7818C839D83AE83BF8342
:1032700080859185A285B385888B998BAA8BBB8B22
:10328000892B8A2B8B2B19F0CE010E942218F80172
:103290008485888F7894DF91CF911F910F91089545
:1032A0000F931F93CF93DF938C016FE572E1FC01C5
:1032B00080810E947110EC010E940A17F80184813C
:1032C0009581A681B7818C839D83AE83BF838085E2
:1032D0009185A285B3858F87988BA98BBA8B8485BE
:1032E0008A8F882359F140895189628973894B8774
:1032F0005C876D877E8726E83DE03B832A838B8F42
:1033000084899589A689B789892B8A2B8B2BA1F46F
:1033100082E0898F6DE472E1F801808D0E94711066
:10332000988F8F8BF801848D8C8FCE01DF91CF9198
:103330001F910F910C94221883E0EBCF188E1F8AF7
:10334000198EDF91CF911F910F9108950F931F93C5
:10335000CF93DF938C0169E772E1DC018C910E94CD
:103360007110EC010E943211FC01D80114964D91AC
:103370005D916D917C91179742835383648375832C
:1033800018968D919C91199791878087892B09F4C4
:1033900064C01C968D919C91978386831286F894C5
:1033A0008CA5282F217081FB992790F9291729F0E6
:1033B00091E089279285916092874E855F85688923
:1033C0007989452B462B472B59F583FD19C08CA7CE
:1033D000118210828CA19DA1892BD1F1AEA1BFA138
:1033E000ED93FC93FFA3EEA3CE010E94BD0DCE0191
:1033F0000E9422187894DF91CF911F910F91089528
:1034000080916E0290916F0291838083F0936F029E
:10341000E0936E027894DF91CF911F910F91089500
:103420008CA7118210828CA19DA1892B61F0AEA185
:10343000BFA1ED93FC93FFA3EEA37894DF91CF910E
:103440001F910F910895FFA3EEA3FDA3ECA3D2CF8C
:10345000FFA3EEA3FDA3ECA3C7CF87E10E94B60DA7
:103460008F929F92AF92BF92EF92FF920F931F9312
:10347000CF93DF938C016AE273E1FC0180810E94AB
:103480007110EC010E940A178F8D98A1892B09F009
:1034900057C0F801E4801BA101E0EE2049F16C89DE
:1034A0007D898E89402F0E943347F12FF071FF2EC6
:1034B00081E0E1101BC01295117091E0192781176E
:1034C00041F08F89988DA98DBA8D892B8A2B8B2BF2
:1034D00089F40F290BA3DF91CF911F910F91FF90DA
:1034E000EF90BF90AF909F908F90089580E0E3CFD2
:1034F00000E0D5CF0E94EC488F88988CA98CBA8CBC
:10350000860E971EA81EB91E888A998AAA8ABB8A27
:103510008C829D82AE82BF828AE49FE09B838A83F5
:103520000460F02AFBA2CE01DF91CF911F910F9191
:10353000FF90EF90BF90AF909F908F900C942218C7
:1035400082E10E94B60DCF92DF92EF92FF920F932D
:103550001F93CF93DF938C016AE273E1DC018C91BE
:103560000E947110EC010E943211FC01D8011496E6
:10357000CD90DD90ED90FC901797C282D382E482CB
:10358000F58218964D915D916D917C911B974683C4
:10359000578360877187F894118210828F8D98A16C
:1035A000892B81F0A9A1BAA1ED93FC93FAA3E9A319
:1035B0007894DF91CF911F910F91FF90EF90DF9062
:1035C000CF900895FAA3E9A3F8A3EF8F8BA182FD12
:1035D00025C0C88AD98AEA8AFB8A982F94609BA35F
:1035E00081FD10C0CE010E940A17CC82DD82EE82DE
:1035F000FF828AE49FE09B838A83CE010E94221887
:103600007894D7CF4C815D816E817F81872F4C1557
:103610005D056E058F0987FDF3CFE4CF4889598991
:103620006A897B89972F4C155D056E059F0997FF69
:10363000D0CF83E10E94B60DCF93DF93CDB7DEB735
:10364000C754D1090FB6F894DEBF0FBECDBF0E949C
:10365000EC4824966CAF7DAF8EAF9FAF24978091DE
:1036600026028111B4C481E08093260280916C020D
:10367000882309F443C010926C028FEF89838E0176
:103680000F5F1F4F3AE7E32E35E1F32E6DE472E151
:10369000C8010E94E60B6C01892B81F1D601569678
:1036A0008C9182FFF3CF0E94EC48F894F6013789A1
:1036B0002689422F4B7F468B78949F938F937F93DD
:1036C0006F931F923F9321701F922F9389811F92B6
:1036D0008F93FF92EF920E9471132DB73EB7245F34
:1036E0003F4F0FB6F8943EBF0FBE2DBF6DE472E1A1
:1036F000C8010E94E60B6C01892B81F680916D0256
:10370000882331F110926D028FEF89838E010F5F54
:103710001F4F24E7E22E25E1F22E66E072E1C80198
:103720000E94E60BFC01892B99F0958D868D9813EC
:10373000F4CFF894858D968D891709F4B4C47894E4
:1037400066E072E1C8010E94E60BFC01892B69F773
:1037500080917002882329F1109270028FEF898383
:103760008E010F5F1F4F92E6E92E95E1F92E63E47B
:1037700071E3C8010E94E60B009799F0DC015896AE
:103780002C9158972F3F99F7F894FC012685211129
:103790003FC4789463E471E3C8010E94E60B00978C
:1037A00069F780917102882309F440C01092710278
:1037B0008FEF89838E010F5F1F4F8CE5E82E85E127
:1037C000F82E6FE674E3C8010E94E60B009771F1D2
:1037D000DC011E962C911E9723FFF3CFF894FC0179
:1037E0002685277F268778949C01265E3F4F3F934E
:1037F0002F9350968C918695869586951F928F93E0
:1038000089811F928F93FF92EF920E947113EDB7FF
:10381000FEB738960FB6F894FEBF0FBEEDBF6FE649
:1038200074E3C8010E94E60B009791F68091720242
:10383000882309F44BC0109272028FEF89838E01A6
:103840000F5F1F4FB0E5EB2EB5E1FB2E61E574E392
:10385000C8010E94E60BFC01892BC1F1848D80FF19
:10386000F5CFF89494812581368147815489658903
:103870007689A789B08DD18CC28CB38C848D8E7FD4
:10388000848F7894BF92CF92DF92BF93AF937F9350
:103890006F935F934F933F932F939F9389811F92D1
:1038A0008F93FF92EF920E9471132DB73EB7205F66
:1038B0003F4F0FB6F8943EBF0FBE2DBF61E574E3D6
:1038C000C8010E94E60BFC01892B41F6809173022E
:1038D000882309F454C0109273028FEF8AABAE01B3
:1038E0004E5C5F4F1A01AFE08A2E6DED70E3C101AF
:1038F0000E94E60B5C01892B09F441C0D501599661
:103900008C91599780FFF1CFF894F5014480558050
:1039100066807780818D8E7F818F789458968C9188
:103920005897813009F435C608F414C6823009F47A
:103930005FC68330D1F6CAA819821A829E012F5F12
:103940003F4F42E061E0848995890E94543E09819D
:103950001A81102701271027F02FF670EF2E30E084
:1039600020E0B301A201C5010E94DE396DED70E3D4
:10397000C1010E94E60B5C01892B09F0BFCF809149
:1039800074028823F9F0109274028FEF8AAB8E01D3
:103990000E5C1F4F180179E0A72E01531109E2EFC9
:1039A000BE2EDD24DA9406C0D7011E968C911E9798
:1039B00080FD0CC46DEB7FE2C1010E94E60B7C012F
:1039C000892B91F780917502882341F1109275023D
:1039D0008FEF8DABFE01F5967F01B0E37B2E88243F
:1039E000839418E2512E8E010F5F1F4F580108EA91
:1039F000902E81E3482E98EE392E2FE2222E06C01B
:103A0000D6011F968C911F9780FD20C465E970E355
:103A1000C7010E94E60B6C01892B91F78091760219
:103A2000882341F1109276028FEF8DABFE01F5965F
:103A30007F0150E3752E8824839464E2962E8E01D4
:103A40000F5F1F4F580171E3572EE4EA4E2EF2E24A
:103A50003F2EA2EA2A2E06C0D6011F968C911F97F0
:103A600080FD31C468E570E3C7010E94E60B6C017C
:103A7000892B91F7809177028823D1F010927702F9
:103A80008FEF8DABFE01F5967F0134E7A32E42E761
:103A9000B42E06C0D60152968C91529780FD3BC43D
:103AA0006EE97FE2C7010E94E60B6C01892B91F75A
:103AB000809178028823D9F0109278028FEF8DAB35
:103AC0008E010B5C1F4F780112E7A12E00E7B02E8C
:103AD00006C0D60152968C91529780FD4FC467E77D
:103AE0007FE2C7010E94E60B6C01892B91F7809160
:103AF00079028823C9F0109279028FEF89838E01B1
:103B00000F5F1F4F22242394312C06C0D701199632
:103B10008C911997811165C46DE877E4C8010E9402
:103B2000E60B7C01892B91F780917A028823B9F00A
:103B300010927A028FEF8AAB8E010E5C1F4F180134
:103B400006C0D80151968C9151978111CCC26BE07F
:103B500077E4C1010E94E60B8C01892B91F78091DB
:103B60007B02882309F497C010927B028FEF8AAB07
:103B70008E010E5C1F4F180177247A946EE874E46E
:103B8000C1010E94E60B7C01892B09F484C0D70196
:103B90001E968C9180FFF2CF6AA8BE016F5F7F4FA7
:103BA000C7010E9463509C01F894F70196859E7F9F
:103BB00096877894232B09F06DC3898183FFDECF2C
:103BC000A388B12C6501F4E1CF0ED11CCE0CDF1C13
:103BD000D7011C968D919C911BAA860122E0AE0113
:103BE0004D5C5F4F61E00E94243B4C01F7018485EE
:103BF000958521E02CAB0E5F1F4F22E0AE014C5C9F
:103C00005F4F61E00E94243B88299929892B09F0A4
:103C1000C4C7F701EA0DFB1D4489F6011181F701C4
:103C2000E65BFF4F808191814F3F11F40C94642635
:103C300050E070E060E0742F662755274427F601B6
:103C40002381422B612B2281522B8A019B01002769
:103C500011272227307E012B022B032B09F48CC75E
:103C600060E00E940E4FD70153968C9153978C5F62
:103C700053968C93803308F481CF662DC7010F963D
:103C80000E94DB4F6EE874E4C1010E94E60B7C01E8
:103C9000892B09F07CCF80917C02882309F47CC0B9
:103CA00010927C028FEF8AABFE01F2961F018E010B
:103CB0000A5F1F4F1FAB0EAB9E012D5F3F4F39AF09
:103CC00028AFAE01475F5F4F5BAF4AAF6DE574E46D
:103CD000C1010E94E60B2C01892B09F45DC0D201C1
:103CE0001E968C9182FFF2CFF894F2018480958029
:103CF000A680B780F1881686118A78948085918590
:103D0000A285B385881A990AAA0ABB0A82010E5EA7
:103D10001F4F68011F2D1150A8F0D20156968C91AB
:103D2000F201E80FF11DBFEFB78B108E118E8D5F82
:103D3000F201868B813378F36AA9C6010E94DB4FBA
:103D4000115058F7F12ED2011F96DC90DD2009F4B6
:103D500009C2B1E0DB1609F4C6C3F2E0DF1609F4CC
:103D60001FC6F3E0DF1609F4C0C6B4E0DB1609F4A1
:103D70002EC7F2017689713308F4A8CF6AA9C2016F
:103D800042960E94DB4F6DE574E4C1010E94E60B90
:103D90002C01892B09F0A3CFA89580917F0288235D
:103DA00029F080E48093600010927F02F09040033D
:103DB000FF2009F477C080913002182F80FD16C0D3
:103DC00034E03F1508F06EC0309080029BEF930DF9
:103DD0009C3308F09FC5E09081029E2D907F90312A
:103DE00009F474C5182F1160109330024F2D50E064
:103DF0006EE770E080E892E00E94F951009741F090
:103E00001E7F1093300280589240FF24F394F80EE6
:103E100011FDC2C51260109330028AE697E09F93AD
:103E20008F930E9471130F900F903F2CDD24DA9432
:103E300080E0E32CF12C00914003102F131961F462
:103E40002FB7F894909140030917E9F02FBF009124
:103E50004003102F1319A1F390E0412F50E0481BAD
:103E6000590BB701680F791F60587D4F80589D4FDF
:103E70000E940F5210922602812F2FB7F894909132
:103E800040030913E3CF109340032FBF77247394AB
:103E9000D71008C08AE697E09F938F930E94711312
:103EA0000F900F900E94EC484B015C0124960CADE2
:103EB0001DAD2EAD3FAD2497601B710B820B930B94
:103EC000C0903902D0903A02E0903B02F0903C0260
:103ED0001FEFC11AD10AE10AF10AC0923902D09249
:103EE0003A02E0923B02F0923C0240903502509040
:103EF00036026090370270903802460E571E681ED8
:103F0000791E4092350250923602609237027092CA
:103F100038026115710521E08207910508F099C00A
:103F2000009131021091320220913302309134021B
:103F30000CAF1DAF2EAF3FAF9B01AC010E940F51E4
:103F4000DC01CB0181509F4FAF4FBF4F892F9A2F7C
:103F5000AB2FBB270CAD1DAD2EAD3FAD800F911F1C
:103F6000A21FB31F0CAD1DAD2EAD3FAD8017910745
:103F7000A207B30718F48FEF9FEFDC0180933102A3
:103F800090933202A0933302B093340240916802BE
:103F90005091690260916A0270916B0295018401EF
:103FA000041B150B260B370BB901A8014115544B07
:103FB000644C744008F05CC324968CAE9DAEAEAEEB
:103FC000BFAE249780912602882309F44CCB0E942F
:103FD000EC482496CCACDDACEEACFFAC2497C61A12
:103FE000D70AE80AF90AF894809126028111C8C517
:103FF00078940E94EC4836014701660E771E881EB1
:10400000991E24966CAE7DAE8EAE9FAE24972BCBC0
:1040100059963C91599758963C937894AC01415FDE
:104020005F4F5F934F931F922F9387891F928F93B8
:1040300089811F928F93FF92EF920E9471132DB787
:104040003EB7265F3F4F0FB6F8943EBF0FBE2DBF61
:104050008ECB6115710510E18107910508F08BCFBA
:1040600000913102109132022091330230913402DA
:104070000CAF1DAF2EAF3FAF9B01AC0121503F4FA6
:104080004F4F5F4F232F342F452F55270E940F513D
:104090000CAD1DAD2EAD3FAD060F171F281F391FEC
:1040A000D901C8015FCF54896589908921893289F6
:1040B00043898F5F858F78946F935F934F933F937E
:1040C0002F939F9389811F928F93FF92EF920E946B
:1040D00071134DB75EB7465F5F4F0FB6F8945EBF82
:1040E0000FBE4DBF1ACBBAA819821A821B829E013D
:1040F0002F5F3F4F43E061E01F968D919C910E949E
:10410000543EF801118A8981CA80D12CF12CE12C0E
:10411000FE2CED2CDC2CCC24E82A8B81C82AE7FE6F
:1041200002C0FF24FA94B701A601F801E55BFF4F36
:10413000808191810E94C44AD80157968C91F801E0
:10414000E80FF11DC08ED18EE28EF38E8C5FF801E8
:10415000878B803308F4FBCC6B2DC80143960E94FB
:10416000DB4FF5CC82E389831A820E94EC486CAF66
:104170007DAF8EAF9FAF9E012F5F3F4F42E061E06A
:10418000F201848595850E94543E0E94EC480CAD56
:104190001DAD2EAD3FAD601B710B820B930B6132D9
:1041A00073408105910508F0CCC1298127FF85C4A2
:1041B000D20156967C91F201E70FF11DF78A83E058
:1041C000808F118E7D5FF201768BD5CDCAA8F80164
:1041D0006A2C11926A94E9F7B982980149E061E08A
:1041E0001C968D919C910E94543ED70153968C91C0
:1041F00090E0FC017496EE0DFF1D4B81242F207F73
:1042000009F492C2203F09F48FC2D482D382D282B1
:10421000D1828E0D9F1DFC01D48AD70153968C91BB
:1042200053978B5F53968C938F3228F06C2DC70178
:104230000F960E94DB4FD7011E968C911E978E7FA2
:104240001E968C93C7010E949239B4CB6DA81E961E
:104250008C911E9751969C915197903308F414C3FA
:10426000882309F486C5813009F422C6D601569602
:104270007C92662DC60142960E94DB4FF601818931
:104280008053818B803308F416C3109226028092EB
:104290007502BCCB61E0E65BFF4F808191810E949B
:1042A0000E4FD70153968C9190E0FC017496EE0D61
:1042B000FF1D8E0D9F1DDC0154967C92718212822F
:1042C00081E08383D0CC6DA81E969C911E9750965A
:1042D0002D913C9151972033310508F4DCC399238B
:1042E00009F40CC5913009F4D4C5D60156967C92D8
:1042F000662DC60142960E94DB4FF60180899189A6
:10430000C097918B808BC09708F4CCC41092260282
:1043100080927602A7CB9DA81C968D919C911D97AB
:1043200050962D913C912033310508F480C2A9822A
:104330008601085E1F4F20E3AE014F5F5F4F61E0D3
:104340000E94243B0E94363D80E3F601878B8089E2
:104350009189C097918B808B692DC60143960E94ED
:10436000DB4FD60150968D919C91C09708F484C282
:104370001092260281E08093770292CB9DA81C9632
:104380008D919C911D9750962D913C912033310534
:1043900008F420C2A9828601085E1F4F20E3AE0107
:1043A0004F5F5F4F61E00E94243B0E94363D80E3F7
:1043B000F601878B80899189C097918B808B692DBD
:1043C000C60143960E94DB4FD60150968D919C9179
:1043D000C09708F424C21092260281E080937802EC
:1043E0007ECB79801896CC9018972C2D30E0529681
:1043F0004D915C9153975496DC9054975596ED915E
:10440000FC91569757967C91295E3F4F80E090E053
:10441000DC012F01F894F20170830000000070832A
:10442000FA0160817894880F991FAA1FBB1F6D2124
:10443000812C912C54018394611103C0812C912C07
:10444000540188299929AA29BB292150310910F73B
:10445000F894F7012185118678944C015D010C2CAC
:1044600004C0B694A794979487940A94D2F7A7FEB1
:1044700002C0BB24BA94A10101C0440FCA94EAF758
:10448000415050E070E060E084239523A623B723D9
:10449000481759076A077B0709F46FC220E030E02C
:1044A00040E050E8D7011E962D933D934D935C93C9
:1044B000519790E840E030E020E0D7015C968C9185
:1044C000F701E80FF11D258F368F478F90A38C5F82
:1044D000F701848F803308F41FCB672DC7014896FE
:1044E0000E94DB4F19CB8FE789838EEF8A830E946E
:1044F000EC4828966CAF7DAF8EAF9FAF28979E019A
:104500002F5F3F4F42E060E0F201848595850E9475
:10451000543E0E94EC486CAF7DAF8EAF9FAFDC0184
:10452000CB0128960CAD1DAD2EAD3FAD2897801B5D
:10453000910BA20BB30B81329340A105B10508F496
:10454000F0C1D20156967C91F201E70FF11DF78A76
:1045500082E036CECAA819821A821B821C829E0172
:104560002F5F3F4F44E061E0848995890E94543E6B
:1045700069817A818B819C810E941F51F62FF7708F
:10458000EF2E8B019C01B301A201C5010E94DE390F
:10459000ACC99AA80CE009831A821B821C829E0176
:1045A0002F5F3F4F44E061E054968D919C910E94B3
:1045B000543E69817A818B819C810E941F516B01DD
:1045C0007C0189821A829E012F5F3F4F42E061E0A9
:1045D000F501848995890E94543E9701860133270D
:1045E000C92CEA80B301A201C5010E94DE397DC950
:1045F000CAA881E089831A821B821C829E012F5FD8
:104600003F4F43E061E054968D919C910E94543E4F
:1046100069817A818B819C810E941F51672F782F3D
:10462000892F99278B019C01222733270CAF1DAFBF
:104630002EAF3FAF17E019831A829E012F5F3F4FC5
:1046400042E061E0D50154968D919C910E94543EC8
:104650008A818C7F9CAD9170E82EE92A0CAD1DAD4E
:104660002EAD3FADB301A201C5010E94DE393DC9A7
:10467000BF93AF939F938F937F926F925F924F926E
:10468000FF92EF92DF92CF928AEA95E19F938F9308
:104690000E9471132DB73EB7225F3F4F0FB6F894BB
:1046A0003EBF0FBE2DBF8091680290916902A0911C
:1046B0006A02B0916B0288169906AA06BB0698F4A6
:1046C0008091640290916502A0916602B0916702A8
:1046D0000196A11DB11D8093640290936502A09381
:1046E0006602B09367028092680290926902A0927B
:1046F0006A02B0926B021092310210923202109252
:104700003302109234021092350210923602109247
:104710003702109238021092390210923A02109227
:104720003B0210923C0248CC5D81252F207F19F07E
:10473000203F09F06ACD2F81322F307F19F0303FB2
:1047400009F063CD3885303909F05FCD3985932E76
:10475000E89497F8B0E2B91508F457CD30E08E0D23
:104760009F1D6A81DC0154966C938C8181838E81BC
:104770008283842F8F71B901660F771F62957295BE
:10478000707F7627607F7627862B8383220F331FE7
:10479000220F331F2076852F8F71822B8483F701A0
:1047A00083898B5F838B8F3208F0DCC3FEE1F915C0
:1047B00008F07DC5D70151968D919C915297019635
:1047C00052969C938E9351971092260281E080938B
:1047D0007402F0C8BAAA8E010F5F1F4F22E0AE012B
:1047E0004E5C5F4F61E00E94243B0E94363D898110
:1047F00090E0982F882788279F712A81822BF601C5
:10480000268537852817390710F497878687D601BC
:1048100051969C938E935097C0970CF03EC5F6012D
:1048200082898E7F828BC6010E94763858C9BAAAC7
:104830008E010F5F1F4F22E0AE014E5C5F4F61E0C3
:104840000E94243B0E94363D898190E0982F882762
:1048500088279F712A81822BF601268537852817A4
:10486000390710F497878687D60151969C938E93CB
:104870005097C0970CF00DC5F60182898E7F828B10
:10488000C6010E9476380CC91AAA882309F44FC2BF
:10489000813009F4EEC2F6018089813009F4DCC26E
:1048A00080E08F73982F990F890F880FF601818B05
:1048B000803308F0DCC2D6011F968C911F978E7F43
:1048C0001F968C93C6010E944539A0C8F31408F4C2
:1048D000E9CA232D30E0F901E158FD4F90819E3760
:1048E00009F080CA890103581D4F580122583D4FD5
:1048F000D9018C91F8010081102F082F6DEF630D05
:1049000080E892E00E949F4A0817190709F466C3DD
:10491000309080024EE7341609F4C3C4809130020F
:1049200061CA80EC89831A829E012F5F3F4F42E06B
:1049300061E0D2011C968D919C910E94543E998118
:104940002A81892F8227382F32953F708327382F6D
:10495000369536958327382F3695832780FF27C2D3
:10496000F2017689E70FF11DF78A83E0808F118EBF
:104970007D5FD20156967C93FEC921FF7DC120E068
:1049800030E040E050E4D7011E962D933D934D93C7
:104990005C93519790E48ECD3F2CDD24DA9448CA85
:1049A000D2011C96ED91FC9104816280738040E0FD
:1049B000B301802F0E9433470E94EC486B017C01B9
:1049C000B0E1CB0ED11CE11CF11C1F2D0E94EC4864
:1049D000212FC616D706E806290B27FFF7CFF89434
:1049E00041E0B301802F0E9433470E94EC486B01E5
:1049F0007C01789488E0E8ADF9AD11928A95E9F7E9
:104A000084E8898383E28A839E012F5F3F4F4AE0D7
:104A100061E0D2011C968D919C910E94543EFE0152
:104A2000339665E08191682788E090E003C0660FC7
:104A3000019739F067FFFBCF660FBDE16B27019748
:104A4000C9F76AAC7BACE615F70561F7D20156965B
:104A50007C91872F90E0AC014F5F5F4F9C012E5FF0
:104A60003F4F7D5F6095EA856E1709F41DC1840D87
:104A7000951D66246A94FC01678A440D551D83E0E8
:104A8000DA0157968C93240D351DF901178AD2014E
:104A900056967C9370C9992309F4ABC1913009F4FF
:104AA0004AC2F601118A108A8E7FD6011F968C9316
:104AB000C6010E94F7380C94321D8A8190E0880F5D
:104AC000991F30E0322F2227330F7C01E22AF32A8C
:104AD0000CAD1DAD2EAD3FADB501A401C2010E94CC
:104AE0000150D20156967C9146C983E889831A8287
:104AF0001B820E94EC486CAF7DAF8EAF9FAF9E01D2
:104B00002F5F3F4F43E061E0D2011C968D919C9155
:104B10000E94543E0E94EC48AB01BC01DC01CA017A
:104B20000CAD1DAD2EAD3FAD801B910BA20BB30B99
:104B300081329340A105B10508F003CDEA809B8145
:104B40008E2D8927282F22952F708227282F269592
:104B500026958227282F2695822780FF39C1D201EA
:104B600056967C91F201E70FF11DF78AD08E118ED7
:104B70007D5FF201768BFFC87F700E94C44A73C8C4
:104B80008FEF809327028093260278940000F89498
:104B9000809126028111F9CF2BCA62E0F701E65B12
:104BA000FF4F808191810E940E4FD70153968C91C7
:104BB00090E0FC017496EE0DFF1D8E0D9F1DDC0133
:104BC00054967C927182128282E083834CC886E084
:104BD000EAE2F2E0DE01119601900D928A95E1F78A
:104BE0000E94EC486CAF7DAF8EAF9FAF9E012F5FF0
:104BF0003F4F46E061E0D2011C968D919C910E944E
:104C0000543E0E94EC48AB01BC01DC01CA010CAD72
:104C10001DAD2EAD3FAD801B910BA20BB30B8132AE
:104C20009340A105B10508F08CCCFE01339680E0DD
:104C30009191892728E030E004C0880F2150310984
:104C400049F087FFFACF880F07E0602E86252150B4
:104C50003109B9F76EA87FA86E167F0649F79E81C5
:104C6000981709F4EDC0D20156967C91F201E70F36
:104C7000F11DBFEFB78BA3CAF70186859785A08981
:104C8000B1890097A105B10509F0F2C2B501A401EF
:104C9000E05BFF4F808191810E94C44A94014A2DBC
:104CA0009B2D0BCC878500CF698564FF16C1EB81F6
:104CB000E7FD68C1840D951DEFEFDC015796EC937D
:104CC000440D551D84E0DCCE1F3F11F00C94181EDE
:104CD00063E00E940E4FD70153968C9190E0FC0147
:104CE0007496EE0DFF1D8E0D9F1DDC0154961C93D6
:104CF0001183128283E083830C94331ED501E52D4A
:104D00001D92EA95E9F74982950141E361E0D601F8
:104D10001C968D919C910E94543E80E3FE01329638
:104D2000D601579601900D928A95E1F7DECABFEA47
:104D3000B9831A82950142E061E0F6018485958588
:104D40000E94543E8A818AAB86FF07C0F6012489FF
:104D500035892F5F3F4F358B248BD60150969C9120
:104D60005097913009F09DCD85FF77C051961C92E8
:104D7000A2CDD501E42D1D92EA95E9F79982D601DD
:104D800050968C91813009F43982950141E361E0BC
:104D9000F601848595850E94543E80E3FE0132969B
:104DA000D601579601900D928A95E1F75FCA96FF5A
:104DB000A9C0F2017689E70FF11DF78A15E0612E8F
:104DC000608E118E7D5FD20156967C930C94BB1E33
:104DD00091FFC2C0D20156967C91F201E70FF11DFE
:104DE000F78AB5E0B08F118E7D5FF201768B0C945F
:104DF000BB1E29821A821B82950143E061E01C964A
:104E00008D919C910E94543E8A819B818130B4E0B7
:104E10009B0760F0F601248935892F5F3F4F358B62
:104E2000248B918B808BF601968559CAD6015196B9
:104E30009C938E935097C097B0F71F968C9134CE69
:104E40008D8181FF97C0D20156967C91F201E70FC8
:104E5000F11DBFEFB78BB2CF80E08F71982F990F04
:104E6000890F880FF601818B803308F424CD868565
:104E7000F7C929828E010E5C1F4F21E0A50161E078
:104E80001C968D919C910E94243B0E94363D8AA9DC
:104E90005BCF99828601095E1F4F20E3A50161E087
:104EA000F601848595850E94243B0E94363D1DCAEB
:104EB0005982D60150968C91813009F459C08601EF
:104EC000095E1F4F20E3A50161E0F6018485958509
:104ED0000E94243B0E94363DC9C9840D951D66245D
:104EE0006A94FC01678A440D551DE5E0DA01579686
:104EF000EC93240D351DD90157961C92F201768B47
:104F00000C94BB1E892F90E0982F8827990F990F3A
:104F100030E0220F331F220F331F7C01E22AF32AD5
:104F20000CAD1DAD2EAD3FADB501A401C2010E9477
:104F300001500C94B91E3AAA850122E0AE014E5CE4
:104F40005F4F61E01C968D919C910E94243B0E94D2
:104F5000363D89819A815ACF9C7FFE2CE92E8A01A9
:104F60009B01BACD6C2DC7010F960E94DB4F1ECC62
:104F70009982A5CFEB80FC80FE24EF24FE248A01D9
:104F80009B01D2CFC818D908EA08FB08B1E5CB16B7
:104F9000B5E5DB06E104F10408F071C1AC81B0E0D5
:104FA000AA0FBB1FF0E0FE2FEE27FF0FEA2BFB2B13
:104FB000840D951D6F8166956F73DC0157966C9318
:104FC000440D551DDA015796EC93240D351DD9017A
:104FD0005796FC93F201768B0C94BB1E80913002A5
:104FE0008D7F8093300280910802E81245C181E0F4
:104FF0008E0D8F7080618093080202E812E0F2E863
:10500000AF16F2E0BF0609F008F491C06DB67EB6A7
:105010007DAE6CAED8012C91822F90E027FDF8C0B8
:105020000F5F1F4F009709F402C1E8E6F7E02591F2
:1050300034918217930708F0FAC0FC01EE0FFF1FAE
:10504000EE0FFF1FEE0FFF1F3F01680E791E79AEB6
:1050500068AEF301E256FC4FE4918DB69EB624E0B3
:10506000E29F8018910811240FB6F8949EBE0FBEDF
:105070008DBE4DB75EB74F5F5F4F2A01F301E0561B
:10508000FC4F4491F301EF55FC4F25913491F90108
:10509000420F532F511D9201BF014617570779F157
:1050A000A016B10608F4E1C0FB0184916F5F7F4F49
:1050B000853008F440C0873009F0D7C0C801019698
:1050C000F801C0808C010C0D111DA016B10608F46A
:1050D000CCC0D12CF12CE12CD901CD92DD92ED92F6
:1050E000FC9213976C01F12CE12CF901C482D5825A
:1050F000E682F782285F3F4F4617570789F62091CF
:105100002802211197C0E8ADF9ADED55FC4F25916E
:105110003491C201F90119956CAC7DAC0FB6F894CD
:105120007EBE0FBE6DBE0A151B0508F46FCFDD24D1
:10513000D3940C94181F6901F4E0CF0ED11C7801B0
:105140008FEFE81AF80AD8011C91812F8F77682E0B
:10515000712C912C812C28966CAE7DAE8EAE9FAEBC
:105160002897012F0076003661F4D401C301806EC8
:105170009F6FAF6FBF6F28968CAF9DAFAEAFBFAFC5
:10518000289717FF43C028968CAD9DADAEADBFAD3F
:1051900028974B0187010F5F1F4FF7016081880F30
:1051A000991FAA1FBB1F880F991FAA1FBB1F880F1B
:1051B000991FAA1FBB1F880F991FAA1FBB1F880F0B
:1051C000991FAA1FBB1F880F991FAA1FBB1F880FFB
:1051D000991FAA1FBB1F762F7F77872B780167FD4A
:1051E000D9CF28968CAF9DAFAEAFBFAF2897B40193
:1051F00028966CAC7DAC8EAC9FAC2897D9016D9293
:105200007D928D929C921397960147CF8701F0CFA4
:105210009695982F88279795879580789F73F801A2
:105220002181822B0E5F1F4F009709F0FECE85E093
:105230000E94B60DE8ADF9ADE156FC4FE491E0FDFA
:1052400062CF809129021F928F93ACEB6A2EA5E169
:105250007A2E7F926F920E9471136CAC7DAC0FB668
:10526000F8947EBE0FBE6DBE5ECF87E00E94B60D85
:105270009C014A2F9B2F21C9F32C0C940D1F840DE8
:10528000951D66246A94FC01678A440D551D81E0D2
:10529000F7CB1C968D919C914AC81C968D919C9140
:1052A00079C833243394DD24DA940C94181FB1E0C8
:1052B000B91508F489CA0C941B21CF93DF9300D051
:1052C00000D000D0CDB7DEB783EA93E090935A02C6
:1052D00080935902FFB6F8941092800001E0009389
:1052E0008100E4E8F0E01182108280819181C29611
:1052F000909389008093880012E016BB8081918191
:10530000C29690938B0080938A0084E086BB8AE1EA
:1053100092E00E94221806BB10936F00FFBE88E146
:105320009DE00FB6F894A895809360000FBE90930F
:10533000600080E4809360001093C00087E090E0FC
:105340009093C5008093C40086E08093C20088EBF0
:105350008093C10082EC95E19F938F930E9471131B
:105360000F900F90F8948DE392E00E94A9518C0168
:10537000892B19F478940E941C1BF8940E94EC4825
:10538000F62EE72ED82EC92EE2E2F2E086818111B8
:1053900001C0078382E292E022E0DC0116962C93A2
:1053A000169700E012E00D931C93E2E1F2E04481D5
:1053B000558166817781D80114964D935D936D93E5
:1053C0007C931797DC011396FC93EE931297D80108
:1053D000ED93FC938AE092E0918380838091840036
:1053E00090918500C296909389008093880026BB97
:1053F000109255020E941B0C8FEF898781E1A82E25
:10540000B12C05C08B2DF80183A310A2178E6AE280
:1054100073E1CE0109960E94E60B8C01892B79F08D
:10542000F80143A140716489758986890E943347D8
:10543000D80193968C9184FFE5CF8A2DE4CF8FEF2E
:10544000888709C0DC0195961C921E92949760E0B3
:1054500088960E94AC1769E772E1CE0108960E9417
:10546000E60B009779F78FEF8F8302C00E948D17AC
:105470006DE472E1CE0107960E94E60B0097B1F74A
:105480008FEF8E831FEF0AC090910902828D9813CF
:1054900002C010930902868D8111D1C066E072E1CD
:1054A000CE0106960E94E60BFC01892B69F78FEF6F
:1054B0008D8311E004C0FC01458140FDDAC06AEE35
:1054C00071E3CE0105960E94E60B0097A1F78FEFDE
:1054D0008D830CC09C012D5F3F4FDC0112964C91D7
:1054E000129760E08D919C910E94543E6AE977E3A7
:1054F000CE0105960E94E60B009761F78FEF8C8333
:1055000004E611E30BC02FB7F894992711969C93EA
:105510008E932FBF13830283128A118A60E478E38B
:10552000CE0104960E94E60BFC01892B49F0878589
:105530009089A085B1852285222329F38C93EACF17
:105540008FEF8B8302C00E94333A6FE674E3CE0183
:1055500003960E94E60B0097B1F78FEF8A830FC086
:10556000F80164857585868540E00E943347D8013F
:105570001F966D917D918C9140E00E9433476FE7BB
:1055800072E3CE0102960E94E60B8C01892B41F753
:105590008FEF89832FC0F80161857285838540E094
:1055A0000E943347D8011C966D917D918C9140E00B
:1055B0000E943347F80167857089818940E00E9425
:1055C0003347D80152966D917D918C9140E00E94B5
:1055D0003347F80165897689878940E00E9433471F
:1055E000D80158966D917D918C9140E00E9433478F
:1055F000F801108661E172E3CE0101960E94E60B8C
:105600008C01892B41F68AE192E00E942218E2E2A5
:10561000F2E081E08683789487811F928F93CF9206
:10562000DF92EF92FF9286EB95E19F938F930E941A
:1056300071130FB6F894DEBF0FBECDBF9BCE8F5F48
:10564000858F80899189A289B3894085518562853A
:105650007385840F951FA61FB71F808B918BA28B1C
:10566000B38B84839583A683B783CF010E942218CE
:1056700015CF43FB442740F9412762817381848120
:105680000E9433471CCFFC0192899160928B10924B
:10569000260281E08093780280E00895FC019289DF
:1056A0009160928B1092260281E08093770280E0D5
:1056B0000895FC019785916097871092260281E0FA
:1056C0008093760280E00895FC019785916097872A
:1056D0001092260281E08093750280E00895FC011B
:1056E0009685916096871092260281E080937402DD
:1056F00080E00895FC011092260281E080937302FD
:10570000818D8160818F84819581A681B78140855B
:10571000518562857385840F951FA61FB71F8483EB
:105720009583A683B78381E00895AF92BF92DF92FD
:10573000EF92FF920F931F93CF93DF93FC01A48509
:10574000B585968547855089E18822893389F48813
:10575000A588B6887789008D118DD28C80858627A3
:105760009C9384FD20C085FD22C086FD24C087FD5A
:1057700026C09C93862F8295807F808768279C9384
:1057800064FD2AC065FD25C066FD1CC067FD1EC006
:105790009C93DF91CF911F910F91FF90EF90DF903D
:1057A000BF90AF900895EA01E88285FFDECFE9015E
:1057B000F88286FFDCCFE501788387FFDACFE80146
:1057C000D882D7CFF501708367FFE2CFE801D88296
:1057D000DFCFE901F882D8CFFA01E082D3CFCF93AF
:1057E000DF93DC011C96ED91FC911D971E969C9118
:1057F0001E971F96CD91DC91509751962C9188E081
:1058000005C09083660F9083815049F067FFF9CF00
:10581000288360959083660F90838150B9F7DF915C
:10582000CF910895CF93DF93FC0184819581A68168
:10583000B7814489558966897789C58DD68D288138
:10584000C42FC170378D232331E009F430E0C31732
:1058500061F04F5F5F4F6F4F7F4F448B558B668B6F
:10586000778B808F918FA28FB38F40895189628906
:105870007389272F481759076A072B0B27FF18C072
:10588000248D2160248F4485558566857785840F16
:10589000951FA61FB71F808B918BA28BB38B109285
:1058A000260281E08093720284819581A681B7816E
:1058B0004085518562857385840F951FA61FB71F8C
:1058C00084839583A683B78381E0DF91CF91089588
:1058D000CF92DF92EF92FF92CF93DC011896ED9179
:1058E000FC9119971A968C911A9780831E968C9129
:1058F0001E9791E098271E969C931E978095817025
:105900005696CD90DD90ED90FC9059971F969C9106
:105910001F979F5F5196CC9151979C1708F067C0D5
:10592000E92FE695E695E695EA0FFB2FF11D228D0E
:1059300030E0492F477002C0359527954A95E2F728
:105940002170B701A6018217A1F037C0E92FE695B3
:10595000E695E695EA0FFB2FF11D228D30E0E92F49
:10596000E77002C035952795EA95E2F7217082131A
:1059700024C04C0D5D1D6E1D7F1D9F5F9C1730F375
:1059800084EE9AE313969C938E9312971496CD907F
:10599000DD90ED90FC9017974C0D5D1D6E1D7F1DE9
:1059A00014964D935D936D937C93179781E0CF91FF
:1059B000FF90EF90DF90CF9008951F969C931F97D4
:1059C0001496CD90DD90ED90FC9017974C0D5D1DD9
:1059D0006E1D7F1D14964D935D936D937C93179769
:1059E00081E0CF91FF90EF90DF90CF900895B701C5
:1059F000A601C6CF0F931F93CF93DF93DC015A9676
:105A00003C915A973323E9F0FC017B963150232FC8
:105A100030E0B901660F771F260F371FBD01625EA8
:105A20007F4F620F731F30E041E0C081D1819881C8
:105A30008281982309F0342B440F33966E177F0729
:105A4000A1F71C969C911C97931749F01D968C9179
:105A50001D9783278095292F2327282351F55896B2
:105A60008C9158971D963C931D9787FD06C08150D9
:105A700008F442C058968C93589714964D915D91B6
:105A80006D917C91179718960D911D912D913C91D8
:105A90001B97400F511F621F731F14964D935D9308
:105AA0006D937C93179781E0DF91CF911F910F91B8
:105AB0000895282F209592238323892B1C968C935D
:105AC0001C971E96EC911E97E83048F691E09E0FC9
:105AD0001E969C931E97EA0FFB2FF11D878710924D
