:100000000C9496090C94C3090C94C3090C94C3096D
:100010000C94C3090C94C3090C94C3090C94C30930
:100020000C94C3090C94C3090C94C3090C94C30920
:100030000C9498410C94C3090C94C3090C94C30903
:100040000C94C3090C94AB290C94C3090C94C309F8
:100050000C94C3090C94C3090C94C3090C94C309F0
:100060000C94C3090C946F410C9445410C94C30942
:100070000C94C3090C94C3090C94C3090C94C309D0
:100080000C94C3090C94C3090C94C3090C94C309C0
:100090000C94C3090C94C3090C94C3090C94C309B0
:1000A0000C94C3090C94C3090C94C3090C94C309A0
:1000B0000C94C3090C94C3090C94C3090C94C30990
:1000C0000C94C3090C94C3090C94C3090C94C30980
:1000D0000C94C3090C94C3090C94C3090C94C30970
:1000E0000C94C3090C9439340C949E1B0C94213746
:1000F0000C94F7300C941F270C94A53B0C94C93436
:100100000C94993A0C948F3E0C94843E0C94712577
:100110000C9413360C94F53F0C94083A0C949A3EC8
:100120000C94DE2D0C94A52F0C94C53A0C94F32F4F
:100130000C9406170C94B3250C94DE2B0C94BA3A4D
:100140000C94FD2B0C9428190C94BA1B0C94F138C8
:100150000C948A150C9445190C94173F0C94F217C3
:100160000C94C1220C944D1A0C942B170C946922F8
:100170000C94D62F0C94741D0C94FA330C946617BF
:100180000C94821B0C94A7250C944A1E0C943C37AB
:100190000C94E1180C94281C0C9427190C94B62587
:1001A0000C94AE220C94621A0C943A220C94722491
:1001B0000C9439410C94C33B0C94363F0C94361686
:1001C0000C947E370C94AF2C0C94F63A0C949C391A
:1001D0000C94AC1D0C940C340C94FF250C94E32E61
:1001E0000C9406150C94D1320C94B9300C944B3805
:1001F0000C94172E0C9490340C94EC2C0C946230CC
:100200000C94A12B0C94901E0C94932E0C941B23F5
:100210000C94BF160C94F83E0C94763B0C949F36CD
:100220000C94762D0C948B270C94FB320C94153B7C
:100230000C9408410C9483330C9407260C940735D6
:100240000C94292C0C94BC400C947A3A0C94D3381E
:100250000C94A1380C9447150C946F240C94322CF8
:100260000C94452B0C94F7240C948E230C94272F7C
:100270000C940C350C94AC230C94A33B0C940B28DD
:100280000C9491300C94A3170C94E0320C946A2FC8
:100290000C944F290C946D160C94DA1F0C94713F3A
:1002A0000C94E9390C94E1270C94BC150C94F915C5
:1002B0000C94E7160C94C6330C9471180C943B1BE9
:1002C0000C94F6230C94A41D040400000400000404
:1002D0000404040000000004040000000004000006
:1002E0000000000000040000000000040002000004
:1002F00004000400000407040400000404040000D7
:1003000002020000000204070004000404000004CC
:1003100000020204040404040000040004040404B1
:1003200004040400040002030400040400040004A4
:1003300000000400040000000000000000000100B4
:100340000201023303B62502000001000000A725C8
:1003500003000001000000B32504000001000000BC
:10036000692205000001000000AE22060001000124
:10037000E211C122070000010000003A220800013A
:1003800000013203F7300900000100000027190ABC
:1003900000020101DD114D1A0B000301032F032898
:1003A000190C000201022D03621A0D000200023333
:1003B0000307350E00020002C9111B230F000300C2
:1003C000032F03F62310000200022D038E231100D9
:1003D0000500052803AC231200020002C911623097
:1003E00013000100013203B93014000200022D0392
:1003F00091301500020002C911D62F160004000426
:100400002403133617000500051F030C35180001DF
:1004100000013203C6331900080008170339341AE3
:1004200000030003140390341B00020002C911836F
:10043000331C000200022D030C341D00040004C113
:1004400011C9341E000100013203FA331F000800F5
:10045000080C03901E20000200022D034A1E2100FA
:10046000040003CB11E1272200030002CE110B2868
:100470002300030002CE11DA1F2400040004C5117A
:10048000AC1D25000100013203A41D26000300035A
:100490000903741D27000400030603072628000330
:1004A0000002CE111F272900040004C5118B272A42
:1004B000000100013203FF252B0003000303032981
:1004C0002C2C00030003D011F7242D00060006FD9C
:1004D0000271252E00020002C911DE2D2F00050039
:1004E00005F802A12B3000040004D711FD2B3100C8
:1004F000020002C911DE2B3200040003F502762D42
:100500003300050005F002172E340001000132030C
:10051000F1383500040003B2119C3936000500059E
:10052000EB02AF2C3700040004C511A138380003DA
:1005300000030903D3383900030002CE11E9393A28
:1005400000030002CE117A3A3B00060006E50208DD
:100550003A3C00030002CE11821B3D00030002CE94
:10056000119E1B3E00080008DD02BA1B3F0006007A
:1005700006E502281C4000050005D8023B1B41008F
:10058000060006D2023C37420003000314037E3704
:1005900043000100013203153B44000200022D0319
:1005A000763B4500020002C911F63A4600030002FC
:1005B000CE11F53F4700040004C111363F48000347
:1005C00000031403C53A49000100013203713F4A98
:1005D000000200022D0308414B00020002C911175E
:1005E0003F4C0001000132039A3E4D000200022DF3
:1005F00003BC404E00020002C911F83E4F0001004A
:10060000013203711850000200022D0366175100D9
:10061000010001320336165200060006CC026D16A8
:100620005300030003140306175400020002C9110B
:10063000E71655000100013203F9155600020002C9
:100640002D03A3175700040004C802F21758000135
:1006500000013203BC1559000200022D032B175A6A
:1006600000030003BB11BF165B000001000000394E
:10067000415C0000000500000028292A2B2C2D2EAB
:100680002F505152535455565778DA9D196B8FDBC2
:10069000B8F1AFB00682F68ADDD4922CD9DE221FE3
:1006A000F675B95CB2B9BD38DB1C50148256A26D28
:1006B00062F53A51DA470FF9EF9DE1F025D9C9010A
:1006C0000D10AC48CE0C39EF87FF98656D3B3B9B16
:1006D000BD2F45DBF26E7632BB1F4459A48FBC930D
:1006E000A2A9251CEDF2FC8CFDEDEDE5E50F2C7EBD
:1006F000BD783D67F7A21E7A514ADCFD78C72EF41B
:10070000F20716BE0E93D7E13C48E6411803A9BC98
:10071000A9AAAC2E80C81FB3AC2C9B3CEB79DA881D
:1007200042B2BC19EAFECDAB7C76B6C21BFB1EAE54
:100730004AB3FC81C1296C7BE78BC403280A03D030
:100740003652FD11F59B57036B87B24C8796103CD0
:100750008ABF0FBC7BB134E1010F08DD71D9A7BDA1
:10076000C81F24ADFA2EAB6525FAD4DCCA440DFCB3
:10077000EBFB97C047C9B32E95FBA12F9AA77A76BA
:1007800016226BF556ECE0453208C3B9B942B622E1
:10079000D59F45D66769C7B3E225A547CECED673A8
:1007A0000FEFB98C16F121DEEC2C593BA83A2B9BAC
:1007B0005D2A6ACBB5A614B91768560D042D534FA0
:1007C0007E8E9CDAE4DD98D848767162810BB11395
:1007D0007D56A6CDD04F101EB372E08A45BECD86A1
:1007E000B24FED46953DA7C5D0653D588E7A67B0AE
:1007F000B4F438D841DFB4235AF9E8F2D05DBE2F03
:10080000168BE5CA8AB5935A868C9B8F6261BF624C
:10081000FB95D8AFA5FDE265F662950DD27592DB2A
:100820003F2F836773C52E1320B57D56D7BC54BCAC
:1008300001DF8686CCCB07ABC49563498439335A34
:100840005B38BA65910749101ACA006575BB5A4CE6
:10085000A1D227D1EF41C3FDFD213CC36DBA187170
:1008600023872B64583C1D339EE5CA0255EDB00E1C
:10087000E3F9B1672C630B55F3A615CFBC9CE85880
:1008800059AF14FF05B5EE0770F83E45DD7A3E23FB
:10089000396C81C89C6463C75BFB541DB19BFC052C
:1008A000FCC8D1D056B31FA676043B0786B4702F80
:1008B0000676A7843174F4E291A77BB1DB2B0EA3FB
:1008C000950F0F8EB42BF91127B56769FFD272927D
:1008D0004D38C2344E7F0C591FA595DCBD79F57794
:1008E00088725134C245D5A219E5D29A49E4AC4781
:1008F000F6CBB58B1CB93C626D4C8AC27EBED479F6
:100900003AB6669657453A35F078EDDDC031A6DB4C
:10091000A7C3525B132B44673E29D6296007359441
:10092000927B4443C758BFE75DD54028698F4AD4BE
:100930003F76424D9C6BF7553E649DB58DEE393D3B
:100940008843ACB79B6879BDA838B116382A1DCA50
:10095000C38915226BC1EF07B0E706B2D9DAAC80C4
:10096000CA4ED932E927B060189859D315BCC3FBD9
:1009700020AF7414AF4203F0D4899E1F40A0D1125F
:10098000203C8557BCDBF13A7F4931B0C123608BF5
:10099000825CBA6F2A7E90766456B5BE03E8B54D88
:1009A0003AE3B4044F778195D8B532EEC46EC73BB5
:1009B000644236141CC2D85DAE921EBC29EBB91538
:1009C0005008CEB915904EC0A5539221CBBB9C4286
:1009D000E2C96C07DEACDE0942D62B0503EE40CB44
:1009E000A1452D801F9ECC746C4E25DC978205DAC4
:1009F000D483DF24E7249880A10A9897183518A893
:100A000003C3122943DB0357BEC4702F2DB94E77A1
:100A10006B02C4A0733F483FA4C15205246016FF77
:100A2000A29EB824A35D040E4B36DBFE29EBB88FE3
:100A30000E8E669DABC8CCE7314AC9822869A3985F
:100A4000F2B1403E0A5EF7620BC5C6760B172AEF7D
:100A5000B439181E62C23D9C0DDFB08F7E0F17EEB9
:100A60009BB2508BEF6B9CF1AE6B4616B002D33548
:100A7000C15C09DDEA3EF64F86B670764155D47EFC
:100A8000F07889C18AC98026A5CDC83AE1BAF504B3
:100A90004E19DCE022DD6AE50046B5CE8450328591
:100AA0009B124A9616605A0EFD9FAE5539D7D2B9A1
:100AB000C6ADA014DC01E29EE70F5E111505E60D40
:100AC000931ACABEA06D207A4DEFF7A2726C088C03
:100AD000AA8EA9509311D481482D9149893125338B
:100AE0009FC0297B9B44849565695C4D4C682D971C
:100AF00063B0E99B96F6C9937A634A6731813B20DC
:100B0000640DEF20617FA370C78804F9596C4947D1
:100B10004BCB10519E080900ACC91ECB61DFB8C495
:100B2000B39591A9D002722784D4C2B3948474344B
:100B3000F06305B4BDA3F10BA7C0A24CEA260B6E6F
:100B4000CD1362CDC20063A266AE50E41DE526134C
:100B500076F62A84C15F01D11F22802AD92035066A
:100B6000FA53E153D09FDE0708604108E3F330A950
:100B7000FEE1DDD10190E240D57996E6A8E803A434
:100B800084906AFEAC9F00A5880DA9A2A36C1510E5
:100B90009091C79F149020157C8AABE5B09FDB3AFB
:100BA0002775D16D3927382F3E7AA7D1C29C8ED2B6
:100BB0000C6EE934533505F79204A0240EE5588EE7
:100BC000A9846C4C66A91A298E1579074413CDCDDA
:100BD000B7F988C064A87EFC5E1A8E5763A8E359F3
:100BE000385E2294AA14534CF5901304D6DDD66FC8
:100BF00082B5035005065A2F252466F39397AD005E
:100C0000032ED675DE48D42A7FDAF44EC90934A201
:100C1000B15186E8D3473C004C62E5E07ABF7EE400
:100C20006DD3E9E285BC57ADAD91F0E756804AFC43
:100C300052696D294DB8F0814028942A8FF9B1E7A7
:100C4000038BAFA626C521C7F9D5657A73FE1B565F
:100C50009A58325FDC6DD2DB771F3718D26667B3E4
:100C6000DB8BE8E4F62284FFC1CC3BEC9FD4E1D5DA
:100C7000FCE4F60A0F2E3FFC72F93EFDF1D3F5AF0E
:100C8000E82E73F5EF647673790750595FF15D16BE
:100C9000C6C91C006FBFDCD06D21A6974FD797D770
:100CA000EFFE759D7E79F7F1EA972FA8B6103737DA
:100CB000D79F60935EC13B919578D735DC758D7772
:100CC000C1E9BBF30FE9C5F9DD1592A1AB369FCFA2
:100CD0003F6FD2CDDDCDE65738D95CE349F2150B35
:100CE000CC014A5ED594A9918EAEBFF053F1300786
:100CF00018B0695CDF9ECF6767FF9E9FACFE03CF95
:100D0000BCC0EF157D5FE2370401B5B8C20594A6FB
:100D10006A718D8B28A4C58FB85868FCB76AA10981
:100D2000FC848B5813F819174B8DF35E5DA3713E4D
:100D3000A805E27C1D8506E848D4342A88A2085E0E
:100D40007C32CB643C5F2C0B55A4F5258FE74178B2
:100D50000F0C6B2CCD9ED21FB287A945A00976D06F
:100D600059A4A2D04A67CA38B6543DD024E3BC5433
:100D7000C31F66AAEE8202E66556B3BAE919183BAC
:100D8000C380C120C6516063CA66D9D35EC037D95B
:100D90009E642D780FDC4411D9E00E92ABE4D705A8
:100DA0006CDB740CCCE09F662D249E166A5F6D4947
:100DB0006A9B00F5AF3D2604682977F0202836B3FA
:100DC0001EA133FD4C6AA0A991D0C01241D1E4A963
:100DD000DDA15D953B14697829AF99E9312D3E1865
:100DE000DD258DFD589B75607254AAAA4EC21C74F5
:100DF0001C5298ECD5F0EFC70CF82D58DF301529B0
:100E000070A6A21C9C266F3FFD86D5120E67FEA120
:100E100087332351B3E0744185FE3BCAC4CC8CC3F5
:100E2000DC548F1222F588064A0F2655B7E3F600E8
:100E30000CDF9C551CB22935BDE6B06A1EB9793667
:100E4000C3B908BABE3BB653143B37A1187D70AE88
:100E5000CB6F7B7FE411014933B24F6C43CD2E8EB3
:100E60003B4C80C1A8E4EDEB2A29DF8B56232EE60C
:100E70006300D56D389E248D530DC4A80CF2A8E0F4
:100E8000F0E4267B4629AF8C4069E678031D5106C5
:100E90006287AE179296D12C90BC1112CD4E42E1D2
:100EA0005C0C2576DD808C399EE9F0A9D4C61F390B
:100EB0006A02D3FBB711F6595728AF30D010AF6F85
:100EC00050FCAAEC61F0D56DCBE689EAA68FE00E66
:100ED000192376D00F55F8594C0EC041E8003B213C
:100EE000FF40D42D55175441A8A31A5FEAB6172A1C
:100EF000CC5A3769BB6607C2ACE0E919F2B685F493
:100F00000CAF046173F470CC669FB8660AAD1A5DCD
:100F100010AE4151831AD0E47150B8B10007D261CC
:100F20004FA22C216BE5406F3406A33CEC30AD841E
:100F3000BE8381497303EE4A3A540F4008510D9520
:100F4000D933CE012AD99851971A770331E5E02A8F
:100F500058F993EF8DF6F8BE69D83653DC1167382F
:100F600063F8EC9B148A0C00D5708F465F9F953C0C
:100F7000101312B6E46A667257CBA1C5A4CDC9FBA3
:100F800055C8C5A9F597ACCFF745B32329FE857A97
:100F900053F53302F46743FD00843174D094D9DBF8
:100FA00097EE002C937C04628B8490881E0CE58065
:100FB00064B924FD466E5A4691ADA94B08868F4010
:100FC00020BB2F4D8CB3ECD31C82E92A857E6B505D
:100FD000BF67D830AA7FE52868D824712880418B64
:100FE0000C2187633CC23A1362BF1A207F3CBF7C4E
:100FF0004F75A4998CA9320D6554661D66139C2A01
:101000001EA945503164C63867D401989C042B3022
:10101000485607B338CC56503044C12A8E55F2D3C7
:101020008B44653F5A24B1D2322C926409DFD157E8
:10103000A0548A1C0408F833FCC1E7EDED87C768AB
:10104000A6FA88164203A7DF774C733EEA33954B26
:10105000A7C71A99533417F33BCD0825F35A6FA647
:101060004EA8503DC5B8410D8BAB0B4F233B1484AC
:1010700074A6C756AA7454D32DDC33EA53F53884CA
:101080008FD4764888AE7E93513DFDF71EAE51F465
:1010900047EADD8FB5AE99294A30743B223C45EFD3
:1010A0003333B91169E8C621E01D5EE28FFC103FC1
:1010B00071E3B1D4C8DA6BAFD5DA88267423280F70
:1010C000D6CEA2A8DC7F8DB038AC724261D38A86BE
:1010D000E4B28EDCC8EA6078E031600653BE40625C
:1010E0006FDCA465623AA921CFD54C0DD9C3700637
:1010F000CFF4E7B3A718EBC955A1F2820EC9EF5898
:101100002466DF3AE79381D529B5A10E673457707D
:101110003DB4EEFC4D5F40FDA74FF27E50C1BCA038
:10112000690E143FE0FFA9C936529B0B267DE9E208
:10113000A4193F1D97E1E258537AA0497FF0E0AB34
:101140003448C65DE09F9A40A4CAD3AE57F5221634
:10115000FFF82CE94C570E95FE237FA7DF2363D7BA
:10116000D84DBA3E9A0C0A24BB9C0492B14A8FFA1D
:10117000F740315FEB79E99AC14316B00DA4E7CF90
:10118000FD06CFD95A9ED96EF3F824D4333D2C5E98
:101190006952CDE897A0611429B0A8D7BF6B43244A
:1011A000DBF2D53A0FD6B3AFFF03BAA062A0250B8E
:1011B000000004020704000002000204040004000E
:1011C00007040000040400000004040404070407EA
:1011D00004000204040400040400040401070400E1
:1011E000040200000000000000060002027300403C
:1011F00003B21172001D06B51171000F03BB11700F
:10120000004003BE116F001404C1116E001704C525
:10121000116D000A02C9116C004002CE116B004032
:1012200003CB116A004002CE1169004002CE116862
:10123000001003D01167001104D31166001104D708
:101240001165000D02DB1164000B01E21163004027
:1012500001DD1162001204DE1161000B01E2116078
:10126000001002E3115F001503E51100004002E8E1
:10127000115E000E02EA115D000901EC115C00062E
:1012800000000020002300260029002C002F00323F
:1012900000000100000301060109010F470044009E
:1012A000450080013548004400450020010D8800BC
:1012B0008000810080000E8A008000810020000FE5
:1012C0008C008000810008000CB300B000B10080E9
:1012D000033EB400B000B1002003239800900091B9
:1012E000008000249A00900091002000259C00902E
:1012F00000910008003BA800A000A10080003CAACB
:1013000000A000A10020003DAC00A000A10008004A
:101310005B28012001210180005C2A0120012101BC
:1013200020005D2C012001210108000011241FBEB6
:10133000CFEFD1E2DEBFCDBF00E00CBF14BE0FB6D1
:10134000F894A89580916000886180936000109265
:1013500060000FBE12E0A0E0B2E0EEEEF4E800E0C4
:101360000BBF02C007900D92AA32B107D9F723E054
:10137000AAE2B2E001C01D92AB39B207E1F70E94C8
:10138000DC2A0C9475420C940000CF93DF93CDB708
:10139000DEB76D970FB6F894DEBF0FBECDBF0E94CB
:1013A000C92A6B017C0180912602882311F40C94D8
:1013B000C1110E94C92AC61AD70AE80AF90AF89484
:1013C00080912602882351F08FEF80932602789433
:1013D0000000F894809126028111F9CF78940E9440
:1013E000C92AA7019601260F371F481F591F288FAA
:1013F000398F4A8F5B8F81E080932602809157025C
:10140000882309F442C0109257028FEF8983AE01FE
:101410004F5F5F4F7A0105E312E16AEF73E3C701A3
:101420000E9413316C01892B81F1D60156968C9163
:1014300082FFF3CF0E94C92AF894F60137892689E2
:10144000422F4B7F468B78949F938F937F936F931C
:101450001F923F9321701F922F9389811F928F9328
:101460001F930F930E9440202DB73EB7245F3F4F3C
:101470000FB6F8943EBF0FBE2DBF6AEF73E3C701EE
:101480000E9413316C01892B81F6809158028823C8
:1014900031F1109258028FEF8983AE014F5F5F4F99
:1014A0007A010FE212E16AE47EE1C7010E94133182
:1014B000FC01892BA1F0958D868D9813F4CFF894BB
:1014C000858D968D891711F40C94CF1278946AE467
:1014D0007EE1C7010E941331FC01892B61F78091E5
:1014E0005202882311F1109252028FEF8983CE01AC
:1014F00001967C010DE112E16EED7BE2C7010E94D5
:101500001331009791F0DC0158962C912F3FA1F7F1
:10151000F894FC0126852111FEC678946EED7BE2DD
:10152000C7010E941331009771F7809153028823FD
:1015300009F43FC0109253028FEF8983AE014F5FD1
:101540005F4F7A0107E112E167E17EE2C7010E9485
:101550001331009771F1DC011E962C911E9723FF29
:10156000F3CFF894FC012685277F268778949C0189
:10157000265E3F4F3F932F9350968C91869586958C
:1015800086951F928F9389811F928F931F930F933C
:101590000E944020EDB7FEB738960FB6F894FEBF14
:1015A0000FBEEDBF67E17EE2C7010E9413310097D5
:1015B00091F680915A02882309F44AC010925A0287
:1015C0008FEF89839E012F5F3F4F79010BE012E17E
:1015D00063ED78E3C7010E941331FC01892BC1F14F
:1015E000848D80FFF5CFF8949481258136814781E1
:1015F000548965897689A789B08DD18CC28CB38CCA
:10160000848D8E7F848F7894BF92CF92DF92BF9328
:10161000AF937F936F935F934F933F932F939F93DA
:1016200089811F928F931F930F930E9440204DB783
:101630005EB7405F5F4F0FB6F8945EBF0FBE4DBF01
:1016400063ED78E3C7010E941331FC01892B41F659
:1016500080915902882309F456C0109259028FEFE5
:101660008B87BE01655F7F4F1B01BCE09B2E17E09F
:10167000812E6EE777E3C1010E9413315C01892B53
:1016800009F441C0D50159968C91599780FFF1CF4B
:10169000F894F5014480558066807780818D8E7F37
:1016A000818F789458968C91813009F4E5C308F4C1
:1016B000C3C3823009F480C38330D9F6CB84198246
:1016C0001A829E012F5F3F4F42E061E0F50184895D
:1016D00095890E94E01E09811A8110270127102791
:1016E000F02FF670EF2E20E030E0B301A201C5012B
:1016F0000E94A7376EE777E3C1010E9413315C01B6
:10170000892B09F0BFCF80915B02882301F11092F1
:101710005B028FEF8B879E01255F3F4F1901E9E048
:10172000BE2E8E010F5F1F4FF2EFCF2EDD24DA9415
:1017300006C0D7011E968C911E9780FDCCC366EF24
:101740007AE3C1010E9413317C01892B91F78091CA
:101750005C02882309F46BC010925C028FEF8B87C8
:10176000FE013B961F01DD24DA949E012F5F3F4F5F
:10177000398B288BAE01475F5F4F5B8B4A8B65ECE3
:101780007AE3C1010E9413317C01892B09F44FC017
:10179000D7011E968C9182FFF2CFF894F7018480D6
:1017A0009580A680B780C1881686118A7894808536
:1017B0009185A285B385881A990AAA0ABB0A87016E
:1017C0000E5E1F4FD701CC2091F056968C91F701F9
:1017D000E80FF11DD78A108E118E8D5FF701868B71
:1017E000813308F0FBC0CA94D701C110EECF1F9619
:1017F0008C91882309F47FC2813009F456C5823068
:1018000009F478C6D70156968C9190E0C1970CF4F4
:10181000B6CF6B85C70142960E94251865EC7AE326
:10182000C1010E9413317C01892B09F0B1CF809155
:1018300075028823D1F0109275028FEF8F87FE0119
:101840003F967F01E2E79E2EF4E7BF2E06C0D60149
:1018500052968C91529780FD33C467E17FE3C701B4
:101860000E9413316C01892B91F7809176028823B5
:1018700009F1109276028FEF8F879E01215F3F4F13
:10188000790147E0442EAE014F5F5F4F4A015FEAA6
:10189000552E68EA662E06C0D8011E968C911E97BA
:1018A00080FD70C468EF7EE3C7010E9413318C0194
:1018B000892B91F780913702882309F495C0109203
:1018C00037028FEF8983FE0131967F0167EE76E163
:1018D000C7010E9413316C01892B09F485C0D60120
:1018E0001E968C9180FFF2CF7980C6010E944B1822
:1018F000F894F60196859E7F9687789483FFE6CFCD
:101900008388912C5401B4E1AB0EB11CAC0CBD1C0E
:101910000484F585E02D1D86850122E0AE01435F3C
:101920005F4F61E080810E945128D6011C96ED91A5
:10193000FC911D9781E08E870E5F1F4F22E0AE0164
:10194000425F5F4F61E080810E945128F6018389E8
:101950008C5F838B8601045B1F4FD8016C9062FE05
:1019600033C0F5012181828190E0A0E0B0E0BA2F80
:10197000A92F982F8827A22B2381822BF601E80D0F
:10198000F91D24894C015D01B22A81149104A1043E
:10199000F0E1BF0608F04EC50E94C92A61FC66C688
:1019A000F601E15BFF4F208131814281538128158F
:1019B00039054A055B0508F468C6862D8D7FF80158
:1019C0008083D60153968C9190E0C0970CF47ECF23
:1019D000672DC6010F960E94251878CF6B85C80128
:1019E0000E942518CA9400CF809138028823B9F04C
:1019F000109238028FEF8983FE0131967F0101E05A
:101A000010E006C0DC0119962C9119972111DAC259
:101A100062EF77E1C7010E941331009799F7809137
:101A200039028823B9F0109239028FEF8B879E011B
:101A3000255F3F4F190106C0D80151968C915197EF
:101A40008111FEC36FEB76E1C1010E9413318C015D
:101A5000892B91F7A89580917702882329F080E45B
:101A6000809360001092770210913803112309F4DB
:101A70006EC000912A0200FD12C0153008F467C044
:101A8000D0907802BD2C8BEF8D0D8C3308F4A0C460
:101A9000EEE7BE1609F482C6016000932A02412FC8
:101AA00050E06EE770E088E792E00E9446420097BF
:101AB00039F00E7F00932A028857924011E0180FE8
:101AC00001FD0CC0902F926090932A0283E796E06C
:101AD0009F938F930E9440200F900F90D12ECC2483
:101AE000CA9420E0ED2CF12C19C0822F90E0402FF9
:101AF00050E0481B590BB701680F791F68587D4F9C
:101B000088589D4F0E945C4210922602202F8FB76A
:101B1000F89490913803191761F08FBF1091380332
:101B2000012F0D1911F78FB7F894909138031913FD
:101B3000F4CF009338038FBFF1E0CF1208C083E7E2
:101B400096E09F938F930E9440200F900F900E94E9
:101B5000C92A6B017C01288D398D4A8D5B8D621BF2
:101B6000730B840B950B8090330290903402A090FD
:101B70003502B09036023FEF831A930AA30AB30AE4
:101B80008092330290923402A0923502B0923602D3
:101B900040902F02509030026090310270903202DB
:101BA000460E571E681E791E40922F025092300238
:101BB00060923102709232026115710541E0840732
:101BC000910508F0E3C39B01AC010E94A341DC0135
:101BD000CB0181509F4FAF4FBF4F892F9A2FAB2F13
:101BE000BB2740912B0250912C0260912D027091E5
:101BF0002E02840F951FA61FB71F84179507A607EF
:101C0000B70718F48FEF9FEFDC0180932B029093BE
:101C10002C02A0932D02B0932E0240914A025091C3
:101C20004B0260914C0270914D025C546B437B4FB0
:101C30002F2DC416D506E606270B27FDB4CBBF9380
:101C4000AF939F938F937F926F925F924F92BF92C9
:101C5000AF929F928F9285E692E19F938F930E941D
:101C600040206DB77EB7625F7F4F0FB6F8947EBF9E
:101C70000FBE6DBF80914A0290914B02A0914C0221
:101C8000B0914D02C816D906EA06FB0698F4809179
:101C9000460290914702A0914802B09149020196F4
:101CA000A11DB11D8093460290934702A093480264
:101CB000B0934902C0924A02D0924B02E0924C0289
:101CC000F0924D0210922B0210922C0210922D02D3
:101CD00010922E0210922F021092300210923102B6
:101CE0001092320210923302109234021092350296
:101CF0001092360258CB82E389831A820E94C92A45
:101D00002B013C019E012F5F3F4F42E061E0F70154
:101D1000848595850E94E01E0E94C92ADC01CB01C2
:101D200084199509A609B70981329340A105B10527
:101D300008F0E3C2998197FD1BC3481859086A0847
:101D40007B08D70150968C918823C1F02FEF280F84
:101D500041E050E002C0440F551F2A95E2F7052EDE
:101D6000000C660B770B440E551E661E771E04C0D2
:101D700076946794579447948A95D2F7BFEF4B16A1
:101D800051046104710408F063C32A8130E0220F1A
:101D9000331F892F90E0982F8827990F822B932B40
:101DA000F7012689E20FF11D478A808F918F2D5F01
:101DB000D70156962C9326CDCB8481E089831A8255
:101DC0001B821C829E012F5F3F4F43E061E08489AC
:101DD00095890E94E01E69817A818B819C810E9495
:101DE000D541BB27A92F982F872F9C01AD014427F0
:101DF00055272C8B3D8B4E8B5F8B89821A829E01DF
:101E00002F5F3F4F42E061E0D50154968D919C9148
:101E100055970E94E01E8A81982F9C7F8C89817043
:101E2000E92EE82A0C891D892E893F89B301A20178
:101E3000C5010E94A7371DCCCB8419821A821B8250
:101E40001C829E012F5F3F4F44E061E0F5018489D1
:101E500095890E94E01E69817A818B819C810E9414
:101E6000D541F62FF770EF2E8B019C01B301A20133
:101E7000C5010E94A737FDCB2B852C8B99821A8236
:101E80001B821C829E012F5F3F4F44E061E08489EA
:101E900095890E94E01E69817A818B819C810E94D4
:101EA000D5416B017C01BFE0B9831A829E012F5F8F
:101EB0003F4F42E061E0F501848995890E94E01E70
:101EC000970186013327CC88EA80B301A201C501BE
:101ED0000E94A737CECBAB84F8012B2D11922A9507
:101EE000E9F7C982980149E061E01C968D919C91C7
:101EF0001D970E94E01ED70153968C9190E0FC0143
:101F00007496EE0DFF1D3B81232F207FE1F0203FD3
:101F1000D1F0D482D382D282D182F701E80FF91FA7
:101F2000D48AF70183898B5F838B8F3208F0CCC210
:101F3000D7011E968C911E978E7F1E968C93C7019B
:101F40000E949D40FCCB2D81422F407F09F06EC244
:101F50005F81452F407F11F0403FD9F648854039D9
:101F6000C1F649854F77942EB0E2B41790F2D701AD
:101F7000A80FB91F4A8154964C938C8181838E811E
:101F80008283852F90E03F71AC01440F551F42952D
:101F90005295507F5427407F5427342B3383880F2A
:101FA000991F880F991F80762F71822B8483D70108
:101FB00053968C9153978B5F53968C938F3208F482
:101FC00089C283C2898018969C901897E92DF0E009
:101FD0005296CD90DC9053975496AC90549755966A
:101FE0002D903C90569757963C91779640E050E064
:101FF000BA01F894D1013C93000000003C93D60153
:102000002C917894440F551F661F771F2A21412C6D
:10201000512C32014394211103C0412C512C320127
:102020004429552966297729319718F7F894FC0136
:102030002185118678945A016B01092C04C0D6942D
:10204000C794B794A7940A94D2F7C7FE02C0DD24C0
:10205000DA94280101C0440C9A94EAF74A94512C6E
:10206000612C712C44215521662177214416550697
:102070006606770609F4C0C220E030E040E050E890
:10208000DC011E962D933D934D935C93519760E830
:1020900050E040E030E0DC015C962C91FC01E20F66
:1020A000F11D358F468F578F60A32C5FFC01248F65
:1020B000203308F4ADCC682D48960E942518A8CC92
:1020C000AF8450968D919C915197C09758F1B982E9
:1020D000D6011C96ED91FC911D978601085E1F4F5D
:1020E00020E3AE014F5F5F4F61E080810E94512885
:1020F00080E3F601878B80899189C097918B808BD3
:102100006A2DC60143960E942518D60150968D91DE
:102110009C915197C09770F11092260281E08093B4
:1021200075029BCBD6011C96ED91FC911D979B8669
:102130008E010F5F1F4F22E0AE01455F5F4F61E0F0
:1021400080810E94512889818F7190E0982F882783
:102150002A81822BF601268537852817390710F446
:1021600097878687D60151969C938E935097C097F8
:102170000CF0ADCFF60182898E7F828BC6010E9462
:10218000E9406BCB2F84F401242D11922A95E9F7B5
:102190005B861C8669825396AC905397B12C65017F
:1021A00034E1C30ED11CC00ED11E940147E061E0A2
:1021B0001C968D919C911D970E94E01E9E01255FAB
:1021C0003F4F42E061E0D8011C968D919C911D9794
:1021D0000E94E01E8C85B82FBF733B2E8074782E32
:1021E000F801EA0DFB1D8A81848B8B81F6018183C6
:1021F0008C8182838D8183838E8184838F8185838B
:10220000D80153968C9153978A5F53968C938E3254
:1022100008F0ECC1772031F0F801818992890196AC
:10222000928B818B332009F4DBC1D8011E968C91EF
:102230001E978E7F1E968C93C8010E949D4032CBC4
:10224000FB8419821A821B829E012F5F3F4F43E05D
:1022500061E01F968D919C9150970E94E01EF801BD
:10226000118A29818A8190E0A0E0B0E0BA2FA92FDD
:10227000982F8827A22B2B81822BA7FDBF6FF801F7
:102280002789E20FF11D808F918FA28FB38F84E099
:10229000820FD80157968C93803308F4D3CB6F2DDF
:1022A000C80143960E942518CDCB8FE789838EEF16
:1022B0008A830E94C92A6C8B7D8B8E8B9F8B9E019B
:1022C0002F5F3F4F42E060E0F701848595850E94D3
:1022D000E01E0E94C92A2B013C01DC01CB012C89A4
:1022E0003D894E895F89821B930BA40BB50B81320C
:1022F0009340A105B10508F4B8C0D70156968C915A
:10230000F701E80FF11DD78A92E0908F118E8D5F53
:10231000F701868B77CA318D308F7894AC01415F9D
:102320005F4F5F934F931F922F93FC0187891F92FA
:102330008F9389811F928F931F930F930E94402048
:102340002DB73EB7265F3F4F0FB6F8943EBF0FBE86
:102350002DBFD2C82A893B89E217F30709F00FC1C4
:10236000809590E02A8530E08217930709F456C1E2
:10237000D70156968C91F701E80FF11DD78A93E0AB
:10238000C4CFC88ED98EEA8EFB8E35C86115710513
:1023900050E18507910508F035CC8B019C01015077
:1023A0001F4F2F4F3F4F5527432F322F212F0E9472
:1023B000A341DC01CB0140912B0250912C02609192
:1023C0002D0270912E02840F951FA61FB71F15CCEA
:1023D000C09079028C2D807F803109F059CB1D157A
:1023E00008F4B5CB8D2D90E0FC01E958FD4F20811C
:1023F0002E3709F04DCBFC01EB58FD4F1F01FC01BE
:10240000EA58FD4F9081D1018C91292F30E079015C
:10241000F82A6DEF6D0D88E792E00E94DF2AE8163A
:10242000F90609F4BDC1B090780232CB403F09F003
:1024300070CD8ECDD8011C92F601E25BFF4F60811A
:102440003497808191810E94FB34F6018389BCCA54
:10245000F7018689E80FF11DD78A91E0908F118EE0
:102460008D5FD70156968C93CDC980EC89831A82F3
:102470009E012F5F3F4F42E061E0D7011C968D9196
:102480009C911D970E94E01E49812A81942F9227DA
:10249000892F82958F709827892F86958695892711
:1024A000982F9695892780FDDAC046FF07C1F7016E
:1024B0008689E80FF11DD78A25E0208F118E8D5F68
:1024C000D70156968C939EC9912C6A2DC7010F9601
:1024D0000E942518BEE1B91508F08EC2F701818966
:1024E00092890196928B818B1092260281E08093D3
:1024F0005B0225C9D7011C96ED91FC911D971481B3
:10250000C280038140E06C2D702F812F0E942A2908
:102510000E94C92A2B013C01B0E14B0E511C611CE9
:10252000711C0E94C92A272D461657066806290BDA
:1025300027FFF7CFF89441E06C2D702F812F0E9478
:102540002A290E94C92A2B013C017894E889F9893B
:102550002AE011922A95E9F734E8398343E24A8365
:102560009E012F5F3F4F4AE061E0D7011C968D919D
:102570009C911D970E94E01EFE01339685E091918B
:10258000892728E030E005C0880F2150310909F47F
:10259000E1CE87FFF9CF880FBDE18B27F6CF5489B5
:1025A000658990892189328943898F5F858F7894E5
:1025B0006F935F934F933F932F939F9389811F92C4
:1025C0008F931F930F930E9440206DB77EB7665F75
:1025D0007F4F0FB6F8947EBF0FBE6DBF0C94530AA9
:1025E0001092260281E0809376025CC9622DC801B8
:1025F0000F960E9425180ECE21FD24C0FC014684B2
:10260000578460887188411451046104710409F091
:10261000F8C13A2D4B2D5C2D6D2D3DCD898584FF64
:1026200044C08B8187FD8CC0D70156968C91F701F1
:10263000E80FF11DD78AB4E0B08F118E8D5FF701DE
:10264000868BE0C820E030E040E050E4DC011E96DC
:102650002D933D934D935C93519760E419CDF70111
:102660008689E80FF11DD78A93E0F8CEF601ED5A7E
:10267000FF4F2080318042805380292F62157305DF
:102680008405250927FF8CC99CC9F601ED5AFF4F27
:1026900060837183828393833697608133978081CF
:1026A00091810E94FB3480E08AC9D70156968C91B3
:1026B000F701E80FF11DD78AB5E0BECF48185908D9
:1026C0006A087B08F70130893323C9F08FEF830F45
:1026D00061E070E002C0660F771F8A95E2F7CB01D8
:1026E000092E000CAA0BBB0B480E591E6A1E7B1E3E
:1026F00004C076946794579447943A95D2F77FEF45
:10270000471651046104710408F03FC0842F90E023
:10271000AC01542F4427550F550FF4E02F9FC001F3
:102720001124842B952BD70156962C91F701E20F9B
:10273000F11D478A808F918F2D5FF701268B62C82C
:10274000481859086A087B08F1E54F16F5E55F0659
:1027500061047104D0F42C8130E0220F331F90E02B
:10276000982F8827990F822B932BD70156963C914F
:10277000F701E30FF11D2F8126952F73278B808F93
:10278000918F3D5FF701368B3DC8D70156968C91EE
:10279000F701E80FF11DD78A91E0B7CD11E09EC98E
:1027A000802F8D7F80932A0280910102C8121FC161
:1027B00081E08C0D8F70806180930102BAE72B1647
:1027C000B2E03B0609F008F4FDC00AE712E081E739
:1027D000E82E86E0F82E99E0C92E8DB69EB6D80177
:1027E0002C9127FDB7C00F5F1F4F30E02115310539
:1027F00009F4FFC0F701859194912817390708F073
:10280000F8C0A901440F551F440F551F440F551F11
:10281000420F531FFA01E95CFC4FE4916DB77EB79C
:1028200084E0E89F6019710911240FB6F8947EBF07
:102830000FBE6DBF8DB79EB70196FA01E75CFC4FE6
:102840006491FA01E65CFC4F45915491FA01DA017A
:10285000A60FB11DBD01AC019D8A8C8A9D8F8C8F06
:10286000E617F70709F488C02016310608F46FC090
:10287000A491A53028F1A73009F069C02801BFEF65
:102880004B1A5B0AD8016C908201060D111D2016AF
:10289000310608F45CC0712C812C912CDA016D9208
:1028A0007D928D929C921397612C712C14964D926F
:1028B0005D926D927C921797485F5F4F3196D0CFB3
:1028C0005A01B4E0AB0EB11C48018FEF881A980A88
:1028D000D8011C91912F9F77492E512C612C712C7E
:1028E000012F0076003609F440C017FF6EC0840146
:1028F0000F5F1F4FD80111978C91440C551C661C1B
:10290000771C440C551C661C771C440C551C661C1B
:10291000771C440C551C661C771C440C551C661C0B
:10292000771C440C551C661C771C440C551C661CFB
:10293000771C982F9F77492A87FDDACFDA014D92CD
:102940005D926D927C921397A501319689CF87E0B5
:102950000E947D3E2F77B0E82B9F90011124F80153
:102960008181282B0E5F1F4F41CFB0EE4B2A55249B
:102970005A94652C762CB9CF8C889D888C8D9D8D32
:1029800040912702442351F0C29EF001C39EF00DF6
:102990001124E85CFC4FE491E0FF19C0C29EF001F5
:1029A000C39EF00D1124E45CFC4F25913491F90194
:1029B00019950FB6F8949EBE0FBE8DBE0215130575
:1029C00008F40BCFCC24C3948CC88401B7CF80917A
:1029D00028021F928F93E7E7F2E1FF93EF930E94A3
:1029E00040200FB6F8949EBE0FBE8DBEE7CF1D2DC2
:1029F0006DC885E00E947D3EF1E0F91508F474CDC4
:102A000097CA342D452D562D672D45CBCF93DF9397
:102A1000FC0180859185A285B38521892223F1F06F
:102A2000258936892F5F3F4F368B258B880F991F5D
:102A3000AA1FBB1F880F991FAA1FBB1F4481558166
:102A400066817781840F951FA61FB71F84839583A6
:102A5000A683B78381E0DF91CF910895C485D585A2
:102A600038812685232351F721E0218B10922602FD
:102A700020933902880F991FAA1FBB1F880F991F27
:102A8000AA1FBB1F880F991FAA1FBB1FD7CFCF93A9
:102A9000DF93FC0182859385A485B585218520FF80
:102AA00020C0228D338D2F5F3F4F338F228F23E045
:102AB0002187880F991FAA1FBB1F880F991FAA1F64
:102AC000BB1F4481558166817781840F951FA61FA6
:102AD000B71F84839583A683B78381E0DF91CF916D
:102AE0000895C289D38938812489232351F721E0AD
:102AF00021871092260220933802880F991FAA1F5F
:102B0000BB1F880F991FAA1FBB1F880F991FAA1FE1
:102B1000BB1FD7CFFC01868580FF06C02189328983
:102B20002F5F3F4F328B218B81FF0DC0DF01A95BEF
:102B3000BF4F0D90BC91A02D2C91DF01A75BBF4F23
:102B40009C91922339F4816086871092260281E05D
:102B50008093370244815581668177818085918594
:102B6000A285B385840F951FA61FB71F8483958305
:102B7000A683B78381E008959F92AF92BF92CF92D0
:102B8000DF92EF92FF920F931F93CF93DF93FC019D
:102B900090806FEB76E1892D0E945D31EC01F89415
:102BA0000E94C92A9B01AC01EC85FD8590818E8530
:102BB000892378948823B9F0A12CB12C6501E12CEC
:102BC000F12C8701692DCE0143960E94FE2ADF91E8
:102BD000CF911F910F91FF90EF90DF90CF90BF901A
:102BE000AF909F90089584E0A82EB12CC12CD12CD9
:102BF000E6CF9F92AF92BF92CF92DF92EF92FF9279
:102C00000F931F93CF93DF93FC01908062EF77E1E6
:102C1000892D0E945D31EC01F8940E94C92A9B0124
:102C2000AC01EA89FB8990818C8989237894882377
:102C3000B9F0A12CB12C6501E12CF12C8701692D93
:102C4000CE0148960E94FE2ADF91CF911F910F91ED
:102C5000FF90EF90DF90CF90BF90AF909F9008953E
:102C600084E0A82EB12CC12CD12CE6CF0F931F935A
:102C7000CF93DF93FC01C081D1811281038167EE84
:102C800076E18C2F0E945D31FC01ED5AFF4F2381CC
:102C90002F9322812F9321812F9320812F93379778
:102CA000808182FB882780F91F928F930F931F9357
:102CB000DF93CF9389EF91E19F938F930E94402000
:102CC0008DB79EB70C960FB6F8949EBF0FBE8DBF02
:102CD000DF91CF911F910F9108950F931F93CF9381
:102CE000DF938C0167EE76E1DC018C910E945D310F
:102CF000EC01F80180859185A285B385FE01E15B39
:102D0000FF4F80839183A283B383892B8A2B8B2BE4
:102D100059F4359711821082C45BDF4F1882DF911E
:102D2000CF911F910F910895F80184819581A6811B
:102D3000B781FE01ED5AFF4F80839183A283B38355
:102D40006AEF73E3D8011C968C910E945D31FE01FD
:102D5000E65BFF4F918380833396D80150968C9128
:102D600050978083319654968C918083C45BDF4F5B
:102D700086E08883DF91CF911F910F9108950F9383
:102D80001F93CF93DF938C014BE450E06FEB76E120
:102D9000FC0180810E943731EC0186E095E19B8344
:102DA0008A83198A64E77DE1F80184810E945D319C
:102DB000988B8F8760E0F80180850E94F1286C87EE
:102DC0007D878E87DF91CF911F910F9108950F938B
:102DD0001F93CF93DF938C0147E550E067EE76E1D8
:102DE000FC0180810E943731EC018AE895E19B83E8
:102DF0008A836FEF75E2F80184810E945D319D87BF
:102E00008C87DF91CF911F910F910895EF92FF92E0
:102E10000F931F93CF93DF93EC010E94E71667EEA9
:102E200076E188810E945D318C017C0187E4E80EA7
:102E3000F11C61E088850E94F128F70160837183AD
:102E4000828382E0F8018687DF91CF911F910F91F5
:102E5000FF90EF9008950F931F93CF93DF938C0112
:102E60006FEB76E1FC0180810E945D31EC010E94F4
:102E7000C63B198AF80184819581A681B78188872C
:102E80009987AA87BB87892B8A2B8B2BD1F01C8A29
:102E90001B8A1E8A1D8A1F8AF8940E94C92A0885E7
:102EA00019852A853B85DC01CB01800F911FA21F6C
:102EB000B31F8C839D83AE83BF83CE010E94183CD9
:102EC0007894DF91CF911F910F9108950F931F93E5
:102ED000CF93DF938C0167EE76E1FC0180810E9445
:102EE0005D31EC010E94C63B8E858E7F8E87F80196
:102EF00084819581A681B7810097A105B105F1F084
:102F000088879987AA87BB87188A1F861A8A198A91
:102F10001B8AF8940E94C92A088519852A853B8551
:102F2000DC01CB01800F911FA21FB31F8C839D83F7
:102F3000AE83BF83CE010E94183C7894DF91CF917D
:102F40001F910F9108950F931F93CF93DF938C01DF
:102F500062EF77E1FC0180810E945D31EC010E940B
:102F6000C63B19861E861F86188A198AF801848135
:102F70009581A681B7818A879B87AC87BD87892B7E
:102F80008A2B8B2B29F16D897E898F8940E00E94E5
:102F90002A29198E188E1B8E1A8E1C8EF8940E9468
:102FA000C92A0A851B852C853D85DC01CB01800F54
:102FB000911FA21FB31F8C839D83AE83BF83CE015D
:102FC0000E94183C7894DF91CF911F910F91089542
:102FD0006D897E898F8941E0DF91CF911F910F919B
:102FE0000C942A290F931F93CF93DF93EC0140E5B4
:102FF00050E062EF77E188810E9437318C0187E4ED
:1030000095E1F801938382838C819FEF980F943030
:10301000C8F4F801808761E088850E94F128F801F2
:10302000628B738B848B60E08C850E947729F8011A
:10303000658B768B878B41E0DF91CF911F910F914C
:103040000C942A2989E20E947D3ECF93DF93EC0104
:1030500005969F938F938C811F928F9389818F9375
:1030600088818F931F926F938DEE91E19F938F9341
:103070000E9440201C8288819981019699838883CF
:103080008DB79EB70A960FB6F8949EBF0FBE8DBF40
:10309000DF91CF9108950F931F93CF93DF9300D0CB
:1030A000CDB7DEB7DC011C96ED91FC911D9788E150
:1030B0008B838E010F5F1F4F22E0AE014D5F5F4F8C
:1030C00061E080810E94512889819A81982789270F
:1030D00098270F900F900F90DF91CF911F910F9134
:1030E00008954F925F926F927F928F929F92AF92CC
:1030F000BF92CF92DF92EF92FF920F931F93CF93E5
:10310000DF934C0167EE76E1FC0180810E945D3126
:10311000EC018E8581FF31C0F8940E94C92A9B0181
:10312000AC01FE01E95BFF4F0190F081E02D908141
:10313000FE01E75BFF4F8081892378948823D9F1D2
:10314000A12CB12C6501E12CF12C8701F4016081E7
:10315000CE010F960E94FE2ADF91CF911F910F9111
:10316000FF90EF90DF90CF90BF90AF909F908F90A7
:103170007F906F905F904F9008950E94C92A2B0115
:103180003C01CE010E944B18182F0E94C92A13FD42
:103190000CC0A12CB12C65017B018C01E418F50851
:1031A00006091709A3019201D1CF24E0A22EB12C68
:1031B000C12CD12CF1CF64E0A62EB12CC12CD12C86
:1031C000C2CF0F931F93FC01A489B58986898C9384
:1031D00093A181E0892783A344815581668177810A
:1031E00080FF12C00085118522853385400F511F55
:1031F000621F731F82FD12C04483558366837783E9
:1032000081E01F910F9108950485158526853785E6
:10321000400F511F621F731F82FFEECF008911897B
:1032200022893389872F401751076207830B87FD57
:10323000E3CF85E499E193838283B901A8014483B4
:1032400055836683778381E01F910F9108950895D8
:10325000FC018081A481B58140855185628573859B
:103260009FB7F894813061F0823019F04C939FBF82
:1032700008954D935D936D937C9313979FBF08952D
:1032800011965C934E939FBF08958F929F92AF9239
:10329000BF92CF92DF92EF92FF921F93CF93DF9373
:1032A000EC01EF8CF8A0E114F10409F4F0C0F7018F
:1032B0008081918198A38F8F86809780A084B1842C
:1032C00011E081149104A104B10409F4A1C06C8936
:1032D0007D898E89412F0E942A2980914E029091EA
:1032E0004F02F70191838083F0924F02E0924E02E9
:1032F00081149104A104B104E9F08B8D9C8DAD8DF6
:10330000BE8D88169906AA06BB06A0F44F89588D73
:10331000698D7A8D411551056105710509F45BC010
:103320008C819D81AE81BF81480F591F6A1F7B1F11
:10333000166022C08BA131E081149104A104B10474
:1033400009F068C084FB992790F921E0922739178A
:1033500009F443C04F89588D698D7A8D4115510507
:1033600061057105D1F18C819D81AE81BF81480FCE
:10337000591F6A1F7B1F1460EF8DF8A1309709F069
:1033800077C02BA1488B598B6A8B7B8B2071212BAB
:103390002BA311FF5FC0880D991DAA1DBB1D12FD37
:1033A00052C021EE38E13B832A838C839D83AE8318
:1033B000BF8388869986AA86BB868B8D9C8DAD8DB2
:1033C000BE8D88199909AA09BB098C879D87AE878C
:1033D000BF8781E011C012608BA1EF8DF8A13097FB
:1033E000D9F4188A198A1A8A1B8A8071812B8BA3B7
:1033F000812F827011FD34C0DF91CF911F91FF901A
:10340000EF90DF90CF90BF90AF909F908F900895F6
:1034100010E05DCF30E096CF4281538164817581A9
:10342000488B598B6A8B7B8B8071912F9460892B91
:103430008BA311FF0FC08C819D81AE81BF81880D50
:10344000991DAA1DBB1D2B2F84179507A607270BB7
:1034500027FDA7CF4C835D836E837F8381E0CCCF34
:1034600040E050E0BA018C819D81AE81BF8193CF55
:10347000C280D380E480F580872F4C155D056E05F2
:103480008F0987FD07C08BA1B701A601C9CF85E1D0
:103490000E947D3E83E10E947D3EFC0185818F93E9
:1034A00084818F9380811F928F938DE492E19F930B
:1034B0008F930E9440200F900F900F900F900F90CD
:1034C0000F900895DC012C911496ED91FC911597C5
:1034D0003FB7F8942130E9F02230B1F0808190E0DC
:1034E000A0E0B0E03FBFBF93AF939F938F9387E47B
:1034F00092E19F938F930E9440200F900F900F9026
:103500000F900F900F90089580819181A281B381D7
:10351000E9CF80819181A0E0B0E0E4CFAF92BF928B
:10352000DF92EF92FF920F931F93CF93DF93FC01F3
:10353000A485B585968547855089E1882289338998
:10354000F488A588B6887789008D118DD28C808506
:1035500086279C9384FD20C085FD22C086FD24C063
:1035600087FD26C09C93862F8295807F8087682761
:103570009C9364FD2AC065FD25C066FD1CC067FDE7
:103580001EC09C93DF91CF911F910F91FF90EF9000
:10359000DF90BF90AF900895EA01E88285FFDECF0B
:1035A000E901F88286FFDCCFE501788387FFDACF77
:1035B000E801D882D7CFF501708367FFE2CFE80139
:1035C000D882DFCFE901F882D8CFFA01E082D3CFE9
:1035D0005F926F927F928F929F92AF92BF92CF92A3
:1035E000DF92EF92FF920F931F93CF93DF938C01A3
:1035F000FC01C080D180E280F38084809580A68029
:10360000B78066246A94660E662301F1EA01712C84
:10361000FFEF6F1A7F0A640E751E59900E94C92A27
:10362000DC01CB018C199D09AE09BF0988159905EC
:10363000AA05BB0598F3652DC8010E948E1A0E9449
:10364000C92A6B017C01C615D70539F7F801C0827C
:10365000D182E282F382DF91CF911F910F91FF908F
:10366000EF90DF90CF90BF90AF909F908F907F9022
:103670006F905F900895EF92FF920F931F93CF93F7
:10368000DF938C016FEF75E2FC0180810E945D3158
:103690007C018FE090E00E941D20EC0188E893E11E
:1036A0009E878D87F8018089880F8C8761E08481EF
:1036B0000E94F1286E837F83888761E0F80184810E
:1036C0000E947729688379838A8361E0F801808585
:1036D0000E94F12869877A878B8761E0F8018085ED
:1036E0000E9477296B837C838D83F701D283C1830A
:1036F000838181608383DF91CF911F910F91FF9030
:10370000EF9008950F931F93CF93DF93EC016AEB33
:103710007BE188810E945D318C01FC0161857285AD
:10372000838541E00E942A29488559856C81C8011A
:10373000DF91CF911F910F910C94E81A0F931F9373
:10374000CF93DF93EC016AEB7BE188810E945D31CE
:103750008C01FC0161857285838540E00E942A29E5
:10376000488559856C81C801DF91CF911F910F91D8
:103770000C94E81ACF92DF92EF92FF920F931F936F
:10378000CF93DF93EC014BE150E06AEB7BE1888162
:103790000E9437318C0160E08C810E947729F8010A
:1037A00061877287838760E088850E947729F801A6
:1037B00064877587868760E08C850E947729F80189
:1037C0006787708B818B60E088890E947729F80178
:1037D000628B738B848B60E08C890E947729F8015F
:1037E000658B768B878B60E0888D0E947729F80146
:1037F000608F718F828FF8940E94C92A6B017C01BF
:1038000060E0C8010E948E1A0E94C92A7894DC01E7
:10381000CB018C199D09AE09BF09CC8CDD8CEE8CD7
:10382000FF8C8C159D05AE05BF0548F4C81AD90A52
:10383000EA0AFB0AF801C482D582E682F782DF91A8
:10384000CF911F910F91FF90EF90DF90CF9008954F
:10385000DF92EF92FF920F931F93CF93DF93EC01D0
:10386000D88883E08D15B0F164E77DE188810E94FE
:103870005D317C018AE090E00E941D208C0161E0B6
:103880008C810E94F128F80160837183828360E05B
:1038900088850E947729F80163837483858360E0BB
:1038A0008C850E947729F801668377838087D1868B
:1038B000F7018581982F967081F4F70111830083B9
:1038C00082608583DF91CF911F910F91FF90EF90E0
:1038D000DF9008958BE10E947D3E0E941B28CF92CD
:1038E000DF92EF92FF92CF93DF93EC010E94C92AFF
:1038F0006B017C019E01A0E8BEE30E94DC4120E454
:1039000032E44FE050E00E94B341C20ED31EE12CDE
:10391000F12C0E94C92A6C157D058E059F05C8F300
:10392000DF91CF91FF90EF90DF90CF9008950F93AC
:103930001F93CF93DF93EC01062F18E01DC06B811E
:103940007C818D8140E00E943929000F8D859E8504
:103950000E946F1C6E817F81888541E00E94DB2878
:103960008D859E850E946F1C688179818A8140E0E7
:103970000E943929115049F007FFE1CF69857A8506
:103980008B8541E00E94DB28E0CF69857A858B85B5
:1039900041E00E94DB288D859E850E946F1C6E8110
:1039A0007F81888541E00E94DB28E985FA851081C6
:1039B0008B8518238D859E850E946F1C6881798177
:1039C0008A8140E00E94392969857A858B8541E0AA
:1039D0000E94DB28111105C0DF91CF911F910F913B
:1039E000089584E20E947D3E4F925F926F927F9293
:1039F0008F929F92AF92BF92CF92DF92EF92FF92FF
:103A00000F931F93CF93DF938C01562E3A01FC0145
:103A100080809180A280B380C480D580E680F780CA
:103A2000EA012196FA014080642D607F0E94C63928
:103A30000E94C92ADC01CB0188199909AA09BB098E
:103A40008C159D05AE05BF0598F3642D6295607FCA
:103A5000C8010E94C6390E94C92A6B017C01F80185
:103A600080849184A284B384F1E05F1639F15A9482
:103A70005A94852D90E00296680E791E5990652D16
:103A8000607FC8010E94C6390E94C92ADC01CB01AF
:103A90008C199D09AE09BF0988159905AA05BB05B2
:103AA00098F3652D6295607FC8010E94C6390E9417
:103AB000C92A6B017C01C615D70501F7F801C08240
:103AC000D182E282F382DF91CF911F910F91FF901B
:103AD000EF90DF90CF90BF90AF909F908F907F90AE
:103AE0006F905F904F900895FF920F931F93CF9325
:103AF000DF938C0146E050E064E77DE1FC018081CA
:103B00000E943731EC01F801F08461E0F11060E0CF
:103B1000F80184810E9477296A837B838C838D815D
:103B2000F11009C091E0892B8D83DF91CF911F9116
:103B30000F91FF90089599E0892B8D83DF91CF91AC
:103B40001F910F91FF90089546E050E064E77DE1FA
:103B5000FC0180810C9437318F929F92AF92BF927B
:103B6000FF920F931F93CF93DF93EC0164E77DE106
:103B700088810E945D318C01F88483E08F1508F400
:103B800084C0F8018581867009F07FC08C849D8493
:103B9000AE84BF848C819D81AE81BF81892B8A2BAD
:103BA0008B2B09F074C0E5E8F2E1A591B491119670
:103BB0008C9180FD04C060E088E00E94772960E07D
:103BC00089E00E94772960E08AE00E94772960E01E
:103BD0008BE00E94F12880E58CBD1DBC8114F2E1D0
:103BE0009F06FAE7AF06B10408F041C0811489E0EE
:103BF00098068DE3A806B10418F5E0E88E16E4E80F
:103C00009E06EEE1AE06B104C0F5F0E48F16F2E4D4
:103C10009F06FFE0AF06B10468F580E2881681EAEE
:103C2000980687E0A806B10458F590E0E0E98E1602
:103C3000E0ED9E06E3E0AE06B10428F583E002C0A5
:103C400090E080E0CF2DCC0FCC0FC065C82BF801E1
:103C5000C0839183858184608583DF91CF911F919B
:103C60000F91FF90BF90AF909F908F90089591E03B
:103C700080E0E8CF90E081E0E5CF91E081E0E2CF25
:103C800091E082E0DFCF82E0DDCF0E941B288EE250
:103C90000E947D3ECF93DC0114969C91149720E006
:103CA00030E0C22FF901E758F94FE4919E1741F037
:103CB0002F5F3F4F20313105A1F78DE20E947D3EFD
:103CC00087E980937A002830E8F420917E0081E033
:103CD00090E00C2E01C0880F0A94EAF7822B8093A3
:103CE0007E004FE150E06AE47EE18C910E94373122
:103CF000FC018BEF92E393838283C28F81E0858FF7
:103D0000CF91089520917D003C2F377081E090E0A5
:103D100001C0880F3A95EAF7822B80937D00E1CFAE
:103D20000F931F93CF93DF938C016AE47EE1FC0134
:103D300080810E945D31EC010E94C63B909100029F
:103D40008A8D981303C08FEF80930002F80184815D
:103D50009581A681B781888B998BAA8BBB8B8C832D
:103D60009D83AE83BF8380859185A285B3858C8733
:103D70009D87AE87BF8784858E8F91E0980F9D8F3A
:103D80004089518962897389488759876A877B8707
:103D9000248935893F8B2E8B208D318D398F288F4B
:103DA000948D9C8F811105C0DF91CF911F910F9150
:103DB0000895CE01DF91CF911F910F910C94183C83
:103DC0006F927F928F929F92AF92BF92CF92DF922B
:103DD000EF92FF920F931F93CF93DF934C01E62E48
:103DE000142F6901DC0115967C901597872D86703C
:103DF00009F451C071FC39C0F401908181819CBDEE
:103E00008DBDF72DF1706F2E70FCC8C0EE2009F447
:103E10009CC08FEF810F112351F0F60190819EBD60
:103E20000DB407FEFDCF9EB591938150B8F7662083
:103E300091F1072D069506950695402F4095417006
:103E4000D40112966D917D918C91DF91CF911F914C
:103E50000F91FF90EF90DF90CF90BF90AF909F9029
:103E60008F907F906F900C942A29ED91FC91418561
:103E700042706681778180850E942A29B72DB170B2
:103E80006B2E70FC17C0D401CD91DC91AA24AA94AA
:103E9000A10E111126C0DF91CF911F910F91FF90BC
:103EA000EF90DF90CF90BF90AF909F908F907F90DA
:103EB0006F900895072D069506950695402F417041
:103EC000F4016281738184810E942A29D401CD91F9
:103ED000DC91AA24AA94A10E112309F4AECF662482
:103EE0006394B12C8FEFA81AB80AAC0CBD1CD60194
:103EF000FC9008E010E0898580FF35C0EE81FF81ED
:103F0000888580834F2D40786B817C818D810E94D4
:103F10002A29FF0CEE81FF8188858083110FE881BB
:103F2000F98190818A81892391E009F490E0192B2D
:103F3000015009F7EE2011F0F6011083FFEFCF1AC0
:103F4000DF0AAC14BD0499F672CFF6019601210F79
:103F5000311D2E173F0709F46ACF81918EBD0DB434
:103F600007FEFDCFF6CF4F2D40786B817C818D8190
:103F70000E942A29FF0CEE81FF8188858083110F22
:103F8000E881F98190818A81892391E009F490E0A8
:103F9000192BEE81FF8188858083CACF73FA44276D
:103FA00040F9F4016281738184810E942A29662488
:103FB00063942CCFFF920F931F93CF93DF93EC0169
:103FC000188164E77DE1812F0E945D310C81F884C6
:103FD000C9852F2D3C2F402F61E00E94E01ECF931A
:103FE000FF921F920F931F921F9389E292E19F937A
:103FF0008F930E9440208DB79EB708960FB6F89415
:104000009EBF0FBE8DBFDF91CF911F910F91FF908B
:1040100008952FB7F89480914E0290914F02009727
:1040200049F0FC014081518150934F0240934E0270
:104030002FBF08958FE00E947D3ECF93DF93C09104
:104040003B02D0913C02AE01480F591F2DB73EB73D
:1040500021503F4F22273A952417350770F050938F
:104060003C0240933B02AC0160E070E0CE010E9454
:104070006E42CE01DF91CF91089581E10E947D3E95
:104080002F923F925F926F927F928F929F92AF9208
:10409000BF92CF92DF92EF92FF920F931F93CF9335
:1040A000DF93CDB7DEB728970FB6F894DEBF0FBE0B
:1040B000CDBF80913A028823C1F028960FB6F894BC
:1040C000DEBF0FBECDBFDF91CF911F910F91FF904B
:1040D000EF90DF90CF90BF90AF909F908F907F90A8
:1040E0006F905F903F902F90089581E080933A0207
:1040F0008E01015E1F4F20919A0350909903251560
:10410000C0F4452D50E0CD8CDE8C32E0C30ED11CC6
:10411000F60184913A01680E711CC3018136910544
:1041200054F1821B91098136910560F010923A0298
:10413000C4CF1092990310929A0340E050E0512CA2
:1041400020E0E1CF1092990360919A03561AE52C72
:10415000F12C70E0675C7C4FA70189E393E00E943B
:104160005C4210929A03509299038091C100806240
:104170008093C100A7019A01275C3C4F7901F601A9
:10418000A491A63008F440C1C9010296CA2ED12CD0
:10419000F5E0CF1AD108C80ED91EED8DFE8D3396ED
:1041A0004491ED8DFE8D3496859094905401ED8D63
:1041B000FE8D259134912038310508F00AC1BC01EB
:1041C0006F5F7F4F7E836D832F77DC012C933401EB
:1041D000640E711C78866F826F807884A614B70491
:1041E00009F441C18D809E80C814D90448F0F501BE
:1041F0008491853009F4BFC008F441C0883018F0BC
:1042000086E00E947D3EF80120813181F6016D80BB
:104210007E80E619F709AF01FF0F660B770B498324
:104220005A836B837C83A901330F660B770B6980FC
:104230007A808B809C80641675068606970608F443
:10424000D4C06D807E802FEF621A720AAD81BE816C
:104250004C931801B4E02B0E311CF80122813381FC
:104260008A01B901863009F4C3C0C3010E945342D8
:104270004301800E911E9E828D828101A6C08230F4
:1042800008F4BAC0833009F4E4C0F80140815181D8
:104290003A01812C912C0E5F1F4FD401C3018096EF
:1042A000A11DB11D80389105A105B10508F4CEC04E
:1042B000A4019301305F4F4F5F4F211530444105FA
:1042C000510508F43FC0D401C30118960097A042DD
:1042D000B10540F1A40193015C5F21153105410551
:1042E000504180F0D401C3015CE1B695A795979544
:1042F00087955A95D1F78068AD81BE818C931196D0
:10430000BE83AD83D401C30145E1B695A7959795CA
:1043100087954A95D1F78068AD81BE818C931196BF
:10432000BE83AD83D401C3013EE0B695A7959795B2
:1043300087953A95D1F78068AD81BE818C931196AF
:10434000BE83AD83ED81FE813196D401C30127E0A8
:10435000B695A795979587952A95D1F78068AD81F1
:10436000BE818C939F012F5F3F4F3E832D83462D4F
:104370004F7740832AC098012E5F3F4FF801A081FC
:10438000B1818D819E8101966C91662399F08C1587
:104390009D0580F4FD01319604C0C816D90609F4C4
:1043A00053C00196AC0141505109DA016C936191FF
:1043B0006111F3CFAC016D807E80461957094150E1
:1043C000D3014C939E838D8389012FEFA21AB20AE9
:1043D00003CF0196B901660F672F661F770B7195A2
:1043E0006068D70112966C93EACEB401A30129CF7D
:1043F000C3010E943D423CCFD8016D907D908D90CD
:104400009C900C5F1F4F49CF1A2FD7011C938091AE
:10441000010211968C936DEF610FC7010E94DF2A94
:10442000E10EF11CF701339790833196808331962A
:104430008EE78083A52DA10FA09399038091C100E1
:1044400080628093C10072CEC601B4CFED81FE813F
:1044500089CFD8014D915C913A01550F8808990890
:104460000E5F1F4F1ACF0D811E810E191F0913E019
:10447000100FCBCF80914002909141029F938F9378
:1044800021E030912702311101C020E01F922F93CB
:10449000209145022F93209144022F9320914302B3
:1044A0002F93209142022F9321E0892B09F420E0E1
:1044B0001F922F9383E592E19F938F930E94402058
:1044C0008DB79EB70C960FB6F8949EBF0FBE8DBFEA
:1044D0000895CF92DF92EF92FF920F931F930E9465
:1044E000C92A9F938F937F936F9301E010E020E0A0
:1044F00030E0C0904A02D0904B02E0904C02F09025
:104500004D026C157D058E059F0518F000E010E04A
:1045100098018091460290914702A0914802B09183
:104520004902800F911FA21FB31FBF93AF939F93A8
:104530008F938FE592E19F938F930E9440208DB7D8
:104540009EB70A960FB6F8949EBF0FBE8DBF1F91FF
:104550000F91FF90EF90DF90CF9008950E94C92AAD
:104560009F938F937F936F9389E592E19F938F93AE
:104570000E9440200F900F900F900F900F900F907F
:1045800008950F931F93CF93DF938C018091400286
:1045900090914102892B09F04BC060913F0270E07D
:1045A000623071052CF482E080933F0262E070E09B
:1045B000E0913B02F0913C024DB75EB741505F4F36
:1045C00044275A959F01C0E0D0E0C901860F971F8C
:1045D0004817590730F121969C01C115A4E0DA076C
:1045E000A1F78E1B9F0B0E941D20D0934102C09308
:1045F000400290933E0280933D020E947531F80183
:1046000080819181A281B381809342029093430281
:10461000A0934402B0934502DF91CF911F910F9177
:104620000895209711F0C901DCCF80E10E947D3E02
:104630008DE00E947D3E8F929F92AF92BF92FF923B
:104640000F931F93CF93DF938C016CEA73E2FC010D
:1046500080810E945D31EC010E94C63B8F8D98A144
:10466000892B09F058C0F80104811BA1FF24F394A1
:10467000002339F16C897D898E894F2D0E942A296A
:1046800021E001111CC014FB882780F991E08927E3
:10469000281741F08F89988DA98DBA8D892B8A2B87
:1046A0008B2B89F410711F291BA3DF91CF911F91D0
:1046B0000F91FF90BF90AF909F908F90089520E052
:1046C000E2CFF12CD7CF0E94C92A8F88988CA98C71
:1046D000BA8CDC01CB01880D991DAA1DBB1D888BEE
:1046E000998BAA8BBB8B8C839D83AE83BF8385E420
:1046F00099E19B838A83107114601F291BA3CE014B
:10470000DF91CF911F910F91FF90BF90AF909F903D
:104710008F900C94183C82E10E947D3ECF93DF93F2
:10472000EC016CEA73E288810E945D31F894FC012F
:10473000278D30A1232B69F44C815D816E817F81AF
:10474000FC01438F548F658F768F7894DF91CF91E2
:10475000089584E10E947D3ECF92DF92EF92CF9345
:10476000DF93EC0161E088859985AA85BB85892B5B
:104770008A2B8B2B09F460E08C810E9477296B01D6
:10478000E82E44E250E06CEA73E288810E943731FF
:10479000FC01C48AD58AE68A21E0488559856A8564
:1047A0007B85452B462B472B09F420E04C855D8506
:1047B0006E857F85452B462B472BB1F430E0232BAC
:1047C000FC0123A3488959896A897B89478B508FCB
:1047D000618F728F6AE070E04F96DF91CF91EF901A
:1047E000DF90CF900C94BF3130E1E9CFCF92DF92D0
:1047F000EF92FF920F931F93CF93DF938C016CEA9C
:1048000073E2DC018C910E945D31EC010E94092071
:10481000FC01D8011496CD90DD90ED90FC90179797
:10482000C282D382E482F58218964D915D916D919A
:104830007C911B974683578360877187F894118218
:1048400010828F8D98A1892B81F0A9A1BAA1ED9337
:10485000FC93FAA3E9A37894DF91CF911F910F9174
:10486000FF90EF90DF90CF900895FAA3E9A3F8A30B
:10487000EF8F8BA182FD25C0C88AD98AEA8AFB8A7C
:10488000982F94609BA381FD10C0CE010E94C63B6F
:10489000CC82DD82EE82FF8285E499E19B838A836C
:1048A000CE010E94183C7894D7CF4C815D816E81F7
:1048B0007F81872F4C155D056E058F0987FFE5CF3A
:1048C000F2CF488959896A897B89972F4C155D05F4
:1048D0006E059F0997FFD0CF83E10E947D3E8DE159
:1048E0000E947D3E0F931F93CF93DF93FC01A1891C
:1048F000B2898D919C911197928B818B16968D9197
:104900009C911797C085D185228521113FC02FB773
:10491000F894AC015527598348832FBF20914E024C
:1049200030914F0211963C932E93B0934F02A09377
:104930004E02A189B289109759F5278530898217CF
:10494000930741F083859485A585B6850097A105D9
:10495000B10531F480E0DF91CF911F910F9108955F
:104960004481558166817781840F951FA61FB71FEB
:1049700084839583A683B7838FE694E293838283AF
:1049800081E0DF91CF911F910F9108958883C6CF69
:1049900012964D915D916D917C9115972785308987
:1049A0008217930741F083859485A585B685009786
:1049B000A105B10551F4448355836683778381E073
:1049C000DF91CF911F910F91089504811581268168
:1049D0003781800F911FA21FB31F2B2F84179507BC
:1049E000A607270B27FFE7CF8CE10E947D3EEF92C1
:1049F000FF920F931F93CF93DF937C0161E775E2E2
:104A0000DC018C910E945D318C010E940920EC0137
:104A1000F70184819581A681B7818A839B83AC83CA
:104A2000BD83808591859F838E83F8941982188237
:104A3000D80151968D919C915297892BB9F153963B
:104A4000ED91FC915497D183C0835496DC93CE931F
:104A5000539780E090E07894892B39F4DF91CF91DF
:104A60001F910F91FF90EF900895C8010E94C63BDF
:104A7000D80112968D919C9113978F569442F1F024
:104A80008A819B81AC81BD8122E734E2F8013383C6
:104A9000228384839583A683B783C801DF91CF9156
:104AA0001F910F91FF90EF900C94183CF801D48B5C
:104AB000C38BD28BC18B81E090E0CDCF8A819B816B
:104AC000AC81BD81F8014481558166817781272FB2
:104AD000481759076A072B0B27FFD6CF8CE10E9496
:104AE0007D3ECF92DF92EF92CF93DF93EC0148852A
:104AF00059856A857B852C858C810E94D9316B0113
:104B0000E82E45E150E061E775E288810E94373187
:104B1000FC01C086D186E28688899989908B878737
:104B20008C899D89AE89BF8983879487A587B6873D
:104B300082E794E29383828368E070E0CF0141963C
:104B4000DF91CF91EF90DF90CF900C94BF318091A7
:104B50002702882329F0823011F01092270208954D
:104B600082E00E947D3E88E00E947D3ECF92DF92EF
:104B7000EF92FF92FC014081518162817381248117
:104B8000EEEAF1E185919591A591B4914817590705
:104B90006A077B0770F56A017B01C20ED11CE11C1C
:104BA000F11C8C159D05AE05BF0500F5841B90E03A
:104BB0009A012757394F3F932F939F938F937F935A
:104BC0006F935F934F938BE692E19F938F930E9435
:104BD00040208DB79EB70A960FB6F8949EBF0FBEC1
:104BE0008DBFFF90EF90DF90CF900895822F90E0DF
:104BF000DFCF80E090E0DCCF8EE00E947D3E44E09D
:104C000050E06FEF75E2FC0180810C9437314F92D8
:104C10005F926F927F928F929F92AF92BF92CF924C
:104C2000DF92EF92FF920F931F93CF93DF93CDB755
:104C3000DEB78C018DB69EB6DC016C906FEF75E22D
:104C4000862D0E945D31F801B480E084F184748483
:104C50002DB73EB7271931090FB6F8943EBF0FBEE6
:104C60002DBFADB7BEB711966D01FC01238120FDAC
:104C700033C08D01272DA7016B2DFC0180810E947F
:104C80005128DF92CF921F927F921F926F9283E200
:104C900092E19F938F930E9440202DB73EB7285FEB
:104CA0003F4F0FB6F8943EBF0FBE2DBF0FB6F8941E
:104CB0009EBE0FBE8DBEDF91CF911F910F91FF90D1
:104CC000EF90DF90CF90BF90AF909F908F907F90AC
:104CD0006F905F904F90089501811281D8011C96CA
:104CE0006C91B62FB160AB2EB1109CC06A2DC8017B
:104CF0000E941B388FEF870D772009F48FC0560173
:104D0000A80EB11C7601D80119966D917D918C91F8
:104D100041E00E94DB2888E0482E512CF80185856F
:104D200096850E946F1CD80116966D917D918C918D
:104D300041E00E94DB28F801858596850E946F1C62
:104D4000550CD8011996ED91FC911A9790811B96FC
:104D50008C91892391E009F490E0592AF80160814F
:104D60007181828140E00E9439294A944110D6CF56
:104D7000D80119966D917D918C9141E00E94DB28BC
:104D8000F801EA14FB0431F163817481858140E00C
:104D90000E943929D8011D968D919C911E970E94E1
:104DA0006F1CF80166817781808541E00E94DB28D5
:104DB000D8011D968D919C911E970E946F1CF80141
:104DC00060817181828140E00E943929D7015D9222
:104DD0007D0199CF61857285838541E00E94DB2842
:104DE000D8011D968D919C911E970E946F1CF80111
:104DF00066817781808541E00E94DB28D8011D967D
:104E00008D919C911E970E946F1CF80160817181A9
:104E1000828140E00E943929D7015C92C8010E943A
:104E2000FC372FCFC8010E941B38F70161917F0129
:104E3000C8010E94971CBA94B110F7CF57CFBF9208
:104E4000CF92DF92EF92FF920F931F93CF93DF9356
:104E5000EC016FEF75E288810E945D31BC800885AE
:104E60001985FC01238120FD38C0FC01D0810E94FE
:104E7000C92A6B017C01F0E8CF0EF8E3DF1EF1E0F8
:104E8000EF1EF11CC701B6010E943A28D093BB0067
:104E900084E88093BC00C701B6010E941E28BB2095
:104EA00079F0CB2DD4E8F80181918F018093BB007C
:104EB000D093BC00C701B6010E941E28C15099F7CB
:104EC00084E98093BC00DF91CF911F910F91FF90F7
:104ED000EF90DF90CF90BF900895E180F280F701CE
:104EE0006485C7010E941B38BB2049F0CB2DF80117
:104EF00061918F01C7010E94971CC150C1F7C70182
:104F0000DF91CF911F910F91FF90EF90DF90CF90A5
:104F1000BF900C94FC378F929F92AF92BF92FF92FA
:104F20000F931F93CF93DF938C01FC0184858F77C0
:104F3000F82E6FEF75E280810E945D31EC01F8017F
:104F400084819581A681B781892B8A2B8B2BB1F522
:104F50008091BC0082FF10C08F2D880F88838B81C9
:104F600082608B83DF91CF911F910F91FF90BF9053
:104F7000AF909F908F900895F80180849184A284CF
:104F8000B38461E089E10E94772961E088E10E94B1
:104F900077291092B900F0E88F16FAE19F06F6E043
:104FA000AF06B10438F488E48093B80084E08093BD
:104FB000BC00D2CF8CE08093B800F8CF81E30E9490
:104FC0007D3ECF92DF92FF920F931F93CF93DF939B
:104FD000EC0164E77DE18C810E945D316C01F88415
:104FE0000F2D10E0A8014D5F5F4F61EE77E28881E1
:104FF0000E943731FC01D182C082F2826C857D85AE
:10500000A8010396DF91CF911F910F91FF90DF9040
:10501000CF900C945342CF93DF93EC0164E77DE192
:1050200088810E945D31288539854C8160E0DF915F
:10503000CF910C94E01E8BE10E947D3ECF92DF92D7
:10504000EF92FF926B017C0109C00E94C92A292FAF
:105050006C157D058E052F0927FF09C08091BC00C6
:1050600087FFF3CFFF90EF90DF90CF90089580E31C
:105070000E947D3E24EA2093BC000E941E2880915D
:10508000B90090E0A0E0B0E080319105A105B10544
:1050900021F00897A105B10509F408958FE20E9457
:1050A0007D3E7F928F929F92AF92BF92CF92DF927E
:1050B000EF92FF920F931F93CF93DF93782EC62F1B
:1050C000942EB52E822E0E94C92A6B017C0120E805
:1050D000C20E28E3D21E21E0E21EF11CC701B60178
:1050E0000E943A287092BB0084E88093BC00C701FC
:1050F000B6010E941E28AA24AA94AC0ECC23B1F0BB
:10510000C92DDB2DB12C8FEFA81AB80AAC0EBD1E2D
:1051100094E8992E89918093BB009092BC00C701BE
:10512000B6010E941E28AC16BD06A1F7C701B60144
:105130000E943A28872D81608093BB0084E8809389
:10514000BC00C701B6010E941E28DFEFD80D8820E1
:1051500009F15801CD2F84EC982ECC2369F0909260
:10516000BC00C701B6010E941E288091BB00F5015A
:1051700081935F01C15099F7F801ED0FF11DEF0127
:1051800084E88093BC00C701B6010E941E2880916C
:10519000BB00888384E98093BC00DF91CF911F918D
:1051A0000F91FF90EF90DF90CF90BF90AF909F90C6
:1051B0008F907F900895FB012FB7F8949281141679
:1051C00044F4982B809592839181892381832FBF0A
:1051D00008958095982392839181892381832FBF9D
:1051E00008958036A0F567FD32C0E82FE695E69574
:1051F000E695F0E0EE0FFF1FED57FD4EA591B4913F
:10520000109729F1877021E030E0A90102C0440F16
:10521000551F8A95E2F7CA014FB7F89412963C9150
:105220001297662381F0382B282F209512963C93F5
:10523000129711963C911197232311962C93119755
:105240004FBFBD010895282F20953223EFCF8BE269
:105250000E947D3EFB012FB7F8949281411105C059
:105260008095892382832FBF0895892B82832FBF46
:105270000895FB012FB7F8949281411109C0382F8E
:105280003095932392839181892B81832FBF089539
:10529000982B92839181892B81832FBF0895B09998
:1052A0000FC0809150029091510201961092070216
:1052B00010920602909309028093080281E00895FB
:1052C00081E086BB809150029091510201969093AB
:1052D00051028093500220E030E83093070220937F
:1052E0000602909309028093080281E008958036B7
:1052F00078F5E82FE695E695E695F0E0EE0FFF1FCE
:10530000ED57FD4EA591B491109711F1877021E0F2
:1053100030E0A90102C0440F551F8A95E2F7CA0187
:105320003FB7F89412962C91129761110FC04095D7
:10533000242312962C93129711962C911197282BB7
:1053400011962C9311973FBFBD010895242BF1CFE7
:105350008CE20E947D3E1F920F920FB60F92112495
:105360000BB60F92EF92FF920F931F932F933F93E1
:105370004F935F936F937F938F939F93AF93BF935D
:10538000CF93DF93EF93FF930DC07A018091840058
:10539000909185008E199F0997FD7CC07894B299F1
:1053A0009AC0F894C0912202D0912302EA81FB8135
:1053B000309709F0ADC0EA8DFB8D2C8D20838E8552
:1053C0009F85019709F4C1C09F878E87888599853D
:1053D000AA85BB854C815D816E817F81480F591FF5
:1053E0006A1F7B1F4C835D836E837F8320832CA584
:1053F00025FF0EC00C851D85012E000C220B330BE2
:10540000800F911FA21FB31F88879987AA87BB8728
:10541000E881F9810481158126813781872F401722
:1054200051076207830B87FDB0CF7801F093230209
:10543000E0932202A0912402B091250214960D91CE
:105440001D912D913C911797872F401751076207A7
:10545000830B87FFFD01DF010190F081E02D0481C6
:10546000158126813781872F401751076207830BEB
:1054700087FFF1CFF983E883CD93DC93D0932502A6
:10548000C093240280918400909185008E199F0919
:1054900097FF84CF863A9F4F0CF06AC0F092890044
:1054A000E0928800FF91EF91DF91CF91BF91AF9192
:1054B0009F918F917F916F915F914F913F912F912C
:1054C0001F910F91FF90EF900F900BBE0F900FBEAA
:1054D0000F901F901895F89480918400909185000A
:1054E0009701281B390B2038314CDCF12091260222
:1054F00027FF43C09C01205C304E30938B002093EB
:105500008A0024E026BB90938900809388003ECFD8
:10551000CE0119954C815D816E817F81811178CF9B
:10552000E881F981E480F580F0932302E093220280
:105530008091240290912502C817D90709F026CF3F
:10554000F0932502E093240221CFCE010E94623520
:10555000EA8DFB8D9C8D90834C815D816E817F8176
:10556000DDCF209127022111C1CF8AE20E947D3E2A
:105570007894B299B0CFF89409CF9C012854344F55
:1055800030938B0020938A0024E026BB7C01F394A7
:1055900085CF2FB7F8946091840070918500809139
:1055A000500290915102B09902C02FBF08952FBFB1
:1055B0007F3FE1F30196089578940E94963C2FEF87
:1055C000260F6623C1F0FC018FEF9FEF31918327F7
:1055D000082E8295807F8025092E982F82958F70C6
:1055E0000826869598278927880F880F880F802599
:1055F000215060F708958FEF9FEF08956F927F928B
:105600008F929F92AF92BF92CF92DF92EF92FF92D2
:105610000F931F93FC0183818F9382818F938481E9
:1056200035014601680E711C811C911CD401C30117
:10563000BF93AF939F936F9281818F9380818F935C
:105640001F930F93FF92EF925F934F933F932F938C
:105650001F926F9383EF91E19F938F930E9440205D
:105660008DB79EB744960FB6F8949EBF0FBE8DBF00
:105670001F910F91FF90EF90DF90CF90BF90AF9070
:105680009F908F907F906F900895CF93DF93EC0160
:105690006A8D662309F453C0FC0150E031E020E03C
:1056A000A38DB48D4C91958D942309F0532B2F5FCE
:1056B000330F33962613F4CF2C85922F952729F09C
:1056C0008D85852780959823D9F4888D5D8787FD02
:1056D00003C0815070F1888F4C815D816E817F8124
:1056E00088859985AA85BB85840F951FA61FB71F3E
:1056F0008C839D83AE83BF8381E0DF91CF9108953A
:10570000982F909529238523822B8C879E8598300E
:10571000E0F621E0290F2E87FE01E90FF11D8787B2
:105720001092260281E0809352028FEF888F5D876E
:10573000D3CF1092260291E090935202CCCF50E04A
:10574000BBCF0F931F93CF93DF938C016EED7BE262
:10575000FC0180810E945D31EC010E94C63BF80192
:1057600084819581A681B7818C839D83AE83BF831D
:105770004085518562857385488759876A877B870D
:1057800080898D878C871E861F8A8EEF888F8485FF
:10579000898F87FD10C0452B462B472B29F4DF91BD
:1057A000CF911F910F910895CE01DF91CF911F915D
:1057B0000F910C94183C8EE10E947D3ECF93FC012A
:1057C000C481C930B8F44C2F50E09A01220F331F26
:1057D000420F531F455E5F4F6EED7BE2FC018081FF
:1057E0000E943731FC01C28F25E43BE233832283E0
:1057F000CF91089580E20E947D3E0F931F93CF9337
:10580000DF938C016EED7BE2DC018C910E945D31B7
:10581000FC01D80114969C91828D9817B8F4292F19
:1058200030E0E901CC0FDD1F2C0F3D1FEF01C20F4F
:10583000D31FF801648580850E94F1286B8F7C8FCF
:105840008D8FDF91CF911F910F9108958FE10E946D
:105850007D3EFC0144815581668177812085808170
:105860000C94D931CF92DF92EF92FF92CF93DF93D6
:10587000FC01A085B18582858C93968581E089277E
:105880008687C82FC170C688D788E08CF18C978531
:105890009F5FD1899D1708F05FC0892F86958695F7
:1058A0008695DF01A80FB11D5A962C9130E0892F03
:1058B000877002C0359527958A95E2F72170B70168
:1058C000A601C217A9F033C0892F869586958695C3
:1058D000DF01A80FB11D5A962C9130E0892F8770F7
:1058E00002C0359527958A95E2F72170C2131FC033
:1058F0004C0D5D1D6E1D7F1D9F5F9D1728F387E278
:105900009FE29383828384819581A681B781480F2A
:10591000591F6A1F7B1F448355836683778381E009
:10592000DF91CF91FF90EF90DF90CF900895978710
:1059300084819581A681B781480F591F6A1F7B1FFB
:10594000448355836683778381E0DF91CF91FF9015
:10595000EF90DF90CF900895B701A601D0CF6F925E
:105960007F928F92CF92DF92EF92FF92CF93DF934D
:10597000EC0160E08C810E9477293B01882EC8846D
:10598000D984EA84FB84D7FC24C0A601415F5F4F21
:105990006FEA7CE288810E943731FC01608271826B
:1059A0008282D686C5868C859D85948383838889EB
:1059B0009989AA89BB8981879287A387B487DF9158
:1059C000CF91FF90EF90DF90CF908F907F906F906E
:1059D000089583E20E947D3ECF92DF92EF92FF9284
:1059E0000F931F93CF93DF93EC01E885F9858A85A8
:1059F00080830E94C92A3E8521E023272E872F8598
:105A00002F5F2F87213009F45CC02530E0F40C8132
:105A10001D812E813F814A895B896C897D89DB01EB
:105A2000CA01800F911FA21FB31F8C839D83AE8379
:105A3000BF8381E0DF91CF911F910F91FF90EF9095
:105A4000DF90CF900895CC80DD80EE80FF80AB01A9
:105A5000BC014C195D096E097F098E899F89A88D4B
:105A6000B98D481B590B6A0B7B0BDB01CA010296EF
:105A7000A11DB11DB7FD34C0B595A7959795879524
:105A8000B595A795979587950A891B892C893D8996
:105A9000800F911FA21FB31F8E8B9F8BA88FB98F72
:105AA00022E33CE23B832A834C0D5D1D6E1D7F1D6E
:105AB000840F951FA61FB71F8C839D83AE83BF8362
:105AC000B8CF0C811D812E813F81AB01BC01401BF1
:105AD000510B620B730B4E8B5F8B688F798F9BCF53
