:100000000C94C7090C94F4090C94F4090C94F409A9
:100010000C94F4090C94F4090C94F4090C94F4096C
:100020000C94F4090C94F4090C94F4090C94F4095C
:100030000C94D1420C94F4090C94F4090C94F40936
:100040000C94F4090C9487220C94F4090C94F40990
:100050000C94F4090C94F4090C94F4090C94F4092C
:100060000C94F4090C94A8420C947E420C94F4096C
:100070000C94F4090C94F4090C94F4090C94F4090C
:100080000C94F4090C94F4090C94F4090C94F409FC
:100090000C94F4090C94F4090C94F4090C94F409EC
:1000A0000C94F4090C94F4090C94F4090C94F409DC
:1000B0000C94F4090C94F4090C94F4090C94F409CC
:1000C0000C94F4090C94F4090C94F4090C94F409BC
:1000D0000C94F4090C94F4090C94F4090C94F409AC
:1000E0000C94F4090C948B320C9452380C9484398F
:1000F0000C942B250C94AC260C94002E0C94F53308
:100100000C94C4320C9448370C94ED290C940B35A4
:100110000C9433170C94552B0C941E170C946633C7
:100120000C94493C0C948E280C94772D0C94681FE9
:100130000C94F0170C942B330C9457200C943A1811
:100140000C94B2150C940C1F0C941A1A0C940732D0
:100150000C94113C0C942B220C9476200C9470403F
:100160000C945F170C94D2170C9410300C94E32D60
:100170000C94EE260C94092F0C94BE3E0C945F1A3E
:100180000C94B53D0C940F200C94BE340C949E2E10
:100190000C94C7390C94693A0C943B190C941616BC
:1001A0000C9462260C9434320C9417270C94CD24B2
:1001B0000C942A350C94B42A0C9472420C94CC1AE8
:1001C0000C9470380C942D3C0C949C350C94A51F09
:1001D0000C94D7360C9470290C94B5190C941A3FD2
:1001E0000C942A2A0C94212C0C9491360C94043AE9
:1001F0000C9450380C94B73C0C9413340C946F2E20
:100200000C9439310C94B3180C94C1310C946C3E9D
:100210000C949C300C94D5240C94F8200C94D81A8F
:100220000C941F420C94EB350C9453370C943321EF
:100230000C94DB1A0C94413A0C94B6180C94FA21E5
:100240000C941C2B0C946D330C94EB190C945226CB
:100250000C941E310C94F91F0C94C41F0C94042FA1
:100260000C94E73D0C94513F0C94C3330C944339E8
:100270000C9427370C9443400C94F33A0C94F815E3
:100280000C9491260C94763F0C94A3370C94B22DC9
:100290000C9423380C94BB350C94F5310C94F01F5E
:1002A0000C9484370C94721A0C94D12B0C94F9157D
:1002B0000C9404200C94DD3E0C94F3350C94C62E63
:1002C0000C94A43A0C94652C04040000040000046F
:1002D00004040404040404000000000404000000FA
:1002E0000004000000000000000400000000000402
:1002F00000020000040004000004070404000004DD
:1003000004040000020200000002040700040004CC
:1003100004000004000202040404040400000400B9
:10032000040404040404040004000203040004049C
:1003300000040004000004000400000000000000AD
:10034000000001000201023703DB1A020000010075
:100350000000CC1A03000001000000D81A040000BD
:10036000010000001A1A050000010000005F1A06D3
:10037000000100013412721A07000001000000EBB6
:1003800019080001000136038E2809000001000051
:1003900000F8150A000201012F121E170B000301BD
:1003A000033303F9150C00020102310333170D006A
:1003B0000200023703042F0E000200021B125F1717
:1003C0000F0003000333033A181000020002310348
:1003D000D21711000500052C03F0171200020002CD
:1003E0001B126F2E13000100013603C62E140002EB
:1003F000000231039E2E15000200021B12E32D168F
:100400000004000428031030170005000523030929
:100410002F18000100013603C13119000800081B24
:100420000334321A0003000318038B321B0002004E
:10043000021B122B331C00020002310307321D0085
:100440000400041312C4321E000100013603F5310A
:100450001F000800081003D73620000200023103F5
:10046000913621000400031D122B252200030002F7
:1004700020125226230003000220126226240004C8
:1004800000041712F33525000100013603EB352671
:10049000000300030D03BB3527000400030A031FFC
:1004A00042280003000220127040290004000417B3
:1004B00012D5242A000100013603CD242B000300AD
:1004C000030703F01F2C0003000322123B192D0029
:1004D0000600060103B5192E000200021B121C2B98
:1004E0002F00050005FC02681F30000400042912DB
:1004F000C41F31000200021B12A51F3200040003BA
:10050000F902B42A3300050005F402552B3400012A
:1005100000013603133435000400030412BE3436E0
:1005200000050005EF02ED2937000400041712C38F
:100530003338000300030D03F533390003000220B4
:10054000120B353A0003000220129C353B000600D6
:1005500006E9022A353C000300022012113C3D004E
:1005600003000220122D3C3E00080008E102493C35
:100570003F00060006E902B73C4000050005DC022A
:1005800017274100060006D602AC264200030003EE
:100590001803EE2643000100013603A3374400028E
:1005A00000023103233845000200021B1284374643
:1005B000000300022012332147000400041312F844
:1005C0002048000300031803533749000100013697
:1005D0000376204A000200023103FA214B00020098
:1005E000021B1257204C000100013603763F4D00DC
:1005F000020002310343404E00040004D2020F20E7
:100600004F000100013603E73D50000200023103B4
:10061000DD3E510001000136031A3F52000600067C
:10062000CC026C3E53000300031803513F540002F8
:1006300000021B12BE3E55000100013603043A566B
:10064000000200023103A43A5700040004C802F378
:100650003A58000100013603C7395900020002313F
:1006600003693A5A000300030D12413A5B0000018E
:1006700000000072425C0000000500000078DA9D76
:10068000597B6FDBC811FF2A5B01417B859D4AA422
:1006900044C92EF287633B892F71CE6739CD01455E
:1006A00041D0E44A22C2D771493F7AF077EF3CF655
:1006B000454AC9010D1098BB3B33BB3B3BF39B87BD
:1006C000FE98244D33399D7C2CF2A691EDE468729E
:1006D000DFE745163FC856E575A560699BA6A7E20A
:1006E0006FEFCFCF7F128BD7F3D753719F577D9783
:1006F000170A673F7F116FF5F02711BC0EA2D7C113
:1007000074164D67C10244A5755926550642FE98D8
:10071000244551A74927E33ACF9448EBBEEADEBC13
:100720004A27A72BDCB1EB60AB3849BF0958856974
:100730006F7D1E79045966089A5AD19FBC7AF3AA34
:10074000174D5F1471DF308327F1F75EB6CF562661
:100750001CE01B52B752757197A7DF148FBA36A9E8
:10076000549977B1D955E415DC5FEFBF847B14321F
:100770006963B5EBBBAC7EAC26A7015EADDAE45B8A
:1007800038919A05C1D46CA19A3CD69F59D2257153
:100790002B93EC39E6434E4E4FA61EDF5311CE1776
:1007A000FB7C93D3E8C4515549516FE3BCB2B7D633
:1007B000924277027D5543C1C3D8D39F134793B26A
:1007C0001D0A1BE86E1159E22CDFE65D52C475DF8D
:1007D0008D181E92A2977445B949FAA28BED4499DF
:1007E0003CC559DF261D580E9D73B6B4F224D8417E
:1007F00057370359E960F3C06DBECBE6F3E5CAAAEB
:10080000B5555A87429A8F6C6EBF16F62BB25F4B66
:10081000FB258BE4D93E3668D7696EF7B49C3D99C9
:100820002DB6490E5ADB2555250BBA1BDCDBC8500B
:1008300069F1CD3EE2CA5D290F52615E6DEEE416AC
:10084000593A8B6681910C54F66D57F33155FC98EB
:10085000773B78E1EE7E9F5EE0346F8CBCA1E3CD08
:1008600055903DBA2757F1F033EE9E1B7A10208445
:100870004BE58D99989C2E57564AD9F427C1627A38
:10088000E89CCB85A5AA64DDE44FB218190199B79D
:10089000CAFF0B52773D204217E3E37B4EA5244C61
:1008A000814E9DEA17EEF2CD6379C0B0D267703405
:1008B00027439BD5AE1F1B1ACCEC59DADC9D189C44
:1008C000692C18B1A5CB1F64BCCBB73BBA61B8F299
:1008D000E9C1D3B6853CE0C576CDD36030E034A81D
:1008E0007088592FC5A5DABE79F57780C1301CF024
:1008F000E2DBA39DA5CADA51E8CC4B75CB13072DDB
:10090000A93A608E42C1639BCFE72A8D87E62ED23B
:10091000328BC71EB038F1769008FAF6E830D4E68C
:1009200026B2BC359F0C8644ECA8FA42494F68E0D9
:100930002ED6ED645BD68035CD418DFACB4EA99194
:10094000F3FDAE4CFBA4B5B6D13EC57B40253A3B8A
:100950008996D7E5A5E4ABCD9C9416F5E1D40AD0F1
:100960009BC9FB1EECB9867077624620654BB6CCFE
:10097000EF33B36488DCA26E33D9E27E10785A0676
:10098000B4C0103CB67927F728D06899108E224B56
:10099000D96E65953EC7887C70089862148C77750F
:1009A00029F7E2924ACAC677003DB6516918B7E006
:1009B000E80E79F9BA56C76DBEDDCA162FA16A4690
:1009C0008F60E136A7A808674A3A69151480736EEC
:1009D000728837E0D231EB50A46DCA987934D9824D
:1009E00037D33941C97A4434E00E3CEC1B7C05F026
:1009F000C3A38906EF58C17E3158A08D4DF8CD7A3A
:100A00008E6623327C02E1454E4D06CF81B0C48F05
:100A1000A1ED41922F099C8B0BA9E3E1091322E878
:100A20000006FA9006430224B82CFEC577928A8D00
:100A3000763E735CAADE748F492B7D767034EB5C56
:100A400059623E0F498AE62C491BC5F81E73BC4704
:100A500026AB2EDF4036B2D9C086E49D3648C3416E
:100A60004C3C80B5FE3BF6D1ED60C35D5D6434F86F
:100A7000F18B0BD9B6F5C0025660BA06CC49E9F63F
:100A8000ED17FE4ADF64CE2E38CDDAF5DE5D166056
:100A9000C56C40A3DC67609DB0DDC9888E0CAE7765
:100AA00048B75A398241323412148DE9C682A2A560
:100AB0002518E74BFFA76B95CEB574AC7123C8150D
:100AC000B7C0B893E9372FCB0A67E60CA324CB9EB7
:100AD000A0A901BDC6FB7BA8BC30020669C958A904
:100AE000D1806A4FA556C82807198B998EE8C8DEB1
:100AF0004688B0B2571AA61B2359CBE5906C7CA64A
:100B0000A53DF228DF18CB998FE8F60459C3DB0B1B
:100B1000D8DFC9EC1191203EE71B7EA3A5BD104B89
:100B20001E290908ACC91E8A61DFD9C4B39581A901
:100B3000F0006227406AE6594AC46FD4CB4319B625
:100B4000DDA3F613A7996519E54D96DC9A2760CDCC
:100B5000DC1063A0162E93942DC726033B3B8230F6
:100B6000F89B03FA030250CA06A171A63F899F4170
:100B70007FBC1F308005218D7F87517900E70EF7FC
:100B800088E80694E7599983A40F982266AAE4930B
:100B90003E02A4221652F396A3D58C898C3EFE24E5
:100BA0008104ADE0515C2E8705DFC639A943B7E566
:100BB00094E93C7CF456C3B9591D84199CD261A6B2
:100BC000AC33E9050960891CCBA11853E6AA36911C
:100BD000A5AC557E28C9DB131AE9DB7CFF1E2198E2
:100BE0000CE78F3F0AC38BD590EA70145E2C918A74
:100BF00032C518433DC4841CF36EEB37B313474032
:100C000009065A2F072461E39317AD800336D6797E
:100C1000DE40D5143F6D78E7E0042FA2B95187E894
:100C2000D3073C004C62E5E83A3F7F944DDDEAE4AF
:100C300085BD97C6D648E45393C393F8A9D2899546
:100C400034BA854F044AE15079C88F3D1F98BF9848
:100C50009C14BB206717E7F1F5D96F986962CAFC4D
:100C6000F6CB3ABEB9FABC46489B9C4E6EDE864730
:100C7000376F03F83F9B788BDD232D5E4C8F6E2EF4
:100C800070E1FCD32FE71FE377B797BFA2BB4CE916
:100C9000DFD1E4FAFC0B50255D29B749B088A640A6
:100CA00078F3F59A770B30BCDC5E9E5F5EFDEB322D
:100CB000FE7AF5F9E297AFF86C014EAE2F6F6192B4
:100CC0004F21DB3C2970AF4BD8EB12F782D5ABB389
:100CD0004FF1DBB32F172886B75ADF9DDDADE3F563
:100CE00097EBF5AFB0B2BEC495E80513CC1E525ECB
:100CF0002ACAA8E7E397A338861489721DBAEDF4CF
:100D000085732620C235BA24CE0D6A565CF974B5B7
:100D10000E2EE0BCB0317C86171F4006D08173E0F8
:100D2000EACDD97472FAEFE9D1EA3F70DFB7F8BDC6
:100D3000E2EF73FC0634A1C1050E20C7A5C1250E44
:100D4000C28007EF7030D7FCEF69A0057CC0C142BC
:100D50000BF819074BCDF391B6D13C9F68803C2F1F
:100D6000038CD1A74F666118D2E113B598CE9719BD
:100D700069A02BE4623A0BEE41739A4BABC1AA0611
:100D800063548EB6DC428912E799B61E4156B6E12D
:100D900034847B266705B5998449DF3346DEF3A4A6
:100DA0001255DD09F01A81C823002C19210519BF3D
:100DB00078DCE5F0CD46AC44036E083B31B41BDE75
:100DC0005E498AA2ED4C6CEA56803DFDD38C73855A
:100DD000AB19CDD394C61360FD6B8791056AD32DF3
:100DE0001C08B2D6A443EA441F932B71AE4834B119
:100DF0004252F41DAE9B78968210898693CA4A9817
:100E000062D5F283F59E73835134490BB6CB392FEB
:100E1000952466A195100B55476DC67709DC3713ED
:100E20005D2D0872B07B4348C19D890FBF61DA8593
:100E30006DA07FE836D040D562763CE7DEE25570A3
:100E40002E3E9F9D7FE4A40F47E00EB777666EEAC3
:100E5000CFDD5E9E5DE80544155CB8630063C0BAF3
:100E6000E2F44098269EEB457294E69063A8743BAA
:100E7000954A3037076478FFA49410E2B912378B93
:100E800065FD208D0A04366B108FDCB26DEDD866DF
:100E90000E57527BEBBA26B0FB87DED1E1D504DBDF
:100EA0003AD6C666167B3006F5102ABD799DBAA1E2
:100EB0008B6BC6793824A012C8DD49171D86629055
:100EC0009BF952E035AE93277CB1955128C7DF6B73
:100ED00028D312784228C521921A2BC1855CA1091A
:100EE0002BC8E6B3BEC056003063E22134A6930996
:100EF000C807892F8139C7F71976499B9187696A95
:100F0000ECF45CA3FA291713F0D56E8AFA9193B921
:100F1000CFE05A89E0EBA04F13946115E62F80B320
:100F2000E98593E1425E359CF27070A4A50A4FEA10
:100F3000A66784FDD6E59AB6DE82324B387A827790
:100F4000DB40CE00A704654B440B0CF0B7525F0AA0
:100F50003D04DD19B64155C333A0FB6017796D0917
:100F6000F6B4231EF3A280509A82BC416F8E930385
:100F7000C76935F4030E6C6EAFC1F5F90DE9004891
:100F800091977D69E68C73802ED7A6FF464D7A1027
:100F9000466041C0E7F7EBD71A3DBABA169B846E9C
:100FA000C737C3C6C79D6F52A83220A48E2397EEC1
:100FB00077A40FE4842C42496AE47CA954DF6026BC
:100FC00021194908BEB17DFE35E9D25D566F598BB6
:100FD0007FE12606FDF80151ADAFBE81608421EEB0
:100FE0008D7BF3CA2D8014F611C02905F08A1E0CE2
:100FF000398A12A9E2F7C56633C656347CDABD7762
:10100000A731BF989855F61A6E90DA5974CF218F90
:101010006B3B32EED6550150FD00474AEE0B83C0C4
:1010200056A1DC6E119DC1324C2F304B2DC468533C
:10103000502EFDDE63C15FFF0A9471AF4D614F0416
:10104000A1964D2E85653A8DCD0E099A48F545D26B
:1010500062C00B0FE75DF8DEEC1DD853D531827D01
:101060000FB34D88A77B7D470CA8901C85B3D56234
:1010700041F1590F220AD03C8816643C3088A225E1
:101080007C872F94A0A4F02EC03FC15FBFDEDF7C21
:101090007A08275433358038927FEC328D88414D61
:1010A0004D48111F2ADA8ED10ACD8F560396C46B94
:1010B00033085AE1A4FC18E1888B3397031F87B6E5
:1010C000012A308BA22F4A93A9938773E60DA9F6C4
:1010D00000548A6D3588ECF40315F52F7E7470CDBD
:1010E000A23F626F7FCCEB4DFF5481FFD876E83191
:1010F000463BD37F1C88DED550416FF737F1DB9B31
:10110000C81FB956606C74EDB512686C5413B8768C
:101110009B476BFB6E5CDABC465A6CCC39A5887178
:10112000D2C57A39095D7B6EAF51E25DC034E17C96
:10113000852CBCD69AD689A91AFB34A5FE215E0F50
:1011400051128EE9F7A28F3163600480E410AA4146
:10115000BF3A5318D4AB548E9A73C75C723B9E410E
:101160000FC5F50B7497C3D4405C6BFB22EF7B8AF1
:10117000111977AE203F0310884D1053DA5C309779
:10118000500E7E4DABEDB00EE7870AF0BD97F49B95
:101190002CFE93CEA261C5FBA726105206DD7694E5
:1011A000D262A183C752CE74555FEA3FEA77FE71DF
:1011B00076E18AD85185CB5DD01CC52E4740327C64
:1011C000D283FEDD7328D1EFBC7485EFFE15B0E449
:1011D000E5E34FFD62D6D95A9AD8CAFA70D7D73309
:1011E0003DCCAFB92B2FF857AF7E80145877E81F4E
:1011F000F901C9D2D54ACAD57CF2F23F7C84B76FD7
:10120000830B000004020704000002000204040033
:1012100004000704000004040000000404040407A0
:101220000407040002040404000404000404010789
:101230000400040200000000000000060002027327
:10124000004003041272001D06071271000F030D07
:10125000127000400310126F00140413126E001776
:101260000417126D000A021B126C00400220126B60
:101270000040031D126A0040022012690040022053
:101280001268001003221267001104251266001173
:1012900004291265000D022D1264000B0134126343
:1012A0000040012F1262001204301261000B013461
:1012B000126000100235125F001503371200004063
:1012C000023A125E000E023C125D0009013E125C01
:1012D000000600000020002300260029002C002F1B
:1012E000003200000100000301060109010F470060
:1012F0004400450080013548004400450020010DB0
:1013000088008000810080000E8A0080008100201B
:10131000000F8C008000810008000CB300B000B109
:101320000080033EB400B000B10020032398009079
:101330000091008000249A00900091002000259CDC
:10134000009000910008003BA800A000A1008000D0
:101350003CAA00A000A10020003DAC00A000A1001C
:1013600008005B28012001210180005C2A01200186
:10137000210120005D2C0120012101080028292ADB
:101380002B2C2D2E2F5051525354555657001124AB
:101390001FBECFEFD1E2DEBFCDBF00E00CBF14BE59
:1013A0000FB6F894A89580916000886180936000E2
:1013B000109260000FBE12E0A0E0B2E0E0E6F7E8B5
:1013C00000E00BBF02C007900D92AA32B107D9F717
:1013D00023E0AAE2B2E001C01D92AB39B207E1F707
:1013E0000E94BD230C94AE430C940000CF93DF9376
:1013F000CDB7DEB76D970FB6F894DEBF0FBECDBF89
:101400000E94AA236B017C0180912602882311F49B
:101410000C9403120E94AA23C61AD70AE80AF90AF2
:10142000F89480912602882361F08FEF8093270241
:101430008093260278940000F8948091260281110E
:10144000F9CF78940E94AA23A7019601260F371F8F
:10145000481F591F288F398F4A8F5B8F81E08093F7
:10146000260280916F02882309F443C010926F0214
:101470008FEF89838E010F5F1F4F47E8E42E42E113
:10148000F42E65EF71E3C8010E94AA286C01892B34
:1014900081F1D60156968C9182FFF3CF0E94AA2348
:1014A000F894F60137892689422F4B7F468B789432
:1014B0009F938F937F936F931F923F9321701F92FF
:1014C0002F9389811F928F93FF92EF920E942B1B83
:1014D0002DB73EB7245F3F4F0FB6F8943EBF0FBE07
:1014E0002DBF65EF71E3C8010E94AA286C01892B0A
:1014F00081F680917002882339F1109270028FEF8B
:1015000089838E010F5F1F4F31E8E32E32E1F32E06
:1015100061E976E3C8010E94AA28FC01892BA1F0A9
:10152000958D868D9813F4CFF894858D968D8917B7
:1015300011F40C942013789461E976E3C8010E94B9
:10154000AA28FC01892B61F780916502882321F18B
:10155000109265028FEF89838E010F5F1F4F2FE678
:10156000E22E22E1F22E65EA7FE1C8010E94AA285C
:10157000009791F0DC0158962C912F3FA1F7F89439
:10158000FC012685211109C7789465EA7FE1C8012D
:101590000E94AA28009771F780916E02882309F4AF
:1015A00040C010926E028FEF89838E010F5F1F4F34
:1015B00099E6E92E92E1F92E65E57BE2C8010E94E9
:1015C000AA28009771F1DC011E962C911E9723FF2B
:1015D000F3CFF894FC012685277F268778949C0119
:1015E000265E3F4F3F932F9350968C91869586951C
:1015F00086951F928F9389811F928F93FF92EF920E
:101600000E942B1BEDB7FEB738960FB6F894FEBFBD
:101610000FBEEDBF65E57BE2C8010E94AA280097D6
:1016200091F680917102882309F44BC010927102E7
:101630008FEF89838E010F5F1F4F8DE5E82E82E1CA
:10164000F82E65EF73E3C8010E94AA28FC01892BDC
:10165000C1F1848D80FFF5CFF89494812581368186
:101660004781548965897689A789B08DD18CC28CD0
:10167000B38C848D8E7F848F7894BF92CF92DF92CB
:10168000BF93AF937F936F935F934F933F932F934A
:101690009F9389811F928F93FF92EF920E942B1B41
:1016A0002DB73EB7205F3F4F0FB6F8943EBF0FBE39
:1016B0002DBF65EF73E3C8010E94AA28FC01892BA6
:1016C00041F680916A02882309F456C010926A029A
:1016D0008FEF8B87AE01455F5F4F1A01BCE09B2EF9
:1016E00017E0812E6EEE76E2C1010E94AA285C010D
:1016F000892B09F441C0D50159968C91599780FFE7
:10170000F1CFF894F5014480558066807780818D13
:101710008E7F818F789458968C91813009F4E5C33F
:1017200008F4C3C3823009F480C38330D9F6CB8474
:1017300019821A829E012F5F3F4F42E061E0F5015E
:10174000848995890E94582509811A8110270127CB
:101750001027F02FF670EF2E20E030E0B301A20149
:10176000C5010E945E276EEE76E2C1010E94AA28A2
:101770005C01892B09F0BFCF80917202882301F1AF
:10178000109272028FEF8B879E01255F3F4F1901E8
:10179000E9E0BE2E8E010F5F1F4FF2EFCF2EDD244A
:1017A000DA9406C0D7011E968C911E9780FDCCC39B
:1017B00064E877E3C1010E94AA287C01892B91F794
:1017C00080917302882309F46BC0109273028FEF2B
:1017D0008B87FE013B961F01DD24DA949E012F5F6B
:1017E0003F4F398B288BAE01475F5F4F5B8B4A8B36
:1017F00063E577E3C1010E94AA287C01892B09F4E3
:101800004FC0D7011E968C9182FFF2CFF894F7015A
:1018100084809580A680B780C1881686118A7894C6
:1018200080859185A285B385881A990AAA0ABB0A80
:1018300087010E5E1F4FD701CC2091F056968C91F8
:10184000F701E80FF11DD78A108E118E8D5FF70119
:10185000868B813308F0FBC0CA94D701C110EECF4C
:101860001F968C91882309F47FC2813009F45FC5EB
:10187000823009F490C6D70156968C9190E0C197BA
:101880000CF4B6CF6B85C70142960E94263B63E5F8
:1018900077E3C1010E94AA287C01892B09F0B1CF0E
:1018A000809166028823B1F0109266028FEF8D87D7
:1018B000E2E7BE2EF4E7DF2E04C0F701828980FD47
:1018C0003BC467E570E2CE010D960E94AA287C0118
:1018D000892B99F780916702882329F1109267027A
:1018E0008FEF8F87FE0131964F012E01F7E04F0EEB
:1018F000511C48EA642E57E0352E6FEA262E5E0111
:1019000028E0A20EB11C06C0D7011F968C911F972C
:1019100080FD77C46FE070E2CE010F960E94AA2886
:101920007C01892B89F780917602882309F495C080
:10193000109276028FEF8B87FE013B961F016EEBB4
:101940007EE3C1010E94AA288C01892B09F485C07D
:10195000D8011E968C911E9780FFF1CFBB84AE01FB
:101960004F5F5F4F68E11C968D919C911D970E947F
:101970004C3B89819A8198278927F894F8019685AC
:101980009E7F9687789483FFDACFC388D12C760127
:10199000B4E1EB0EF11CE00EF11EA70160E08485BE
:1019A00095850E944C3BA7014E5F5F4F61E0D801D7
:1019B0001C968D919C911D970E944C3BF801838948
:1019C0008C5F838B4801FCE48F0E911CD401AC909A
:1019D000A2FE33C0F7012181828190E0A0E0B0E057
:1019E000BA2FA92F982F8827A22B2381822BF801A9
:1019F000EC0DFD1D24896C017D01F22AC114D10476
:101A0000E104F0E1FF0608F066C50E94AA23A1FCEC
:101A1000B8C6F801E15BFF4F40805180628073805F
:101A20004C145D046E047F0408F4BAC68A2D8D7FC1
:101A3000F4018083D80153968C9190E0C0970CF408
:101A40007ECF6B2DC8010F960E94263B78CF6B8509
:101A5000C8010E94263BCA9400CF8091740288235B
:101A6000B9F0109274028FEF89838E010F5F1F4FC0
:101A7000EE24E394F12C170104C0FC01218521110F
:101A8000DAC263EF7AE3C8010E94AA280097A9F797
:101A9000809175028823B9F0109275028FEF8B87C1
:101AA0009E01255F3F4F190106C0D80151968C91C8
:101AB0005197811107C461E47AE3C1010E94AA2809
:101AC0008C01892B91F7A89580917702882329F0C2
:101AD00080E4809360001092770210913803112304
:101AE00009F46EC000912A0200FD12C0153008F4FE
:101AF00067C0D0907802BD2C8BEF8D0D8C3308F42D
:101B0000B8C4EEE7BE1609F4DAC6016000932A02F3
:101B1000412F50E06EE770E088E792E00E947F433B
:101B2000009739F00E7F00932A028857924011E007
:101B3000180F01FD0CC0902F926090932A0287E746
:101B400096E09F938F930E942B1B0F900F90D12EA6
:101B5000CC24CA9420E0ED2CF12C19C0822F90E007
:101B6000402F50E0481B590BB701680F791F685888
:101B70007D4F88589D4F0E94954310922602202F3A
:101B80008FB7F89490913803191761F08FBF1091B7
:101B90003803012F0D1911F78FB7F894909138037E
:101BA0001913F4CF009338038FBFF1E0CF1208C0B0
:101BB00087E796E09F938F930E942B1B0F900F90C7
:101BC0000E94AA236B017C01288D398D4A8D5B8D83
:101BD000621B730B840B950B809033029090340240
:101BE000A0903502B09036023FEF831A930AA30A01
:101BF000B30A8092330290923402A0923502B092DE
:101C0000360240902F025090300260903102709066
:101C10003202460E571E681E791E40922F025092C5
:101C2000300260923102709232026115710541E01A
:101C30008407910508F0EDC39B01AC010E94DC42D2
:101C4000DC01CB0181509F4FAF4FBF4F892F9A2F9F
:101C5000AB2FBB2740912B0250912C0260912D029B
:101C600070912E02840F951FA61FB71F841795072A
:101C7000A607B70718F48FEF9FEFDC0180932B02C4
:101C800090932C02A0932D02B0932E024091480213
:101C90005091490260914A0270914B025C546B432F
:101CA0007B4F2F2DC416D506E606270B27FDACCBA0
:101CB000BF93AF939F938F937F926F925F924F9258
:101CC000BF92AF929F928F9287EB92E19F938F93F7
:101CD0000E942B1B6DB77EB7625F7F4F0FB6F894E3
:101CE0007EBF0FBE6DBF8091480290914902A091C6
:101CF0004A02B0914B02C816D906EA06FB0698F4D0
:101D00008091440290914502A0914602B091470211
:101D10000196A11DB11D8093440290934502A093AA
:101D20004602B0934702C0924802D0924902E09224
:101D30004A02F0924B0210922B0210922C02109247
:101D40002D0210922E0210922F0210923002109249
:101D50003102109232021092330210923402109229
:101D600035021092360250CB82E389831A820E9498
:101D7000AA232B013C019E012F5F3F4F42E061E00F
:101D8000F701848595850E9458250E94AA23DC01CD
:101D9000CB0184199509A609B70981329340A105A1
:101DA000B10508F0ECC2998197FD24C34818590881
:101DB0006A087B08D70150968C918823C1F02FEFD9
:101DC000280F41E050E002C0440F551F2A95E2F76A
:101DD000052E000C660B770B440E551E661E771EF3
:101DE00004C076946794579447948A95D2F7BFEFCE
:101DF0004B1651046104710408F07BC32A8130E062
:101E0000220F331F892F90E0982F8827990F822B5C
:101E1000932BF7012689E20FF11D478A808F918F5E
:101E20002D5FD70156962C9326CDCB8481E08983F4
:101E30001A821B821C829E012F5F3F4F43E061E0AC
:101E4000848995890E94582569817A818B819C813A
:101E50000E940E43BB27A92F982F872F9C01AD010D
:101E6000442755272C8B3D8B4E8B5F8B89821A82A2
:101E70009E012F5F3F4F42E061E0D50154968D9166
:101E80009C9155970E9458258A81982F9C7F8C8918
:101E90008170E92EE82A0C891D892E893F89B301BA
:101EA000A201C5010E945E271DCCCB8419821A8233
:101EB0001B821C829E012F5F3F4F44E061E0F501D1
:101EC000848995890E94582569817A818B819C81BA
:101ED0000E940E43F62FF770EF2E8B019C01B30189
:101EE000A201C5010E945E27FDCB2B852C8B998218
:101EF0001A821B821C829E012F5F3F4F44E061E0EB
:101F0000848995890E94582569817A818B819C8179
:101F10000E940E436B017C01BFE0B9831A829E01CF
:101F20002F5F3F4F42E061E0F501848995890E946F
:101F30005825970186013327CC88EA80B301A20196
:101F4000C5010E945E27CECBAB84F8012B2D1192E8
:101F50002A95E9F7C982980149E061E01C968D91C4
:101F60009C911D970E945825D70153968C9190E023
:101F7000FC017496EE0DFF1D3B81232F207FE1F0C5
:101F8000203FD1F0D482D382D282D182F701E80FF0
:101F9000F91FD48AF70183898B5F838B8F3208F016
:101FA000E4C2D7011E968C911E978E7F1E968C934D
:101FB000C7010E940438FCCB2D81422F407F09F0DD
:101FC00086C25F81452F407F11F0403FD9F648859A
:101FD0004039C1F649854F77942EB0E2B41790F29C
:101FE000D701A80FB91F4A8154964C938C818183E5
:101FF0008E818283852F90E03F71AC01440F551F85
:1020000042955295507F5427407F5427342B338379
:10201000880F991F880F991F80762F71822B8483D8
:10202000D70153968C9153978B5F53968C938F3235
:1020300008F4A1C29BC2B9809084E92DF0E0DC01D4
:102040005296CD90DC9053975496AC9054975596F9
:102050004D905C90569757963C91779640E050E0B3
:10206000BA01FA2CEB2C792CF894D2013C930000A5
:1020700000003C93D6012C917894440F551F661FA5
:10208000771F2F21812C912C54018394211103C09F
:10209000812C912C5401482959296A297B2931978F
:1020A00018F7BE2C972CF894FC01218511867894A2
:1020B0006A017B0104C0F694E794D794C7947A949C
:1020C000D2F7E7FE02C0FF24FA94210101C0440CBC
:1020D0009A94EAF74A94512C612C712C4421552191
:1020E00066217721441655066606770609F4D1C2A3
:1020F00020E030E040E050E8DC011E962D933D9357
:102100004D935C93519760E850E040E030E0DC0193
:102110005C962C91FC01E20FF11D358F468F578F95
:1021200060A32C5FFC01248F203308F4AACC6B2D14
:1021300048960E94263BA5CCCD8480899189C09782
:1021400060F1D9828701085E1F4F20E3AE014F5F27
:102150005F4F61E0D7011C968D919C911D970E9465
:10216000E5400E94991580E3F701878B808991896A
:10217000C097918B808B6C2DC70143960E94263BA4
:10218000D70150968D919C915197C09778F11092FC
:10219000260281E08093660294CBF70184859585C1
:1021A000BB868E010F5F1F4F22E0AE01455F5F4F80
:1021B00061E00E94E5400E94991589818F7190E04D
:1021C000982F88272A81822BD7011E962D913C912A
:1021D0001F972817390720F41F969C938E931E97FC
:1021E000F701918B808BC0970CF0ABCFD701529643
:1021F0008C9152978E7F52968C93C7010E94DB215F
:1022000060CB7F8455968C91C82ED12CB6E1CB0E35
:10221000D11CCE0CDF1CF701968591111CC1D40195
:10222000E32D1D92EA95E9F72B861C866982D7017A
:1022300050968C91813009F452C2940147E061E0DC
:10224000F701848595850E9458259E01255F3F4FA3
:1022500042E061E0D7011C968D919C911D970E94F0
:102260005825F70180891C85012F813009F473C23C
:102270000F731074FE013296D60181918D93AE16C4
:10228000BF06D9F7D70155968C9155978A5F559619
:102290008C938E3208F0F7C1112331F0F701838956
:1022A00094890196948B838B002309F4DCC0D701B9
:1022B0001F968C911F978E7F1F968C93C7010E944B
:1022C000244028CBFB8419821A821B829E012F5F37
:1022D0003F4F43E061E01F968D919C9150970E9483
:1022E0005825F801118A29818A8190E0A0E0B0E0A8
:1022F000BA2FA92F982F8827A22B2B81822BA7FDDD
:10230000BF6FF8012789E20FF11D808F918FA28F97
:10231000B38F84E0820FD80157968C93803308F4F2
:10232000CACB6F2DC80143960E94263BC4CB8FE7D2
:1023300089838EEF8A830E94AA236C8B7D8B8E8B80
:102340009F8B9E012F5F3F4F42E060E0F701848545
:1023500095850E9458250E94AA232B013C01DC018F
:10236000CB012C893D894E895F89821B930BA40B7D
:10237000B50B81329340A105B10508F4C7C0D70160
:1023800056968C91F701E80FF11DD78A92E0908F55
:10239000118E8D5FF701868B6ECA318D308F7894E8
:1023A000AC01415F5F4F5F934F931F922F93FC01EE
:1023B00087891F928F9389811F928F93FF92EF924B
:1023C0000E942B1B2DB73EB7265F3F4F0FB6F894E8
:1023D0003EBF0FBE2DBFC7C82A893B89E217F3074E
:1023E00009F01EC1809590E02A8530E0821793079E
:1023F00009F461C1D70156968C91F701E80FF11DE0
:10240000D78A93E0C4CFC88ED98EEA8EFB8E0C9407
:102410002E0A6115710550E18507910508F02BCC56
:102420008B019C0101501F4F2F4F3F4F5527432FCA
:10243000322F212F0E94DC42DC01CB0140912B0284
:1024400050912C0260912D0270912E02840F951FE5
:10245000A61FB71F0BCC913009F444C18A5F858B4E
:102460008E3208F00EC110922602F1E0F09367025E
:1024700051CAC09079028C2D807F803109F041CB08
:102480001D1508F49DCB8D2D90E0FC01E958FD4F02
:1024900020812E3709F035CBFC01EB58FD4F1F0191
:1024A000FC01EA58FD4F9081D1018C91292F30E039
:1024B0007901F82A6DEF6D0D88E792E00E94C02344
:1024C000E816F90609F4FDC1B09078021ACB403F36
:1024D00009F058CD76CDD4011C92F801E25BFF4F94
:1024E00060813497808191810E94F632F80183895E
:1024F000A4CAF7018689E80FF11DD78A91E0908F71
:10250000118E8D5FD70156968C93B5C980EC898367
:102510001A829E012F5F3F4F42E061E0D7011C9677
:102520008D919C911D970E94582549812A81942F55
:102530009227892F82958F709827892F8695869567
:102540008927982F9695892780FD14C146FF45C19C
:10255000F7018689E80FF11DD78A25E0208F118EBB
:102560008D5FD70156968C9386C9912C6A2DC70131
:102570000F960E94263BBEE1B91508F0D0C2F701C4
:10258000818992890196928B818B1092260281E03B
:10259000809372020DC9D7011C96ED91FC911D9795
:1025A0001481C280038140E06C2D702F812F0E9426
:1025B000A8240E94AA232B013C01B0E14B0E511C20
:1025C000611C711C0E94AA23272D46165706680617
:1025D000290B27FFF7CFF89441E06C2D702F812F46
:1025E0000E94A8240E94AA232B013C017894E88928
:1025F000F9892AE011922A95E9F734E8398343E210
:102600004A839E012F5F3F4F4AE061E0D7011C964D
:102610008D919C911D970E945825FE01339685E06F
:102620009191892728E030E005C0880F21503109B9
:1026300009F4D2CE87FFF9CF880FBDE18B27F6CF03
:102640005489658990892189328943898F5F858F73
:1026500078946F935F934F933F932F939F938981C8
:102660001F928F93FF92EF920E942B1B4DB75EB784
:10267000465F5F4F0FB6F8945EBF0FBE4DBF0C9420
:10268000880A00E010E0672DC70141960E94263BB2
:1026900003CE21FD62C0FC014684578460887188A6
:1026A000411451046104710409F03EC23C2D4D2DCA
:1026B0005E2D6F2D2CCD898584FF82C08B8187FD97
:1026C000CFC0D70156968C91F701E80FF11DD78A3C
:1026D000B4E0B08F118E8D5FF701868BCCC8B8EE59
:1026E000B983ABCDF8E2FE87D70150968C9181304B
:1026F00009F471C0BFE2BD87840126E0AE01425FEC
:102700005F4F61E0F701848595850E94E5400E9456
:1027100099158E01055F1F4F21E0AE01435F5F4FAA
:1027200061E0D7011C968D919C911D970E94E54018
:102730000E949915F70180891B85012F813009F4CA
:1027400048C00F731074D401F6018D9181934A161D
:102750005B06D9F797CD00728CCD20E030E040E0E9
:1027600050E4DC011E962D933D934D935C9351975D
:1027700060E4CACCF7018689E80FF11DD78A93E09F
:10278000BECEF801ED5AFF4F4080518062807380C9
:10279000292F641575058605270927FF3AC94AC9F7
:1027A000F801ED5AFF4F60837183828393833697DC
:1027B00060813397808191810E94F63280E038C930
:1027C000D70156968C91F701E80FF11DD78AB5E035
:1027D00080CF0072B7CF6E868DCF481859086A082F
:1027E0007B08F70130893323C9F08FEF830F61E055
:1027F00070E002C0660F771F8A95E2F7CB01092EC1
:10280000000CAA0BBB0B480E591E6A1E7B1E04C08F
:1028100076946794579447943A95D2F77FEF47168A
:1028200051046104710408F041C0842F90E0AC01B0
:10283000542F4427550F550FF4E02F9FC00111244A
:10284000842B952BD70156962C91F701E20FF11DA1
:10285000478A808F918F2D5FF701268B0C943B0C5C
:10286000481859086A087B08F1E54F16F5E55F0638
:1028700061047104D8F42C8130E0220F331F90E002
:10288000982F8827990F822B932BD70156963C912E
:10289000F701E30FF11D2F8126952F73278B808F72
:1028A000918F3D5FF701368B0C943B0CD701569608
:1028B0008C91F701E80FF11DD78A91E068CD11E006
:1028C00046C9802F8D7F80932A0280910802C8120A
:1028D00020C181E08C0D8F70806180930802BAE77F
:1028E0002B16B2E03B0609F008F4FDC00AE712E03F
:1028F00085E7E82E86E0F82E99E0C92E8DB69EB6C3
:10290000D8012C9127FDB7C00F5F1F4F30E0211574
:10291000310509F401C1F701859194912817390710
:1029200008F0FAC0A901440F551F440F551F440F6A
:10293000551F420F531FFA01E55CFC4FE4916DB740
:102940007EB784E0E89F6019710911240FB6F894EE
:102950007EBF0FBE6DBF8DB79EB70196FA01E35CD7
:10296000FC4F6491FA01E25CFC4F45915491FA01ED
:10297000DA01A60FB11DBD01AC019D8A8C8A9D8F25
:102980008C8F6E177F0709F488C02016310608F473
:102990006FC0A491A53028F1A73009F069C02801C3
:1029A000BFEF4B1A5B0AD8016C908201060D111D16
:1029B0002016310608F45CC0712C812C912CDA01B0
:1029C0006D927D928D929C921397612C712C14962E
:1029D0004D925D926D927C921797485F5F4F319652
:1029E000D0CF5A01B4E0AB0EB11C48018FEF881A6A
:1029F000980AD8011C91912F9F77492E512C612C58
:102A0000712C012F0076003609F440C017FF6FC00B
:102A100084010F5F1F4FD80111978C91440C551CF6
:102A2000661C771C440C551C661C771C440C551CFA
:102A3000661C771C440C551C661C771C440C551CEA
:102A4000661C771C440C551C661C771C440C551CDA
:102A5000661C771C982F9F77492A87FDDACFDA0109
:102A60004D925D926D927C921397A501319689CF1C
:102A700087E00E94241B2F77B0E82B9F9001112440
:102A8000F8018181282B0E5F1F4F41CFB0EE4B2AFA
:102A900055245A94652C762CB9CF8C889D888C8DC2
:102AA0009D8D40912802442351F0C29EF001C39EA7
:102AB000F00D1124E45CFC4FE491E0FF1AC0C29ECB
:102AC000F001C39EF00D1124E05CFC4F2591349180
:102AD000F90119950FB6F8949EBE0FBE8DBE021572
:102AE000130508F40BCFCC24C3940C94AA0D8401D5
:102AF000B6CF809129021F928F93E9ECF2E1FF9308
:102B0000EF930E942B1B0FB6F8949EBE0FBE8DBE96
:102B1000E6CF1D2D0C949F0D85E00E94241BF1E053
:102B2000F91508F432CD3DCA342D452D562D672DAB
:102B3000EECA8230910589F05CF08330910529F06E
:102B4000049771F48DE10E94241B8EE10E94241BE6
:102B5000019739F48FE10E94241B8CE10E94241B11
:102B6000089508950F931F93FC01A489B589868960
:102B70008C9393A181E0892783A344815581668149
:102B8000778180FF12C00085118522853385400F33
:102B9000511F621F731F82FD12C0448355836683D9
:102BA000778381E01F910F9108950485158526850F
:102BB0003785400F511F621F731F82FFEECF0089C0
:102BC000118922893389872F401751076207830BA8
:102BD00087FDE3CF86E196E193838283B901A80163
:102BE000448355836683778381E01F910F91089515
:102BF0000895FC018081A481B5814085518562855D
:102C000073859FB7F894813061F0823019F04C934E
:102C10009FBF08954D935D936D937C9313979FBFD2
:102C2000089511965C934E939FBF08958F929F9243
:102C3000AF92BF92CF92DF92EF92FF921F93CF930A
:102C4000DF93EC01EF8CF8A0E114F10409F4F0C07B
:102C5000F7018081918198A38F8F86809780A084CF
:102C6000B18411E081149104A104B10409F4A1C05C
:102C70006C897D898E89412F0E94A824809137021A
:102C800090913802F70191838083F0923802E092AC
:102C9000370281149104A104B104E9F08B8D9C8D5D
:102CA000AD8DBE8D88169906AA06BB06A0F44F8985
:102CB000588D698D7A8D411551056105710509F4AD
:102CC0005BC08C819D81AE81BF81480F591F6A1FF7
:102CD0007B1F166022C08BA131E081149104A104F6
:102CE000B10409F068C084FB992790F921E092278C
:102CF000391709F443C04F89588D698D7A8D411574
:102D0000510561057105D1F18C819D81AE81BF8135
:102D1000480F591F6A1F7B1F1460EF8DF8A1309771
:102D200009F077C02BA1488B598B6A8B7B8B207164
:102D3000212B2BA311FF5FC0880D991DAA1DBB1D60
:102D400012FD52C022EB35E13B832A838C839D83A5
:102D5000AE83BF8388869986AA86BB868B8D9C8D21
:102D6000AD8DBE8D88199909AA09BB098C879D87ED
:102D7000AE87BF8781E011C012608BA1EF8DF8A1F3
:102D80003097D9F4188A198A1A8A1B8A8071812B84
:102D90008BA3812F827011FD34C0DF91CF911F91E1
:102DA000FF90EF90DF90CF90BF90AF909F908F906B
:102DB000089510E05DCF30E096CF42815381648169
:102DC0007581488B598B6A8B7B8B8071912F9460B6
:102DD000892B8BA311FF0FC08C819D81AE81BF8198
:102DE000880D991DAA1DBB1D2B2F84179507A607BB
:102DF000270B27FDA7CF4C835D836E837F8381E004
:102E0000CCCF40E050E0BA018C819D81AE81BF8182
:102E100093CFC280D380E480F580872F4C155D0569
:102E20006E058F0987FD07C08BA1B701A601C9CF29
:102E300085E10E94241B83E10E94241BFC01858103
:102E40008F9384818F9380811F928F938FE992E17A
:102E50009F938F930E942B1B0F900F900F900F90BA
:102E60000F900F900895DC012C911496ED91FC9138
:102E700015973FB7F8942130E9F02230B1F0808106
:102E800090E0A0E0B0E03FBFBF93AF939F938F93DC
:102E900089E992E19F938F930E942B1B0F900F90D3
:102EA0000F900F900F900F90089580819181A281D3
:102EB000B381E9CF80819181A0E0B0E0E4CF8F922F
:102EC0009F92AF92BF92FF920F931F93CF93DF9386
:102ED0008C0160EF77E1FC0180810E94F428EC0115
:102EE0000E9473388F8D98A1892B09F058C0F80182
:102EF00004811BA1FF24F394002339F16C897D899F
:102F00008E894F2D0E94A82421E001111CC014FBC2
:102F1000882780F991E08927281741F08F89988DBB
:102F2000A98DBA8D892B8A2B8B2B89F410711F29BF
:102F30001BA3DF91CF911F910F91FF90BF90AF9096
:102F40009F908F90089520E0E2CFF12CD7CF0E9480
:102F5000AA238F88988CA98CBA8CDC01CB01880DB0
:102F6000991DAA1DBB1D888B998BAA8BBB8B8C834B
:102F70009D83AE83BF8386E196E19B838A83107134
:102F800014601F291BA3CE01DF91CF911F910F91D8
:102F9000FF90BF90AF909F908F900C94C53882E1C6
:102FA0000E94241BCF93DF93EC0160EF77E18881CF
:102FB0000E94F428F894FC01278D30A1232B69F49A
:102FC0004C815D816E817F81FC01438F548F658FC1
:102FD000768F7894DF91CF91089584E10E94241B2D
:102FE000CF92DF92EF92CF93DF93EC0161E088857F
:102FF0009985AA85BB85892B8A2B8B2B09F460E0E8
:103000008C810E9453226B01E82E44E250E060EF75
:1030100077E188810E94CE28FC01C48AD58AE68A9D
:1030200021E0488559856A857B85452B462B472BB2
:1030300009F420E04C855D856E857F85452B462B08
:10304000472BB1F430E0232BFC0123A34889598995
:103050006A897B89478B508F618F728F6AE070E03D
:103060004F96DF91CF91EF90DF90CF900C9456293F
:1030700030E1E9CFCF92DF92EF92FF920F931F934F
:10308000CF93DF938C0160EF77E1DC018C910E949C
:10309000F428EC010E947E3DFC01D8011496CD90ED
:1030A000DD90ED90FC901797C282D382E482F58286
:1030B00018964D915D916D917C911B974683578336
:1030C00060877187F894118210828F8D98A1892B67
:1030D00081F0A9A1BAA1ED93FC93FAA3E9A3789496
:1030E000DF91CF911F910F91FF90EF90DF90CF90E4
:1030F0000895FAA3E9A3F8A3EF8F8BA182FD25C061
:10310000C88AD98AEA8AFB8A982F94609BA381FD9A
:1031100010C0CE010E947338CC82DD82EE82FF8225
:1031200086E196E19B838A83CE010E94C53878941C
:10313000D7CF4C815D816E817F81872F4C155D05D6
:103140006E058F0987FFE5CFF2CF488959896A89D3
:103150007B89972F4C155D056E059F0997FFD0CF92
:1031600083E10E94241B81E20E94241B0F931F9382
:10317000CF93DF93FC01A189B2898D919C91119726
:10318000928B818B16968D919C911797C085D185D6
:10319000228521113FC02FB7F894AC0155275983E0
:1031A00048832FBF209137023091380211963C930B
:1031B0002E93B0933802A0933702A189B289109759
:1031C00059F5278530898217930741F083859485C7
:1031D000A585B6850097A105B10531F480E0DF91A2
:1031E000CF911F910F910895448155816681778118
:1031F000840F951FA61FB71F84839583A683B7836B
:1032000083EB98E19383828381E0DF91CF911F91DB
:103210000F9108958883C6CF12964D915D916D915F
:103220007C911597278530898217930741F0838514
:103230009485A585B6850097A105B10551F4448311
:1032400055836683778381E0DF91CF911F910F9142
:1032500008950481158126813781800F911FA21F57
:10326000B31F2B2F84179507A607270B27FFE7CF40
:1032700080E20E94241BEF92FF920F931F93CF9343
:10328000DF937C0165EB79E1DC018C910E94F428ED
:103290008C010E947E3DEC01F70184819581A6811D
:1032A000B7818A839B83AC83BD83808591859F830F
:1032B0008E83F89419821882D80151968D919C9131
:1032C0005297892BB9F15396ED91FC915497D18384
:1032D000C0835496DC93CE93539780E090E078942B
:1032E000892B39F4DF91CF911F910F91FF90EF90CF
:1032F0000895C8010E947338D80112968D919C914F
:103300001397835B9841F1F08A819B81AC81BD81E9
:1033100026EB38E1F8013383228384839583A683E7
:10332000B783C801DF91CF911F910F91FF90EF906C
:103330000C94C538F801D48BC38BD28BC18B81E040
:1033400090E0CDCF8A819B81AC81BD81F801448121
:10335000558166817781272F481759076A072B0BFC
:1033600027FFD6CF80E20E94241BCF92DF92EF92FC
:10337000CF93DF93EC01488559856A857B852C8541
:103380008C810E94A82C6B01E82E45E150E065EB92
:1033900079E188810E94CE28FC01C086D186E28630
:1033A00088899989908B87878C899D89AE89BF8907
:1033B00083879487A587B68786EB98E1938382837A
:1033C00068E070E0CF014196DF91CF91EF90DF9000
:1033D000CF900C94562980913E0290913F029F938A
:1033E0008F9321E030912802311101C020E01F921B
:1033F0002F93209143022F93209142022F932091EB
:1034000041022F93209140022F9321E0892B09F450
:1034100020E01F922F9385EA92E19F938F930E9461
:103420002B1B8DB79EB70C960FB6F8949EBF0FBEA0
:103430008DBF0895CF92DF92EF92FF920F931F936B
:103440000E94AA239F938F937F936F9301E010E0D4
:1034500020E030E0C0904802D0904902E0904A025B
:10346000F0904B026C157D058E059F0518F000E06D
:1034700010E098018091440290914502A09146028B
:10348000B0914702800F911FA21FB31FBF93AF934C
:103490009F938F9381EB92E19F938F930E942B1BBD
:1034A0008DB79EB70A960FB6F8949EBF0FBE8DBF1C
:1034B0001F910F91FF90EF90DF90CF9008950E94A1
:1034C000AA239F938F937F936F938BEA92E19F93AD
:1034D0008F930E942B1B0F900F900F900F900F90C7
:1034E0000F9008950F931F93CF93DF938C018091DA
:1034F0003E0290913F02892B09F04BC060913D0242
:1035000070E0623071052CF482E080933D0262E04D
:1035100070E0E0913902F0913A024DB75EB7415048
:103520005F4F44275A959F01C0E0D0E0C901860F44
:10353000971F4817590730F121969C01C115A4E047
:10354000DA07A1F78E1B9F0B0E94923DD0933F029A
:10355000C0933E0290933C0280933B020E940C2950
:10356000F80180819181A281B38180934002909380
:103570004102A0934202B0934302DF91CF911F9189
:103580000F910895209711F0C901DCCF80E10E94CE
:10359000241B8DE00E94241B80912802882329F09F
:1035A000823011F010922802089582E00E94241BBC
:1035B00088E00E94241BCF92DF92EF92FF92FC01E1
:1035C00040815181628173812481E0E0F2E1859143
:1035D0009591A591B491481759076A077B0770F533
:1035E0006A017B01C20ED11CE11CF11C8C159D05EA
:1035F000AE05BF0500F5841B90E09A012358394FB2
:103600003F932F939F938F937F936F935F934F93EA
:103610008DEB92E19F938F930E942B1B8DB79EB7EA
:103620000A960FB6F8949EBF0FBE8DBFFF90EF9025
:10363000DF90CF900895822F90E0DFCF80E090E080
:10364000DCCF8EE00E94241BF894682F70E08CE49D
:1036500092E00E9451432F923F925F926F927F922D
:103660008F929F92AF92BF92CF92DF92EF92FF9292
:103670000F931F93CF93DF93CDB7DEB728970FB685
:10368000F894DEBF0FBECDBF809164028823C1F0E5
:1036900028960FB6F894DEBF0FBECDBFDF91CF9155
:1036A0001F910F91FF90EF90DF90CF90BF90AF9060
:1036B0009F908F907F906F905F903F902F90089594
:1036C00081E0809364028E01015E1F4F20919A0376
:1036D000509099032515C0F4452D50E0CD8CDE8C1B
:1036E00032E0C30ED11CF60184913A01680E711CC0
:1036F000C3018136910554F1821B910981369105F0
:1037000060F010926402C4CF1092990310929A0351
:1037100040E050E0512C20E0E1CF109299036091FD
:103720009A03561AE52CF12C70E0675C7C4FA701D8
:1037300089E393E00E94954310929A035092990373
:103740008091C10080628093C100A7019A01275C2B
:103750003C4F7901F601A491A63008F440C1C9019B
:103760000296CA2ED12CF5E0CF1AD108C80ED91E68
:10377000ED8DFE8D33964491ED8DFE8D34968590C2
:1037800094905401ED8DFE8D2591349120383105B2
:1037900008F00AC1BC016F5F7F4F7E836D832F7776
:1037A000DC012C933401640E711C78866F826F806B
:1037B0007884A614B70409F441C18D809E80C81492
:1037C000D90448F0F5018491853009F4BFC008F4AC
:1037D00041C0883018F086E00E94241BF801208147
:1037E0003181F6016D807E80E619F709AF01FF0F88
:1037F000660B770B49835A836B837C83A901330F54
:10380000660B770B69807A808B809C8064167506C6
:103810008606970608F4D4C06D807E802FEF621A6A
:10382000720AAD81BE814C931801B4E02B0E311C9D
:10383000F801228133818A01B901863009F4C3C0BD
:10384000C3010E948C434301800E911E9E828D8293
:103850008101A6C0823008F4BAC0833009F4E4C004
:10386000F801408151813A01812C912C0E5F1F4F4C
:10387000D401C3018096A11DB11D80389105A10519
:10388000B10508F4CEC0A4019301305F4F4F5F4FE4
:10389000211530444105510508F43FC0D401C3014E
:1038A00018960097A042B10540F1A40193015C5F16
:1038B000211531054105504180F0D401C3015CE17F
:1038C000B695A795979587955A95D1F78068AD815C
:1038D000BE818C931196BE83AD83D401C30145E1B3
:1038E000B695A795979587954A95D1F78068AD814C
:1038F000BE818C931196BE83AD83D401C3013EE09B
:10390000B695A795979587953A95D1F78068AD813B
:10391000BE818C931196BE83AD83ED81FE8131967D
:10392000D401C30127E0B695A795979587952A9569
:10393000D1F78068AD81BE818C939F012F5F3F4F8F
:103940003E832D83462D4F7740832AC098012E5FFA
:103950003F4FF801A081B1818D819E8101966C91CC
:10396000662399F08C159D0580F4FD01319604C005
:10397000C816D90609F453C00196AC01415051094B
:10398000DA016C9361916111F3CFAC016D807E809F
:10399000461957094150D3014C939E838D83890169
:1039A0002FEFA21AB20A03CF0196B901660F672F53
:1039B000661F770B71956068D70112966C93EACEFB
:1039C000B401A30129CFC3010E9476433CCFD801A3
:1039D0006D907D908D909C900C5F1F4F49CF1A2F5A
:1039E000D7011C938091080211968C936DEF610FA3
:1039F000C7010E94C023E10EF11CF70133979083A9
:103A00003196808331968EE78083A52DA10FA093F8
:103A100099038091C10080628093C10072CEC6017B
:103A2000B4CFED81FE8189CFD8014D915C913A01EF
:103A3000550F880899080E5F1F4F1ACF0D811E8100
:103A40000E191F0913E0100FCBCFCF93DF93CDB723
:103A5000DEB729970FB6F894DEBF0FBECDBF8BE956
:103A600093E090933A0280933902FFB6F894109253
:103A7000800001E000938100E4E8F0E01182108210
:103A800080819181C296909389008093880012E092
:103A900016BB80819181C29690938B0080938A009F
:103AA00084E086BB89E092E00E94C53806BB109393
:103AB0006F00FFBE9DE088E10FB6F894A895809353
:103AC00060000FBE9093600080E4809360001093CC
:103AD000C00087E090E09093C5008093C40086E02A
:103AE0008093C20088EB8093C1008FEC92E19F939A
:103AF0008F930E942B1B0F900F90F8948CE492E010
:103B00000E942F438C01892B19F478940E94F609A6
:103B1000F8940E94AA23F62EE72ED82EC92EE2E2B0
:103B2000F2E08681811101C0078382E292E022E007
:103B3000DC0116962C93169700E012E00D931C936F
:103B4000EAE1F2E04481558166817781D8011496DB
:103B50004D935D936D937C931797DC011396FC93C3
:103B6000EE931297D801ED93FC9382E192E091835A
:103B700080838091840090918500C2969093890003
:103B80008093880026BB109264020E940C298FEF5C
:103B9000898781E1B82E13C0F80143A1407164897F
:103BA000758986890E94A824D80193968C91982FB4
:103BB000907184FD9B2DF80193A310A2178E60EFE6
:103BC00077E1CE0109960E94AA288C01892B21F762
:103BD0008FEF888709C0DC0195961C921E929497FE
:103BE00060E088960E94002E69E07FE2CE01089690
:103BF0000E94AA28009779F78FEF8F8302C00E9456
:103C0000A53265EF71E3CE0107960E94AA280097BE
:103C1000B1F78FEF8E831FEF0AC090911102828D52
:103C2000981302C010931102868D8111D1C061E9F1
:103C300076E3CE0106960E94AA28FC01892B69F73B
:103C40008FEF8D8311E004C0FC01258120FDDAC0D7
:103C50006BEB75E3CE0105960E94AA280097A1F7A9
:103C60008FEF8D830CC09C012D5F3F4FDC011296BE
:103C70004C91129760E08D919C910E9458256BE2C7
:103C800075E2CE0105960E94AA28009761F78FEF92
:103C90008C8306EB18E10BC02FB7F8949927119687
:103CA0009C938E932FBF13830283128A118A65EB34
:103CB00079E1CE0104960E94AA28FC01892B49F0E3
:103CC00087859089A085B1852285222329F38C934D
:103CD000EACF8FEF8B8302C00E94B12B65E57BE2B8
:103CE000CE0103960E94AA280097B1F78FEF8A832E
:103CF0000FC0F80164857585868540E00E94A82480
:103D0000D8011F966D917D918C9140E00E94A8246E
:103D10006AE275E3CE0102960E94AA288C01892BE3
:103D200041F78FEF89832FC0F80161857285838504
:103D300040E00E94A824D8011C966D917D918C9141
:103D400040E00E94A824F80167857089818940E0DD
:103D50000E94A824D80152966D917D918C9140E0EB
:103D60000E94A824F80165897689878940E00E942D
:103D7000A824D80158966D917D918C9140E00E94C5
:103D8000A824F801108669E47CE3CE0101960E9424
:103D9000AA288C01892B41F689E092E00E94C5385F
:103DA000E2E2F2E081E08683789487811F928F932C
:103DB000CF92DF92EF92FF9283EC92E19F938F93E9
:103DC0000E942B1B0FB6F894DEBF0FBECDBF9DCE59
:103DD0008F5F858F4089518962897389808591853C
:103DE000A285B385840F951FA61FB71F808B918B6B
:103DF000A28BB38B84839583A683B783CF010E9464
:103E0000C53815CF23FB442740F9412762817381D0
:103E100084810E94A8241CCFCF93DF93EC016A8D8C
:103E2000662309F453C0FC0150E031E020E0A38D8B
:103E3000B48D4C91958D942309F0532B2F5F330F44
:103E400033962613F4CF2C85922F952729F08D8554
:103E5000852780959823D9F4888D5D8787FD03C0D9
:103E6000815070F1888F4C815D816E817F81888562
:103E70009985AA85BB85840F951FA61FB71F8C83C4
:103E80009D83AE83BF8381E0DF91CF910895982F0A
:103E9000909529238523822B8C879E859830E0F688
:103EA00021E0290F2E87FE01E90FF11D878710926F
:103EB000260281E0809365028FEF888F5D87D3CFE4
:103EC0001092260291E090936502CCCF50E0BBCFD8
:103ED0000F931F93CF93DF938C0165EA7FE1FC0181
:103EE00080810E94F428EC010E947338F8018481DB
:103EF0009581A681B7818C839D83AE83BF834085E6
:103F0000518562857385488759876A877B87808951
:103F10008D878C871E861F8A8EEF888F8485898F78
:103F200087FD10C0452B462B472B29F4DF91CF91FD
:103F30001F910F910895CE01DF91CF911F910F91A5
:103F40000C94C53882E20E94241BCF93FC01C481EB
:103F5000C930B8F44C2F50E09A01220F331F420FA2
:103F6000531F455E5F4F65EA7FE1FC0180810E943F
:103F7000CE28FC01C28F2CE03FE133832283CF9116
:103F8000089584E20E94241B0F931F93CF93DF9325
:103F90008C0165EA7FE1DC018C910E94F428FC0130
:103FA000D80114969C91828D9817B8F4292F30E08F
:103FB000E901CC0FDD1F2C0F3D1FEF01C20FD31FF6
:103FC000F801648580850E946F246B8F7C8F8D8FB4
:103FD000DF91CF911F910F91089583E20E94241BDE
:103FE000FC014481558166817781208580810C9414
:103FF000A82CFC019785916097871092260281E09A
:104000008093670280E00895FC0192899160928B11
:104010001092260281E08093660280E008950F935B
:104020001F93CF93DF93EC0149E450E06FE070E21F
:1040300088810E94CE288C0189EF9FE1F80193834B
:10404000828388859985AA85BB850097A105B105DE
:1040500009F10197A105B105D1F46DEC74E28C81F1
:104060000E94F428F8019587848781E086878C85F3
:104070009D85AE85BF8582309105A105B105A0F46F
:10408000F801808BDF91CF911F910F9108958DE200
:104090000E94241B6BEB75E38C810E94F428F801CD
:1040A000958784871686E3CF8CE20E94241B0F93AA
:1040B0001F93CF93DF938C014BE450E067E570E2F0
:1040C000FC0180810E94CE28EC0184E090E29B8379
:1040D0008A836DEC74E2F80184810E94F4289D8744
:1040E0008C87DF91CF911F910F9108952F923F926E
:1040F0004F925F926F927F928F929F92AF92BF92F8
:10410000CF92DF92EF92FF920F931F93CF93DF93A3
:1041100000D01F921F92CDB7DEB73C0167E570E279
:10412000FC0180810E94F4284C018AE38B838E017C
:104130000C5F1F4F21E0AE014D5F5F4F61E0F40166
:10414000848595850E94E5400E9499158C8184FFA5
:1041500006C0F401858996890196968B858B82E746
:104160008D830E94AA231B012C018E010F5F1F4F1C
:1041700022E0AE014B5F5F4F61E0F40184859585DD
:104180000E94E5400E9499150E94AA2329812F715F
:10419000A22EB12CBA2CAA242A81A22A0B2C000C04
:1041A000CC08DD087B018C01E218F308040915092D
:1041B000A2019101F3016081C40143960E94DF23B3
:1041C0000F900F900F900F900F90DF91CF911F9154
:1041D0000F91FF90EF90DF90CF90BF90AF909F90A6
:1041E0008F907F906F905F904F903F902F900895A9
:1041F0000F931F93CF93DF938C0163E577E3FC016B
:1042000080810E94F428EC010E9473381E86F80118
:1042100080859185A285B385892B8A2B8B2B29F4E8
:10422000DF91CF911F910F91089584819581A6818F
:10423000B7818C839D83AE83BF8380859185A28562
:10424000B38588879987AA87BB871B8A1A8A1D8AA4
:104250001C8A1E8A8485888BCE01DF91CF911F91A5
:104260000F910C94C5387F928F929F92AF92BF921C
:10427000CF92DF92EF92FF920F931F93CF93DF9332
:104280007C01DC01DC9163E577E38D2F0E94F4284B
:104290008C01F701C481B084A184DC011F969C903D
:1042A000B2E09B1609F44FC00E94AA236B017C0167
:1042B0002B2D3A2D4C2F61E0D8011C968D919C91AD
:1042C0001D970E9458250E94AA238B019C010C195E
:1042D0001D092E093F09013213402105310558F50A
:1042E0004C2F50E0E1E09E1659F1AF92BF925F93E0
:1042F0004F93FF92EF92DF92CF921F92DF9381E56F
:1043000092E19F938F930E942B1B8DB79EB70C96C3
:104310000FB6F8949EBF0FBE8DBFDF91CF911F9156
:104320000F91FF90EF90DF90CF90BF90AF909F9054
:104330008F907F90089540E050E0E1E09E12D5CF4D
:104340006B017C01D2CFDC011C96ED91FC911D9795
:1043500094808280738040E0682D772D892D0E94A3
:10436000A8240E94AA236B017C01B0E1CB0ED11CD2
:10437000E11CF11C0E94AA232F2DC616D706E806C1
:10438000290B27FFF7CFF89441E0682D772D892D71
:104390000E94A8240E94AA236B017C0178942B2DF3
:1043A0003A2D4C2F61E0F801848595850E945825AF
:1043B0004C2F50E09ACF0F931F93CF93DF93EC01D4
:1043C000F8940E94AA23088519852A853B85DC017B
:1043D000CB01800F911FA21FB31F8C839D83AE83DF
:1043E000BF83CE010E94C5387894DF91CF911F9191
:1043F0000F9108950F931F93CF93DF938C0167E57F
:1044000070E2FC0180810E94F428EC010E94733864
:104410001A8AF80184819581A681B7810097A10548
:10442000B10529F4DF91CF911F910F9108958887ED
:104430009987AA87BB871C8A1B8A1E8A1D8A1F8AA6
:104440001F861E86198A188ACE01DF91CF911F918F
:104450000F910C94DB21B0990FC08091680290916C
:104460006902019610920E0210920D0290931002B2
:1044700080930F0281E0089581E086BB80916802FD
:10448000909169020196909369028093680220E0FE
:1044900030E830930E0220930D0290931002809327
:1044A0000F0281E00895803678F5E82FE695E695CD
:1044B000E695F0E0EE0FFF1FEB52FD4EA591B49193
:1044C000109711F1877021E030E0A90102C0440F7C
:1044D000551F8A95E2F7CA013FB7F89412962C91BE
:1044E000129761110FC04095242312962C931297B6
:1044F00011962C911197282B11962C9311973FBF51
:10450000BD010895242BF1CF83E30E94241B1F9249
:104510000F920FB60F9211240BB60F92EF92FF92EB
:104520000F931F932F933F934F935F936F937F93BB
:104530008F939F93AF93BF93CF93DF93EF93FF93AB
:104540000DC07A0180918400909185008E199F0999
:1045500097FD7CC07894B2999AC0F894C0912202D9
:10456000D0912302EA81FB81309709F0ACC0EA8D3B
:10457000FB8D2C8D20838E859F85019709F4D2C0F9
:104580009F878E8788859985AA85BB854C815D81AB
:104590006E817F81480F591F6A1F7B1F4C835D838B
:1045A0006E837F8320832CA525FF0EC00C851D857F
:1045B000012E000C220B330B800F911FA21FB31F83
:1045C00088879987AA87BB87E881F981048115814B
:1045D00026813781872F401751076207830B87FD9C
:1045E000B0CF7801F0932302E0932202A09124023D
:1045F000B091250214960D911D912D913C91179724
:10460000872F401751076207830B87FFFD01DF01EA
:104610000190F081E02D0481158126813781872F5B
:10462000401751076207830B87FFF1CFF983E883B7
:10463000CD93DC93D0932502C09324028091840013
:10464000909185008E199F0997FF84CF863A9F4FDE
:104650000CF07BC0F0928900E0928800FF91EF910E
:10466000DF91CF91BF91AF919F918F917F916F918A
:104670005F914F913F912F911F910F91FF90EF907C
:104680000F900BBE0F900FBE0F901F901895F894CF
:1046900080918400909185009701281B390B203868
:1046A000314C0CF44BC02091270227FD29C09C01FE
:1046B0002854344F30938B0020938A0024E026BB8B
:1046C0007C01F394C7CFCE0119954C815D816E8139
:1046D0007F81811179CFE881F981E480F580F093C1
:1046E0002302E09322028091240290912502C817B0
:1046F000D90709F027CFF0932502E093240222CFB7
:1047000020912602209327029C01205C304E30939A
:104710008B0020938A0024E026BB9093890080932D
:10472000880010CFCE010E945F2FEA8DFB8D9C8DFB
:1047300090834C815D816E817F81CBCF2091280257
:104740002111B1CF81E30E94241B7894B2999FCFAD
:10475000F894F8CE2FB7F89460918400709185009A
:104760008091680290916902B09902C02FBF0895AC
:104770002FBF7F3FE1F30196089578940E94251D95
:104780002FEF260F6623C1F0FC018FEF9FEF3191D1
:104790008327082E8295807F8025092E982F829569
:1047A0008F700826869598278927880F880F880F8D
:1047B0008025215060F708958FEF9FEF08956F9245
:1047C0007F928F929F92AF92BF92CF92DF92EF92A1
:1047D000FF920F931F93FC0183818F9382818F93AC
:1047E000848135014601680E711C811C911CD40125
:1047F000C301BF93AF939F936F9281818F93808109
:104800008F931F930F93FF92EF925F934F933F937A
:104810002F931F926F9385E492E19F938F930E9451
:104820002B1B8DB79EB744960FB6F8949EBF0FBE54
:104830008DBF1F910F91FF90EF90DF90CF90BF90B1
:10484000AF909F908F907F906F900895CF92DF925E
:10485000EF92FF926B017C0109C00E94AA23292FCD
:104860006C157D058E052F0927FF09C08091BC00BE
:1048700087FFF3CFFF90EF90DF90CF90089587E30D
:104880000E94241B24EA2093BC000E9426248091CD
:10489000B90090E0A0E0B0E080319105A105B1053C
:1048A00021F00897A105B10509F4089586E30E9457
:1048B000241BFB012FB7F8949281141644F4982B13
:1048C000809592839181892381832FBF089580955C
:1048D000982392839181892381832FBF0895803605
:1048E000A0F567FD32C0E82FE695E695E695F0E085
:1048F000EE0FFF1FEB52FD4EA591B491109729F1D9
:10490000877021E030E0A90102C0440F551F8A954D
:10491000E2F7CA014FB7F89412963C9112976623BA
:1049200081F0382B282F209512963C9312971196E0
:104930003C911197232311962C9311974FBFBD01E2
:104940000895282F20953223EFCF82E30E94241B65
:10495000FB012FB7F8949281411105C080958923FE
:1049600082832FBF0895892B82832FBF0895FB0177
:104970002FB7F8949281411109C0382F30959323B5
:1049800092839181892B81832FBF0895982B9283E5
:104990009181892B81832FBF089543E050E06DEC16
:1049A00074E2FC0180810C94CE288F929F92AF928A
:1049B000BF92FF920F931F93CF93DF938C01FC0163
:1049C00084858F77F82E6DEC74E280810E94F42844
:1049D000EC01F80184819581A681B781892B8A2B0E
:1049E0008B2BB1F58091BC0082FF10C08F2D880FFA
:1049F00088838A8182608A83DF91CF911F910F9192
:104A0000FF90BF90AF909F908F900895F8018084A1
:104A10009184A284B38461E089E10E94532261E021
:104A200088E10E9453221092B900F0E88F16FAE153
:104A30009F06F6E0AF06B10438F488E48093B8002E
:104A400084E08093BC00D2CF8CE08093B800F8CF94
:104A500088E30E94241BCF92DF92FF920F931F9353
:104A6000CF93DF93EC016BEB75E38C810E94F4280C
:104A70006C01F8840F2D10E0A8014D5F5F4F6BE2D1
:104A800075E288810E94CE28FC01D182C082F28228
:104A90006C857D85A8010396DF91CF911F910F91C1
:104AA000FF90DF90CF900C948C438BE10E94241BED
:104AB0006F927F928F929F92AF92BF92CF92DF922E
:104AC000EF92FF920F931F93CF93DF934C01E62E4B
:104AD000142F6901DC0115967C901597872D86703F
:104AE00009F451C071FC39C0F401908181819CBDF1
:104AF0008DBDF72DF1706F2E70FCC8C0EE2009F44B
:104B00009CC08FEF810F112351F0F60190819EBD63
:104B10000DB407FEFDCF9EB591938150B8F7662086
:104B200091F1072D069506950695402F4095417009
:104B3000D40112966D917D918C91DF91CF911F914F
:104B40000F91FF90EF90DF90CF90BF90AF909F902C
:104B50008F907F906F900C94A824ED91FC914185EB
:104B600042706681778180850E94A824B72DB1703C
:104B70006B2E70FC17C0D401CD91DC91AA24AA94AD
:104B8000A10E111126C0DF91CF911F910F91FF90BF
:104B9000EF90DF90CF90BF90AF909F908F907F90DD
:104BA0006F900895072D069506950695402F417044
:104BB000F4016281738184810E94A824D401CD9183
:104BC000DC91AA24AA94A10E112309F4AECF662485
:104BD0006394B12C8FEFA81AB80AAC0CBD1CD60197
:104BE000FC9008E010E0898580FF35C0EE81FF81F0
:104BF000888580834F2D40786B817C818D810E94D8
:104C0000A824FF0CEE81FF8188858083110FE88145
:104C1000F98190818A81892391E009F490E0192B30
:104C2000015009F7EE2011F0F6011083FFEFCF1AC3
:104C3000DF0AAC14BD0499F672CFF6019601210F7C
:104C4000311D2E173F0709F46ACF81918EBD0DB437
:104C500007FEFDCFF6CF4F2D40786B817C818D8193
:104C60000E94A824FF0CEE81FF8188858083110FAC
:104C7000E881F98190818A81892391E009F490E0AB
:104C8000192BEE81FF8188858083CACF73FA442770
:104C900040F9F4016281738184810E94A824662412
:104CA00063942CCFCF93DF93EC016BEB75E388819A
:104CB0000E94F428288539854C8160E0DF91CF91EE
:104CC0000C945825FF920F931F93CF93DF93EC0121
:104CD00018816BEB75E3812F0E94F4280C81F88416
:104CE000C9852F2D3C2F402F61E00E945825CF937E
:104CF000FF921F920F931F921F938BE792E19F9356
:104D00008F930E942B1B8DB79EB708960FB6F89411
:104D10009EBF0FBE8DBFDF91CF911F910F91FF906E
:104D20000895FC011092260281E080936A02818D31
:104D30008160818F448155816681778180859185ED
:104D4000A285B385840F951FA61FB71F8483958303
:104D5000A683B78381E008950F931F93CF93DF93CA
:104D60008C016EEE76E2FC0180810E94F428EC0159
:104D70000E947338F80184819581A681B7818C8364
:104D80009D83AE83BF8380859185A285B385888707
:104D90009987AA87BB87892B8A2B8B2B29F4DF91D4
:104DA000CF911F910F91089584859585A685B7852C
:104DB0008C879D87AE87BF8780899189A289B389B7
:104DC000888B998BAA8BBB8B84898E8B1F8ACE0193
:104DD000DF91CF911F910F910C94C538FF920F93E3
:104DE0001F93CF93DF93EC01F88483E08F15E0F0FD
:104DF0004AE150E06EEE76E288810E94CE288C0176
:104E000081E996E2F801938382836BEB75E38C81F1
:104E10000E94F428F801958B848BF08EDF91CF915E
:104E20001F910F91FF90089589E20E94241BEF9239
:104E3000FF920F931F93CF93DF938C016DEC74E27D
:104E4000FC0180810E94F4287C018FE090E00E94A8
:104E5000923DEC0188E893E19E878D87F801808977
:104E6000880F8C8761E084810E946F246E837F832A
:104E7000888761E0F80184810E94532268837983E6
:104E80008A8361E0F80180850E946F2469877A87B0
:104E90008B8761E0F80180850E9453226B837C83BD
:104EA0008D83F701D183C083828181608283DF910A
:104EB000CF911F910F91FF90EF9008958F929F9245
:104EC000AF92BF92CF92EF920F931F93CF93DF9346
:104ED000EC01480159011F92EF92BF92AF929F924D
:104EE0000F937F936F935F934F931F92CF9287E5BA
:104EF00092E19F938F930E942B1B8DB79EB70E96C6
:104F00000FB6F8949EBF0FBE8DBFE11009C08C850F
:104F10009D85AE85BF8588169906AA06BB0688F4CE
:104F20008F898F5F8F8B9E898917B0F4DF91CF9126
:104F30001F910F91EF90CF90BF90AF909F908F9067
:104F4000089588899989AA89BB8988159905AA0530
:104F5000BB0530F31F8AEACF809128028111FACF76
:104F600088E20E94241BCF92DF92EF92FF92CF93B0
:104F7000DF93EC010E94AA236B017C019E01A0E853
:104F8000BEE30E94154320E432E44FE050E00E946B
:104F9000EC42C20ED31EE12CF12C0E94AA236C1508
:104FA0007D058E059F05C8F3DF91CF91FF90EF90AF
:104FB000DF90CF900895CF93DF93EC016B817C81DC
:104FC0008D8140E00E94B7248D859E850E94B32785
:104FD0006E817F81888541E00E9459248D859E8560
:104FE0000E94B32769857A858B8541E0DF91CF9157
:104FF0000C9459240F931F93CF93DF93EC01062F4A
:1050000018E01DC06B817C818D8140E00E94B72437
:10501000000F8D859E850E94B3276E817F818885D4
:1050200041E00E9459248D859E850E94B3276881A6
:1050300079818A8140E00E94B724115049F007FF2E
:10504000E1CF69857A858B8541E00E945924E0CFC4
:1050500069857A858B8541E00E9459248D859E85DE
:105060000E94B3276E817F81888541E00E94592488
:10507000E985FA8510818B8518238D859E850E9490
:10508000B327688179818A8140E00E94B7246985CD
:105090007A858B8541E00E94592481E090E01111CE
:1050A00002C080E090E0DF91CF911F910F910895B1
:1050B0001F93CF93DF93EC01162F8D859E850E9461
:1050C000B32769857A858B8541E00E9459246E81DA
:1050D0007F81888541E00E9459248D859E850E94AC
:1050E000B3276B817C818D8140E00E94B7248D8540
:1050F0009E850E94B327688179818A8140E00E9461
:10510000B724612FCE010E94FA278130910511F456
:1051100083E090E0DF91CF911F910895CF9320918C
:105120006C0230916D02232B91F4FC01C0818C2F15
:1051300090E0880F991F880F991F0E94923D9093CD
:105140006D0280936C02C0936B02CF9108958AE048
:105150000E94241BCF93DF93EC01988140916B0256
:10516000A0916C02B0916D020BC0FD0184E0989F8C
:10517000E00DF11D1124208131812617370741F000
:105180009F5F941790F380E090E0DF91CF910895B6
:10519000988382819381DF91CF910895CF93DF939C
:1051A00090916B028917E8F4C0916C02D0916D0266
:1051B00094E0899FC00DD11D112488819981892B8C
:1051C00081F480913E0290913F02892B51F47983C2
:1051D0006883CA010E94923D9B838A83DF91CF91AD
:1051E00008958BE00E94241B90916B02891788F42C
:1051F000E0916C02F0916D0294E0899FE00DF11D49
:105200001124808191818617970719F482819381F7
:1052100008958CE00E94241BCF92DF92EF92FF92C0
:10522000CF93DF93C0913E02D0913F022097B9F116
:1052300021976E01E12CF12CA0913D02B0E0209766
:10524000D9F020E030E040E050E0BA0180913B022C
:1052500090913C02FC01E20FF31F4F5F5F4F6F4FD5
:105260007F4F2A0F3B1F820F931F918380834C1522
:105270005D056E057F0550F380913B0290913C02E5
:10528000CA9FF001CB9FF00DDA9FF00D1124E80FBB
:10529000F91F118210829093380280933702DF91B8
:1052A000CF91FF90EF90DF90CF900895FC01138293
:1052B0001282118210826F3F710509F07CF4809197
:1052C0003E0290913F02892B49F480913D0290E08B
:1052D0008617970714F460933D0208950E94211BDE
:1052E000CF92DF92EF92FF92CF93DF93FC01A085E4
:1052F000B18582858C93968581E089278687C82F22
:10530000C170C688D788E08CF18C97859F5FD18962
:105310009D1708F05FC0892F869586958695DF01D9
:10532000A80FB11D5A962C9130E0892F877002C0CA
:10533000359527958A95E2F72170B701A601C21726
:10534000A9F033C0892F869586958695DF01A80F31
:10535000B11D5A962C9130E0892F877002C0359587
:1053600027958A95E2F72170C2131FC04C0D5D1D71
:105370006E1D7F1D9F5F9D1728F385E69CE293833A
:10538000828384819581A681B781480F591F6A1F46
:105390007B1F448355836683778381E0DF91CF91C0
:1053A000FF90EF90DF90CF9008959787848195814B
:1053B000A681B781480F591F6A1F7B1F44835583FD
:1053C0006683778381E0DF91CF91FF90EF90DF904C
:1053D000CF900895B701A601D0CF6F927F928F92A0
:1053E000CF92DF92EF92FF92CF93DF93EC0160E0D8
:1053F0008C810E9453223B01882EC884D984EA8480
:10540000FB84D7FC24C0A601415F5F4F6DEE79E2BB
:1054100088810E94CE28FC01608271828282D686B9
:10542000C5868C859D859483838388899989AA897B
:10543000BB8981879287A387B487DF91CF91FF9043
:10544000EF90DF90CF908F907F906F90089587E2DC
:105450000E94241BCF92DF92EF92FF920F931F9333
:10546000CF93DF93EC01E885F9858A8580830E94DC
:10547000AA233E8521E023272E872F852F5F2F87A4
:10548000213009F45CC02530E0F40C811D812E81AF
:105490003F814A895B896C897D89DB01CA01800F64
:1054A000911FA21FB31F8C839D83AE83BF8381E0B6
:1054B000DF91CF911F910F91FF90EF90DF90CF90F0
:1054C0000895CC80DD80EE80FF80AB01BC014C19DB
:1054D0005D096E097F098E899F89A88DB98D481B4A
:1054E000590B6A0B7B0BDB01CA010296A11DB11D92
:1054F000B7FD34C0B595A79597958795B595A795B0
:10550000979587950A891B892C893D89800F911F62
:10551000A21FB31F8E8B9F8BA88FB98F20E739E214
:105520003B832A834C0D5D1D6E1D7F1D840F951FCF
:10553000A61FB71F8C839D83AE83BF83B8CF0C811A
:105540001D812E813F81AB01BC01401B510B620BC1
:10555000730B4E8B5F8B688F798F9BCFDB01CA01FA
:105560000596A11DB11DC6CFEF92FF920F931F9319
:10557000CF93DF937C0165E57BE2FC0180810E9493
:10558000F428EC011E8511FF07C0DF91CF911F9118
:105590000F91FF90EF900895F70104816085718568
:1055A000F4840B3008F045C0FAE0FF1508F441C060
:1055B000402F50E04A960E948C431F861173126060
:1055C0001E87802F880F880F880F898BFF0CFF0C98
:1055D000FF0CF88A002349F08A8D8F738A3229F4F0
:1055E0008AE29AE29B838A830CC08A899B89AC8970
:1055F000BD898E8B9F8BA88FB98F80E799E29B83A3
:105600008A83F8940E94AA23DC01CB018058934F2F
:10561000AF4FBF4F8C839D83AE83BF83CE010E946B
:10562000C5387894DF91CF911F910F91FF90EF9043
:10563000089585E20E94241B0F931F93CF93DF935D
:105640008C0165EA7FE1DC018C910E94F428EC0179
:10565000D8011496EC918F898E0F8F8BF8948E85DC
:10566000E817D0F48E1BF0E03F96EC0FFD1FDE0133
:105670001F962FEF280F30E0205F3F4F2C0F3D1F6C
:1056800091919D93A217B307D9F78E877894DF91F4
:10569000CF911F910F9108951E868EEF888F789479
:1056A000DF91CF911F910F9108957F928F929F92DA
:1056B000AF92BF92CF92DF92EF92FF920F931F9320
:1056C000CF93DF93EC0144E250E065E57BE2888113
:1056D0000E94CE288C0178848C809D80AE80BF8013
:1056E000CC84DD84EE84FF8461E0711001C060E051
:1056F000882D0E946F24F80163877487858761E095
:105700008C2D0E945322F8016087718782878889D7
:105710009989AA89BB89828B938BA48BB58B7110D5
:1057200018C091E08C149D04AE04BF04C1F080E069
:10573000892BF8018687DF91CF911F910F91FF9000
:10574000EF90DF90CF90BF90AF909F908F907F9021
:10575000089591E18C149D04AE04BF0441F780E2EA
:10576000E7CFCF93DF93EC018E8585FD0DC0688573
:1057700079858A8541E00E94A8248E8580738160A6
:105780008E87DF91CF910895688579858A8541E07C
:105790000E94B7248E85807381608E87DF91CF91C0
:1057A0000895CF93DF93FC01A385B4855C91878531
:1057B000982F977021E030E001C0220F9A95EAF708
:1057C000982F969596959695DF01A90FB11D5A963B
:1057D0009C915A9745854523E1F0292B5A962C93A5
:1057E0008F5F90898917E8F48787448155816681A6
:1057F000778186899789A08DB18D840F951FA61F0B
:10580000B71F84839583A683B78381E0DF91CF910F
:105810000895209529235A962C938F5F9089891794
:1058200018F3EF01CF010E94B12B8E8588608E871F
:105830001092260281E080936E0280E0DF91CF918A
:105840000895CF93DF93FC01A385B4859C91858552
:105850008923E9F0868584608687878591E0980FA3
:105860009787803408F544815581668177818689E0
:105870009789A08DB18D840F951FA61FB71F8483B4
:105880009583A683B78381E0DF91CF9108958685C4
:1058900082FFE3CF178681ED9BE293838283CF0162
:1058A000DF91CF910C94D12BEF01108ACF010E9490
:1058B000B12B8E8588608E871092260281E08093BE
:1058C0006E0280E0DF91CF9108951F93CF93DF9315
:1058D000EC011889112369F14E8545FD23C01F860F
:1058E00081E29CE29B838A838E899F89A88DB98DF2
:1058F000880F991FAA1FBB1F880F991FAA1FBB1FC4
:105900004C815D816E817F81840F951FA61FB71F1B
:105910008C839D83AE83BF8311E0812FDF91CF9174
:105920001F91089540716B857C858D850E94592457
:10593000D6CF0E94B12B8E8588608E87109226026A
:1059400081E080936E02812FDF91CF911F910895A6
:10595000CF92DF92EF92FF921F93CF93DF936A0172
:105960007B016DEE72E1FB019491981749F0675F3E
:105970007F4FF3E16D377F07B1F78BE30E94241B64
:10598000FB013896949191FF1AC030EAC3163FE5A7
:10599000D306E104F10408F483C0C0E8CC16CEE7D6
:1059A000DC06C1E0EC06F10408F090C0D0E4CD16AE
:1059B000DFEBDD06E104F104C8F414E022C0F8EBEB
:1059C000CF16F7E4DF06E104F10490F0A0ECCA166C
:1059D000AEE3DA06A1E0EA06F10408F475C0C114EA
:1059E000BBEFDB06B4E0EB06F10438F315E009C0C9
:1059F00037EFC31638E0D306E104F10408F05FC0C6
:105A000011E0FB013396A591B491FB013596C59148
:105A1000D491FB0137963491E82FE695E695E6950B
:105A2000F0E0EE0FFF1FEB52FD4E45915491877051
:105A3000E1E0F0E07F0101C0EE0C8A95EAF7FB019E
:105A40003196C590D490892F8170A038B10509F4A2
:105A50004BC0EFB7F8949881977011F0191341C0BB
:105A6000188381112EC09FB7F894622F70E0E60171
:105A7000798368839FBF9C913160392B3C93DA0115
:105A800011969C911197E92A1196EC92EFBFB601FD
:105A9000DF91CF911F91FF90EF90DF90CF9008950D
:105AA000A8EDCA16A7E2DA06E104F10468F4B7EF3C
:105AB000CB16B8E0DB06E104F10408F4A1CF12E054
:105AC000A0CFE6012883D7CF13E09BCFC114EBEF23
:105AD000DE06E4E0EE06F10410F416E092CF17E0E3
