:100000000C940C090C9439090C9439090C94390995
:100010000C9439090C9439090C9439090C94390958
:100020000C9439090C9439090C9439090C94390948
:100030000C94733E0C9439090C9439090C943909C9
:100040000C9439090C94A31F0C9439090C943909A8
:100050000C9439090C9439090C9439090C94390918
:100060000C9439090C944A3E0C94203E0C943909A6
:100070000C9439090C9439090C9439090C943909F8
:100080000C9439090C9439090C9439090C943909E8
:100090000C9439090C9439090C9439090C943909D8
:1000A0000C9439090C9439090C9439090C943909C8
:1000B0000C9439090C9439090C9439090C943909B8
:1000C0000C9439090C9439090C9439090C943909A8
:1000D0000C9439090C9439090C9439090C94390998
:1000E0000C9439090C94A0180C9499210C94E12AD1
:1000F0000C9428300C94FC250C94A53A0C94EB320B
:100100000C94D6210C949F1C0C94BA230C94EE2CC6
:100110000C94A7330C94E8320C947F360C943A2953
:100120000C940F1E0C9408310C942C2A0C944A1534
:100130000C945A1A0C947F230C941A150C940E19D3
:100140000C942A220C9425230C943E240C943517ED
:100150000C9430330C94DA130C9460360C94312BDD
:100160000C94071D0C94B41A0C943F130C94102C8F
:100170000C9429320C949A220C94111F0C94802810
:100180000C949C240C94502D0C9487340C94063BB6
:100190000C9431340C94E7220C942B2F0C94E833FC
:1001A0000C94852F0C94F0140C9490250C9421320F
:1001B0000C94D6260C9445170C94EA2F0C945C13DF
:1001C0000C949D150C94353B0C94CF350C94F52173
:1001D0000C94DC320C9448260C9484180C94FD2862
:1001E0000C9468180C944D220C94CA2B0C94333B3D
:1001F0000C9444230C94982C0C943D210C94143EA4
:100200000C94102F0C94BC330C9499300C94423005
:100210000C9443330C94652A0C94553A0C94B82BE7
:100220000C94D7340C9479260C9484360C94B21325
:100230000C9452310C94B62F0C9489330C94471FB4
:100240000C94863A0C9406230C94D01A0C949426A1
:100250000C9458220C9437310C948A330C94533BF1
:100260000C94EE350C94E91C0C9463220C9421221E
:100270000C94293A0C9486320C944A3A0C946614E5
:100280000C94B9340C94971E0C9421180C94F736E6
:100290000C94E8140C94752B0C94121E0C9482355B
:1002A0000C943A2F0C94C4290400000000040400AC
:1002B0000000000400000000000000040000000036
:1002C000000400020000040004000004070404000D
:1002D00000040404000002020000000204070004FD
:1002E00007070400040400000400020204040404DC
:1002F00004000004000404040404040400040002D4
:1003000003040004040004000400000400040000CE
:10031000000000000000010201020C03E8330200AB
:1003200001000000DC32030001000000E83204009C
:1003300001000000EB32050001000000303306012F
:100340000001F4055A1A070001000000D01A080144
:1003500000010B03B41A09000100000089330A02EE
:100360000101EF05A7330B03010308038A330C02D5
:1003700001020603BC330D0200020C037F360E029D
:100380000002DB0584360F0300030803F736100272
:1003900000020603E91C1105000501039F1C12025F
:1003A0000002DB050831130100010B03EA2F1402E0
:1003B00000020603B21315020002DB053F13160408
:1003C0000004FD02DA1317050005F8025C1318019A
:1003D00000010B03B62F19080008F00242301A037F
:1003E0000003ED0228301B020002DB05EE2C1C028C
:1003F00000020603982C1D040004D305502D1E0195
:1004000000010B03B82B1F080008E5024A15200263
:1004100000020603CA2B21040003DD05F0142203A9
:100420000002E005351723030002E0054517240408
:100430000004D7059D15250100010B03E8142603D0
:100440000003E2021A1527050003DF0252312804D7
:100450000003DC02293229030002E00537312A04B7
:100460000004D70586322B0100010B0321322C0337
:100470000003D90221222D030003E205971E2E0658
:100480000006D302111F2F020002DB052C2A3005C3
:100490000005CE02992131040004E905F52132025C
:1004A0000002DB05D62133040003CB02C429340546
:1004B0000005C602652A350100010B03D734360456
:1004C0000003C405823537050005C102FD28380444
:1004D0000004D705873439030003E202B9343A0334
:1004E0000002E005CF353B030002E00560363C0624
:1004F0000006BB02EE353D030002E00568183E032E
:100500000002E00584183F080008B302A018400666
:100510000006BB020E1941050005AE022118420675
:100520000006A802942643030003ED02D6264401E8
:1005300000010B03A53A450200020603063B4602F2
:100540000002DB05863A47030002E0059C244804CC
:100550000004D3057F2349030003ED02553A4A0105
:1005600000010B03BA234B020002060348264C028B
:100570000002DB0525234D0100010B033E244E0242
:1005800000020603FC254F020002DB050623500192
:1005900000010B039025510200020603442352017F
:1005A00000010B03632253050005CE029A22540278
:1005B0000002DB05E722550001000000143E560052
:1005C0000500000004020704000002000204040009
:1005D00004000704000004040000000404040407ED
:1005E00004070400020404040004040004040107D6
:1005F0000400040200000000000000060002026D7A
:100600004003C4056C1D06C7056B0F03CD056A408A
:1006100003D005691404D305681704D705670A02D7
:10062000DB05664002E005654003DD05644002E04D
:1006300005634002E005621003E205611104E5056F
:10064000601104E9055F0D02ED055E0B01F4055D27
:100650004001EF055C1204F0055B0B01F4055A1034
:1006600002F505591503F705004002FA05580E0278
:10067000FC05570901FE05560600000028292A2B13
:100680002C2D2E2F505152535455565720002300D5
:10069000260029002C002F00320000010000030179
:1006A000060109010F47004400450080013548005C
:1006B0004400450020010D88008000810080000E6C
:1006C0008A008000810020000F8C008000810008DB
:1006D000000CB300B000B10080033EB400B000B124
:1006E000002003239800900091008000249A00903D
:1006F0000091002000259C009000910008003BA87C
:1007000000A000A10080003CAA00A000A1002000E1
:100710003DAC00A000A10008005B280120012101E0
:1007200080005C2A012001210120005D2C012001B4
:100730002101080078DA9D59E98EDBC8117E955EAB
:100740000246B2C1D8902891A226F08FB9EC75EC80
:10075000B1672D4F1C2008080ED9921AC36BD9E43B
:100760001C59F8DD53D5D51729D90662C0187677FC
:10077000551F757C75E8CF206BDBE034785F8AB657
:10078000E55D7012DC0DA22CD207DE49D1D41296A1
:1007900076797ECAFEFAF6E2E25716BD5ABE9AB1E3
:1007A0003B510FBD2825CE7EBC65E77AF82B0B5F49
:1007B00085F1AB70368F67F33082ADF2A6AAB2BA7C
:1007C000804DFE0CB2B26CF2ACE769230AC9F26646
:1007D000A8FBD72FF2E034C113FB1E8E4AB3FC9E58
:1007E000C12A4C7BEBCB9547501486A06DA4FA230D
:1007F000EAD72F06D60E65990E2D31AC1DC31F0307
:10080000EF9EED9E70817BA4EEB8ECD35EE4F79290
:10081000467D97D5B2127D6A4E65A286F7EBF3E16D
:100820008279C9B32E95FBA12F9AC73A380DF16989
:10083000F556ECE0464FE562199923642B52FA0C09
:100840004E573347556765B34B456D6FAFAE1D9C33
:100850002EDC4EFACA868286A99343E4B65393BC33
:100860001B6F369241B4B2C485D8893E2BD366E85B
:10087000270C0F5939701C177C9B0D659FDA892A4C
:100880007B4A8BA1CB7AB00075CFB9DB8F833EFB5F
:10089000A61DED958F0E0F634BBC2F96CB553233B3
:1008A000C49D4CF5D9DC7C144BFB15D9AFD87EAD7B
:1008B000EC172FB367ABB4E0345ED84344983323CE
:1008C000F4A59B2E8B7C1ECF4373365059D5244BF9
:1008D000472564583C1ED5DFDA1255EDB00EA3D97A
:1008E000B1AD56EEB1356F5AF1C4CB89988BACCF10
:1008F0005229FE0B92DD0FE03B7D8AE2F5CC4F7270
:100900009812B5F7B828B29BB68FD511D5E5CF6050
:10091000926E0FADB8FD305525CC1CE872E96E0C17
:10092000CF9D6E8C5ED88B079EEEC56EAF5EB848CD
:100930007C7AB0E55DC90FE5C5EC5ADA3FB79C6437
:10094000B318711AFF39C6AC97D24AEE5EBFF81BD6
:1009500000C662CCFB28FA3D8821CDA555F5C2D949
:10096000A4EC57EBD0AA27B75626F3F2DE7E8BC253
:100970007E3ED7793A36289657457A606333EF043E
:100980008EF068AF0EC3549B7E213AF349B0A18824
:100990001DD5504AEE6D1ABA87F57BDE550D78737A
:1009A0007B54A2FEB2136AEC9EDD57F99075D636E1
:1009B000BAA7F4000A586F27D1F27A5171B2300702
:1009C0003C7D87F27062854717FC6E007B6E20309D
:1009D000ACCD0876D9295B26FDCC2D59C73340E52F
:1009E000AEE01D9E0710DD11648486E0B1133D3F2B
:1009F000A040A325C2F949C02BDEED789D3FA78812
:100A00002D700998229C49F74DC50F105C6655EB77
:100A10003B801E5BFC1E233C5CDD611B3DD7CAB8DE
:100A200013BB1DEFF01112FD03E12B7287ABF80130
:100A300077CA7A6E051402786C05203AB8744A3287
:100A400064799793C59C043BF066754F10B21E29DC
:100A50001A70071A0E2D6A01FCF024D0F0984A385B
:100A60002F050BB4E88FDF24E7389C90A10A0C997E
:100A700053470C424458AA9A426C9F53D0B5DDAB01
:100A8000E3CAA5980E6270035CD55EB62636D2E145
:100A9000981EE7D2926BD09811A1621FA48F843068
:100AA00054380632C2BFA85E2EC9D697A1E392CDB4
:100AB000B67FCC3AEEB3837F5A9F2C32F3796CA782
:100AC00038A29DB42D4D9FBFC4E717BCEEE1F1AC39
:100AD000D96EE140E5D4367AC2BA8E077899E13B07
:100AE00066D5EFE1C07D53166AF0334349C04A0D25
:100AF000E62BDD581389FC95A12D9CF950DEB21F21
:100B0000BCBB476008646793646264C42082F58458
:100B10004ED9E5E000314E2CC134DFF83F1DA772FD
:100B20008EA323891B41CEB403C63DCFEFBD2C65F8
:100B3000313777982429F6066D03D8343DDF0B7DD5
:100B4000B1D96012BF27D248E6133AA5D189AB26A6
:100B5000E1946822B26466094679C0E4B055322651
:100B60009B6EB35A99F549A630DD279AD01D6C6467
:100B70006DE120D47E277B452C81C82AB624FF95C1
:100B80007DF1B1E0F29D3D3C358FB44C03086A80A5
:100B90007585A7E4987434F063C9A53DA3F1339A31
:100BA00079645826098D25B79605DE6C8931825AFD
:100BB000AC4173A2A0611C7BAF4002FE0A80657845
:100BC000B9CAA540AB91FE54FC84C6D3F38001742E
:100BD0008F34FE1B269931DC7B7140A45EA012305D
:100BE000BBE7281B03A698986AFEA4AF00398205CC
:100BF0002DD1511899139191C74F323B900AD88645
:100C0000976461CDB275FEE5F06435273A0F91BC6B
:100C1000D5C5D2AC8E801CA734904308E11E0C03CE
:100C20004BEC588EA178256463B0BB6AA438967DDE
:100C30001D6C1AEB7B7CFF1D0BD02225763F8A8F23
:100C4000D17A4C753C3C460952A9142EC5180C2883
:100C50002C3021B68E375F3B0215F9D17A09F29913
:100C60008D005E3C000ED85227602351AB0865030F
:100C7000288503D088E64619A2CB1EF1003089C42E
:100C8000D1F57E62C7DBA6D3590579AF1A5B23E1A4
:100C90004FAD0095F839CCDAEE3479854F04A8458C
:100CA000C1E9981F7B3EB0FC6692452CE4CF2E2F05
:100CB000D2EBB37F610A88B9ECF9ED26BD79F77103
:100CC0008388159C0637E78B939BF310FECF036F49
:100CD000B17F548B97B3939B4B5CB8F8F0E9E27DFE
:100CE000FAE6F3D5EFE82E33F5EF24B8BEB805AA3F
:100CF000ACAFF82E0BA3780684375FAFE9B4108B46
:100D0000A2CF571757EFFE79957E7DF7F1F2D357B3
:100D1000545B88939BABCF3049B7E09DC84A3CEB0E
:100D20000ACEBAC2B360F5DDD987F4FCECF612B78F
:100D3000A1A3365FCEBE6CD2CDEDF5E67758D95C77
:100D4000E14AFC0D33BF017251552DA9B685CE7015
:100D5000F053BD61063460D338BE399B05A7FF9EB2
:100D60009D24FF816B9EE37742DF17F80D20A006DC
:100D70009738809C510DAE700045BF1ABCC1C1525E
:100D8000F3BF5503BDC16F3888F406FFC0C14AF3F5
:100D9000BC57C7689E0F6A803CDF46D000A582EA38
:100DA000B8CC178B05DCF824C864345BAE0A950612
:100DB000F5258F66F3F00E1EACB9F4F394FEF079CE
:100DC0001893049A6007297F2A0AAD74A68C634B96
:100DD000819FAAFCB3126DFC999974B820C0BCC85D
:100DE0006A56373D03636708180C308E808D299B47
:100DF000658F7B01DF647B92B5E03D701221B2E12B
:100E00001D2457B1AD9BB36DD3313083BF9BB190DF
:100E1000B85AA8793525C9C580F52F3D0604A8F52F
:100E200076702148E7B21EA9337D4DAA6C29C3D73D
:100E3000C41249D1E4A90EA159153BD4D670535E12
:100E40003353FC597E30BA0B6A6DB136EBC0E418EF
:100E5000EFBAA65329BE59E8388430D9AB06D79BE0
:100E60000CDE5BB0BE610A29B061A11C9CBA5BEFCD
:100E700028C032D301720D298A739455192ADD5383
:100E800053D5859B0332BC4A5671089254649AC567
:100E9000AA79E0E6360CFB10E8D16ED9762D6C9F6E
:100EA0008210FF605DE7B1F6FC857701102023B367
:100EB000C3B2CFCC627BC1E046B81ACDEBDC26DFF3
:100EC0008B56332EE7630295A6BB37496A5C188AB6
:100ED0005176E3ED8205CD75F684769A188152330A
:100EE000E11A4A896CC7195499108B8CC260CB6B7C
:100EF00021D19A24A4B2C55062950BCC18BA994658
:100F00004565F8FC81A326306A7F9F619F75853215
:100F1000764D8DB5F4358A5F65330CBEBA6DD93C1C
:100F2000523AF411AC3C63F41C742F852ACBC902ED
:100F3000D83D2D60C1EE2F88BAA5A4817A5E6AA93A
:100F4000C69BBAE9A5424F6BFD6DD7EC4098155C86
:100F50003DC3B76D21EAC22D41D81C1D17FB8B9FE5
:100F6000B97E141A2B7A161C83A20635A025633984
:100F7000B7B10407D2618FA22C2118E5B0DFA8ED2C
:100F800044E1D5715A09FD800323D806BC9074A8AA
:100F90002E8014A21A2A33679C036F655A4BAAC885
:100FA00085CD94DF2A0CF29BB61BEDC87DD3B06DC6
:100FB000A65E472FC39AFE8B6F5228322054CD3441
:100FC0006A817D51F2404E88C392AB1EC56D2D875C
:100FD00016633127A756488AFDE7AF599FEF8B6606
:100FE0004752FC852A42D501878A69A8EF6163448C
:100FF000046AAC7AF3D22D8065928F006448403A3F
:10100000F46088F250C74BAD5FD79D22C06AEA12E8
:1010100030EE0136C8EE4A035DF6F954E9339D7CA3
:10102000505F7BD23138659F003C2100DE61BEB04D
:10103000C58E91FC85D212D5B4B738AA5BF905B537
:101040008124D6DD352004994C0ECBB884091E804E
:10105000BF6ACF7E3CBB784F1D3BD3B352791A4A4F
:10106000B3CC3A0C2798971E4946508564F0D801B6
:10107000D4084CEE84291844AB832E19862BC8184B
:1010800016F3248A54F4D38358853F1AC491B207C7
:1010900018C4F10ABE17DF60A752E4206AE00FF01F
:1010A000578DB7371F1E16812A245A00114E3F62F2
:1010B00098C27A54682AE74F8F55322F1101CC8F8E
:1010C000112396CC2B9B995AA14CF5250225552C22
:1010D0002E315CCF8DAA219CE97E924A1D55DB09F9
:1010E000E78C9E553E0E3893DA0A09B855AF4F5536
:1010F000E33FBAB6E6D01FA93BFD257A87E9F5495B
:101100007008DBBA5B2F5DAB6CB433D4E2808B87A5
:1011100067F89D38944EE8DA4FA911B4573BABB14C
:10112000914BE25A3C1EADEDF550B2FF0A69B15742
:10113000E544C2A6F90C492559B996D041EBC07BCC
:101140008069FCF8F2987BED1D2D1253470D79AEA6
:101150007A56F83CCC33E09A7EDB74ADEA49746889
:1011600048BBA03CF2CB158931BACEF9A43FF4526A
:10117000D5261ECFA867E00A685DF69BA2808A4F3D
:101180007FCBBB41417E415D18C87C002552139343
:10119000A4365855153B34356DA3E3224C8E55A427
:1011A000078AF4BB0E238D86E312F0A716A06A34DB
:1011B000000F952C263165AAD219AE1C2AFD47FED8
:1011C000414D22AFAA9B947CD488838C771D4D30EF
:1011D00064ACD0A3AE3D5060D05A5EB842F0F0058A
:1011E0005802D2ED63BFB873969667B6D23CDA6701
:1011F000F460E025E681D43E66F4F3CCE08304E6B7
:10120000EEFA675BC0B022E3C95D9207DFFE07FB21
:1012100000043FDF0A00000011241FBECFEFD1E21F
:10122000DEBFCDBF00E00CBF14BE0FB6F894A8958A
:1012300080916000886180936000109260000FBE12
:1012400012E0A0E0B2E0E4EAFEE700E00BBF02C07B
:1012500007900D92AA32B107D9F723E0AAE2B2E0D3
:1012600001C01D92A939B207E1F70E94D4200C9465
:10127000503F0C940000CF93DF93CDB7DEB76C974F
:101280000FB6F894DEBF0FBECDBF0E94C1206B0128
:101290007C019E01275F3F4F398B288B809126026E
:1012A000882309F4C7C60E94C120C61AD70AE80AD3
:1012B000F90AF89480912602882351F08FEF8093E9
:1012C000260278940000F894809126028111F9CFCB
:1012D00078940E94C120A7019601260F371F481F4E
:1012E000591F2E8B3F8B488F598F81E080932602A8
:1012F00080914F02882309F442C010924F028FEF71
:101300008983AE014F5F5F4F7A010BE316E068EB14
:101310007BE2C7010E94FF1A6C01892B81F1D60183
:1013200056968C9182FFF3CF0E94C120F894F6016B
:1013300037892689422F4B7F468B78949F938F93D2
:101340007F936F931F923F9321701F922F938981F8
:101350001F928F931F930F930E9444382DB73EB76F
:10136000245F3F4F0FB6F8943EBF0FBE2DBF68EB12
:101370007BE2C7010E94FF1A6C01892B81F68091E4
:101380005002882329F1109250028FEF8983AE0119
:101390004F5F5F4F7A0106E316E06AEC7BE2C7011C
:1013A0000E94FF1AFC01892B99F0958D868D981368
:1013B000F4CFF894858D968D891709F433C7789406
:1013C0006AEC7BE2C7010E94FF1AFC01892B69F7D6
:1013D00080914902882311F1109249028FEF89838D
:1013E000CE0101967C0107E216E066ED71E2C701CD
:1013F0000E94FF1A009791F0DC0158962C912F3F24
:10140000A1F7F894FC0126852111DDC5789466EDDD
:1014100071E2C7010E94FF1A009771F780914E0296
:10142000882309F43FC010924E028FEF8983AE01EA
:101430004F5F5F4F7A0102E216E065E67AE2C7018C
:101440000E94FF1A009771F1DC011E962C911E97E5
:1014500023FFF3CFF894FC012685277F2687789415
:101460009C01265E3F4F3F932F9350968C9186951B
:10147000869586951F928F9389811F928F931F93D4
:101480000F930E944438EDB7FEB738960FB6F89424
:10149000FEBF0FBEEDBF65E67AE2C7010E94FF1AEC
:1014A000009791F680915902882309F44AC010925E
:1014B00059028FEF89839E012F5F3F4F790108E129
:1014C00016E069EB74E3C7010E94FF1AFC01892B47
:1014D000C1F1848D80FFF5CFF89494812581368108
:1014E0004781548965897689A789B08DD18CC28C52
:1014F000B38C848D8E7F848F7894BF92CF92DF924D
:10150000BF93AF937F936F935F934F933F932F93CB
:101510009F9389811F928F931F930F930E9444384A
:101520004DB75EB7405F5F4F0FB6F8945EBF0FBE1A
:101530004DBF69EB74E3C7010E94FF1AFC01892BC0
:1015400041F680914D02882309F456C010924D0255
:101550008FEF8B87BE01655F7F4F1B013CE0932EB1
:1015600047E0842E66ED76E2C1010E94FF1A5C011D
:10157000892B09F441C0D50159968C91599780FF68
:10158000F1CFF894F5014480558066807780818D95
:101590008E7F818F789458968C91813009F478C32E
:1015A00008F456C3823009F413C38330D9F6CB84D0
:1015B00019821A829E012F5F3F4F42E061E0F501E0
:1015C000848995890E943B1609811A811027012779
:1015D0001027F02FF670EF2E20E030E0B301A201CB
:1015E000C5010E944E2766ED76E2C1010E94FF1AF6
:1015F0005C01892B09F0BFCF80915B02882301F148
:1016000010925B028FEF8B879E01255F3F4F190180
:1016100019E0B12E8E010F5F1F4F82EFC82EDD241F
:10162000DA9406C0D7011E968C911E9780FD5FC389
:1016300066E87AE3C1010E94FF1A7C01892B91F7C9
:1016400080915C02882309F463C010925C028FEFE2
:101650008B87FE013B961F019E012F5F3F4F690163
:1016600065E57AE3C1010E94FF1A7C01892B09F428
:101670004FC0D7011E968C9182FFF2CFF894F701EC
:101680004480558066807780B1881686118A789468
:1016900080859185A285B385481A590A6A0A7B0A12
:1016A00087010E5E1F4FD701BB2099F056968C9193
:1016B000F701E80FF11DBFEFB78B108E118E8D5F14
:1016C000F701868B823308F0CDC0BA94D701B110F0
:1016D000EDCF1F968C91882309F41BC2813009F449
:1016E0003DC4823009F44BC5F701868990E0C2976A
:1016F0000CF4B6CF6B85C70142960E94442565E580
:101700007AE3C1010E94FF1A7C01892B09F0B1CF55
:1017100080914A028823D9F010924A028FEF8F8776
:101720009E01215F3F4F790132E7932E44E7B42EAB
:1017300006C0D60152968C91529780FD4FC365E248
:1017400073E2C7010E94FF1A6C01892B91F7809107
:101750004B02882309F110924B028FEF8F879E0175
:10176000215F3F4F790107E0402EAE014F5F5F4F91
:101770004A018FEA582E98EA692E06C0D8011E96B3
:101780008C911E9780FD8CC366E073E2C7010E94B6
:10179000FF1A8C01892B91F780914C02882309F460
:1017A00067C010924C028FEF8983FE0131967F0152
:1017B00067EE72E2C7010E94FF1A6C01892B09F4DF
:1017C00057C0D6011E968C9180FFF2CF9980F89475
:1017D000F60186858E7F86877894C6010E946A25E9
:1017E0008834910529F7D6015396AC90B12CB4E119
:1017F000AB0EB11CAC0CBD1CD6011C96ED91FC913E
:101800001D971D86850122E0AE01435F5F4F61E0B9
:1018100080810E94561BD6011C96ED91FC911D976C
:1018200081E08E870E5F1F4F22E0AE01425F5F4F67
:1018300061E080810E94561BF60183898C5F838B57
:101840003601FAE46F0E711CD3011C9112FD16C50E
:1018500090E0C1970CF4ACCF692DC6010F960E94A1
:101860004425A6CF6B85C8010E944425BA942ECF8B
:10187000A89580917502882329F080E48093600008
:101880001092750210913603112309F46EC0009175
:101890002A0200FD12C0153008F467C0D09076020D
:1018A000BD2C8BEF8D0D8C3308F4EBC3EEE7BE1629
:1018B00009F4CFC5016000932A02412F50E06EE782
:1018C00070E086E792E00E94213F009739F00E7F9A
:1018D00000932A028657924011E0180F01FD0CC0B8
:1018E000902F926090932A028FEB95E09F938F93B5
:1018F0000E9444380F900F90D12ECC24CA9420E03F
:10190000ED2CF12C19C0822F90E0402F50E0481BA5
:10191000590BB701680F791F6A587D4F8A589D4F40
:101920000E94373F10922602202F8FB7F894909193
:101930003603191761F08FBF10913603012F0D196F
:1019400011F78FB7F894909136031913F4CF0093E1
:1019500036038FBFF1E0CF1208C08FEB95E09F9365
:101960008F930E9444380F900F900E94C1206B010A
:101970007C012E893F89488D598D621B730B840B26
:10198000950B8090330290903402A0903502B09075
:1019900036023FEF831A930AA30AB30A80923302F6
:1019A00090923402A0923502B092360240902F02FB
:1019B000509030026090310270903202460E571EF5
:1019C000681E791E40922F025092300260923102BE
:1019D000709232026115710541E08407910508F0AB
:1019E0002EC39B01AC010E947E3EDC01CB018150E5
:1019F0009F4FAF4FBF4F892F9A2FAB2FBB274091DF
:101A00002B0250912C0260912D0270912E02840FB6
:101A1000951FA61FB71F84179507A607B70718F4C9
:101A20008FEF9FEFDC0180932B0290932C02A09309
:101A30002D02B0932E0240915502509156026091B2
:101A40005702709158025C546B437B4F2F2DC41684
:101A5000D506E606270B27FD21CCBF93AF939F93B6
:101A60008F937F926F925F924F92BF92AF929F92AD
:101A70008F9283E696E09F938F930E9444386DB7D0
:101A80007EB7625F7F4F0FB6F8947EBF0FBE6DBF0B
:101A90008091550290915602A0915702B091580240
:101AA000C816D906EA06FB0698F480915102909177
:101AB0005202A0915302B09154020196A11DB11D92
:101AC0008093510290935202A0935302B093540218
:101AD000C0925502D0925602E0925702F0925802FC
:101AE00010922B0210922C0210922D0210922E02B4
:101AF00010922F0210923002109231021092320294
:101B00001092330210923402109235021092360273
:101B1000C5CB82E389831A820E94C1204B015C01FC
:101B2000960142E061E0F701848595850E943B16AD
:101B30000E94C120DC01CB0188199909AA09BB09BF
:101B400081329340A105B10508F02EC2998197FD1D
:101B500067C284189508A608B708D70150968C91DB
:101B60008823C1F02FEF280F41E050E002C0440F5E
:101B7000551F2A95E2F7052E000C660B770B840E95
:101B8000951EA61EB71E04C0B694A794979487947A
:101B90008A95D2F7BFEF8B169104A104B10408F027
:101BA000A2C22A8130E0220F331F892F90E0982FA4
:101BB0008827990F822B932BF7012689E20FF11DBD
:101BC000878A808F918F2D5FD70156962C938CCD6D
:101BD000CB8481E089831A821B821C829E012F5F45
:101BE0003F4F43E061E0848995890E943B166981FB
:101BF0007A818B819C810E94B03EBB27A92F982FB0
:101C0000872F9C01AD01442755272A8B3B8B4C8B9A
:101C10005D8B89821A829E012F5F3F4F42E061E017
:101C2000D50154968D919C9155970E943B168A81BF
:101C3000982F9C7F8A898170E92EE82A0A891B895E
:101C40002C893D89B301A201C5010E944E278ACC8F
:101C5000CB8419821A821B821C829E012F5F3F4F08
:101C600044E061E0F501848995890E943B16698111
:101C70007A818B819C810E94B03EF62FF770EF2E07
:101C80008B019C01B301A201C5010E944E276ACCC1
:101C90002B852A8B99821A821B821C829E012F5FC0
:101CA0003F4F44E061E0848995890E943B16698139
:101CB0007A818B819C810E94B03E6B017C01BFE0E8
:101CC000B9831A829E012F5F3F4F42E061E0F50128
:101CD000848995890E943B16970186013327CA881B
:101CE000EA80B301A201C5010E944E273BCCAB8420
:101CF000F8012B2D11922A95E9F7C982980149E044
:101D000061E01C968D919C911D970E943B16D70116
:101D100053968C9190E0FC017496EE0DFF1D3B8173
:101D2000232F207FE1F0203FD1F0D482D382D282D2
:101D3000D182F701E80FF91FD48AF70183898B5FFD
:101D4000838B803308F005C2D7011E968C911E97B5
:101D50008E7F1E968C93C7010E94DD2569CC2D8154
:101D6000422F407F09F0BBC15F81452F407F11F0BA
:101D7000403FD9F648854039C1F649854F77942EC2
:101D8000B0E2B41790F2D701A80FB91F4A81549658
:101D90004C938C8181838E818283852F90E03F716B
:101DA000AC01440F551F42955295507F5427407FF8
:101DB0005427342B3383880F991F880F991F8076FF
:101DC0002F71822B8483D70153968C9153978B5F0D
:101DD00053968C93803308F4C2C1BCC1AF84509633
:101DE0008D919C915197C09758F1B982D6011C965C
:101DF000ED91FC911D978601085E1F4F20E3AE0117
:101E00004F5F5F4F61E080810E94561B80E3F601C7
:101E1000878B80899189C097918B808B6A2DC601B1
:101E200043960E944425D60150968D919C915197DE
:101E3000C09770F11092260281E080934A027FCC15
:101E4000D6011C96ED91FC911D979B868E010F5F2C
:101E50001F4F22E0AE01455F5F4F61E080810E942D
:101E6000561B89818F7190E0982F88272A81822BB9
:101E7000F601268537852817390710F49787868756
:101E8000D60151969C938E935097C0970CF0ADCF8E
:101E9000F60182898E7F828BC6010E9429264FCC53
:101EA0002F84F401242D11922A95E9F75B861C8674
:101EB00069825396AC905397B12C650134E1C30EFF
:101EC000D11CC00ED11E940147E061E01C968D919B
:101ED0009C911D970E943B169E01255F3F4F42E05B
:101EE00061E0D8011C968D919C911D970E943B1634
:101EF0008C85B82FBF733B2E8074782EF801EA0DC5
:101F0000FB1D8A81848B8B81F60181838C81828386
:101F10008D8183838E8184838F818583D8015396BD
:101F20008C9153978A5F53968C938F3208F0A0C19F
:101F3000772031F0F801818992890196928B818B0B
:101F4000332009F48FC1D8011E968C911E978E7F85
:101F50001E968C93C8010E94DD2516CC8FE78983DD
:101F60008EEF8A830E94C1206A8B7B8B8C8B9D8B2A
:101F7000960142E060E0F701848595850E943B165A
:101F80000E94C1204B015C01DC01CB012A893B8905
:101F90004C895D89821B930BA40BB50B8132934056
:101FA000A105B10508F4ADC0D70156968C91F70193
:101FB000E80FF11DBFEFB78B92E0908F118E8D5F10
:101FC000F701868B91CB318D308F7894AC01415FD6
:101FD0005F4F5F934F931F922F93FC0187891F924E
:101FE0008F9389811F928F931F930F930E94443880
:101FF0002DB73EB7265F3F4F0FB6F8943EBF0FBEDA
:102000002DBFF3C928893989E217F30709F0FAC00F
:10201000809590E02A8530E08217930709F450C13B
:10202000D70156968C91F701E80FF11DBFEFB78BE2
:1020300093E0C3CFCE8ADF8AE88EF98E56C9611548
:10204000710550E18507910508F0EACC8B019C01F0
:1020500001501F4F2F4F3F4F5527432F322F212F16
:102060000E947E3EDC01CB0140912B0250912C025C
:1020700060912D0270912E02840F951FA61FB71F2D
:10208000CACCC09077028C2D807F803109F00ECCB5
:102090001D1508F46ACC8D2D90E0FC01EB58FD4F26
:1020A00020812E3709F002CCFC01ED58FD4F4F0185
:1020B000FC01EC58FD4F9081D4018C91292F30E028
:1020C0007901F82A6DEF6D0D86E792E00E94D72026
:1020D000E816F90609F4BFC1B0907602E7CB403F9D
:1020E00009F023CE41CEF7018689E80FF11D2FEFCD
:1020F000278B91E0908F118E8D5FD70156968C9330
:10210000F3CA80EC89831A82960142E061E0D7012C
:102110001C968D919C911D970E943B1649812A81A6
:10212000942F9227892F82958F709827892F8695D3
:1021300086958927982F9695892780FDD5C046FFDB
:1021400015C1F7018689E80FF11D2FEF278B35E0C8
:10215000C4C0912C6A2DC7010F960E944425BEE190
:10216000B91508F087C2F701818992890196928B8F
:10217000818B1092260281E080935B0259CAD701BD
:102180001C96ED91FC911D971481B281BA8B03814D
:1021900040E06B2F702F812F0E947A1C0E94C1207B
:1021A0004B015C01E0E18E0E911CA11CB11C0E9450
:1021B000C1202B2D86169706A806290B27FFF7CFDF
:1021C000F89441E06A89702F812F0E947A1C0E9446
:1021D000C1204B015C017894D601EAE01D92EA959A
:1021E000E9F7F4E8F98323E22A8396014AE061E003
:1021F000D7011C968D919C911D970E943B16FE0164
:10220000339685E09191892728E030E005C0880F5A
:102210002150310909F4F6CE87FFF9CF880FBDE1CF
:102220008B27F6CF54896589908921893289438922
:102230008F5F858F78946F935F934F933F932F9326
:102240009F9389811F928F931F930F930E9444380D
:102250006DB77EB7665F7F4F0FB6F8947EBF0FBE37
:102260006DBF9BC81092260281E080934B028CCAFE
:10227000622DC8010F960E9444255ACE0E94C120AB
:1022800011FD4AC0F50122813381322723273227ED
:10229000032E000C440B550BF601E45BFF4F20802E
:1022A000318042805380221633064406550608F4D6
:1022B00042C01D7FF3011083D60153968C91C8CA8A
:1022C000898584FF19C08B8187FD94C0F7018689B9
:1022D000E80FF11D2FEF278B34E0308F118E8D5FCB
:1022E000D70156968C9300CAF7018689E80FF11D35
:1022F0002FEF278B93E0FECED70156968C91F701F6
:10230000E80FF11DBFEFB78B25E0208F118E8D5F99
:10231000D70156968C93E8C9F601E05BFF4F208009
:10232000318042805380292F621573058405250969
:1023300027FFA8CFC1CFF601E05BFF4F6083718319
:102340008283938338970190F081E02D968990FFE6
:102350004FC0D601A55BBF4F6C91678B9A7F94608D
:10236000968BCF010E94C52C10E0A4CF841895084D
:10237000A608B708F70130893323C9F08FEF830F20
:1023800061E070E002C0660F771F8A95E2F7CB012B
:10239000092E000CAA0BBB0B880E991EAA1EBB1E91
:1023A00004C0B694A794979487943A95D2F77FEF98
:1023B00087169104A104B10408F041C0842F90E075
:1023C000AC01542F4427550F550FF4E02F9FC00147
:1023D0001124842B952BD70156962C91F701E20FEF
:1023E000F11D878A808F918F2D5FF701268B7CC925
:1023F00010E060CF84189508A608B708B1E58B16E1
:10240000B5E59B06A104B10408F06DCE2C8130E047
:10241000220F331F90E0982F8827990F822B932B40
:10242000F7013689E30FF11D2F8126952F73278B36
:10243000808F918F3D5FD70156963C9355C9D70148
:1024400056968C91F701E80FF11DBFEFB78B91E025
:10245000B4CD11E051CA802F8D7F80932A028091E4
:102460000902C81205C181E08C0D8F7080618093D4
:102470000902B8E78B16B2E09B0609F008F4C1C068
:10248000E8E7F2E01EEB212E15E0312EDC8ECDB612
:10249000DEB68F010F5F1F4F2081222309F4E5C0B4
:1024A000F1018491281708F0E0C030E0220F331FBB
:1024B000220F331F220F331FF901E15FFC4FE4911C
:1024C0004DB75EB764E0E69F4019510911240FB67D
:1024D000F8945EBF0FBE4DBF8DB79EB70196F90150
:1024E000EF5EFC4F4491F901EE5EFC4F65917491F3
:1024F000FB01640F711DAC01DB8ACA8A9B8F8A8F36
:10250000E617F70709F482C08016910608F46EC03A
:10251000A491A53028F1A73009F068C02801BFEFC9
:102520004B1A5B0AD801AC9082010A0D111D80166E
:10253000910608F45BC0B12CC12CD12CDA01AD920C
:10254000BD92CD92DC921397612C712C14964D9212
:102550005D926D927C921797485F5F4F3196D0CF16
:102560007A0184E0E80EF11C68019FEFC91AD90ACC
:10257000D8011C91912F9F77492E512C612C712CE1
:10258000012F00760036A9F117FF3EC086010F5FCC
:102590001F4FD80111978C91440C551C661C771C59
:1025A000440C551C661C771C440C551C661C771C7F
:1025B000440C551C661C771C440C551C661C771C6F
:1025C000440C551C661C771C440C551C661C771C5F
:1025D000982F9F77492A87FDDACFDA014D925D92D5
:1025E0006D927C921397A70131968ACF87E00E9463
:1025F0000D3EB0EE4B2A55245A94652C762CC4CF50
:10260000DC8CCC24C3947BC98601E7CFCA88DB88E5
:102610008A8D9B8D40912702442331F0F901E05FC0
:10262000FC4FE491E0FF11C02C5E3C4FF901259175
:102630003491F90119950FB6F894DEBE0FBECDBEE8
:1026400008151905E8F6F80122CF809128021F929B
:102650008F93E2E7F6E0FF93EF930E9444380FB6C2
:10266000F894DEBE0FBECDBEEBCF85E00E940D3EDE
:102670001D2D3AC9F1E0F91508F47BCD65CBCF9358
:10268000DF93EC016CE573E188810E94B12DFC01C0
:102690008C819D81AE81BF81892B8A2B8B2B51F43C
:1026A00020E0F89494A59D7F922B94A77894DF91D5
:1026B000CF91089522E0F5CF0F931F93CF93DF932F
:1026C0008C014DE250E06CE573E1FC0180810E94D9
:1026D000822DEC01F801848518160CF041C064E0ED
:1026E0006CA7F80184810E946F1F6A8F7B8F8C8F8B
:1026F00060E0F80180850E946F1F6D8F7E8F8F8F45
:1027000080E090E0A0E0B0EC88A399A3AAA3BBA3CB
:10271000F80180899189A289B3898E8B9F8BA88FBC
:10272000B98F6BE070E0CE0184960E94132E8E89E3
:102730009F89A88DB98D8997A105B10548F086E6D6
:1027400094E19B838A83DF91CF911F910F9108952C
:102750008CA580618CA7DF91CF911F910F91089577
:1027600060E0BECFCF93DF93EC016CE573E188812D
:102770000E94B12DFC018C819D81AE81BF81F894B6
:102780004685578560897189452B462B472B79F4FF
:1027900084839583A683B783828B938BA48BB58B1D
:1027A00084A5877F84A77894DF91CF91089586E1EF
:1027B0000E940D3E0F931F93CF93DF938C016CE526
:1027C00073E1DC018C910E94B12DEC010E942D2E51
:1027D000FC01D80114964D915D916D917C911797F4
:1027E000428353836483758318968D919C911997C6
:1027F00091878087892B09F466C0D8011C968D913A
:102800009C911D97978386831286F8948CA5282F18
:10281000217081FB992790F9291729F091E08927E8
:102820009285916092874E855F8568897989452B6D
:10283000462B472B59F583FD19C08CA711821082B6
:102840008CA19DA1892BA9F1AEA1BFA1ED93FC9311
:10285000FFA3EEA3CE010E947037CE010E94A83BD9
:102860007894DF91CF911F910F9108958091450247
:102870009091460291838083F0934602E093450253
:102880007894DF91CF911F910F9108958CA71182B9
:1028900010828CA19DA1892B89F0AEA1BFA1ED93DF
:1028A000FC93FFA3EEA37894DF91CF911F910F913A
:1028B0000895FFA3EEA3FDA3ECA3CCCFFFA3EEA34B
:1028C000FDA3ECA3CDCF87E10E940D3ECF92DF9216
:1028D000EF92FF920F931F93CF93DF93EC01EA8D5A
:1028E000FB8D8C8D80830E94C1200E891F89288DCD
:1028F000398D6B017C01C00ED11EE21EF31E8E8548
:102900009F85A889B9890197A109B1098E879F87F9
:10291000A88BB98B80FF0EC0CC82DD82EE82FF8255
:1029200081E0DF91CF911F910F91FF90EF90DF90A9
:10293000CF900895892B8A2B8B2B59F14885598587
:102940006A857B858A899B89AC89BD89840F951F9F
:10295000A61FB71F8A8B9B8BAC8BBD8B0C851D85EF
:10296000012E000C220B330B400F511F621F731FEF
:10297000488759876A877B872B2F8C159D05AE0565
:102980002F0927FDC9CF8C839D83AE83BF8381E050
:10299000C8CFCE010E947037811102C080E0C1CF44
:1029A0004C815D816E817F81972F4C155D056E0591
:1029B0009F0997FFB6CF4C195D096E097F09403812
:1029C000514C6F4F7F4F0CF0A7CF88E10E940D3E16
:1029D00046E050E06AE175E1FC0180810C94822DB3
:1029E000CF92DF92FF920F931F93CF93DF93EC016F
:1029F0006AE175E18C810E94B12D6C01F8840F2D84
:102A000010E0A8014D5F5F4F60EF74E188810E9484
:102A1000822DFC01D182C082F2826C857D85A80165
:102A20000396DF91CF911F910F91FF90DF90CF9090
:102A30000C942E3FFF920F931F93CF93DF938C0143
:102A400046E050E06AE175E1FC0180810E94822D40
:102A5000EC01F801F08461E0F11060E0F80184819C
:102A60000E946F1F6A837B838C838D81F11009C064
:102A700091E0892B8D83DF91CF911F910F91FF9072
:102A8000089599E0892B8D83DF91CF911F910F914C
:102A9000FF9008950F931F93CF93DF938C016AECFF
:102AA0007BE2FC0180810E94B12DEC010E94563B2B
:102AB000909100028A8D981303C08FEF80930002DB
:102AC000F80184819581A681B781888B998BAA8B27
:102AD000BB8B8C839D83AE83BF8380859185A285CC
:102AE000B3858C879D87AE87BF8784858E8F91E065
:102AF000980F9D8F408951896289738948875987CA
:102B00006A877B87248935893F8B2E8B208D318D79
:102B1000398F288F948D9C8F811105C0DF91CF91C3
:102B20001F910F910895CE01DF91CF911F910F91C9
:102B30000C94A83B8BE10E940D3E8F929F92AF9226
:102B4000BF92FF920F931F93CF93DF93EC016AE143
:102B500075E188810E94B12D8C01F88483E08F1586
:102B600008F484C0F8018581867009F07FC08C84E8
:102B70009D84AE84BF848C819D81AE81BF81892B71
:102B80008A2B8B2B09F074C0EEE8F6E0A591B49186
:102B900011968C9180FD04C060E088E00E946F1F58
:102BA00060E089E00E946F1F60E08AE00E946F1F72
:102BB00060E08BE00E94411C80E58CBD1DBC81144F
:102BC000F2E19F06FAE7AF06B10408F041C08114B4
:102BD00089E098068DE3A806B10418F5E0E88E16A2
:102BE000E4E89E06EEE1AE06B104C0F5F0E48F160F
:102BF000F2E49F06FFE0AF06B10468F580E28816B4
:102C000081EA980687E0A806B10458F590E0E0E96B
:102C10008E16E0ED9E06E3E0AE06B10428F583E0F3
:102C200002C090E080E0CF2DCC0FCC0FC065C82B48
:102C3000F801C0839183858184608583DF91CF9182
:102C40001F910F91FF90BF90AF909F908F9008952C
:102C500091E080E0E8CF90E081E0E5CF91E081E095
:102C6000E2CF91E082E0DFCF82E0DDCF0E949A15D3
:102C70008EE20E940D3E6F927F928F929F92AF9252
:102C8000BF92CF92DF92EF92FF920F931F93CF9359
:102C9000DF934C01E62E142F6901DC0115967C9020
:102CA0001597872D867009F451C071FC39C0F40165
:102CB000908181819CBD8DBDF72DF1706F2E70FCD0
:102CC000C8C0EE2009F49CC08FEF810F112351F092
:102CD000F60190819EBD0DB407FEFDCF9EB5919388
:102CE0008150B8F7662091F1072D06950695069557
:102CF000402F40954170D40112966D917D918C9139
:102D0000DF91CF911F910F91FF90EF90DF90CF90C7
:102D1000BF90AF909F908F907F906F900C947A1C93
:102D2000ED91FC91418542706681778180850E949A
:102D30007A1CB72DB1706B2E70FC17C0D401CD91E9
:102D4000DC91AA24AA94A10E111126C0DF91CF9183
:102D50001F910F91FF90EF90DF90CF90BF90AF90B9
:102D60009F908F907F906F900895072D0695069500
:102D70000695402F4170F4016281738184810E9425
:102D80007A1CD401CD91DC91AA24AA94A10E11231E
:102D900009F4AECF66246394B12C8FEFA81AB80A59
:102DA000AC0CBD1CD601FC9008E010E0898580FFCA
:102DB00035C0EE81FF81888580834F2D40786B81FF
:102DC0007C818D810E947A1CFF0CEE81FF818885B9
:102DD0008083110FE881F98190818A81892391E0B4
:102DE00009F490E0192B015009F7EE2011F0F601DB
:102DF0001083FFEFCF1ADF0AAC14BD0499F672CF2F
:102E0000F6019601210F311D2E173F0709F46ACFF5
:102E100081918EBD0DB407FEFDCFF6CF4F2D4078CA
:102E20006B817C818D810E947A1CFF0CEE81FF8179
:102E300088858083110FE881F98190818A818923B7
:102E400091E009F490E0192BEE81FF818885808361
:102E5000CACF73FA442740F9F401628173818481F7
:102E60000E947A1C662463942CCFCF93DF93EC01ED
:102E70006AE175E188810E94B12D288539854C81F0
:102E800060E0DF91CF910C943B16FF920F931F935C
:102E9000CF93DF93EC0118816AE175E1812F0E94E5
:102EA000B12D0C81F884C9852F2D3C2F402F61E076
:102EB0000E943B16CF93FF921F920F931F921F9376
:102EC00081E396E09F938F930E9444388DB79EB71D
:102ED00008960FB6F8949EBF0FBE8DBFDF91CF91BD
:102EE0001F910F91FF900895AF92BF92DF92EF92E2
:102EF000FF920F931F93CF93DF93FC01A485B585B9
:102F0000968547855089E18822893389F488A58888
:102F1000B6887789008D118DD28C808586279C9309
:102F200084FD20C085FD22C086FD24C087FD26C00B
:102F30009C93862F8295807F808768279C9364FD71
:102F40002AC065FD25C066FD1CC067FD1EC09C93A0
:102F5000DF91CF911F910F91FF90EF90DF90BF9085
:102F6000AF900895EA01E88285FFDECFE901F8829B
:102F700086FFDCCFE501788387FFDACFE801D882CE
:102F8000D7CFF501708367FFE2CFE801D882DFCFAA
:102F9000E901F882D8CFFA01E082D3CF5F926F9235
:102FA0007F928F929F92AF92BF92CF92DF92EF92D9
:102FB000FF920F931F93CF93DF938C01FC01C0808E
:102FC000D180E280F38084809580A680B7806624DB
:102FD0006A94660E662301F1EA01712CFFEF6F1A05
:102FE0007F0A640E751E59900E94C120DC01CB013E
:102FF0008C199D09AE09BF0988159905AA05BB055D
:1030000098F3652DC8010E9474170E94C1206B01BE
:103010007C01C615D70539F7F801C082D182E2825A
:10302000F382DF91CF911F910F91FF90EF90DF908E
:10303000CF90BF90AF909F908F907F906F905F9058
:103040000895EF92FF920F931F93CF93DF938C011C
:1030500061E272E3FC0180810E94B12D7C018FE06E
:1030600090E00E942138EC0188E893E19E878D87EB
:10307000F8018089880F8C8761E084810E94411C5F
:103080006E837F83888761E0F80184810E946F1FCF
:10309000688379838A8361E0F80180850E94411CFE
:1030A00069877A878B8761E0F80180850E946F1FAE
:1030B0006B837C838D83F701D283C183838181609D
:1030C0008383DF91CF911F910F91FF90EF9008952F
:1030D0000F931F93CF93DF93EC0160EA78E188812F
:1030E0000E94B12D8C01FC0161857285838541E0D0
:1030F0000E947A1C488559856C81C801DF91CF9167
:103100001F910F910C94CE170F931F93CF93DF93C2
:10311000EC0160EA78E188810E94B12D8C01FC010C
:1031200061857285838540E00E947A1C48855985B7
:103130006C81C801DF91CF911F910F910C94CE1734
:10314000CF92DF92EF92FF920F931F93CF93DF9373
:10315000EC014BE150E060EA78E188810E94822D29
:103160008C0160E08C810E946F1FF801618772877B
:10317000838760E088850E946F1FF80164877587E8
:10318000868760E08C850E946F1FF8016787708BCF
:10319000818B60E088890E946F1FF801628B738BBE
:1031A000848B60E08C890E946F1FF801658B768BA1
:1031B000878B60E0888D0E946F1FF801608F718F90
:1031C000828FF8940E94C1206B017C0160E0C801ED
:1031D0000E9474170E94C1207894DC01CB018C19E5
:1031E0009D09AE09BF09CC8CDD8CEE8CFF8C8C1553
:1031F0009D05AE05BF0548F4C81AD90AEA0AFB0ABC
:10320000F801C482D582E682F782DF91CF911F91C7
:103210000F91FF90EF90DF90CF900895DF92EF92A3
:10322000FF920F931F93CF93DF93EC01D88883E035
:103230008D15B0F16AE175E188810E94B12D7C01A4
:103240008AE090E00E9421388C0161E08C810E942C
:10325000411CF80160837183828360E088850E944D
:103260006F1FF80163837483858360E08C850E94FF
:103270006F1FF801668377838087D186F701858188
:10328000982F967081F4F701118300838260858303
:10329000DF91CF911F910F91FF90EF90DF900895F4
:1032A0008BE10E940D3E0E949A15CF92DF92EF9221
:1032B000FF92CF93DF93EC010E94C1206B017C0150
:1032C0009E01A0E8BEE30E94B73E20E432E44FE056
:1032D00050E00E948E3EC20ED31EE12CF12C0E94C3
:1032E000C1206C157D058E059F05C8F3DF91CF9138
:1032F000FF90EF90DF90CF9008950F931F93CF939F
:10330000DF93EC01062F18E01DC06B817C818D815D
:1033100040E00E94891C000F8D859E850E945519F2
:103320006E817F81888541E00E942B1C8D859E8562
:103330000E945519688179818A8140E00E94891C28
:10334000115049F007FFE1CF69857A858B8541E00F
:103350000E942B1CE0CF69857A858B8541E00E9415
:103360002B1C8D859E850E9455196E817F818885D5
:1033700041E00E942B1CE985FA8510818B8518237A
:103380008D859E850E945519688179818A8140E0EA
:103390000E94891C69857A858B8541E00E942B1CDF
:1033A000111105C0DF91CF911F910F91089585E212
:1033B0000E940D3E4F925F926F927F928F929F92EA
:1033C000AF92BF92CF92DF92EF92FF920F931F9333
:1033D000CF93DF938C01562E3A01FC0180809180BF
:1033E000A280B380C480D580E680F780EA01219670
:1033F000FA014080642D607F0E94AC350E94C1209C
:10340000DC01CB0188199909AA09BB098C159D0516
:10341000AE05BF0598F3642D6295607FC8010E94D8
:10342000AC350E94C1206B017C01F801808491843D
:10343000A284B384F1E05F1639F15A945A94852D31
:1034400090E00296680E791E5990652D607FC80144
:103450000E94AC350E94C120DC01CB018C199D0972
:10346000AE09BF0988159905AA05BB0598F3652D16
:103470006295607FC8010E94AC350E94C1206B013B
:103480007C01C615D70501F7F801C082D182E2821E
:10349000F382DF91CF911F910F91FF90EF90DF901A
:1034A000CF90BF90AF909F908F907F906F905F90E4
:1034B0004F9008950F931F93CF93DF938C018091CA
:1034C0003F0290914002892B09F04BC060913E026F
:1034D00070E0623071052CF482E080933E0262E07D
:1034E00070E0E0913A02F0913B024DB75EB7415077
:1034F0005F4F44275A959F01C0E0D0E0C901860F75
:10350000971F4817590730F121969C01C115A4E077
:10351000DA07A1F78E1B9F0B0E942138D09340023F
:10352000C0933F0290933D0280933C020E94C92DBC
:10353000F80180819181A281B381809341029093AF
:103540004202A0934302B0934402DF91CF911F91B6
:103550000F910895209711F0C901DCCF80E10E94FE
:103560000D3E8DE00E940D3ECF93209138023091A8
:103570003902232B91F4FC01C0818C2F90E0880F3D
:10358000991F880F991F0E942138909339028093C8
:103590003802C0933702CF9108958AE00E940D3E11
:1035A00080913F02909140029F938F9321E0309150
:1035B0002702311101C020E01F922F932091440275
:1035C0002F93209143022F93209142022F93209119
:1035D00041022F9321E0892B09F420E01F922F93C1
:1035E00084E596E09F938F930E9444388DB79EB7F1
:1035F0000C960FB6F8949EBF0FBE8DBF0895CF9363
:10360000DF93EC01988140913702A0913802B0918C
:1036100039020BC0FD0184E0989FE00DF11D1124DB
:10362000208131812617370741F09F5F941790F36F
:1036300080E090E0DF91CF9108959883828193811B
:10364000DF91CF910895CF92DF92EF92FF926B01BD
:103650007C0109C00E94C120292F6C157D058E05B3
:103660002F0927FF09C08091BC0087FFF3CFFF908F
:10367000EF90DF90CF90089580E30E940D3E24EA02
:103680002093BC000E94231B8091B90090E0A0E031
:10369000B0E080319105A105B10521F00897A105A1
:1036A000B10509F408958FE20E940D3E7F928F923A
:1036B0009F92AF92BF92CF92DF92EF92FF920F93C1
:1036C0001F93CF93DF93782EC62F942EB52E822E84
:1036D0000E94C1206B017C0120E8C20E28E3D21EAB
:1036E00021E0E21EF11CC701B6010E943F1B70924F
:1036F000BB0084E88093BC00C701B6010E94231B75
:10370000AA24AA94AC0ECC23B1F0C92DDB2DB12C88
:103710008FEFA81AB80AAC0EBD1E94E8992E8991B5
:103720008093BB009092BC00C701B6010E94231B8E
:10373000AC16BD06A1F7C701B6010E943F1B872D3D
:1037400081608093BB0084E88093BC00C701B60110
:103750000E94231BDFEFD80D882009F15801CD2FDF
:1037600084EC982ECC2369F09092BC00C701B6017E
:103770000E94231B8091BB00F50181935F01C15022
:1037800099F7F801ED0FF11DEF0184E88093BC007B
:10379000C701B6010E94231B8091BB00888384E986
:1037A0008093BC00DF91CF911F910F91FF90EF901C
:1037B000DF90CF90BF90AF909F908F907F900895B3
:1037C000BF92CF92DF92EF92FF920F931F93CF930E
:1037D000DF93D82FC62FB42E152F0E94C1206B0166
:1037E0007C0120E8C20E28E3D21E21E0E21EF11C7B
:1037F000C701B6010E943F1BD093BB0084E88093B1
:10380000BC00C701B6010E94231B0FEF0C0FCC2395
:10381000A9F0CB2DD12F10E00F5F1F4F0C0F1D1FF4
:1038200084E8B82E89918093BB00B092BC00C70198
:10383000B6010E94231BC017D107A1F784E980932A
:10384000BC00DF91CF911F910F91FF90EF90DF901F
:10385000CF90BF900895FB012FB7F8949281141672
:1038600044F4982B809592839181892381832FBF83
:1038700008958095982392839181892381832FBF16
:1038800008958036A0F567FD32C0E82FE695E695ED
:10389000E695F0E0EE0FFF1FE457F94FA591B491C4
:1038A000109729F1877021E030E0A90102C0440F90
:1038B000551F8A95E2F7CA014FB7F89412963C91CA
:1038C0001297662381F0382B282F209512963C936F
:1038D000129711963C911197232311962C931197CF
:1038E0004FBFBD010895282F20953223EFCF8BE2E3
:1038F0000E940D3EFB012FB7F8949281411105C043
:103900008095892382832FBF0895892B82832FBFBF
:103910000895FB012FB7F8949281411109C0382F07
:103920003095932392839181892B81832FBF0895B2
:10393000982B92839181892B81832FBF0895CF92F9
:10394000DF92EF92CF93DF93EC0161E08885998558
:10395000AA85BB85892B8A2B8B2B09F460E08C818F
:103960000E946F1F6B01E82E44E250E06FE97CE19A
:1039700088810E94822DFC01C48AD58AE68A21E0D2
:10398000488559856A857B85452B462B472B09F44D
:1039900020E04C855D856E857F85452B462B472B2A
:1039A000B1F430E0232BFC0123A3488959896A89AB
:1039B0007B89478B508F618F728F6AE070E04F96E2
:1039C000DF91CF91EF90DF90CF900C94132E30E1E8
:1039D000E9CFCF93DF93EC016FE97CE188810E940E
:1039E000B12DF894FC01278D30A1232B69F44C8173
:1039F0005D816E817F81FC01438F548F658F768F4F
:103A00007894DF91CF91089584E10E940D3E8F92CA
:103A10009F92AF92BF92CF92DF92EF92FF921F934D
:103A2000CF93DF93EC01EF8CF8A0E114F10409F4DB
:103A3000F0C0F7018081918198A38F8F8680978055
:103A4000A084B18411E081149104A104B10409F4AB
:103A5000A1C06C897D898E89412F0E947A1C80913A
:103A6000450290914602F70191838083F0924602CD
:103A7000E092450281149104A104B104E9F08B8D18
:103A80009C8DAD8DBE8D88169906AA06BB06A0F446
:103A90004F89588D698D7A8D4115510561057105E4
:103AA00009F45BC08C819D81AE81BF81480F591F95
:103AB0006A1F7B1F166022C08BA131E08114910424
:103AC000A104B10409F068C084FB992790F921E0B2
:103AD0009227391709F443C04F89588D698D7A8D23
:103AE0004115510561057105D1F18C819D81AE8132
:103AF000BF81480F591F6A1F7B1F1460EF8DF8A10B
:103B0000309709F077C02BA1488B598B6A8B7B8B40
:103B10002071212B2BA311FF5FC0880D991DAA1DB9
:103B2000BB1D12FD52C023E433E33B832A838C8305
:103B30009D83AE83BF8388869986AA86BB868B8D3C
:103B40009C8DAD8DBE8D88199909AA09BB098C87FA
:103B50009D87AE87BF8781E011C012608BA1EF8D7A
:103B6000F8A13097D9F4188A198A1A8A1B8A8071A9
:103B7000812B8BA3812F827011FD34C0DF91CF91F7
:103B80001F91FF90EF90DF90CF90BF90AF909F90EC
:103B90008F90089510E05DCF30E096CF4281538141
:103BA00064817581488B598B6A8B7B8B8071912FD7
:103BB0009460892B8BA311FF0FC08C819D81AE81F6
:103BC000BF81880D991DAA1DBB1D2B2F841795073A
:103BD000A607270B27FDA7CF4C835D836E837F83CA
:103BE00081E0CCCF40E050E0BA018C819D81AE8174
:103BF000BF8193CFC280D380E480F580872F4C159E
:103C00005D056E058F0987FD07C08BA1B701A60171
:103C1000C9CF85E10E940D3E83E10E940D3E8EE1F9
:103C20000E940D3E0F931F93CF93DF93FC01A18958
:103C3000B2898D919C911197928B818B16968D9163
:103C40009C911797C085D185228521113FC02FB740
:103C5000F894AC015527598348832FBF2091450222
:103C60003091460211963C932E93B0934602A09356
:103C70004502A189B289109759F5278530898217A5
:103C8000930741F083859485A585B6850097A105A6
:103C9000B10531F480E0DF91CF911F910F9108952C
:103CA0004481558166817781840F951FA61FB71FB8
:103CB00084839583A683B7838FE09EE19383828379
:103CC00081E0DF91CF911F910F9108958883C6CF36
:103CD00012964D915D916D917C9115972785308954
:103CE0008217930741F083859485A585B685009753
:103CF000A105B10551F4448355836683778381E040
:103D0000DF91CF911F910F91089504811581268134
:103D10003781800F911FA21FB31F2B2F8417950788
:103D2000A607270B27FFE7CF8DE10E940D3EEF92FC
:103D3000FF920F931F93CF93DF937C0161E17FE1AB
:103D4000DC018C910E94B12D8C010E942D2EEC0182
:103D5000F70184819581A681B7818A839B83AC8397
:103D6000BD83808591859F838E83F8941982188204
:103D7000D80151968D919C915297892BB9F1539608
:103D8000ED91FC915497D183C0835496DC93CE93EC
:103D9000539780E090E07894892B39F4DF91CF91AC
:103DA0001F910F91FF90EF900895C8010E94563B1C
:103DB000D80112968D919C9113978F509E41F1F0EE
:103DC0008A819B81AC81BD8122E13EE1F801338390
:103DD000228384839583A683B783C801DF91CF9123
:103DE0001F910F91FF90EF900C94A83BF801D48B9A
:103DF000C38BD28BC18B81E090E0CDCF8A819B8138
:103E0000AC81BD81F8014481558166817781272F7E
:103E1000481759076A072B0B27FFD6CF8DE10E9461
:103E20000D3ECF92DF92EF92CF93DF93EC01488566
:103E300059856A857B852C858C810E94412E6B017A
:103E4000E82E45E150E061E17FE188810E94822D0A
:103E5000FC01C086D186E28688899989908B878704
:103E60008C899D89AE89BF8983879487A587B6870A
:103E700082E19EE19383828368E070E0CF01419606
:103E8000DF91CF91EF90DF90CF900C94132EB099EB
:103E90000FC080914702909148020196109206024D
:103EA00010920502909308028093070281E0089522
:103EB00081E086BB809147029091480201969093E1
:103EC00048028093470220E030E8309306022093B6
:103ED0000502909308028093070281E008958036DE
:103EE00078F5E82FE695E695E695F0E0EE0FFF1FF2
:103EF000E457F94FA591B491109711F1877021E023
:103F000030E0A90102C0440F551F8A95E2F7CA01AB
:103F10003FB7F89412962C91129761110FC04095FB
:103F2000242312962C93129711962C911197282BDB
:103F300011962C9311973FBFBD010895242BF1CF0B
:103F40008CE20E940D3E1F920F920FB60F92112429
:103F50000BB60F92EF92FF920F931F932F933F9305
:103F60004F935F936F937F938F939F93AF93BF9381
:103F7000CF93DF93EF93FF930DC07A01809184007C
:103F8000909185008E199F0997FD7CC07894B29915
:103F90009AC0F894C0912202D0912302EA81FB8159
:103FA000309709F0ADC0EA8DFB8D2C8D20838E8576
:103FB0009F85019709F4C1C09F878E878885998561
:103FC000AA85BB854C815D816E817F81480F591F19
:103FD0006A1F7B1F4C835D836E837F8320832CA5A8
:103FE00025FF0EC00C851D85012E000C220B330B06
:103FF000800F911FA21FB31F88879987AA87BB874D
:10400000E881F9810481158126813781872F401746
:1040100051076207830B87FDB0CF7801F09323022D
:10402000E0932202A0912402B091250214960D91F2
:104030001D912D913C911797872F401751076207CB
:10404000830B87FFFD01DF010190F081E02D0481EA
:10405000158126813781872F401751076207830B0F
:1040600087FFF1CFF983E883CD93DC93D0932502CA
:10407000C093240280918400909185008E199F093D
:1040800097FF84CF863A9F4F0CF06AC0F092890068
:10409000E0928800FF91EF91DF91CF91BF91AF91B6
:1040A0009F918F917F916F915F914F913F912F9150
:1040B0001F910F91FF90EF900F900BBE0F900FBECE
:1040C0000F901F901895F89480918400909185002E
:1040D0009701281B390B2038314CDCF12091260246
:1040E00027FF43C09C01205C304E30938B0020930F
:1040F0008A0024E026BB90938900809388003ECFFD
:10410000CE0119954C815D816E817F81811178CFBF
:10411000E881F981E480F580F0932302E0932202A4
:104120008091240290912502C817D90709F026CF63
:10413000F0932502E093240221CFCE010E94703734
:10414000EA8DFB8D9C8D90834C815D816E817F819A
:10415000DDCF209127022111C1CF8AE20E940D3EBE
:104160007894B299B0CFF89409CF9C012854344F79
:1041700030938B0020938A0024E026BB7C01F394CB
:1041800085CF2FB7F894609184007091850080915D
:10419000470290914802B09902C02FBF08952FBFE7
:1041A0007F3FE1F30196089578940E94263C2FEF1B
:1041B000260F6623C1F0FC018FEF9FEF319183271B
:1041C000082E8295807F8025092E982F82958F70EA
:1041D0000826869598278927880F880F880F8025BD
:1041E000215060F708958FEF9FEF08956F927F92AF
:1041F0008F929F92AF92BF92CF92DF92EF92FF92F7
:104200000F931F93FC0183818F9382818F9384810D
:1042100035014601680E711C811C911CD401C3013B
:10422000BF93AF939F936F9281818F9380818F9380
:104230001F930F93FF92EF925F934F933F932F93B0
:104240001F926F9384E096E09F938F930E9444386F
:104250008DB79EB744960FB6F8949EBF0FBE8DBF24
:104260001F910F91FF90EF90DF90CF90BF90AF9094
:104270009F908F907F906F900895CF93DF93EC0184
:104280006A8D662309F453C0FC0150E031E020E060
:10429000A38DB48D4C91958D942309F0532B2F5FF2
:1042A000330F33962613F4CF2C85922F952729F0C0
:1042B0008D85852780959823D9F4888D5D8787FD26
:1042C00003C0815070F1888F4C815D816E817F8148
:1042D00088859985AA85BB85840F951FA61FB71F62
:1042E0008C839D83AE83BF8381E0DF91CF9108955E
:1042F000982F909529238523822B8C879E85983033
:10430000E0F621E0290F2E87FE01E90FF11D8787D6
:104310001092260281E0809349028FEF888F5D879B
:10432000D3CF1092260291E090934902CCCF50E077
:10433000BBCF0F931F93CF93DF938C0166ED71E298
:10434000FC0180810E94B12DEC010E94563BF801D6
:1043500084819581A681B7818C839D83AE83BF8341
:104360004085518562857385488759876A877B8731
:1043700080898D878C871E861F8A8EEF888F848523
:10438000898F87FD10C0452B462B472B29F4DF91E1
:10439000CF911F910F910895CE01DF91CF911F9181
:1043A0000F910C94A83B8FE10E940D3ECF93FC012E
:1043B000C481C930B8F44C2F50E09A01220F331F4A
:1043C000420F531F455E5F4F66ED71E2FC01808135
:1043D0000E94822DFC01C28F2DE331E233832283C0
:1043E000CF91089581E20E940D3E0F931F93CF93CA
:1043F000DF938C0166ED71E2DC018C910E94B12D9E
:10440000FC01D80114969C91828D9817B8F4292F3D
:1044100030E0E901CC0FDD1F2C0F3D1FEF01C20F73
:10442000D31FF801648580850E94411C6B8F7C8FAF
:104430008D8FDF91CF911F910F91089580E20E949F
:104440000D3EFC0144815581668177812085808104
:104450000C94412EFC01868580FF06C0218932899B
:104460002F5F3F4F328B218B81608687109226020F
:1044700081E080934C0244815581668177818085FB
:104480009185A285B385840F951FA61FB71F8483CE
:104490009583A683B78381E00895FC01968591609A
:1044A00096871092260281E080934B0280E0089567
:1044B000FC0192899160928B1092260281E0809398
:1044C0004A0280E008950F931F93CF93DF93FC017E
:1044D000C081D1811281038167EE72E28C2F0E942C
:1044E000B12DFC01E05BFF4F23812F9322812F939D
:1044F00021812F9320812F933697808182FB8827FB
:1045000080F91F928F930F931F93DF93CF9389E0CE
:1045100096E09F938F930E9444388DB79EB70C9678
:104520000FB6F8949EBF0FBE8DBFDF91CF911F9144
:104530000F9108950F931F93CF93DF938C0167EE34
:1045400072E2DC018C910E94B12DEC01F8018085B2
:104550009185A285B385FE01E45BFF4F8083918343
:10456000A283B383892B8A2B8B2B59F43497118226
:104570001082C65BDF4F1882DF91CF911F910F91A0
:104580000895F80184819581A681B781FE01E05BE1
:10459000FF4F80839183A283B38368EB7BE2D801D2
:1045A0001C968C910E94B12DFE01E85BFF4F918318
:1045B00080833396D80150968C918083C65BDF4F01
:1045C00086E08883DF91CF911F910F9108950F931B
:1045D0001F93CF93DF938C0144E550E067EE72E2C6
:1045E000FC0180810E94822DEC018AE292E29B8391
:1045F0008A8361E272E3F80184810E94B12D9D8774
:104600008C87DF91CF911F910F9108950F931F9386
:10461000CF93DF938C0148E450E066E073E2FC0145
:1046200080810E94822DEC018DE492E29B838A833B
:104630006AE175E1F80184810E94B12D9D878C8724
:10464000DF91CF911F910F9108950F931F93CF93F7
:10465000DF938C014CE450E065E273E2FC01808161
:104660000E94822DEC0188E592E29B838A8361E2BD
:1046700072E3F80184810E94B12D9D878C87DF91C0
:10468000CF911F910F9108950F931F93CF93DF93B5
:104690008C0167EE72E2FC0180810E94B12DEC0179
:1046A0000E94563B1E86F80184819581A681B781C0
:1046B0000097A105B105F1F088879987AA87BB8784
:1046C000188A1F861A8A198A1B8AF8940E94C120A8
:1046D000088519852A853B85DC01CB01800F911F58
:1046E000A21FB31F8C839D83AE83BF83CE010E9424
:1046F000A83B7894DF91CF911F910F9108950F936C
:104700001F93CF93DF938C0165E57AE3FC018081F1
:104710000E94B12DEC010E94563B1E86F801808557
:104720009185A285B385892B8A2B8B2B29F4DF9168
:10473000CF911F910F91089584819581A681B781B2
:104740008C839D83AE83BF8380859185A285B3854D
:1047500088879987AA87BB871B8A1A8A1D8A1C8A21
:104760001E8A8485888BCE01DF91CF911F910F9196
:104770000C94A83B2F923F924F925F926F927F9240
:104780008F929F92AF92BF92CF92DF92EF92FF9261
:104790000F931F93CF93DF9300D01F921F92CDB73B
:1047A000DEB73C0165E273E2DC018C910E94B12D21
:1047B0004C018AE38B83D4011C96ED91FC911D97EB
:1047C0008E010C5F1F4F21E0AE014D5F5F4F61E036
:1047D00080810E94561B8C8184FF06C0F40185896C
:1047E00096890196968B858B82E78D830E94C120E6
:1047F0001B012C01D4011C96ED91FC911D978E019B
:104800000F5F1F4F22E0AE014B5F5F4F61E0808181
:104810000E94561B0E94C12029812F71A22EB12C0B
:10482000BA2CAA242A81A22A0B2C000CCC08DD0861
:104830007B018C01E218F30804091509A20191011A
:10484000F3016081C40143960E94F6200F900F90FF
:104850000F900F900F90DF91CF911F910F91FF90CC
:10486000EF90DF90CF90BF90AF909F908F907F9010
:104870006F905F904F903F902F9008952F923F92AE
:104880004F925F926F927F928F929F92AF92BF9260
:10489000CF92DF92EF92FF920F931F93CF93DF930C
:1048A0001F921F92CDB7DEB73C0166E073E2FC01B8
:1048B00080810E94B12D4C018FEA89831A820E9467
:1048C000C1201B012C019E012F5F3F4F42E061E0A0
:1048D000F401848595850E943B160E94C1202A819F
:1048E0002F71F6E02F9F500111240B2C000CCC08E7
:1048F000DD087B018C01E218F30804091509A20107
:104900009101F3016081C4010F960E94F6200F907F
:104910000F90DF91CF911F910F91FF90EF90DF905B
:10492000CF90BF90AF909F908F907F906F905F904F
:104930004F903F902F9008957F928F929F92AF92C9
:10494000BF92CF92DF92EF92FF920F931F93CF937C
:10495000DF937C01DC01DC9165E57AE38D2F0E9419
:10496000B12D8C01F701C481B084A184DC011F96B4
:104970009C90B2E09B1609F44FC00E94C1206B01CD
:104980007C012B2D3A2D4C2F61E0D8011C968D9186
:104990009C911D970E943B160E94C1208B019C0197
:1049A0000C191D092E093F0901321340210531055B
:1049B00058F54C2F50E0E1E09E1659F1AF92BF92AE
:1049C0005F934F93FF92EF92DF92CF921F92DF930C
:1049D0008EE096E09F938F930E9444388DB79EB7E8
:1049E0000C960FB6F8949EBF0FBE8DBFDF91CF918E
:1049F0001F910F91FF90EF90DF90CF90BF90AF90FD
:104A00009F908F907F90089540E050E0E1E09E12EB
:104A1000D5CF6B017C01D2CFDC011C96ED91FC91CE
:104A20001D9794808280738040E0682D772D892DBA
:104A30000E947A1C0E94C1206B017C01B0E1CB0E68
:104A4000D11CE11CF11C0E94C1202F2DC616D706D7
:104A5000E806290B27FFF7CFF89441E0682D772D62
:104A6000892D0E947A1C0E94C1206B017C017894E0
:104A70002B2D3A2D4C2F61E0F801848595850E94FD
:104A80003B164C2F50E09ACFCF93DF93EC01059665
:104A90009F938F938C811F928F9389818F938881AD
:104AA0008F931F926F938FEF95E09F938F930E9448
:104AB00044381C82888199810196998388838DB7B7
:104AC0009EB70A960FB6F8949EBF0FBE8DBFDF91BA
:104AD000CF9108950F931F93CF93DF9300D0CDB75D
:104AE000DEB7DC011C96ED91FC911D9788E18B836C
:104AF0008E010F5F1F4F22E0AE014D5F5F4F61E0FF
:104B000080810E94561B89819A819827892798273E
:104B10000F900F900F90DF91CF911F910F910895FB
:104B20004F925F926F927F928F929F92AF92BF92BD
:104B3000CF92DF92EF92FF920F931F93CF93DF9369
:104B40004C0167EE72E2FC0180810E94B12DEC0104
:104B50000E94C1202B013C01CE010E946A258C01DC
:104B60000E94C1200834110511F1A12CB12C65015E
:104B70007B018C01E418F50806091709A3019201CD
:104B8000F4016081CE010F960E94F620DF91CF9153
:104B90001F910F91FF90EF90DF90CF90BF90AF905B
:104BA0009F908F907F906F905F904F90089524E03A
:104BB000A22EB12CC12CD12CDBCF0F931F93CF93FE
:104BC000DF93EC01F8940E94C120088519852A859D
:104BD0003B85DC01CB01800F911FA21FB31F8C838B
:104BE0009D83AE83BF83CE010E94A83B7894DF9162
:104BF000CF911F910F9108950F931F93CF93DF9340
:104C00008C0166E073E2FC0180810E94B12DEC0111
:104C10000E94563B1E86F80184819581A681B7814A
:104C20000097A105B10529F4DF91CF911F910F9154
:104C3000089588879987AA87BB87188A1F861A8A4A
:104C4000198A1B8ACE01DF91CF911F910F910C948D
:104C5000DD250F931F93CF93DF93EC01F8940E940F
:104C6000C120088519852A853B85DC01CB01800F91
:104C7000911FA21FB31F8C839D83AE83BF83CE0180
:104C80000E94A83B7894DF91CF911F910F910895D6
:104C90000F931F93CF93DF938C0165E273E2FC01C6
:104CA00080810E94B12DEC010E94563B1A8AF801C6
:104CB00084819581A681B7810097A105B10529F46A
:104CC000DF91CF911F910F91089588879987AA87C7
:104CD000BB871C8A1B8A1E8A1D8A1F8A1F861E8606
:104CE000198A188ACE01DF91CF911F910F910C94F0
:104CF0002926FC011092260281E080934D02818DCD
:104D00008160818F4481558166817781808591851D
:104D1000A285B385840F951FA61FB71F8483958333
:104D2000A683B78381E008950F931F93CF93DF93FA
:104D30008C0166ED76E2FC0180810E94B12DEC01D0
:104D40000E94563BF80184819581A681B7818C83AE
:104D50009D83AE83BF8380859185A285B385888737
:104D60009987AA87BB87892B8A2B8B2B29F4DF9104
:104D7000CF911F910F91089584859585A685B7855C
:104D80008C879D87AE87BF8780899189A289B389E7
:104D9000888B998BAA8BBB8B84898E8B1F8ACE01C3
:104DA000DF91CF911F910F910C94A83BFF920F932D
:104DB0001F93CF93DF93EC01F88483E08F15E0F02D
:104DC0004AE150E066ED76E288810E94822D8C01F6
:104DD00089E796E2F801938382836AE175E18C8129
:104DE0000E94B12DF801958B848BF08EDF91CF91CD
:104DF0001F910F91FF90089587E20E940D3ECF937F
:104E0000DF93EC016B817C818D8140E00E94891CE5
:104E10008D859E850E9455196E817F81888541E030
:104E20000E942B1C8D859E850E94551969857A8567
:104E30008B8541E0DF91CF910C942B1C1F93CF9376
:104E4000DF93EC01162F8D859E850E94551969858B
:104E50007A858B8541E00E942B1C6E817F8188853D
:104E600041E00E942B1C8D859E850E9455196B8107
:104E70007C818D8140E00E94891C8D859E850E94E9
:104E80005519688179818A8140E00E94891C612FCF
:104E9000CE01DF91CF911F910C947D198F929F923B
:104EA000AF92BF92CF92EF920F931F93CF93DF9366
:104EB000EC01480159011F92EF92BF92AF929F926D
:104EC0000F937F936F935F934F931F92CF9283E1E2
:104ED00096E09F938F930E9444388DB79EB70E96AD
:104EE0000FB6F8949EBF0FBE8DBFE11009C08C8530
:104EF0009D85AE85BF8588169906AA06BB0688F4EF
:104F00008F898F5F8F8B9E898917B0F4DF91CF9146
:104F10001F910F91EF90CF90BF90AF909F908F9087
:104F2000089588899989AA89BB8988159905AA0550
:104F3000BB0530F31F8AEACF809127028111FACF97
:104F400086E20E940D3E9F92AF92BF92CF92DF9277
:104F5000EF92FF920F931F93CF93DF93EC01C62E36
:104F6000942ED52EB22E78016C85862F8160A82EC6
:104F7000C11085C06A2DCE010E941E278FEF8B0DB8
:104F8000BB2009F46EC06701C80ED11C69857A8503
:104F90008B8541E00E942B1C08E010E08D859E85EA
:104FA0000E9455196E817F81888541E00E942B1CEB
:104FB0008D859E850E945519110FE985FA8590818E
:104FC0008B85892391E009F490E0192B6881798120
:104FD0008A8140E00E94891C015001F769857A8529
:104FE0008B8541E00E942B1CCE14DF04F1F06B8115
:104FF0007C818D8140E00E94891C8D859E850E9468
:1050000055196E817F81888541E00E942B1C8D851A
:105010009E850E945519688179818A8140E00E94AD
:10502000891CF70111937F01B1CF69857A858B8542
:1050300041E00E942B1C8D859E850E9455196E8132
:105040007F81888541E00E942B1C8D859E850E9472
:105050005519688179818A8140E00E94891CF60196
:105060001083CE01DF91CF911F910F91FF90EF90B0
:10507000DF90CF90BF90AF909F900C94FF26CE0111
:105080000E941E27092D1D2DCA94D12CEFEFCE1A98
:10509000DE0AC00ED11EF80161918F01CE010E947F
:1050A0007D19C016D106B9F765CFDF92EF92FF9256
:1050B0000F931F93CF93DF937C01C62FD42E152F10
:1050C000FC0164850E941E270FEF0C0FCC2371F0AA
:1050D000CD2DD12F10E00F5F1F4F0C0F1D1F6991B9
:1050E000C7010E947D19C017D107C9F7C701DF9119
:1050F000CF911F910F91FF90EF90DF900C94FF26BE
:10510000CF92DF92EF92FF92CF93DF93FC01A085C5
:10511000B18582858C93968581E089278687C82F03
:10512000C170C688D788E08CF18C97859F5FD18944
:105130009D1708F05FC0892F869586958695DF01BB
:10514000A80FB11D5A962C9130E0892F877002C0AC
:10515000359527958A95E2F72170B701A601C21708
:10516000A9F033C0892F869586958695DF01A80F13
:10517000B11D5A962C9130E0892F877002C0359569
:1051800027958A95E2F72170C2131FC04C0D5D1D53
:105190006E1D7F1D9F5F9D1728F385E79BE293831C
:1051A000828384819581A681B781480F591F6A1F28
:1051B0007B1F448355836683778381E0DF91CF91A2
:1051C000FF90EF90DF90CF9008959787848195812D
:1051D000A681B781480F591F6A1F7B1F44835583DF
:1051E0006683778381E0DF91CF91FF90EF90DF902E
:1051F000CF900895B701A601D0CF6F927F928F9282
:10520000CF92DF92EF92FF92CF93DF93EC0160E0B9
:105210008C810E946F1F3B01882EC884D984EA8448
:10522000FB84D7FC24C0A601415F5F4F6DEF78E29D
:1052300088810E94822DFC01608271828282D686E2
:10524000C5868C859D859483838388899989AA895D
:10525000BB8981879287A387B487DF91CF91FF9025
:10526000EF90DF90CF908F907F906F90089584E2C1
:105270000E940D3ECF92DF92EF92FF920F931F9309
:10528000CF93DF93EC01E885F9858A8580830E94BE
:10529000C1203E8521E023272E872F852F5F2F8772
:1052A000213009F45CC02530E0F40C811D812E8191
:1052B0003F814A895B896C897D89DB01CA01800F46
:1052C000911FA21FB31F8C839D83AE83BF8381E098
:1052D000DF91CF911F910F91FF90EF90DF90CF90D2
:1052E0000895CC80DD80EE80FF80AB01BC014C19BD
:1052F0005D096E097F098E899F89A88DB98D481B2C
:10530000590B6A0B7B0BDB01CA010296A11DB11D73
:10531000B7FD34C0B595A79597958795B595A79591
:10532000979587950A891B892C893D89800F911F44
:10533000A21FB31F8E8B9F8BA88FB98F20E838E2F6
:105340003B832A834C0D5D1D6E1D7F1D840F951FB1
:10535000A61FB71F8C839D83AE83BF83B8CF0C81FC
:105360001D812E813F81AB01BC01401B510B620BA3
:10537000730B4E8B5F8B688F798F9BCFDB01CA01DC
:105380000596A11DB11DC6CFEF92FF920F931F93FB
:10539000CF93DF937C0165E67AE2FC0180810E9475
:1053A000B12DEC011E8511FF07C0DF91CF911F9138
:1053B0000F91FF90EF900895F7010481608571854A
:1053C000F4840B3008F045C0FAE0FF1508F441C042
:1053D000402F50E04A960E942E3F1F8611731260A4
:1053E0001E87802F880F880F880F898BFF0CFF0C7A
:1053F000FF0CF88A002349F08A8D8F738A3229F4D2
:105400008AE399E29B838A830CC08A899B89AC8951
:10541000BD898E8B9F8BA88FB98F80E898E29B8384
:105420008A83F8940E94C120DC01CB018058934FFD
:10543000AF4FBF4F8C839D83AE83BF83CE010E944D
:10544000A83B7894DF91CF911F910F91FF90EF903F
:10545000089582E20E940D3E0F931F93CF93DF9336
:105460008C0166ED71E2DC018C910E94B12DEC01A2
:10547000D8011496EC918F898E0F8F8BF8948E85BE
:10548000E817D0F48E1BF0E03F96EC0FFD1FDE0115
:105490001F962FEF280F30E0205F3F4F2C0F3D1F4E
:1054A00091919D93A217B307D9F78E877894DF91D6
:1054B000CF911F910F9108951E868EEF888F78945B
:1054C000DF91CF911F910F9108957F928F929F92BC
:1054D000AF92BF92CF92DF92EF92FF920F931F9302
:1054E000CF93DF93EC0144E250E065E67AE28881F5
:1054F0000E94822D8C0178848C809D80AE80BF803C
:10550000CC84DD84EE84FF8461E0711001C060E032
:10551000882D0E94411CF80163877487858761E0AC
:105520008C2D0E946F1FF8016087718782878889A0
:105530009989AA89BB89828B938BA48BB58B7110B7
:1055400018C091E08C149D04AE04BF04C1F080E04B
:10555000892BF8018687DF91CF911F910F91FF90E2
:10556000EF90DF90CF90BF90AF909F908F907F9003
:10557000089591E18C149D04AE04BF0441F780E2CC
:10558000E7CFCF93DF93EC018E8585FD0DC0688555
:1055900079858A8541E00E947A1C8E8580738160BE
:1055A0008E87DF91CF910895688579858A8541E05E
:1055B0000E94891C8E85807381608E87DF91CF91D8
:1055C0000895CF93DF93FC01A385B4855C91878513
:1055D000982F977021E030E001C0220F9A95EAF7EA
:1055E000982F969596959695DF01A90FB11D5A961D
:1055F0009C915A9745854523E1F0292B5A962C9387
:105600008F5F90898917E8F4878744815581668187
:10561000778186899789A08DB18D840F951FA61FEC
:10562000B71F84839583A683B78381E0DF91CF91F1
:105630000895209529235A962C938F5F9089891776
:1056400018F3EF01CF010E94C12A8E8588608E87F2
:105650001092260281E080934E0280E0DF91CF918C
:105660000895CF93DF93FC01A385B4859C91858534
:105670008923E9F0868584608687878591E0980F85
:105680009787803408F544815581668177818689C2
:105690009789A08DB18D840F951FA61FB71F848396
:1056A0009583A683B78381E0DF91CF9108958685A6
:1056B00082FFE3CF178681EE9AE293838283CF0144
:1056C000DF91CF910C94E12AEF01108ACF010E9463
:1056D000C12A8E8588608E871092260281E0809391
:1056E0004E0280E0DF91CF9108951F93CF93DF9317
:1056F000EC011889112369F14E8545FD23C01F86F1
:1057000081E39BE29B838A838E899F89A88DB98DD3
:10571000880F991FAA1FBB1F880F991FAA1FBB1FA5
:105720004C815D816E817F81840F951FA61FB71FFD
:105730008C839D83AE83BF8311E0812FDF91CF9156
:105740001F91089540716B857C858D850E942B1C6F
:10575000D6CF0E94C12A8E8588608E87109226023D
:1057600081E080934E02812FDF91CF911F910895A8
:1057700049E150E068EB7BE2FC0180810E94822DD0
:1057800020E13FE2FC01338322832BE23FE23387B7
:1057900022870895CF93DC0114969C91149720E002
:1057A00030E0C22FF901E458F94FE4919E1741F01F
:1057B0002F5F3F4F20313105A1F78DE20E940D3E52
:1057C00087E980937A002830E8F420917E0081E018
:1057D00090E00C2E01C0880F0A94EAF7822B809388
:1057E0007E004FE150E06AEC7BE28C910E94822DBA
:1057F000FC0180E19CE293838283C28F81E0858FEC
:10580000CF91089520917D003C2F377081E090E08A
:1058100001C0880F3A95EAF7822B80937D00E1CF93
:10582000FC0180917A0086FF0EC084819581A6815B
:10583000B7818853984FAF4FBF4F84839583A6831A
:10584000B78381E00895828D90910002981781F0CE
:105850009F3F59F780930002982F987090937B0098
:105860008770806480937C0087ED80937A00DDCF21
:105870008FEF809300022091780030917900858D20
:10588000968D891780F544895589240F351F8F5FC0
:10589000358B248B858F891760F186899789281726
:1058A0003907C8F1808D918D82179307A0F1138E6F
:1058B0001092260281E080935002408951896289CA
:1058C000738980859185A285B385840F951FA61F56
:1058D000B71F808B918BA28BB38B84839583A68318
:1058E000B78381E0089581E0358B248B858F8917FC
:1058F000A0F6448155816681778184859585A6854A
:10590000B785840F951FA61FB71F84839583A68331
:10591000B78381E00895838D8F5F838F948D89177E
:1059200038F2809127028111C2CF8AE10E940D3E98
:10593000EF92FF920F931F93CF93DF938C0168EB4D
:105940007BE2FC0180810E94B12DEC01F8948E89EC
:1059500080FF13C07E01F8E0EF0EF11CC7010E942A
:10596000563BF80184819581A681B7818C879D87FC
:10597000AE87BF87C7010E94A83B7894DF91CF9183
:105980001F910F91FF90EF9008951F93CF93DF9396
:10599000EC01162FAC89BD891097B9F01296ED91E4
:1059A000FC9113978D919C9111979D8B8C8B1196E7
:1059B0001C921E9213961C921E921297612FCD017B
:1059C0001995AC89BD89109749F71092260281E09C
:1059D00080934F02DF91CF911F910895EF92FF9234
:1059E0001F93CF93DF937C01FC01108168EB7BE276
:1059F000812F0E94B12DEC01F8948E8980FF09C09F
:105A0000F70164816F8B8A7F84608E8BCE010E9448
:105A1000C52CCE010E94563BCE0108960E94563BF3
:105A20001E8A8F8978941F921F921F921F921F9235
:105A30008F931F921F921F921F938BE396E09F9369
:105A40008F930E9444388DB79EB70C960FB6F8948A
:105A50009EBF0FBE8DBFDF91CF911F91FF90EF9042
:105A60000895CF93DF93EC010E94563BCE01089638
:105A70000E94563BEC89FD89309751F090818181DD
:105A80001382128211821082E92FF82F3097B1F71A
:105A90001D8A1C8A188E1F8A1E8ADF91CF91089555
:105AA0000F931F93CF93DF938C0168EB7BE2FC0194
:105AB00080810E94B12DEC01F8940E94312D81E08B
:105AC0008E8BF80184819581A681B7818C839D831B
:105AD000AE83BF8380859185A285B385888B998BA2
